{
  "contractName": "ChainIdMixin",
  "abi": [
    {
      "constant": true,
      "inputs": [],
      "name": "networkId",
      "outputs": [
        {
          "name": "",
          "type": "bytes"
        }
      ],
      "payable": false,
      "stateMutability": "view",
      "type": "function"
    },
    {
      "constant": true,
      "inputs": [],
      "name": "CHAINID",
      "outputs": [
        {
          "name": "",
          "type": "uint256"
        }
      ],
      "payable": false,
      "stateMutability": "view",
      "type": "function"
    }
  ],
  "bytecode": "0x608060405234801561001057600080fd5b50610164806100206000396000f3fe608060405234801561001057600080fd5b5060043610610053576000357c0100000000000000000000000000000000000000000000000000000000900480639025e64c14610058578063cc79f97b146100db575b600080fd5b6100606100f9565b6040518080602001828103825283818151815260200191508051906020019080838360005b838110156100a0578082015181840152602081019050610085565b50505050905090810190601f1680156100cd5780820380516001836020036101000a031916815260200191505b509250505060405180910390f35b6100e3610132565b6040518082815260200191505060405180910390f35b6040805190810160405280600281526020017f3a9900000000000000000000000000000000000000000000000000000000000081525081565b613a998156fea165627a7a723058200b7c64556b0ed83a6f32f721772abbeede5b625d167b89bb80d523e3eb4268880029",
  "source": "pragma solidity ^0.5.2;\n\ncontract ChainIdMixin {\n  bytes constant public networkId = hex\"3A99\";\n  uint256 constant public CHAINID = 15001;\n}",
  "sourcePath": "/Users/macbook/Documents/freelance/node/QUIZE/contracts/contracts/child/misc/ChainIdMixin.sol",
  "compiler": {
    "name": "solc",
    "version": "0.5.2+commit.1df8f40c.Emscripten.clang"
  },
  "schemaVersion": "3.0.2",
  "updatedAt": "2020-06-18T18:26:51.884Z",
  "devdoc": {
    "methods": {}
  },
  "userdoc": {
    "methods": {}
  }
}