{
  "contractName": "ChainConstants",
  "abi": [
    {
      "inputs": [],
      "name": "CHILD_CHAIN_ID",
      "outputs": [
        {
          "internalType": "uint256",
          "name": "",
          "type": "uint256"
        }
      ],
      "stateMutability": "view",
      "type": "function"
    },
    {
      "inputs": [],
      "name": "CHILD_CHAIN_ID_BYTES",
      "outputs": [
        {
          "internalType": "bytes",
          "name": "",
          "type": "bytes"
        }
      ],
      "stateMutability": "view",
      "type": "function"
    },
    {
      "inputs": [],
      "name": "ERC712_VERSION",
      "outputs": [
        {
          "internalType": "string",
          "name": "",
          "type": "string"
        }
      ],
      "stateMutability": "view",
      "type": "function"
    },
    {
      "inputs": [],
      "name": "ROOT_CHAIN_ID",
      "outputs": [
        {
          "internalType": "uint256",
          "name": "",
          "type": "uint256"
        }
      ],
      "stateMutability": "view",
      "type": "function"
    },
    {
      "inputs": [],
      "name": "ROOT_CHAIN_ID_BYTES",
      "outputs": [
        {
          "internalType": "bytes",
          "name": "",
          "type": "bytes"
        }
      ],
      "stateMutability": "view",
      "type": "function"
    }
  ],
  "bytecode": "0x608060405234801561001057600080fd5b5061030d806100206000396000f3fe608060405234801561001057600080fd5b50600436106100575760003560e01c80630b54817c1461005c5780630dd7531a146100df5780630f7e597014610162578063626381a0146101e55780638acfcaf714610203575b600080fd5b610064610221565b6040518080602001828103825283818151815260200191508051906020019080838360005b838110156100a4578082015181840152602081019050610089565b50505050905090810190601f1680156100d15780820380516001836020036101000a031916815260200191505b509250505060405180910390f35b6100e761025a565b6040518080602001828103825283818151815260200191508051906020019080838360005b8381101561012757808201518184015260208101905061010c565b50505050905090810190601f1680156101545780820380516001836020036101000a031916815260200191505b509250505060405180910390f35b61016a610293565b6040518080602001828103825283818151815260200191508051906020019080838360005b838110156101aa57808201518184015260208101905061018f565b50505050905090810190601f1680156101d75780820380516001836020036101000a031916815260200191505b509250505060405180910390f35b6101ed6102cc565b6040518082815260200191505060405180910390f35b61020b6102d2565b6040518082815260200191505060405180910390f35b6040518060400160405280600281526020017f3a9900000000000000000000000000000000000000000000000000000000000081525081565b6040518060400160405280600181526020017f050000000000000000000000000000000000000000000000000000000000000081525081565b6040518060400160405280600181526020017f310000000000000000000000000000000000000000000000000000000000000081525081565b613a9981565b60058156fea26469706673582212204c627ab4355f9c55b9e54fe96f7f31eb54eb2f4b022cb9e1d11808b0b048332864736f6c63430006060033",
  "immutableReferences": {},
  "source": "pragma solidity ^0.6.6;\n\ncontract ChainConstants {\n    string constant public ERC712_VERSION = \"1\";\n\n    uint256 constant public ROOT_CHAIN_ID = 5;\n    bytes constant public ROOT_CHAIN_ID_BYTES = hex\"05\";\n\n    uint256 constant public CHILD_CHAIN_ID = 15001;\n    bytes constant public CHILD_CHAIN_ID_BYTES = hex\"3A99\";\n}",
  "sourcePath": "/Users/macbook/Documents/freelance/node/QUIZE/contracts/contracts/matic_network/child/ChainConstants.sol",
  "compiler": {
    "name": "solc",
    "version": "0.6.6+commit.6c089d02.Linux.g++"
  },
  "schemaVersion": "3.2.2",
  "updatedAt": "2020-08-05T11:02:35.886Z",
  "devdoc": {
    "methods": {}
  },
  "userdoc": {
    "methods": {}
  }
}