{
  "contractName": "HoldMoney",
  "abi": [
    {
      "constant": true,
      "inputs": [],
      "name": "priceEth",
      "outputs": [
        {
          "name": "",
          "type": "uint256"
        }
      ],
      "payable": false,
      "stateMutability": "view",
      "type": "function"
    },
    {
      "constant": true,
      "inputs": [],
      "name": "priceToken",
      "outputs": [
        {
          "name": "",
          "type": "uint256"
        }
      ],
      "payable": false,
      "stateMutability": "view",
      "type": "function"
    },
    {
      "constant": true,
      "inputs": [],
      "name": "owner",
      "outputs": [
        {
          "name": "",
          "type": "address"
        }
      ],
      "payable": false,
      "stateMutability": "view",
      "type": "function"
    },
    {
      "inputs": [],
      "payable": false,
      "stateMutability": "nonpayable",
      "type": "constructor"
    },
    {
      "constant": false,
      "inputs": [
        {
          "name": "_pathHoldMoney",
          "type": "bool"
        },
        {
          "name": "question_id",
          "type": "int256"
        }
      ],
      "name": "_setMoneyRetention",
      "outputs": [
        {
          "name": "",
          "type": "uint256"
        }
      ],
      "payable": true,
      "stateMutability": "payable",
      "type": "function"
    },
    {
      "constant": false,
      "inputs": [
        {
          "name": "_host",
          "type": "address"
        }
      ],
      "name": "_getMoneyRetention",
      "outputs": [
        {
          "name": "",
          "type": "uint256"
        },
        {
          "name": "",
          "type": "address"
        },
        {
          "name": "",
          "type": "bool"
        },
        {
          "name": "",
          "type": "int256"
        }
      ],
      "payable": true,
      "stateMutability": "payable",
      "type": "function"
    },
    {
      "constant": true,
      "inputs": [
        {
          "name": "_path",
          "type": "bool"
        }
      ],
      "name": "moneyRetentionCalculate",
      "outputs": [
        {
          "name": "",
          "type": "uint256"
        }
      ],
      "payable": false,
      "stateMutability": "view",
      "type": "function"
    },
    {
      "constant": true,
      "inputs": [],
      "name": "onHold",
      "outputs": [
        {
          "name": "",
          "type": "uint256"
        }
      ],
      "payable": false,
      "stateMutability": "view",
      "type": "function"
    },
    {
      "constant": true,
      "inputs": [
        {
          "name": "_path",
          "type": "bool"
        },
        {
          "name": "balanceToken",
          "type": "uint256"
        }
      ],
      "name": "_amountGuard",
      "outputs": [
        {
          "name": "",
          "type": "int8"
        }
      ],
      "payable": false,
      "stateMutability": "view",
      "type": "function"
    },
    {
      "constant": true,
      "inputs": [],
      "name": "holdBalance",
      "outputs": [
        {
          "name": "",
          "type": "uint256"
        }
      ],
      "payable": false,
      "stateMutability": "view",
      "type": "function"
    },
    {
      "constant": false,
      "inputs": [
        {
          "name": "_priceEth",
          "type": "uint256"
        },
        {
          "name": "_priceToken",
          "type": "uint256"
        }
      ],
      "name": "setEthPrice",
      "outputs": [],
      "payable": false,
      "stateMutability": "nonpayable",
      "type": "function"
    },
    {
      "constant": true,
      "inputs": [],
      "name": "getHoldMoneyById",
      "outputs": [
        {
          "name": "",
          "type": "uint256"
        }
      ],
      "payable": false,
      "stateMutability": "view",
      "type": "function"
    }
  ],
  "bytecode": "0x6080604052678ac7230489e8000060005534801561001c57600080fd5b5033600160006101000a81548173ffffffffffffffffffffffffffffffffffffffff021916908373ffffffffffffffffffffffffffffffffffffffff1602179055506113ae8061006d6000396000f3fe6080604052600436106100b9576000357c0100000000000000000000000000000000000000000000000000000000900480638229f5e9116100815780638229f5e9146101bb57806383855f1f146102585780638da5cb5b1461029d578063acbee282146102f4578063e6ffed5d1461031f578063f733c28714610380576100b9565b806325f0f5ab146100be57806326c989df1461010f5780632ca383631461013a5780632ff6fe76146101655780637fc5054514610190575b600080fd5b3480156100ca57600080fd5b506100f9600480360360208110156100e157600080fd5b810190808035151590602001909291905050506103ce565b6040518082815260200191505060405180910390f35b34801561011b57600080fd5b50610124610426565b6040518082815260200191505060405180910390f35b34801561014657600080fd5b5061014f610445565b6040518082815260200191505060405180910390f35b34801561017157600080fd5b5061017a61044b565b6040518082815260200191505060405180910390f35b34801561019c57600080fd5b506101a5610451565b6040518082815260200191505060405180910390f35b6101fd600480360360208110156101d157600080fd5b81019080803573ffffffffffffffffffffffffffffffffffffffff169060200190929190505050610595565b604051808581526020018473ffffffffffffffffffffffffffffffffffffffff1673ffffffffffffffffffffffffffffffffffffffff1681526020018315151515815260200182815260200194505050505060405180910390f35b34801561026457600080fd5b5061029b6004803603604081101561027b57600080fd5b810190808035906020019092919080359060200190929190505050610af6565b005b3480156102a957600080fd5b506102b2610bf3565b604051808273ffffffffffffffffffffffffffffffffffffffff1673ffffffffffffffffffffffffffffffffffffffff16815260200191505060405180910390f35b34801561030057600080fd5b50610309610c19565b6040518082815260200191505060405180910390f35b34801561032b57600080fd5b506103646004803603604081101561034257600080fd5b8101908080351515906020019092919080359060200190929190505050610cc1565b604051808260000b60000b815260200191505060405180910390f35b6103b86004803603604081101561039657600080fd5b8101908080351515906020019092919080359060200190929190505050610d14565b6040518082815260200191505060405180910390f35b600061041f6001600460003373ffffffffffffffffffffffffffffffffffffffff1673ffffffffffffffffffffffffffffffffffffffff168152602001908152602001600020600001540183610d40565b9050919050565b60003073ffffffffffffffffffffffffffffffffffffffff1631905090565b60025481565b60035481565b60006001600460003373ffffffffffffffffffffffffffffffffffffffff1673ffffffffffffffffffffffffffffffffffffffff1681526020019081526020016000206000015410151561058d5760008090506000600190505b600460003373ffffffffffffffffffffffffffffffffffffffff1673ffffffffffffffffffffffffffffffffffffffff168152602001908152602001600020600001548160ff16111515610583576000600460003373ffffffffffffffffffffffffffffffffffffffff1673ffffffffffffffffffffffffffffffffffffffff16815260200190815260200160002060010160008360ff16815260200190815260200160002060020160009054906101000a900460ff1690506105718260ff1682610d40565b830192505080806001019150506104ab565b5080915050610592565b600090505b90565b600080600080600160009054906101000a900473ffffffffffffffffffffffffffffffffffffffff1673ffffffffffffffffffffffffffffffffffffffff163373ffffffffffffffffffffffffffffffffffffffff16141515610643576040517f08c379a000000000000000000000000000000000000000000000000000000000815260040180806020018281038252602481526020018061135f6024913960400191505060405180910390fd5b6000600460008773ffffffffffffffffffffffffffffffffffffffff1673ffffffffffffffffffffffffffffffffffffffff168152602001908152602001600020600001541115156106fd576040517f08c379a000000000000000000000000000000000000000000000000000000000815260040180806020018281038252601c8152602001807f446f206e6f74206861766520636f696e73206f6e206163636f756e740000000081525060200191505060405180910390fd5b6000600460008773ffffffffffffffffffffffffffffffffffffffff1673ffffffffffffffffffffffffffffffffffffffff1681526020019081526020016000206000015490506000600460008873ffffffffffffffffffffffffffffffffffffffff1673ffffffffffffffffffffffffffffffffffffffff168152602001908152602001600020600101600083815260200190815260200160002060000160009054906101000a900473ffffffffffffffffffffffffffffffffffffffff1690508673ffffffffffffffffffffffffffffffffffffffff168173ffffffffffffffffffffffffffffffffffffffff16141515610862576040517f08c379a00000000000000000000000000000000000000000000000000000000081526004018080602001828103825260138152602001807f416464726573736573206e6f7420657175616c0000000000000000000000000081525060200191505060405180910390fd5b6000600460008973ffffffffffffffffffffffffffffffffffffffff1673ffffffffffffffffffffffffffffffffffffffff1681526020019081526020016000206001016000848152602001908152602001600020600101549050600460008373ffffffffffffffffffffffffffffffffffffffff1673ffffffffffffffffffffffffffffffffffffffff16815260200190815260200160002060000160008154809291906001900391905055506000600460008a73ffffffffffffffffffffffffffffffffffffffff1673ffffffffffffffffffffffffffffffffffffffff168152602001908152602001600020600101600085815260200190815260200160002060020160009054906101000a900460ff1690506000600460008b73ffffffffffffffffffffffffffffffffffffffff1673ffffffffffffffffffffffffffffffffffffffff1681526020019081526020016000206001016000868152602001908152602001600020600301549050600460008b73ffffffffffffffffffffffffffffffffffffffff1673ffffffffffffffffffffffffffffffffffffffff1681526020019081526020016000206001016000868152602001908152602001600020600080820160006101000a81549073ffffffffffffffffffffffffffffffffffffffff021916905560018201600090556002820160006101000a81549060ff0219169055600382016000905550508115610ada578373ffffffffffffffffffffffffffffffffffffffff166108fc849081150290604051600060405180830381858888f19350505050158015610ac0573d6000803e3d6000fd5b508284838382925098509850985098505050505050610aef565b82848383829250985098509850985050505050505b9193509193565b600160009054906101000a900473ffffffffffffffffffffffffffffffffffffffff1673ffffffffffffffffffffffffffffffffffffffff163373ffffffffffffffffffffffffffffffffffffffff16141515610bbb576040517f08c379a000000000000000000000000000000000000000000000000000000000815260040180806020018281038252601b8152602001807f6f6e6c79206f776e65722063616e206368616e6765207072696365000000000081525060200191505060405180910390fd5b670de0b6b3a764000082811515610bce57fe5b04600281905550670de0b6b3a764000081811515610be857fe5b046003819055505050565b600160009054906101000a900473ffffffffffffffffffffffffffffffffffffffff1681565b6000806001600460003373ffffffffffffffffffffffffffffffffffffffff1673ffffffffffffffffffffffffffffffffffffffff16815260200190815260200160002060000154039050600460003373ffffffffffffffffffffffffffffffffffffffff1673ffffffffffffffffffffffffffffffffffffffff16815260200190815260200160002060010160008281526020019081526020016000206001015491505090565b6000808315610ce9573373ffffffffffffffffffffffffffffffffffffffff16319050610ced565b8290505b610cf6846103ce565b81101515610d08576000915050610d0e565b60019150505b92915050565b60008215610d2d57610d268383610e10565b9050610d3a565b610d3783836110f0565b90505b92915050565b60008060005490506001841415610d95578215610d7057606460025482811515610d6657fe5b0402915050610e0a565b6002606460035483811515610d8157fe5b0402811515610d8c57fe5b04915050610e0a565b600284101515610e08576000600190505b848160ff161015610dc35781820191508080600101915050610da6565b508215610de357606460025482811515610dd957fe5b0402915050610e0a565b6002606460035483811515610df457fe5b0402811515610dff57fe5b04915050610e0a565b505b92915050565b6000610e1b836103ce565b34141515610e91576040517f08c379a00000000000000000000000000000000000000000000000000000000081526004018080602001828103825260148152602001807f446f206e6f7420656e6f75676874206d6f6e657900000000000000000000000081525060200191505060405180910390fd5b60006001600460003373ffffffffffffffffffffffffffffffffffffffff1673ffffffffffffffffffffffffffffffffffffffff1681526020019081526020016000206000015401905033600460003373ffffffffffffffffffffffffffffffffffffffff1673ffffffffffffffffffffffffffffffffffffffff168152602001908152602001600020600101600083815260200190815260200160002060000160006101000a81548173ffffffffffffffffffffffffffffffffffffffff021916908373ffffffffffffffffffffffffffffffffffffffff16021790555034600460003373ffffffffffffffffffffffffffffffffffffffff1673ffffffffffffffffffffffffffffffffffffffff16815260200190815260200160002060010160008381526020019081526020016000206001018190555083600460003373ffffffffffffffffffffffffffffffffffffffff1673ffffffffffffffffffffffffffffffffffffffff168152602001908152602001600020600101600083815260200190815260200160002060020160006101000a81548160ff02191690831515021790555082600460003373ffffffffffffffffffffffffffffffffffffffff1673ffffffffffffffffffffffffffffffffffffffff168152602001908152602001600020600101600083815260200190815260200160002060030181905550600460003373ffffffffffffffffffffffffffffffffffffffff1673ffffffffffffffffffffffffffffffffffffffff168152602001908152602001600020600001600081548092919060010191905055503491505092915050565b6000806110fc846103ce565b905060006001600460003373ffffffffffffffffffffffffffffffffffffffff1673ffffffffffffffffffffffffffffffffffffffff1681526020019081526020016000206000015401905033600460003373ffffffffffffffffffffffffffffffffffffffff1673ffffffffffffffffffffffffffffffffffffffff168152602001908152602001600020600101600083815260200190815260200160002060000160006101000a81548173ffffffffffffffffffffffffffffffffffffffff021916908373ffffffffffffffffffffffffffffffffffffffff16021790555081600460003373ffffffffffffffffffffffffffffffffffffffff1673ffffffffffffffffffffffffffffffffffffffff16815260200190815260200160002060010160008381526020019081526020016000206001018190555084600460003373ffffffffffffffffffffffffffffffffffffffff1673ffffffffffffffffffffffffffffffffffffffff168152602001908152602001600020600101600083815260200190815260200160002060020160006101000a81548160ff02191690831515021790555083600460003373ffffffffffffffffffffffffffffffffffffffff1673ffffffffffffffffffffffffffffffffffffffff168152602001908152602001600020600101600083815260200190815260200160002060030181905550600460003373ffffffffffffffffffffffffffffffffffffffff1673ffffffffffffffffffffffffffffffffffffffff1681526020019081526020016000206000016000815480929190600101919050555081925050509291505056fe4f6e6c79206f776e65722063616e206578656375746520746869732066756e6374696f6ea165627a7a723058202def2d86c3f5b983b5b2118a56d90ea0bb1181808c510cea28709297e9c081020029",
  "source": "pragma solidity ^0.5.2;\n\n\ncontract HoldMoney {\n    //minimum wei for hold one event\n    uint256 amountGuardETH = 10000000000000000000;\n    address public owner;\n    uint256 public priceEth;\n    uint256 public priceToken;\n\n    struct quizeHolder {\n        address payable hostWallet;\n        uint256 money;\n        bool token;\n        int256 question_id;\n    }\n\n    struct quizeAmount {\n        uint256 amount;\n        mapping(uint256 => quizeHolder) holder;\n    }\n\n    mapping(address => quizeAmount) qAmount;\n\n    constructor() public {\n        owner = msg.sender;\n    }\n\n    function _setMoneyRetention(bool _pathHoldMoney, int256 question_id)\n        public\n        payable\n        returns(uint256)\n    {\n        if (_pathHoldMoney) {\n            return setEth(_pathHoldMoney, question_id);\n        } else {\n            return setToken(_pathHoldMoney, question_id);\n        }\n    }\n\n    function setEth(bool _path, int256 question_id) private returns(uint256) {\n        require(msg.value == moneyRetentionCalculate(_path), \"Do not enought money\");\n\n        uint256 index = qAmount[msg.sender].amount + 1;\n        qAmount[msg.sender].holder[index].hostWallet = msg.sender;\n        qAmount[msg.sender].holder[index].money = msg.value;\n        qAmount[msg.sender].holder[index].token = _path;\n        qAmount[msg.sender].holder[index].question_id = question_id;\n        qAmount[msg.sender].amount ++;\n        return msg.value;\n    }\n\n    function setToken(bool _path, int256 question_id) private returns(uint256) {\n        uint256 amount = moneyRetentionCalculate(_path);\n        uint256 index = qAmount[msg.sender].amount + 1;\n        qAmount[msg.sender].holder[index].hostWallet = msg.sender;\n        qAmount[msg.sender].holder[index].money = amount;\n        qAmount[msg.sender].holder[index].token = _path;\n        qAmount[msg.sender].holder[index].question_id = question_id;\n        qAmount[msg.sender].amount ++;\n        return amount;\n    }\n\n    function _getMoneyRetention(address payable _host) public payable returns(uint256, address, bool, int256) {\n        require(msg.sender == owner, \"Only owner can execute this function\");\n        require(qAmount[_host].amount > 0, \"Do not have coins on account\");\n\n        uint256 index = qAmount[_host].amount;\n        address payable host = qAmount[_host].holder[index].hostWallet;\n\n        require(host == _host, \"Addresses not equal\");\n        uint256 money = qAmount[_host].holder[index].money;\n        qAmount[host].amount--;\n        bool path = qAmount[_host].holder[index].token;\n        int256 question_id = qAmount[_host].holder[index].question_id;\n        delete qAmount[_host].holder[index];\n        if (path) {\n            host.transfer(money);\n            return (money, host, path, question_id);\n        } else {\n            return (money, host, path, question_id);\n        }\n    }\n\n    function moneyRetentionCalculate(bool _path) public view returns (uint256) {\n        return moneyCalc(qAmount[msg.sender].amount + 1, _path);\n    }\n\n    function onHold() public view returns (uint256) {\n        if (qAmount[msg.sender].amount >= 1) {\n            uint256 value = 0;\n            for (uint8 i = 1; i <= qAmount[msg.sender].amount; i++) {\n                bool path = qAmount[msg.sender].holder[i].token;\n                value = value + moneyCalc(i, path);\n            }\n            return value;\n        } else {\n            return 0;\n        }\n    }\n\n    function moneyCalc(uint256 number, bool _path) private view returns (uint256) {\n        uint256 value = amountGuardETH;\n        if (number == 1) {\n            if (_path) {\n                return (value / priceEth) * 100;\n            } else {\n                return ((value / priceToken) * 100) / 2;\n            }\n        } else if (number >= 2) {\n            for (uint8 i = 1; i < number; i++) {\n                value = value + value;\n            }\n            if (_path) {\n                return (value / priceEth) * 100;\n            } else {\n                return ((value / priceToken) * 100) / 2;\n            }\n        }\n    }\n\n    function _amountGuard(bool _path, uint256 balanceToken) public view returns (int8) {\n        uint256 balance;\n        if (_path) {\n            balance = address(msg.sender).balance;\n        } else {\n            balance = balanceToken;\n        }\n        if (balance >= moneyRetentionCalculate(_path)) {\n            // don't have any errors\n            return 0;\n        } else {\n            // host does not have enough money\n            return 1;\n        }\n    }\n\n    function holdBalance() public view returns (uint256) {\n        return address(this).balance;\n    }\n\n    function setEthPrice(uint256 _priceEth, uint256 _priceToken) public {\n        require(msg.sender == owner, \"only owner can change price\");\n        priceEth = _priceEth / 1000000000000000000;\n        priceToken = _priceToken / 1000000000000000000;\n    }\n\n    function getHoldMoneyById() public view returns(uint256) {\n        uint256 index = qAmount[msg.sender].amount - 1;\n        return qAmount[msg.sender].holder[index].money;\n    }\n}\n",
  "sourcePath": "/Users/macbook/Documents/freelance/node/QUIZE/frontend/contracts/HoldMoney.sol",
  "compiler": {
    "name": "solc",
    "version": "0.5.2+commit.1df8f40c.Emscripten.clang"
  },
  "schemaVersion": "3.0.19",
  "updatedAt": "2020-04-08T11:49:49.203Z",
  "devdoc": {
    "methods": {}
  },
  "userdoc": {
    "methods": {}
  }
}