{
  "contractName": "HoldMoney",
  "abi": [
    {
      "constant": false,
      "inputs": [
        {
          "name": "_question_id",
          "type": "int256"
        },
        {
          "name": "_endTime",
          "type": "uint256"
        }
      ],
      "name": "_setMoneyRetention",
      "outputs": [],
      "payable": true,
      "stateMutability": "payable",
      "type": "function"
    },
    {
      "constant": false,
      "inputs": [
        {
          "name": "_question_id",
          "type": "int256"
        }
      ],
      "name": "getMoneyRetention",
      "outputs": [],
      "payable": true,
      "stateMutability": "payable",
      "type": "function"
    },
    {
      "constant": true,
      "inputs": [
        {
          "name": "_question_id",
          "type": "int256"
        }
      ],
      "name": "getHoldMoneyById",
      "outputs": [
        {
          "name": "",
          "type": "uint256"
        }
      ],
      "payable": false,
      "stateMutability": "view",
      "type": "function"
    },
    {
      "constant": true,
      "inputs": [],
      "name": "moneyRetentionCalculate",
      "outputs": [
        {
          "name": "",
          "type": "uint256"
        }
      ],
      "payable": false,
      "stateMutability": "view",
      "type": "function"
    },
    {
      "constant": true,
      "inputs": [],
      "name": "onHold",
      "outputs": [
        {
          "name": "",
          "type": "uint256"
        }
      ],
      "payable": false,
      "stateMutability": "view",
      "type": "function"
    },
    {
      "constant": true,
      "inputs": [],
      "name": "amountGuard",
      "outputs": [
        {
          "name": "",
          "type": "int8"
        }
      ],
      "payable": false,
      "stateMutability": "view",
      "type": "function"
    },
    {
      "constant": true,
      "inputs": [],
      "name": "holdBalance",
      "outputs": [
        {
          "name": "",
          "type": "uint256"
        }
      ],
      "payable": false,
      "stateMutability": "view",
      "type": "function"
    }
  ],
  "bytecode": "0x6080604052670de0b6b3a764000060005534801561001c57600080fd5b506106c38061002c6000396000f3fe60806040526004361061008d576000357c0100000000000000000000000000000000000000000000000000000000900480637fc505451161006b5780637fc50545146101265780638a1e576f146101515780639eaecdb7146101a0578063bf792a90146101cb5761008d565b806311c1721d146100925780631441dc56146100ca57806326c989df146100fb575b600080fd5b6100c8600480360360408110156100a857600080fd5b8101908080359060200190929190803590602001909291905050506101f9565b005b3480156100d657600080fd5b506100df610358565b604051808260000b60000b815260200191505060405180910390f35b34801561010757600080fd5b50610110610392565b6040518082815260200191505060405180910390f35b34801561013257600080fd5b5061013b6103b1565b6040518082815260200191505060405180910390f35b34801561015d57600080fd5b5061018a6004803603602081101561017457600080fd5b8101908080359060200190929190505050610487565b6040518082815260200191505060405180910390f35b3480156101ac57600080fd5b506101b56104a7565b6040518082815260200191505060405180910390f35b6101f7600480360360208110156101e157600080fd5b81019080803590602001909291905050506104fc565b005b6102016104a7565b34141515610277576040517f08c379a00000000000000000000000000000000000000000000000000000000081526004018080602001828103825260148152602001807f446f206e6f7420656e6f75676874206d6f6e657900000000000000000000000081525060200191505060405180910390fd5b336001600084815260200190815260200160002060000160006101000a81548173ffffffffffffffffffffffffffffffffffffffff021916908373ffffffffffffffffffffffffffffffffffffffff160217905550346001600084815260200190815260200160002060010181905550806001600084815260200190815260200160002060020181905550600260003373ffffffffffffffffffffffffffffffffffffffff1673ffffffffffffffffffffffffffffffffffffffff168152602001908152602001600020600001600081548092919060010191905055505050565b60006103626104a7565b3373ffffffffffffffffffffffffffffffffffffffff163110151561038a576000905061038f565b600190505b90565b60003073ffffffffffffffffffffffffffffffffffffffff1631905090565b60006001600260003373ffffffffffffffffffffffffffffffffffffffff1673ffffffffffffffffffffffffffffffffffffffff1681526020019081526020016000206000015410151561047f57600080905060008090505b600260003373ffffffffffffffffffffffffffffffffffffffff1673ffffffffffffffffffffffffffffffffffffffff168152602001908152602001600020600001548160ff16111515610475576104648160ff1661063e565b82019150808060010191505061040a565b5080915050610484565b600090505b90565b600060016000838152602001908152602001600020600101549050919050565b60006104f76001600260003373ffffffffffffffffffffffffffffffffffffffff1673ffffffffffffffffffffffffffffffffffffffff168152602001908152602001600020600001540161063e565b905090565b60006001600083815260200190815260200160002060000160009054906101000a900473ffffffffffffffffffffffffffffffffffffffff169050600060016000848152602001908152602001600020600101549050600260008373ffffffffffffffffffffffffffffffffffffffff1673ffffffffffffffffffffffffffffffffffffffff16815260200190815260200160002060000160008154809291906001900391905055508173ffffffffffffffffffffffffffffffffffffffff166108fc829081150290604051600060405180830381858888f193505050501580156105eb573d6000803e3d6000fd5b5060016000848152602001908152602001600020600080820160006101000a81549073ffffffffffffffffffffffffffffffffffffffff0219169055600182016000905560028201600090555050505050565b600080600054905060018314156106585780915050610692565b600283101515610690576000600190505b838160ff1610156106865781820191508080600101915050610669565b5080915050610692565b505b91905056fea165627a7a723058205fd84bd2c4188a4f6e530cf6fd7e061103387a86fa90823042af46f108a0bac70029",
  "source": "pragma solidity ^0.5.2;\n\ncontract HoldMoney {\n    //minimum wei for hold one event\n    uint256 amountGuardWei = 1000000000000000000;\n\n    struct quizeHolder {\n        address payable hostWallet;\n        uint256 money;\n        uint256 endTime;\n    }\n\n    struct quizeAmount {\n        uint256 amount;\n    }\n\n    mapping(int256 => quizeHolder) holder;\n\n    mapping(address => quizeAmount) qAmount;\n\n    function _setMoneyRetention(\n        int256 _question_id,\n        uint256 _endTime\n    ) public payable {\n        require(msg.value == moneyRetentionCalculate(), \"Do not enought money\");\n        holder[_question_id].hostWallet = msg.sender;\n        holder[_question_id].money = msg.value;\n        holder[_question_id].endTime = _endTime;\n        qAmount[msg.sender].amount ++;\n    }\n\n    function getMoneyRetention(int256 _question_id) public payable {\n        address payable host = holder[_question_id].hostWallet;\n        uint256 money = holder[_question_id].money;\n        qAmount[host].amount --;\n        host.transfer(money);\n        delete holder[_question_id];\n    }\n\n    function getHoldMoneyById(int256 _question_id) public view returns (uint256) {\n        return holder[_question_id].money;\n    }\n\n    function moneyRetentionCalculate() public view returns (uint256) {\n        return moneyCalc(qAmount[msg.sender].amount + 1);\n    }\n\n    function onHold() public view returns (uint256) {\n        if (qAmount[msg.sender].amount >= 1) {\n            uint256 value = 0;\n            for (uint8 i = 0; i <= qAmount[msg.sender].amount; i++) {\n                value = value + moneyCalc(i);\n            }\n            return value;\n        } else {\n            return 0;\n        }\n    }\n\n    function moneyCalc(uint256 number) private view returns (uint256) {\n        uint256 value = amountGuardWei;\n        if (number == 1) {\n            return value;\n        } else if (number >= 2) {\n            for (uint8 i = 1; i < number; i++) {\n                value = value + value;\n            }\n            return value;\n        }\n    }\n\n    function amountGuard() public view returns (int8) {\n        if (address(msg.sender).balance >= moneyRetentionCalculate()) {\n            // don't have any errors\n            return 0;\n        } else {\n            // host does not have enough money\n            return 1;\n        }\n    }\n\n    function holdBalance() public view returns (uint256){\n        return address(this).balance;\n    }\n}\n",
  "sourcePath": "/Users/macbook/Documents/freelance/node/QUIZE/frontend/contracts/HoldMoney.sol",
  "compiler": {
    "name": "solc",
    "version": "0.5.2+commit.1df8f40c.Emscripten.clang"
  },
  "schemaVersion": "3.0.19",
  "updatedAt": "2020-03-27T16:00:20.783Z",
  "networkType": "ethereum",
  "devdoc": {
    "methods": {}
  },
  "userdoc": {
    "methods": {}
  }
}