{
  "contractName": "HoldMoney",
  "abi": [
    {
      "constant": true,
      "inputs": [],
      "name": "owner",
      "outputs": [
        {
          "name": "",
          "type": "address"
        }
      ],
      "payable": false,
      "stateMutability": "view",
      "type": "function"
    },
    {
      "inputs": [],
      "payable": false,
      "stateMutability": "nonpayable",
      "type": "constructor"
    },
    {
      "constant": false,
      "inputs": [
        {
          "name": "_question_id",
          "type": "int256"
        },
        {
          "name": "_endTime",
          "type": "uint256"
        },
        {
          "name": "_pathHoldMoney",
          "type": "bool"
        }
      ],
      "name": "_setMoneyRetention",
      "outputs": [],
      "payable": true,
      "stateMutability": "payable",
      "type": "function"
    },
    {
      "constant": false,
      "inputs": [
        {
          "name": "_question_id",
          "type": "int256"
        }
      ],
      "name": "getMoneyRetention",
      "outputs": [],
      "payable": true,
      "stateMutability": "payable",
      "type": "function"
    },
    {
      "constant": true,
      "inputs": [
        {
          "name": "_question_id",
          "type": "int256"
        }
      ],
      "name": "getHoldMoneyById",
      "outputs": [
        {
          "name": "",
          "type": "uint256"
        }
      ],
      "payable": false,
      "stateMutability": "view",
      "type": "function"
    },
    {
      "constant": true,
      "inputs": [],
      "name": "moneyRetentionCalculate",
      "outputs": [
        {
          "name": "",
          "type": "uint256"
        }
      ],
      "payable": false,
      "stateMutability": "view",
      "type": "function"
    },
    {
      "constant": true,
      "inputs": [],
      "name": "onHold",
      "outputs": [
        {
          "name": "",
          "type": "uint256"
        }
      ],
      "payable": false,
      "stateMutability": "view",
      "type": "function"
    },
    {
      "constant": true,
      "inputs": [],
      "name": "amountGuard",
      "outputs": [
        {
          "name": "",
          "type": "int8"
        }
      ],
      "payable": false,
      "stateMutability": "view",
      "type": "function"
    },
    {
      "constant": true,
      "inputs": [],
      "name": "holdBalance",
      "outputs": [
        {
          "name": "",
          "type": "uint256"
        }
      ],
      "payable": false,
      "stateMutability": "view",
      "type": "function"
    },
    {
      "constant": false,
      "inputs": [
        {
          "name": "_priceEth",
          "type": "uint256"
        }
      ],
      "name": "setEthPrice",
      "outputs": [],
      "payable": false,
      "stateMutability": "nonpayable",
      "type": "function"
    }
  ],
  "bytecode": "0x6080604052670de0b6b3a764000060005534801561001c57600080fd5b5033600160006101000a81548173ffffffffffffffffffffffffffffffffffffffff021916908373ffffffffffffffffffffffffffffffffffffffff16021790555061093d8061006d6000396000f3fe6080604052600436106100a2576000357c0100000000000000000000000000000000000000000000000000000000900480638a1e576f116100765780638a1e576f146101695780638da5cb5b146101b85780639eaecdb71461020f578063bf792a901461023a578063d685015f14610268576100a2565b80629f9262146100a75780631441dc56146100e257806326c989df146101135780637fc505451461013e575b600080fd5b3480156100b357600080fd5b506100e0600480360360208110156100ca57600080fd5b81019080803590602001909291905050506102ac565b005b3480156100ee57600080fd5b506100f761037b565b604051808260000b60000b815260200191505060405180910390f35b34801561011f57600080fd5b506101286103b5565b6040518082815260200191505060405180910390f35b34801561014a57600080fd5b506101536103d4565b6040518082815260200191505060405180910390f35b34801561017557600080fd5b506101a26004803603602081101561018c57600080fd5b81019080803590602001909291905050506104aa565b6040518082815260200191505060405180910390f35b3480156101c457600080fd5b506101cd6104ca565b604051808273ffffffffffffffffffffffffffffffffffffffff1673ffffffffffffffffffffffffffffffffffffffff16815260200191505060405180910390f35b34801561021b57600080fd5b506102246104f0565b6040518082815260200191505060405180910390f35b6102666004803603602081101561025057600080fd5b8101908080359060200190929190505050610545565b005b6102aa6004803603606081101561027e57600080fd5b8101908080359060200190929190803590602001909291908035151590602001909291905050506106c0565b005b600160009054906101000a900473ffffffffffffffffffffffffffffffffffffffff1673ffffffffffffffffffffffffffffffffffffffff163373ffffffffffffffffffffffffffffffffffffffff16141515610371576040517f08c379a000000000000000000000000000000000000000000000000000000000815260040180806020018281038252601b8152602001807f6f6e6c79206f776e65722063616e206368616e6765207072696365000000000081525060200191505060405180910390fd5b8060028190555050565b60006103856104f0565b3373ffffffffffffffffffffffffffffffffffffffff16311015156103ad57600090506103b2565b600190505b90565b60003073ffffffffffffffffffffffffffffffffffffffff1631905090565b60006001600460003373ffffffffffffffffffffffffffffffffffffffff1673ffffffffffffffffffffffffffffffffffffffff168152602001908152602001600020600001541015156104a257600080905060008090505b600460003373ffffffffffffffffffffffffffffffffffffffff1673ffffffffffffffffffffffffffffffffffffffff168152602001908152602001600020600001548160ff16111515610498576104878160ff166106e5565b82019150808060010191505061042d565b50809150506104a7565b600090505b90565b600060036000838152602001908152602001600020600101549050919050565b600160009054906101000a900473ffffffffffffffffffffffffffffffffffffffff1681565b60006105406001600460003373ffffffffffffffffffffffffffffffffffffffff1673ffffffffffffffffffffffffffffffffffffffff16815260200190815260200160002060000154016106e5565b905090565b60006003600083815260200190815260200160002060000160009054906101000a900473ffffffffffffffffffffffffffffffffffffffff1690506000600360008481526020019081526020016000206001015490506001600460008473ffffffffffffffffffffffffffffffffffffffff1673ffffffffffffffffffffffffffffffffffffffff1681526020019081526020016000206000015403600460008473ffffffffffffffffffffffffffffffffffffffff1673ffffffffffffffffffffffffffffffffffffffff168152602001908152602001600020600001819055508173ffffffffffffffffffffffffffffffffffffffff166108fc829081150290604051600060405180830381858888f1935050505015801561066d573d6000803e3d6000fd5b5060036000848152602001908152602001600020600080820160006101000a81549073ffffffffffffffffffffffffffffffffffffffff0219169055600182016000905560028201600090555050505050565b80156106d5576106d0838361073e565b6106e0565b6106df838361089d565b5b505050565b600080600054905060018314156106ff5780915050610739565b600283101515610737576000600190505b838160ff16101561072d5781820191508080600101915050610710565b5080915050610739565b505b919050565b6107466104f0565b341415156107bc576040517f08c379a00000000000000000000000000000000000000000000000000000000081526004018080602001828103825260148152602001807f446f206e6f7420656e6f75676874206d6f6e657900000000000000000000000081525060200191505060405180910390fd5b336003600084815260200190815260200160002060000160006101000a81548173ffffffffffffffffffffffffffffffffffffffff021916908373ffffffffffffffffffffffffffffffffffffffff160217905550346003600084815260200190815260200160002060010181905550806003600084815260200190815260200160002060020181905550600460003373ffffffffffffffffffffffffffffffffffffffff1673ffffffffffffffffffffffffffffffffffffffff168152602001908152602001600020600001600081548092919060010191905055505050565b336003600084815260200190815260200160002060000160006101000a81548173ffffffffffffffffffffffffffffffffffffffff021916908373ffffffffffffffffffffffffffffffffffffffff160217905550806003600084815260200190815260200160002060020181905550505056fea165627a7a72305820aa13b774c8bd247f89b96f89e4a2c316aaeaa27c44de9fa7517d73b6a02e242d0029",
  "source": "pragma solidity ^0.5.2;\n\n\ncontract HoldMoney {\n    //minimum wei for hold one event\n    uint256 amountGuardWei = 1000000000000000000;\n    address public owner;\n    uint256 priceEth;\n\n    struct quizeHolder {\n        address payable hostWallet;\n        uint256 money;\n        uint256 endTime;\n    }\n\n    struct quizeAmount {\n        uint256 amount;\n    }\n\n    mapping(int256 => quizeHolder) holder;\n\n    mapping(address => quizeAmount) qAmount;\n\n    constructor() public {\n        owner = msg.sender;\n    }\n\n    function _setMoneyRetention(\n        int256 _question_id,\n        uint256 _endTime,\n        bool _pathHoldMoney\n    ) public payable {\n        if (_pathHoldMoney) {\n            setEth(_question_id, _endTime);\n        } else {\n            setToken(_question_id, _endTime);\n        }\n    }\n\n    function setEth(int256 _question_id, uint256 _endTime) private {\n        require(msg.value == moneyRetentionCalculate(), \"Do not enought money\");\n        holder[_question_id].hostWallet = msg.sender;\n        holder[_question_id].money = msg.value;\n        holder[_question_id].endTime = _endTime;\n        qAmount[msg.sender].amount++;\n    }\n\n    function setToken(int256 _question_id, uint256 _endTime) private {\n        holder[_question_id].hostWallet = msg.sender;\n        holder[_question_id].endTime = _endTime;\n    }\n\n    function getMoneyRetention(int256 _question_id) public payable {\n      //  require(msg.sender == owner, \"Only owner can execute this function\");\n        address payable host = holder[_question_id].hostWallet;\n        uint256 money = holder[_question_id].money;\n        qAmount[host].amount = qAmount[host].amount - 1;\n        host.transfer(money);\n        delete holder[_question_id];\n    }\n\n    function getHoldMoneyById(int256 _question_id)\n        public\n        view\n        returns (uint256)\n    {\n        return holder[_question_id].money;\n    }\n\n    function moneyRetentionCalculate() public view returns (uint256) {\n        return moneyCalc(qAmount[msg.sender].amount + 1);\n    }\n\n    function onHold() public view returns (uint256) {\n        if (qAmount[msg.sender].amount >= 1) {\n            uint256 value = 0;\n            for (uint8 i = 0; i <= qAmount[msg.sender].amount; i++) {\n                value = value + moneyCalc(i);\n            }\n            return value;\n        } else {\n            return 0;\n        }\n    }\n\n    function moneyCalc(uint256 number) private view returns (uint256) {\n        uint256 value = amountGuardWei;\n        if (number == 1) {\n            return value;\n        } else if (number >= 2) {\n            for (uint8 i = 1; i < number; i++) {\n                value = value + value;\n            }\n            return value;\n        }\n    }\n\n    function amountGuard() public view returns (int8) {\n        if (address(msg.sender).balance >= moneyRetentionCalculate()) {\n            // don't have any errors\n            return 0;\n        } else {\n            // host does not have enough money\n            return 1;\n        }\n    }\n\n    function holdBalance() public view returns (uint256) {\n        return address(this).balance;\n    }\n\n    function setEthPrice(uint256 _priceEth) public {\n        require(msg.sender == owner, \"only owner can change price\");\n        priceEth = _priceEth;\n    }\n}\n",
  "sourcePath": "/Users/macbook/Documents/freelance/node/QUIZE/frontend/contracts/HoldMoney.sol",
  "compiler": {
    "name": "solc",
    "version": "0.5.2+commit.1df8f40c.Emscripten.clang"
  },
  "schemaVersion": "3.0.19",
  "updatedAt": "2020-03-31T08:52:32.482Z",
  "devdoc": {
    "methods": {}
  },
  "userdoc": {
    "methods": {}
  }
}