{
  "contractName": "HoldMoney",
  "abi": [
    {
      "constant": false,
      "inputs": [
        {
          "internalType": "uint256",
          "name": "_amountHost",
          "type": "uint256"
        },
        {
          "internalType": "int256",
          "name": "_question_id",
          "type": "int256"
        },
        {
          "internalType": "uint256",
          "name": "_money",
          "type": "uint256"
        },
        {
          "internalType": "uint256",
          "name": "_endTime",
          "type": "uint256"
        }
      ],
      "name": "_setMoneyRetention",
      "outputs": [],
      "payable": false,
      "stateMutability": "nonpayable",
      "type": "function"
    },
    {
      "constant": false,
      "inputs": [
        {
          "internalType": "int256",
          "name": "_question_id",
          "type": "int256"
        }
      ],
      "name": "_getMoneyRetention",
      "outputs": [],
      "payable": true,
      "stateMutability": "payable",
      "type": "function"
    },
    {
      "constant": true,
      "inputs": [
        {
          "internalType": "int256",
          "name": "_question_id",
          "type": "int256"
        }
      ],
      "name": "_getHoldMoneyById",
      "outputs": [
        {
          "internalType": "uint256",
          "name": "",
          "type": "uint256"
        }
      ],
      "payable": false,
      "stateMutability": "view",
      "type": "function"
    },
    {
      "constant": true,
      "inputs": [],
      "name": "_moneyRetentionCalculate",
      "outputs": [
        {
          "internalType": "uint256",
          "name": "",
          "type": "uint256"
        }
      ],
      "payable": false,
      "stateMutability": "view",
      "type": "function"
    },
    {
      "constant": true,
      "inputs": [],
      "name": "_onHold",
      "outputs": [
        {
          "internalType": "uint256",
          "name": "",
          "type": "uint256"
        }
      ],
      "payable": false,
      "stateMutability": "view",
      "type": "function"
    },
    {
      "constant": true,
      "inputs": [
        {
          "internalType": "uint256",
          "name": "_amountHost",
          "type": "uint256"
        }
      ],
      "name": "_amountGuard",
      "outputs": [
        {
          "internalType": "int8",
          "name": "",
          "type": "int8"
        }
      ],
      "payable": false,
      "stateMutability": "view",
      "type": "function"
    }
  ],
  "bytecode": "0x6080604052670de0b6b3a764000060005534801561001c57600080fd5b506106958061002c6000396000f3fe608060405260043610610072576000357c010000000000000000000000000000000000000000000000000000000090048063560b251d146100775780635ff799c0146100a25780638b861b19146100cd578063c1b3a33e14610122578063cc544e4f14610171578063f5bfe690146101ca575b600080fd5b34801561008357600080fd5b5061008c6101f8565b6040518082815260200191505060405180910390f35b3480156100ae57600080fd5b506100b761024d565b6040518082815260200191505060405180910390f35b3480156100d957600080fd5b50610106600480360360208110156100f057600080fd5b810190808035906020019092919050505061031f565b604051808260000b60000b815260200191505060405180910390f35b34801561012e57600080fd5b5061015b6004803603602081101561014557600080fd5b8101908080359060200190929190505050610342565b6040518082815260200191505060405180910390f35b34801561017d57600080fd5b506101c86004803603608081101561019457600080fd5b8101908080359060200190929190803590602001909291908035906020019092919080359060200190929190505050610362565b005b6101f6600480360360208110156101e057600080fd5b810190808035906020019092919050505061048e565b005b60006102486001600260003373ffffffffffffffffffffffffffffffffffffffff1673ffffffffffffffffffffffffffffffffffffffff1681526020019081526020016000206000015401610609565b905090565b60006001600260003373ffffffffffffffffffffffffffffffffffffffff1673ffffffffffffffffffffffffffffffffffffffff168152602001908152602001600020600001541061031757600080905060008090505b600260003373ffffffffffffffffffffffffffffffffffffffff1673ffffffffffffffffffffffffffffffffffffffff168152602001908152602001600020600001548160ff161161030d576102fc8160ff16610609565b8201915080806001019150506102a4565b508091505061031c565b600090505b90565b60006103296101f8565b8210610338576000905061033d565b600190505b919050565b600060016000838152602001908152602001600020600101549050919050565b61036a6101f8565b841061048857336001600085815260200190815260200160002060000160006101000a81548173ffffffffffffffffffffffffffffffffffffffff021916908373ffffffffffffffffffffffffffffffffffffffff1602179055508160016000858152602001908152602001600020600101819055508060016000858152602001908152602001600020600201819055506001600260003373ffffffffffffffffffffffffffffffffffffffff1673ffffffffffffffffffffffffffffffffffffffff1681526020019081526020016000206000015401600260003373ffffffffffffffffffffffffffffffffffffffff1673ffffffffffffffffffffffffffffffffffffffff168152602001908152602001600020600001819055505b50505050565b60006001600083815260200190815260200160002060000160009054906101000a900473ffffffffffffffffffffffffffffffffffffffff1690506000600160008481526020019081526020016000206001015490506001600260008473ffffffffffffffffffffffffffffffffffffffff1673ffffffffffffffffffffffffffffffffffffffff1681526020019081526020016000206000015403600260008473ffffffffffffffffffffffffffffffffffffffff1673ffffffffffffffffffffffffffffffffffffffff168152602001908152602001600020600001819055508173ffffffffffffffffffffffffffffffffffffffff166108fc829081150290604051600060405180830381858888f193505050501580156105b6573d6000803e3d6000fd5b5060016000848152602001908152602001600020600080820160006101000a81549073ffffffffffffffffffffffffffffffffffffffff0219169055600182016000905560028201600090555050505050565b60008060005490506001831415610623578091505061065b565b60028310610659576000600190505b838160ff16101561064f5781820191508080600101915050610632565b508091505061065b565b505b91905056fea265627a7a72315820d5d32192e818aafffb47f0645cc85ad7d196651ccfeaa63782aa042139ee794964736f6c634300050c0032",
  "source": "pragma solidity ^0.5.2;\n\ncontract HoldMoney {\n    //minimum wei for hold one event\n    uint256 amountGuardWei = 1000000000000000000;\n\n    struct quizeHolder {\n        address payable hostWallet;\n        uint256 money;\n        uint256 endTime;\n    }\n\n    struct quizeAmount {\n        uint256 amount;\n    }\n\n    mapping(int256 => quizeHolder) holder;\n\n    mapping(address => quizeAmount) qAmount;\n\n    function _setMoneyRetention(\n        uint256 _amountHost,\n        int256 _question_id,\n        uint256 _money,\n        uint256 _endTime\n    ) public {\n        // rewrite all to this function\n        // uint balance = address(this).balance;\n        if (_amountHost >= _moneyRetentionCalculate()) {\n            holder[_question_id].hostWallet = msg.sender;\n            holder[_question_id].money = _money;\n            holder[_question_id].endTime = _endTime;\n            qAmount[msg.sender].amount = qAmount[msg.sender].amount + 1;\n        }\n    }\n\n    function _getMoneyRetention(int256 _question_id) public payable {\n        address payable host = holder[_question_id].hostWallet;\n        uint256 money = holder[_question_id].money;\n        qAmount[host].amount = qAmount[host].amount - 1;\n        host.transfer(money);\n        delete holder[_question_id];\n    }\n\n    function _getHoldMoneyById(int256 _question_id) public view returns (uint256) {\n        return holder[_question_id].money;\n    }\n\n    function _moneyRetentionCalculate() public view returns (uint256) {\n        return moneyCalc(qAmount[msg.sender].amount + 1);\n    }\n\n    function _onHold() public view returns (uint256) {\n        if (qAmount[msg.sender].amount >= 1) {\n            uint256 value = 0;\n            for (uint8 i = 0; i <= qAmount[msg.sender].amount; i++) {\n                value = value + moneyCalc(i);\n            }\n            return value;\n        } else {\n            return 0;\n        }\n    }\n\n    function moneyCalc(uint256 number) private view returns (uint256) {\n        uint256 value = amountGuardWei;\n        if (number == 1) {\n            return value;\n        } else if (number >= 2) {\n            for (uint8 i = 1; i < number; i++) {\n                value = value + value;\n            }\n            return value;\n        }\n    }\n\n    function _amountGuard(uint256 _amountHost) public view returns (int8) {\n        if (_amountHost >= _moneyRetentionCalculate()) {\n            // don't have any errors\n            return 0;\n        } else {\n            // host does not have enough money\n            return 1;\n        }\n    }\n}\n",
  "sourcePath": "/Users/macbook/Documents/freelance/node/QUIZE/frontend/contracts/HoldMoney.sol",
  "compiler": {
    "name": "solc",
    "version": "0.5.12+commit.7709ece9.Linux.g++"
  },
  "schemaVersion": "3.0.19",
  "updatedAt": "2020-03-19T08:32:39.497Z",
  "devdoc": {
    "methods": {}
  },
  "userdoc": {
    "methods": {}
  }
}