{
  "contractName": "HoldMoney",
  "abi": [
    {
      "constant": true,
      "inputs": [],
      "name": "priceEth",
      "outputs": [
        {
          "name": "",
          "type": "uint256"
        }
      ],
      "payable": false,
      "stateMutability": "view",
      "type": "function"
    },
    {
      "constant": true,
      "inputs": [],
      "name": "priceToken",
      "outputs": [
        {
          "name": "",
          "type": "uint256"
        }
      ],
      "payable": false,
      "stateMutability": "view",
      "type": "function"
    },
    {
      "constant": true,
      "inputs": [],
      "name": "owner",
      "outputs": [
        {
          "name": "",
          "type": "address"
        }
      ],
      "payable": false,
      "stateMutability": "view",
      "type": "function"
    },
    {
      "inputs": [],
      "payable": false,
      "stateMutability": "nonpayable",
      "type": "constructor"
    },
    {
      "constant": false,
      "inputs": [
        {
          "name": "_pathHoldMoney",
          "type": "bool"
        }
      ],
      "name": "_setMoneyRetention",
      "outputs": [
        {
          "name": "",
          "type": "uint256"
        }
      ],
      "payable": true,
      "stateMutability": "payable",
      "type": "function"
    },
    {
      "constant": false,
      "inputs": [
        {
          "name": "_host",
          "type": "address"
        }
      ],
      "name": "_getMoneyRetention",
      "outputs": [
        {
          "name": "",
          "type": "uint256"
        },
        {
          "name": "",
          "type": "address"
        },
        {
          "name": "",
          "type": "bool"
        }
      ],
      "payable": true,
      "stateMutability": "payable",
      "type": "function"
    },
    {
      "constant": true,
      "inputs": [
        {
          "name": "_path",
          "type": "bool"
        }
      ],
      "name": "moneyRetentionCalculate",
      "outputs": [
        {
          "name": "",
          "type": "uint256"
        }
      ],
      "payable": false,
      "stateMutability": "view",
      "type": "function"
    },
    {
      "constant": true,
      "inputs": [],
      "name": "onHold",
      "outputs": [
        {
          "name": "",
          "type": "uint256"
        }
      ],
      "payable": false,
      "stateMutability": "view",
      "type": "function"
    },
    {
      "constant": true,
      "inputs": [
        {
          "name": "_path",
          "type": "bool"
        },
        {
          "name": "balanceToken",
          "type": "uint256"
        }
      ],
      "name": "_amountGuard",
      "outputs": [
        {
          "name": "",
          "type": "int8"
        }
      ],
      "payable": false,
      "stateMutability": "view",
      "type": "function"
    },
    {
      "constant": true,
      "inputs": [],
      "name": "holdBalance",
      "outputs": [
        {
          "name": "",
          "type": "uint256"
        }
      ],
      "payable": false,
      "stateMutability": "view",
      "type": "function"
    },
    {
      "constant": false,
      "inputs": [
        {
          "name": "_priceEth",
          "type": "uint256"
        },
        {
          "name": "_priceToken",
          "type": "uint256"
        }
      ],
      "name": "setEthPrice",
      "outputs": [],
      "payable": false,
      "stateMutability": "nonpayable",
      "type": "function"
    },
    {
      "constant": true,
      "inputs": [],
      "name": "getHoldMoneyById",
      "outputs": [
        {
          "name": "",
          "type": "uint256"
        }
      ],
      "payable": false,
      "stateMutability": "view",
      "type": "function"
    }
  ],
  "bytecode": "0x6080604052678ac7230489e8000060005534801561001c57600080fd5b5033600160006101000a81548173ffffffffffffffffffffffffffffffffffffffff021916908373ffffffffffffffffffffffffffffffffffffffff1602179055506112778061006d6000396000f3fe6080604052600436106100b9576000357c0100000000000000000000000000000000000000000000000000000000900480638229f5e9116100815780638229f5e9146101bb57806383855f1f146102515780638da5cb5b14610296578063acbee282146102ed578063e6ffed5d14610318578063f06e184214610379576100b9565b806325f0f5ab146100be57806326c989df1461010f5780632ca383631461013a5780632ff6fe76146101655780637fc5054514610190575b600080fd5b3480156100ca57600080fd5b506100f9600480360360208110156100e157600080fd5b810190808035151590602001909291905050506103bd565b6040518082815260200191505060405180910390f35b34801561011b57600080fd5b50610124610415565b6040518082815260200191505060405180910390f35b34801561014657600080fd5b5061014f610434565b6040518082815260200191505060405180910390f35b34801561017157600080fd5b5061017a61043a565b6040518082815260200191505060405180910390f35b34801561019c57600080fd5b506101a5610440565b6040518082815260200191505060405180910390f35b6101fd600480360360208110156101d157600080fd5b81019080803573ffffffffffffffffffffffffffffffffffffffff169060200190929190505050610584565b604051808481526020018373ffffffffffffffffffffffffffffffffffffffff1673ffffffffffffffffffffffffffffffffffffffff16815260200182151515158152602001935050505060405180910390f35b34801561025d57600080fd5b506102946004803603604081101561027457600080fd5b810190808035906020019092919080359060200190929190505050610a79565b005b3480156102a257600080fd5b506102ab610b76565b604051808273ffffffffffffffffffffffffffffffffffffffff1673ffffffffffffffffffffffffffffffffffffffff16815260200191505060405180910390f35b3480156102f957600080fd5b50610302610b9c565b6040518082815260200191505060405180910390f35b34801561032457600080fd5b5061035d6004803603604081101561033b57600080fd5b8101908080351515906020019092919080359060200190929190505050610c44565b604051808260000b60000b815260200191505060405180910390f35b6103a76004803603602081101561038f57600080fd5b81019080803515159060200190929190505050610c97565b6040518082815260200191505060405180910390f35b600061040e6001600460003373ffffffffffffffffffffffffffffffffffffffff1673ffffffffffffffffffffffffffffffffffffffff168152602001908152602001600020600001540183610cc0565b9050919050565b60003073ffffffffffffffffffffffffffffffffffffffff1631905090565b60025481565b60035481565b60006001600460003373ffffffffffffffffffffffffffffffffffffffff1673ffffffffffffffffffffffffffffffffffffffff1681526020019081526020016000206000015410151561057c5760008090506000600190505b600460003373ffffffffffffffffffffffffffffffffffffffff1673ffffffffffffffffffffffffffffffffffffffff168152602001908152602001600020600001548160ff16111515610572576000600460003373ffffffffffffffffffffffffffffffffffffffff1673ffffffffffffffffffffffffffffffffffffffff16815260200190815260200160002060010160008360ff16815260200190815260200160002060020160009054906101000a900460ff1690506105608260ff1682610cc0565b8301925050808060010191505061049a565b5080915050610581565b600090505b90565b6000806000600160009054906101000a900473ffffffffffffffffffffffffffffffffffffffff1673ffffffffffffffffffffffffffffffffffffffff163373ffffffffffffffffffffffffffffffffffffffff16141515610631576040517f08c379a00000000000000000000000000000000000000000000000000000000081526004018080602001828103825260248152602001806112286024913960400191505060405180910390fd5b6000600460008673ffffffffffffffffffffffffffffffffffffffff1673ffffffffffffffffffffffffffffffffffffffff168152602001908152602001600020600001541115156106eb576040517f08c379a000000000000000000000000000000000000000000000000000000000815260040180806020018281038252601c8152602001807f446f206e6f74206861766520636f696e73206f6e206163636f756e740000000081525060200191505060405180910390fd5b6000600460008673ffffffffffffffffffffffffffffffffffffffff1673ffffffffffffffffffffffffffffffffffffffff1681526020019081526020016000206000015490506000600460008773ffffffffffffffffffffffffffffffffffffffff1673ffffffffffffffffffffffffffffffffffffffff168152602001908152602001600020600101600083815260200190815260200160002060000160009054906101000a900473ffffffffffffffffffffffffffffffffffffffff1690508573ffffffffffffffffffffffffffffffffffffffff168173ffffffffffffffffffffffffffffffffffffffff16141515610850576040517f08c379a00000000000000000000000000000000000000000000000000000000081526004018080602001828103825260138152602001807f416464726573736573206e6f7420657175616c0000000000000000000000000081525060200191505060405180910390fd5b6000600460008873ffffffffffffffffffffffffffffffffffffffff1673ffffffffffffffffffffffffffffffffffffffff1681526020019081526020016000206001016000848152602001908152602001600020600101549050600460008373ffffffffffffffffffffffffffffffffffffffff1673ffffffffffffffffffffffffffffffffffffffff16815260200190815260200160002060000160008154809291906001900391905055506000600460008973ffffffffffffffffffffffffffffffffffffffff1673ffffffffffffffffffffffffffffffffffffffff168152602001908152602001600020600101600085815260200190815260200160002060020160009054906101000a900460ff169050600460008973ffffffffffffffffffffffffffffffffffffffff1673ffffffffffffffffffffffffffffffffffffffff1681526020019081526020016000206001016000858152602001908152602001600020600080820160006101000a81549073ffffffffffffffffffffffffffffffffffffffff021916905560018201600090556002820160006101000a81549060ff021916905550508015610a61578273ffffffffffffffffffffffffffffffffffffffff166108fc839081150290604051600060405180830381858888f19350505050158015610a4b573d6000803e3d6000fd5b5081838281915096509650965050505050610a72565b818382819150965096509650505050505b9193909250565b600160009054906101000a900473ffffffffffffffffffffffffffffffffffffffff1673ffffffffffffffffffffffffffffffffffffffff163373ffffffffffffffffffffffffffffffffffffffff16141515610b3e576040517f08c379a000000000000000000000000000000000000000000000000000000000815260040180806020018281038252601b8152602001807f6f6e6c79206f776e65722063616e206368616e6765207072696365000000000081525060200191505060405180910390fd5b670de0b6b3a764000082811515610b5157fe5b04600281905550670de0b6b3a764000081811515610b6b57fe5b046003819055505050565b600160009054906101000a900473ffffffffffffffffffffffffffffffffffffffff1681565b6000806001600460003373ffffffffffffffffffffffffffffffffffffffff1673ffffffffffffffffffffffffffffffffffffffff16815260200190815260200160002060000154039050600460003373ffffffffffffffffffffffffffffffffffffffff1673ffffffffffffffffffffffffffffffffffffffff16815260200190815260200160002060010160008281526020019081526020016000206001015491505090565b6000808315610c6c573373ffffffffffffffffffffffffffffffffffffffff16319050610c70565b8290505b610c79846103bd565b81101515610c8b576000915050610c91565b60019150505b92915050565b60008115610caf57610ca882610d90565b9050610cbb565b610cb882611015565b90505b919050565b60008060005490506001841415610d15578215610cf057606460025482811515610ce657fe5b0402915050610d8a565b6002606460035483811515610d0157fe5b0402811515610d0c57fe5b04915050610d8a565b600284101515610d88576000600190505b848160ff161015610d435781820191508080600101915050610d26565b508215610d6357606460025482811515610d5957fe5b0402915050610d8a565b6002606460035483811515610d7457fe5b0402811515610d7f57fe5b04915050610d8a565b505b92915050565b6000610d9b826103bd565b34141515610e11576040517f08c379a00000000000000000000000000000000000000000000000000000000081526004018080602001828103825260148152602001807f446f206e6f7420656e6f75676874206d6f6e657900000000000000000000000081525060200191505060405180910390fd5b60006001600460003373ffffffffffffffffffffffffffffffffffffffff1673ffffffffffffffffffffffffffffffffffffffff1681526020019081526020016000206000015401905033600460003373ffffffffffffffffffffffffffffffffffffffff1673ffffffffffffffffffffffffffffffffffffffff168152602001908152602001600020600101600083815260200190815260200160002060000160006101000a81548173ffffffffffffffffffffffffffffffffffffffff021916908373ffffffffffffffffffffffffffffffffffffffff16021790555034600460003373ffffffffffffffffffffffffffffffffffffffff1673ffffffffffffffffffffffffffffffffffffffff16815260200190815260200160002060010160008381526020019081526020016000206001018190555082600460003373ffffffffffffffffffffffffffffffffffffffff1673ffffffffffffffffffffffffffffffffffffffff168152602001908152602001600020600101600083815260200190815260200160002060020160006101000a81548160ff021916908315150217905550600460003373ffffffffffffffffffffffffffffffffffffffff1673ffffffffffffffffffffffffffffffffffffffff168152602001908152602001600020600001600081548092919060010191905055506000915050919050565b600080611021836103bd565b905060006001600460003373ffffffffffffffffffffffffffffffffffffffff1673ffffffffffffffffffffffffffffffffffffffff1681526020019081526020016000206000015401905033600460003373ffffffffffffffffffffffffffffffffffffffff1673ffffffffffffffffffffffffffffffffffffffff168152602001908152602001600020600101600083815260200190815260200160002060000160006101000a81548173ffffffffffffffffffffffffffffffffffffffff021916908373ffffffffffffffffffffffffffffffffffffffff16021790555081600460003373ffffffffffffffffffffffffffffffffffffffff1673ffffffffffffffffffffffffffffffffffffffff16815260200190815260200160002060010160008381526020019081526020016000206001018190555083600460003373ffffffffffffffffffffffffffffffffffffffff1673ffffffffffffffffffffffffffffffffffffffff168152602001908152602001600020600101600083815260200190815260200160002060020160006101000a81548160ff021916908315150217905550600460003373ffffffffffffffffffffffffffffffffffffffff1673ffffffffffffffffffffffffffffffffffffffff16815260200190815260200160002060000160008154809291906001019190505550819250505091905056fe4f6e6c79206f776e65722063616e206578656375746520746869732066756e6374696f6ea165627a7a7230582068c672bd00566ed27f33c60d9a54596febf5c65a2a22a5652cf15e06955a71840029",
  "source": "pragma solidity ^0.5.2;\n\n\ncontract HoldMoney {\n    //minimum wei for hold one event\n    uint256 amountGuardETH = 10000000000000000000;\n    address public owner;\n    uint256 public priceEth;\n    uint256 public priceToken;\n\n    struct quizeHolder {\n        address payable hostWallet;\n        uint256 money;\n        bool token;\n    }\n\n    struct quizeAmount {\n        uint256 amount;\n        mapping(uint256 => quizeHolder) holder;\n    }\n\n    mapping(address => quizeAmount) qAmount;\n\n    constructor() public {\n        owner = msg.sender;\n    }\n\n    function _setMoneyRetention(bool _pathHoldMoney)\n        public\n        payable\n        returns(uint256)\n    {\n        if (_pathHoldMoney) {\n            return setEth(_pathHoldMoney);\n        } else {\n            return setToken(_pathHoldMoney);\n        }\n    }\n\n    function setEth(bool _path) private returns(uint256) {\n        require(msg.value == moneyRetentionCalculate(_path), \"Do not enought money\");\n\n        uint256 index = qAmount[msg.sender].amount + 1;\n        qAmount[msg.sender].holder[index].hostWallet = msg.sender;\n        qAmount[msg.sender].holder[index].money = msg.value;\n        qAmount[msg.sender].holder[index].token = _path;\n        qAmount[msg.sender].amount ++;\n        return 0;\n    }\n\n    function setToken(bool _path) private returns(uint256) {\n        uint256 amount = moneyRetentionCalculate(_path);\n        uint256 index = qAmount[msg.sender].amount + 1;\n        qAmount[msg.sender].holder[index].hostWallet = msg.sender;\n        qAmount[msg.sender].holder[index].money = amount;\n        qAmount[msg.sender].holder[index].token = _path;\n        qAmount[msg.sender].amount ++;\n        return amount;\n    }\n\n    function _getMoneyRetention(address payable _host) public payable returns(uint256, address, bool) {\n        require(msg.sender == owner, \"Only owner can execute this function\");\n        require(qAmount[_host].amount > 0, \"Do not have coins on account\");\n\n        uint256 index = qAmount[_host].amount;\n        address payable host = qAmount[_host].holder[index].hostWallet;\n\n        require(host == _host, \"Addresses not equal\");\n        uint256 money = qAmount[_host].holder[index].money;\n        qAmount[host].amount--;\n        bool path = qAmount[_host].holder[index].token;\n        delete qAmount[_host].holder[index];\n        if (path) {\n            host.transfer(money);\n            return (money, host, path);\n        } else {\n            return (money, host, path);\n        }\n    }\n\n    function moneyRetentionCalculate(bool _path) public view returns (uint256) {\n        return moneyCalc(qAmount[msg.sender].amount + 1, _path);\n    }\n\n    function onHold() public view returns (uint256) {\n        if (qAmount[msg.sender].amount >= 1) {\n            uint256 value = 0;\n            for (uint8 i = 1; i <= qAmount[msg.sender].amount; i++) {\n                bool path = qAmount[msg.sender].holder[i].token;\n                value = value + moneyCalc(i, path);\n            }\n            return value;\n        } else {\n            return 0;\n        }\n    }\n\n    function moneyCalc(uint256 number, bool _path) private view returns (uint256) {\n        uint256 value = amountGuardETH;\n        if (number == 1) {\n            if (_path) {\n                return (value / priceEth) * 100;\n            } else {\n                return ((value / priceToken) * 100) / 2;\n            }\n        } else if (number >= 2) {\n            for (uint8 i = 1; i < number; i++) {\n                value = value + value;\n            }\n            if (_path) {\n                return (value / priceEth) * 100;\n            } else {\n                return ((value / priceToken) * 100) / 2;\n            }\n        }\n    }\n\n    function _amountGuard(bool _path, uint256 balanceToken) public view returns (int8) {\n        uint256 balance;\n        if (_path) {\n            balance = address(msg.sender).balance;\n        } else {\n            balance = balanceToken;\n        }\n        if (balance >= moneyRetentionCalculate(_path)) {\n            // don't have any errors\n            return 0;\n        } else {\n            // host does not have enough money\n            return 1;\n        }\n    }\n\n    function holdBalance() public view returns (uint256) {\n        return address(this).balance;\n    }\n\n    function setEthPrice(uint256 _priceEth, uint256 _priceToken) public {\n        require(msg.sender == owner, \"only owner can change price\");\n        priceEth = _priceEth / 1000000000000000000;\n        priceToken = _priceToken / 1000000000000000000;\n    }\n\n    function getHoldMoneyById() public view returns(uint256) {\n        uint256 index = qAmount[msg.sender].amount - 1;\n        return qAmount[msg.sender].holder[index].money;\n    }\n}\n",
  "sourcePath": "/Users/macbook/Documents/freelance/node/QUIZE/frontend/contracts/HoldMoney.sol",
  "compiler": {
    "name": "solc",
    "version": "0.5.2+commit.1df8f40c.Emscripten.clang"
  },
  "schemaVersion": "3.0.19",
  "updatedAt": "2020-04-06T19:41:18.707Z",
  "devdoc": {
    "methods": {}
  },
  "userdoc": {
    "methods": {}
  }
}