{
  "contractName": "HoldMoney",
  "abi": [
    {
      "constant": false,
      "inputs": [
        {
          "internalType": "uint256",
          "name": "_amountHost",
          "type": "uint256"
        },
        {
          "internalType": "int256",
          "name": "_question_id",
          "type": "int256"
        },
        {
          "internalType": "uint256",
          "name": "_money",
          "type": "uint256"
        },
        {
          "internalType": "uint256",
          "name": "_endTime",
          "type": "uint256"
        }
      ],
      "name": "_setMoneyRetention",
      "outputs": [],
      "payable": false,
      "stateMutability": "nonpayable",
      "type": "function"
    },
    {
      "constant": false,
      "inputs": [
        {
          "internalType": "int256",
          "name": "_question_id",
          "type": "int256"
        }
      ],
      "name": "_getMoneyRetention",
      "outputs": [],
      "payable": true,
      "stateMutability": "payable",
      "type": "function"
    },
    {
      "constant": true,
      "inputs": [],
      "name": "_moneyRetentionCalculate",
      "outputs": [
        {
          "internalType": "uint256",
          "name": "",
          "type": "uint256"
        }
      ],
      "payable": false,
      "stateMutability": "view",
      "type": "function"
    },
    {
      "constant": true,
      "inputs": [],
      "name": "_onHold",
      "outputs": [
        {
          "internalType": "uint256",
          "name": "",
          "type": "uint256"
        }
      ],
      "payable": false,
      "stateMutability": "view",
      "type": "function"
    },
    {
      "constant": true,
      "inputs": [
        {
          "internalType": "uint256",
          "name": "_amountHost",
          "type": "uint256"
        }
      ],
      "name": "_amountGuard",
      "outputs": [
        {
          "internalType": "int8",
          "name": "",
          "type": "int8"
        }
      ],
      "payable": false,
      "stateMutability": "view",
      "type": "function"
    }
  ],
  "bytecode": "0x6080604052670de0b6b3a764000060005534801561001c57600080fd5b506107048061002c6000396000f3fe60806040526004361061004a5760003560e01c8063560b251d1461004f5780635ff799c01461007a5780638b861b19146100a5578063cc544e4f146100fa578063f5bfe69014610153575b600080fd5b34801561005b57600080fd5b50610064610181565b6040518082815260200191505060405180910390f35b34801561008657600080fd5b5061008f610227565b6040518082815260200191505060405180910390f35b3480156100b157600080fd5b506100de600480360360208110156100c857600080fd5b8101908080359060200190929190505050610274565b604051808260000b60000b815260200191505060405180910390f35b34801561010657600080fd5b506101516004803603608081101561011d57600080fd5b810190808035906020019092919080359060200190929190803590602001909291908035906020019092919050505061033b565b005b61017f6004803603602081101561016957600080fd5b8101908080359060200190929190505050610618565b005b600080600260003373ffffffffffffffffffffffffffffffffffffffff1673ffffffffffffffffffffffffffffffffffffffff16815260200190815260200160002060000154111561021e576000546001600260003373ffffffffffffffffffffffffffffffffffffffff1673ffffffffffffffffffffffffffffffffffffffff1681526020019081526020016000206000015401029050610224565b60005490505b90565b60008054600260003373ffffffffffffffffffffffffffffffffffffffff1673ffffffffffffffffffffffffffffffffffffffff1681526020019081526020016000206000015402905090565b600080600260003373ffffffffffffffffffffffffffffffffffffffff1673ffffffffffffffffffffffffffffffffffffffff16815260200190815260200160002060000154111561031f57600054600260003373ffffffffffffffffffffffffffffffffffffffff1673ffffffffffffffffffffffffffffffffffffffff168152602001908152602001600020600001540282106103165760009050610336565b60019050610336565b60005482106103315760009050610336565b600190505b919050565b6000600260003373ffffffffffffffffffffffffffffffffffffffff1673ffffffffffffffffffffffffffffffffffffffff1681526020019081526020016000206000015411156104f057600054600260003373ffffffffffffffffffffffffffffffffffffffff1673ffffffffffffffffffffffffffffffffffffffff168152602001908152602001600020600001540284106104eb57336001600085815260200190815260200160002060000160006101000a81548173ffffffffffffffffffffffffffffffffffffffff021916908373ffffffffffffffffffffffffffffffffffffffff1602179055508160016000858152602001908152602001600020600101819055508060016000858152602001908152602001600020600201819055506001600260003373ffffffffffffffffffffffffffffffffffffffff1673ffffffffffffffffffffffffffffffffffffffff1681526020019081526020016000206000015401600260003373ffffffffffffffffffffffffffffffffffffffff1673ffffffffffffffffffffffffffffffffffffffff168152602001908152602001600020600001819055505b610612565b600054841061061157336001600085815260200190815260200160002060000160006101000a81548173ffffffffffffffffffffffffffffffffffffffff021916908373ffffffffffffffffffffffffffffffffffffffff1602179055508160016000858152602001908152602001600020600101819055508060016000858152602001908152602001600020600201819055506001600260003373ffffffffffffffffffffffffffffffffffffffff1673ffffffffffffffffffffffffffffffffffffffff1681526020019081526020016000206000015401600260003373ffffffffffffffffffffffffffffffffffffffff1673ffffffffffffffffffffffffffffffffffffffff168152602001908152602001600020600001819055505b5b50505050565b600060016000838152602001908152602001600020600201544203126106cc576001600082815260200190815260200160002060000160009054906101000a900473ffffffffffffffffffffffffffffffffffffffff1673ffffffffffffffffffffffffffffffffffffffff166108fc60016000848152602001908152602001600020600101549081150290604051600060405180830381858888f193505050501580156106ca573d6000803e3d6000fd5b505b5056fea265627a7a723158202a1bc6ae8e83ac818831272774e3c169fade2c9bc0e529a2874e26c0a14f90dc64736f6c634300050c0032",
  "source": "pragma solidity >=0.4.22 <0.6.0;\n\ncontract HoldMoney {\n    //minimum wei for hold one event\n    uint256 amountGuardWei = 1000000000000000000;\n\n    struct quizeHolder {\n       address payable hostWallet;\n       uint256 money;\n       uint256 endTime;\n    }\n\n    struct quizeAmount {\n        uint256 amount;\n    }\n\n    mapping( int => quizeHolder ) holder;\n\n    mapping( address => quizeAmount ) qAmount;\n\n    function _setMoneyRetention(\n        uint256 _amountHost,\n        int _question_id,\n        uint256 _money,\n        uint256 _endTime) public{\n       if(qAmount[msg.sender].amount > 0){\n           if(_amountHost >= (qAmount[msg.sender].amount * amountGuardWei)){\n                holder[_question_id].hostWallet = msg.sender;\n                holder[_question_id].money = _money;\n                holder[_question_id].endTime = _endTime;\n                qAmount[msg.sender].amount = qAmount[msg.sender].amount + 1;\n           }\n       } else {\n           if(_amountHost >= amountGuardWei) {\n                holder[_question_id].hostWallet = msg.sender;\n                holder[_question_id].money = _money;\n                holder[_question_id].endTime = _endTime;\n                qAmount[msg.sender].amount = qAmount[msg.sender].amount + 1;\n           }\n       }\n    }\n\n    function _getMoneyRetention(int _question_id) public payable{\n        if(int(now - holder[_question_id].endTime) >= 0){\n            address(holder[_question_id].hostWallet).transfer(holder[_question_id].money);\n        }\n    }\n\n\n    function _moneyRetentionCalculate() public view returns(uint){\n        if(qAmount[msg.sender].amount > 0){\n          return (qAmount[msg.sender].amount + 1) * amountGuardWei;\n        }else{\n          return amountGuardWei;\n        }\n    }\n\n    function _onHold() public view returns(uint){\n        return qAmount[msg.sender].amount * amountGuardWei;\n    }\n\n\n    function _amountGuard(uint256 _amountHost) public view returns(int8){\n        if(qAmount[msg.sender].amount > 0){\n            if(_amountHost >= (qAmount[msg.sender].amount * amountGuardWei)){\n              // don't have any errors\n              return 0;\n            }else{\n              // host does not have enough money\n              return 1;\n            }\n        }else{\n            if(_amountHost >= amountGuardWei){\n              // don't have any errors\n              return 0;\n            }else{\n              // host does not have enough money\n              return 1;\n            }\n        }\n    }\n}",
  "sourcePath": "/Users/macbook/Documents/freelance/node/QUIZE/frontend/contracts/HoldMoney.sol",
  "compiler": {
    "name": "solc",
    "version": "0.5.12+commit.7709ece9.Emscripten.clang"
  },
  "schemaVersion": "3.0.19",
  "updatedAt": "2020-03-02T06:12:35.726Z",
  "devdoc": {
    "methods": {}
  },
  "userdoc": {
    "methods": {}
  }
}