{
  "contractName": "HoldMoney",
  "abi": [
    {
      "inputs": [],
      "stateMutability": "nonpayable",
      "type": "constructor"
    },
    {
      "anonymous": false,
      "inputs": [
        {
          "indexed": false,
          "internalType": "address",
          "name": "userAddress",
          "type": "address"
        },
        {
          "indexed": false,
          "internalType": "address payable",
          "name": "relayerAddress",
          "type": "address"
        },
        {
          "indexed": false,
          "internalType": "bytes",
          "name": "functionSignature",
          "type": "bytes"
        }
      ],
      "name": "MetaTransactionExecuted",
      "type": "event"
    },
    {
      "inputs": [
        {
          "internalType": "address",
          "name": "userAddress",
          "type": "address"
        },
        {
          "internalType": "bytes",
          "name": "functionSignature",
          "type": "bytes"
        },
        {
          "internalType": "bytes32",
          "name": "sigR",
          "type": "bytes32"
        },
        {
          "internalType": "bytes32",
          "name": "sigS",
          "type": "bytes32"
        },
        {
          "internalType": "uint8",
          "name": "sigV",
          "type": "uint8"
        }
      ],
      "name": "executeMetaTransaction",
      "outputs": [
        {
          "internalType": "bytes",
          "name": "",
          "type": "bytes"
        }
      ],
      "stateMutability": "payable",
      "type": "function"
    },
    {
      "inputs": [
        {
          "internalType": "address",
          "name": "user",
          "type": "address"
        }
      ],
      "name": "getNonce",
      "outputs": [
        {
          "internalType": "uint256",
          "name": "nonce",
          "type": "uint256"
        }
      ],
      "stateMutability": "view",
      "type": "function"
    },
    {
      "inputs": [],
      "name": "owner",
      "outputs": [
        {
          "internalType": "address",
          "name": "",
          "type": "address"
        }
      ],
      "stateMutability": "view",
      "type": "function"
    },
    {
      "inputs": [],
      "name": "priceEth",
      "outputs": [
        {
          "internalType": "uint256",
          "name": "",
          "type": "uint256"
        }
      ],
      "stateMutability": "view",
      "type": "function"
    },
    {
      "inputs": [],
      "name": "priceToken",
      "outputs": [
        {
          "internalType": "uint256",
          "name": "",
          "type": "uint256"
        }
      ],
      "stateMutability": "view",
      "type": "function"
    },
    {
      "stateMutability": "payable",
      "type": "receive"
    },
    {
      "inputs": [
        {
          "internalType": "bool",
          "name": "_tokenType",
          "type": "bool"
        },
        {
          "internalType": "int256",
          "name": "question_id",
          "type": "int256"
        },
        {
          "internalType": "address payable",
          "name": "wallet",
          "type": "address"
        }
      ],
      "name": "_setMoneyRetention",
      "outputs": [
        {
          "internalType": "uint256",
          "name": "",
          "type": "uint256"
        }
      ],
      "stateMutability": "payable",
      "type": "function"
    },
    {
      "inputs": [
        {
          "internalType": "address payable",
          "name": "_host",
          "type": "address"
        }
      ],
      "name": "_getMoneyRetention",
      "outputs": [
        {
          "internalType": "uint256",
          "name": "",
          "type": "uint256"
        },
        {
          "internalType": "address",
          "name": "",
          "type": "address"
        },
        {
          "internalType": "bool",
          "name": "",
          "type": "bool"
        },
        {
          "internalType": "int256",
          "name": "",
          "type": "int256"
        }
      ],
      "stateMutability": "payable",
      "type": "function"
    },
    {
      "inputs": [
        {
          "internalType": "bool",
          "name": "_tokenType",
          "type": "bool"
        },
        {
          "internalType": "address payable",
          "name": "wallet",
          "type": "address"
        }
      ],
      "name": "moneyRetentionCalculate",
      "outputs": [
        {
          "internalType": "uint256",
          "name": "",
          "type": "uint256"
        }
      ],
      "stateMutability": "view",
      "type": "function"
    },
    {
      "inputs": [
        {
          "internalType": "address",
          "name": "wallet",
          "type": "address"
        }
      ],
      "name": "onHold",
      "outputs": [
        {
          "internalType": "uint256",
          "name": "",
          "type": "uint256"
        }
      ],
      "stateMutability": "view",
      "type": "function"
    },
    {
      "inputs": [
        {
          "internalType": "bool",
          "name": "_tokenType",
          "type": "bool"
        },
        {
          "internalType": "uint256",
          "name": "balanceToken",
          "type": "uint256"
        },
        {
          "internalType": "address payable",
          "name": "wallet",
          "type": "address"
        }
      ],
      "name": "_amountGuard",
      "outputs": [
        {
          "internalType": "int8",
          "name": "",
          "type": "int8"
        }
      ],
      "stateMutability": "view",
      "type": "function"
    },
    {
      "inputs": [
        {
          "internalType": "uint256",
          "name": "_priceEth",
          "type": "uint256"
        },
        {
          "internalType": "uint256",
          "name": "_priceToken",
          "type": "uint256"
        }
      ],
      "name": "setEthPrice",
      "outputs": [],
      "stateMutability": "nonpayable",
      "type": "function"
    }
  ],
  "bytecode": "0x6080604052678ac7230489e8000060025534801561001c57600080fd5b506040518060400160405280600781526020017f42657474657279000000000000000000000000000000000000000000000000008152506040518060400160405280600181526020017f31000000000000000000000000000000000000000000000000000000000000008152506005828282604051806080016040528060528152602001611a586052913980519060200120838051906020012083805190602001208330604051602001808681526020018581526020018481526020018381526020018273ffffffffffffffffffffffffffffffffffffffff1673ffffffffffffffffffffffffffffffffffffffff168152602001955050505050506040516020818303038152906040528051906020012060008190555050505050505033600360006101000a81548173ffffffffffffffffffffffffffffffffffffffff021916908373ffffffffffffffffffffffffffffffffffffffff1602179055506118ce8061018a6000396000f3fe6080604052600436106100a05760003560e01c806333ec47811161006457806333ec47811461035d57806375977235146103c25780638229f5e91461043357806383855f1f146104d05780638da5cb5b14610515578063f4cd57021461056c576100a7565b80630c53c51c146100ac5780632335e529146102215780632ca38363146102a25780632d0335ab146102cd5780632ff6fe7614610332576100a7565b366100a757005b600080fd5b6101a6600480360360a08110156100c257600080fd5b81019080803573ffffffffffffffffffffffffffffffffffffffff169060200190929190803590602001906401000000008111156100ff57600080fd5b82018360208201111561011157600080fd5b8035906020019184600183028401116401000000008311171561013357600080fd5b91908080601f016020809104026020016040519081016040528093929190818152602001838380828437600081840152601f19601f8201169050808301925050505050505091929192908035906020019092919080359060200190929190803560ff1690602001909291905050506105da565b6040518080602001828103825283818151815260200191508051906020019080838360005b838110156101e65780820151818401526020810190506101cb565b50505050905090810190601f1680156102135780820380516001836020036101000a031916815260200191505b509250505060405180910390f35b34801561022d57600080fd5b506102866004803603606081101561024457600080fd5b8101908080351515906020019092919080359060200190929190803573ffffffffffffffffffffffffffffffffffffffff169060200190929190505050610a2f565b604051808260000b60000b815260200191505060405180910390f35b3480156102ae57600080fd5b506102b7610a56565b6040518082815260200191505060405180910390f35b3480156102d957600080fd5b5061031c600480360360208110156102f057600080fd5b81019080803573ffffffffffffffffffffffffffffffffffffffff169060200190929190505050610a5c565b6040518082815260200191505060405180910390f35b34801561033e57600080fd5b50610347610aa5565b6040518082815260200191505060405180910390f35b34801561036957600080fd5b506103ac6004803603602081101561038057600080fd5b81019080803573ffffffffffffffffffffffffffffffffffffffff169060200190929190505050610aab565b6040518082815260200191505060405180910390f35b3480156103ce57600080fd5b5061041d600480360360408110156103e557600080fd5b81019080803515159060200190929190803573ffffffffffffffffffffffffffffffffffffffff169060200190929190505050610bed565b6040518082815260200191505060405180910390f35b6104756004803603602081101561044957600080fd5b81019080803573ffffffffffffffffffffffffffffffffffffffff169060200190929190505050610c46565b604051808581526020018473ffffffffffffffffffffffffffffffffffffffff1673ffffffffffffffffffffffffffffffffffffffff1681526020018315151515815260200182815260200194505050505060405180910390f35b3480156104dc57600080fd5b50610513600480360360408110156104f357600080fd5b81019080803590602001909291908035906020019092919050505061113a565b005b34801561052157600080fd5b5061052a611231565b604051808273ffffffffffffffffffffffffffffffffffffffff1673ffffffffffffffffffffffffffffffffffffffff16815260200191505060405180910390f35b6105c46004803603606081101561058257600080fd5b8101908080351515906020019092919080359060200190929190803573ffffffffffffffffffffffffffffffffffffffff169060200190929190505050611257565b6040518082815260200191505060405180910390f35b60606105e46117d9565b6040518060600160405280600160008a73ffffffffffffffffffffffffffffffffffffffff1673ffffffffffffffffffffffffffffffffffffffff1681526020019081526020016000205481526020018873ffffffffffffffffffffffffffffffffffffffff16815260200187815250905061066387828787876114c7565b6106b8576040517f08c379a00000000000000000000000000000000000000000000000000000000081526004018080602001828103825260218152602001806118546021913960400191505060405180910390fd5b61070a60018060008a73ffffffffffffffffffffffffffffffffffffffff1673ffffffffffffffffffffffffffffffffffffffff1681526020019081526020016000205461157990919063ffffffff16565b600160008973ffffffffffffffffffffffffffffffffffffffff1673ffffffffffffffffffffffffffffffffffffffff168152602001908152602001600020819055507f5845892132946850460bff5a0083f71031bc5bf9aadcd40f1de79423eac9b10b873388604051808473ffffffffffffffffffffffffffffffffffffffff1673ffffffffffffffffffffffffffffffffffffffff1681526020018373ffffffffffffffffffffffffffffffffffffffff1673ffffffffffffffffffffffffffffffffffffffff16815260200180602001828103825283818151815260200191508051906020019080838360005b838110156108155780820151818401526020810190506107fa565b50505050905090810190601f1680156108425780820380516001836020036101000a031916815260200191505b5094505050505060405180910390a1600060603073ffffffffffffffffffffffffffffffffffffffff16888a6040516020018083805190602001908083835b602083106108a45780518252602082019150602081019050602083039250610881565b6001836020036101000a0380198251168184511680821785525050505050509050018273ffffffffffffffffffffffffffffffffffffffff1673ffffffffffffffffffffffffffffffffffffffff1660601b8152601401925050506040516020818303038152906040526040518082805190602001908083835b60208310610941578051825260208201915060208101905060208303925061091e565b6001836020036101000a0380198251168184511680821785525050505050509050019150506000604051808303816000865af19150503d80600081146109a3576040519150601f19603f3d011682016040523d82523d6000602084013e6109a8565b606091505b509150915081610a20576040517f08c379a000000000000000000000000000000000000000000000000000000000815260040180806020018281038252601c8152602001807f46756e6374696f6e2063616c6c206e6f74207375636365737366756c0000000081525060200191505060405180910390fd5b80935050505095945050505050565b6000610a3b8483610bed565b8310610a4a5760009050610a4f565b600190505b9392505050565b60045481565b6000600160008373ffffffffffffffffffffffffffffffffffffffff1673ffffffffffffffffffffffffffffffffffffffff168152602001908152602001600020549050919050565b60055481565b60006001600660008473ffffffffffffffffffffffffffffffffffffffff1673ffffffffffffffffffffffffffffffffffffffff1681526020019081526020016000206000015410610be35760008090506000600190505b600660008573ffffffffffffffffffffffffffffffffffffffff1673ffffffffffffffffffffffffffffffffffffffff168152602001908152602001600020600001548160ff1611610bd9576000600660008673ffffffffffffffffffffffffffffffffffffffff1673ffffffffffffffffffffffffffffffffffffffff16815260200190815260200160002060010160008360ff16815260200190815260200160002060020160009054906101000a900460ff169050610bc78260ff1682611601565b83019250508080600101915050610b03565b5080915050610be8565b600090505b919050565b6000610c3e6001600660008573ffffffffffffffffffffffffffffffffffffffff1673ffffffffffffffffffffffffffffffffffffffff168152602001908152602001600020600001540184611601565b905092915050565b600080600080600360009054906101000a900473ffffffffffffffffffffffffffffffffffffffff1673ffffffffffffffffffffffffffffffffffffffff163373ffffffffffffffffffffffffffffffffffffffff1614610cf2576040517f08c379a00000000000000000000000000000000000000000000000000000000081526004018080602001828103825260248152602001806118756024913960400191505060405180910390fd5b6000600660008773ffffffffffffffffffffffffffffffffffffffff1673ffffffffffffffffffffffffffffffffffffffff1681526020019081526020016000206000015411610daa576040517f08c379a000000000000000000000000000000000000000000000000000000000815260040180806020018281038252601c8152602001807f446f206e6f74206861766520636f696e73206f6e206163636f756e740000000081525060200191505060405180910390fd5b6000600660008773ffffffffffffffffffffffffffffffffffffffff1673ffffffffffffffffffffffffffffffffffffffff1681526020019081526020016000206000015490506000600660008873ffffffffffffffffffffffffffffffffffffffff1673ffffffffffffffffffffffffffffffffffffffff168152602001908152602001600020600101600083815260200190815260200160002060000160009054906101000a900473ffffffffffffffffffffffffffffffffffffffff1690508673ffffffffffffffffffffffffffffffffffffffff168173ffffffffffffffffffffffffffffffffffffffff1614610f0d576040517f08c379a00000000000000000000000000000000000000000000000000000000081526004018080602001828103825260138152602001807f416464726573736573206e6f7420657175616c0000000000000000000000000081525060200191505060405180910390fd5b6000600660008973ffffffffffffffffffffffffffffffffffffffff1673ffffffffffffffffffffffffffffffffffffffff1681526020019081526020016000206001016000848152602001908152602001600020600101549050600660008373ffffffffffffffffffffffffffffffffffffffff1673ffffffffffffffffffffffffffffffffffffffff16815260200190815260200160002060000160008154809291906001900391905055506000600660008a73ffffffffffffffffffffffffffffffffffffffff1673ffffffffffffffffffffffffffffffffffffffff168152602001908152602001600020600101600085815260200190815260200160002060020160009054906101000a900460ff1690506000600660008b73ffffffffffffffffffffffffffffffffffffffff1673ffffffffffffffffffffffffffffffffffffffff1681526020019081526020016000206001016000868152602001908152602001600020600301549050600660008b73ffffffffffffffffffffffffffffffffffffffff1673ffffffffffffffffffffffffffffffffffffffff1681526020019081526020016000206001016000868152602001908152602001600020600080820160006101000a81549073ffffffffffffffffffffffffffffffffffffffff021916905560018201600090556002820160006101000a81549060ff02191690556003820160009055505082848383829250985098509850985050505050509193509193565b600360009054906101000a900473ffffffffffffffffffffffffffffffffffffffff1673ffffffffffffffffffffffffffffffffffffffff163373ffffffffffffffffffffffffffffffffffffffff16146111fd576040517f08c379a000000000000000000000000000000000000000000000000000000000815260040180806020018281038252601b8152602001807f6f6e6c79206f776e65722063616e206368616e6765207072696365000000000081525060200191505060405180910390fd5b670de0b6b3a7640000828161120e57fe5b04600481905550670de0b6b3a7640000818161122657fe5b046005819055505050565b600360009054906101000a900473ffffffffffffffffffffffffffffffffffffffff1681565b6000806112648584610bed565b905060006001600660008673ffffffffffffffffffffffffffffffffffffffff1673ffffffffffffffffffffffffffffffffffffffff1681526020019081526020016000206000015401905083600660008673ffffffffffffffffffffffffffffffffffffffff1673ffffffffffffffffffffffffffffffffffffffff168152602001908152602001600020600101600083815260200190815260200160002060000160006101000a81548173ffffffffffffffffffffffffffffffffffffffff021916908373ffffffffffffffffffffffffffffffffffffffff16021790555081600660008673ffffffffffffffffffffffffffffffffffffffff1673ffffffffffffffffffffffffffffffffffffffff16815260200190815260200160002060010160008381526020019081526020016000206001018190555085600660008673ffffffffffffffffffffffffffffffffffffffff1673ffffffffffffffffffffffffffffffffffffffff168152602001908152602001600020600101600083815260200190815260200160002060020160006101000a81548160ff02191690831515021790555084600660008673ffffffffffffffffffffffffffffffffffffffff1673ffffffffffffffffffffffffffffffffffffffff168152602001908152602001600020600101600083815260200190815260200160002060030181905550600660008573ffffffffffffffffffffffffffffffffffffffff1673ffffffffffffffffffffffffffffffffffffffff1681526020019081526020016000206000016000815480929190600101919050555081925050509392505050565b600060016114dc6114d7876116c3565b611769565b83868660405160008152602001604052604051808581526020018460ff1660ff1681526020018381526020018281526020019450505050506020604051602081039080840390855afa158015611536573d6000803e3d6000fd5b5050506020604051035173ffffffffffffffffffffffffffffffffffffffff168673ffffffffffffffffffffffffffffffffffffffff1614905095945050505050565b6000808284019050838110156115f7576040517f08c379a000000000000000000000000000000000000000000000000000000000815260040180806020018281038252601b8152602001807f536166654d6174683a206164646974696f6e206f766572666c6f77000000000081525060200191505060405180910390fd5b8091505092915050565b6000806002549050600184141561165057821561162f576064600454828161162557fe5b04029150506116bd565b60026064600554838161163e57fe5b04028161164757fe5b049150506116bd565b600284106116bb576000600190505b848160ff16101561167c578182019150808060010191505061165f565b50821561169a576064600454828161169057fe5b04029150506116bd565b6002606460055483816116a957fe5b0402816116b257fe5b049150506116bd565b505b92915050565b6000604051806080016040528060438152602001611811604391398051906020012082600001518360200151846040015180519060200120604051602001808581526020018481526020018373ffffffffffffffffffffffffffffffffffffffff1673ffffffffffffffffffffffffffffffffffffffff168152602001828152602001945050505050604051602081830303815290604052805190602001209050919050565b60006117736117d0565b8260405160200180807f190100000000000000000000000000000000000000000000000000000000000081525060020183815260200182815260200192505050604051602081830303815290604052805190602001209050919050565b60008054905090565b604051806060016040528060008152602001600073ffffffffffffffffffffffffffffffffffffffff16815260200160608152509056fe4d6574615472616e73616374696f6e2875696e74323536206e6f6e63652c616464726573732066726f6d2c62797465732066756e6374696f6e5369676e6174757265295369676e657220616e64207369676e617475726520646f206e6f74206d617463684f6e6c79206f776e65722063616e206578656375746520746869732066756e6374696f6ea26469706673582212204aff4b25a1b0a5870c07ca4982380fc9ca09c1fecbaef0e94776766d2ba0073564736f6c63430006060033454950373132446f6d61696e28737472696e67206e616d652c737472696e672076657273696f6e2c75696e7432353620636861696e49642c6164647265737320766572696679696e67436f6e747261637429",
  "immutableReferences": {},
  "source": "pragma solidity ^0.6.6;\n\nimport {NetworkAgnostic} from \"./common/NetworkAgnostic.sol\";\n\ncontract HoldMoney is NetworkAgnostic {\n    //minimum wei for hold one event\n    uint256 amountGuardETH = 10000000000000000000;\n    address public owner;\n    uint256 public priceEth;\n    uint256 public priceToken;\n\n    struct quizeHolder {\n        address payable hostWallet;\n        uint256 money;\n        bool tokenType;\n        int256 question_id;\n    }\n\n    struct quizeAmount {\n        uint256 amount;\n        mapping(uint256 => quizeHolder) holder;\n    }\n\n    mapping(address => quizeAmount) qAmount;\n\n    constructor() NetworkAgnostic(\"Bettery\", \"1\", 5) public {\n        owner = msg.sender;\n    }\n\n    function _setMoneyRetention(bool _tokenType, int256 question_id, address payable wallet)\n        public\n        payable\n        returns(uint256)\n    {\n        uint256 amount = moneyRetentionCalculate(_tokenType, wallet);\n        uint256 index = qAmount[wallet].amount + 1;\n        qAmount[wallet].holder[index].hostWallet = wallet;\n        qAmount[wallet].holder[index].money = amount;\n        qAmount[wallet].holder[index].tokenType = _tokenType;\n        qAmount[wallet].holder[index].question_id = question_id;\n        qAmount[wallet].amount ++;\n        return amount;\n    }\n\n    function _getMoneyRetention(address payable _host) public payable returns(uint256, address, bool, int256) {\n        require(msg.sender == owner, \"Only owner can execute this function\");\n        require(qAmount[_host].amount > 0, \"Do not have coins on account\");\n\n        uint256 index = qAmount[_host].amount;\n        address payable host = qAmount[_host].holder[index].hostWallet;\n\n        require(host == _host, \"Addresses not equal\");\n        uint256 money = qAmount[_host].holder[index].money;\n        qAmount[host].amount--;\n        bool path = qAmount[_host].holder[index].tokenType;\n        int256 question_id = qAmount[_host].holder[index].question_id;\n        delete qAmount[_host].holder[index];\n        return (money, host, path, question_id);\n    }\n\n    function moneyRetentionCalculate(bool _tokenType, address payable wallet) public view returns (uint256) {\n        return moneyCalc(qAmount[wallet].amount + 1, _tokenType);\n    }\n\n    function onHold(address wallet) public view returns (uint256) {\n        if (qAmount[wallet].amount >= 1) {\n            uint256 value = 0;\n            for (uint8 i = 1; i <= qAmount[wallet].amount; i++) {\n                bool path = qAmount[wallet].holder[i].tokenType;\n                value = value + moneyCalc(i, path);\n            }\n            return value;\n        } else {\n            return 0;\n        }\n    }\n\n    function moneyCalc(uint256 number, bool _tokenType) private view returns (uint256) {\n        uint256 value = amountGuardETH;\n        if (number == 1) {\n            if(_tokenType){\n                return (value / priceEth) * 100;\n            } else {\n                return ((value / priceToken) * 100) / 2;\n            }\n        } else if (number >= 2) {\n            for (uint8 i = 1; i < number; i++) {\n                value = value + value;\n            }\n            if(_tokenType){\n                return (value / priceEth) * 100;\n            } else {\n                return ((value / priceToken) * 100) / 2;\n            }\n        }\n    }\n\n    function _amountGuard(bool _tokenType, uint256 balanceToken, address payable wallet) public view returns (int8) {\n        if (balanceToken >= moneyRetentionCalculate(_tokenType, wallet)) {\n            // don't have any errors\n            return 0;\n        } else {\n            // host does not have enough money\n            return 1;\n        }\n    }\n\n    function setEthPrice(uint256 _priceEth, uint256 _priceToken) public {\n        require(msg.sender == owner, \"only owner can change price\");\n        priceEth = _priceEth / 1000000000000000000;\n        priceToken = _priceToken / 1000000000000000000;\n    }\n\n    function _msgSender() internal view returns (address payable sender) {\n        if(msg.sender == address(this)) {\n            bytes memory array = msg.data;\n            uint256 index = msg.data.length;\n            assembly {\n                // Load the 32 bytes word from memory with the address on the lower 20 bytes, and mask those.\n                sender := and(mload(add(array, index)), 0xffffffffffffffffffffffffffffffffffffffff)\n            }\n        } else {\n            sender = msg.sender;\n        }\n        return sender;\n    }\n}\n",
  "sourcePath": "/Users/macbook/Documents/freelance/node/QUIZE/contracts/contracts/matic_network/HoldMoney.sol",
  "compiler": {
    "name": "solc",
    "version": "0.6.6+commit.6c089d02.Linux.g++"
  },
  "schemaVersion": "3.2.2",
  "updatedAt": "2020-09-03T11:28:03.218Z",
  "devdoc": {
    "methods": {}
  },
  "userdoc": {
    "methods": {}
  }
}