{
  "contractName": "HoldMoney",
  "abi": [
    {
      "inputs": [],
      "stateMutability": "nonpayable",
      "type": "constructor"
    },
    {
      "anonymous": false,
      "inputs": [
        {
          "indexed": false,
          "internalType": "address",
          "name": "userAddress",
          "type": "address"
        },
        {
          "indexed": false,
          "internalType": "address payable",
          "name": "relayerAddress",
          "type": "address"
        },
        {
          "indexed": false,
          "internalType": "bytes",
          "name": "functionSignature",
          "type": "bytes"
        }
      ],
      "name": "MetaTransactionExecuted",
      "type": "event"
    },
    {
      "inputs": [
        {
          "internalType": "address",
          "name": "userAddress",
          "type": "address"
        },
        {
          "internalType": "bytes",
          "name": "functionSignature",
          "type": "bytes"
        },
        {
          "internalType": "bytes32",
          "name": "sigR",
          "type": "bytes32"
        },
        {
          "internalType": "bytes32",
          "name": "sigS",
          "type": "bytes32"
        },
        {
          "internalType": "uint8",
          "name": "sigV",
          "type": "uint8"
        }
      ],
      "name": "executeMetaTransaction",
      "outputs": [
        {
          "internalType": "bytes",
          "name": "",
          "type": "bytes"
        }
      ],
      "stateMutability": "payable",
      "type": "function"
    },
    {
      "inputs": [
        {
          "internalType": "address",
          "name": "user",
          "type": "address"
        }
      ],
      "name": "getNonce",
      "outputs": [
        {
          "internalType": "uint256",
          "name": "nonce",
          "type": "uint256"
        }
      ],
      "stateMutability": "view",
      "type": "function"
    },
    {
      "inputs": [],
      "name": "owner",
      "outputs": [
        {
          "internalType": "address",
          "name": "",
          "type": "address"
        }
      ],
      "stateMutability": "view",
      "type": "function"
    },
    {
      "inputs": [],
      "name": "priceEth",
      "outputs": [
        {
          "internalType": "uint256",
          "name": "",
          "type": "uint256"
        }
      ],
      "stateMutability": "view",
      "type": "function"
    },
    {
      "inputs": [],
      "name": "priceToken",
      "outputs": [
        {
          "internalType": "uint256",
          "name": "",
          "type": "uint256"
        }
      ],
      "stateMutability": "view",
      "type": "function"
    },
    {
      "stateMutability": "payable",
      "type": "receive"
    },
    {
      "inputs": [
        {
          "internalType": "bool",
          "name": "_pathHoldMoney",
          "type": "bool"
        },
        {
          "internalType": "int256",
          "name": "question_id",
          "type": "int256"
        }
      ],
      "name": "_setMoneyRetention",
      "outputs": [
        {
          "internalType": "uint256",
          "name": "",
          "type": "uint256"
        }
      ],
      "stateMutability": "payable",
      "type": "function"
    },
    {
      "inputs": [
        {
          "internalType": "address payable",
          "name": "_host",
          "type": "address"
        }
      ],
      "name": "_getMoneyRetention",
      "outputs": [
        {
          "internalType": "uint256",
          "name": "",
          "type": "uint256"
        },
        {
          "internalType": "address",
          "name": "",
          "type": "address"
        },
        {
          "internalType": "bool",
          "name": "",
          "type": "bool"
        },
        {
          "internalType": "int256",
          "name": "",
          "type": "int256"
        }
      ],
      "stateMutability": "payable",
      "type": "function"
    },
    {
      "inputs": [
        {
          "internalType": "bool",
          "name": "_path",
          "type": "bool"
        }
      ],
      "name": "moneyRetentionCalculate",
      "outputs": [
        {
          "internalType": "uint256",
          "name": "",
          "type": "uint256"
        }
      ],
      "stateMutability": "view",
      "type": "function"
    },
    {
      "inputs": [],
      "name": "onHold",
      "outputs": [
        {
          "internalType": "uint256",
          "name": "",
          "type": "uint256"
        }
      ],
      "stateMutability": "view",
      "type": "function"
    },
    {
      "inputs": [
        {
          "internalType": "bool",
          "name": "_path",
          "type": "bool"
        },
        {
          "internalType": "uint256",
          "name": "balanceToken",
          "type": "uint256"
        }
      ],
      "name": "_amountGuard",
      "outputs": [
        {
          "internalType": "int8",
          "name": "",
          "type": "int8"
        }
      ],
      "stateMutability": "view",
      "type": "function"
    },
    {
      "inputs": [],
      "name": "holdBalance",
      "outputs": [
        {
          "internalType": "uint256",
          "name": "",
          "type": "uint256"
        }
      ],
      "stateMutability": "view",
      "type": "function"
    },
    {
      "inputs": [
        {
          "internalType": "uint256",
          "name": "_priceEth",
          "type": "uint256"
        },
        {
          "internalType": "uint256",
          "name": "_priceToken",
          "type": "uint256"
        }
      ],
      "name": "setEthPrice",
      "outputs": [],
      "stateMutability": "nonpayable",
      "type": "function"
    },
    {
      "inputs": [],
      "name": "getHoldMoneyById",
      "outputs": [
        {
          "internalType": "uint256",
          "name": "",
          "type": "uint256"
        }
      ],
      "stateMutability": "view",
      "type": "function"
    }
  ],
  "bytecode": "0x6080604052678ac7230489e8000060025534801561001c57600080fd5b506040518060400160405280600781526020017f42657474657279000000000000000000000000000000000000000000000000008152506040518060400160405280600181526020017f31000000000000000000000000000000000000000000000000000000000000008152506005828282604051806080016040528060528152602001611f7d6052913980519060200120838051906020012083805190602001208330604051602001808681526020018581526020018481526020018381526020018273ffffffffffffffffffffffffffffffffffffffff1673ffffffffffffffffffffffffffffffffffffffff168152602001955050505050506040516020818303038152906040528051906020012060008190555050505050505033600360006101000a81548173ffffffffffffffffffffffffffffffffffffffff021916908373ffffffffffffffffffffffffffffffffffffffff160217905550611df38061018a6000396000f3fe6080604052600436106100c65760003560e01c80637fc505451161007f5780638da5cb5b116100595780638da5cb5b1461048b578063acbee282146104e2578063e6ffed5d1461050d578063f733c2871461056e576100cd565b80637fc505451461037e5780638229f5e9146103a957806383855f1f14610446576100cd565b80630c53c51c146100d257806325f0f5ab1461024757806326c989df146102985780632ca38363146102c35780632d0335ab146102ee5780632ff6fe7614610353576100cd565b366100cd57005b600080fd5b6101cc600480360360a08110156100e857600080fd5b81019080803573ffffffffffffffffffffffffffffffffffffffff1690602001909291908035906020019064010000000081111561012557600080fd5b82018360208201111561013757600080fd5b8035906020019184600183028401116401000000008311171561015957600080fd5b91908080601f016020809104026020016040519081016040528093929190818152602001838380828437600081840152601f19601f8201169050808301925050505050505091929192908035906020019092919080359060200190929190803560ff1690602001909291905050506105bc565b6040518080602001828103825283818151815260200191508051906020019080838360005b8381101561020c5780820151818401526020810190506101f1565b50505050905090810190601f1680156102395780820380516001836020036101000a031916815260200191505b509250505060405180910390f35b34801561025357600080fd5b506102826004803603602081101561026a57600080fd5b81019080803515159060200190929190505050610a11565b6040518082815260200191505060405180910390f35b3480156102a457600080fd5b506102ad610a70565b6040518082815260200191505060405180910390f35b3480156102cf57600080fd5b506102d8610a8f565b6040518082815260200191505060405180910390f35b3480156102fa57600080fd5b5061033d6004803603602081101561031157600080fd5b81019080803573ffffffffffffffffffffffffffffffffffffffff169060200190929190505050610a95565b6040518082815260200191505060405180910390f35b34801561035f57600080fd5b50610368610ade565b6040518082815260200191505060405180910390f35b34801561038a57600080fd5b50610393610ae4565b6040518082815260200191505060405180910390f35b6103eb600480360360208110156103bf57600080fd5b81019080803573ffffffffffffffffffffffffffffffffffffffff169060200190929190505050610c39565b604051808581526020018473ffffffffffffffffffffffffffffffffffffffff1673ffffffffffffffffffffffffffffffffffffffff1681526020018315151515815260200182815260200194505050505060405180910390f35b34801561045257600080fd5b506104896004803603604081101561046957600080fd5b81019080803590602001909291908035906020019092919050505061119b565b005b34801561049757600080fd5b506104a0611299565b604051808273ffffffffffffffffffffffffffffffffffffffff1673ffffffffffffffffffffffffffffffffffffffff16815260200191505060405180910390f35b3480156104ee57600080fd5b506104f76112bf565b6040518082815260200191505060405180910390f35b34801561051957600080fd5b506105526004803603604081101561053057600080fd5b8101908080351515906020019092919080359060200190929190505050611375565b604051808260000b60000b815260200191505060405180910390f35b6105a66004803603604081101561058457600080fd5b81019080803515159060200190929190803590602001909291905050506113cd565b6040518082815260200191505060405180910390f35b60606105c6611cfe565b6040518060600160405280600160008a73ffffffffffffffffffffffffffffffffffffffff1673ffffffffffffffffffffffffffffffffffffffff1681526020019081526020016000205481526020018873ffffffffffffffffffffffffffffffffffffffff16815260200187815250905061064587828787876113f9565b61069a576040517f08c379a0000000000000000000000000000000000000000000000000000000008152600401808060200182810382526021815260200180611d796021913960400191505060405180910390fd5b6106ec60018060008a73ffffffffffffffffffffffffffffffffffffffff1673ffffffffffffffffffffffffffffffffffffffff168152602001908152602001600020546114ab90919063ffffffff16565b600160008973ffffffffffffffffffffffffffffffffffffffff1673ffffffffffffffffffffffffffffffffffffffff168152602001908152602001600020819055507f5845892132946850460bff5a0083f71031bc5bf9aadcd40f1de79423eac9b10b873388604051808473ffffffffffffffffffffffffffffffffffffffff1673ffffffffffffffffffffffffffffffffffffffff1681526020018373ffffffffffffffffffffffffffffffffffffffff1673ffffffffffffffffffffffffffffffffffffffff16815260200180602001828103825283818151815260200191508051906020019080838360005b838110156107f75780820151818401526020810190506107dc565b50505050905090810190601f1680156108245780820380516001836020036101000a031916815260200191505b5094505050505060405180910390a1600060603073ffffffffffffffffffffffffffffffffffffffff16888a6040516020018083805190602001908083835b602083106108865780518252602082019150602081019050602083039250610863565b6001836020036101000a0380198251168184511680821785525050505050509050018273ffffffffffffffffffffffffffffffffffffffff1673ffffffffffffffffffffffffffffffffffffffff1660601b8152601401925050506040516020818303038152906040526040518082805190602001908083835b602083106109235780518252602082019150602081019050602083039250610900565b6001836020036101000a0380198251168184511680821785525050505050509050019150506000604051808303816000865af19150503d8060008114610985576040519150601f19603f3d011682016040523d82523d6000602084013e61098a565b606091505b509150915081610a02576040517f08c379a000000000000000000000000000000000000000000000000000000000815260040180806020018281038252601c8152602001807f46756e6374696f6e2063616c6c206e6f74207375636365737366756c0000000081525060200191505060405180910390fd5b80935050505095945050505050565b6000610a69600160066000610a24611533565b73ffffffffffffffffffffffffffffffffffffffff1673ffffffffffffffffffffffffffffffffffffffff1681526020019081526020016000206000015401836115e8565b9050919050565b60003073ffffffffffffffffffffffffffffffffffffffff1631905090565b60045481565b6000600160008373ffffffffffffffffffffffffffffffffffffffff1673ffffffffffffffffffffffffffffffffffffffff168152602001908152602001600020549050919050565b60055481565b6000600160066000610af4611533565b73ffffffffffffffffffffffffffffffffffffffff1673ffffffffffffffffffffffffffffffffffffffff1681526020019081526020016000206000015410610c315760008090506000600190505b60066000610b4f611533565b73ffffffffffffffffffffffffffffffffffffffff1673ffffffffffffffffffffffffffffffffffffffff168152602001908152602001600020600001548160ff1611610c2757600060066000610ba4611533565b73ffffffffffffffffffffffffffffffffffffffff1673ffffffffffffffffffffffffffffffffffffffff16815260200190815260200160002060010160008360ff16815260200190815260200160002060020160009054906101000a900460ff169050610c158260ff16826115e8565b83019250508080600101915050610b43565b5080915050610c36565b600090505b90565b600080600080600360009054906101000a900473ffffffffffffffffffffffffffffffffffffffff1673ffffffffffffffffffffffffffffffffffffffff16610c80611533565b73ffffffffffffffffffffffffffffffffffffffff1614610cec576040517f08c379a0000000000000000000000000000000000000000000000000000000008152600401808060200182810382526024815260200180611d9a6024913960400191505060405180910390fd5b6000600660008773ffffffffffffffffffffffffffffffffffffffff1673ffffffffffffffffffffffffffffffffffffffff1681526020019081526020016000206000015411610da4576040517f08c379a000000000000000000000000000000000000000000000000000000000815260040180806020018281038252601c8152602001807f446f206e6f74206861766520636f696e73206f6e206163636f756e740000000081525060200191505060405180910390fd5b6000600660008773ffffffffffffffffffffffffffffffffffffffff1673ffffffffffffffffffffffffffffffffffffffff1681526020019081526020016000206000015490506000600660008873ffffffffffffffffffffffffffffffffffffffff1673ffffffffffffffffffffffffffffffffffffffff168152602001908152602001600020600101600083815260200190815260200160002060000160009054906101000a900473ffffffffffffffffffffffffffffffffffffffff1690508673ffffffffffffffffffffffffffffffffffffffff168173ffffffffffffffffffffffffffffffffffffffff1614610f07576040517f08c379a00000000000000000000000000000000000000000000000000000000081526004018080602001828103825260138152602001807f416464726573736573206e6f7420657175616c0000000000000000000000000081525060200191505060405180910390fd5b6000600660008973ffffffffffffffffffffffffffffffffffffffff1673ffffffffffffffffffffffffffffffffffffffff1681526020019081526020016000206001016000848152602001908152602001600020600101549050600660008373ffffffffffffffffffffffffffffffffffffffff1673ffffffffffffffffffffffffffffffffffffffff16815260200190815260200160002060000160008154809291906001900391905055506000600660008a73ffffffffffffffffffffffffffffffffffffffff1673ffffffffffffffffffffffffffffffffffffffff168152602001908152602001600020600101600085815260200190815260200160002060020160009054906101000a900460ff1690506000600660008b73ffffffffffffffffffffffffffffffffffffffff1673ffffffffffffffffffffffffffffffffffffffff1681526020019081526020016000206001016000868152602001908152602001600020600301549050600660008b73ffffffffffffffffffffffffffffffffffffffff1673ffffffffffffffffffffffffffffffffffffffff1681526020019081526020016000206001016000868152602001908152602001600020600080820160006101000a81549073ffffffffffffffffffffffffffffffffffffffff021916905560018201600090556002820160006101000a81549060ff021916905560038201600090555050811561117f578373ffffffffffffffffffffffffffffffffffffffff166108fc849081150290604051600060405180830381858888f19350505050158015611165573d6000803e3d6000fd5b508284838382925098509850985098505050505050611194565b82848383829250985098509850985050505050505b9193509193565b600360009054906101000a900473ffffffffffffffffffffffffffffffffffffffff1673ffffffffffffffffffffffffffffffffffffffff166111dc611533565b73ffffffffffffffffffffffffffffffffffffffff1614611265576040517f08c379a000000000000000000000000000000000000000000000000000000000815260040180806020018281038252601b8152602001807f6f6e6c79206f776e65722063616e206368616e6765207072696365000000000081525060200191505060405180910390fd5b670de0b6b3a7640000828161127657fe5b04600481905550670de0b6b3a7640000818161128e57fe5b046005819055505050565b600360009054906101000a900473ffffffffffffffffffffffffffffffffffffffff1681565b6000806001600660006112d0611533565b73ffffffffffffffffffffffffffffffffffffffff1673ffffffffffffffffffffffffffffffffffffffff168152602001908152602001600020600001540390506006600061131d611533565b73ffffffffffffffffffffffffffffffffffffffff1673ffffffffffffffffffffffffffffffffffffffff16815260200190815260200160002060010160008281526020019081526020016000206001015491505090565b60008083156113a457611386611533565b73ffffffffffffffffffffffffffffffffffffffff163190506113a8565b8290505b6113b184610a11565b81106113c15760009150506113c7565b60019150505b92915050565b600082156113e6576113df83836116aa565b90506113f3565b6113f08383611949565b90505b92915050565b6000600161140e61140987611be8565b611c8e565b83868660405160008152602001604052604051808581526020018460ff1660ff1681526020018381526020018281526020019450505050506020604051602081039080840390855afa158015611468573d6000803e3d6000fd5b5050506020604051035173ffffffffffffffffffffffffffffffffffffffff168673ffffffffffffffffffffffffffffffffffffffff1614905095945050505050565b600080828401905083811015611529576040517f08c379a000000000000000000000000000000000000000000000000000000000815260040180806020018281038252601b8152602001807f536166654d6174683a206164646974696f6e206f766572666c6f77000000000081525060200191505060405180910390fd5b8091505092915050565b60003073ffffffffffffffffffffffffffffffffffffffff163373ffffffffffffffffffffffffffffffffffffffff1614156115de5760606000368080601f016020809104026020016040519081016040528093929190818152602001838380828437600081840152601f19601f820116905080830192505050505050509050600080369050905073ffffffffffffffffffffffffffffffffffffffff8183015116925050506115e2565b3390505b80905090565b60008060025490506001841415611637578215611616576064600454828161160c57fe5b04029150506116a4565b60026064600554838161162557fe5b04028161162e57fe5b049150506116a4565b600284106116a2576000600190505b848160ff1610156116635781820191508080600101915050611646565b508215611681576064600454828161167757fe5b04029150506116a4565b60026064600554838161169057fe5b04028161169957fe5b049150506116a4565b505b92915050565b6000806116b684610a11565b905060006001600660006116c8611533565b73ffffffffffffffffffffffffffffffffffffffff1673ffffffffffffffffffffffffffffffffffffffff16815260200190815260200160002060000154019050611711611533565b6006600061171d611533565b73ffffffffffffffffffffffffffffffffffffffff1673ffffffffffffffffffffffffffffffffffffffff168152602001908152602001600020600101600083815260200190815260200160002060000160006101000a81548173ffffffffffffffffffffffffffffffffffffffff021916908373ffffffffffffffffffffffffffffffffffffffff16021790555081600660006117b9611533565b73ffffffffffffffffffffffffffffffffffffffff1673ffffffffffffffffffffffffffffffffffffffff168152602001908152602001600020600101600083815260200190815260200160002060010181905550846006600061181b611533565b73ffffffffffffffffffffffffffffffffffffffff1673ffffffffffffffffffffffffffffffffffffffff168152602001908152602001600020600101600083815260200190815260200160002060020160006101000a81548160ff0219169083151502179055508360066000611890611533565b73ffffffffffffffffffffffffffffffffffffffff1673ffffffffffffffffffffffffffffffffffffffff168152602001908152602001600020600101600083815260200190815260200160002060030181905550600660006118f1611533565b73ffffffffffffffffffffffffffffffffffffffff1673ffffffffffffffffffffffffffffffffffffffff16815260200190815260200160002060000160008154809291906001019190505550819250505092915050565b60008061195584610a11565b90506000600160066000611967611533565b73ffffffffffffffffffffffffffffffffffffffff1673ffffffffffffffffffffffffffffffffffffffff168152602001908152602001600020600001540190506119b0611533565b600660006119bc611533565b73ffffffffffffffffffffffffffffffffffffffff1673ffffffffffffffffffffffffffffffffffffffff168152602001908152602001600020600101600083815260200190815260200160002060000160006101000a81548173ffffffffffffffffffffffffffffffffffffffff021916908373ffffffffffffffffffffffffffffffffffffffff1602179055508160066000611a58611533565b73ffffffffffffffffffffffffffffffffffffffff1673ffffffffffffffffffffffffffffffffffffffff1681526020019081526020016000206001016000838152602001908152602001600020600101819055508460066000611aba611533565b73ffffffffffffffffffffffffffffffffffffffff1673ffffffffffffffffffffffffffffffffffffffff168152602001908152602001600020600101600083815260200190815260200160002060020160006101000a81548160ff0219169083151502179055508360066000611b2f611533565b73ffffffffffffffffffffffffffffffffffffffff1673ffffffffffffffffffffffffffffffffffffffff16815260200190815260200160002060010160008381526020019081526020016000206003018190555060066000611b90611533565b73ffffffffffffffffffffffffffffffffffffffff1673ffffffffffffffffffffffffffffffffffffffff16815260200190815260200160002060000160008154809291906001019190505550819250505092915050565b6000604051806080016040528060438152602001611d36604391398051906020012082600001518360200151846040015180519060200120604051602001808581526020018481526020018373ffffffffffffffffffffffffffffffffffffffff1673ffffffffffffffffffffffffffffffffffffffff168152602001828152602001945050505050604051602081830303815290604052805190602001209050919050565b6000611c98611cf5565b8260405160200180807f190100000000000000000000000000000000000000000000000000000000000081525060020183815260200182815260200192505050604051602081830303815290604052805190602001209050919050565b60008054905090565b604051806060016040528060008152602001600073ffffffffffffffffffffffffffffffffffffffff16815260200160608152509056fe4d6574615472616e73616374696f6e2875696e74323536206e6f6e63652c616464726573732066726f6d2c62797465732066756e6374696f6e5369676e6174757265295369676e657220616e64207369676e617475726520646f206e6f74206d617463684f6e6c79206f776e65722063616e206578656375746520746869732066756e6374696f6ea2646970667358221220f8841c625af515a3efacf83d58208e2fc50277d4d721425513707b3a2a5c8f0764736f6c63430006060033454950373132446f6d61696e28737472696e67206e616d652c737472696e672076657273696f6e2c75696e7432353620636861696e49642c6164647265737320766572696679696e67436f6e747261637429",
  "immutableReferences": {},
  "source": "pragma solidity ^0.6.6;\n\nimport {NetworkAgnostic} from \"./common/NetworkAgnostic.sol\";\n\ncontract HoldMoney is NetworkAgnostic {\n    //minimum wei for hold one event\n    uint256 amountGuardETH = 10000000000000000000;\n    address public owner;\n    uint256 public priceEth;\n    uint256 public priceToken;\n\n    struct quizeHolder {\n        address payable hostWallet;\n        uint256 money;\n        bool token;\n        int256 question_id;\n    }\n\n    struct quizeAmount {\n        uint256 amount;\n        mapping(uint256 => quizeHolder) holder;\n    }\n\n    mapping(address => quizeAmount) qAmount;\n\n    constructor() NetworkAgnostic(\"Bettery\", \"1\", 5) public {\n        owner = msg.sender;\n    }\n\n    function _setMoneyRetention(bool _pathHoldMoney, int256 question_id)\n        public\n        payable\n        returns(uint256)\n    {\n        // TO DO REMOVE duplicates\n        if (_pathHoldMoney) {\n            return setEth(_pathHoldMoney, question_id);\n        } else {\n            return setToken(_pathHoldMoney, question_id);\n        }\n    }\n\n    function setEth(bool _path, int256 question_id) private returns(uint256) {\n        uint256 amount = moneyRetentionCalculate(_path);\n        uint256 index = qAmount[_msgSender()].amount + 1;\n        qAmount[_msgSender()].holder[index].hostWallet = _msgSender();\n        qAmount[_msgSender()].holder[index].money = amount;\n        qAmount[_msgSender()].holder[index].token = _path;\n        qAmount[_msgSender()].holder[index].question_id = question_id;\n        qAmount[_msgSender()].amount ++;\n        return amount;\n    }\n\n    function setToken(bool _path, int256 question_id) private returns(uint256) {\n        uint256 amount = moneyRetentionCalculate(_path);\n        uint256 index = qAmount[_msgSender()].amount + 1;\n        qAmount[_msgSender()].holder[index].hostWallet = _msgSender();\n        qAmount[_msgSender()].holder[index].money = amount;\n        qAmount[_msgSender()].holder[index].token = _path;\n        qAmount[_msgSender()].holder[index].question_id = question_id;\n        qAmount[_msgSender()].amount ++;\n        return amount;\n    }\n\n    function _getMoneyRetention(address payable _host) public payable returns(uint256, address, bool, int256) {\n        require(_msgSender() == owner, \"Only owner can execute this function\");\n        require(qAmount[_host].amount > 0, \"Do not have coins on account\");\n\n        uint256 index = qAmount[_host].amount;\n        address payable host = qAmount[_host].holder[index].hostWallet;\n\n        require(host == _host, \"Addresses not equal\");\n        uint256 money = qAmount[_host].holder[index].money;\n        qAmount[host].amount--;\n        bool path = qAmount[_host].holder[index].token;\n        int256 question_id = qAmount[_host].holder[index].question_id;\n        delete qAmount[_host].holder[index];\n        if (path) {\n            host.transfer(money);\n            return (money, host, path, question_id);\n        } else {\n            return (money, host, path, question_id);\n        }\n    }\n\n    function moneyRetentionCalculate(bool _path) public view returns (uint256) {\n        return moneyCalc(qAmount[_msgSender()].amount + 1, _path);\n    }\n\n    function onHold() public view returns (uint256) {\n        if (qAmount[_msgSender()].amount >= 1) {\n            uint256 value = 0;\n            for (uint8 i = 1; i <= qAmount[_msgSender()].amount; i++) {\n                bool path = qAmount[_msgSender()].holder[i].token;\n                value = value + moneyCalc(i, path);\n            }\n            return value;\n        } else {\n            return 0;\n        }\n    }\n\n    function moneyCalc(uint256 number, bool _path) private view returns (uint256) {\n        uint256 value = amountGuardETH;\n        if (number == 1) {\n            if (_path) {\n                return (value / priceEth) * 100;\n            } else {\n                return ((value / priceToken) * 100) / 2;\n            }\n        } else if (number >= 2) {\n            for (uint8 i = 1; i < number; i++) {\n                value = value + value;\n            }\n            if (_path) {\n                return (value / priceEth) * 100;\n            } else {\n                return ((value / priceToken) * 100) / 2;\n            }\n        }\n    }\n\n    function _amountGuard(bool _path, uint256 balanceToken) public view returns (int8) {\n        uint256 balance;\n        if (_path) {\n            balance = address(_msgSender()).balance;\n        } else {\n            balance = balanceToken;\n        }\n        if (balance >= moneyRetentionCalculate(_path)) {\n            // don't have any errors\n            return 0;\n        } else {\n            // host does not have enough money\n            return 1;\n        }\n    }\n\n    function holdBalance() public view returns (uint256) {\n        return address(this).balance;\n    }\n\n    function setEthPrice(uint256 _priceEth, uint256 _priceToken) public {\n        require(_msgSender() == owner, \"only owner can change price\");\n        priceEth = _priceEth / 1000000000000000000;\n        priceToken = _priceToken / 1000000000000000000;\n    }\n\n    function getHoldMoneyById() public view returns(uint256) {\n        uint256 index = qAmount[_msgSender()].amount - 1;\n        return qAmount[_msgSender()].holder[index].money;\n    }\n\n    function _msgSender() internal view returns (address payable sender) {\n        if(msg.sender == address(this)) {\n            bytes memory array = msg.data;\n            uint256 index = msg.data.length;\n            assembly {\n                // Load the 32 bytes word from memory with the address on the lower 20 bytes, and mask those.\n                sender := and(mload(add(array, index)), 0xffffffffffffffffffffffffffffffffffffffff)\n            }\n        } else {\n            sender = msg.sender;\n        }\n        return sender;\n    }\n}\n",
  "sourcePath": "/Users/macbook/Documents/freelance/node/QUIZE/contracts/contracts/HoldMoney.sol",
  "compiler": {
    "name": "solc",
    "version": "0.6.6+commit.6c089d02.Linux.g++"
  },
  "schemaVersion": "3.2.2",
  "updatedAt": "2020-07-21T13:28:36.166Z",
  "devdoc": {
    "methods": {}
  },
  "userdoc": {
    "methods": {}
  }
}