{
  "contractName": "HoldMoney",
  "abi": [
    {
      "constant": false,
      "inputs": [
        {
          "name": "_question_id",
          "type": "int256"
        },
        {
          "name": "_endTime",
          "type": "uint256"
        },
        {
          "name": "_pathHoldMoney",
          "type": "bool"
        }
      ],
      "name": "_setMoneyRetention",
      "outputs": [],
      "payable": true,
      "stateMutability": "payable",
      "type": "function"
    },
    {
      "constant": false,
      "inputs": [
        {
          "name": "_question_id",
          "type": "int256"
        }
      ],
      "name": "getMoneyRetention",
      "outputs": [],
      "payable": true,
      "stateMutability": "payable",
      "type": "function"
    },
    {
      "constant": true,
      "inputs": [
        {
          "name": "_question_id",
          "type": "int256"
        }
      ],
      "name": "getHoldMoneyById",
      "outputs": [
        {
          "name": "",
          "type": "uint256"
        }
      ],
      "payable": false,
      "stateMutability": "view",
      "type": "function"
    },
    {
      "constant": true,
      "inputs": [],
      "name": "moneyRetentionCalculate",
      "outputs": [
        {
          "name": "",
          "type": "uint256"
        }
      ],
      "payable": false,
      "stateMutability": "view",
      "type": "function"
    },
    {
      "constant": true,
      "inputs": [],
      "name": "onHold",
      "outputs": [
        {
          "name": "",
          "type": "uint256"
        }
      ],
      "payable": false,
      "stateMutability": "view",
      "type": "function"
    },
    {
      "constant": true,
      "inputs": [],
      "name": "amountGuard",
      "outputs": [
        {
          "name": "",
          "type": "int8"
        }
      ],
      "payable": false,
      "stateMutability": "view",
      "type": "function"
    },
    {
      "constant": true,
      "inputs": [],
      "name": "holdBalance",
      "outputs": [
        {
          "name": "",
          "type": "uint256"
        }
      ],
      "payable": false,
      "stateMutability": "view",
      "type": "function"
    }
  ],
  "bytecode": "0x6080604052670de0b6b3a764000060005534801561001c57600080fd5b506107688061002c6000396000f3fe60806040526004361061008d576000357c0100000000000000000000000000000000000000000000000000000000900480638a1e576f1161006b5780638a1e576f146101195780639eaecdb714610168578063bf792a9014610193578063d685015f146101c15761008d565b80631441dc561461009257806326c989df146100c35780637fc50545146100ee575b600080fd5b34801561009e57600080fd5b506100a7610205565b604051808260000b60000b815260200191505060405180910390f35b3480156100cf57600080fd5b506100d861023f565b6040518082815260200191505060405180910390f35b3480156100fa57600080fd5b5061010361025e565b6040518082815260200191505060405180910390f35b34801561012557600080fd5b506101526004803603602081101561013c57600080fd5b8101908080359060200190929190505050610334565b6040518082815260200191505060405180910390f35b34801561017457600080fd5b5061017d610354565b6040518082815260200191505060405180910390f35b6101bf600480360360208110156101a957600080fd5b81019080803590602001909291905050506103a9565b005b610203600480360360608110156101d757600080fd5b8101908080359060200190929190803590602001909291908035151590602001909291905050506104eb565b005b600061020f610354565b3373ffffffffffffffffffffffffffffffffffffffff1631101515610237576000905061023c565b600190505b90565b60003073ffffffffffffffffffffffffffffffffffffffff1631905090565b60006001600260003373ffffffffffffffffffffffffffffffffffffffff1673ffffffffffffffffffffffffffffffffffffffff1681526020019081526020016000206000015410151561032c57600080905060008090505b600260003373ffffffffffffffffffffffffffffffffffffffff1673ffffffffffffffffffffffffffffffffffffffff168152602001908152602001600020600001548160ff16111515610322576103118160ff16610510565b8201915080806001019150506102b7565b5080915050610331565b600090505b90565b600060016000838152602001908152602001600020600101549050919050565b60006103a46001600260003373ffffffffffffffffffffffffffffffffffffffff1673ffffffffffffffffffffffffffffffffffffffff1681526020019081526020016000206000015401610510565b905090565b60006001600083815260200190815260200160002060000160009054906101000a900473ffffffffffffffffffffffffffffffffffffffff169050600060016000848152602001908152602001600020600101549050600260008373ffffffffffffffffffffffffffffffffffffffff1673ffffffffffffffffffffffffffffffffffffffff16815260200190815260200160002060000160008154809291906001900391905055508173ffffffffffffffffffffffffffffffffffffffff166108fc829081150290604051600060405180830381858888f19350505050158015610498573d6000803e3d6000fd5b5060016000848152602001908152602001600020600080820160006101000a81549073ffffffffffffffffffffffffffffffffffffffff0219169055600182016000905560028201600090555050505050565b8015610500576104fb8383610569565b61050b565b61050a83836106c8565b5b505050565b6000806000549050600183141561052a5780915050610564565b600283101515610562576000600190505b838160ff161015610558578182019150808060010191505061053b565b5080915050610564565b505b919050565b610571610354565b341415156105e7576040517f08c379a00000000000000000000000000000000000000000000000000000000081526004018080602001828103825260148152602001807f446f206e6f7420656e6f75676874206d6f6e657900000000000000000000000081525060200191505060405180910390fd5b336001600084815260200190815260200160002060000160006101000a81548173ffffffffffffffffffffffffffffffffffffffff021916908373ffffffffffffffffffffffffffffffffffffffff160217905550346001600084815260200190815260200160002060010181905550806001600084815260200190815260200160002060020181905550600260003373ffffffffffffffffffffffffffffffffffffffff1673ffffffffffffffffffffffffffffffffffffffff168152602001908152602001600020600001600081548092919060010191905055505050565b336001600084815260200190815260200160002060000160006101000a81548173ffffffffffffffffffffffffffffffffffffffff021916908373ffffffffffffffffffffffffffffffffffffffff160217905550806001600084815260200190815260200160002060020181905550505056fea165627a7a723058201d2093d680f5e8fd9d043f317a2dd2f007c54bfd8eb5793b0cb374e185ba55950029",
  "source": "pragma solidity ^0.5.2;\n\ncontract HoldMoney {\n    //minimum wei for hold one event\n    uint256 amountGuardWei = 1000000000000000000;\n  //  address private owner;\n\n    struct quizeHolder {\n        address payable hostWallet;\n        uint256 money;\n        uint256 endTime;\n    }\n\n    struct quizeAmount {\n        uint256 amount;\n    }\n\n    mapping(int256 => quizeHolder) holder;\n\n    mapping(address => quizeAmount) qAmount;\n\n    // constructor() public {\n    //     owner = msg.sender;\n    // }\n\n    function _setMoneyRetention(\n        int256 _question_id,\n        uint256 _endTime,\n        bool _pathHoldMoney\n    ) public payable {\n        if (_pathHoldMoney) {\n            setEth(\n               _question_id,\n               _endTime\n             );\n        } else {\n            setToken(\n                _question_id,\n               _endTime\n            );\n        }\n    }\n\n    function setEth(int256 _question_id, uint256 _endTime) private {\n        require(msg.value == moneyRetentionCalculate(), \"Do not enought money\");\n      //  require(msg.sender == owner, \"Only owner can execute this function\");\n        holder[_question_id].hostWallet = msg.sender;\n        holder[_question_id].money = msg.value;\n        holder[_question_id].endTime = _endTime;\n        qAmount[msg.sender].amount++;\n    }\n\n    function setToken(int256 _question_id, uint256 _endTime) private{\n      //  require(msg.sender == owner, \"Only owner can execute this function\");\n        holder[_question_id].hostWallet = msg.sender;\n        holder[_question_id].endTime = _endTime;\n    }\n\n    function getMoneyRetention(int256 _question_id) public payable {\n        address payable host = holder[_question_id].hostWallet;\n        uint256 money = holder[_question_id].money;\n        qAmount[host].amount--;\n        host.transfer(money);\n        delete holder[_question_id];\n    }\n\n    function getHoldMoneyById(int256 _question_id)\n        public\n        view\n        returns (uint256)\n    {\n        return holder[_question_id].money;\n    }\n\n    function moneyRetentionCalculate() public view returns (uint256) {\n        return moneyCalc(qAmount[msg.sender].amount + 1);\n    }\n\n    function onHold() public view returns (uint256) {\n        if (qAmount[msg.sender].amount >= 1) {\n            uint256 value = 0;\n            for (uint8 i = 0; i <= qAmount[msg.sender].amount; i++) {\n                value = value + moneyCalc(i);\n            }\n            return value;\n        } else {\n            return 0;\n        }\n    }\n\n    function moneyCalc(uint256 number) private view returns (uint256) {\n        uint256 value = amountGuardWei;\n        if (number == 1) {\n            return value;\n        } else if (number >= 2) {\n            for (uint8 i = 1; i < number; i++) {\n                value = value + value;\n            }\n            return value;\n        }\n    }\n\n    function amountGuard() public view returns (int8) {\n        if (address(msg.sender).balance >= moneyRetentionCalculate()) {\n            // don't have any errors\n            return 0;\n        } else {\n            // host does not have enough money\n            return 1;\n        }\n    }\n\n    function holdBalance() public view returns (uint256) {\n        return address(this).balance;\n    }\n}\n",
  "sourcePath": "/Users/macbook/Documents/freelance/node/QUIZE/frontend/contracts/HoldMoney.sol",
  "compiler": {
    "name": "solc",
    "version": "0.5.2+commit.1df8f40c.Emscripten.clang"
  },
  "schemaVersion": "3.0.19",
  "updatedAt": "2020-03-30T09:49:40.495Z",
  "devdoc": {
    "methods": {}
  },
  "userdoc": {
    "methods": {}
  }
}