{
  "contractName": "LibEIP712Domain",
  "abi": [
    {
      "constant": true,
      "inputs": [],
      "name": "networkId",
      "outputs": [
        {
          "name": "",
          "type": "bytes"
        }
      ],
      "payable": false,
      "stateMutability": "view",
      "type": "function"
    },
    {
      "constant": true,
      "inputs": [],
      "name": "CHAINID",
      "outputs": [
        {
          "name": "",
          "type": "uint256"
        }
      ],
      "payable": false,
      "stateMutability": "view",
      "type": "function"
    },
    {
      "constant": true,
      "inputs": [],
      "name": "EIP712_DOMAIN_HASH",
      "outputs": [
        {
          "name": "",
          "type": "bytes32"
        }
      ],
      "payable": false,
      "stateMutability": "view",
      "type": "function"
    },
    {
      "constant": true,
      "inputs": [],
      "name": "EIP712_DOMAIN_SCHEMA_HASH",
      "outputs": [
        {
          "name": "",
          "type": "bytes32"
        }
      ],
      "payable": false,
      "stateMutability": "view",
      "type": "function"
    },
    {
      "inputs": [],
      "payable": false,
      "stateMutability": "nonpayable",
      "type": "constructor"
    }
  ],
  "bytecode": "0x608060405234801561001057600080fd5b506080604051908101604052806052815260200161043d605291396040516020018082805190602001908083835b602083101515610063578051825260208201915060208101905060208303925061003e565b6001836020036101000a038019825116818451168082178552505050505050905001915050604051602081830303815290604052805190602001206040805190810160405280600d81526020017f4d61746963204e6574776f726b00000000000000000000000000000000000000815250805190602001206040805190810160405280600181526020017f310000000000000000000000000000000000000000000000000000000000000081525080519060200120613a9930604051602001808681526020018581526020018481526020018381526020018273ffffffffffffffffffffffffffffffffffffffff1673ffffffffffffffffffffffffffffffffffffffff168152602001955050505050506040516020818303038152906040528051906020012060008190555061029e8061019f6000396000f3fe608060405234801561001057600080fd5b5060043610610069576000357c0100000000000000000000000000000000000000000000000000000000900480639025e64c1461006e578063cc79f97b146100f1578063e306f7791461010f578063e614d0d61461012d575b600080fd5b61007661014b565b6040518080602001828103825283818151815260200191508051906020019080838360005b838110156100b657808201518184015260208101905061009b565b50505050905090810190601f1680156100e35780820380516001836020036101000a031916815260200191505b509250505060405180910390f35b6100f9610184565b6040518082815260200191505060405180910390f35b61011761018a565b6040518082815260200191505060405180910390f35b610135610190565b6040518082815260200191505060405180910390f35b6040805190810160405280600281526020017f3a9900000000000000000000000000000000000000000000000000000000000081525081565b613a9981565b60005481565b60806040519081016040528060528152602001610221605291396040516020018082805190602001908083835b6020831015156101e257805182526020820191506020810190506020830392506101bd565b6001836020036101000a038019825116818451168082178552505050505050905001915050604051602081830303815290604052805190602001208156fe454950373132446f6d61696e28737472696e67206e616d652c737472696e672076657273696f6e2c75696e7432353620636861696e49642c6164647265737320766572696679696e67436f6e747261637429a165627a7a72305820d5a93b44f80cea178290e1cab71e92fc138c9cb8f0c262ecba544416b0c5d6690029454950373132446f6d61696e28737472696e67206e616d652c737472696e672076657273696f6e2c75696e7432353620636861696e49642c6164647265737320766572696679696e67436f6e747261637429",
  "source": "pragma solidity ^0.5.2;\n\nimport {ChainIdMixin} from \"./ChainIdMixin.sol\";\n\ncontract LibEIP712Domain is ChainIdMixin {\n    string internal constant EIP712_DOMAIN_SCHEMA = \"EIP712Domain(string name,string version,uint256 chainId,address verifyingContract)\";\n    bytes32 public constant EIP712_DOMAIN_SCHEMA_HASH = keccak256(\n        abi.encodePacked(EIP712_DOMAIN_SCHEMA)\n    );\n\n    string internal constant EIP712_DOMAIN_NAME = \"Matic Network\";\n    string internal constant EIP712_DOMAIN_VERSION = \"1\";\n    uint256 internal constant EIP712_DOMAIN_CHAINID = CHAINID;\n\n    bytes32 public EIP712_DOMAIN_HASH;\n\n    constructor() public {\n        EIP712_DOMAIN_HASH = keccak256(\n            abi.encode(\n                EIP712_DOMAIN_SCHEMA_HASH,\n                keccak256(bytes(EIP712_DOMAIN_NAME)),\n                keccak256(bytes(EIP712_DOMAIN_VERSION)),\n                EIP712_DOMAIN_CHAINID,\n                address(this)\n            )\n        );\n    }\n\n    function hashEIP712Message(bytes32 hashStruct)\n        internal\n        view\n        returns (bytes32 result)\n    {\n        bytes32 domainHash = EIP712_DOMAIN_HASH;\n\n        // Assembly for more efficient computing:\n        // keccak256(abi.encode(\n        //     EIP191_HEADER,\n        //     domainHash,\n        //     hashStruct\n        // ));\n\n        assembly {\n            // Load free memory pointer\n            let memPtr := mload(64)\n\n            mstore(\n                memPtr,\n                0x1901000000000000000000000000000000000000000000000000000000000000\n            ) // EIP191 header\n            mstore(add(memPtr, 2), domainHash) // EIP712 domain hash\n            mstore(add(memPtr, 34), hashStruct) // Hash of struct\n\n            // Compute hash\n            result := keccak256(memPtr, 66)\n        }\n        return result;\n    }\n}",
  "sourcePath": "/Users/macbook/Documents/freelance/node/QUIZE/contracts/contracts/child/misc/EIP712.sol",
  "compiler": {
    "name": "solc",
    "version": "0.5.2+commit.1df8f40c.Emscripten.clang"
  },
  "schemaVersion": "3.0.2",
  "updatedAt": "2020-06-18T18:26:51.884Z",
  "devdoc": {
    "methods": {}
  },
  "userdoc": {
    "methods": {}
  }
}