{
  "contractName": "LibTokenTransferOrder",
  "abi": [
    {
      "constant": true,
      "inputs": [],
      "name": "networkId",
      "outputs": [
        {
          "name": "",
          "type": "bytes"
        }
      ],
      "payable": false,
      "stateMutability": "view",
      "type": "function"
    },
    {
      "constant": true,
      "inputs": [],
      "name": "EIP712_TOKEN_TRANSFER_ORDER_SCHEMA_HASH",
      "outputs": [
        {
          "name": "",
          "type": "bytes32"
        }
      ],
      "payable": false,
      "stateMutability": "view",
      "type": "function"
    },
    {
      "constant": true,
      "inputs": [],
      "name": "CHAINID",
      "outputs": [
        {
          "name": "",
          "type": "uint256"
        }
      ],
      "payable": false,
      "stateMutability": "view",
      "type": "function"
    },
    {
      "constant": true,
      "inputs": [],
      "name": "EIP712_DOMAIN_HASH",
      "outputs": [
        {
          "name": "",
          "type": "bytes32"
        }
      ],
      "payable": false,
      "stateMutability": "view",
      "type": "function"
    },
    {
      "constant": true,
      "inputs": [],
      "name": "EIP712_DOMAIN_SCHEMA_HASH",
      "outputs": [
        {
          "name": "",
          "type": "bytes32"
        }
      ],
      "payable": false,
      "stateMutability": "view",
      "type": "function"
    },
    {
      "constant": true,
      "inputs": [
        {
          "name": "spender",
          "type": "address"
        },
        {
          "name": "tokenIdOrAmount",
          "type": "uint256"
        },
        {
          "name": "data",
          "type": "bytes32"
        },
        {
          "name": "expiration",
          "type": "uint256"
        }
      ],
      "name": "getTokenTransferOrderHash",
      "outputs": [
        {
          "name": "orderHash",
          "type": "bytes32"
        }
      ],
      "payable": false,
      "stateMutability": "view",
      "type": "function"
    }
  ],
  "bytecode": "0x608060405260806040519081016040528060528152602001610708605291396040516020018082805190602001908083835b6020831015156100565780518252602082019150602081019050602083039250610031565b6001836020036101000a038019825116818451168082178552505050505050905001915050604051602081830303815290604052805190602001206040805190810160405280600d81526020017f4d61746963204e6574776f726b00000000000000000000000000000000000000815250805190602001206040805190810160405280600181526020017f310000000000000000000000000000000000000000000000000000000000000081525080519060200120613a9930604051602001808681526020018581526020018481526020018381526020018273ffffffffffffffffffffffffffffffffffffffff1673ffffffffffffffffffffffffffffffffffffffff1681526020019550505050505060405160208183030381529060405280519060200120600081905550610576806101926000396000f3fe608060405234801561001057600080fd5b506004361061007f576000357c0100000000000000000000000000000000000000000000000000000000900480639025e64c14610084578063abceeba214610107578063b789543c14610125578063cc79f97b1461019b578063e306f779146101b9578063e614d0d6146101d7575b600080fd5b61008c6101f5565b6040518080602001828103825283818151815260200191508051906020019080838360005b838110156100cc5780820151818401526020810190506100b1565b50505050905090810190601f1680156100f95780820380516001836020036101000a031916815260200191505b509250505060405180910390f35b61010f61022e565b6040518082815260200191505060405180910390f35b6101856004803603608081101561013b57600080fd5b81019080803573ffffffffffffffffffffffffffffffffffffffff1690602001909291908035906020019092919080359060200190929190803590602001909291905050506102be565b6040518082815260200191505060405180910390f35b6101a36102de565b6040518082815260200191505060405180910390f35b6101c16102e4565b6040518082815260200191505060405180910390f35b6101df6102ea565b6040518082815260200191505060405180910390f35b6040805190810160405280600281526020017f3a9900000000000000000000000000000000000000000000000000000000000081525081565b608060405190810160405280605b81526020016104f0605b91396040516020018082805190602001908083835b602083101515610280578051825260208201915060208101905060208303925061025b565b6001836020036101000a0380198251168184511680821785525050505050509050019150506040516020818303038152906040528051906020012081565b60006102d46102cf8686868661037a565b610453565b9050949350505050565b613a9981565b60005481565b6080604051908101604052806052815260200161049e605291396040516020018082805190602001908083835b60208310151561033c5780518252602082019150602081019050602083039250610317565b6001836020036101000a0380198251168184511680821785525050505050509050019150506040516020818303038152906040528051906020012081565b600080608060405190810160405280605b81526020016104f0605b91396040516020018082805190602001908083835b6020831015156103cf57805182526020820191506020810190506020830392506103aa565b6001836020036101000a03801982511681845116808217855250505050505090500191505060405160208183030381529060405280519060200120905060405181815273ffffffffffffffffffffffffffffffffffffffff8716602082015285604082015284606082015283608082015260a0812092505081915050949350505050565b60008060005490506040517f19010000000000000000000000000000000000000000000000000000000000008152816002820152836022820152604281209250508191505091905056fe454950373132446f6d61696e28737472696e67206e616d652c737472696e672076657273696f6e2c75696e7432353620636861696e49642c6164647265737320766572696679696e67436f6e747261637429546f6b656e5472616e736665724f726465722861646472657373207370656e6465722c75696e7432353620746f6b656e49644f72416d6f756e742c6279746573333220646174612c75696e743235362065787069726174696f6e29a165627a7a72305820d195a8ed572bfc39ea5d815853ab7f3b0ce66f916e6d05636dcffd31bd8122c50029454950373132446f6d61696e28737472696e67206e616d652c737472696e672076657273696f6e2c75696e7432353620636861696e49642c6164647265737320766572696679696e67436f6e747261637429",
  "source": "pragma solidity ^0.5.2;\n\nimport {LibEIP712Domain} from \"./EIP712.sol\";\n\ncontract LibTokenTransferOrder is LibEIP712Domain {\n    string internal constant EIP712_TOKEN_TRANSFER_ORDER_SCHEMA = \"TokenTransferOrder(address spender,uint256 tokenIdOrAmount,bytes32 data,uint256 expiration)\";\n    bytes32 public constant EIP712_TOKEN_TRANSFER_ORDER_SCHEMA_HASH = keccak256(\n        abi.encodePacked(EIP712_TOKEN_TRANSFER_ORDER_SCHEMA)\n    );\n\n    struct TokenTransferOrder {\n        address spender;\n        uint256 tokenIdOrAmount;\n        bytes32 data;\n        uint256 expiration;\n    }\n\n    function getTokenTransferOrderHash(\n        address spender,\n        uint256 tokenIdOrAmount,\n        bytes32 data,\n        uint256 expiration\n    ) public view returns (bytes32 orderHash) {\n        orderHash = hashEIP712Message(\n            hashTokenTransferOrder(spender, tokenIdOrAmount, data, expiration)\n        );\n    }\n\n    function hashTokenTransferOrder(\n        address spender,\n        uint256 tokenIdOrAmount,\n        bytes32 data,\n        uint256 expiration\n    ) internal pure returns (bytes32 result) {\n        bytes32 schemaHash = EIP712_TOKEN_TRANSFER_ORDER_SCHEMA_HASH;\n\n        // Assembly for more efficiently computing:\n        // return keccak256(abi.encode(\n        //   schemaHash,\n        //   spender,\n        //   tokenIdOrAmount,\n        //   data,\n        //   expiration\n        // ));\n\n        assembly {\n            // Load free memory pointer\n            let memPtr := mload(64)\n\n            mstore(memPtr, schemaHash) // hash of schema\n            mstore(\n                add(memPtr, 32),\n                and(spender, 0xffffffffffffffffffffffffffffffffffffffff)\n            ) // spender\n            mstore(add(memPtr, 64), tokenIdOrAmount) // tokenIdOrAmount\n            mstore(add(memPtr, 96), data) // hash of data\n            mstore(add(memPtr, 128), expiration) // expiration\n\n            // Compute hash\n            result := keccak256(memPtr, 160)\n        }\n        return result;\n    }\n}",
  "sourcePath": "/Users/macbook/Documents/freelance/node/QUIZE/contracts/contracts/child/misc/LibTokenTransferOrder.sol",
  "compiler": {
    "name": "solc",
    "version": "0.5.2+commit.1df8f40c.Emscripten.clang"
  },
  "schemaVersion": "3.0.2",
  "updatedAt": "2020-06-18T18:26:51.884Z",
  "devdoc": {
    "methods": {}
  },
  "userdoc": {
    "methods": {}
  }
}