{
  "contractName": "PublicEvent",
  "abi": [
    {
      "inputs": [
        {
          "internalType": "contract MaticWETH",
          "name": "_maticToken",
          "type": "address"
        },
        {
          "internalType": "contract BetteryToken",
          "name": "_betteryToken",
          "type": "address"
        }
      ],
      "stateMutability": "nonpayable",
      "type": "constructor"
    },
    {
      "anonymous": false,
      "inputs": [
        {
          "indexed": false,
          "internalType": "address",
          "name": "userAddress",
          "type": "address"
        },
        {
          "indexed": false,
          "internalType": "address payable",
          "name": "relayerAddress",
          "type": "address"
        },
        {
          "indexed": false,
          "internalType": "bytes",
          "name": "functionSignature",
          "type": "bytes"
        }
      ],
      "name": "MetaTransactionExecuted",
      "type": "event"
    },
    {
      "anonymous": false,
      "inputs": [
        {
          "indexed": false,
          "internalType": "int256",
          "name": "question_id",
          "type": "int256"
        },
        {
          "indexed": false,
          "internalType": "bool",
          "name": "payEther",
          "type": "bool"
        },
        {
          "indexed": false,
          "internalType": "bool",
          "name": "moneyOnEvent",
          "type": "bool"
        }
      ],
      "name": "eventIsFinish",
      "type": "event"
    },
    {
      "anonymous": false,
      "inputs": [
        {
          "indexed": false,
          "internalType": "string",
          "name": "path",
          "type": "string"
        },
        {
          "indexed": false,
          "internalType": "uint256",
          "name": "money",
          "type": "uint256"
        },
        {
          "indexed": false,
          "internalType": "bool",
          "name": "payEther",
          "type": "bool"
        },
        {
          "indexed": false,
          "internalType": "address",
          "name": "wallet",
          "type": "address"
        },
        {
          "indexed": false,
          "internalType": "string",
          "name": "from",
          "type": "string"
        },
        {
          "indexed": false,
          "internalType": "int256",
          "name": "question_id",
          "type": "int256"
        }
      ],
      "name": "payEvent",
      "type": "event"
    },
    {
      "anonymous": false,
      "inputs": [
        {
          "indexed": false,
          "internalType": "int256",
          "name": "question_id",
          "type": "int256"
        },
        {
          "indexed": false,
          "internalType": "string",
          "name": "purpose",
          "type": "string"
        }
      ],
      "name": "revertedEvent",
      "type": "event"
    },
    {
      "inputs": [
        {
          "internalType": "bool",
          "name": "_tokenType",
          "type": "bool"
        },
        {
          "internalType": "uint256",
          "name": "balanceToken",
          "type": "uint256"
        },
        {
          "internalType": "address payable",
          "name": "wallet",
          "type": "address"
        }
      ],
      "name": "_amountGuard",
      "outputs": [
        {
          "internalType": "int8",
          "name": "",
          "type": "int8"
        }
      ],
      "stateMutability": "view",
      "type": "function",
      "constant": true
    },
    {
      "inputs": [
        {
          "internalType": "address payable",
          "name": "_host",
          "type": "address"
        }
      ],
      "name": "_getMoneyRetention",
      "outputs": [
        {
          "internalType": "uint256",
          "name": "",
          "type": "uint256"
        },
        {
          "internalType": "address",
          "name": "",
          "type": "address"
        },
        {
          "internalType": "bool",
          "name": "",
          "type": "bool"
        },
        {
          "internalType": "int256",
          "name": "",
          "type": "int256"
        }
      ],
      "stateMutability": "payable",
      "type": "function",
      "payable": true
    },
    {
      "inputs": [
        {
          "internalType": "bool",
          "name": "_tokenType",
          "type": "bool"
        },
        {
          "internalType": "int256",
          "name": "question_id",
          "type": "int256"
        },
        {
          "internalType": "address payable",
          "name": "wallet",
          "type": "address"
        }
      ],
      "name": "_setMoneyRetention",
      "outputs": [
        {
          "internalType": "uint256",
          "name": "",
          "type": "uint256"
        }
      ],
      "stateMutability": "payable",
      "type": "function",
      "payable": true
    },
    {
      "inputs": [],
      "name": "betteryToken",
      "outputs": [
        {
          "internalType": "contract BetteryToken",
          "name": "",
          "type": "address"
        }
      ],
      "stateMutability": "view",
      "type": "function",
      "constant": true
    },
    {
      "inputs": [],
      "name": "companyAddress",
      "outputs": [
        {
          "internalType": "address payable",
          "name": "",
          "type": "address"
        }
      ],
      "stateMutability": "view",
      "type": "function",
      "constant": true
    },
    {
      "inputs": [
        {
          "internalType": "address",
          "name": "userAddress",
          "type": "address"
        },
        {
          "internalType": "bytes",
          "name": "functionSignature",
          "type": "bytes"
        },
        {
          "internalType": "bytes32",
          "name": "sigR",
          "type": "bytes32"
        },
        {
          "internalType": "bytes32",
          "name": "sigS",
          "type": "bytes32"
        },
        {
          "internalType": "uint8",
          "name": "sigV",
          "type": "uint8"
        }
      ],
      "name": "executeMetaTransaction",
      "outputs": [
        {
          "internalType": "bytes",
          "name": "",
          "type": "bytes"
        }
      ],
      "stateMutability": "payable",
      "type": "function",
      "payable": true
    },
    {
      "inputs": [
        {
          "internalType": "address",
          "name": "user",
          "type": "address"
        }
      ],
      "name": "getNonce",
      "outputs": [
        {
          "internalType": "uint256",
          "name": "nonce",
          "type": "uint256"
        }
      ],
      "stateMutability": "view",
      "type": "function",
      "constant": true
    },
    {
      "inputs": [],
      "name": "maticToken",
      "outputs": [
        {
          "internalType": "contract MaticWETH",
          "name": "",
          "type": "address"
        }
      ],
      "stateMutability": "view",
      "type": "function",
      "constant": true
    },
    {
      "inputs": [
        {
          "internalType": "bool",
          "name": "_tokenType",
          "type": "bool"
        },
        {
          "internalType": "address payable",
          "name": "wallet",
          "type": "address"
        }
      ],
      "name": "moneyRetentionCalculate",
      "outputs": [
        {
          "internalType": "uint256",
          "name": "",
          "type": "uint256"
        }
      ],
      "stateMutability": "view",
      "type": "function",
      "constant": true
    },
    {
      "inputs": [
        {
          "internalType": "address",
          "name": "wallet",
          "type": "address"
        }
      ],
      "name": "onHold",
      "outputs": [
        {
          "internalType": "uint256",
          "name": "",
          "type": "uint256"
        }
      ],
      "stateMutability": "view",
      "type": "function",
      "constant": true
    },
    {
      "inputs": [],
      "name": "owner",
      "outputs": [
        {
          "internalType": "address",
          "name": "",
          "type": "address"
        }
      ],
      "stateMutability": "view",
      "type": "function",
      "constant": true
    },
    {
      "inputs": [],
      "name": "priceEth",
      "outputs": [
        {
          "internalType": "uint256",
          "name": "",
          "type": "uint256"
        }
      ],
      "stateMutability": "view",
      "type": "function",
      "constant": true
    },
    {
      "inputs": [],
      "name": "priceToken",
      "outputs": [
        {
          "internalType": "uint256",
          "name": "",
          "type": "uint256"
        }
      ],
      "stateMutability": "view",
      "type": "function",
      "constant": true
    },
    {
      "inputs": [
        {
          "internalType": "uint256",
          "name": "_priceEth",
          "type": "uint256"
        },
        {
          "internalType": "uint256",
          "name": "_priceToken",
          "type": "uint256"
        }
      ],
      "name": "setEthPrice",
      "outputs": [],
      "stateMutability": "nonpayable",
      "type": "function"
    },
    {
      "inputs": [
        {
          "internalType": "uint256[]",
          "name": "_data",
          "type": "uint256[]"
        }
      ],
      "name": "setSort",
      "outputs": [],
      "stateMutability": "nonpayable",
      "type": "function"
    },
    {
      "inputs": [],
      "name": "sort",
      "outputs": [],
      "stateMutability": "nonpayable",
      "type": "function"
    },
    {
      "inputs": [
        {
          "internalType": "uint256",
          "name": "",
          "type": "uint256"
        }
      ],
      "name": "sortedArray",
      "outputs": [
        {
          "internalType": "uint256",
          "name": "",
          "type": "uint256"
        }
      ],
      "stateMutability": "view",
      "type": "function",
      "constant": true
    },
    {
      "stateMutability": "payable",
      "type": "receive",
      "payable": true
    },
    {
      "inputs": [
        {
          "internalType": "int256",
          "name": "_question_id",
          "type": "int256"
        },
        {
          "internalType": "uint256",
          "name": "_startTime",
          "type": "uint256"
        },
        {
          "internalType": "uint256",
          "name": "_endTime",
          "type": "uint256"
        },
        {
          "internalType": "uint8",
          "name": "_percentHost",
          "type": "uint8"
        },
        {
          "internalType": "uint8",
          "name": "_percentValidator",
          "type": "uint8"
        },
        {
          "internalType": "uint8",
          "name": "_questionQuantity",
          "type": "uint8"
        },
        {
          "internalType": "uint256",
          "name": "_validatorsAmount",
          "type": "uint256"
        },
        {
          "internalType": "bool",
          "name": "_pathHoldMoney",
          "type": "bool"
        },
        {
          "internalType": "bool",
          "name": "_payEther",
          "type": "bool"
        },
        {
          "internalType": "bool",
          "name": "_expertsQuantityWay",
          "type": "bool"
        }
      ],
      "name": "startQestion",
      "outputs": [],
      "stateMutability": "payable",
      "type": "function",
      "payable": true
    },
    {
      "inputs": [
        {
          "internalType": "int256",
          "name": "_question_id",
          "type": "int256"
        },
        {
          "internalType": "uint8",
          "name": "_whichAnswer",
          "type": "uint8"
        },
        {
          "internalType": "uint256",
          "name": "_amount",
          "type": "uint256"
        }
      ],
      "name": "setAnswer",
      "outputs": [],
      "stateMutability": "payable",
      "type": "function",
      "payable": true
    },
    {
      "inputs": [
        {
          "internalType": "int256",
          "name": "_question_id",
          "type": "int256"
        },
        {
          "internalType": "uint8",
          "name": "_whichAnswer",
          "type": "uint8"
        }
      ],
      "name": "setValidator",
      "outputs": [],
      "stateMutability": "payable",
      "type": "function",
      "payable": true
    },
    {
      "inputs": [
        {
          "internalType": "int256",
          "name": "_question_id",
          "type": "int256"
        }
      ],
      "name": "getQuestion",
      "outputs": [
        {
          "internalType": "uint256",
          "name": "persentFeeCompany",
          "type": "uint256"
        },
        {
          "internalType": "uint256",
          "name": "persentForEachValidators",
          "type": "uint256"
        },
        {
          "internalType": "uint256",
          "name": "money",
          "type": "uint256"
        },
        {
          "internalType": "bool",
          "name": "reverted",
          "type": "bool"
        },
        {
          "internalType": "uint256",
          "name": "correctAnswer",
          "type": "uint256"
        },
        {
          "internalType": "uint256",
          "name": "persentFeeHost",
          "type": "uint256"
        }
      ],
      "stateMutability": "view",
      "type": "function",
      "constant": true
    },
    {
      "inputs": [
        {
          "internalType": "int256",
          "name": "_question_id",
          "type": "int256"
        }
      ],
      "name": "deleteEvent",
      "outputs": [],
      "stateMutability": "nonpayable",
      "type": "function"
    },
    {
      "inputs": [],
      "name": "quizeBalance",
      "outputs": [
        {
          "internalType": "uint256",
          "name": "",
          "type": "uint256"
        }
      ],
      "stateMutability": "view",
      "type": "function",
      "constant": true
    },
    {
      "inputs": [],
      "name": "getContractTokenBalance",
      "outputs": [
        {
          "internalType": "uint256",
          "name": "",
          "type": "uint256"
        }
      ],
      "stateMutability": "view",
      "type": "function",
      "constant": true
    },
    {
      "inputs": [
        {
          "internalType": "address payable",
          "name": "_host",
          "type": "address"
        }
      ],
      "name": "getMoneyRetention",
      "outputs": [],
      "stateMutability": "payable",
      "type": "function",
      "payable": true
    },
    {
      "inputs": [
        {
          "internalType": "bool",
          "name": "_path",
          "type": "bool"
        },
        {
          "internalType": "address payable",
          "name": "wallet",
          "type": "address"
        }
      ],
      "name": "amountGuard",
      "outputs": [
        {
          "internalType": "int8",
          "name": "",
          "type": "int8"
        }
      ],
      "stateMutability": "view",
      "type": "function",
      "constant": true
    },
    {
      "inputs": [
        {
          "internalType": "int256",
          "name": "_question_id",
          "type": "int256"
        }
      ],
      "name": "setTimeValidator",
      "outputs": [
        {
          "internalType": "int8",
          "name": "",
          "type": "int8"
        }
      ],
      "stateMutability": "view",
      "type": "function",
      "constant": true
    },
    {
      "inputs": [
        {
          "internalType": "int256",
          "name": "_question_id",
          "type": "int256"
        }
      ],
      "name": "setTimeAnswer",
      "outputs": [
        {
          "internalType": "int8",
          "name": "",
          "type": "int8"
        }
      ],
      "stateMutability": "view",
      "type": "function",
      "constant": true
    },
    {
      "inputs": [
        {
          "internalType": "int256",
          "name": "_question_id",
          "type": "int256"
        }
      ],
      "name": "deleteEventValidator",
      "outputs": [
        {
          "internalType": "int8",
          "name": "",
          "type": "int8"
        }
      ],
      "stateMutability": "view",
      "type": "function",
      "constant": true
    }
  ],
  "bytecode": "0x6080604052678ac7230489e800006002556002600960146101000a81548160ff021916908360ff16021790555062093a80600a55670de0b6b3a7640000600c553480156200004c57600080fd5b5060405162005d8138038062005d81833981810160405260408110156200007257600080fd5b8101908080519060200190929190805190602001909291905050506040518060400160405280600781526020017f42657474657279000000000000000000000000000000000000000000000000008152506040518060400160405280600181526020017f3100000000000000000000000000000000000000000000000000000000000000815250600582828260405180608001604052806052815260200162005d2f6052913980519060200120838051906020012083805190602001208330604051602001808681526020018581526020018481526020018381526020018273ffffffffffffffffffffffffffffffffffffffff1673ffffffffffffffffffffffffffffffffffffffff168152602001955050505050506040516020818303038152906040528051906020012060008190555050505050505033600360006101000a81548173ffffffffffffffffffffffffffffffffffffffff021916908373ffffffffffffffffffffffffffffffffffffffff16021790555081600860006101000a81548173ffffffffffffffffffffffffffffffffffffffff021916908373ffffffffffffffffffffffffffffffffffffffff16021790555080600960006101000a81548173ffffffffffffffffffffffffffffffffffffffff021916908373ffffffffffffffffffffffffffffffffffffffff16021790555033600b60006101000a81548173ffffffffffffffffffffffffffffffffffffffff021916908373ffffffffffffffffffffffffffffffffffffffff1602179055505050615a6e80620002c16000396000f3fe6080604052600436106101c65760003560e01c80636738a967116100f75780638cdc86a611610095578063e2d914f211610064578063e2d914f214610bdd578063e4f8749614610c2c578063f4cd570214610c57578063f848217114610cc5576101cd565b80638cdc86a614610add5780638da5cb5b14610af4578063c9e53b4b14610b4b578063dc35429614610b86576101cd565b80638229f5e9116100d15780638229f5e914610951578063834f8047146109ee57806383855f1f14610a4357806387b6608d14610a88576101cd565b80636738a96714610844578063759772351461089b5780637bd660e21461090c576101cd565b806333ec4781116101645780633b97b5d61161013e5780633b97b5d61461061a578063439968c0146106df57806353e1ead91461077757806357146e06146107ce576101cd565b806333ec4781146105255780633493c8621461058a57806334be86c8146105df576101cd565b80632ca38363116101a05780632ca383631461043f5780632d0335ab1461046a5780632ff6fe76146104cf578063317d9453146104fa576101cd565b80630c53c51c146101d25780632335e52914610347578063234e19fd146103c8576101cd565b366101cd57005b600080fd5b6102cc600480360360a08110156101e857600080fd5b81019080803573ffffffffffffffffffffffffffffffffffffffff1690602001909291908035906020019064010000000081111561022557600080fd5b82018360208201111561023757600080fd5b8035906020019184600183028401116401000000008311171561025957600080fd5b91908080601f016020809104026020016040519081016040528093929190818152602001838380828437600081840152601f19601f8201169050808301925050505050505091929192908035906020019092919080359060200190929190803560ff169060200190929190505050610d09565b6040518080602001828103825283818151815260200191508051906020019080838360005b8381101561030c5780820151818401526020810190506102f1565b50505050905090810190601f1680156103395780820380516001836020036101000a031916815260200191505b509250505060405180910390f35b34801561035357600080fd5b506103ac6004803603606081101561036a57600080fd5b8101908080351515906020019092919080359060200190929190803573ffffffffffffffffffffffffffffffffffffffff16906020019092919050505061115e565b604051808260000b60000b815260200191505060405180910390f35b3480156103d457600080fd5b50610423600480360360408110156103eb57600080fd5b81019080803515159060200190929190803573ffffffffffffffffffffffffffffffffffffffff169060200190929190505050611185565b604051808260000b60000b815260200191505060405180910390f35b34801561044b57600080fd5b50610454611360565b6040518082815260200191505060405180910390f35b34801561047657600080fd5b506104b96004803603602081101561048d57600080fd5b81019080803573ffffffffffffffffffffffffffffffffffffffff169060200190929190505050611366565b6040518082815260200191505060405180910390f35b3480156104db57600080fd5b506104e46113af565b6040518082815260200191505060405180910390f35b34801561050657600080fd5b5061050f6113b5565b6040518082815260200191505060405180910390f35b34801561053157600080fd5b506105746004803603602081101561054857600080fd5b81019080803573ffffffffffffffffffffffffffffffffffffffff169060200190929190505050611496565b6040518082815260200191505060405180910390f35b34801561059657600080fd5b506105c3600480360360208110156105ad57600080fd5b81019080803590602001909291905050506115d8565b604051808260000b60000b815260200191505060405180910390f35b610618600480360360408110156105f557600080fd5b8101908080359060200190929190803560ff1690602001909291905050506116d7565b005b34801561062657600080fd5b506106dd6004803603602081101561063d57600080fd5b810190808035906020019064010000000081111561065a57600080fd5b82018360208201111561066c57600080fd5b8035906020019184602083028401116401000000008311171561068e57600080fd5b919080806020026020016040519081016040528093929190818152602001838360200280828437600081840152601f19601f82011690508083019250505050505050919291929050505061190a565b005b61077560048036036101408110156106f657600080fd5b81019080803590602001909291908035906020019092919080359060200190929190803560ff169060200190929190803560ff169060200190929190803560ff16906020019092919080359060200190929190803515159060200190929190803515159060200190929190803515159060200190929190505050611924565b005b34801561078357600080fd5b5061078c611c5e565b604051808273ffffffffffffffffffffffffffffffffffffffff1673ffffffffffffffffffffffffffffffffffffffff16815260200191505060405180910390f35b3480156107da57600080fd5b50610807600480360360208110156107f157600080fd5b8101908080359060200190929190505050611c84565b6040518087815260200186815260200185815260200184151515158152602001838152602001828152602001965050505050505060405180910390f35b34801561085057600080fd5b50610859611d39565b604051808273ffffffffffffffffffffffffffffffffffffffff1673ffffffffffffffffffffffffffffffffffffffff16815260200191505060405180910390f35b3480156108a757600080fd5b506108f6600480360360408110156108be57600080fd5b81019080803515159060200190929190803573ffffffffffffffffffffffffffffffffffffffff169060200190929190505050611d5f565b6040518082815260200191505060405180910390f35b61094f6004803603606081101561092257600080fd5b8101908080359060200190929190803560ff16906020019092919080359060200190929190505050611db8565b005b6109936004803603602081101561096757600080fd5b81019080803573ffffffffffffffffffffffffffffffffffffffff169060200190929190505050612727565b604051808581526020018473ffffffffffffffffffffffffffffffffffffffff1673ffffffffffffffffffffffffffffffffffffffff1681526020018315151515815260200182815260200194505050505060405180910390f35b3480156109fa57600080fd5b50610a2760048036036020811015610a1157600080fd5b8101908080359060200190929190505050612c1b565b604051808260000b60000b815260200191505060405180910390f35b348015610a4f57600080fd5b50610a8660048036036040811015610a6657600080fd5b810190808035906020019092919080359060200190929190505050612c78565b005b348015610a9457600080fd5b50610ac160048036036020811015610aab57600080fd5b8101908080359060200190929190505050612d6f565b604051808260000b60000b815260200191505060405180910390f35b348015610ae957600080fd5b50610af2612e1d565b005b348015610b0057600080fd5b50610b09612e48565b604051808273ffffffffffffffffffffffffffffffffffffffff1673ffffffffffffffffffffffffffffffffffffffff16815260200191505060405180910390f35b348015610b5757600080fd5b50610b8460048036036020811015610b6e57600080fd5b8101908080359060200190929190505050612e6e565b005b348015610b9257600080fd5b50610b9b613007565b604051808273ffffffffffffffffffffffffffffffffffffffff1673ffffffffffffffffffffffffffffffffffffffff16815260200191505060405180910390f35b348015610be957600080fd5b50610c1660048036036020811015610c0057600080fd5b810190808035906020019092919050505061302d565b6040518082815260200191505060405180910390f35b348015610c3857600080fd5b50610c4161304e565b6040518082815260200191505060405180910390f35b610caf60048036036060811015610c6d57600080fd5b8101908080351515906020019092919080359060200190929190803573ffffffffffffffffffffffffffffffffffffffff16906020019092919050505061306d565b6040518082815260200191505060405180910390f35b610d0760048036036020811015610cdb57600080fd5b81019080803573ffffffffffffffffffffffffffffffffffffffff1690602001909291905050506132dd565b005b6060610d13615691565b6040518060600160405280600160008a73ffffffffffffffffffffffffffffffffffffffff1673ffffffffffffffffffffffffffffffffffffffff1681526020019081526020016000205481526020018873ffffffffffffffffffffffffffffffffffffffff168152602001878152509050610d92878287878761366a565b610de7576040517f08c379a00000000000000000000000000000000000000000000000000000000081526004018080602001828103825260218152602001806159606021913960400191505060405180910390fd5b610e3960018060008a73ffffffffffffffffffffffffffffffffffffffff1673ffffffffffffffffffffffffffffffffffffffff1681526020019081526020016000205461371c90919063ffffffff16565b600160008973ffffffffffffffffffffffffffffffffffffffff1673ffffffffffffffffffffffffffffffffffffffff168152602001908152602001600020819055507f5845892132946850460bff5a0083f71031bc5bf9aadcd40f1de79423eac9b10b873388604051808473ffffffffffffffffffffffffffffffffffffffff1673ffffffffffffffffffffffffffffffffffffffff1681526020018373ffffffffffffffffffffffffffffffffffffffff1673ffffffffffffffffffffffffffffffffffffffff16815260200180602001828103825283818151815260200191508051906020019080838360005b83811015610f44578082015181840152602081019050610f29565b50505050905090810190601f168015610f715780820380516001836020036101000a031916815260200191505b5094505050505060405180910390a1600060603073ffffffffffffffffffffffffffffffffffffffff16888a6040516020018083805190602001908083835b60208310610fd35780518252602082019150602081019050602083039250610fb0565b6001836020036101000a0380198251168184511680821785525050505050509050018273ffffffffffffffffffffffffffffffffffffffff1673ffffffffffffffffffffffffffffffffffffffff1660601b8152601401925050506040516020818303038152906040526040518082805190602001908083835b60208310611070578051825260208201915060208101905060208303925061104d565b6001836020036101000a0380198251168184511680821785525050505050509050019150506000604051808303816000865af19150503d80600081146110d2576040519150601f19603f3d011682016040523d82523d6000602084013e6110d7565b606091505b50915091508161114f576040517f08c379a000000000000000000000000000000000000000000000000000000000815260040180806020018281038252601c8152602001807f46756e6374696f6e2063616c6c206e6f74207375636365737366756c0000000081525060200191505060405180910390fd5b80935050505095945050505050565b600061116a8483611d5f565b8310611179576000905061117e565b600190505b9392505050565b600080831561126f57600860009054906101000a900473ffffffffffffffffffffffffffffffffffffffff1673ffffffffffffffffffffffffffffffffffffffff166370a08231846040518263ffffffff1660e01b8152600401808273ffffffffffffffffffffffffffffffffffffffff1673ffffffffffffffffffffffffffffffffffffffff16815260200191505060206040518083038186803b15801561122d57600080fd5b505afa158015611241573d6000803e3d6000fd5b505050506040513d602081101561125757600080fd5b8101908080519060200190929190505050905061134c565b600960009054906101000a900473ffffffffffffffffffffffffffffffffffffffff1673ffffffffffffffffffffffffffffffffffffffff166370a08231846040518263ffffffff1660e01b8152600401808273ffffffffffffffffffffffffffffffffffffffff1673ffffffffffffffffffffffffffffffffffffffff16815260200191505060206040518083038186803b15801561130e57600080fd5b505afa158015611322573d6000803e3d6000fd5b505050506040513d602081101561133857600080fd5b810190808051906020019092919050505090505b61135784828561115e565b91505092915050565b60045481565b6000600160008373ffffffffffffffffffffffffffffffffffffffff1673ffffffffffffffffffffffffffffffffffffffff168152602001908152602001600020549050919050565b60055481565b6000600860009054906101000a900473ffffffffffffffffffffffffffffffffffffffff1673ffffffffffffffffffffffffffffffffffffffff166370a08231306040518263ffffffff1660e01b8152600401808273ffffffffffffffffffffffffffffffffffffffff1673ffffffffffffffffffffffffffffffffffffffff16815260200191505060206040518083038186803b15801561145657600080fd5b505afa15801561146a573d6000803e3d6000fd5b505050506040513d602081101561148057600080fd5b8101908080519060200190929190505050905090565b60006001600660008473ffffffffffffffffffffffffffffffffffffffff1673ffffffffffffffffffffffffffffffffffffffff16815260200190815260200160002060000154106115ce5760008090506000600190505b600660008573ffffffffffffffffffffffffffffffffffffffff1673ffffffffffffffffffffffffffffffffffffffff168152602001908152602001600020600001548160ff16116115c4576000600660008673ffffffffffffffffffffffffffffffffffffffff1673ffffffffffffffffffffffffffffffffffffffff16815260200190815260200160002060010160008360ff16815260200190815260200160002060020160009054906101000a900460ff1690506115b28260ff16826137a4565b830192505080806001019150506114ee565b50809150506115d3565b600090505b919050565b600080600d6000848152602001908152602001600020600201544203126116cd5760008090505b600d6000848152602001908152602001600020601001805490508160ff1610156116c35761162b613866565b73ffffffffffffffffffffffffffffffffffffffff16600d60008581526020019081526020016000206010018260ff168154811061166557fe5b9060005260206000200160009054906101000a900473ffffffffffffffffffffffffffffffffffffffff1673ffffffffffffffffffffffffffffffffffffffff1614156116b65760039150506116d2565b80806001019150506115ff565b50600090506116d2565b600190505b919050565b60006116e2836115d8565b60000b14611758576040517f08c379a00000000000000000000000000000000000000000000000000000000081526004018080602001828103825260118152602001807f54696d65206973206e6f742076616c696400000000000000000000000000000081525060200191505060405180910390fd5b6000600d6000848152602001908152602001600020600a01541480156117a5575060011515600d600084815260200190815260200160002060090160009054906101000a900460ff161515145b156117b4576117b38261391b565b5b6117bc6156c8565b60405180602001604052806117cf613866565b73ffffffffffffffffffffffffffffffffffffffff168152509050600d600084815260200190815260200160002060070160008360ff168152602001908152602001600020819080600181540180825580915050600190039060005260206000200160009091909190915060008201518160000160006101000a81548173ffffffffffffffffffffffffffffffffffffffff021916908373ffffffffffffffffffffffffffffffffffffffff160217905550505060006001600d6000868152602001908152602001600020600a0154019050600d6000858152602001908152602001600020600801548114156118e85780600d6000868152602001908152602001600020600a01819055506118e38461398c565b611904565b80600d6000868152602001908152602001600020600a01819055505b50505050565b80600790805190602001906119209291906156f1565b5050565b89600d60008c81526020019081526020016000206000018190555087600d60008c81526020019081526020016000206002018190555084600d60008c815260200190815260200160002060030160006101000a81548160ff021916908360ff16021790555088600d60008c81526020019081526020016000206001018190555083600d60008c8152602001908152602001600020600801819055506119c7613866565b600d60008c8152602001908152602001600020600b0160006101000a81548173ffffffffffffffffffffffffffffffffffffffff021916908373ffffffffffffffffffffffffffffffffffffffff16021790555081600d60008c815260200190815260200160002060110160006101000a81548160ff02191690831515021790555080600d60008c815260200190815260200160002060090160006101000a81548160ff02191690831515021790555060008760ff161415611ab8576003600d60008c815260200190815260200160002060050160006101000a81548160ff021916908360ff160217905550611ae8565b86600d60008c815260200190815260200160002060050160006101000a81548160ff021916908360ff1602179055505b60008660ff161415611b29576005600d60008c815260200190815260200160002060050160016101000a81548160ff021916908360ff160217905550611b59565b85600d60008c815260200190815260200160002060050160016101000a81548160ff021916908360ff1602179055505b7fbd233f7452553afaed4cd245a2d8d64cf39150c8cd35dcc8da09884d5bd45f9a600084611b85613866565b8d6040518080602001868152602001851515151581526020018473ffffffffffffffffffffffffffffffffffffffff1673ffffffffffffffffffffffffffffffffffffffff16815260200180602001848152602001838103835260048152602001807f73656e64000000000000000000000000000000000000000000000000000000008152506020018381038252600a8152602001807f686f6c64206d6f6e657900000000000000000000000000000000000000000000815250602001965050505050505060405180910390a150505050505050505050565b600b60009054906101000a900473ffffffffffffffffffffffffffffffffffffffff1681565b600080600080600080600d6000888152602001908152602001600020600c0154600d6000898152602001908152602001600020600e0154600d60008a815260200190815260200160002060040154600d60008b815260200190815260200160002060110160019054906101000a900460ff16600d60008c8152602001908152602001600020600f0154600d60008d8152602001908152602001600020600d015495509550955095509550955091939550919395565b600960009054906101000a900473ffffffffffffffffffffffffffffffffffffffff1681565b6000611db06001600660008573ffffffffffffffffffffffffffffffffffffffff1673ffffffffffffffffffffffffffffffffffffffff1681526020019081526020016000206000015401846137a4565b905092915050565b6000600d600085815260200190815260200160002060110160009054906101000a900460ff1690506000611deb85612c1b565b60000b14611e61576040517f08c379a00000000000000000000000000000000000000000000000000000000081526004018080602001828103825260118152602001807f54696d65206973206e6f742076616c696400000000000000000000000000000081525060200191505060405180910390fd5b611e6961573e565b6040518060400160405280611e7c613866565b73ffffffffffffffffffffffffffffffffffffffff168152602001848152509050600d600086815260200190815260200160002060060160008560ff16815260200190815260200160002081908060018154018082558091505060019003906000526020600020906002020160009091909190915060008201518160000160006101000a81548173ffffffffffffffffffffffffffffffffffffffff021916908373ffffffffffffffffffffffffffffffffffffffff160217905550602082015181600101555050600d6000868152602001908152602001600020601001611f62613866565b9080600181540180825580915050600190039060005260206000200160009091909190916101000a81548173ffffffffffffffffffffffffffffffffffffffff021916908373ffffffffffffffffffffffffffffffffffffffff16021790555082600d600087815260200190815260200160002060040160008282540192505081905550811561230c5782600860009054906101000a900473ffffffffffffffffffffffffffffffffffffffff1673ffffffffffffffffffffffffffffffffffffffff1663dd62ed3e612033613866565b306040518363ffffffff1660e01b8152600401808373ffffffffffffffffffffffffffffffffffffffff1673ffffffffffffffffffffffffffffffffffffffff1681526020018273ffffffffffffffffffffffffffffffffffffffff1673ffffffffffffffffffffffffffffffffffffffff1681526020019250505060206040518083038186803b1580156120c757600080fd5b505afa1580156120db573d6000803e3d6000fd5b505050506040513d60208110156120f157600080fd5b81019080805190602001909291905050501015612176576040517f08c379a000000000000000000000000000000000000000000000000000000000815260040180806020018281038252601b8152602001807f446f206e6f7420656e6f75676874204d6174696320657468657273000000000081525060200191505060405180910390fd5b600860009054906101000a900473ffffffffffffffffffffffffffffffffffffffff1673ffffffffffffffffffffffffffffffffffffffff166323b872dd6121bc613866565b30866040518463ffffffff1660e01b8152600401808473ffffffffffffffffffffffffffffffffffffffff1673ffffffffffffffffffffffffffffffffffffffff1681526020018373ffffffffffffffffffffffffffffffffffffffff1673ffffffffffffffffffffffffffffffffffffffff1681526020018281526020019350505050602060405180830381600087803b15801561225a57600080fd5b505af115801561226e573d6000803e3d6000fd5b505050506040513d602081101561228457600080fd5b8101908080519060200190929190505050612307576040517f08c379a000000000000000000000000000000000000000000000000000000000815260040180806020018281038252601b8152602001807f5472616e73666572204d6174696320657468657273206572726f72000000000081525060200191505060405180910390fd5b612628565b82600960009054906101000a900473ffffffffffffffffffffffffffffffffffffffff1673ffffffffffffffffffffffffffffffffffffffff1663dd62ed3e612353613866565b306040518363ffffffff1660e01b8152600401808373ffffffffffffffffffffffffffffffffffffffff1673ffffffffffffffffffffffffffffffffffffffff1681526020018273ffffffffffffffffffffffffffffffffffffffff1673ffffffffffffffffffffffffffffffffffffffff1681526020019250505060206040518083038186803b1580156123e757600080fd5b505afa1580156123fb573d6000803e3d6000fd5b505050506040513d602081101561241157600080fd5b81019080805190602001909291905050501015612496576040517f08c379a000000000000000000000000000000000000000000000000000000000815260040180806020018281038252601d8152602001807f446f206e6f7420656e6f75676874204265747465727920746f6b656e7300000081525060200191505060405180910390fd5b600960009054906101000a900473ffffffffffffffffffffffffffffffffffffffff1673ffffffffffffffffffffffffffffffffffffffff166323b872dd6124dc613866565b30866040518463ffffffff1660e01b8152600401808473ffffffffffffffffffffffffffffffffffffffff1673ffffffffffffffffffffffffffffffffffffffff1681526020018373ffffffffffffffffffffffffffffffffffffffff1673ffffffffffffffffffffffffffffffffffffffff1681526020018281526020019350505050602060405180830381600087803b15801561257a57600080fd5b505af115801561258e573d6000803e3d6000fd5b505050506040513d60208110156125a457600080fd5b8101908080519060200190929190505050612627576040517f08c379a000000000000000000000000000000000000000000000000000000000815260040180806020018281038252601d8152602001807f5472616e73666572204265747465727920746f6b656e73206572726f7200000081525060200191505060405180910390fd5b5b7fbd233f7452553afaed4cd245a2d8d64cf39150c8cd35dcc8da09884d5bd45f9a8383612653613866565b886040518080602001868152602001851515151581526020018473ffffffffffffffffffffffffffffffffffffffff1673ffffffffffffffffffffffffffffffffffffffff16815260200180602001848152602001838103835260048152602001807f73656e64000000000000000000000000000000000000000000000000000000008152506020018381038252600b8152602001807f7061727469636970616e74000000000000000000000000000000000000000000815250602001965050505050505060405180910390a15050505050565b600080600080600360009054906101000a900473ffffffffffffffffffffffffffffffffffffffff1673ffffffffffffffffffffffffffffffffffffffff163373ffffffffffffffffffffffffffffffffffffffff16146127d3576040517f08c379a00000000000000000000000000000000000000000000000000000000081526004018080602001828103825260248152602001806159a66024913960400191505060405180910390fd5b6000600660008773ffffffffffffffffffffffffffffffffffffffff1673ffffffffffffffffffffffffffffffffffffffff168152602001908152602001600020600001541161288b576040517f08c379a000000000000000000000000000000000000000000000000000000000815260040180806020018281038252601c8152602001807f446f206e6f74206861766520636f696e73206f6e206163636f756e740000000081525060200191505060405180910390fd5b6000600660008773ffffffffffffffffffffffffffffffffffffffff1673ffffffffffffffffffffffffffffffffffffffff1681526020019081526020016000206000015490506000600660008873ffffffffffffffffffffffffffffffffffffffff1673ffffffffffffffffffffffffffffffffffffffff168152602001908152602001600020600101600083815260200190815260200160002060000160009054906101000a900473ffffffffffffffffffffffffffffffffffffffff1690508673ffffffffffffffffffffffffffffffffffffffff168173ffffffffffffffffffffffffffffffffffffffff16146129ee576040517f08c379a00000000000000000000000000000000000000000000000000000000081526004018080602001828103825260138152602001807f416464726573736573206e6f7420657175616c0000000000000000000000000081525060200191505060405180910390fd5b6000600660008973ffffffffffffffffffffffffffffffffffffffff1673ffffffffffffffffffffffffffffffffffffffff1681526020019081526020016000206001016000848152602001908152602001600020600101549050600660008373ffffffffffffffffffffffffffffffffffffffff1673ffffffffffffffffffffffffffffffffffffffff16815260200190815260200160002060000160008154809291906001900391905055506000600660008a73ffffffffffffffffffffffffffffffffffffffff1673ffffffffffffffffffffffffffffffffffffffff168152602001908152602001600020600101600085815260200190815260200160002060020160009054906101000a900460ff1690506000600660008b73ffffffffffffffffffffffffffffffffffffffff1673ffffffffffffffffffffffffffffffffffffffff1681526020019081526020016000206001016000868152602001908152602001600020600301549050600660008b73ffffffffffffffffffffffffffffffffffffffff1673ffffffffffffffffffffffffffffffffffffffff1681526020019081526020016000206001016000868152602001908152602001600020600080820160006101000a81549073ffffffffffffffffffffffffffffffffffffffff021916905560018201600090556002820160006101000a81549060ff02191690556003820160009055505082848383829250985098509850985050505050509193509193565b600080600d600084815260200190815260200160002060010154420312612c6e57600042600d6000858152602001908152602001600020600201540312612c655760009050612c73565b60029050612c73565b600190505b919050565b600360009054906101000a900473ffffffffffffffffffffffffffffffffffffffff1673ffffffffffffffffffffffffffffffffffffffff163373ffffffffffffffffffffffffffffffffffffffff1614612d3b576040517f08c379a000000000000000000000000000000000000000000000000000000000815260040180806020018281038252601b8152602001807f6f6e6c79206f776e65722063616e206368616e6765207072696365000000000081525060200191505060405180910390fd5b670de0b6b3a76400008281612d4c57fe5b04600481905550670de0b6b3a76400008181612d6457fe5b046005819055505050565b6000612d79613866565b73ffffffffffffffffffffffffffffffffffffffff16600d6000848152602001908152602001600020600b0160009054906101000a900473ffffffffffffffffffffffffffffffffffffffff1673ffffffffffffffffffffffffffffffffffffffff161415612e13576000600d6000848152602001908152602001600020600401541415612e0a5760009050612e18565b60019050612e18565b600290505b919050565b60006007805490501415612e3057612e46565b612e4560076000600160078054905003613a5a565b5b565b600360009054906101000a900473ffffffffffffffffffffffffffffffffffffffff1681565b6000612e7982612d6f565b60000b14612eef576040517f08c379a00000000000000000000000000000000000000000000000000000000081526004018080602001828103825260158152602001807f44656c657465206576656e742069732066616c7365000000000000000000000081525060200191505060405180910390fd5b600d6000828152602001908152602001600020600080820160009055600182016000905560028201600090556003820160006101000a81549060ff021916905560048201600090556005820160006101000a81549060ff02191690556005820160016101000a81549060ff021916905560088201600090556009820160006101000a81549060ff0219169055600a820160009055600b820160006101000a81549073ffffffffffffffffffffffffffffffffffffffff0219169055600c820160009055600d820160009055600e820160009055600f820160009055601082016000612fda919061576e565b6011820160006101000a81549060ff02191690556011820160016101000a81549060ff0219169055505050565b600860009054906101000a900473ffffffffffffffffffffffffffffffffffffffff1681565b6007818154811061303a57fe5b906000526020600020016000915090505481565b60003073ffffffffffffffffffffffffffffffffffffffff1631905090565b60008061307a8584611d5f565b905060006001600660008673ffffffffffffffffffffffffffffffffffffffff1673ffffffffffffffffffffffffffffffffffffffff1681526020019081526020016000206000015401905083600660008673ffffffffffffffffffffffffffffffffffffffff1673ffffffffffffffffffffffffffffffffffffffff168152602001908152602001600020600101600083815260200190815260200160002060000160006101000a81548173ffffffffffffffffffffffffffffffffffffffff021916908373ffffffffffffffffffffffffffffffffffffffff16021790555081600660008673ffffffffffffffffffffffffffffffffffffffff1673ffffffffffffffffffffffffffffffffffffffff16815260200190815260200160002060010160008381526020019081526020016000206001018190555085600660008673ffffffffffffffffffffffffffffffffffffffff1673ffffffffffffffffffffffffffffffffffffffff168152602001908152602001600020600101600083815260200190815260200160002060020160006101000a81548160ff02191690831515021790555084600660008673ffffffffffffffffffffffffffffffffffffffff1673ffffffffffffffffffffffffffffffffffffffff168152602001908152602001600020600101600083815260200190815260200160002060030181905550600660008573ffffffffffffffffffffffffffffffffffffffff1673ffffffffffffffffffffffffffffffffffffffff1681526020019081526020016000206000016000815480929190600101919050555081925050509392505050565b6000806000806132ec85612727565b9350935093509350811561343857600860009054906101000a900473ffffffffffffffffffffffffffffffffffffffff1673ffffffffffffffffffffffffffffffffffffffff1663a9059cbb84866040518363ffffffff1660e01b8152600401808373ffffffffffffffffffffffffffffffffffffffff1673ffffffffffffffffffffffffffffffffffffffff16815260200182815260200192505050602060405180830381600087803b1580156133a357600080fd5b505af11580156133b7573d6000803e3d6000fd5b505050506040513d60208110156133cd57600080fd5b8101908080519060200190929190505050613433576040517f08c379a00000000000000000000000000000000000000000000000000000000081526004018080602001828103825260318152602001806158a26031913960400191505060405180910390fd5b613572565b600960009054906101000a900473ffffffffffffffffffffffffffffffffffffffff1673ffffffffffffffffffffffffffffffffffffffff1663a9059cbb84866040518363ffffffff1660e01b8152600401808373ffffffffffffffffffffffffffffffffffffffff1673ffffffffffffffffffffffffffffffffffffffff16815260200182815260200192505050602060405180830381600087803b1580156134e157600080fd5b505af11580156134f5573d6000803e3d6000fd5b505050506040513d602081101561350b57600080fd5b8101908080519060200190929190505050613571576040517f08c379a00000000000000000000000000000000000000000000000000000000081526004018080602001828103825260338152602001806158ff6033913960400191505060405180910390fd5b5b7fbd233f7452553afaed4cd245a2d8d64cf39150c8cd35dcc8da09884d5bd45f9a848385846040518080602001868152602001851515151581526020018473ffffffffffffffffffffffffffffffffffffffff1673ffffffffffffffffffffffffffffffffffffffff16815260200180602001848152602001838103835260078152602001807f72656365697665000000000000000000000000000000000000000000000000008152506020018381038252600a8152602001807f686f6c64206d6f6e657900000000000000000000000000000000000000000000815250602001965050505050505060405180910390a15050505050565b6000600161367f61367a87613ba6565b613c4c565b83868660405160008152602001604052604051808581526020018460ff1660ff1681526020018381526020018281526020019450505050506020604051602081039080840390855afa1580156136d9573d6000803e3d6000fd5b5050506020604051035173ffffffffffffffffffffffffffffffffffffffff168673ffffffffffffffffffffffffffffffffffffffff1614905095945050505050565b60008082840190508381101561379a576040517f08c379a000000000000000000000000000000000000000000000000000000000815260040180806020018281038252601b8152602001807f536166654d6174683a206164646974696f6e206f766572666c6f77000000000081525060200191505060405180910390fd5b8091505092915050565b600080600254905060018414156137f35782156137d257606460045482816137c857fe5b0402915050613860565b6002606460055483816137e157fe5b0402816137ea57fe5b04915050613860565b6002841061385e576000600190505b848160ff16101561381f5781820191508080600101915050613802565b50821561383d576064600454828161383357fe5b0402915050613860565b60026064600554838161384c57fe5b04028161385557fe5b04915050613860565b505b92915050565b60003073ffffffffffffffffffffffffffffffffffffffff163373ffffffffffffffffffffffffffffffffffffffff1614156139115760606000368080601f016020809104026020016040519081016040528093929190818152602001838380828437600081840152601f19601f820116905080830192505050505050509050600080369050905073ffffffffffffffffffffffffffffffffffffffff818301511692505050613915565b3390505b80905090565b6000613941600d600084815260200190815260200160002060100180549050600a613cb3565b90506003811161396c576003600d600084815260200190815260200160002060080181905550613988565b80600d6000848152602001908152602001600020600801819055505b5050565b6000809050600080600d600085815260200190815260200160002060030160009054906101000a900460ff16905060008090505b8160ff168160ff161015613a475783600d600087815260200190815260200160002060070160008360ff168152602001908152602001600020805490501115613a3a57600d600086815260200190815260200160002060070160008260ff1681526020019081526020016000208054905093508060ff1692505b80806001019150506139c0565b50613a5482848684613cca565b50505050565b60008290506000829050600085600286860381613a7357fe5b04860181548110613a8057fe5b906000526020600020015490505b818311613b76575b80868481548110613aa357fe5b90600052602060002001541015613ac1578280600101935050613a96565b5b858281548110613ace57fe5b9060005260206000200154811015613aee57818060019003925050613ac2565b818311613b7157858281548110613b0157fe5b9060005260206000200154868481548110613b1857fe5b9060005260206000200154878581548110613b2f57fe5b906000526020600020016000898681548110613b4757fe5b90600052602060002001600084919050558391905055505082806001019350508180600190039250505b613a8e565b81851015613b8a57613b89868684613a5a565b5b83831015613b9e57613b9d868486613a5a565b5b505050505050565b60006040518060800160405280604381526020016157e2604391398051906020012082600001518360200151846040015180519060200120604051602001808581526020018481526020018373ffffffffffffffffffffffffffffffffffffffff1673ffffffffffffffffffffffffffffffffffffffff168152602001828152602001945050505050604051602081830303815290604052805190602001209050919050565b6000613c56613f07565b8260405160200180807f190100000000000000000000000000000000000000000000000000000000000081525060020183815260200182815260200192505050604051602081830303815290604052805190602001209050919050565b6000606483830281613cc157fe5b04905092915050565b6001600d6000848152602001908152602001600020600801541115613edb57600080905060608260ff1667ffffffffffffffff81118015613d0a57600080fd5b50604051908082528060200260200182016040528015613d395781602001602082028036833780820191505090505b50905060008090505b8360ff168160ff161015613da657600d600086815260200190815260200160002060070160008260ff16815260200190815260200160002080549050828260ff1681518110613d8d57fe5b6020026020010181815250508080600101915050613d42565b50613db08161190a565b613db8612e1d565b60008090505b6001600780549050038160ff161015613e5d576007805490506001820160ff161015613e505760078160ff1681548110613df457fe5b906000526020600020015460076001830160ff1681548110613e1257fe5b90600052602060002001541415613e4f5760078160ff1681548110613e3357fe5b9060005260206000200154861415613e4e5782806001019350505b5b5b8080600101915050613dbe565b5060008260ff161115613eae57613ea9846040518060400160405280601581526020017f6475706c6963617465732076616c696461746f72730000000000000000000000815250613f10565b613ed4565b85600d6000868152602001908152602001600020600f0181905550613ed386856143e3565b5b5050613f01565b83600d6000848152602001908152602001600020600f0181905550613f0084836143e3565b5b50505050565b60008054905090565b6000600d600084815260200190815260200160002060110160009054906101000a900460ff1690506000600d600085815260200190815260200160002060030160009054906101000a900460ff1660ff16905060008090505b818160ff1612156143095760008090505b600d600087815260200190815260200160002060060160008360ff168152602001908152602001600020805490508160ff1610156142fb576000600d600088815260200190815260200160002060060160008460ff1681526020019081526020016000208260ff1681548110613fec57fe5b906000526020600020906002020160000160009054906101000a900473ffffffffffffffffffffffffffffffffffffffff1690506000600d600089815260200190815260200160002060060160008560ff1681526020019081526020016000208360ff168154811061405a57fe5b906000526020600020906002020160010154905085156141b257600860009054906101000a900473ffffffffffffffffffffffffffffffffffffffff1673ffffffffffffffffffffffffffffffffffffffff1663a9059cbb83836040518363ffffffff1660e01b8152600401808373ffffffffffffffffffffffffffffffffffffffff1673ffffffffffffffffffffffffffffffffffffffff16815260200182815260200192505050602060405180830381600087803b15801561411d57600080fd5b505af1158015614131573d6000803e3d6000fd5b505050506040513d602081101561414757600080fd5b81019080805190602001909291905050506141ad576040517f08c379a00000000000000000000000000000000000000000000000000000000081526004018080602001828103825260238152602001806159f16023913960400191505060405180910390fd5b6142ec565b600960009054906101000a900473ffffffffffffffffffffffffffffffffffffffff1673ffffffffffffffffffffffffffffffffffffffff1663a9059cbb83836040518363ffffffff1660e01b8152600401808373ffffffffffffffffffffffffffffffffffffffff1673ffffffffffffffffffffffffffffffffffffffff16815260200182815260200192505050602060405180830381600087803b15801561425b57600080fd5b505af115801561426f573d6000803e3d6000fd5b505050506040513d602081101561428557600080fd5b81019080805190602001909291905050506142eb576040517f08c379a0000000000000000000000000000000000000000000000000000000008152600401808060200182810382526025815260200180615a146025913960400191505060405180910390fd5b5b50508080600101915050613f7a565b508080600101915050613f69565b506001600d600086815260200190815260200160002060110160016101000a81548160ff0219169083151502179055507f847521552ad126e64c52b14640c804737bd67f2b6674309b332d1e5b17f857d184846040518083815260200180602001828103825283818151815260200191508051906020019080838360005b838110156143a2578082015181840152602081019050614387565b50505050905090810190601f1680156143cf5780820380516001836020036101000a031916815260200191505b50935050505060405180910390a150505050565b6000600d600083815260200190815260200160002060110160009054906101000a900460ff1690506000600d600084815260200190815260200160002060040154111561454357600080600d6000858152602001908152602001600020600601600086815260200190815260200160002080549050905060008090505b818160ff1610156144c357600d600086815260200190815260200160002060060160008781526020019081526020016000208160ff16815481106144a057fe5b906000526020600020906002020160010154830192508080600101915050614460565b50600082600d600087815260200190815260200160002060040154039050600081141561452e57614529856040518060400160405280601681526020017f63686f73656e206f6e6c79206f6e6520616e7377657200000000000000000000815250613f10565b61453b565b61453a86868387614599565b5b505050614594565b7f05c2a2fb3a3c6571f3d019fb1d2cb430baa3e2a8d3f240b4e32c5bcedc04d2fd82826000604051808481526020018315151515815260200182151515158152602001935050505060405180910390a15b505050565b60006145b783600960149054906101000a900460ff1660ff16613cb3565b9050811561471f57600860009054906101000a900473ffffffffffffffffffffffffffffffffffffffff1673ffffffffffffffffffffffffffffffffffffffff1663a9059cbb600b60009054906101000a900473ffffffffffffffffffffffffffffffffffffffff16836040518363ffffffff1660e01b8152600401808373ffffffffffffffffffffffffffffffffffffffff1673ffffffffffffffffffffffffffffffffffffffff16815260200182815260200192505050602060405180830381600087803b15801561468a57600080fd5b505af115801561469e573d6000803e3d6000fd5b505050506040513d60208110156146b457600080fd5b810190808051906020019092919050505061471a576040517f08c379a00000000000000000000000000000000000000000000000000000000081526004018080602001828103825260288152602001806158256028913960400191505060405180910390fd5b61487b565b600960009054906101000a900473ffffffffffffffffffffffffffffffffffffffff1673ffffffffffffffffffffffffffffffffffffffff1663a9059cbb600b60009054906101000a900473ffffffffffffffffffffffffffffffffffffffff16836040518363ffffffff1660e01b8152600401808373ffffffffffffffffffffffffffffffffffffffff1673ffffffffffffffffffffffffffffffffffffffff16815260200182815260200192505050602060405180830381600087803b1580156147ea57600080fd5b505af11580156147fe573d6000803e3d6000fd5b505050506040513d602081101561481457600080fd5b810190808051906020019092919050505061487a576040517f08c379a000000000000000000000000000000000000000000000000000000000815260040180806020018281038252602a815260200180615878602a913960400191505060405180910390fd5b5b80600d6000868152602001908152602001600020600c01819055506148a2858584866148a9565b5050505050565b60006148db82600d600087815260200190815260200160002060050160009054906101000a900460ff1660ff16613cb3565b90506000600d6000868152602001908152602001600020600b0160009054906101000a900473ffffffffffffffffffffffffffffffffffffffff1690508315614a5c57600860009054906101000a900473ffffffffffffffffffffffffffffffffffffffff1673ffffffffffffffffffffffffffffffffffffffff1663a9059cbb82846040518363ffffffff1660e01b8152600401808373ffffffffffffffffffffffffffffffffffffffff1673ffffffffffffffffffffffffffffffffffffffff16815260200182815260200192505050602060405180830381600087803b1580156149c757600080fd5b505af11580156149db573d6000803e3d6000fd5b505050506040513d60208110156149f157600080fd5b8101908080519060200190929190505050614a57576040517f08c379a00000000000000000000000000000000000000000000000000000000081526004018080602001828103825260258152602001806159816025913960400191505060405180910390fd5b614b96565b600960009054906101000a900473ffffffffffffffffffffffffffffffffffffffff1673ffffffffffffffffffffffffffffffffffffffff1663a9059cbb82846040518363ffffffff1660e01b8152600401808373ffffffffffffffffffffffffffffffffffffffff1673ffffffffffffffffffffffffffffffffffffffff16815260200182815260200192505050602060405180830381600087803b158015614b0557600080fd5b505af1158015614b19573d6000803e3d6000fd5b505050506040513d6020811015614b2f57600080fd5b8101908080519060200190929190505050614b95576040517f08c379a00000000000000000000000000000000000000000000000000000000081526004018080602001828103825260278152602001806159ca6027913960400191505060405180910390fd5b5b81600d6000878152602001908152602001600020600d0181905550614bbd86868686614bc5565b505050505050565b6000614bf782600d600087815260200190815260200160002060050160019054906101000a900460ff1660ff16613cb3565b90506000600d60008681526020019081526020016000206007016000878152602001908152602001600020805490508281614c2e57fe5b04905080600d6000878152602001908152602001600020600e018190555060008090505b600d60008781526020019081526020016000206007016000888152602001908152602001600020805490508160ff161015614f7a576000600d600088815260200190815260200160002060070160008981526020019081526020016000208260ff1681548110614cbe57fe5b9060005260206000200160000160009054906101000a900473ffffffffffffffffffffffffffffffffffffffff1690508515614e3257600860009054906101000a900473ffffffffffffffffffffffffffffffffffffffff1673ffffffffffffffffffffffffffffffffffffffff1663a9059cbb82856040518363ffffffff1660e01b8152600401808373ffffffffffffffffffffffffffffffffffffffff1673ffffffffffffffffffffffffffffffffffffffff16815260200182815260200192505050602060405180830381600087803b158015614d9d57600080fd5b505af1158015614db1573d6000803e3d6000fd5b505050506040513d6020811015614dc757600080fd5b8101908080519060200190929190505050614e2d576040517f08c379a000000000000000000000000000000000000000000000000000000000815260040180806020018281038252602b81526020018061584d602b913960400191505060405180910390fd5b614f6c565b600960009054906101000a900473ffffffffffffffffffffffffffffffffffffffff1673ffffffffffffffffffffffffffffffffffffffff1663a9059cbb82856040518363ffffffff1660e01b8152600401808373ffffffffffffffffffffffffffffffffffffffff1673ffffffffffffffffffffffffffffffffffffffff16815260200182815260200192505050602060405180830381600087803b158015614edb57600080fd5b505af1158015614eef573d6000803e3d6000fd5b505050506040513d6020811015614f0557600080fd5b8101908080519060200190929190505050614f6b576040517f08c379a000000000000000000000000000000000000000000000000000000000815260040180806020018281038252602d8152602001806157b5602d913960400191505060405180910390fd5b5b508080600101915050614c52565b50614f8786868686614f8f565b505050505050565b6000614f9c82605a613cb3565b9050600080600d6000878152602001908152602001600020600601600088815260200190815260200160002080549050905060008090505b818160ff16101561503757600d600088815260200190815260200160002060060160008981526020019081526020016000208160ff168154811061501457fe5b906000526020600020906002020160010154830192508080600101915050614fd4565b5060008090505b818160ff16101561539f576000600d600089815260200190815260200160002060060160008a81526020019081526020016000208260ff168154811061508057fe5b906000526020600020906002020160000160009054906101000a900473ffffffffffffffffffffffffffffffffffffffff1690506000600d60008a815260200190815260200160002060060160008b81526020019081526020016000208360ff16815481106150eb57fe5b90600052602060002090600202016001015490506000858288028161510c57fe5b0482019050881561525557600860009054906101000a900473ffffffffffffffffffffffffffffffffffffffff1673ffffffffffffffffffffffffffffffffffffffff1663a9059cbb84836040518363ffffffff1660e01b8152600401808373ffffffffffffffffffffffffffffffffffffffff1673ffffffffffffffffffffffffffffffffffffffff16815260200182815260200192505050602060405180830381600087803b1580156151c057600080fd5b505af11580156151d4573d6000803e3d6000fd5b505050506040513d60208110156151ea57600080fd5b8101908080519060200190929190505050615250576040517f08c379a000000000000000000000000000000000000000000000000000000000815260040180806020018281038252602c8152602001806158d3602c913960400191505060405180910390fd5b61538f565b600960009054906101000a900473ffffffffffffffffffffffffffffffffffffffff1673ffffffffffffffffffffffffffffffffffffffff1663a9059cbb84836040518363ffffffff1660e01b8152600401808373ffffffffffffffffffffffffffffffffffffffff1673ffffffffffffffffffffffffffffffffffffffff16815260200182815260200192505050602060405180830381600087803b1580156152fe57600080fd5b505af1158015615312573d6000803e3d6000fd5b505050506040513d602081101561532857600080fd5b810190808051906020019092919050505061538e576040517f08c379a000000000000000000000000000000000000000000000000000000000815260040180806020018281038252602e815260200180615932602e913960400191505060405180910390fd5b5b505050808060010191505061503e565b506000600d600088815260200190815260200160002060030160009054906101000a900460ff1660ff16905060008090505b818160ff16121561560757888160ff16146155fa5760008090505b600d60008a815260200190815260200160002060060160008360ff168152602001908152602001600020805490508160ff1610156155f8576000600d60008b815260200190815260200160002060060160008460ff1681526020019081526020016000208260ff168154811061545e57fe5b906000526020600020906002020160000160009054906101000a900473ffffffffffffffffffffffffffffffffffffffff169050600960009054906101000a900473ffffffffffffffffffffffffffffffffffffffff1673ffffffffffffffffffffffffffffffffffffffff1663a9059cbb82600c546040518363ffffffff1660e01b8152600401808373ffffffffffffffffffffffffffffffffffffffff1673ffffffffffffffffffffffffffffffffffffffff16815260200182815260200192505050602060405180830381600087803b15801561553d57600080fd5b505af1158015615551573d6000803e3d6000fd5b505050506040513d602081101561556757600080fd5b81019080805190602001909291905050506155ea576040517f08c379a00000000000000000000000000000000000000000000000000000000081526004018080602001828103825260198152602001807f5472616e7366657220666f72206c6f73657273206572726f720000000000000081525060200191505060405180910390fd5b5080806001019150506153ec565b505b80806001019150506153d1565b506000600d600089815260200190815260200160002060110160016101000a81548160ff0219169083151502179055507f05c2a2fb3a3c6571f3d019fb1d2cb430baa3e2a8d3f240b4e32c5bcedc04d2fd87876001604051808481526020018315151515815260200182151515158152602001935050505060405180910390a15050505050505050565b604051806060016040528060008152602001600073ffffffffffffffffffffffffffffffffffffffff168152602001606081525090565b6040518060200160405280600073ffffffffffffffffffffffffffffffffffffffff1681525090565b82805482825590600052602060002090810192821561572d579160200282015b8281111561572c578251825591602001919060010190615711565b5b50905061573a919061578f565b5090565b6040518060400160405280600073ffffffffffffffffffffffffffffffffffffffff168152602001600081525090565b508054600082559060005260206000209081019061578c919061578f565b50565b6157b191905b808211156157ad576000816000905550600101615795565b5090565b9056fe5472616e73666572204265747465727920746f6b656e20746f2076616c696461746f7273206973206572726f724d6574615472616e73616374696f6e2875696e74323536206e6f6e63652c616464726573732066726f6d2c62797465732066756e6374696f6e5369676e6174757265295472616e73666572204d6174696320457468657220746f20636f6d70616e79206973206572726f725472616e73666572204d6174696320457468657220746f2076616c696461746f7273206973206572726f725472616e73666572204265747465727920746f6b656e20746f20636f6d70616e79206973206572726f725472616e73666572204d6174696320657468657220666f72206d6f6e657920726574656e74696f6e206973206572726f725472616e73666572204d6174696320457468657220746f207061727469636970616e74206973206572726f725472616e73666572204265747465727920746f6b656e20666f72206d6f6e657920726574656e74696f6e206973206572726f725472616e73666572204265747465727920746f6b656e20746f207061727469636970616e74206973206572726f725369676e657220616e64207369676e617475726520646f206e6f74206d617463685472616e73666572204d6174696320457468657220746f20686f7374206973206572726f724f6e6c79206f776e65722063616e206578656375746520746869732066756e6374696f6e5472616e73666572204265747465727920746f6b656e20746f20686f7374206973206572726f72526576657274204d6174696320657468657220746f20686f7374206973206572726f72526576657274204265747465727920746f6b656e20746f20686f7374206973206572726f72a26469706673582212209e4e9bc5e596902ad3ac92c47b331f946158dfcd05d6dd8fe18da82ef73d050c64736f6c63430006060033454950373132446f6d61696e28737472696e67206e616d652c737472696e672076657273696f6e2c75696e7432353620636861696e49642c6164647265737320766572696679696e67436f6e747261637429",
  "immutableReferences": {},
  "source": "pragma solidity ^0.6.6;\n\nimport \"./HoldMoney.sol\";\nimport \"./Sorter.sol\";\nimport { MaticWETH } from \"./tokens/MaticWETH.sol\";\nimport { BetteryToken } from \"./tokens/BetteryToken.sol\";\n\ncontract PublicEvent is HoldMoney, Sorter {\n    MaticWETH public maticToken;\n    BetteryToken public betteryToken;\n\n    uint8 private percentQuiz = 2;\n    uint256 private sevenDaysTimeStamp = 604800;\n    address payable public companyAddress;\n    uint256 betteryAmount = 1000000000000000000;\n\n    event eventIsFinish(int256 question_id, bool payEther, bool moneyOnEvent);\n    event payEvent(string path, uint256 money, bool payEther, address wallet, string from, int256 question_id);\n    event revertedEvent(int256 question_id, string purpose);\n\n    struct Participant {\n        address payable participants;\n        uint256 amount;\n    }\n\n    struct Validator {\n        address payable validators;\n    }\n\n    struct Question {\n        int256 question_id;\n        uint256 startTime;\n        uint256 endTime;\n        uint8 questionQuantity;\n        uint256 pool;\n        uint8 percentHost;\n        uint8 percentValidator;\n        mapping(uint256 => Participant[]) participant;\n        mapping(uint256 => Validator[]) validator;\n        uint256 validatorsAmount;\n        bool expertsQuantityWay;\n        uint256 activeValidators;\n        address payable hostWallet;\n        uint256 persentFeeCompany;\n        uint256 persentFeeHost;\n        uint256 persentForEachValidators;\n        uint256 correctAnswer;\n        address[] allParticipant;\n        bool payEther;\n        bool reverted;\n    }\n\n    mapping(int256 => Question) questions;\n\n    constructor(MaticWETH _maticToken, BetteryToken _betteryToken) public {\n        maticToken = _maticToken;\n        betteryToken = _betteryToken;\n        companyAddress = msg.sender;\n    }\n\n    function startQestion(\n        int256 _question_id,\n        uint256 _startTime,\n        uint256 _endTime,\n        uint8 _percentHost,\n        uint8 _percentValidator,\n        uint8 _questionQuantity,\n        uint256 _validatorsAmount,\n        bool _pathHoldMoney,\n        bool _payEther,\n        bool _expertsQuantityWay\n    ) public payable {\n        questions[_question_id].question_id = _question_id;\n        questions[_question_id].endTime = _endTime;\n        questions[_question_id].questionQuantity = _questionQuantity;\n        questions[_question_id].startTime = _startTime;\n        questions[_question_id].validatorsAmount = _validatorsAmount;\n        questions[_question_id].hostWallet = _msgSender();\n        questions[_question_id].payEther = _payEther;\n        questions[_question_id].expertsQuantityWay = _expertsQuantityWay;\n\n        if (_percentHost == 0) {\n            questions[_question_id].percentHost = 3;\n        } else {\n            questions[_question_id].percentHost = _percentHost;\n        }\n\n        if (_percentValidator == 0) {\n            questions[_question_id].percentValidator = 5;\n        } else {\n            questions[_question_id].percentValidator = _percentValidator;\n        }\n\n        // uint256 amount = _setMoneyRetention(_pathHoldMoney, _question_id, _msgSender());\n        // if(_pathHoldMoney){\n        //     require(maticToken.allowance(_msgSender(), address(this)) >= amount, \"Do not enought Matic ethers\");\n        //     require(maticToken.transferFrom(_msgSender(), address(this), amount), \"Transfer Matic ethers error\");\n        // }else{\n        //     require(betteryToken.allowance(_msgSender(), address(this)) >= amount, \"Do not enought Bettery tokens\");\n        //     require(betteryToken.transferFrom(_msgSender(), address(this), amount), \"Transfer Bettery tokens error\");\n        // }\n       // emit payEvent(\"send\", amount, _pathHoldMoney, _msgSender(), \"hold money\", _question_id);\n        emit payEvent(\"send\", 0, _pathHoldMoney, _msgSender(), \"hold money\", _question_id);\n    }\n\n    function setAnswer(int256 _question_id, uint8 _whichAnswer, uint256 _amount) public payable {\n        bool payEther = questions[_question_id].payEther;\n        require(setTimeAnswer(_question_id) == 0, \"Time is not valid\");\n\n        Participant memory parts;\n        parts = Participant(_msgSender(), _amount);\n        questions[_question_id].participant[_whichAnswer].push(parts);\n        questions[_question_id].allParticipant.push(_msgSender());\n\n        questions[_question_id].pool += _amount;\n\n        if(payEther){\n            require(maticToken.allowance(_msgSender(), address(this)) >= _amount, \"Do not enought Matic ethers\");\n            require(maticToken.transferFrom(_msgSender(), address(this), _amount), \"Transfer Matic ethers error\");\n        }else{\n            require(betteryToken.allowance(_msgSender(), address(this)) >= _amount, \"Do not enought Bettery tokens\");\n            require(betteryToken.transferFrom(_msgSender(), address(this), _amount), \"Transfer Bettery tokens error\");\n        }\n\n        emit payEvent(\"send\", _amount, payEther, _msgSender(), \"participant\", _question_id);\n\n    }\n\n    function setValidator(int256 _question_id, uint8 _whichAnswer) public payable {\n        require(setTimeValidator(_question_id) == 0, \"Time is not valid\");\n        if(questions[_question_id].activeValidators == 0 && questions[_question_id].expertsQuantityWay == true){\n            setValidatorPercent(_question_id);\n        }\n        Validator memory valid;\n        valid = Validator(_msgSender());\n        questions[_question_id].validator[_whichAnswer].push(valid);\n        uint256 active = questions[_question_id].activeValidators + 1;\n        if (active == questions[_question_id].validatorsAmount) {\n            questions[_question_id].activeValidators = active;\n            letsFindCorrectAnswer(_question_id);\n        } else {\n            questions[_question_id].activeValidators = active;\n        }\n    }\n\n    function setValidatorPercent(int256 _question_id) private{\n        uint256 validatorPercent = getPersent(\n            questions[_question_id].allParticipant.length,\n            10\n        );\n        if(validatorPercent <= 3){\n           questions[_question_id].validatorsAmount = 3;\n        }else{\n            questions[_question_id].validatorsAmount = validatorPercent;\n        }\n    }\n\n    function letsFindCorrectAnswer(int256 _question_id) private {\n        uint256 biggestValue = 0;\n        uint256 correctAnswer;\n        uint8 questionQuantity = questions[_question_id].questionQuantity;\n\n        // find correct answer\n        for (uint8 i = 0; i < questionQuantity; i++) {\n            if (questions[_question_id].validator[i].length > biggestValue) {\n                biggestValue = questions[_question_id].validator[i].length;\n                correctAnswer = i;\n            }\n        }\n\n        findDuplicates(correctAnswer, biggestValue, _question_id, questionQuantity);\n    }\n\n    function findDuplicates(uint256 correctAnswer, uint256 biggestValue, int256 _question_id, uint8 questionQuantity) private {\n        if(questions[_question_id].validatorsAmount > 1){\n            uint8 duplicatesAnswers = 0;\n            uint256[] memory allValidatorsAnswers = new uint[](questionQuantity);\n            for (uint8 i = 0; i < questionQuantity; i++) {\n                allValidatorsAnswers[i] = questions[_question_id].validator[i].length;\n            }\n\n            setSort(allValidatorsAnswers);\n            sort();\n\n            for (uint8 i = 0; i < sortedArray.length - 1; i++) {\n                if((i+1) < sortedArray.length){\n                    if (sortedArray[i + 1] == sortedArray[i]) {\n                        if(biggestValue == sortedArray[i]){\n                            duplicatesAnswers ++;\n                        }\n                    }\n                }\n            }\n\n            if(duplicatesAnswers > 0){\n                // TO DO\n                revertedPayment(_question_id, \"duplicates validators\");\n            }else{\n                questions[_question_id].correctAnswer = correctAnswer;\n                findLosersPool(correctAnswer, _question_id);\n            }\n        }else{\n            questions[_question_id].correctAnswer = correctAnswer;\n            findLosersPool(correctAnswer, _question_id);\n        }\n        \n    }\n\n    function findLosersPool(uint256 correctAnswer, int256 _question_id) private {\n        bool payEther = questions[_question_id].payEther;\n        if (questions[_question_id].pool > 0) {\n            uint256 B;\n            uint256 n = questions[_question_id].participant[correctAnswer].length;\n            for (uint8 i = 0; i < n; i++) {\n                B = B + questions[_question_id].participant[correctAnswer][i].amount;\n            }\n            uint256 loserPool = questions[_question_id].pool - B;\n            if(loserPool == 0){\n                revertedPayment(_question_id, \"chosen only one answer\");\n            }else{\n                letsPayCompanyFee(correctAnswer, _question_id, loserPool, payEther);\n            }\n        }else{\n            emit eventIsFinish(_question_id, payEther, false);\n        }\n    }\n\n    function letsPayCompanyFee(uint256 correctAnswer, int256 _question_id, uint256 loserPool, bool payEther) private {\n        // pay fee for company\n        uint256 persentFee = getPersent(\n            loserPool,\n            percentQuiz\n        );\n        if(payEther){\n            require(maticToken.transfer(companyAddress, persentFee), \"Transfer Matic Ether to company is error\");\n        }else{\n            require(betteryToken.transfer(companyAddress, persentFee), \"Transfer Bettery token to company is error\");\n        }\n        questions[_question_id].persentFeeCompany = persentFee;\n\n        letsPayHostFee(correctAnswer, _question_id, payEther, loserPool);\n    }\n\n    function letsPayHostFee(uint256 correctAnswer, int256 _question_id, bool payEther, uint256 loserPool) private {\n        // pay fee for host\n        uint256 persHostFee = getPersent(\n            loserPool,\n            questions[_question_id].percentHost\n        );\n        address payable hostWallet = questions[_question_id].hostWallet;\n        if(payEther){require(maticToken.transfer(hostWallet, persHostFee), \"Transfer Matic Ether to host is error\");}\n        else {require(betteryToken.transfer(hostWallet, persHostFee), \"Transfer Bettery token to host is error\");}\n        questions[_question_id].persentFeeHost = persHostFee;\n\n        letsPayValidatorFee(correctAnswer, _question_id, payEther, loserPool);\n    }\n\n    function letsPayValidatorFee(uint256 correctAnswer, int256 _question_id, bool payEther, uint256 loserPool) private {\n        // calculate percent for validator\n        uint256 persentForValidators = getPersent(\n            loserPool,\n            questions[_question_id].percentValidator\n        );\n        uint256 persentForEachValidators = persentForValidators / questions[_question_id].validator[correctAnswer].length;\n\n        questions[_question_id].persentForEachValidators = persentForEachValidators;\n\n        // pay for validatos\n        for (uint8 i = 0; i < questions[_question_id].validator[correctAnswer].length; i++ ) {\n            address payable _validator = questions[_question_id].validator[correctAnswer][i].validators;\n\n            if(payEther){require(maticToken.transfer(_validator, persentForEachValidators), \"Transfer Matic Ether to validators is error\");}\n            else {require(betteryToken.transfer(_validator, persentForEachValidators), \"Transfer Bettery token to validators is error\");}\n        }\n\n        letsPayParticipantFee(correctAnswer, _question_id, payEther, loserPool);\n    }\n\n    function letsPayParticipantFee(uint256 correctAnswer, int256 _question_id, bool payEther, uint256 loserPool) private{\n        uint256 playersFee = getPersent(\n            loserPool,\n            90\n        );\n         // Pay for participant\n        uint256 B;\n        uint256 n = questions[_question_id].participant[correctAnswer].length;\n        for (uint8 i = 0; i < n; i++) {\n           B = B + questions[_question_id].participant[correctAnswer][i].amount;\n        }\n\n        for (uint8 i = 0; i < n; i++) {\n           address payable participant = questions[_question_id].participant[correctAnswer][i].participants;\n           uint256 Bn = questions[_question_id].participant[correctAnswer][i].amount;\n           uint256 rBn = Bn + ((playersFee * Bn) / B);\n           if(payEther){require(maticToken.transfer(participant, rBn), \"Transfer Matic Ether to participant is error\");}\n           else {require(betteryToken.transfer(participant, rBn), \"Transfer Bettery token to participant is error\");}\n        }\n\n        // Pay for losers\n        int256 questionQuantity = questions[_question_id].questionQuantity;\n        for(uint8 i = 0; i < questionQuantity; i++){\n            if(i != correctAnswer){\n                for(uint8 z = 0; z < questions[_question_id].participant[i].length; z++){\n                    address payable loserAddress = questions[_question_id].participant[i][z].participants;\n                    require(betteryToken.transfer(loserAddress, betteryAmount), \"Transfer for losers error\");\n                }\n            }\n        }\n        questions[_question_id].reverted = false;\n        emit eventIsFinish(_question_id, payEther, true);\n    }\n\n    function revertedPayment(int256 _question_id, string memory purpose) private{\n        bool payEther = questions[_question_id].payEther;\n        int256 questionQuantity = questions[_question_id].questionQuantity;\n\n        for (uint8 i = 0; i < questionQuantity; i++) {\n          for(uint8 index = 0; index < questions[_question_id].participant[i].length; index++){\n                address payable _participant = questions[_question_id].participant[i][index].participants;\n                uint256 price = questions[_question_id].participant[i][index].amount;\n                if(payEther){require(maticToken.transfer(_participant, price), \"Revert Matic ether to host is error\");}\n                else {require(betteryToken.transfer(_participant, price), \"Revert Bettery token to host is error\");}\n            }\n        }\n        questions[_question_id].reverted = true;\n        emit revertedEvent(_question_id, purpose);\n    }\n\n    function getPersent(uint256 _percent, uint256 _from)\n        private\n        pure\n        returns (uint256)\n    {\n        return (_from * _percent) / 100;\n    }\n\n    function getQuestion(int256 _question_id)\n        public\n        view\n        returns (\n            uint256 persentFeeCompany,\n            uint256 persentForEachValidators,\n            uint256 money,\n            bool reverted,\n            uint256 correctAnswer,\n            uint256 persentFeeHost\n        )\n    {\n        return (\n            questions[_question_id].persentFeeCompany,\n            questions[_question_id].persentForEachValidators,\n            questions[_question_id].pool,\n            questions[_question_id].reverted,\n            questions[_question_id].correctAnswer,\n            questions[_question_id].persentFeeHost\n        );\n    }\n\n    function deleteEvent(int256 _question_id) public {\n        require(\n            deleteEventValidator(_question_id) == 0,\n            \"Delete event is false\"\n        );\n        delete questions[_question_id];\n    }\n\n    function quizeBalance() public view returns (uint256) {\n        return address(this).balance;\n    }\n\n    function getContractTokenBalance() public view returns (uint256) {\n        return maticToken.balanceOf(address(this));\n    }\n\n    function getMoneyRetention(address payable _host) public payable {\n        (uint256 amount, address host, bool path, int256 _question_id) = _getMoneyRetention(_host);\n        if(path){require(maticToken.transfer(host, amount), \"Transfer Matic ether for money retention is error\");}\n        else {require(betteryToken.transfer(host, amount), \"Transfer Bettery token for money retention is error\");}\n\n\n        emit payEvent(\"receive\", amount, path, host, \"hold money\", _question_id);\n    }\n\n function amountGuard(bool _path, address payable wallet) public view returns (int8) {\n     uint256 balanceToken;\n     if(_path){balanceToken = maticToken.balanceOf(wallet);}\n     else {balanceToken = betteryToken.balanceOf(wallet);}\n\n     return _amountGuard(_path, balanceToken, wallet);\n }\n\n // VALIDATION\n\n     function setTimeValidator(int256 _question_id) public view returns (int8) {\n        if (int256(now - questions[_question_id].endTime) >= 0){\n            for (uint8 i = 0; i < questions[_question_id].allParticipant.length; i++) {\n                if (questions[_question_id].allParticipant[i] == _msgSender()) {\n                    return 3; // user can't validate because he participates in the event\n                }\n            }\n            // user can validate because time is valid.\n            return 0;\n        } else {\n            // user can't validate because event is not started yet.\n            return 1;\n        }\n    }\n\n    function setTimeAnswer(int256 _question_id) public view returns (int8) {\n        if (int256(now - questions[_question_id].startTime) >= 0) {\n            if (int256(questions[_question_id].endTime - now) >= 0) {\n                // user can make answer because time is valid.\n                return 0;\n            } else {\n                // user can't make answer because event is finish.\n                return 2;\n            }\n        } else {\n            // user can't make answer because event is not started yet.\n            return 1;\n        }\n    }\n\n    function deleteEventValidator(int256 _question_id)\n        public\n        view\n        returns (int8)\n    {\n        if (questions[_question_id].hostWallet == _msgSender()) {\n            if (questions[_question_id].pool == 0) {\n                // user can delete event\n                return 0;\n            } else {\n                // user can't delete event because event has money on balance\n                return 1;\n            }\n        } else {\n            // only owner can delete event.\n            return 2;\n        }\n    }\n}\n",
  "sourcePath": "/Users/macbook/Documents/freelance/node/QUIZE/contracts/contracts/matic_network/PublicEvent.sol",
  "compiler": {
    "name": "solc",
    "version": "0.6.6+commit.6c089d02.Linux.g++"
  },
  "schemaVersion": "3.2.2",
  "updatedAt": "2020-09-22T10:32:10.003Z",
  "networkType": "ethereum",
  "devdoc": {
    "methods": {}
  },
  "userdoc": {
    "methods": {}
  }
}