{
  "contractName": "PublicEvent",
  "abi": [
    {
      "inputs": [
        {
          "internalType": "contract IERC20",
          "name": "_maticToken",
          "type": "address"
        },
        {
          "internalType": "contract BetteryToken",
          "name": "_betteryToken",
          "type": "address"
        }
      ],
      "stateMutability": "nonpayable",
      "type": "constructor"
    },
    {
      "anonymous": false,
      "inputs": [
        {
          "indexed": false,
          "internalType": "address",
          "name": "userAddress",
          "type": "address"
        },
        {
          "indexed": false,
          "internalType": "address payable",
          "name": "relayerAddress",
          "type": "address"
        },
        {
          "indexed": false,
          "internalType": "bytes",
          "name": "functionSignature",
          "type": "bytes"
        }
      ],
      "name": "MetaTransactionExecuted",
      "type": "event"
    },
    {
      "anonymous": false,
      "inputs": [
        {
          "indexed": false,
          "internalType": "int256",
          "name": "question_id",
          "type": "int256"
        },
        {
          "indexed": false,
          "internalType": "bool",
          "name": "payEther",
          "type": "bool"
        },
        {
          "indexed": false,
          "internalType": "bool",
          "name": "moneyOnEvent",
          "type": "bool"
        }
      ],
      "name": "eventIsFinish",
      "type": "event"
    },
    {
      "anonymous": false,
      "inputs": [
        {
          "indexed": false,
          "internalType": "string",
          "name": "path",
          "type": "string"
        },
        {
          "indexed": false,
          "internalType": "uint256",
          "name": "money",
          "type": "uint256"
        },
        {
          "indexed": false,
          "internalType": "bool",
          "name": "payEther",
          "type": "bool"
        },
        {
          "indexed": false,
          "internalType": "address",
          "name": "wallet",
          "type": "address"
        },
        {
          "indexed": false,
          "internalType": "string",
          "name": "from",
          "type": "string"
        },
        {
          "indexed": false,
          "internalType": "int256",
          "name": "question_id",
          "type": "int256"
        }
      ],
      "name": "payEvent",
      "type": "event"
    },
    {
      "anonymous": false,
      "inputs": [
        {
          "indexed": false,
          "internalType": "int256",
          "name": "question_id",
          "type": "int256"
        },
        {
          "indexed": false,
          "internalType": "string",
          "name": "purpose",
          "type": "string"
        }
      ],
      "name": "revertedEvent",
      "type": "event"
    },
    {
      "inputs": [
        {
          "internalType": "bool",
          "name": "_tokenType",
          "type": "bool"
        },
        {
          "internalType": "uint256",
          "name": "balanceToken",
          "type": "uint256"
        },
        {
          "internalType": "address payable",
          "name": "wallet",
          "type": "address"
        }
      ],
      "name": "_amountGuard",
      "outputs": [
        {
          "internalType": "int8",
          "name": "",
          "type": "int8"
        }
      ],
      "stateMutability": "view",
      "type": "function",
      "constant": true
    },
    {
      "inputs": [
        {
          "internalType": "address payable",
          "name": "_host",
          "type": "address"
        }
      ],
      "name": "_getMoneyRetention",
      "outputs": [
        {
          "internalType": "uint256",
          "name": "",
          "type": "uint256"
        },
        {
          "internalType": "address",
          "name": "",
          "type": "address"
        },
        {
          "internalType": "bool",
          "name": "",
          "type": "bool"
        },
        {
          "internalType": "int256",
          "name": "",
          "type": "int256"
        }
      ],
      "stateMutability": "payable",
      "type": "function",
      "payable": true
    },
    {
      "inputs": [
        {
          "internalType": "bool",
          "name": "_tokenType",
          "type": "bool"
        },
        {
          "internalType": "int256",
          "name": "question_id",
          "type": "int256"
        },
        {
          "internalType": "address payable",
          "name": "wallet",
          "type": "address"
        }
      ],
      "name": "_setMoneyRetention",
      "outputs": [
        {
          "internalType": "uint256",
          "name": "",
          "type": "uint256"
        }
      ],
      "stateMutability": "payable",
      "type": "function",
      "payable": true
    },
    {
      "inputs": [],
      "name": "betteryToken",
      "outputs": [
        {
          "internalType": "contract BetteryToken",
          "name": "",
          "type": "address"
        }
      ],
      "stateMutability": "view",
      "type": "function",
      "constant": true
    },
    {
      "inputs": [],
      "name": "companyAddress",
      "outputs": [
        {
          "internalType": "address payable",
          "name": "",
          "type": "address"
        }
      ],
      "stateMutability": "view",
      "type": "function",
      "constant": true
    },
    {
      "inputs": [
        {
          "internalType": "address",
          "name": "userAddress",
          "type": "address"
        },
        {
          "internalType": "bytes",
          "name": "functionSignature",
          "type": "bytes"
        },
        {
          "internalType": "bytes32",
          "name": "sigR",
          "type": "bytes32"
        },
        {
          "internalType": "bytes32",
          "name": "sigS",
          "type": "bytes32"
        },
        {
          "internalType": "uint8",
          "name": "sigV",
          "type": "uint8"
        }
      ],
      "name": "executeMetaTransaction",
      "outputs": [
        {
          "internalType": "bytes",
          "name": "",
          "type": "bytes"
        }
      ],
      "stateMutability": "payable",
      "type": "function",
      "payable": true
    },
    {
      "inputs": [
        {
          "internalType": "address",
          "name": "user",
          "type": "address"
        }
      ],
      "name": "getNonce",
      "outputs": [
        {
          "internalType": "uint256",
          "name": "nonce",
          "type": "uint256"
        }
      ],
      "stateMutability": "view",
      "type": "function",
      "constant": true
    },
    {
      "inputs": [],
      "name": "maticToken",
      "outputs": [
        {
          "internalType": "contract IERC20",
          "name": "",
          "type": "address"
        }
      ],
      "stateMutability": "view",
      "type": "function",
      "constant": true
    },
    {
      "inputs": [
        {
          "internalType": "bool",
          "name": "_tokenType",
          "type": "bool"
        },
        {
          "internalType": "address payable",
          "name": "wallet",
          "type": "address"
        }
      ],
      "name": "moneyRetentionCalculate",
      "outputs": [
        {
          "internalType": "uint256",
          "name": "",
          "type": "uint256"
        }
      ],
      "stateMutability": "view",
      "type": "function",
      "constant": true
    },
    {
      "inputs": [
        {
          "internalType": "address",
          "name": "wallet",
          "type": "address"
        }
      ],
      "name": "onHold",
      "outputs": [
        {
          "internalType": "uint256",
          "name": "",
          "type": "uint256"
        }
      ],
      "stateMutability": "view",
      "type": "function",
      "constant": true
    },
    {
      "inputs": [],
      "name": "owner",
      "outputs": [
        {
          "internalType": "address",
          "name": "",
          "type": "address"
        }
      ],
      "stateMutability": "view",
      "type": "function",
      "constant": true
    },
    {
      "inputs": [],
      "name": "priceEth",
      "outputs": [
        {
          "internalType": "uint256",
          "name": "",
          "type": "uint256"
        }
      ],
      "stateMutability": "view",
      "type": "function",
      "constant": true
    },
    {
      "inputs": [],
      "name": "priceToken",
      "outputs": [
        {
          "internalType": "uint256",
          "name": "",
          "type": "uint256"
        }
      ],
      "stateMutability": "view",
      "type": "function",
      "constant": true
    },
    {
      "inputs": [
        {
          "internalType": "uint256",
          "name": "_priceEth",
          "type": "uint256"
        },
        {
          "internalType": "uint256",
          "name": "_priceToken",
          "type": "uint256"
        }
      ],
      "name": "setEthPrice",
      "outputs": [],
      "stateMutability": "nonpayable",
      "type": "function"
    },
    {
      "inputs": [
        {
          "internalType": "uint256[]",
          "name": "_data",
          "type": "uint256[]"
        }
      ],
      "name": "setSort",
      "outputs": [],
      "stateMutability": "nonpayable",
      "type": "function"
    },
    {
      "inputs": [],
      "name": "sort",
      "outputs": [],
      "stateMutability": "nonpayable",
      "type": "function"
    },
    {
      "inputs": [
        {
          "internalType": "uint256",
          "name": "",
          "type": "uint256"
        }
      ],
      "name": "sortedArray",
      "outputs": [
        {
          "internalType": "uint256",
          "name": "",
          "type": "uint256"
        }
      ],
      "stateMutability": "view",
      "type": "function",
      "constant": true
    },
    {
      "stateMutability": "payable",
      "type": "receive",
      "payable": true
    },
    {
      "inputs": [
        {
          "internalType": "int256",
          "name": "_question_id",
          "type": "int256"
        },
        {
          "internalType": "uint256",
          "name": "_startTime",
          "type": "uint256"
        },
        {
          "internalType": "uint256",
          "name": "_endTime",
          "type": "uint256"
        },
        {
          "internalType": "uint8",
          "name": "_percentHost",
          "type": "uint8"
        },
        {
          "internalType": "uint8",
          "name": "_percentValidator",
          "type": "uint8"
        },
        {
          "internalType": "uint8",
          "name": "_questionQuantity",
          "type": "uint8"
        },
        {
          "internalType": "uint256",
          "name": "_validatorsAmount",
          "type": "uint256"
        },
        {
          "internalType": "bool",
          "name": "_pathHoldMoney",
          "type": "bool"
        },
        {
          "internalType": "bool",
          "name": "_payEther",
          "type": "bool"
        },
        {
          "internalType": "bool",
          "name": "_expertsQuantityWay",
          "type": "bool"
        }
      ],
      "name": "startQestion",
      "outputs": [],
      "stateMutability": "payable",
      "type": "function",
      "payable": true
    },
    {
      "inputs": [
        {
          "internalType": "int256",
          "name": "_question_id",
          "type": "int256"
        },
        {
          "internalType": "uint8",
          "name": "_whichAnswer",
          "type": "uint8"
        },
        {
          "internalType": "uint256",
          "name": "_amount",
          "type": "uint256"
        }
      ],
      "name": "setAnswer",
      "outputs": [],
      "stateMutability": "payable",
      "type": "function",
      "payable": true
    },
    {
      "inputs": [
        {
          "internalType": "int256",
          "name": "_question_id",
          "type": "int256"
        },
        {
          "internalType": "uint8",
          "name": "_whichAnswer",
          "type": "uint8"
        }
      ],
      "name": "setValidator",
      "outputs": [],
      "stateMutability": "payable",
      "type": "function",
      "payable": true
    },
    {
      "inputs": [
        {
          "internalType": "int256",
          "name": "_question_id",
          "type": "int256"
        },
        {
          "internalType": "string",
          "name": "purpose",
          "type": "string"
        }
      ],
      "name": "revertedPayment",
      "outputs": [],
      "stateMutability": "nonpayable",
      "type": "function"
    },
    {
      "inputs": [
        {
          "internalType": "int256",
          "name": "_question_id",
          "type": "int256"
        }
      ],
      "name": "getQuestion",
      "outputs": [
        {
          "internalType": "uint256",
          "name": "persentFeeCompany",
          "type": "uint256"
        },
        {
          "internalType": "uint256",
          "name": "persentForEachValidators",
          "type": "uint256"
        },
        {
          "internalType": "uint256",
          "name": "money",
          "type": "uint256"
        },
        {
          "internalType": "bool",
          "name": "reverted",
          "type": "bool"
        },
        {
          "internalType": "uint256",
          "name": "correctAnswer",
          "type": "uint256"
        },
        {
          "internalType": "uint256",
          "name": "persentFeeHost",
          "type": "uint256"
        }
      ],
      "stateMutability": "view",
      "type": "function",
      "constant": true
    },
    {
      "inputs": [
        {
          "internalType": "int256",
          "name": "_question_id",
          "type": "int256"
        }
      ],
      "name": "deleteEvent",
      "outputs": [],
      "stateMutability": "nonpayable",
      "type": "function"
    },
    {
      "inputs": [],
      "name": "quizeBalance",
      "outputs": [
        {
          "internalType": "uint256",
          "name": "",
          "type": "uint256"
        }
      ],
      "stateMutability": "view",
      "type": "function",
      "constant": true
    },
    {
      "inputs": [],
      "name": "getContractTokenBalance",
      "outputs": [
        {
          "internalType": "uint256",
          "name": "",
          "type": "uint256"
        }
      ],
      "stateMutability": "view",
      "type": "function",
      "constant": true
    },
    {
      "inputs": [
        {
          "internalType": "address payable",
          "name": "_host",
          "type": "address"
        }
      ],
      "name": "getMoneyRetention",
      "outputs": [],
      "stateMutability": "payable",
      "type": "function",
      "payable": true
    },
    {
      "inputs": [
        {
          "internalType": "bool",
          "name": "_path",
          "type": "bool"
        },
        {
          "internalType": "address payable",
          "name": "wallet",
          "type": "address"
        }
      ],
      "name": "amountGuard",
      "outputs": [
        {
          "internalType": "int8",
          "name": "",
          "type": "int8"
        }
      ],
      "stateMutability": "view",
      "type": "function",
      "constant": true
    },
    {
      "inputs": [
        {
          "internalType": "int256",
          "name": "_question_id",
          "type": "int256"
        }
      ],
      "name": "setTimeValidator",
      "outputs": [
        {
          "internalType": "int8",
          "name": "",
          "type": "int8"
        }
      ],
      "stateMutability": "view",
      "type": "function",
      "constant": true
    },
    {
      "inputs": [
        {
          "internalType": "int256",
          "name": "_question_id",
          "type": "int256"
        }
      ],
      "name": "setTimeAnswer",
      "outputs": [
        {
          "internalType": "int8",
          "name": "",
          "type": "int8"
        }
      ],
      "stateMutability": "view",
      "type": "function",
      "constant": true
    },
    {
      "inputs": [
        {
          "internalType": "int256",
          "name": "_question_id",
          "type": "int256"
        }
      ],
      "name": "deleteEventValidator",
      "outputs": [
        {
          "internalType": "int8",
          "name": "",
          "type": "int8"
        }
      ],
      "stateMutability": "view",
      "type": "function",
      "constant": true
    }
  ],
  "bytecode": "0x6080604052678ac7230489e800006002556002600960146101000a81548160ff021916908360ff16021790555062093a80600a55670de0b6b3a7640000600c553480156200004c57600080fd5b5060405162005f0438038062005f04833981810160405260408110156200007257600080fd5b8101908080519060200190929190805190602001909291905050506040518060400160405280600781526020017f42657474657279000000000000000000000000000000000000000000000000008152506040518060400160405280600181526020017f3100000000000000000000000000000000000000000000000000000000000000815250600582828260405180608001604052806052815260200162005eb26052913980519060200120838051906020012083805190602001208330604051602001808681526020018581526020018481526020018381526020018273ffffffffffffffffffffffffffffffffffffffff1673ffffffffffffffffffffffffffffffffffffffff168152602001955050505050506040516020818303038152906040528051906020012060008190555050505050505033600360006101000a81548173ffffffffffffffffffffffffffffffffffffffff021916908373ffffffffffffffffffffffffffffffffffffffff16021790555081600860006101000a81548173ffffffffffffffffffffffffffffffffffffffff021916908373ffffffffffffffffffffffffffffffffffffffff16021790555080600960006101000a81548173ffffffffffffffffffffffffffffffffffffffff021916908373ffffffffffffffffffffffffffffffffffffffff16021790555033600b60006101000a81548173ffffffffffffffffffffffffffffffffffffffff021916908373ffffffffffffffffffffffffffffffffffffffff1602179055505050615bf180620002c16000396000f3fe6080604052600436106101d15760003560e01c806375977235116100f75780638cdc86a611610095578063e2d914f211610064578063e2d914f214610cba578063e4f8749614610d09578063f4cd570214610d34578063f848217114610da2576101d8565b80638cdc86a614610bba5780638da5cb5b14610bd1578063c9e53b4b14610c28578063dc35429614610c63576101d8565b80638229f5e9116100d15780638229f5e914610a2e578063834f804714610acb57806383855f1f14610b2057806387b6608d14610b65576101d8565b806375977235146108a6578063769c4898146109175780637bd660e2146109e9576101d8565b806333ec47811161016f578063439968c01161013e578063439968c0146106ea57806353e1ead91461078257806357146e06146107d95780636738a9671461084f576101d8565b806333ec4781146105305780633493c8621461059557806334be86c8146105ea5780633b97b5d614610625576101d8565b80632ca38363116101ab5780632ca383631461044a5780632d0335ab146104755780632ff6fe76146104da578063317d945314610505576101d8565b80630c53c51c146101dd5780632335e52914610352578063234e19fd146103d3576101d8565b366101d857005b600080fd5b6102d7600480360360a08110156101f357600080fd5b81019080803573ffffffffffffffffffffffffffffffffffffffff1690602001909291908035906020019064010000000081111561023057600080fd5b82018360208201111561024257600080fd5b8035906020019184600183028401116401000000008311171561026457600080fd5b91908080601f016020809104026020016040519081016040528093929190818152602001838380828437600081840152601f19601f8201169050808301925050505050505091929192908035906020019092919080359060200190929190803560ff169060200190929190505050610de6565b6040518080602001828103825283818151815260200191508051906020019080838360005b838110156103175780820151818401526020810190506102fc565b50505050905090810190601f1680156103445780820380516001836020036101000a031916815260200191505b509250505060405180910390f35b34801561035e57600080fd5b506103b76004803603606081101561037557600080fd5b8101908080351515906020019092919080359060200190929190803573ffffffffffffffffffffffffffffffffffffffff16906020019092919050505061123b565b604051808260000b60000b815260200191505060405180910390f35b3480156103df57600080fd5b5061042e600480360360408110156103f657600080fd5b81019080803515159060200190929190803573ffffffffffffffffffffffffffffffffffffffff169060200190929190505050611262565b604051808260000b60000b815260200191505060405180910390f35b34801561045657600080fd5b5061045f61143d565b6040518082815260200191505060405180910390f35b34801561048157600080fd5b506104c46004803603602081101561049857600080fd5b81019080803573ffffffffffffffffffffffffffffffffffffffff169060200190929190505050611443565b6040518082815260200191505060405180910390f35b3480156104e657600080fd5b506104ef61148c565b6040518082815260200191505060405180910390f35b34801561051157600080fd5b5061051a611492565b6040518082815260200191505060405180910390f35b34801561053c57600080fd5b5061057f6004803603602081101561055357600080fd5b81019080803573ffffffffffffffffffffffffffffffffffffffff169060200190929190505050611573565b6040518082815260200191505060405180910390f35b3480156105a157600080fd5b506105ce600480360360208110156105b857600080fd5b81019080803590602001909291905050506116b5565b604051808260000b60000b815260200191505060405180910390f35b6106236004803603604081101561060057600080fd5b8101908080359060200190929190803560ff1690602001909291905050506117b4565b005b34801561063157600080fd5b506106e86004803603602081101561064857600080fd5b810190808035906020019064010000000081111561066557600080fd5b82018360208201111561067757600080fd5b8035906020019184602083028401116401000000008311171561069957600080fd5b919080806020026020016040519081016040528093929190818152602001838360200280828437600081840152601f19601f8201169050808301925050505050505091929192905050506119e7565b005b610780600480360361014081101561070157600080fd5b81019080803590602001909291908035906020019092919080359060200190929190803560ff169060200190929190803560ff169060200190929190803560ff16906020019092919080359060200190929190803515159060200190929190803515159060200190929190803515159060200190929190505050611a01565b005b34801561078e57600080fd5b50610797611d3b565b604051808273ffffffffffffffffffffffffffffffffffffffff1673ffffffffffffffffffffffffffffffffffffffff16815260200191505060405180910390f35b3480156107e557600080fd5b50610812600480360360208110156107fc57600080fd5b8101908080359060200190929190505050611d61565b6040518087815260200186815260200185815260200184151515158152602001838152602001828152602001965050505050505060405180910390f35b34801561085b57600080fd5b50610864611e16565b604051808273ffffffffffffffffffffffffffffffffffffffff1673ffffffffffffffffffffffffffffffffffffffff16815260200191505060405180910390f35b3480156108b257600080fd5b50610901600480360360408110156108c957600080fd5b81019080803515159060200190929190803573ffffffffffffffffffffffffffffffffffffffff169060200190929190505050611e3c565b6040518082815260200191505060405180910390f35b34801561092357600080fd5b506109e76004803603604081101561093a57600080fd5b81019080803590602001909291908035906020019064010000000081111561096157600080fd5b82018360208201111561097357600080fd5b8035906020019184600183028401116401000000008311171561099557600080fd5b91908080601f016020809104026020016040519081016040528093929190818152602001838380828437600081840152601f19601f820116905080830192505050505050509192919290505050611e95565b005b610a2c600480360360608110156109ff57600080fd5b8101908080359060200190929190803560ff1690602001909291908035906020019092919050505061240e565b005b610a7060048036036020811015610a4457600080fd5b81019080803573ffffffffffffffffffffffffffffffffffffffff169060200190929190505050612d7d565b604051808581526020018473ffffffffffffffffffffffffffffffffffffffff1673ffffffffffffffffffffffffffffffffffffffff1681526020018315151515815260200182815260200194505050505060405180910390f35b348015610ad757600080fd5b50610b0460048036036020811015610aee57600080fd5b8101908080359060200190929190505050613271565b604051808260000b60000b815260200191505060405180910390f35b348015610b2c57600080fd5b50610b6360048036036040811015610b4357600080fd5b8101908080359060200190929190803590602001909291905050506132ce565b005b348015610b7157600080fd5b50610b9e60048036036020811015610b8857600080fd5b81019080803590602001909291905050506133c5565b604051808260000b60000b815260200191505060405180910390f35b348015610bc657600080fd5b50610bcf613473565b005b348015610bdd57600080fd5b50610be661349e565b604051808273ffffffffffffffffffffffffffffffffffffffff1673ffffffffffffffffffffffffffffffffffffffff16815260200191505060405180910390f35b348015610c3457600080fd5b50610c6160048036036020811015610c4b57600080fd5b81019080803590602001909291905050506134c4565b005b348015610c6f57600080fd5b50610c7861365d565b604051808273ffffffffffffffffffffffffffffffffffffffff1673ffffffffffffffffffffffffffffffffffffffff16815260200191505060405180910390f35b348015610cc657600080fd5b50610cf360048036036020811015610cdd57600080fd5b8101908080359060200190929190505050613683565b6040518082815260200191505060405180910390f35b348015610d1557600080fd5b50610d1e6136a4565b6040518082815260200191505060405180910390f35b610d8c60048036036060811015610d4a57600080fd5b8101908080351515906020019092919080359060200190929190803573ffffffffffffffffffffffffffffffffffffffff1690602001909291905050506136c3565b6040518082815260200191505060405180910390f35b610de460048036036020811015610db857600080fd5b81019080803573ffffffffffffffffffffffffffffffffffffffff169060200190929190505050613933565b005b6060610df0615814565b6040518060600160405280600160008a73ffffffffffffffffffffffffffffffffffffffff1673ffffffffffffffffffffffffffffffffffffffff1681526020019081526020016000205481526020018873ffffffffffffffffffffffffffffffffffffffff168152602001878152509050610e6f8782878787613cc0565b610ec4576040517f08c379a0000000000000000000000000000000000000000000000000000000008152600401808060200182810382526021815260200180615ae36021913960400191505060405180910390fd5b610f1660018060008a73ffffffffffffffffffffffffffffffffffffffff1673ffffffffffffffffffffffffffffffffffffffff16815260200190815260200160002054613d7290919063ffffffff16565b600160008973ffffffffffffffffffffffffffffffffffffffff1673ffffffffffffffffffffffffffffffffffffffff168152602001908152602001600020819055507f5845892132946850460bff5a0083f71031bc5bf9aadcd40f1de79423eac9b10b873388604051808473ffffffffffffffffffffffffffffffffffffffff1673ffffffffffffffffffffffffffffffffffffffff1681526020018373ffffffffffffffffffffffffffffffffffffffff1673ffffffffffffffffffffffffffffffffffffffff16815260200180602001828103825283818151815260200191508051906020019080838360005b83811015611021578082015181840152602081019050611006565b50505050905090810190601f16801561104e5780820380516001836020036101000a031916815260200191505b5094505050505060405180910390a1600060603073ffffffffffffffffffffffffffffffffffffffff16888a6040516020018083805190602001908083835b602083106110b0578051825260208201915060208101905060208303925061108d565b6001836020036101000a0380198251168184511680821785525050505050509050018273ffffffffffffffffffffffffffffffffffffffff1673ffffffffffffffffffffffffffffffffffffffff1660601b8152601401925050506040516020818303038152906040526040518082805190602001908083835b6020831061114d578051825260208201915060208101905060208303925061112a565b6001836020036101000a0380198251168184511680821785525050505050509050019150506000604051808303816000865af19150503d80600081146111af576040519150601f19603f3d011682016040523d82523d6000602084013e6111b4565b606091505b50915091508161122c576040517f08c379a000000000000000000000000000000000000000000000000000000000815260040180806020018281038252601c8152602001807f46756e6374696f6e2063616c6c206e6f74207375636365737366756c0000000081525060200191505060405180910390fd5b80935050505095945050505050565b60006112478483611e3c565b8310611256576000905061125b565b600190505b9392505050565b600080831561134c57600860009054906101000a900473ffffffffffffffffffffffffffffffffffffffff1673ffffffffffffffffffffffffffffffffffffffff166370a08231846040518263ffffffff1660e01b8152600401808273ffffffffffffffffffffffffffffffffffffffff1673ffffffffffffffffffffffffffffffffffffffff16815260200191505060206040518083038186803b15801561130a57600080fd5b505afa15801561131e573d6000803e3d6000fd5b505050506040513d602081101561133457600080fd5b81019080805190602001909291905050509050611429565b600960009054906101000a900473ffffffffffffffffffffffffffffffffffffffff1673ffffffffffffffffffffffffffffffffffffffff166370a08231846040518263ffffffff1660e01b8152600401808273ffffffffffffffffffffffffffffffffffffffff1673ffffffffffffffffffffffffffffffffffffffff16815260200191505060206040518083038186803b1580156113eb57600080fd5b505afa1580156113ff573d6000803e3d6000fd5b505050506040513d602081101561141557600080fd5b810190808051906020019092919050505090505b61143484828561123b565b91505092915050565b60045481565b6000600160008373ffffffffffffffffffffffffffffffffffffffff1673ffffffffffffffffffffffffffffffffffffffff168152602001908152602001600020549050919050565b60055481565b6000600860009054906101000a900473ffffffffffffffffffffffffffffffffffffffff1673ffffffffffffffffffffffffffffffffffffffff166370a08231306040518263ffffffff1660e01b8152600401808273ffffffffffffffffffffffffffffffffffffffff1673ffffffffffffffffffffffffffffffffffffffff16815260200191505060206040518083038186803b15801561153357600080fd5b505afa158015611547573d6000803e3d6000fd5b505050506040513d602081101561155d57600080fd5b8101908080519060200190929190505050905090565b60006001600660008473ffffffffffffffffffffffffffffffffffffffff1673ffffffffffffffffffffffffffffffffffffffff16815260200190815260200160002060000154106116ab5760008090506000600190505b600660008573ffffffffffffffffffffffffffffffffffffffff1673ffffffffffffffffffffffffffffffffffffffff168152602001908152602001600020600001548160ff16116116a1576000600660008673ffffffffffffffffffffffffffffffffffffffff1673ffffffffffffffffffffffffffffffffffffffff16815260200190815260200160002060010160008360ff16815260200190815260200160002060020160009054906101000a900460ff16905061168f8260ff1682613dfa565b830192505080806001019150506115cb565b50809150506116b0565b600090505b919050565b600080600d6000848152602001908152602001600020600201544203126117aa5760008090505b600d6000848152602001908152602001600020601001805490508160ff1610156117a057611708613ebc565b73ffffffffffffffffffffffffffffffffffffffff16600d60008581526020019081526020016000206010018260ff168154811061174257fe5b9060005260206000200160009054906101000a900473ffffffffffffffffffffffffffffffffffffffff1673ffffffffffffffffffffffffffffffffffffffff1614156117935760039150506117af565b80806001019150506116dc565b50600090506117af565b600190505b919050565b60006117bf836116b5565b60000b14611835576040517f08c379a00000000000000000000000000000000000000000000000000000000081526004018080602001828103825260118152602001807f54696d65206973206e6f742076616c696400000000000000000000000000000081525060200191505060405180910390fd5b6000600d6000848152602001908152602001600020600a0154148015611882575060011515600d600084815260200190815260200160002060090160009054906101000a900460ff161515145b156118915761189082613f71565b5b61189961584b565b60405180602001604052806118ac613ebc565b73ffffffffffffffffffffffffffffffffffffffff168152509050600d600084815260200190815260200160002060070160008360ff168152602001908152602001600020819080600181540180825580915050600190039060005260206000200160009091909190915060008201518160000160006101000a81548173ffffffffffffffffffffffffffffffffffffffff021916908373ffffffffffffffffffffffffffffffffffffffff160217905550505060006001600d6000868152602001908152602001600020600a0154019050600d6000858152602001908152602001600020600801548114156119c55780600d6000868152602001908152602001600020600a01819055506119c084613fe2565b6119e1565b80600d6000868152602001908152602001600020600a01819055505b50505050565b80600790805190602001906119fd929190615874565b5050565b89600d60008c81526020019081526020016000206000018190555087600d60008c81526020019081526020016000206002018190555084600d60008c815260200190815260200160002060030160006101000a81548160ff021916908360ff16021790555088600d60008c81526020019081526020016000206001018190555083600d60008c815260200190815260200160002060080181905550611aa4613ebc565b600d60008c8152602001908152602001600020600b0160006101000a81548173ffffffffffffffffffffffffffffffffffffffff021916908373ffffffffffffffffffffffffffffffffffffffff16021790555081600d60008c815260200190815260200160002060110160006101000a81548160ff02191690831515021790555080600d60008c815260200190815260200160002060090160006101000a81548160ff02191690831515021790555060008760ff161415611b95576003600d60008c815260200190815260200160002060050160006101000a81548160ff021916908360ff160217905550611bc5565b86600d60008c815260200190815260200160002060050160006101000a81548160ff021916908360ff1602179055505b60008660ff161415611c06576005600d60008c815260200190815260200160002060050160016101000a81548160ff021916908360ff160217905550611c36565b85600d60008c815260200190815260200160002060050160016101000a81548160ff021916908360ff1602179055505b7fbd233f7452553afaed4cd245a2d8d64cf39150c8cd35dcc8da09884d5bd45f9a600084611c62613ebc565b8d6040518080602001868152602001851515151581526020018473ffffffffffffffffffffffffffffffffffffffff1673ffffffffffffffffffffffffffffffffffffffff16815260200180602001848152602001838103835260048152602001807f73656e64000000000000000000000000000000000000000000000000000000008152506020018381038252600a8152602001807f686f6c64206d6f6e657900000000000000000000000000000000000000000000815250602001965050505050505060405180910390a150505050505050505050565b600b60009054906101000a900473ffffffffffffffffffffffffffffffffffffffff1681565b600080600080600080600d6000888152602001908152602001600020600c0154600d6000898152602001908152602001600020600e0154600d60008a815260200190815260200160002060040154600d60008b815260200190815260200160002060110160019054906101000a900460ff16600d60008c8152602001908152602001600020600f0154600d60008d8152602001908152602001600020600d015495509550955095509550955091939550919395565b600960009054906101000a900473ffffffffffffffffffffffffffffffffffffffff1681565b6000611e8d6001600660008573ffffffffffffffffffffffffffffffffffffffff1673ffffffffffffffffffffffffffffffffffffffff168152602001908152602001600020600001540184613dfa565b905092915050565b600b60009054906101000a900473ffffffffffffffffffffffffffffffffffffffff1673ffffffffffffffffffffffffffffffffffffffff163373ffffffffffffffffffffffffffffffffffffffff1614611f3b576040517f08c379a0000000000000000000000000000000000000000000000000000000008152600401808060200182810382526024815260200180615b296024913960400191505060405180910390fd5b6000600d600084815260200190815260200160002060110160009054906101000a900460ff1690506000600d600085815260200190815260200160002060030160009054906101000a900460ff1660ff16905060008090505b818160ff1612156123345760008090505b600d600087815260200190815260200160002060060160008360ff168152602001908152602001600020805490508160ff161015612326576000600d600088815260200190815260200160002060060160008460ff1681526020019081526020016000208260ff168154811061201757fe5b906000526020600020906002020160000160009054906101000a900473ffffffffffffffffffffffffffffffffffffffff1690506000600d600089815260200190815260200160002060060160008560ff1681526020019081526020016000208360ff168154811061208557fe5b906000526020600020906002020160010154905085156121dd57600860009054906101000a900473ffffffffffffffffffffffffffffffffffffffff1673ffffffffffffffffffffffffffffffffffffffff1663a9059cbb83836040518363ffffffff1660e01b8152600401808373ffffffffffffffffffffffffffffffffffffffff1673ffffffffffffffffffffffffffffffffffffffff16815260200182815260200192505050602060405180830381600087803b15801561214857600080fd5b505af115801561215c573d6000803e3d6000fd5b505050506040513d602081101561217257600080fd5b81019080805190602001909291905050506121d8576040517f08c379a0000000000000000000000000000000000000000000000000000000008152600401808060200182810382526023815260200180615b746023913960400191505060405180910390fd5b612317565b600960009054906101000a900473ffffffffffffffffffffffffffffffffffffffff1673ffffffffffffffffffffffffffffffffffffffff1663a9059cbb83836040518363ffffffff1660e01b8152600401808373ffffffffffffffffffffffffffffffffffffffff1673ffffffffffffffffffffffffffffffffffffffff16815260200182815260200192505050602060405180830381600087803b15801561228657600080fd5b505af115801561229a573d6000803e3d6000fd5b505050506040513d60208110156122b057600080fd5b8101908080519060200190929190505050612316576040517f08c379a0000000000000000000000000000000000000000000000000000000008152600401808060200182810382526025815260200180615b976025913960400191505060405180910390fd5b5b50508080600101915050611fa5565b508080600101915050611f94565b506001600d600086815260200190815260200160002060110160016101000a81548160ff0219169083151502179055507f847521552ad126e64c52b14640c804737bd67f2b6674309b332d1e5b17f857d184846040518083815260200180602001828103825283818151815260200191508051906020019080838360005b838110156123cd5780820151818401526020810190506123b2565b50505050905090810190601f1680156123fa5780820380516001836020036101000a031916815260200191505b50935050505060405180910390a150505050565b6000600d600085815260200190815260200160002060110160009054906101000a900460ff169050600061244185613271565b60000b146124b7576040517f08c379a00000000000000000000000000000000000000000000000000000000081526004018080602001828103825260118152602001807f54696d65206973206e6f742076616c696400000000000000000000000000000081525060200191505060405180910390fd5b6124bf6158c1565b60405180604001604052806124d2613ebc565b73ffffffffffffffffffffffffffffffffffffffff168152602001848152509050600d600086815260200190815260200160002060060160008560ff16815260200190815260200160002081908060018154018082558091505060019003906000526020600020906002020160009091909190915060008201518160000160006101000a81548173ffffffffffffffffffffffffffffffffffffffff021916908373ffffffffffffffffffffffffffffffffffffffff160217905550602082015181600101555050600d60008681526020019081526020016000206010016125b8613ebc565b9080600181540180825580915050600190039060005260206000200160009091909190916101000a81548173ffffffffffffffffffffffffffffffffffffffff021916908373ffffffffffffffffffffffffffffffffffffffff16021790555082600d60008781526020019081526020016000206004016000828254019250508190555081156129625782600860009054906101000a900473ffffffffffffffffffffffffffffffffffffffff1673ffffffffffffffffffffffffffffffffffffffff1663dd62ed3e612689613ebc565b306040518363ffffffff1660e01b8152600401808373ffffffffffffffffffffffffffffffffffffffff1673ffffffffffffffffffffffffffffffffffffffff1681526020018273ffffffffffffffffffffffffffffffffffffffff1673ffffffffffffffffffffffffffffffffffffffff1681526020019250505060206040518083038186803b15801561271d57600080fd5b505afa158015612731573d6000803e3d6000fd5b505050506040513d602081101561274757600080fd5b810190808051906020019092919050505010156127cc576040517f08c379a000000000000000000000000000000000000000000000000000000000815260040180806020018281038252601b8152602001807f446f206e6f7420656e6f75676874204d6174696320657468657273000000000081525060200191505060405180910390fd5b600860009054906101000a900473ffffffffffffffffffffffffffffffffffffffff1673ffffffffffffffffffffffffffffffffffffffff166323b872dd612812613ebc565b30866040518463ffffffff1660e01b8152600401808473ffffffffffffffffffffffffffffffffffffffff1673ffffffffffffffffffffffffffffffffffffffff1681526020018373ffffffffffffffffffffffffffffffffffffffff1673ffffffffffffffffffffffffffffffffffffffff1681526020018281526020019350505050602060405180830381600087803b1580156128b057600080fd5b505af11580156128c4573d6000803e3d6000fd5b505050506040513d60208110156128da57600080fd5b810190808051906020019092919050505061295d576040517f08c379a000000000000000000000000000000000000000000000000000000000815260040180806020018281038252601b8152602001807f5472616e73666572204d6174696320657468657273206572726f72000000000081525060200191505060405180910390fd5b612c7e565b82600960009054906101000a900473ffffffffffffffffffffffffffffffffffffffff1673ffffffffffffffffffffffffffffffffffffffff1663dd62ed3e6129a9613ebc565b306040518363ffffffff1660e01b8152600401808373ffffffffffffffffffffffffffffffffffffffff1673ffffffffffffffffffffffffffffffffffffffff1681526020018273ffffffffffffffffffffffffffffffffffffffff1673ffffffffffffffffffffffffffffffffffffffff1681526020019250505060206040518083038186803b158015612a3d57600080fd5b505afa158015612a51573d6000803e3d6000fd5b505050506040513d6020811015612a6757600080fd5b81019080805190602001909291905050501015612aec576040517f08c379a000000000000000000000000000000000000000000000000000000000815260040180806020018281038252601d8152602001807f446f206e6f7420656e6f75676874204265747465727920746f6b656e7300000081525060200191505060405180910390fd5b600960009054906101000a900473ffffffffffffffffffffffffffffffffffffffff1673ffffffffffffffffffffffffffffffffffffffff166323b872dd612b32613ebc565b30866040518463ffffffff1660e01b8152600401808473ffffffffffffffffffffffffffffffffffffffff1673ffffffffffffffffffffffffffffffffffffffff1681526020018373ffffffffffffffffffffffffffffffffffffffff1673ffffffffffffffffffffffffffffffffffffffff1681526020018281526020019350505050602060405180830381600087803b158015612bd057600080fd5b505af1158015612be4573d6000803e3d6000fd5b505050506040513d6020811015612bfa57600080fd5b8101908080519060200190929190505050612c7d576040517f08c379a000000000000000000000000000000000000000000000000000000000815260040180806020018281038252601d8152602001807f5472616e73666572204265747465727920746f6b656e73206572726f7200000081525060200191505060405180910390fd5b5b7fbd233f7452553afaed4cd245a2d8d64cf39150c8cd35dcc8da09884d5bd45f9a8383612ca9613ebc565b886040518080602001868152602001851515151581526020018473ffffffffffffffffffffffffffffffffffffffff1673ffffffffffffffffffffffffffffffffffffffff16815260200180602001848152602001838103835260048152602001807f73656e64000000000000000000000000000000000000000000000000000000008152506020018381038252600b8152602001807f7061727469636970616e74000000000000000000000000000000000000000000815250602001965050505050505060405180910390a15050505050565b600080600080600360009054906101000a900473ffffffffffffffffffffffffffffffffffffffff1673ffffffffffffffffffffffffffffffffffffffff163373ffffffffffffffffffffffffffffffffffffffff1614612e29576040517f08c379a0000000000000000000000000000000000000000000000000000000008152600401808060200182810382526024815260200180615b296024913960400191505060405180910390fd5b6000600660008773ffffffffffffffffffffffffffffffffffffffff1673ffffffffffffffffffffffffffffffffffffffff1681526020019081526020016000206000015411612ee1576040517f08c379a000000000000000000000000000000000000000000000000000000000815260040180806020018281038252601c8152602001807f446f206e6f74206861766520636f696e73206f6e206163636f756e740000000081525060200191505060405180910390fd5b6000600660008773ffffffffffffffffffffffffffffffffffffffff1673ffffffffffffffffffffffffffffffffffffffff1681526020019081526020016000206000015490506000600660008873ffffffffffffffffffffffffffffffffffffffff1673ffffffffffffffffffffffffffffffffffffffff168152602001908152602001600020600101600083815260200190815260200160002060000160009054906101000a900473ffffffffffffffffffffffffffffffffffffffff1690508673ffffffffffffffffffffffffffffffffffffffff168173ffffffffffffffffffffffffffffffffffffffff1614613044576040517f08c379a00000000000000000000000000000000000000000000000000000000081526004018080602001828103825260138152602001807f416464726573736573206e6f7420657175616c0000000000000000000000000081525060200191505060405180910390fd5b6000600660008973ffffffffffffffffffffffffffffffffffffffff1673ffffffffffffffffffffffffffffffffffffffff1681526020019081526020016000206001016000848152602001908152602001600020600101549050600660008373ffffffffffffffffffffffffffffffffffffffff1673ffffffffffffffffffffffffffffffffffffffff16815260200190815260200160002060000160008154809291906001900391905055506000600660008a73ffffffffffffffffffffffffffffffffffffffff1673ffffffffffffffffffffffffffffffffffffffff168152602001908152602001600020600101600085815260200190815260200160002060020160009054906101000a900460ff1690506000600660008b73ffffffffffffffffffffffffffffffffffffffff1673ffffffffffffffffffffffffffffffffffffffff1681526020019081526020016000206001016000868152602001908152602001600020600301549050600660008b73ffffffffffffffffffffffffffffffffffffffff1673ffffffffffffffffffffffffffffffffffffffff1681526020019081526020016000206001016000868152602001908152602001600020600080820160006101000a81549073ffffffffffffffffffffffffffffffffffffffff021916905560018201600090556002820160006101000a81549060ff02191690556003820160009055505082848383829250985098509850985050505050509193509193565b600080600d6000848152602001908152602001600020600101544203126132c457600042600d60008581526020019081526020016000206002015403126132bb57600090506132c9565b600290506132c9565b600190505b919050565b600360009054906101000a900473ffffffffffffffffffffffffffffffffffffffff1673ffffffffffffffffffffffffffffffffffffffff163373ffffffffffffffffffffffffffffffffffffffff1614613391576040517f08c379a000000000000000000000000000000000000000000000000000000000815260040180806020018281038252601b8152602001807f6f6e6c79206f776e65722063616e206368616e6765207072696365000000000081525060200191505060405180910390fd5b670de0b6b3a764000082816133a257fe5b04600481905550670de0b6b3a764000081816133ba57fe5b046005819055505050565b60006133cf613ebc565b73ffffffffffffffffffffffffffffffffffffffff16600d6000848152602001908152602001600020600b0160009054906101000a900473ffffffffffffffffffffffffffffffffffffffff1673ffffffffffffffffffffffffffffffffffffffff161415613469576000600d6000848152602001908152602001600020600401541415613460576000905061346e565b6001905061346e565b600290505b919050565b600060078054905014156134865761349c565b61349b600760006001600780549050036140b0565b5b565b600360009054906101000a900473ffffffffffffffffffffffffffffffffffffffff1681565b60006134cf826133c5565b60000b14613545576040517f08c379a00000000000000000000000000000000000000000000000000000000081526004018080602001828103825260158152602001807f44656c657465206576656e742069732066616c7365000000000000000000000081525060200191505060405180910390fd5b600d6000828152602001908152602001600020600080820160009055600182016000905560028201600090556003820160006101000a81549060ff021916905560048201600090556005820160006101000a81549060ff02191690556005820160016101000a81549060ff021916905560088201600090556009820160006101000a81549060ff0219169055600a820160009055600b820160006101000a81549073ffffffffffffffffffffffffffffffffffffffff0219169055600c820160009055600d820160009055600e820160009055600f82016000905560108201600061363091906158f1565b6011820160006101000a81549060ff02191690556011820160016101000a81549060ff0219169055505050565b600860009054906101000a900473ffffffffffffffffffffffffffffffffffffffff1681565b6007818154811061369057fe5b906000526020600020016000915090505481565b60003073ffffffffffffffffffffffffffffffffffffffff1631905090565b6000806136d08584611e3c565b905060006001600660008673ffffffffffffffffffffffffffffffffffffffff1673ffffffffffffffffffffffffffffffffffffffff1681526020019081526020016000206000015401905083600660008673ffffffffffffffffffffffffffffffffffffffff1673ffffffffffffffffffffffffffffffffffffffff168152602001908152602001600020600101600083815260200190815260200160002060000160006101000a81548173ffffffffffffffffffffffffffffffffffffffff021916908373ffffffffffffffffffffffffffffffffffffffff16021790555081600660008673ffffffffffffffffffffffffffffffffffffffff1673ffffffffffffffffffffffffffffffffffffffff16815260200190815260200160002060010160008381526020019081526020016000206001018190555085600660008673ffffffffffffffffffffffffffffffffffffffff1673ffffffffffffffffffffffffffffffffffffffff168152602001908152602001600020600101600083815260200190815260200160002060020160006101000a81548160ff02191690831515021790555084600660008673ffffffffffffffffffffffffffffffffffffffff1673ffffffffffffffffffffffffffffffffffffffff168152602001908152602001600020600101600083815260200190815260200160002060030181905550600660008573ffffffffffffffffffffffffffffffffffffffff1673ffffffffffffffffffffffffffffffffffffffff1681526020019081526020016000206000016000815480929190600101919050555081925050509392505050565b60008060008061394285612d7d565b93509350935093508115613a8e57600860009054906101000a900473ffffffffffffffffffffffffffffffffffffffff1673ffffffffffffffffffffffffffffffffffffffff1663a9059cbb84866040518363ffffffff1660e01b8152600401808373ffffffffffffffffffffffffffffffffffffffff1673ffffffffffffffffffffffffffffffffffffffff16815260200182815260200192505050602060405180830381600087803b1580156139f957600080fd5b505af1158015613a0d573d6000803e3d6000fd5b505050506040513d6020811015613a2357600080fd5b8101908080519060200190929190505050613a89576040517f08c379a0000000000000000000000000000000000000000000000000000000008152600401808060200182810382526031815260200180615a256031913960400191505060405180910390fd5b613bc8565b600960009054906101000a900473ffffffffffffffffffffffffffffffffffffffff1673ffffffffffffffffffffffffffffffffffffffff1663a9059cbb84866040518363ffffffff1660e01b8152600401808373ffffffffffffffffffffffffffffffffffffffff1673ffffffffffffffffffffffffffffffffffffffff16815260200182815260200192505050602060405180830381600087803b158015613b3757600080fd5b505af1158015613b4b573d6000803e3d6000fd5b505050506040513d6020811015613b6157600080fd5b8101908080519060200190929190505050613bc7576040517f08c379a0000000000000000000000000000000000000000000000000000000008152600401808060200182810382526033815260200180615a826033913960400191505060405180910390fd5b5b7fbd233f7452553afaed4cd245a2d8d64cf39150c8cd35dcc8da09884d5bd45f9a848385846040518080602001868152602001851515151581526020018473ffffffffffffffffffffffffffffffffffffffff1673ffffffffffffffffffffffffffffffffffffffff16815260200180602001848152602001838103835260078152602001807f72656365697665000000000000000000000000000000000000000000000000008152506020018381038252600a8152602001807f686f6c64206d6f6e657900000000000000000000000000000000000000000000815250602001965050505050505060405180910390a15050505050565b60006001613cd5613cd0876141fc565b6142a2565b83868660405160008152602001604052604051808581526020018460ff1660ff1681526020018381526020018281526020019450505050506020604051602081039080840390855afa158015613d2f573d6000803e3d6000fd5b5050506020604051035173ffffffffffffffffffffffffffffffffffffffff168673ffffffffffffffffffffffffffffffffffffffff1614905095945050505050565b600080828401905083811015613df0576040517f08c379a000000000000000000000000000000000000000000000000000000000815260040180806020018281038252601b8152602001807f536166654d6174683a206164646974696f6e206f766572666c6f77000000000081525060200191505060405180910390fd5b8091505092915050565b60008060025490506001841415613e49578215613e285760646004548281613e1e57fe5b0402915050613eb6565b600260646005548381613e3757fe5b040281613e4057fe5b04915050613eb6565b60028410613eb4576000600190505b848160ff161015613e755781820191508080600101915050613e58565b508215613e935760646004548281613e8957fe5b0402915050613eb6565b600260646005548381613ea257fe5b040281613eab57fe5b04915050613eb6565b505b92915050565b60003073ffffffffffffffffffffffffffffffffffffffff163373ffffffffffffffffffffffffffffffffffffffff161415613f675760606000368080601f016020809104026020016040519081016040528093929190818152602001838380828437600081840152601f19601f820116905080830192505050505050509050600080369050905073ffffffffffffffffffffffffffffffffffffffff818301511692505050613f6b565b3390505b80905090565b6000613f97600d600084815260200190815260200160002060100180549050600a614309565b905060038111613fc2576003600d600084815260200190815260200160002060080181905550613fde565b80600d6000848152602001908152602001600020600801819055505b5050565b6000809050600080600d600085815260200190815260200160002060030160009054906101000a900460ff16905060008090505b8160ff168160ff16101561409d5783600d600087815260200190815260200160002060070160008360ff16815260200190815260200160002080549050111561409057600d600086815260200190815260200160002060070160008260ff1681526020019081526020016000208054905093508060ff1692505b8080600101915050614016565b506140aa82848684614320565b50505050565b600082905060008290506000856002868603816140c957fe5b048601815481106140d657fe5b906000526020600020015490505b8183116141cc575b808684815481106140f957fe5b906000526020600020015410156141175782806001019350506140ec565b5b85828154811061412457fe5b906000526020600020015481101561414457818060019003925050614118565b8183116141c75785828154811061415757fe5b906000526020600020015486848154811061416e57fe5b906000526020600020015487858154811061418557fe5b90600052602060002001600089868154811061419d57fe5b90600052602060002001600084919050558391905055505082806001019350508180600190039250505b6140e4565b818510156141e0576141df8686846140b0565b5b838310156141f4576141f38684866140b0565b5b505050505050565b6000604051806080016040528060438152602001615965604391398051906020012082600001518360200151846040015180519060200120604051602001808581526020018481526020018373ffffffffffffffffffffffffffffffffffffffff1673ffffffffffffffffffffffffffffffffffffffff168152602001828152602001945050505050604051602081830303815290604052805190602001209050919050565b60006142ac61455d565b8260405160200180807f190100000000000000000000000000000000000000000000000000000000000081525060020183815260200182815260200192505050604051602081830303815290604052805190602001209050919050565b600060648383028161431757fe5b04905092915050565b6001600d600084815260200190815260200160002060080154111561453157600080905060608260ff1667ffffffffffffffff8111801561436057600080fd5b5060405190808252806020026020018201604052801561438f5781602001602082028036833780820191505090505b50905060008090505b8360ff168160ff1610156143fc57600d600086815260200190815260200160002060070160008260ff16815260200190815260200160002080549050828260ff16815181106143e357fe5b6020026020010181815250508080600101915050614398565b50614406816119e7565b61440e613473565b60008090505b6001600780549050038160ff1610156144b3576007805490506001820160ff1610156144a65760078160ff168154811061444a57fe5b906000526020600020015460076001830160ff168154811061446857fe5b906000526020600020015414156144a55760078160ff168154811061448957fe5b90600052602060002001548614156144a45782806001019350505b5b5b8080600101915050614414565b5060008260ff161115614504576144ff846040518060400160405280601581526020017f6475706c6963617465732076616c696461746f72730000000000000000000000815250611e95565b61452a565b85600d6000868152602001908152602001600020600f01819055506145298685614566565b5b5050614557565b83600d6000848152602001908152602001600020600f01819055506145568483614566565b5b50505050565b60008054905090565b6000600d600083815260200190815260200160002060110160009054906101000a900460ff1690506000600d60008481526020019081526020016000206004015411156146c657600080600d6000858152602001908152602001600020600601600086815260200190815260200160002080549050905060008090505b818160ff16101561464657600d600086815260200190815260200160002060060160008781526020019081526020016000208160ff168154811061462357fe5b9060005260206000209060020201600101548301925080806001019150506145e3565b50600082600d60008781526020019081526020016000206004015403905060008114156146b1576146ac856040518060400160405280601681526020017f63686f73656e206f6e6c79206f6e6520616e7377657200000000000000000000815250611e95565b6146be565b6146bd8686838761471c565b5b505050614717565b7f05c2a2fb3a3c6571f3d019fb1d2cb430baa3e2a8d3f240b4e32c5bcedc04d2fd82826000604051808481526020018315151515815260200182151515158152602001935050505060405180910390a15b505050565b600061473a83600960149054906101000a900460ff1660ff16614309565b905081156148a257600860009054906101000a900473ffffffffffffffffffffffffffffffffffffffff1673ffffffffffffffffffffffffffffffffffffffff1663a9059cbb600b60009054906101000a900473ffffffffffffffffffffffffffffffffffffffff16836040518363ffffffff1660e01b8152600401808373ffffffffffffffffffffffffffffffffffffffff1673ffffffffffffffffffffffffffffffffffffffff16815260200182815260200192505050602060405180830381600087803b15801561480d57600080fd5b505af1158015614821573d6000803e3d6000fd5b505050506040513d602081101561483757600080fd5b810190808051906020019092919050505061489d576040517f08c379a00000000000000000000000000000000000000000000000000000000081526004018080602001828103825260288152602001806159a86028913960400191505060405180910390fd5b6149fe565b600960009054906101000a900473ffffffffffffffffffffffffffffffffffffffff1673ffffffffffffffffffffffffffffffffffffffff1663a9059cbb600b60009054906101000a900473ffffffffffffffffffffffffffffffffffffffff16836040518363ffffffff1660e01b8152600401808373ffffffffffffffffffffffffffffffffffffffff1673ffffffffffffffffffffffffffffffffffffffff16815260200182815260200192505050602060405180830381600087803b15801561496d57600080fd5b505af1158015614981573d6000803e3d6000fd5b505050506040513d602081101561499757600080fd5b81019080805190602001909291905050506149fd576040517f08c379a000000000000000000000000000000000000000000000000000000000815260040180806020018281038252602a8152602001806159fb602a913960400191505060405180910390fd5b5b80600d6000868152602001908152602001600020600c0181905550614a2585858486614a2c565b5050505050565b6000614a5e82600d600087815260200190815260200160002060050160009054906101000a900460ff1660ff16614309565b90506000600d6000868152602001908152602001600020600b0160009054906101000a900473ffffffffffffffffffffffffffffffffffffffff1690508315614bdf57600860009054906101000a900473ffffffffffffffffffffffffffffffffffffffff1673ffffffffffffffffffffffffffffffffffffffff1663a9059cbb82846040518363ffffffff1660e01b8152600401808373ffffffffffffffffffffffffffffffffffffffff1673ffffffffffffffffffffffffffffffffffffffff16815260200182815260200192505050602060405180830381600087803b158015614b4a57600080fd5b505af1158015614b5e573d6000803e3d6000fd5b505050506040513d6020811015614b7457600080fd5b8101908080519060200190929190505050614bda576040517f08c379a0000000000000000000000000000000000000000000000000000000008152600401808060200182810382526025815260200180615b046025913960400191505060405180910390fd5b614d19565b600960009054906101000a900473ffffffffffffffffffffffffffffffffffffffff1673ffffffffffffffffffffffffffffffffffffffff1663a9059cbb82846040518363ffffffff1660e01b8152600401808373ffffffffffffffffffffffffffffffffffffffff1673ffffffffffffffffffffffffffffffffffffffff16815260200182815260200192505050602060405180830381600087803b158015614c8857600080fd5b505af1158015614c9c573d6000803e3d6000fd5b505050506040513d6020811015614cb257600080fd5b8101908080519060200190929190505050614d18576040517f08c379a0000000000000000000000000000000000000000000000000000000008152600401808060200182810382526027815260200180615b4d6027913960400191505060405180910390fd5b5b81600d6000878152602001908152602001600020600d0181905550614d4086868686614d48565b505050505050565b6000614d7a82600d600087815260200190815260200160002060050160019054906101000a900460ff1660ff16614309565b90506000600d60008681526020019081526020016000206007016000878152602001908152602001600020805490508281614db157fe5b04905080600d6000878152602001908152602001600020600e018190555060008090505b600d60008781526020019081526020016000206007016000888152602001908152602001600020805490508160ff1610156150fd576000600d600088815260200190815260200160002060070160008981526020019081526020016000208260ff1681548110614e4157fe5b9060005260206000200160000160009054906101000a900473ffffffffffffffffffffffffffffffffffffffff1690508515614fb557600860009054906101000a900473ffffffffffffffffffffffffffffffffffffffff1673ffffffffffffffffffffffffffffffffffffffff1663a9059cbb82856040518363ffffffff1660e01b8152600401808373ffffffffffffffffffffffffffffffffffffffff1673ffffffffffffffffffffffffffffffffffffffff16815260200182815260200192505050602060405180830381600087803b158015614f2057600080fd5b505af1158015614f34573d6000803e3d6000fd5b505050506040513d6020811015614f4a57600080fd5b8101908080519060200190929190505050614fb0576040517f08c379a000000000000000000000000000000000000000000000000000000000815260040180806020018281038252602b8152602001806159d0602b913960400191505060405180910390fd5b6150ef565b600960009054906101000a900473ffffffffffffffffffffffffffffffffffffffff1673ffffffffffffffffffffffffffffffffffffffff1663a9059cbb82856040518363ffffffff1660e01b8152600401808373ffffffffffffffffffffffffffffffffffffffff1673ffffffffffffffffffffffffffffffffffffffff16815260200182815260200192505050602060405180830381600087803b15801561505e57600080fd5b505af1158015615072573d6000803e3d6000fd5b505050506040513d602081101561508857600080fd5b81019080805190602001909291905050506150ee576040517f08c379a000000000000000000000000000000000000000000000000000000000815260040180806020018281038252602d815260200180615938602d913960400191505060405180910390fd5b5b508080600101915050614dd5565b5061510a86868686615112565b505050505050565b600061511f82605a614309565b9050600080600d6000878152602001908152602001600020600601600088815260200190815260200160002080549050905060008090505b818160ff1610156151ba57600d600088815260200190815260200160002060060160008981526020019081526020016000208160ff168154811061519757fe5b906000526020600020906002020160010154830192508080600101915050615157565b5060008090505b818160ff161015615522576000600d600089815260200190815260200160002060060160008a81526020019081526020016000208260ff168154811061520357fe5b906000526020600020906002020160000160009054906101000a900473ffffffffffffffffffffffffffffffffffffffff1690506000600d60008a815260200190815260200160002060060160008b81526020019081526020016000208360ff168154811061526e57fe5b90600052602060002090600202016001015490506000858288028161528f57fe5b048201905088156153d857600860009054906101000a900473ffffffffffffffffffffffffffffffffffffffff1673ffffffffffffffffffffffffffffffffffffffff1663a9059cbb84836040518363ffffffff1660e01b8152600401808373ffffffffffffffffffffffffffffffffffffffff1673ffffffffffffffffffffffffffffffffffffffff16815260200182815260200192505050602060405180830381600087803b15801561534357600080fd5b505af1158015615357573d6000803e3d6000fd5b505050506040513d602081101561536d57600080fd5b81019080805190602001909291905050506153d3576040517f08c379a000000000000000000000000000000000000000000000000000000000815260040180806020018281038252602c815260200180615a56602c913960400191505060405180910390fd5b615512565b600960009054906101000a900473ffffffffffffffffffffffffffffffffffffffff1673ffffffffffffffffffffffffffffffffffffffff1663a9059cbb84836040518363ffffffff1660e01b8152600401808373ffffffffffffffffffffffffffffffffffffffff1673ffffffffffffffffffffffffffffffffffffffff16815260200182815260200192505050602060405180830381600087803b15801561548157600080fd5b505af1158015615495573d6000803e3d6000fd5b505050506040513d60208110156154ab57600080fd5b8101908080519060200190929190505050615511576040517f08c379a000000000000000000000000000000000000000000000000000000000815260040180806020018281038252602e815260200180615ab5602e913960400191505060405180910390fd5b5b50505080806001019150506151c1565b506000600d600088815260200190815260200160002060030160009054906101000a900460ff1660ff16905060008090505b818160ff16121561578a57888160ff161461577d5760008090505b600d60008a815260200190815260200160002060060160008360ff168152602001908152602001600020805490508160ff16101561577b576000600d60008b815260200190815260200160002060060160008460ff1681526020019081526020016000208260ff16815481106155e157fe5b906000526020600020906002020160000160009054906101000a900473ffffffffffffffffffffffffffffffffffffffff169050600960009054906101000a900473ffffffffffffffffffffffffffffffffffffffff1673ffffffffffffffffffffffffffffffffffffffff1663a9059cbb82600c546040518363ffffffff1660e01b8152600401808373ffffffffffffffffffffffffffffffffffffffff1673ffffffffffffffffffffffffffffffffffffffff16815260200182815260200192505050602060405180830381600087803b1580156156c057600080fd5b505af11580156156d4573d6000803e3d6000fd5b505050506040513d60208110156156ea57600080fd5b810190808051906020019092919050505061576d576040517f08c379a00000000000000000000000000000000000000000000000000000000081526004018080602001828103825260198152602001807f5472616e7366657220666f72206c6f73657273206572726f720000000000000081525060200191505060405180910390fd5b50808060010191505061556f565b505b8080600101915050615554565b506000600d600089815260200190815260200160002060110160016101000a81548160ff0219169083151502179055507f05c2a2fb3a3c6571f3d019fb1d2cb430baa3e2a8d3f240b4e32c5bcedc04d2fd87876001604051808481526020018315151515815260200182151515158152602001935050505060405180910390a15050505050505050565b604051806060016040528060008152602001600073ffffffffffffffffffffffffffffffffffffffff168152602001606081525090565b6040518060200160405280600073ffffffffffffffffffffffffffffffffffffffff1681525090565b8280548282559060005260206000209081019282156158b0579160200282015b828111156158af578251825591602001919060010190615894565b5b5090506158bd9190615912565b5090565b6040518060400160405280600073ffffffffffffffffffffffffffffffffffffffff168152602001600081525090565b508054600082559060005260206000209081019061590f9190615912565b50565b61593491905b80821115615930576000816000905550600101615918565b5090565b9056fe5472616e73666572204265747465727920746f6b656e20746f2076616c696461746f7273206973206572726f724d6574615472616e73616374696f6e2875696e74323536206e6f6e63652c616464726573732066726f6d2c62797465732066756e6374696f6e5369676e6174757265295472616e73666572204d6174696320457468657220746f20636f6d70616e79206973206572726f725472616e73666572204d6174696320457468657220746f2076616c696461746f7273206973206572726f725472616e73666572204265747465727920746f6b656e20746f20636f6d70616e79206973206572726f725472616e73666572204d6174696320657468657220666f72206d6f6e657920726574656e74696f6e206973206572726f725472616e73666572204d6174696320457468657220746f207061727469636970616e74206973206572726f725472616e73666572204265747465727920746f6b656e20666f72206d6f6e657920726574656e74696f6e206973206572726f725472616e73666572204265747465727920746f6b656e20746f207061727469636970616e74206973206572726f725369676e657220616e64207369676e617475726520646f206e6f74206d617463685472616e73666572204d6174696320457468657220746f20686f7374206973206572726f724f6e6c79206f776e65722063616e206578656375746520746869732066756e6374696f6e5472616e73666572204265747465727920746f6b656e20746f20686f7374206973206572726f72526576657274204d6174696320657468657220746f20686f7374206973206572726f72526576657274204265747465727920746f6b656e20746f20686f7374206973206572726f72a26469706673582212205eb24445cf3ef1047d8618bb40741cb8c3e124eec5816fb5a6ad321a2219134d64736f6c63430006060033454950373132446f6d61696e28737472696e67206e616d652c737472696e672076657273696f6e2c75696e7432353620636861696e49642c6164647265737320766572696679696e67436f6e747261637429",
  "immutableReferences": {},
  "source": "pragma solidity ^0.6.6;\n\nimport \"./HoldMoney.sol\";\nimport \"./Sorter.sol\";\nimport \"@openzeppelin/contracts/token/ERC20/IERC20.sol\";\nimport { BetteryToken } from \"./tokens/BetteryToken.sol\";\n\ncontract PublicEvent is HoldMoney, Sorter {\n    IERC20 public maticToken;\n    BetteryToken public betteryToken;\n\n    uint8 private percentQuiz = 2;\n    uint256 private sevenDaysTimeStamp = 604800;\n    address payable public companyAddress;\n    uint256 betteryAmount = 1000000000000000000;\n\n    event eventIsFinish(int256 question_id, bool payEther, bool moneyOnEvent);\n    event payEvent(string path, uint256 money, bool payEther, address wallet, string from, int256 question_id);\n    event revertedEvent(int256 question_id, string purpose);\n\n    struct Participant {\n        address payable participants;\n        uint256 amount;\n    }\n\n    struct Validator {\n        address payable validators;\n    }\n\n    struct Question {\n        int256 question_id;\n        uint256 startTime;\n        uint256 endTime;\n        uint8 questionQuantity;\n        uint256 pool;\n        uint8 percentHost;\n        uint8 percentValidator;\n        mapping(uint256 => Participant[]) participant;\n        mapping(uint256 => Validator[]) validator;\n        uint256 validatorsAmount;\n        bool expertsQuantityWay;\n        uint256 activeValidators;\n        address payable hostWallet;\n        uint256 persentFeeCompany;\n        uint256 persentFeeHost;\n        uint256 persentForEachValidators;\n        uint256 correctAnswer;\n        address[] allParticipant;\n        bool payEther;\n        bool reverted;\n    }\n\n    mapping(int256 => Question) questions;\n\n    constructor(IERC20 _maticToken, BetteryToken _betteryToken) public {\n        maticToken = _maticToken;\n        betteryToken = _betteryToken;\n        companyAddress = msg.sender;\n    }\n\n    function startQestion(\n        int256 _question_id,\n        uint256 _startTime,\n        uint256 _endTime,\n        uint8 _percentHost,\n        uint8 _percentValidator,\n        uint8 _questionQuantity,\n        uint256 _validatorsAmount,\n        bool _pathHoldMoney,\n        bool _payEther,\n        bool _expertsQuantityWay\n    ) public payable {\n        questions[_question_id].question_id = _question_id;\n        questions[_question_id].endTime = _endTime;\n        questions[_question_id].questionQuantity = _questionQuantity;\n        questions[_question_id].startTime = _startTime;\n        questions[_question_id].validatorsAmount = _validatorsAmount;\n        questions[_question_id].hostWallet = _msgSender();\n        questions[_question_id].payEther = _payEther;\n        questions[_question_id].expertsQuantityWay = _expertsQuantityWay;\n\n        if (_percentHost == 0) {\n            questions[_question_id].percentHost = 3;\n        } else {\n            questions[_question_id].percentHost = _percentHost;\n        }\n\n        if (_percentValidator == 0) {\n            questions[_question_id].percentValidator = 5;\n        } else {\n            questions[_question_id].percentValidator = _percentValidator;\n        }\n\n        // uint256 amount = _setMoneyRetention(_pathHoldMoney, _question_id, _msgSender());\n        // if(_pathHoldMoney){\n        //     require(maticToken.allowance(_msgSender(), address(this)) >= amount, \"Do not enought Matic ethers\");\n        //     require(maticToken.transferFrom(_msgSender(), address(this), amount), \"Transfer Matic ethers error\");\n        // }else{\n        //     require(betteryToken.allowance(_msgSender(), address(this)) >= amount, \"Do not enought Bettery tokens\");\n        //     require(betteryToken.transferFrom(_msgSender(), address(this), amount), \"Transfer Bettery tokens error\");\n        // }\n       // emit payEvent(\"send\", amount, _pathHoldMoney, _msgSender(), \"hold money\", _question_id);\n        emit payEvent(\"send\", 0, _pathHoldMoney, _msgSender(), \"hold money\", _question_id);\n    }\n\n    function setAnswer(int256 _question_id, uint8 _whichAnswer, uint256 _amount) public payable {\n        bool payEther = questions[_question_id].payEther;\n        require(setTimeAnswer(_question_id) == 0, \"Time is not valid\");\n\n        Participant memory parts;\n        parts = Participant(_msgSender(), _amount);\n        questions[_question_id].participant[_whichAnswer].push(parts);\n        questions[_question_id].allParticipant.push(_msgSender());\n\n        questions[_question_id].pool += _amount;\n\n        if(payEther){\n            require(maticToken.allowance(_msgSender(), address(this)) >= _amount, \"Do not enought Matic ethers\");\n            require(maticToken.transferFrom(_msgSender(), address(this), _amount), \"Transfer Matic ethers error\");\n        }else{\n            require(betteryToken.allowance(_msgSender(), address(this)) >= _amount, \"Do not enought Bettery tokens\");\n            require(betteryToken.transferFrom(_msgSender(), address(this), _amount), \"Transfer Bettery tokens error\");\n        }\n\n        emit payEvent(\"send\", _amount, payEther, _msgSender(), \"participant\", _question_id);\n\n    }\n\n    function setValidator(int256 _question_id, uint8 _whichAnswer) public payable {\n        require(setTimeValidator(_question_id) == 0, \"Time is not valid\");\n        if(questions[_question_id].activeValidators == 0 && questions[_question_id].expertsQuantityWay == true){\n            setValidatorPercent(_question_id);\n        }\n        Validator memory valid;\n        valid = Validator(_msgSender());\n        questions[_question_id].validator[_whichAnswer].push(valid);\n        uint256 active = questions[_question_id].activeValidators + 1;\n        if (active == questions[_question_id].validatorsAmount) {\n            questions[_question_id].activeValidators = active;\n            letsFindCorrectAnswer(_question_id);\n        } else {\n            questions[_question_id].activeValidators = active;\n        }\n    }\n\n    function setValidatorPercent(int256 _question_id) private{\n        uint256 validatorPercent = getPersent(\n            questions[_question_id].allParticipant.length,\n            10\n        );\n        if(validatorPercent <= 3){\n           questions[_question_id].validatorsAmount = 3;\n        }else{\n            questions[_question_id].validatorsAmount = validatorPercent;\n        }\n    }\n\n    function letsFindCorrectAnswer(int256 _question_id) private {\n        uint256 biggestValue = 0;\n        uint256 correctAnswer;\n        uint8 questionQuantity = questions[_question_id].questionQuantity;\n\n        // find correct answer\n        for (uint8 i = 0; i < questionQuantity; i++) {\n            if (questions[_question_id].validator[i].length > biggestValue) {\n                biggestValue = questions[_question_id].validator[i].length;\n                correctAnswer = i;\n            }\n        }\n\n        findDuplicates(correctAnswer, biggestValue, _question_id, questionQuantity);\n    }\n\n    function findDuplicates(uint256 correctAnswer, uint256 biggestValue, int256 _question_id, uint8 questionQuantity) private {\n        if(questions[_question_id].validatorsAmount > 1){\n            uint8 duplicatesAnswers = 0;\n            uint256[] memory allValidatorsAnswers = new uint[](questionQuantity);\n            for (uint8 i = 0; i < questionQuantity; i++) {\n                allValidatorsAnswers[i] = questions[_question_id].validator[i].length;\n            }\n\n            setSort(allValidatorsAnswers);\n            sort();\n\n            for (uint8 i = 0; i < sortedArray.length - 1; i++) {\n                if((i+1) < sortedArray.length){\n                    if (sortedArray[i + 1] == sortedArray[i]) {\n                        if(biggestValue == sortedArray[i]){\n                            duplicatesAnswers ++;\n                        }\n                    }\n                }\n            }\n\n            if(duplicatesAnswers > 0){\n                // TO DO\n                revertedPayment(_question_id, \"duplicates validators\");\n            }else{\n                questions[_question_id].correctAnswer = correctAnswer;\n                findLosersPool(correctAnswer, _question_id);\n            }\n        }else{\n            questions[_question_id].correctAnswer = correctAnswer;\n            findLosersPool(correctAnswer, _question_id);\n        }\n        \n    }\n\n    function findLosersPool(uint256 correctAnswer, int256 _question_id) private {\n        bool payEther = questions[_question_id].payEther;\n        if (questions[_question_id].pool > 0) {\n            uint256 B;\n            uint256 n = questions[_question_id].participant[correctAnswer].length;\n            for (uint8 i = 0; i < n; i++) {\n                B = B + questions[_question_id].participant[correctAnswer][i].amount;\n            }\n            uint256 loserPool = questions[_question_id].pool - B;\n            if(loserPool == 0){\n                revertedPayment(_question_id, \"chosen only one answer\");\n            }else{\n                letsPayCompanyFee(correctAnswer, _question_id, loserPool, payEther);\n            }\n        }else{\n            emit eventIsFinish(_question_id, payEther, false);\n        }\n    }\n\n    function letsPayCompanyFee(uint256 correctAnswer, int256 _question_id, uint256 loserPool, bool payEther) private {\n        // pay fee for company\n        uint256 persentFee = getPersent(\n            loserPool,\n            percentQuiz\n        );\n        if(payEther){\n            require(maticToken.transfer(companyAddress, persentFee), \"Transfer Matic Ether to company is error\");\n        }else{\n            require(betteryToken.transfer(companyAddress, persentFee), \"Transfer Bettery token to company is error\");\n        }\n        questions[_question_id].persentFeeCompany = persentFee;\n\n        letsPayHostFee(correctAnswer, _question_id, payEther, loserPool);\n    }\n\n    function letsPayHostFee(uint256 correctAnswer, int256 _question_id, bool payEther, uint256 loserPool) private {\n        // pay fee for host\n        uint256 persHostFee = getPersent(\n            loserPool,\n            questions[_question_id].percentHost\n        );\n        address payable hostWallet = questions[_question_id].hostWallet;\n        if(payEther){require(maticToken.transfer(hostWallet, persHostFee), \"Transfer Matic Ether to host is error\");}\n        else {require(betteryToken.transfer(hostWallet, persHostFee), \"Transfer Bettery token to host is error\");}\n        questions[_question_id].persentFeeHost = persHostFee;\n\n        letsPayValidatorFee(correctAnswer, _question_id, payEther, loserPool);\n    }\n\n    function letsPayValidatorFee(uint256 correctAnswer, int256 _question_id, bool payEther, uint256 loserPool) private {\n        // calculate percent for validator\n        uint256 persentForValidators = getPersent(\n            loserPool,\n            questions[_question_id].percentValidator\n        );\n        uint256 persentForEachValidators = persentForValidators / questions[_question_id].validator[correctAnswer].length;\n\n        questions[_question_id].persentForEachValidators = persentForEachValidators;\n\n        // pay for validatos\n        for (uint8 i = 0; i < questions[_question_id].validator[correctAnswer].length; i++ ) {\n            address payable _validator = questions[_question_id].validator[correctAnswer][i].validators;\n\n            if(payEther){require(maticToken.transfer(_validator, persentForEachValidators), \"Transfer Matic Ether to validators is error\");}\n            else {require(betteryToken.transfer(_validator, persentForEachValidators), \"Transfer Bettery token to validators is error\");}\n        }\n\n        letsPayParticipantFee(correctAnswer, _question_id, payEther, loserPool);\n    }\n\n    function letsPayParticipantFee(uint256 correctAnswer, int256 _question_id, bool payEther, uint256 loserPool) private{\n        uint256 playersFee = getPersent(\n            loserPool,\n            90\n        );\n         // Pay for participant\n        uint256 B;\n        uint256 n = questions[_question_id].participant[correctAnswer].length;\n        for (uint8 i = 0; i < n; i++) {\n           B = B + questions[_question_id].participant[correctAnswer][i].amount;\n        }\n\n        for (uint8 i = 0; i < n; i++) {\n           address payable participant = questions[_question_id].participant[correctAnswer][i].participants;\n           uint256 Bn = questions[_question_id].participant[correctAnswer][i].amount;\n           uint256 rBn = Bn + ((playersFee * Bn) / B);\n           if(payEther){require(maticToken.transfer(participant, rBn), \"Transfer Matic Ether to participant is error\");}\n           else {require(betteryToken.transfer(participant, rBn), \"Transfer Bettery token to participant is error\");}\n        }\n\n        // Pay for losers\n        int256 questionQuantity = questions[_question_id].questionQuantity;\n        for(uint8 i = 0; i < questionQuantity; i++){\n            if(i != correctAnswer){\n                for(uint8 z = 0; z < questions[_question_id].participant[i].length; z++){\n                    address payable loserAddress = questions[_question_id].participant[i][z].participants;\n                    require(betteryToken.transfer(loserAddress, betteryAmount), \"Transfer for losers error\");\n                }\n            }\n        }\n        questions[_question_id].reverted = false;\n        emit eventIsFinish(_question_id, payEther, true);\n    }\n\n    function revertedPayment(int256 _question_id, string memory purpose) public{\n        require(msg.sender == companyAddress, \"Only owner can execute this function\");\n        bool payEther = questions[_question_id].payEther;\n        int256 questionQuantity = questions[_question_id].questionQuantity;\n\n        for (uint8 i = 0; i < questionQuantity; i++) {\n          for(uint8 index = 0; index < questions[_question_id].participant[i].length; index++){\n                address payable _participant = questions[_question_id].participant[i][index].participants;\n                uint256 price = questions[_question_id].participant[i][index].amount;\n                if(payEther){require(maticToken.transfer(_participant, price), \"Revert Matic ether to host is error\");}\n                else {require(betteryToken.transfer(_participant, price), \"Revert Bettery token to host is error\");}\n            }\n        }\n        questions[_question_id].reverted = true;\n        emit revertedEvent(_question_id, purpose);\n    }\n\n    function getPersent(uint256 _percent, uint256 _from)\n        private\n        pure\n        returns (uint256)\n    {\n        return (_from * _percent) / 100;\n    }\n\n    function getQuestion(int256 _question_id)\n        public\n        view\n        returns (\n            uint256 persentFeeCompany,\n            uint256 persentForEachValidators,\n            uint256 money,\n            bool reverted,\n            uint256 correctAnswer,\n            uint256 persentFeeHost\n        )\n    {\n        return (\n            questions[_question_id].persentFeeCompany,\n            questions[_question_id].persentForEachValidators,\n            questions[_question_id].pool,\n            questions[_question_id].reverted,\n            questions[_question_id].correctAnswer,\n            questions[_question_id].persentFeeHost\n        );\n    }\n\n    function deleteEvent(int256 _question_id) public {\n        require(\n            deleteEventValidator(_question_id) == 0,\n            \"Delete event is false\"\n        );\n        delete questions[_question_id];\n    }\n\n    function quizeBalance() public view returns (uint256) {\n        return address(this).balance;\n    }\n\n    function getContractTokenBalance() public view returns (uint256) {\n        return maticToken.balanceOf(address(this));\n    }\n\n    function getMoneyRetention(address payable _host) public payable {\n        (uint256 amount, address host, bool path, int256 _question_id) = _getMoneyRetention(_host);\n        if(path){require(maticToken.transfer(host, amount), \"Transfer Matic ether for money retention is error\");}\n        else {require(betteryToken.transfer(host, amount), \"Transfer Bettery token for money retention is error\");}\n\n\n        emit payEvent(\"receive\", amount, path, host, \"hold money\", _question_id);\n    }\n\n function amountGuard(bool _path, address payable wallet) public view returns (int8) {\n     uint256 balanceToken;\n     if(_path){balanceToken = maticToken.balanceOf(wallet);}\n     else {balanceToken = betteryToken.balanceOf(wallet);}\n\n     return _amountGuard(_path, balanceToken, wallet);\n }\n\n // VALIDATION\n\n     function setTimeValidator(int256 _question_id) public view returns (int8) {\n        if (int256(now - questions[_question_id].endTime) >= 0){\n            for (uint8 i = 0; i < questions[_question_id].allParticipant.length; i++) {\n                if (questions[_question_id].allParticipant[i] == _msgSender()) {\n                    return 3; // user can't validate because he participates in the event\n                }\n            }\n            // user can validate because time is valid.\n            return 0;\n        } else {\n            // user can't validate because event is not started yet.\n            return 1;\n        }\n    }\n\n    function setTimeAnswer(int256 _question_id) public view returns (int8) {\n        if (int256(now - questions[_question_id].startTime) >= 0) {\n            if (int256(questions[_question_id].endTime - now) >= 0) {\n                // user can make answer because time is valid.\n                return 0;\n            } else {\n                // user can't make answer because event is finish.\n                return 2;\n            }\n        } else {\n            // user can't make answer because event is not started yet.\n            return 1;\n        }\n    }\n\n    function deleteEventValidator(int256 _question_id)\n        public\n        view\n        returns (int8)\n    {\n        if (questions[_question_id].hostWallet == _msgSender()) {\n            if (questions[_question_id].pool == 0) {\n                // user can delete event\n                return 0;\n            } else {\n                // user can't delete event because event has money on balance\n                return 1;\n            }\n        } else {\n            // only owner can delete event.\n            return 2;\n        }\n    }\n}\n",
  "sourcePath": "/Users/macbook/Documents/freelance/node/QUIZE/contracts/contracts/matic_network/PublicEvent.sol",
  "compiler": {
    "name": "solc",
    "version": "0.6.6+commit.6c089d02.Linux.g++"
  },
  "schemaVersion": "3.2.2",
  "updatedAt": "2021-02-05T10:44:43.137Z",
  "networkType": "ethereum",
  "devdoc": {
    "methods": {}
  },
  "userdoc": {
    "methods": {}
  }
}