{
  "contractName": "Quize",
  "abi": [
    {
      "anonymous": false,
      "inputs": [
        {
          "indexed": false,
          "internalType": "int256",
          "name": "endTime",
          "type": "int256"
        },
        {
          "indexed": false,
          "internalType": "int8",
          "name": "questionQuantity",
          "type": "int8"
        },
        {
          "indexed": false,
          "internalType": "int256",
          "name": "startTime",
          "type": "int256"
        },
        {
          "indexed": false,
          "internalType": "int8",
          "name": "percentHost",
          "type": "int8"
        },
        {
          "indexed": false,
          "internalType": "int8",
          "name": "percentValidator",
          "type": "int8"
        }
      ],
      "name": "NewQuestionAdded",
      "type": "event"
    },
    {
      "constant": false,
      "inputs": [
        {
          "internalType": "address",
          "name": "host_wallet",
          "type": "address"
        },
        {
          "internalType": "int256",
          "name": "_question_id",
          "type": "int256"
        },
        {
          "internalType": "int256",
          "name": "_startTime",
          "type": "int256"
        },
        {
          "internalType": "int256",
          "name": "_endTime",
          "type": "int256"
        },
        {
          "internalType": "int8",
          "name": "_percentHost",
          "type": "int8"
        },
        {
          "internalType": "int8",
          "name": "_percentValidator",
          "type": "int8"
        },
        {
          "internalType": "int8",
          "name": "_questionQuantity",
          "type": "int8"
        }
      ],
      "name": "startQestion",
      "outputs": [],
      "payable": true,
      "stateMutability": "payable",
      "type": "function"
    },
    {
      "constant": false,
      "inputs": [
        {
          "internalType": "int256",
          "name": "_question_id",
          "type": "int256"
        },
        {
          "internalType": "uint8",
          "name": "_whichAnswer",
          "type": "uint8"
        },
        {
          "internalType": "uint256",
          "name": "_money",
          "type": "uint256"
        },
        {
          "internalType": "int256",
          "name": "_timeNow",
          "type": "int256"
        }
      ],
      "name": "setAnswer",
      "outputs": [],
      "payable": true,
      "stateMutability": "payable",
      "type": "function"
    },
    {
      "constant": false,
      "inputs": [
        {
          "internalType": "int256",
          "name": "_question_id",
          "type": "int256"
        },
        {
          "internalType": "address payable",
          "name": "_answer",
          "type": "address"
        },
        {
          "internalType": "uint8",
          "name": "_whichAnswer",
          "type": "uint8"
        },
        {
          "internalType": "int256",
          "name": "_timeNow",
          "type": "int256"
        }
      ],
      "name": "setValidator",
      "outputs": [],
      "payable": true,
      "stateMutability": "payable",
      "type": "function"
    },
    {
      "constant": true,
      "inputs": [
        {
          "internalType": "address",
          "name": "host_wallet",
          "type": "address"
        }
      ],
      "name": "getHostQestionsIndex",
      "outputs": [
        {
          "internalType": "uint256",
          "name": "",
          "type": "uint256"
        }
      ],
      "payable": false,
      "stateMutability": "view",
      "type": "function"
    },
    {
      "constant": true,
      "inputs": [
        {
          "internalType": "address",
          "name": "host_wallet",
          "type": "address"
        },
        {
          "internalType": "uint256",
          "name": "index",
          "type": "uint256"
        }
      ],
      "name": "getHostQestionsId",
      "outputs": [
        {
          "internalType": "int256",
          "name": "",
          "type": "int256"
        }
      ],
      "payable": false,
      "stateMutability": "view",
      "type": "function"
    },
    {
      "constant": false,
      "inputs": [
        {
          "internalType": "int256",
          "name": "_question_id",
          "type": "int256"
        }
      ],
      "name": "payQestion",
      "outputs": [],
      "payable": true,
      "stateMutability": "payable",
      "type": "function"
    },
    {
      "constant": true,
      "inputs": [
        {
          "internalType": "int256",
          "name": "_question_id",
          "type": "int256"
        }
      ],
      "name": "getQuestion",
      "outputs": [
        {
          "internalType": "int256",
          "name": "endTime",
          "type": "int256"
        },
        {
          "internalType": "int8",
          "name": "questionQuantity",
          "type": "int8"
        },
        {
          "internalType": "int256",
          "name": "startTime",
          "type": "int256"
        },
        {
          "internalType": "int8",
          "name": "percentHost",
          "type": "int8"
        },
        {
          "internalType": "int8",
          "name": "percentValidator",
          "type": "int8"
        }
      ],
      "payable": false,
      "stateMutability": "view",
      "type": "function"
    }
  ],
  "bytecode": "0x608060405260036000806101000a81548160ff021916908360000b60ff16021790555034801561002e57600080fd5b506111328061003e6000396000f3fe6080604052600436106100705760003560e01c80636dd4abce1161004e5780636dd4abce146101b0578063783e0240146101de578063b1fdb35a14610267578063b972c163146102cc57610070565b806357146e06146100755780635c60dead146100f257806361f7d9cf14610161575b600080fd5b34801561008157600080fd5b506100ae6004803603602081101561009857600080fd5b8101908080359060200190929190505050610331565b604051808681526020018560000b60000b81526020018481526020018360000b60000b81526020018260000b60000b81526020019550505050505060405180910390f35b3480156100fe57600080fd5b5061014b6004803603604081101561011557600080fd5b81019080803573ffffffffffffffffffffffffffffffffffffffff169060200190929190803590602001909291905050506103e6565b6040518082815260200191505060405180910390f35b6101ae6004803603608081101561017757600080fd5b8101908080359060200190929190803560ff1690602001909291908035906020019092919080359060200190929190505050610448565b005b6101dc600480360360208110156101c657600080fd5b8101908080359060200190929190505050610639565b005b610265600480360360e08110156101f457600080fd5b81019080803573ffffffffffffffffffffffffffffffffffffffff169060200190929190803590602001909291908035906020019092919080359060200190929190803560000b9060200190929190803560000b9060200190929190803560000b9060200190929190505050610bdd565b005b34801561027357600080fd5b506102b66004803603602081101561028a57600080fd5b81019080803573ffffffffffffffffffffffffffffffffffffffff169060200190929190505050610e6a565b6040518082815260200191505060405180910390f35b61032f600480360360808110156102e257600080fd5b8101908080359060200190929190803573ffffffffffffffffffffffffffffffffffffffff169060200190929190803560ff16906020019092919080359060200190929190505050610eb9565b005b600080600080600060016000878152602001908152602001600020600201546001600088815260200190815260200160002060030160009054906101000a900460000b6001600089815260200190815260200160002060010154600160008a815260200190815260200160002060050160009054906101000a900460000b600160008b815260200190815260200160002060050160019054906101000a900460000b9450945094509450945091939590929450565b6000600260008473ffffffffffffffffffffffffffffffffffffffff1673ffffffffffffffffffffffffffffffffffffffff168152602001908152602001600020600001828154811061043557fe5b9060005260206000200154905092915050565b60008160016000878152602001908152602001600020600101540390506000826001600088815260200190815260200160002060020154039050600082136105c3576000811261055057600160008781526020019081526020016000206006018560ff16815481106104b657fe5b906000526020600020016000013390806001815401808255809150509060018203906000526020600020016000909192909190916101000a81548173ffffffffffffffffffffffffffffffffffffffff021916908373ffffffffffffffffffffffffffffffffffffffff160217905550508360016000888152602001908152602001600020600401600082825401925050819055506105be565b6040517f08c379a00000000000000000000000000000000000000000000000000000000081526004018080602001828103825260128152602001807f546865206576656e742066696e6973686564000000000000000000000000000081525060200191505060405180910390fd5b610631565b6040517f08c379a000000000000000000000000000000000000000000000000000000000815260040180806020018281038252601c8152602001807f546865206576656e7420686173206e6f742079657420626567756e2e0000000081525060200191505060405180910390fd5b505050505050565b600060016000838152602001908152602001600020600101546001600084815260200190815260200160002060020154031315610bda5760006106a36000809054906101000a900460000b60000b6001600085815260200190815260200160002060040154610f76565b90508060016000848152602001908152602001600020600401540360016000848152602001908152602001600020600401819055503373ffffffffffffffffffffffffffffffffffffffff166108fc829081150290604051600060405180830381858888f1935050505015801561071e573d6000803e3d6000fd5b5060006001600084815260200190815260200160002060030160009054906101000a900460000b60000b9050606060008090505b828160ff1613156107ba57600160008681526020019081526020016000206007018160ff168154811061078157fe5b9060005260206000200160000180549050828260ff16815181106107a157fe5b6020026020010181815250508080600101915050610752565b5060006107c682610f8d565b905060006001600087815260200190815260200160002060050160019054906101000a900460000b60000b146109c157600061083e6001600088815260200190815260200160002060050160019054906101000a900460000b60000b6001600089815260200190815260200160002060040154610f76565b90506000600160008881526020019081526020016000206007018360ff168154811061086657fe5b9060005260206000200160000180549050828161087f57fe5b05905060008090505b600160008981526020019081526020016000206007018460ff16815481106108ac57fe5b90600052602060002001600001805490508160ff1611156109bd576000600160008a81526020019081526020016000206007018560ff16815481106108ed57fe5b906000526020600020016000018260ff168154811061090857fe5b9060005260206000200160009054906101000a900473ffffffffffffffffffffffffffffffffffffffff16905083600160008b81526020019081526020016000206004015403600160008b8152602001908152602001600020600401819055508073ffffffffffffffffffffffffffffffffffffffff166108fc849081150290604051600060405180830381858888f193505050501580156109ae573d6000803e3d6000fd5b50508080600101915050610888565b5050505b6000600160008781526020019081526020016000206006018260ff16815481106109e757fe5b9060005260206000200160000180549050600160008881526020019081526020016000206004015481610a1657fe5b04905060008090505b600160008881526020019081526020016000206006018360ff1681548110610a4357fe5b90600052602060002001600001805490508160ff161115610b21576000600160008981526020019081526020016000206006018460ff1681548110610a8457fe5b906000526020600020016000018260ff1681548110610a9f57fe5b9060005260206000200160009054906101000a900473ffffffffffffffffffffffffffffffffffffffff1690508073ffffffffffffffffffffffffffffffffffffffff166108fc849081150290604051600060405180830381858888f19350505050158015610b12573d6000803e3d6000fd5b50508080600101915050610a1f565b5060016000878152602001908152602001600020600080820160009055600182016000905560028201600090556003820160006101000a81549060ff021916905560048201600090556005820160006101000a81549060ff02191690556005820160016101000a81549060ff0219169055600682016000610ba29190610ff6565b600782016000610bb29190611017565b600882016000610bc29190611038565b600982016000610bd29190611038565b505050505050505b50565b600260008873ffffffffffffffffffffffffffffffffffffffff1673ffffffffffffffffffffffffffffffffffffffff168152602001908152602001600020600001869080600181540180825580915050906001820390600052602060002001600090919290919091505550856001600088815260200190815260200160002060000181905550836001600088815260200190815260200160002060020181905550806001600088815260200190815260200160002060030160006101000a81548160ff021916908360000b60ff1602179055508460016000888152602001908152602001600020600101819055507fffffffffffffffffffffffffffffffffffffffffffffffffffffffffffffffff8360000b1415610d2f5760036001600088815260200190815260200160002060050160006101000a81548160ff021916908360000b60ff160217905550610d62565b826001600088815260200190815260200160002060050160006101000a81548160ff021916908360000b60ff1602179055505b7fffffffffffffffffffffffffffffffffffffffffffffffffffffffffffffffff8260000b1415610dc55760056001600088815260200190815260200160002060050160016101000a81548160ff021916908360000b60ff160217905550610df8565b816001600088815260200190815260200160002060050160016101000a81548160ff021916908360000b60ff1602179055505b7feffecb84940c82e81eefc2662e9896256cbaf3ae6dbdc05cb987673f210ae7048482878686604051808681526020018560000b60000b81526020018481526020018360000b60000b81526020018260000b60000b81526020019550505050505060405180910390a150505050505050565b6000600260008373ffffffffffffffffffffffffffffffffffffffff1673ffffffffffffffffffffffffffffffffffffffff168152602001908152602001600020600001805490509050919050565b6000816001600087815260200190815260200160002060020154031315610f7057600160008581526020019081526020016000206007018260ff1681548110610efe57fe5b906000526020600020016000018390806001815401808255809150509060018203906000526020600020016000909192909190916101000a81548173ffffffffffffffffffffffffffffffffffffffff021916908373ffffffffffffffffffffffffffffffffffffffff160217905550505b50505050565b60008160648481610f8357fe5b0502905092915050565b600080600090506000600190505b83518160ff161015610fec57838260ff1681518110610fb657fe5b6020026020010151848260ff1681518110610fcd57fe5b60200260200101511115610fdf578091505b8080600101915050610f9b565b5080915050919050565b50805460008255906000526020600020908101906110149190611059565b50565b50805460008255906000526020600020908101906110359190611088565b50565b508054600082559060005260206000209081019061105691906110b7565b50565b61108591905b80821115611081576000808201600061107891906110dc565b5060010161105f565b5090565b90565b6110b491905b808211156110b057600080820160006110a791906110dc565b5060010161108e565b5090565b90565b6110d991905b808211156110d55760008160009055506001016110bd565b5090565b90565b50805460008255906000526020600020908101906110fa91906110b7565b5056fea265627a7a7231582015ac34f77852dfa00b4e7ff7fa121a7be35561da79a33b5b136f3757cae6d4e164736f6c634300050c0032",
  "source": "pragma solidity >=0.4.22 <0.6.0;\n\ncontract Quize {\n     int8 private percentQuiz = 3;\n\n     event NewQuestionAdded(\n           int256 endTime,\n           int8 questionQuantity,\n           int256 startTime,\n           int8 percentHost,\n           int8 percentValidator);\n\n     struct Participant{\n         address payable[] participants;\n     }\n\n    struct Validator{\n         address payable[] validators;\n     }\n\n     struct Qestion {\n         int question_id;\n         int256 startTime;\n         int256 endTime;\n         int8 questionQuantity;\n         uint256 money;\n         int8 percentHost;\n         int8 percentValidator;\n         Participant[] participant;\n         Validator[] validator;\n         address[] allParticipants;\n         address[] allValidator;\n     }\n\n     struct Host {\n         int[] qestions_id;\n     }\n\n        mapping (int => Qestion) qestions;\n        mapping (address => Host) host_id_wallet;\n\n    function startQestion(\n           address host_wallet,\n           int _question_id,\n           int256 _startTime,\n           int256 _endTime,\n           int8 _percentHost,\n           int8 _percentValidator,\n           int8 _questionQuantity\n        ) public payable {\n           host_id_wallet[host_wallet].qestions_id.push(_question_id);\n\n           qestions[_question_id].question_id = _question_id;\n           qestions[_question_id].endTime = _endTime;\n           qestions[_question_id].questionQuantity = _questionQuantity;\n           qestions[_question_id].startTime = _startTime;\n\n        if(_percentHost == -1){\n            qestions[_question_id].percentHost = 3;\n        }else{\n           qestions[_question_id].percentHost = _percentHost;\n        }\n\n        if(_percentValidator == -1){\n            qestions[_question_id].percentValidator = 5;\n        }else{\n           qestions[_question_id].percentValidator = _percentValidator;\n        }\n\n        emit NewQuestionAdded(\n            _endTime,\n            _questionQuantity,\n           _startTime,\n           _percentHost,\n           _percentValidator\n        );\n    }\n\n   function setAnswer(int _question_id, uint8 _whichAnswer, uint256 _money, int256 _timeNow) public payable{\n      int256 startTime = qestions[_question_id].startTime - _timeNow;\n      int256 endTime = qestions[_question_id].endTime - _timeNow;\n      if(startTime <= 0){\n          if(endTime >= 0 ){\n              qestions[_question_id].participant[_whichAnswer].participants.push(msg.sender);\n              qestions[_question_id].money += _money;\n          }else{\n            revert(\"The event finished\");\n          }\n      }else{\n          revert(\"The event has not yet begun.\");\n      }\n    }\n\n    function setValidator(int _question_id, address payable _answer, uint8 _whichAnswer, int256 _timeNow) public payable{\n       if((qestions[_question_id].endTime - _timeNow) > 0){\n           qestions[_question_id].validator[_whichAnswer].validators.push(_answer);\n       }\n    }\n\n\n    function getHostQestionsIndex(address host_wallet) public view returns(uint256){\n        return host_id_wallet[host_wallet].qestions_id.length;\n    }\n\n     function getHostQestionsId(address host_wallet, uint256 index) public view returns(int256){\n        return host_id_wallet[host_wallet].qestions_id[index];\n    }\n\n    function payQestion(int _question_id) public payable {\n        if((qestions[_question_id].endTime - qestions[_question_id].startTime) > 0){\n            // pay fee for company\n            int256 persentFee = getPersent(percentQuiz, int(qestions[_question_id].money));\n            qestions[_question_id].money = qestions[_question_id].money - uint(persentFee);\n            address(msg.sender).transfer(uint(persentFee));\n\n            int256 questionQuantity = qestions[_question_id].questionQuantity;\n            uint[] memory validator;\n\n            //Get length of validators\n            for(uint8 i = 0; i > questionQuantity; i++){\n               validator[i] = qestions[_question_id].validator[i].validators.length;\n            }\n            // Find corect answer\n            uint8 correctValidator = getIndexOfLargest(validator);\n\n            if(qestions[_question_id].percentValidator != 0){\n                int256 persentForValidators = getPersent(qestions[_question_id].percentValidator, int(qestions[_question_id].money));\n                int256 persentForEachValidators = persentForValidators / int(qestions[_question_id].validator[correctValidator].validators.length);\n\n                // Pay for validators\n                for(uint8 i = 0; i > qestions[_question_id].validator[correctValidator].validators.length; i++){\n                  address payable _validator = qestions[_question_id].validator[correctValidator].validators[i];\n                  qestions[_question_id].money = qestions[_question_id].money - uint(persentForValidators);\n                  address(_validator).transfer(uint(persentForEachValidators));\n                }\n            }\n\n\n            // Pay for participant\n            uint256 monayForParticipant = qestions[_question_id].money / qestions[_question_id].participant[correctValidator].participants.length;\n            for(uint8 i = 0; i > qestions[_question_id].participant[correctValidator].participants.length; i++){\n                address payable _participant = qestions[_question_id].participant[correctValidator].participants[i];\n                address(_participant).transfer(monayForParticipant);\n            }\n            delete qestions[_question_id];\n\n        }\n    }\n\n    function getPersent(int _percent, int _from) private pure returns(int256){\n       return (_percent / 100) * _from;\n    }\n\n    function getIndexOfLargest( uint[] memory array ) private pure returns(uint8){\n        uint8 largest = 0;\n        for ( uint8 i = 1; i < array.length; i++ ){\n           if ( array[i] > array[largest] ) largest = i;\n        }\n        return largest;\n    }\n\n    function getQuestion(int _question_id) public view returns(\n           int256 endTime,\n           int8 questionQuantity,\n           int256 startTime,\n           int8 percentHost,\n           int8 percentValidator\n           ){\n       return(qestions[_question_id].endTime,\n              qestions[_question_id].questionQuantity,\n              qestions[_question_id].startTime,\n              qestions[_question_id].percentHost,\n              qestions[_question_id].percentValidator);\n    }\n\n}",
  "sourcePath": "/Users/macbook/Documents/freelance/Angular/Quiz/contracts/Quize.sol",
  "compiler": {
    "name": "solc",
    "version": "0.5.12+commit.7709ece9.Emscripten.clang"
  },
  "schemaVersion": "3.0.19",
  "updatedAt": "2019-12-06T09:10:18.237Z",
  "networkType": "ethereum",
  "devdoc": {
    "methods": {}
  },
  "userdoc": {
    "methods": {}
  }
}