{
  "contractName": "Quize",
  "abi": [
    {
      "constant": false,
      "inputs": [
        {
          "name": "_question_id",
          "type": "int256"
        },
        {
          "name": "_endTime",
          "type": "uint256"
        }
      ],
      "name": "_setMoneyRetention",
      "outputs": [],
      "payable": true,
      "stateMutability": "payable",
      "type": "function"
    },
    {
      "constant": true,
      "inputs": [],
      "name": "amountGuard",
      "outputs": [
        {
          "name": "",
          "type": "int8"
        }
      ],
      "payable": false,
      "stateMutability": "view",
      "type": "function"
    },
    {
      "constant": true,
      "inputs": [],
      "name": "holdBalance",
      "outputs": [
        {
          "name": "",
          "type": "uint256"
        }
      ],
      "payable": false,
      "stateMutability": "view",
      "type": "function"
    },
    {
      "constant": true,
      "inputs": [],
      "name": "onHold",
      "outputs": [
        {
          "name": "",
          "type": "uint256"
        }
      ],
      "payable": false,
      "stateMutability": "view",
      "type": "function"
    },
    {
      "constant": true,
      "inputs": [
        {
          "name": "_question_id",
          "type": "int256"
        }
      ],
      "name": "getHoldMoneyById",
      "outputs": [
        {
          "name": "",
          "type": "uint256"
        }
      ],
      "payable": false,
      "stateMutability": "view",
      "type": "function"
    },
    {
      "constant": true,
      "inputs": [],
      "name": "moneyRetentionCalculate",
      "outputs": [
        {
          "name": "",
          "type": "uint256"
        }
      ],
      "payable": false,
      "stateMutability": "view",
      "type": "function"
    },
    {
      "constant": false,
      "inputs": [
        {
          "name": "_question_id",
          "type": "int256"
        }
      ],
      "name": "getMoneyRetention",
      "outputs": [],
      "payable": true,
      "stateMutability": "payable",
      "type": "function"
    },
    {
      "constant": true,
      "inputs": [],
      "name": "fullAmount",
      "outputs": [
        {
          "name": "",
          "type": "uint256"
        }
      ],
      "payable": false,
      "stateMutability": "view",
      "type": "function"
    },
    {
      "anonymous": false,
      "inputs": [
        {
          "indexed": false,
          "name": "question_id",
          "type": "int256"
        }
      ],
      "name": "eventIsFinish",
      "type": "event"
    },
    {
      "constant": false,
      "inputs": [
        {
          "name": "_question_id",
          "type": "int256"
        },
        {
          "name": "_startTime",
          "type": "uint256"
        },
        {
          "name": "_endTime",
          "type": "uint256"
        },
        {
          "name": "_percentHost",
          "type": "uint8"
        },
        {
          "name": "_percentValidator",
          "type": "uint8"
        },
        {
          "name": "_questionQuantity",
          "type": "uint8"
        },
        {
          "name": "_validatorsAmount",
          "type": "int256"
        },
        {
          "name": "_quizePrice",
          "type": "uint256"
        }
      ],
      "name": "startQestion",
      "outputs": [],
      "payable": true,
      "stateMutability": "payable",
      "type": "function"
    },
    {
      "constant": false,
      "inputs": [
        {
          "name": "_question_id",
          "type": "int256"
        },
        {
          "name": "_whichAnswer",
          "type": "uint8"
        }
      ],
      "name": "setAnswer",
      "outputs": [],
      "payable": true,
      "stateMutability": "payable",
      "type": "function"
    },
    {
      "constant": false,
      "inputs": [
        {
          "name": "_question_id",
          "type": "int256"
        },
        {
          "name": "_whichAnswer",
          "type": "uint8"
        }
      ],
      "name": "setValidator",
      "outputs": [],
      "payable": true,
      "stateMutability": "payable",
      "type": "function"
    },
    {
      "constant": true,
      "inputs": [
        {
          "name": "_question_id",
          "type": "int256"
        }
      ],
      "name": "getQuestion",
      "outputs": [
        {
          "name": "persentFeeCompany",
          "type": "uint256"
        },
        {
          "name": "persentForEachValidators",
          "type": "uint256"
        },
        {
          "name": "money",
          "type": "uint256"
        },
        {
          "name": "monayForParticipant",
          "type": "uint256"
        },
        {
          "name": "questionQuantity",
          "type": "uint8"
        },
        {
          "name": "correctAnswer",
          "type": "uint256"
        },
        {
          "name": "persentFeeHost",
          "type": "uint256"
        }
      ],
      "payable": false,
      "stateMutability": "view",
      "type": "function"
    },
    {
      "constant": true,
      "inputs": [
        {
          "name": "_question_id",
          "type": "int256"
        }
      ],
      "name": "setTimeValidator",
      "outputs": [
        {
          "name": "",
          "type": "int8"
        }
      ],
      "payable": false,
      "stateMutability": "view",
      "type": "function"
    },
    {
      "constant": true,
      "inputs": [
        {
          "name": "_question_id",
          "type": "int256"
        }
      ],
      "name": "setTimeAnswer",
      "outputs": [
        {
          "name": "",
          "type": "int8"
        }
      ],
      "payable": false,
      "stateMutability": "view",
      "type": "function"
    },
    {
      "constant": true,
      "inputs": [
        {
          "name": "_question_id",
          "type": "int256"
        }
      ],
      "name": "deleteEventValidator",
      "outputs": [
        {
          "name": "",
          "type": "int8"
        }
      ],
      "payable": false,
      "stateMutability": "view",
      "type": "function"
    },
    {
      "constant": false,
      "inputs": [
        {
          "name": "_question_id",
          "type": "int256"
        }
      ],
      "name": "deleteEvent",
      "outputs": [],
      "payable": false,
      "stateMutability": "nonpayable",
      "type": "function"
    },
    {
      "constant": true,
      "inputs": [],
      "name": "quizeBalance",
      "outputs": [
        {
          "name": "",
          "type": "uint256"
        }
      ],
      "payable": false,
      "stateMutability": "view",
      "type": "function"
    }
  ],
  "bytecode": "0x6080604052670de0b6b3a76400006000556002600360006101000a81548160ff021916908360ff16021790555062093a806005557302810c3bc07de2ddaef89827b0dd6b223c7759d5600660006101000a81548173ffffffffffffffffffffffffffffffffffffffff021916908373ffffffffffffffffffffffffffffffffffffffff16021790555034801561009457600080fd5b50611ca2806100a46000396000f3fe60806040526004361061011b576000357c010000000000000000000000000000000000000000000000000000000090048063834f8047116100b2578063bf792a9011610081578063bf792a901461044d578063c48a90391461047b578063c9e53b4b146104f9578063e4f8749614610534578063f5c1ec811461055f5761011b565b8063834f80471461032957806387b6608d1461037e5780638a1e576f146103d35780639eaecdb7146104225761011b565b80633493c862116100ee5780633493c862146101ef57806334be86c81461024457806357146e061461027f5780637fc50545146102fe5761011b565b806311c1721d146101205780631441dc561461015857806326c989df146101895780632a7100cc146101b4575b600080fd5b6101566004803603604081101561013657600080fd5b81019080803590602001909291908035906020019092919050505061058a565b005b34801561016457600080fd5b5061016d6106e9565b604051808260000b60000b815260200191505060405180910390f35b34801561019557600080fd5b5061019e610723565b6040518082815260200191505060405180910390f35b6101ed600480360360408110156101ca57600080fd5b8101908080359060200190929190803560ff169060200190929190505050610742565b005b3480156101fb57600080fd5b506102286004803603602081101561021257600080fd5b81019080803590602001909291905050506109ec565b604051808260000b60000b815260200191505060405180910390f35b61027d6004803603604081101561025a57600080fd5b8101908080359060200190929190803560ff169060200190929190505050610b17565b005b34801561028b57600080fd5b506102b8600480360360208110156102a257600080fd5b8101908080359060200190929190505050610d08565b604051808881526020018781526020018681526020018581526020018460ff1660ff16815260200183815260200182815260200197505050505050505060405180910390f35b34801561030a57600080fd5b50610313610dda565b6040518082815260200191505060405180910390f35b34801561033557600080fd5b506103626004803603602081101561034c57600080fd5b8101908080359060200190929190505050610eb0565b604051808260000b60000b815260200191505060405180910390f35b34801561038a57600080fd5b506103b7600480360360208110156103a157600080fd5b8101908080359060200190929190505050610f11565b604051808260000b60000b815260200191505060405180910390f35b3480156103df57600080fd5b5061040c600480360360208110156103f657600080fd5b8101908080359060200190929190505050610fb8565b6040518082815260200191505060405180910390f35b34801561042e57600080fd5b50610437610fd8565b6040518082815260200191505060405180910390f35b6104796004803603602081101561046357600080fd5b810190808035906020019092919050505061102d565b005b6104f7600480360361010081101561049257600080fd5b81019080803590602001909291908035906020019092919080359060200190929190803560ff169060200190929190803560ff169060200190929190803560ff169060200190929190803590602001909291908035906020019092919050505061116f565b005b34801561050557600080fd5b506105326004803603602081101561051c57600080fd5b8101908080359060200190929190505050611370565b005b34801561054057600080fd5b506105496114df565b6040518082815260200191505060405180910390f35b34801561056b57600080fd5b506105746114fe565b6040518082815260200191505060405180910390f35b610592610fd8565b34141515610608576040517f08c379a00000000000000000000000000000000000000000000000000000000081526004018080602001828103825260148152602001807f446f206e6f7420656e6f75676874206d6f6e657900000000000000000000000081525060200191505060405180910390fd5b336001600084815260200190815260200160002060000160006101000a81548173ffffffffffffffffffffffffffffffffffffffff021916908373ffffffffffffffffffffffffffffffffffffffff160217905550346001600084815260200190815260200160002060010181905550806001600084815260200190815260200160002060020181905550600260003373ffffffffffffffffffffffffffffffffffffffff1673ffffffffffffffffffffffffffffffffffffffff168152602001908152602001600020600001600081548092919060010191905055505050565b60006106f3610fd8565b3373ffffffffffffffffffffffffffffffffffffffff163110151561071b5760009050610720565b600190505b90565b60003073ffffffffffffffffffffffffffffffffffffffff1631905090565b600061074d83610eb0565b60000b1415156107c5576040517f08c379a00000000000000000000000000000000000000000000000000000000081526004018080602001828103825260118152602001807f54696d65206973206e6f742076616c696400000000000000000000000000000081525060200191505060405180910390fd5b600760008381526020019081526020016000206011015434141515610852576040517f08c379a00000000000000000000000000000000000000000000000000000000081526004018080602001828103825260138152602001807f4d6f6e657920646f206e6f7420656e6f7567680000000000000000000000000081525060200191505060405180910390fd5b34600760008481526020019081526020016000206004016000828254019250508190555060006007600084815260200190815260200160002060060160008360ff168152602001908152602001600020600101549050336007600085815260200190815260200160002060060160008460ff168152602001908152602001600020600001600083815260200190815260200160002060000160006101000a81548173ffffffffffffffffffffffffffffffffffffffff021916908373ffffffffffffffffffffffffffffffffffffffff160217905550600181016007600085815260200190815260200160002060060160008460ff16815260200190815260200160002060010181905550600760008481526020019081526020016000206010013390806001815401808255809150509060018203906000526020600020016000909192909190916101000a81548173ffffffffffffffffffffffffffffffffffffffff021916908373ffffffffffffffffffffffffffffffffffffffff1602179055505034600460008282540192505081905550505050565b60008060076000848152602001908152602001600020600201544203121515610b0d5760004260055460076000868152602001908152602001600020600201540103121515610b045760008090505b60076000848152602001908152602001600020601001805490508160ff161015610afa573373ffffffffffffffffffffffffffffffffffffffff16600760008581526020019081526020016000206010018260ff16815481101515610a9c57fe5b9060005260206000200160009054906101000a900473ffffffffffffffffffffffffffffffffffffffff1673ffffffffffffffffffffffffffffffffffffffff161415610aed576003915050610b12565b8080600101915050610a3b565b5060009050610b12565b60029050610b12565b600190505b919050565b6000610b22836109ec565b60000b141515610b9a576040517f08c379a00000000000000000000000000000000000000000000000000000000081526004018080602001828103825260118152602001807f54696d65206973206e6f742076616c696400000000000000000000000000000081525060200191505060405180910390fd5b60006007600084815260200190815260200160002060070160008360ff168152602001908152602001600020600101549050336007600085815260200190815260200160002060070160008460ff168152602001908152602001600020600001600083815260200190815260200160002060000160006101000a81548173ffffffffffffffffffffffffffffffffffffffff021916908373ffffffffffffffffffffffffffffffffffffffff160217905550600181016007600085815260200190815260200160002060070160008460ff168152602001908152602001600020600101819055506000600160076000868152602001908152602001600020600901540190506007600085815260200190815260200160002060080154811415610ce657806007600086815260200190815260200160002060090181905550610ce184611504565b610d02565b8060076000868152602001908152602001600020600901819055505b50505050565b600080600080600080600060076000898152602001908152602001600020600b0154600760008a8152602001908152602001600020600d0154600760008b815260200190815260200160002060040154600760008c8152602001908152602001600020600e0154600760008d815260200190815260200160002060030160009054906101000a900460ff16600760008e8152602001908152602001600020600f0154600760008f8152602001908152602001600020600c01549650965096509650965096509650919395979092949650565b60006001600260003373ffffffffffffffffffffffffffffffffffffffff1673ffffffffffffffffffffffffffffffffffffffff16815260200190815260200160002060000154101515610ea857600080905060008090505b600260003373ffffffffffffffffffffffffffffffffffffffff1673ffffffffffffffffffffffffffffffffffffffff168152602001908152602001600020600001548160ff16111515610e9e57610e8d8160ff16611bbe565b820191508080600101915050610e33565b5080915050610ead565b600090505b90565b60008060076000848152602001908152602001600020600101544203121515610f0757600042600760008581526020019081526020016000206002015403121515610efe5760009050610f0c565b60029050610f0c565b600190505b919050565b60003373ffffffffffffffffffffffffffffffffffffffff1660076000848152602001908152602001600020600a0160009054906101000a900473ffffffffffffffffffffffffffffffffffffffff1673ffffffffffffffffffffffffffffffffffffffff161415610fae57600060076000848152602001908152602001600020600401541415610fa55760009050610fb3565b60019050610fb3565b600290505b919050565b600060016000838152602001908152602001600020600101549050919050565b60006110286001600260003373ffffffffffffffffffffffffffffffffffffffff1673ffffffffffffffffffffffffffffffffffffffff1681526020019081526020016000206000015401611bbe565b905090565b60006001600083815260200190815260200160002060000160009054906101000a900473ffffffffffffffffffffffffffffffffffffffff169050600060016000848152602001908152602001600020600101549050600260008373ffffffffffffffffffffffffffffffffffffffff1673ffffffffffffffffffffffffffffffffffffffff16815260200190815260200160002060000160008154809291906001900391905055508173ffffffffffffffffffffffffffffffffffffffff166108fc829081150290604051600060405180830381858888f1935050505015801561111c573d6000803e3d6000fd5b5060016000848152602001908152602001600020600080820160006101000a81549073ffffffffffffffffffffffffffffffffffffffff0219169055600182016000905560028201600090555050505050565b87600760008a81526020019081526020016000206000018190555085600760008a81526020019081526020016000206002018190555082600760008a815260200190815260200160002060030160006101000a81548160ff021916908360ff16021790555086600760008a81526020019081526020016000206001018190555081600760008a81526020019081526020016000206008018190555033600760008a8152602001908152602001600020600a0160006101000a81548173ffffffffffffffffffffffffffffffffffffffff021916908373ffffffffffffffffffffffffffffffffffffffff16021790555080600760008a81526020019081526020016000206011018190555060008560ff1614156112bb576003600760008a815260200190815260200160002060050160006101000a81548160ff021916908360ff1602179055506112eb565b84600760008a815260200190815260200160002060050160006101000a81548160ff021916908360ff1602179055505b60008460ff16141561132c576005600760008a815260200190815260200160002060050160016101000a81548160ff021916908360ff16021790555061135c565b83600760008a815260200190815260200160002060050160016101000a81548160ff021916908360ff1602179055505b611366888761058a565b5050505050505050565b600061137b82610f11565b60000b1415156113f3576040517f08c379a00000000000000000000000000000000000000000000000000000000081526004018080602001828103825260158152602001807f44656c657465206576656e742069732066616c7365000000000000000000000081525060200191505060405180910390fd5b60076000828152602001908152602001600020600080820160009055600182016000905560028201600090556003820160006101000a81549060ff021916905560048201600090556005820160006101000a81549060ff02191690556005820160016101000a81549060ff021916905560088201600090556009820160009055600a820160006101000a81549073ffffffffffffffffffffffffffffffffffffffff0219169055600b820160009055600c820160009055600d820160009055600e820160009055600f8201600090556010820160006114d29190611c30565b6011820160009055505050565b60003073ffffffffffffffffffffffffffffffffffffffff1631905090565b60045481565b60008090506000806007600085815260200190815260200160002060030160009054906101000a900460ff1660ff16905060008090505b818160ff1612156115bf57836007600087815260200190815260200160002060070160008360ff1681526020019081526020016000206001015411156115b2576007600086815260200190815260200160002060070160008260ff1681526020019081526020016000206001015493508060ff1692505b808060010191505061153b565b508160076000868152602001908152602001600020600f0181905550600060076000868152602001908152602001600020600401541115611b8157600061162e6007600087815260200190815260200160002060040154600360009054906101000a900460ff1660ff16611c17565b90508060076000878152602001908152602001600020600401540360076000878152602001908152602001600020600401819055508060045403600481905550600660009054906101000a900473ffffffffffffffffffffffffffffffffffffffff1673ffffffffffffffffffffffffffffffffffffffff166108fc829081150290604051600060405180830381858888f193505050501580156116d6573d6000803e3d6000fd5b508060076000878152602001908152602001600020600b0181905550600061173a60076000888152602001908152602001600020600401546007600089815260200190815260200160002060050160009054906101000a900460ff1660ff16611c17565b9050806007600088815260200190815260200160002060040154036007600088815260200190815260200160002060040181905550806004540360048190555060076000878152602001908152602001600020600a0160009054906101000a900473ffffffffffffffffffffffffffffffffffffffff1673ffffffffffffffffffffffffffffffffffffffff166108fc829081150290604051600060405180830381858888f193505050501580156117f6573d6000803e3d6000fd5b508060076000888152602001908152602001600020600c0181905550600061185a6007600089815260200190815260200160002060040154600760008a815260200190815260200160002060050160019054906101000a900460ff1660ff16611c17565b90506000600760008981526020019081526020016000206007016000878152602001908152602001600020600101548281151561189357fe5b049050816004540360048190555080600760008a8152602001908152602001600020600d018190555060008090505b600760008a81526020019081526020016000206007016000888152602001908152602001600020600101548160ff1610156119e5576000600760008b8152602001908152602001600020600701600089815260200190815260200160002060000160008360ff16815260200190815260200160002060000160009054906101000a900473ffffffffffffffffffffffffffffffffffffffff16905082600760008c81526020019081526020016000206004015403600760008c8152602001908152602001600020600401819055508073ffffffffffffffffffffffffffffffffffffffff166108fc849081150290604051600060405180830381858888f193505050501580156119d6573d6000803e3d6000fd5b505080806001019150506118c2565b506000600760008a8152602001908152602001600020600601600088815260200190815260200160002060010154600760008b815260200190815260200160002060040154811515611a3357fe5b04905060008090505b600760008b81526020019081526020016000206006016000898152602001908152602001600020600101548160ff161015611b5f576000600760008c815260200190815260200160002060060160008a815260200190815260200160002060000160008360ff16815260200190815260200160002060000160009054906101000a900473ffffffffffffffffffffffffffffffffffffffff16905082600760008d81526020019081526020016000206004015403600760008d8152602001908152602001600020600401819055508073ffffffffffffffffffffffffffffffffffffffff166108fc849081150290604051600060405180830381858888f19350505050158015611b50573d6000803e3d6000fd5b50508080600101915050611a3c565b5080600760008b8152602001908152602001600020600e018190555050505050505b7fb0b53c79f7cd0d8c624f48414bdb76a381085a786cc7a98931e2fc76933b644e846040518082815260200191505060405180910390a150505050565b60008060005490506001831415611bd85780915050611c12565b600283101515611c10576000600190505b838160ff161015611c065781820191508080600101915050611be9565b5080915050611c12565b505b919050565b60006064838302811515611c2757fe5b04905092915050565b5080546000825590600052602060002090810190611c4e9190611c51565b50565b611c7391905b80821115611c6f576000816000905550600101611c57565b5090565b9056fea165627a7a723058206644f5c93572eadfd32fc6f22b00ba4f76eb35e17808437366f3fa526e4404a10029",
  "source": "pragma solidity ^0.5.2;\n\nimport \"./HoldMoney.sol\";\n\n\ncontract Quize is HoldMoney {\n    uint8 private percentQuiz = 2;\n    uint256 public fullAmount;\n    uint256 private sevenDaysTimeStamp = 604800;\n    address payable companyAddress = 0x02810c3bc07De2ddAef89827b0dD6b223C7759d5;\n\n    event eventIsFinish(int256 question_id);\n\n    struct Participant {\n        mapping(uint256 => Part) participants;\n        uint256 index;\n    }\n\n    struct Part {\n        address payable parts;\n    }\n\n    struct Validator {\n        mapping(uint256 => Valid) validators;\n        uint256 index;\n    }\n\n    struct Valid {\n        address payable valid;\n    }\n\n    struct Question {\n        int256 question_id;\n        uint256 startTime;\n        uint256 endTime;\n        uint8 questionQuantity;\n        uint256 money;\n        uint8 percentHost;\n        uint8 percentValidator;\n        mapping(uint256 => Participant) participant;\n        mapping(uint256 => Validator) validator;\n        int256 validatorsAmount;\n        int256 activeValidators;\n        address payable hostWallet;\n        uint256 persentFeeCompany;\n        uint256 persentFeeHost;\n        uint256 persentForEachValidators;\n        uint256 monayForParticipant;\n        uint256 correctAnswer;\n        address[] allParticipant;\n        uint256 quizePrice;\n    }\n\n    mapping(int256 => Question) questions;\n\n    function startQestion(\n        int256 _question_id,\n        uint256 _startTime,\n        uint256 _endTime,\n        uint8 _percentHost,\n        uint8 _percentValidator,\n        uint8 _questionQuantity,\n        int256 _validatorsAmount,\n        uint256 _quizePrice\n    ) public payable {\n        questions[_question_id].question_id = _question_id;\n        questions[_question_id].endTime = _endTime;\n        questions[_question_id].questionQuantity = _questionQuantity;\n        questions[_question_id].startTime = _startTime;\n        questions[_question_id].validatorsAmount = _validatorsAmount;\n        questions[_question_id].hostWallet = msg.sender;\n        questions[_question_id].quizePrice = _quizePrice;\n\n        if (_percentHost == 0) {\n            questions[_question_id].percentHost = 3;\n        } else {\n            questions[_question_id].percentHost = _percentHost;\n        }\n\n        if (_percentValidator == 0) {\n            questions[_question_id].percentValidator = 5;\n        } else {\n            questions[_question_id].percentValidator = _percentValidator;\n        }\n\n      _setMoneyRetention(_question_id, _endTime);\n    }\n\n    function setAnswer(int256 _question_id, uint8 _whichAnswer)\n      public\n      payable\n    {\n      require(setTimeAnswer(_question_id) == 0, \"Time is not valid\");\n      require(msg.value == questions[_question_id].quizePrice, \"Money do not enough\");\n\n      questions[_question_id].money += msg.value;\n      uint256 i = questions[_question_id].participant[_whichAnswer].index;\n      questions[_question_id].participant[_whichAnswer].participants[i].parts = msg.sender;\n      questions[_question_id].participant[_whichAnswer].index = i + 1;\n      questions[_question_id].allParticipant.push(msg.sender);\n      fullAmount += msg.value;\n\n    }\n\n    function setValidator(int256 _question_id, uint8 _whichAnswer)\n        public\n        payable\n    {\n      require(setTimeValidator(_question_id) == 0, \"Time is not valid\");\n      uint256 i = questions[_question_id].validator[_whichAnswer].index;\n      questions[_question_id].validator[_whichAnswer].validators[i].valid = msg.sender;\n      questions[_question_id].validator[_whichAnswer].index = i + 1;\n      int256 active = questions[_question_id].activeValidators + 1;\n      if (active == questions[_question_id].validatorsAmount) {\n        questions[_question_id].activeValidators = active;\n        letsPayMoney(_question_id);\n      } else {\n        questions[_question_id].activeValidators = active;\n      }\n    }\n\n    function letsPayMoney(int256 _question_id) private {\n        uint256 biggestValue = 0;\n        uint256 correctAnswer;\n        int256 questionQuantity = questions[_question_id].questionQuantity;\n\n        // find correct answer\n        for (uint8 i = 0; i < questionQuantity; i++) {\n            if (questions[_question_id].validator[i].index > biggestValue) {\n                biggestValue = questions[_question_id].validator[i].index;\n                correctAnswer = i;\n            }\n        }\n\n        questions[_question_id].correctAnswer = correctAnswer;\n\n        if (questions[_question_id].money > 0) {\n            // pay fee for company\n            uint256 persentFee = getPersent(\n                questions[_question_id].money,\n                percentQuiz\n            );\n            questions[_question_id].money =\n                questions[_question_id].money -\n                persentFee;\n            fullAmount = fullAmount - persentFee;\n            companyAddress.transfer(persentFee);\n\n            questions[_question_id].persentFeeCompany = persentFee;\n\n            // pay fee for host\n            uint256 persHostFee = getPersent(\n                questions[_question_id].money,\n                questions[_question_id].percentHost\n            );\n            questions[_question_id].money =\n                questions[_question_id].money -\n                persHostFee;\n            fullAmount = fullAmount - persHostFee;\n            questions[_question_id].hostWallet.transfer(persHostFee);\n\n            questions[_question_id].persentFeeHost = persHostFee;\n\n            // calculate percent for validator\n            uint256 persentForValidators = getPersent(\n                questions[_question_id].money,\n                questions[_question_id].percentValidator\n            );\n            uint256 persentForEachValidators = persentForValidators /\n                questions[_question_id].validator[correctAnswer].index;\n            fullAmount = fullAmount - persentForValidators;\n\n            questions[_question_id]\n                .persentForEachValidators = persentForEachValidators;\n\n            // pay for validatos\n            for (\n                uint8 i = 0;\n                i < questions[_question_id].validator[correctAnswer].index;\n                i++\n            ) {\n                address payable _validator = questions[_question_id]\n                    .validator[correctAnswer]\n                    .validators[i]\n                    .valid;\n                questions[_question_id].money =\n                    questions[_question_id].money -\n                    persentForEachValidators;\n                _validator.transfer(persentForEachValidators);\n            }\n\n            // Pay for participant\n            uint256 monayForParticipant = questions[_question_id].money /\n                questions[_question_id].participant[correctAnswer].index;\n            for (\n                uint8 i = 0;\n                i < questions[_question_id].participant[correctAnswer].index;\n                i++\n            ) {\n                address payable _participant = questions[_question_id]\n                    .participant[correctAnswer]\n                    .participants[i]\n                    .parts;\n                questions[_question_id].money =\n                    questions[_question_id].money -\n                    monayForParticipant;\n                _participant.transfer(monayForParticipant);\n            }\n\n            questions[_question_id].monayForParticipant = monayForParticipant;\n        }\n\n        emit eventIsFinish(_question_id);\n    }\n\n    function getPersent(uint256 _percent, uint256 _from)\n        private\n        pure\n        returns (uint256)\n    {\n        return (_from * _percent) / 100;\n    }\n\n    function getQuestion(int256 _question_id)\n        public\n        view\n        returns (\n            uint256 persentFeeCompany,\n            uint256 persentForEachValidators,\n            uint256 money,\n            uint256 monayForParticipant,\n            uint8 questionQuantity,\n            uint256 correctAnswer,\n            uint256 persentFeeHost\n        )\n    {\n        return (\n            questions[_question_id].persentFeeCompany,\n            questions[_question_id].persentForEachValidators,\n            questions[_question_id].money,\n            questions[_question_id].monayForParticipant,\n            questions[_question_id].questionQuantity,\n            questions[_question_id].correctAnswer,\n            questions[_question_id].persentFeeHost\n        );\n    }\n\n    function setTimeValidator(int256 _question_id) public view returns (int8) {\n        if (int256(now - questions[_question_id].endTime) >= 0) {\n            if (int256((questions[_question_id].endTime + sevenDaysTimeStamp) - now) >= 0) {\n                // if validator made activities like participants.\n                for (uint8 i = 0; i < questions[_question_id].allParticipant.length; i++) {\n                    if (questions[_question_id].allParticipant[i] == msg.sender) {\n                        return 3;\n                    }\n                }\n                // user can validate because time is valid.\n                return 0;\n            } else {\n                // user can't validate because time is finish.\n                return 2;\n            }\n        } else {\n            // user can't validate because event is not started yet.\n            return 1;\n        }\n    }\n\n    function setTimeAnswer(int256 _question_id) public view returns (int8) {\n        if (int256(now - questions[_question_id].startTime) >= 0) {\n            if (int256(questions[_question_id].endTime - now) >= 0) {\n                // user can make answer because time is valid.\n                return 0;\n            } else {\n                // user can't make answer because event is finish.\n                return 2;\n            }\n        } else {\n            // user can't make answer because event is not started yet.\n            return 1;\n        }\n    }\n\n    function deleteEventValidator(int256 _question_id)\n        public\n        view\n        returns (int8)\n    {\n        if (questions[_question_id].hostWallet == msg.sender) {\n            if (questions[_question_id].money == 0) {\n                // user can delete event\n                return 0;\n            } else {\n                // user can't delete event because event has money on balance\n                return 1;\n            }\n        } else {\n            // only owner can delete event.\n            return 2;\n        }\n    }\n\n    function deleteEvent(int256 _question_id) public {\n      require(deleteEventValidator(_question_id) == 0, \"Delete event is false\");\n        delete questions[_question_id];\n    }\n\n    function quizeBalance() public view returns (uint256){\n        return address(this).balance;\n    }\n}\n",
  "sourcePath": "/Users/macbook/Documents/freelance/node/QUIZE/frontend/contracts/Quize.sol",
  "compiler": {
    "name": "solc",
    "version": "0.5.2+commit.1df8f40c.Emscripten.clang"
  },
  "schemaVersion": "3.0.19",
  "updatedAt": "2020-03-27T16:00:20.773Z",
  "networkType": "ethereum",
  "devdoc": {
    "methods": {}
  },
  "userdoc": {
    "methods": {}
  }
}