{
  "contractName": "Quize",
  "abi": [
    {
      "constant": true,
      "inputs": [],
      "name": "_moneyRetentionCalculate",
      "outputs": [
        {
          "name": "",
          "type": "uint256"
        }
      ],
      "payable": false,
      "stateMutability": "view",
      "type": "function"
    },
    {
      "constant": true,
      "inputs": [],
      "name": "_onHold",
      "outputs": [
        {
          "name": "",
          "type": "uint256"
        }
      ],
      "payable": false,
      "stateMutability": "view",
      "type": "function"
    },
    {
      "constant": true,
      "inputs": [
        {
          "name": "_amountHost",
          "type": "uint256"
        }
      ],
      "name": "_amountGuard",
      "outputs": [
        {
          "name": "",
          "type": "int8"
        }
      ],
      "payable": false,
      "stateMutability": "view",
      "type": "function"
    },
    {
      "constant": true,
      "inputs": [
        {
          "name": "_question_id",
          "type": "int256"
        }
      ],
      "name": "_getHoldMoneyById",
      "outputs": [
        {
          "name": "",
          "type": "uint256"
        }
      ],
      "payable": false,
      "stateMutability": "view",
      "type": "function"
    },
    {
      "constant": false,
      "inputs": [
        {
          "name": "_amountHost",
          "type": "uint256"
        },
        {
          "name": "_question_id",
          "type": "int256"
        },
        {
          "name": "_money",
          "type": "uint256"
        },
        {
          "name": "_endTime",
          "type": "uint256"
        }
      ],
      "name": "_setMoneyRetention",
      "outputs": [],
      "payable": false,
      "stateMutability": "nonpayable",
      "type": "function"
    },
    {
      "constant": false,
      "inputs": [
        {
          "name": "_question_id",
          "type": "int256"
        }
      ],
      "name": "_getMoneyRetention",
      "outputs": [],
      "payable": true,
      "stateMutability": "payable",
      "type": "function"
    },
    {
      "constant": true,
      "inputs": [],
      "name": "fullAmount",
      "outputs": [
        {
          "name": "",
          "type": "uint256"
        }
      ],
      "payable": false,
      "stateMutability": "view",
      "type": "function"
    },
    {
      "anonymous": false,
      "inputs": [
        {
          "indexed": false,
          "name": "question_id",
          "type": "int256"
        }
      ],
      "name": "eventIsFinish",
      "type": "event"
    },
    {
      "constant": false,
      "inputs": [
        {
          "name": "_question_id",
          "type": "int256"
        },
        {
          "name": "_startTime",
          "type": "uint256"
        },
        {
          "name": "_endTime",
          "type": "uint256"
        },
        {
          "name": "_percentHost",
          "type": "uint8"
        },
        {
          "name": "_percentValidator",
          "type": "uint8"
        },
        {
          "name": "_questionQuantity",
          "type": "uint8"
        },
        {
          "name": "_validatorsAmount",
          "type": "int256"
        },
        {
          "name": "_amountHost",
          "type": "uint256"
        },
        {
          "name": "_money",
          "type": "uint256"
        }
      ],
      "name": "startQestion",
      "outputs": [],
      "payable": true,
      "stateMutability": "payable",
      "type": "function"
    },
    {
      "constant": false,
      "inputs": [
        {
          "name": "_question_id",
          "type": "int256"
        },
        {
          "name": "_whichAnswer",
          "type": "uint8"
        }
      ],
      "name": "setAnswer",
      "outputs": [],
      "payable": true,
      "stateMutability": "payable",
      "type": "function"
    },
    {
      "constant": false,
      "inputs": [
        {
          "name": "_question_id",
          "type": "int256"
        },
        {
          "name": "_whichAnswer",
          "type": "uint8"
        }
      ],
      "name": "setValidator",
      "outputs": [],
      "payable": true,
      "stateMutability": "payable",
      "type": "function"
    },
    {
      "constant": true,
      "inputs": [
        {
          "name": "_question_id",
          "type": "int256"
        }
      ],
      "name": "getQuestion",
      "outputs": [
        {
          "name": "persentFeeCompany",
          "type": "uint256"
        },
        {
          "name": "persentForEachValidators",
          "type": "uint256"
        },
        {
          "name": "money",
          "type": "uint256"
        },
        {
          "name": "monayForParticipant",
          "type": "uint256"
        },
        {
          "name": "questionQuantity",
          "type": "uint8"
        },
        {
          "name": "correctAnswer",
          "type": "uint256"
        },
        {
          "name": "persentFeeHost",
          "type": "uint256"
        }
      ],
      "payable": false,
      "stateMutability": "view",
      "type": "function"
    },
    {
      "constant": true,
      "inputs": [
        {
          "name": "_question_id",
          "type": "int256"
        }
      ],
      "name": "setTimeValidator",
      "outputs": [
        {
          "name": "",
          "type": "int8"
        }
      ],
      "payable": false,
      "stateMutability": "view",
      "type": "function"
    },
    {
      "constant": true,
      "inputs": [
        {
          "name": "_question_id",
          "type": "int256"
        }
      ],
      "name": "setTimeAnswer",
      "outputs": [
        {
          "name": "",
          "type": "int8"
        }
      ],
      "payable": false,
      "stateMutability": "view",
      "type": "function"
    },
    {
      "constant": true,
      "inputs": [
        {
          "name": "_question_id",
          "type": "int256"
        }
      ],
      "name": "deleteEventValidator",
      "outputs": [
        {
          "name": "",
          "type": "int8"
        }
      ],
      "payable": false,
      "stateMutability": "view",
      "type": "function"
    },
    {
      "constant": false,
      "inputs": [
        {
          "name": "_question_id",
          "type": "int256"
        }
      ],
      "name": "deleteEvent",
      "outputs": [],
      "payable": false,
      "stateMutability": "nonpayable",
      "type": "function"
    },
    {
      "constant": true,
      "inputs": [
        {
          "name": "_amountHost",
          "type": "uint256"
        }
      ],
      "name": "amountGuard",
      "outputs": [
        {
          "name": "",
          "type": "int8"
        }
      ],
      "payable": false,
      "stateMutability": "view",
      "type": "function"
    },
    {
      "constant": true,
      "inputs": [],
      "name": "onHold",
      "outputs": [
        {
          "name": "",
          "type": "uint256"
        }
      ],
      "payable": false,
      "stateMutability": "view",
      "type": "function"
    },
    {
      "constant": true,
      "inputs": [],
      "name": "moneyRetentionCalculate",
      "outputs": [
        {
          "name": "",
          "type": "uint256"
        }
      ],
      "payable": false,
      "stateMutability": "view",
      "type": "function"
    },
    {
      "constant": false,
      "inputs": [
        {
          "name": "_question_id",
          "type": "int256"
        }
      ],
      "name": "getMoneyRetention",
      "outputs": [],
      "payable": true,
      "stateMutability": "payable",
      "type": "function"
    },
    {
      "constant": true,
      "inputs": [
        {
          "name": "_question_id",
          "type": "int256"
        }
      ],
      "name": "getHoldMoneyById",
      "outputs": [
        {
          "name": "",
          "type": "uint256"
        }
      ],
      "payable": false,
      "stateMutability": "view",
      "type": "function"
    }
  ],
  "bytecode": "0x6080604052670de0b6b3a76400006000556002600360006101000a81548160ff021916908360ff16021790555062093a806005557302810c3bc07de2ddaef89827b0dd6b223c7759d5600660006101000a81548173ffffffffffffffffffffffffffffffffffffffff021916908373ffffffffffffffffffffffffffffffffffffffff16021790555034801561009457600080fd5b50611bf0806100a46000396000f3fe60806040526004361061013c576000357c0100000000000000000000000000000000000000000000000000000000900480638b861b19116100bd578063c1b3a33e11610081578063c1b3a33e14610590578063c9e53b4b146105df578063cc544e4f1461061a578063f5bfe69014610673578063f5c1ec81146106a15761013c565b80638b861b19146104055780639eaecdb71461045a578063a7ac89a714610485578063b649d6da146104da578063bf792a90146105625761013c565b80635ff799c0116101045780635ff799c0146102b65780637fc50545146102e1578063834f80471461030c57806387b6608d146103615780638a1e576f146103b65761013c565b80632a7100cc146101415780633493c8621461017c57806334be86c8146101d1578063560b251d1461020c57806357146e0614610237575b600080fd5b61017a6004803603604081101561015757600080fd5b8101908080359060200190929190803560ff1690602001909291905050506106cc565b005b34801561018857600080fd5b506101b56004803603602081101561019f57600080fd5b810190808035906020019092919050505061087b565b604051808260000b60000b815260200191505060405180910390f35b61020a600480360360408110156101e757600080fd5b8101908080359060200190929190803560ff1690602001909291905050506109a6565b005b34801561021857600080fd5b50610221610b29565b6040518082815260200191505060405180910390f35b34801561024357600080fd5b506102706004803603602081101561025a57600080fd5b8101908080359060200190929190505050610b7e565b604051808881526020018781526020018681526020018581526020018460ff1660ff16815260200183815260200182815260200197505050505050505060405180910390f35b3480156102c257600080fd5b506102cb610c50565b6040518082815260200191505060405180910390f35b3480156102ed57600080fd5b506102f6610d26565b6040518082815260200191505060405180910390f35b34801561031857600080fd5b506103456004803603602081101561032f57600080fd5b8101908080359060200190929190505050610d35565b604051808260000b60000b815260200191505060405180910390f35b34801561036d57600080fd5b5061039a6004803603602081101561038457600080fd5b8101908080359060200190929190505050610d96565b604051808260000b60000b815260200191505060405180910390f35b3480156103c257600080fd5b506103ef600480360360208110156103d957600080fd5b8101908080359060200190929190505050610e3d565b6040518082815260200191505060405180910390f35b34801561041157600080fd5b5061043e6004803603602081101561042857600080fd5b8101908080359060200190929190505050610e4f565b604051808260000b60000b815260200191505060405180910390f35b34801561046657600080fd5b5061046f610e74565b6040518082815260200191505060405180910390f35b34801561049157600080fd5b506104be600480360360208110156104a857600080fd5b8101908080359060200190929190505050610e83565b604051808260000b60000b815260200191505060405180910390f35b61056060048036036101208110156104f157600080fd5b81019080803590602001909291908035906020019092919080359060200190929190803560ff169060200190929190803560ff169060200190929190803560ff169060200190929190803590602001909291908035906020019092919080359060200190929190505050610e95565b005b61058e6004803603602081101561057857600080fd5b810190808035906020019092919050505061107e565b005b34801561059c57600080fd5b506105c9600480360360208110156105b357600080fd5b810190808035906020019092919050505061108a565b6040518082815260200191505060405180910390f35b3480156105eb57600080fd5b506106186004803603602081101561060257600080fd5b81019080803590602001909291905050506110aa565b005b34801561062657600080fd5b506106716004803603608081101561063d57600080fd5b81019080803590602001909291908035906020019092919080359060200190929190803590602001909291905050506111a3565b005b61069f6004803603602081101561068957600080fd5b81019080803590602001909291905050506112d1565b005b3480156106ad57600080fd5b506106b661144c565b6040518082815260200191505060405180910390f35b60006106d783610d35565b60000b14156108775734600760008481526020019081526020016000206004016000828254019250508190555060006007600084815260200190815260200160002060060160008360ff168152602001908152602001600020600101549050336007600085815260200190815260200160002060060160008460ff168152602001908152602001600020600001600083815260200190815260200160002060000160006101000a81548173ffffffffffffffffffffffffffffffffffffffff021916908373ffffffffffffffffffffffffffffffffffffffff160217905550600181016007600085815260200190815260200160002060060160008460ff16815260200190815260200160002060010181905550600760008481526020019081526020016000206010013390806001815401808255809150509060018203906000526020600020016000909192909190916101000a81548173ffffffffffffffffffffffffffffffffffffffff021916908373ffffffffffffffffffffffffffffffffffffffff1602179055505034600460008282540192505081905550505b5050565b6000806007600084815260200190815260200160002060020154420312151561099c57600042600554600760008681526020019081526020016000206002015401031215156109935760008090505b60076000848152602001908152602001600020601001805490508160ff161015610989573373ffffffffffffffffffffffffffffffffffffffff16600760008581526020019081526020016000206010018260ff1681548110151561092b57fe5b9060005260206000200160009054906101000a900473ffffffffffffffffffffffffffffffffffffffff1673ffffffffffffffffffffffffffffffffffffffff16141561097c5760039150506109a1565b80806001019150506108ca565b50600090506109a1565b600290506109a1565b600190505b919050565b60006109b18361087b565b60000b1415610b255760006007600084815260200190815260200160002060070160008360ff168152602001908152602001600020600101549050336007600085815260200190815260200160002060070160008460ff168152602001908152602001600020600001600083815260200190815260200160002060000160006101000a81548173ffffffffffffffffffffffffffffffffffffffff021916908373ffffffffffffffffffffffffffffffffffffffff160217905550600181016007600085815260200190815260200160002060070160008460ff168152602001908152602001600020600101819055506000600160076000868152602001908152602001600020600901540190506007600085815260200190815260200160002060080154811415610b0657806007600086815260200190815260200160002060090181905550610b0184611452565b610b22565b8060076000868152602001908152602001600020600901819055505b50505b5050565b6000610b796001600260003373ffffffffffffffffffffffffffffffffffffffff1673ffffffffffffffffffffffffffffffffffffffff1681526020019081526020016000206000015401611b0c565b905090565b600080600080600080600060076000898152602001908152602001600020600b0154600760008a8152602001908152602001600020600d0154600760008b815260200190815260200160002060040154600760008c8152602001908152602001600020600e0154600760008d815260200190815260200160002060030160009054906101000a900460ff16600760008e8152602001908152602001600020600f0154600760008f8152602001908152602001600020600c01549650965096509650965096509650919395979092949650565b60006001600260003373ffffffffffffffffffffffffffffffffffffffff1673ffffffffffffffffffffffffffffffffffffffff16815260200190815260200160002060000154101515610d1e57600080905060008090505b600260003373ffffffffffffffffffffffffffffffffffffffff1673ffffffffffffffffffffffffffffffffffffffff168152602001908152602001600020600001548160ff16111515610d1457610d038160ff16611b0c565b820191508080600101915050610ca9565b5080915050610d23565b600090505b90565b6000610d30610c50565b905090565b60008060076000848152602001908152602001600020600101544203121515610d8c57600042600760008581526020019081526020016000206002015403121515610d835760009050610d91565b60029050610d91565b600190505b919050565b60003373ffffffffffffffffffffffffffffffffffffffff1660076000848152602001908152602001600020600a0160009054906101000a900473ffffffffffffffffffffffffffffffffffffffff1673ffffffffffffffffffffffffffffffffffffffff161415610e3357600060076000848152602001908152602001600020600401541415610e2a5760009050610e38565b60019050610e38565b600290505b919050565b6000610e488261108a565b9050919050565b6000610e59610b29565b82101515610e6a5760009050610e6f565b600190505b919050565b6000610e7e610b29565b905090565b6000610e8e82610e4f565b9050919050565b88600760008b81526020019081526020016000206000018190555086600760008b81526020019081526020016000206002018190555083600760008b815260200190815260200160002060030160006101000a81548160ff021916908360ff16021790555087600760008b81526020019081526020016000206001018190555082600760008b81526020019081526020016000206008018190555033600760008b8152602001908152602001600020600a0160006101000a81548173ffffffffffffffffffffffffffffffffffffffff021916908373ffffffffffffffffffffffffffffffffffffffff16021790555060008660ff161415610fc6576003600760008b815260200190815260200160002060050160006101000a81548160ff021916908360ff160217905550610ff6565b85600760008b815260200190815260200160002060050160006101000a81548160ff021916908360ff1602179055505b60008560ff161415611037576005600760008b815260200190815260200160002060050160016101000a81548160ff021916908360ff160217905550611067565b84600760008b815260200190815260200160002060050160016101000a81548160ff021916908360ff1602179055505b611073828a838a6111a3565b505050505050505050565b611087816112d1565b50565b600060016000838152602001908152602001600020600101549050919050565b60006110b582610d96565b60000b14156111a05760076000828152602001908152602001600020600080820160009055600182016000905560028201600090556003820160006101000a81549060ff021916905560048201600090556005820160006101000a81549060ff02191690556005820160016101000a81549060ff021916905560088201600090556009820160009055600a820160006101000a81549073ffffffffffffffffffffffffffffffffffffffff0219169055600b820160009055600c820160009055600d820160009055600e820160009055600f82016000905560108201600061119d9190611b7e565b50505b50565b6111ab610b29565b841015156112cb57336001600085815260200190815260200160002060000160006101000a81548173ffffffffffffffffffffffffffffffffffffffff021916908373ffffffffffffffffffffffffffffffffffffffff1602179055508160016000858152602001908152602001600020600101819055508060016000858152602001908152602001600020600201819055506001600260003373ffffffffffffffffffffffffffffffffffffffff1673ffffffffffffffffffffffffffffffffffffffff1681526020019081526020016000206000015401600260003373ffffffffffffffffffffffffffffffffffffffff1673ffffffffffffffffffffffffffffffffffffffff168152602001908152602001600020600001819055505b50505050565b60006001600083815260200190815260200160002060000160009054906101000a900473ffffffffffffffffffffffffffffffffffffffff1690506000600160008481526020019081526020016000206001015490506001600260008473ffffffffffffffffffffffffffffffffffffffff1673ffffffffffffffffffffffffffffffffffffffff1681526020019081526020016000206000015403600260008473ffffffffffffffffffffffffffffffffffffffff1673ffffffffffffffffffffffffffffffffffffffff168152602001908152602001600020600001819055508173ffffffffffffffffffffffffffffffffffffffff166108fc829081150290604051600060405180830381858888f193505050501580156113f9573d6000803e3d6000fd5b5060016000848152602001908152602001600020600080820160006101000a81549073ffffffffffffffffffffffffffffffffffffffff0219169055600182016000905560028201600090555050505050565b60045481565b60008090506000806007600085815260200190815260200160002060030160009054906101000a900460ff1660ff16905060008090505b818160ff16121561150d57836007600087815260200190815260200160002060070160008360ff168152602001908152602001600020600101541115611500576007600086815260200190815260200160002060070160008260ff1681526020019081526020016000206001015493508060ff1692505b8080600101915050611489565b508160076000868152602001908152602001600020600f0181905550600060076000868152602001908152602001600020600401541115611acf57600061157c6007600087815260200190815260200160002060040154600360009054906101000a900460ff1660ff16611b65565b90508060076000878152602001908152602001600020600401540360076000878152602001908152602001600020600401819055508060045403600481905550600660009054906101000a900473ffffffffffffffffffffffffffffffffffffffff1673ffffffffffffffffffffffffffffffffffffffff166108fc829081150290604051600060405180830381858888f19350505050158015611624573d6000803e3d6000fd5b508060076000878152602001908152602001600020600b0181905550600061168860076000888152602001908152602001600020600401546007600089815260200190815260200160002060050160009054906101000a900460ff1660ff16611b65565b9050806007600088815260200190815260200160002060040154036007600088815260200190815260200160002060040181905550806004540360048190555060076000878152602001908152602001600020600a0160009054906101000a900473ffffffffffffffffffffffffffffffffffffffff1673ffffffffffffffffffffffffffffffffffffffff166108fc829081150290604051600060405180830381858888f19350505050158015611744573d6000803e3d6000fd5b508060076000888152602001908152602001600020600c018190555060006117a86007600089815260200190815260200160002060040154600760008a815260200190815260200160002060050160019054906101000a900460ff1660ff16611b65565b9050600060076000898152602001908152602001600020600701600087815260200190815260200160002060010154828115156117e157fe5b049050816004540360048190555080600760008a8152602001908152602001600020600d018190555060008090505b600760008a81526020019081526020016000206007016000888152602001908152602001600020600101548160ff161015611933576000600760008b8152602001908152602001600020600701600089815260200190815260200160002060000160008360ff16815260200190815260200160002060000160009054906101000a900473ffffffffffffffffffffffffffffffffffffffff16905082600760008c81526020019081526020016000206004015403600760008c8152602001908152602001600020600401819055508073ffffffffffffffffffffffffffffffffffffffff166108fc849081150290604051600060405180830381858888f19350505050158015611924573d6000803e3d6000fd5b50508080600101915050611810565b506000600760008a8152602001908152602001600020600601600088815260200190815260200160002060010154600760008b81526020019081526020016000206004015481151561198157fe5b04905060008090505b600760008b81526020019081526020016000206006016000898152602001908152602001600020600101548160ff161015611aad576000600760008c815260200190815260200160002060060160008a815260200190815260200160002060000160008360ff16815260200190815260200160002060000160009054906101000a900473ffffffffffffffffffffffffffffffffffffffff16905082600760008d81526020019081526020016000206004015403600760008d8152602001908152602001600020600401819055508073ffffffffffffffffffffffffffffffffffffffff166108fc849081150290604051600060405180830381858888f19350505050158015611a9e573d6000803e3d6000fd5b5050808060010191505061198a565b5080600760008b8152602001908152602001600020600e018190555050505050505b7fb0b53c79f7cd0d8c624f48414bdb76a381085a786cc7a98931e2fc76933b644e846040518082815260200191505060405180910390a150505050565b60008060005490506001831415611b265780915050611b60565b600283101515611b5e576000600190505b838160ff161015611b545781820191508080600101915050611b37565b5080915050611b60565b505b919050565b60006064838302811515611b7557fe5b04905092915050565b5080546000825590600052602060002090810190611b9c9190611b9f565b50565b611bc191905b80821115611bbd576000816000905550600101611ba5565b5090565b9056fea165627a7a723058205568444f02ad96c58691fa2914db2a6e9edf9c59cfc09628e460833e5ddbe3ae0029",
  "source": "pragma solidity ^0.5.2;\n\nimport \"./HoldMoney.sol\";\n\ncontract Quize is HoldMoney {\n     uint8 private percentQuiz = 2;\n     uint256 public fullAmount;\n     uint256 private sevenDaysTimeStamp = 604800;\n     address payable companyAddress = 0x02810c3bc07De2ddAef89827b0dD6b223C7759d5;\n\n    event eventIsFinish(\n        int question_id\n        );\n\n    struct Participant{\n        mapping (uint256 => Part) participants;\n        uint256 index;\n    }\n\n    struct Part {\n        address payable parts;\n    }\n\n    struct Validator{\n        mapping (uint256 => Valid) validators;\n        uint256 index;\n    }\n\n    struct Valid {\n        address payable valid;\n    }\n\n     struct Question {\n         int question_id;\n         uint256 startTime;\n         uint256 endTime;\n         uint8 questionQuantity;\n         uint256 money;\n         uint8 percentHost;\n         uint8 percentValidator;\n         mapping (uint256 => Participant) participant;\n         mapping (uint256 => Validator) validator;\n         int validatorsAmount;\n         int activeValidators;\n         address payable hostWallet;\n         uint persentFeeCompany;\n         uint persentFeeHost;\n         uint persentForEachValidators;\n         uint monayForParticipant;\n         uint correctAnswer;\n         address[] allParticipant;\n     }\n\n        mapping (int => Question) questions;\n\n    function startQestion(\n           int _question_id,\n           uint256 _startTime,\n           uint256 _endTime,\n           uint8 _percentHost,\n           uint8 _percentValidator,\n           uint8 _questionQuantity,\n           int _validatorsAmount,\n           uint256 _amountHost,\n           uint256 _money\n        ) public payable {\n           questions[_question_id].question_id = _question_id;\n           questions[_question_id].endTime = _endTime;\n           questions[_question_id].questionQuantity = _questionQuantity;\n           questions[_question_id].startTime = _startTime;\n           questions[_question_id].validatorsAmount = _validatorsAmount;\n           questions[_question_id].hostWallet = msg.sender;\n\n        if(_percentHost == 0){\n            questions[_question_id].percentHost = 3;\n        }else{\n           questions[_question_id].percentHost = _percentHost;\n        }\n\n        if(_percentValidator == 0){\n            questions[_question_id].percentValidator = 5;\n        }else{\n           questions[_question_id].percentValidator = _percentValidator;\n        }\n\n        _setMoneyRetention(_amountHost, _question_id, _money, _endTime);\n    }\n\n   function setAnswer(int256 _question_id, uint8 _whichAnswer) public payable{\n      if(setTimeAnswer(_question_id) == 0){\n        questions[_question_id].money += msg.value;\n        uint256 i = questions[_question_id].participant[_whichAnswer].index;\n        questions[_question_id].participant[_whichAnswer].participants[i].parts = msg.sender;\n        questions[_question_id].participant[_whichAnswer].index = i + 1;\n        questions[_question_id].allParticipant.push(msg.sender);\n        fullAmount += msg.value;\n      }\n    }\n\n    function setValidator(int _question_id, uint8 _whichAnswer ) public payable{\n      if(setTimeValidator(_question_id) == 0){\n        uint256 i = questions[_question_id].validator[_whichAnswer].index;\n        questions[_question_id].validator[_whichAnswer].validators[i].valid = msg.sender;\n        questions[_question_id].validator[_whichAnswer].index = i + 1;\n        int active = questions[_question_id].activeValidators + 1;\n        if(active == questions[_question_id].validatorsAmount){\n          questions[_question_id].activeValidators = active;\n          letsPayMoney(_question_id);\n        }else{\n          questions[_question_id].activeValidators = active;\n          }\n      }\n    }\n\n    function letsPayMoney(int _question_id) private {\n       uint biggestValue = 0;\n       uint correctAnswer;\n       int256 questionQuantity = questions[_question_id].questionQuantity;\n\n        // find correct answer\n        for(uint8 i = 0; i < questionQuantity; i++){\n          if(questions[_question_id].validator[i].index > biggestValue){\n              biggestValue = questions[_question_id].validator[i].index;\n              correctAnswer = i;\n          }\n        }\n\n        questions[_question_id].correctAnswer = correctAnswer;\n\n\n        if(questions[_question_id].money > 0){\n           // pay fee for company\n           uint256 persentFee = getPersent(questions[_question_id].money, percentQuiz);\n           questions[_question_id].money = questions[_question_id].money - persentFee;\n           fullAmount = fullAmount - persentFee;\n           companyAddress.transfer(persentFee);\n\n           questions[_question_id].persentFeeCompany = persentFee;\n\n          // pay fee for host\n           uint256 persHostFee = getPersent(questions[_question_id].money, questions[_question_id].percentHost);\n           questions[_question_id].money = questions[_question_id].money - persHostFee;\n           fullAmount = fullAmount - persHostFee;\n           questions[_question_id].hostWallet.transfer(persHostFee);\n\n           questions[_question_id].persentFeeHost = persHostFee;\n\n           // calculate percent for validator\n           uint256 persentForValidators = getPersent(questions[_question_id].money, questions[_question_id].percentValidator);\n           uint256 persentForEachValidators = persentForValidators / questions[_question_id].validator[correctAnswer].index;\n           fullAmount = fullAmount - persentForValidators;\n\n           questions[_question_id].persentForEachValidators = persentForEachValidators;\n\n\n           // pay for validatos\n           for(uint8 i = 0; i < questions[_question_id].validator[correctAnswer].index; i++){\n             address payable _validator = questions[_question_id].validator[correctAnswer].validators[i].valid;\n             questions[_question_id].money = questions[_question_id].money - persentForEachValidators;\n             _validator.transfer(persentForEachValidators);\n          }\n\n             // Pay for participant\n            uint256 monayForParticipant = questions[_question_id].money / questions[_question_id].participant[correctAnswer].index;\n            for(uint8 i = 0; i < questions[_question_id].participant[correctAnswer].index; i++){\n                address payable _participant = questions[_question_id].participant[correctAnswer].participants[i].parts;\n                questions[_question_id].money = questions[_question_id].money - monayForParticipant;\n                _participant.transfer(monayForParticipant);\n            }\n\n            questions[_question_id].monayForParticipant = monayForParticipant;\n        }\n\n\n        emit eventIsFinish(\n            _question_id\n        );\n    }\n\n\n    function getPersent(uint _percent, uint _from) private pure returns(uint){\n       return _from * _percent / 100;\n    }\n\n    function getQuestion(int _question_id) public view returns(\n           uint persentFeeCompany,\n           uint persentForEachValidators,\n           uint256 money,\n           uint monayForParticipant,\n           uint8 questionQuantity,\n           uint correctAnswer,\n           uint persentFeeHost\n           ){\n       return(\n              questions[_question_id].persentFeeCompany,\n              questions[_question_id].persentForEachValidators,\n              questions[_question_id].money,\n              questions[_question_id].monayForParticipant,\n              questions[_question_id].questionQuantity,\n              questions[_question_id].correctAnswer,\n              questions[_question_id].persentFeeHost\n              );\n    }\n\n    function setTimeValidator(int _question_id) public view returns(int8){\n        if(int(now - questions[_question_id].endTime) >= 0){\n          if(int((questions[_question_id].endTime + sevenDaysTimeStamp) - now) >= 0){\n\n        // if validator made activities like participants.\n          for(uint8 i = 0; i < questions[_question_id].allParticipant.length; i++){\n           if(questions[_question_id].allParticipant[i] == msg.sender){\n               return 3;\n           }\n          }\n            // user can validate because time is valid.\n            return 0;\n          }else{\n            // user can't validate because time is finish.\n            return 2;\n          }\n        }else{\n            // user can't validate because event is not started yet.\n            return 1;\n        }\n    }\n\n    function setTimeAnswer(int256 _question_id) public view returns(int8){\n         if(int(now - questions[_question_id].startTime) >= 0){\n            if(int(questions[_question_id].endTime - now) >= 0){\n            // user can make answer because time is valid.\n              return 0;\n            }else{\n            // user can't make answer because event is finish.\n              return 2;\n            }\n         }else{\n             // user can't make answer because event is not started yet.\n             return 1;\n         }\n      }\n\n      function deleteEventValidator(int _question_id) public view returns(int8){\n          if(questions[_question_id].hostWallet == msg.sender){\n            if(questions[_question_id].money == 0){\n              // user can delete event\n              return 0;\n            }else{\n              // user can't delete event because event has money on balance\n              return 1;\n            }\n          }else{\n              // only owner can delete event.\n              return 2;\n          }\n      }\n\n      function deleteEvent(int _question_id) public {\n          if(deleteEventValidator(_question_id) == 0){\n            delete questions[_question_id];\n          }\n      }\n\n      function amountGuard(uint256 _amountHost) public view returns(int8){\n        return _amountGuard(_amountHost);\n      }\n\n      function onHold() public view returns(uint){\n        return _onHold();\n      }\n\n      function moneyRetentionCalculate() public view returns(uint){\n        return _moneyRetentionCalculate();\n      }\n\n      function getMoneyRetention(int256 _question_id) public payable{\n        _getMoneyRetention(_question_id);\n      }\n\n      function getHoldMoneyById(int256 _question_id) public view returns(uint256){\n        return _getHoldMoneyById(_question_id);\n      }\n}",
  "sourcePath": "/Users/macbook/Documents/freelance/node/QUIZE/frontend/contracts/Quize.sol",
  "compiler": {
    "name": "solc",
    "version": "0.5.2+commit.1df8f40c.Emscripten.clang"
  },
  "schemaVersion": "3.0.19",
  "updatedAt": "2020-03-20T09:47:37.470Z",
  "networkType": "ethereum",
  "devdoc": {
    "methods": {}
  },
  "userdoc": {
    "methods": {}
  }
}