{
  "contractName": "Quize",
  "abi": [
    {
      "anonymous": false,
      "inputs": [
        {
          "indexed": false,
          "internalType": "uint256",
          "name": "endTime",
          "type": "uint256"
        },
        {
          "indexed": false,
          "internalType": "int8",
          "name": "questionQuantity",
          "type": "int8"
        },
        {
          "indexed": false,
          "internalType": "uint256",
          "name": "startTime",
          "type": "uint256"
        },
        {
          "indexed": false,
          "internalType": "int8",
          "name": "percentHost",
          "type": "int8"
        },
        {
          "indexed": false,
          "internalType": "int8",
          "name": "percentValidator",
          "type": "int8"
        }
      ],
      "name": "NewQuestionAdded",
      "type": "event"
    },
    {
      "constant": false,
      "inputs": [
        {
          "internalType": "address",
          "name": "host_wallet",
          "type": "address"
        },
        {
          "internalType": "int256",
          "name": "_question_id",
          "type": "int256"
        },
        {
          "internalType": "uint256",
          "name": "_startTime",
          "type": "uint256"
        },
        {
          "internalType": "uint256",
          "name": "_endTime",
          "type": "uint256"
        },
        {
          "internalType": "int8",
          "name": "_percentHost",
          "type": "int8"
        },
        {
          "internalType": "int8",
          "name": "_percentValidator",
          "type": "int8"
        },
        {
          "internalType": "int8",
          "name": "_questionQuantity",
          "type": "int8"
        }
      ],
      "name": "startQestion",
      "outputs": [],
      "payable": true,
      "stateMutability": "payable",
      "type": "function"
    },
    {
      "constant": false,
      "inputs": [
        {
          "internalType": "int256",
          "name": "_question_id",
          "type": "int256"
        },
        {
          "internalType": "address payable",
          "name": "_answer",
          "type": "address"
        },
        {
          "internalType": "uint8",
          "name": "_whichAnswer",
          "type": "uint8"
        },
        {
          "internalType": "uint256",
          "name": "money",
          "type": "uint256"
        }
      ],
      "name": "setAnswer",
      "outputs": [],
      "payable": true,
      "stateMutability": "payable",
      "type": "function"
    },
    {
      "constant": false,
      "inputs": [
        {
          "internalType": "int256",
          "name": "_question_id",
          "type": "int256"
        },
        {
          "internalType": "address payable",
          "name": "_answer",
          "type": "address"
        },
        {
          "internalType": "uint8",
          "name": "_whichAnswer",
          "type": "uint8"
        }
      ],
      "name": "setValidator",
      "outputs": [],
      "payable": true,
      "stateMutability": "payable",
      "type": "function"
    },
    {
      "constant": true,
      "inputs": [
        {
          "internalType": "int256",
          "name": "_question_id",
          "type": "int256"
        }
      ],
      "name": "getTimer",
      "outputs": [
        {
          "internalType": "uint256",
          "name": "",
          "type": "uint256"
        }
      ],
      "payable": false,
      "stateMutability": "view",
      "type": "function"
    },
    {
      "constant": true,
      "inputs": [
        {
          "internalType": "address",
          "name": "host_wallet",
          "type": "address"
        }
      ],
      "name": "getHostQestionsIndex",
      "outputs": [
        {
          "internalType": "uint256",
          "name": "",
          "type": "uint256"
        }
      ],
      "payable": false,
      "stateMutability": "view",
      "type": "function"
    },
    {
      "constant": true,
      "inputs": [
        {
          "internalType": "address",
          "name": "host_wallet",
          "type": "address"
        },
        {
          "internalType": "uint256",
          "name": "index",
          "type": "uint256"
        }
      ],
      "name": "getHostQestionsId",
      "outputs": [
        {
          "internalType": "int256",
          "name": "",
          "type": "int256"
        }
      ],
      "payable": false,
      "stateMutability": "view",
      "type": "function"
    },
    {
      "constant": false,
      "inputs": [
        {
          "internalType": "int256",
          "name": "_question_id",
          "type": "int256"
        }
      ],
      "name": "payQestion",
      "outputs": [],
      "payable": true,
      "stateMutability": "payable",
      "type": "function"
    },
    {
      "constant": true,
      "inputs": [
        {
          "internalType": "int256",
          "name": "_question_id",
          "type": "int256"
        }
      ],
      "name": "getQuestion",
      "outputs": [
        {
          "internalType": "uint256",
          "name": "endTime",
          "type": "uint256"
        },
        {
          "internalType": "int8",
          "name": "questionQuantity",
          "type": "int8"
        },
        {
          "internalType": "uint256",
          "name": "startTime",
          "type": "uint256"
        },
        {
          "internalType": "int8",
          "name": "percentHost",
          "type": "int8"
        },
        {
          "internalType": "int8",
          "name": "percentValidator",
          "type": "int8"
        }
      ],
      "payable": false,
      "stateMutability": "view",
      "type": "function"
    },
    {
      "constant": true,
      "inputs": [
        {
          "internalType": "int256",
          "name": "_question_id",
          "type": "int256"
        }
      ],
      "name": "getTime",
      "outputs": [
        {
          "internalType": "uint256",
          "name": "",
          "type": "uint256"
        }
      ],
      "payable": false,
      "stateMutability": "view",
      "type": "function"
    }
  ],
  "bytecode": "0x608060405260036000806101000a81548160ff021916908360000b60ff16021790555034801561002e57600080fd5b506111238061003e6000396000f3fe6080604052600436106100865760003560e01c80636dd4abce116100595780636dd4abce14610221578063b1fdb35a1461024f578063cad84688146102b4578063db78f68e14610319578063e086461b1461036857610086565b80630d83cb921461008b57806357146e06146100da5780635c60dead1461015757806366d480d1146101c6575b600080fd5b34801561009757600080fd5b506100c4600480360360208110156100ae57600080fd5b81019080803590602001909291905050506103f1565b6040518082815260200191505060405180910390f35b3480156100e657600080fd5b50610113600480360360208110156100fd57600080fd5b8101908080359060200190929190505050610413565b604051808681526020018560000b60000b81526020018481526020018360000b60000b81526020018260000b60000b81526020019550505050505060405180910390f35b34801561016357600080fd5b506101b06004803603604081101561017a57600080fd5b81019080803573ffffffffffffffffffffffffffffffffffffffff169060200190929190803590602001909291905050506104c8565b6040518082815260200191505060405180910390f35b61021f600480360360608110156101dc57600080fd5b8101908080359060200190929190803573ffffffffffffffffffffffffffffffffffffffff169060200190929190803560ff16906020019092919050505061052a565b005b61024d6004803603602081101561023757600080fd5b81019080803590602001909291905050506105e6565b005b34801561025b57600080fd5b5061029e6004803603602081101561027257600080fd5b81019080803573ffffffffffffffffffffffffffffffffffffffff169060200190929190505050610b8a565b6040518082815260200191505060405180910390f35b610317600480360360808110156102ca57600080fd5b8101908080359060200190929190803573ffffffffffffffffffffffffffffffffffffffff169060200190929190803560ff16906020019092919080359060200190929190505050610bd9565b005b34801561032557600080fd5b506103526004803603602081101561033c57600080fd5b8101908080359060200190929190505050610cba565b6040518082815260200191505060405180910390f35b6103ef600480360360e081101561037e57600080fd5b81019080803573ffffffffffffffffffffffffffffffffffffffff169060200190929190803590602001909291908035906020019092919080359060200190929190803560000b9060200190929190803560000b9060200190929190803560000b9060200190929190505050610cda565b005b6000426001600084815260200190815260200160002060020154039050919050565b600080600080600060016000878152602001908152602001600020600201546001600088815260200190815260200160002060030160009054906101000a900460000b6001600089815260200190815260200160002060010154600160008a815260200190815260200160002060050160009054906101000a900460000b600160008b815260200190815260200160002060050160019054906101000a900460000b9450945094509450945091939590929450565b6000600260008473ffffffffffffffffffffffffffffffffffffffff1673ffffffffffffffffffffffffffffffffffffffff168152602001908152602001600020600001828154811061051757fe5b9060005260206000200154905092915050565b60004260016000868152602001908152602001600020600201540311156105e157600160008481526020019081526020016000206007018160ff168154811061056f57fe5b906000526020600020016000018290806001815401808255809150509060018203906000526020600020016000909192909190916101000a81548173ffffffffffffffffffffffffffffffffffffffff021916908373ffffffffffffffffffffffffffffffffffffffff160217905550505b505050565b600060016000838152602001908152602001600020600101546001600084815260200190815260200160002060020154031115610b875760006106506000809054906101000a900460000b60000b6001600085815260200190815260200160002060040154610f67565b90508060016000848152602001908152602001600020600401540360016000848152602001908152602001600020600401819055503373ffffffffffffffffffffffffffffffffffffffff166108fc829081150290604051600060405180830381858888f193505050501580156106cb573d6000803e3d6000fd5b5060006001600084815260200190815260200160002060030160009054906101000a900460000b60000b9050606060008090505b828160ff16131561076757600160008681526020019081526020016000206007018160ff168154811061072e57fe5b9060005260206000200160000180549050828260ff168151811061074e57fe5b60200260200101818152505080806001019150506106ff565b50600061077382610f7e565b905060006001600087815260200190815260200160002060050160019054906101000a900460000b60000b1461096e5760006107eb6001600088815260200190815260200160002060050160019054906101000a900460000b60000b6001600089815260200190815260200160002060040154610f67565b90506000600160008881526020019081526020016000206007018360ff168154811061081357fe5b9060005260206000200160000180549050828161082c57fe5b05905060008090505b600160008981526020019081526020016000206007018460ff168154811061085957fe5b90600052602060002001600001805490508160ff16111561096a576000600160008a81526020019081526020016000206007018560ff168154811061089a57fe5b906000526020600020016000018260ff16815481106108b557fe5b9060005260206000200160009054906101000a900473ffffffffffffffffffffffffffffffffffffffff16905083600160008b81526020019081526020016000206004015403600160008b8152602001908152602001600020600401819055508073ffffffffffffffffffffffffffffffffffffffff166108fc849081150290604051600060405180830381858888f1935050505015801561095b573d6000803e3d6000fd5b50508080600101915050610835565b5050505b6000600160008781526020019081526020016000206006018260ff168154811061099457fe5b90600052602060002001600001805490506001600088815260200190815260200160002060040154816109c357fe5b04905060008090505b600160008881526020019081526020016000206006018360ff16815481106109f057fe5b90600052602060002001600001805490508160ff161115610ace576000600160008981526020019081526020016000206006018460ff1681548110610a3157fe5b906000526020600020016000018260ff1681548110610a4c57fe5b9060005260206000200160009054906101000a900473ffffffffffffffffffffffffffffffffffffffff1690508073ffffffffffffffffffffffffffffffffffffffff166108fc849081150290604051600060405180830381858888f19350505050158015610abf573d6000803e3d6000fd5b505080806001019150506109cc565b5060016000878152602001908152602001600020600080820160009055600182016000905560028201600090556003820160006101000a81549060ff021916905560048201600090556005820160006101000a81549060ff02191690556005820160016101000a81549060ff0219169055600682016000610b4f9190610fe7565b600782016000610b5f9190611008565b600882016000610b6f9190611029565b600982016000610b7f9190611029565b505050505050505b50565b6000600260008373ffffffffffffffffffffffffffffffffffffffff1673ffffffffffffffffffffffffffffffffffffffff168152602001908152602001600020600001805490509050919050565b6000426001600087815260200190815260200160002060020154031115610cb457600160008581526020019081526020016000206006018260ff1681548110610c1e57fe5b906000526020600020016000018390806001815401808255809150509060018203906000526020600020016000909192909190916101000a81548173ffffffffffffffffffffffffffffffffffffffff021916908373ffffffffffffffffffffffffffffffffffffffff160217905550508060016000868152602001908152602001600020600401600082825401925050819055505b50505050565b600060016000838152602001908152602001600020600201549050919050565b600260008873ffffffffffffffffffffffffffffffffffffffff1673ffffffffffffffffffffffffffffffffffffffff168152602001908152602001600020600001869080600181540180825580915050906001820390600052602060002001600090919290919091505550856001600088815260200190815260200160002060000181905550836001600088815260200190815260200160002060020181905550806001600088815260200190815260200160002060030160006101000a81548160ff021916908360000b60ff1602179055508460016000888152602001908152602001600020600101819055507fffffffffffffffffffffffffffffffffffffffffffffffffffffffffffffffff8360000b1415610e2c5760036001600088815260200190815260200160002060050160006101000a81548160ff021916908360000b60ff160217905550610e5f565b826001600088815260200190815260200160002060050160006101000a81548160ff021916908360000b60ff1602179055505b7fffffffffffffffffffffffffffffffffffffffffffffffffffffffffffffffff8260000b1415610ec25760056001600088815260200190815260200160002060050160016101000a81548160ff021916908360000b60ff160217905550610ef5565b816001600088815260200190815260200160002060050160016101000a81548160ff021916908360000b60ff1602179055505b7f7fcd55246a448e787d9539568b0d70d407c8f746d6c2d1444ad2ec3d4850e8e58482878686604051808681526020018560000b60000b81526020018481526020018360000b60000b81526020018260000b60000b81526020019550505050505060405180910390a150505050505050565b60008160648481610f7457fe5b0502905092915050565b600080600090506000600190505b83518160ff161015610fdd57838260ff1681518110610fa757fe5b6020026020010151848260ff1681518110610fbe57fe5b60200260200101511115610fd0578091505b8080600101915050610f8c565b5080915050919050565b5080546000825590600052602060002090810190611005919061104a565b50565b50805460008255906000526020600020908101906110269190611079565b50565b508054600082559060005260206000209081019061104791906110a8565b50565b61107691905b80821115611072576000808201600061106991906110cd565b50600101611050565b5090565b90565b6110a591905b808211156110a1576000808201600061109891906110cd565b5060010161107f565b5090565b90565b6110ca91905b808211156110c65760008160009055506001016110ae565b5090565b90565b50805460008255906000526020600020908101906110eb91906110a8565b5056fea265627a7a72315820224a1b50ea9ca37e732d0d72848a0b92b7d456f9866bfe0401ab47b5cb269bba64736f6c634300050c0032",
  "source": "pragma solidity >=0.4.22 <0.6.0;\n\ncontract Quize {\n     int8 private percentQuiz = 3;\n\n     event NewQuestionAdded(\n           uint256 endTime,\n           int8 questionQuantity,\n           uint256 startTime,\n           int8 percentHost,\n           int8 percentValidator);\n\n     struct Participant{\n         address payable[] participants;\n     }\n\n    struct Validator{\n         address payable[] validators;\n     }\n\n     struct Qestion {\n         int question_id;\n         uint256 startTime;\n         uint256 endTime;\n         int8 questionQuantity;\n         uint256 money;\n         int8 percentHost;\n         int8 percentValidator;\n         Participant[] participant;\n         Validator[] validator;\n         address[] allParticipants;\n         address[] allValidator;\n     }\n\n     struct Host {\n         int[] qestions_id;\n     }\n\n        mapping (int => Qestion) qestions;\n        mapping (address => Host) host_id_wallet;\n\n    function startQestion(\n           address host_wallet,\n           int _question_id,\n           uint256 _startTime,\n           uint256 _endTime,\n           int8 _percentHost,\n           int8 _percentValidator,\n           int8 _questionQuantity\n        ) public payable {\n           host_id_wallet[host_wallet].qestions_id.push(_question_id);\n\n           qestions[_question_id].question_id = _question_id;\n           qestions[_question_id].endTime = _endTime;\n           qestions[_question_id].questionQuantity = _questionQuantity;\n           qestions[_question_id].startTime = _startTime;\n\n        if(_percentHost == -1){\n            qestions[_question_id].percentHost = 3;\n        }else{\n           qestions[_question_id].percentHost = _percentHost;\n        }\n\n        if(_percentValidator == -1){\n            qestions[_question_id].percentValidator = 5;\n        }else{\n           qestions[_question_id].percentValidator = _percentValidator;\n        }\n\n        emit NewQuestionAdded(\n            _endTime,\n            _questionQuantity,\n           _startTime,\n           _percentHost,\n           _percentValidator\n        );\n    }\n\n   function setAnswer(int _question_id, address payable _answer, uint8 _whichAnswer, uint256 money) public payable{\n       if((qestions[_question_id].endTime - block.timestamp) > 0){\n           qestions[_question_id].participant[_whichAnswer].participants.push(_answer);\n           qestions[_question_id].money += money;\n       }\n    }\n\n    function setValidator(int _question_id, address payable _answer, uint8 _whichAnswer) public payable{\n       if((qestions[_question_id].endTime - block.timestamp) > 0){\n           qestions[_question_id].validator[_whichAnswer].validators.push(_answer);\n       }\n    }\n\n    function getTimer(int _question_id) public view returns(uint256) {\n        return qestions[_question_id].endTime - block.timestamp;\n    }\n\n    function getHostQestionsIndex(address host_wallet) public view returns(uint256){\n        return host_id_wallet[host_wallet].qestions_id.length;\n    }\n\n     function getHostQestionsId(address host_wallet, uint256 index) public view returns(int256){\n        return host_id_wallet[host_wallet].qestions_id[index];\n    }\n\n    function payQestion(int _question_id) public payable {\n        if((qestions[_question_id].endTime - qestions[_question_id].startTime) > 0){\n            // pay fee for company\n            int256 persentFee = getPersent(percentQuiz, int(qestions[_question_id].money));\n            qestions[_question_id].money = qestions[_question_id].money - uint(persentFee);\n            address(msg.sender).transfer(uint(persentFee));\n\n            int256 questionQuantity = qestions[_question_id].questionQuantity;\n            uint[] memory validator;\n\n            //Get length of validators\n            for(uint8 i = 0; i > questionQuantity; i++){\n               validator[i] = qestions[_question_id].validator[i].validators.length;\n            }\n            // Find corect answer\n            uint8 correctValidator = getIndexOfLargest(validator);\n\n            if(qestions[_question_id].percentValidator != 0){\n                int256 persentForValidators = getPersent(qestions[_question_id].percentValidator, int(qestions[_question_id].money));\n                int256 persentForEachValidators = persentForValidators / int(qestions[_question_id].validator[correctValidator].validators.length);\n\n                // Pay for validators\n                for(uint8 i = 0; i > qestions[_question_id].validator[correctValidator].validators.length; i++){\n                  address payable _validator = qestions[_question_id].validator[correctValidator].validators[i];\n                  qestions[_question_id].money = qestions[_question_id].money - uint(persentForValidators);\n                  address(_validator).transfer(uint(persentForEachValidators));\n                }\n            }\n\n\n            // Pay for participant\n            uint256 monayForParticipant = qestions[_question_id].money / qestions[_question_id].participant[correctValidator].participants.length;\n            for(uint8 i = 0; i > qestions[_question_id].participant[correctValidator].participants.length; i++){\n                address payable _participant = qestions[_question_id].participant[correctValidator].participants[i];\n                address(_participant).transfer(monayForParticipant);\n            }\n            delete qestions[_question_id];\n\n        }\n    }\n\n    function getPersent(int _percent, int _from) private pure returns(int256){\n       return (_percent / 100) * _from;\n    }\n\n    function getIndexOfLargest( uint[] memory array ) private pure returns(uint8){\n        uint8 largest = 0;\n        for ( uint8 i = 1; i < array.length; i++ ){\n           if ( array[i] > array[largest] ) largest = i;\n        }\n        return largest;\n    }\n\n    function getQuestion(int _question_id) public view returns(\n           uint256 endTime,\n           int8 questionQuantity,\n           uint256 startTime,\n           int8 percentHost,\n           int8 percentValidator\n           ){\n       return(qestions[_question_id].endTime,\n              qestions[_question_id].questionQuantity,\n              qestions[_question_id].startTime,\n              qestions[_question_id].percentHost,\n              qestions[_question_id].percentValidator);\n    }\n\n    function getTime(int _question_id) public view returns(uint256){\n        return qestions[_question_id].endTime;\n    }\n\n}",
  "sourcePath": "/Users/macbook/Documents/freelance/Angular/Quiz/contracts/Quize.sol",
  "compiler": {
    "name": "solc",
    "version": "0.5.12+commit.7709ece9.Emscripten.clang"
  },
  "schemaVersion": "3.0.19",
  "updatedAt": "2019-11-23T09:47:58.283Z",
  "networkType": "ethereum",
  "devdoc": {
    "methods": {}
  },
  "userdoc": {
    "methods": {}
  }
}