{
  "contractName": "Quize",
  "abi": [
    {
      "anonymous": false,
      "inputs": [
        {
          "indexed": false,
          "internalType": "int256",
          "name": "question_id",
          "type": "int256"
        }
      ],
      "name": "eventIsFinish",
      "type": "event"
    },
    {
      "constant": false,
      "inputs": [
        {
          "internalType": "int256",
          "name": "_question_id",
          "type": "int256"
        },
        {
          "internalType": "uint256",
          "name": "_startTime",
          "type": "uint256"
        },
        {
          "internalType": "uint256",
          "name": "_endTime",
          "type": "uint256"
        },
        {
          "internalType": "uint8",
          "name": "_percentHost",
          "type": "uint8"
        },
        {
          "internalType": "uint8",
          "name": "_percentValidator",
          "type": "uint8"
        },
        {
          "internalType": "uint8",
          "name": "_questionQuantity",
          "type": "uint8"
        },
        {
          "internalType": "int256",
          "name": "_validatorsAmount",
          "type": "int256"
        }
      ],
      "name": "startQestion",
      "outputs": [],
      "payable": true,
      "stateMutability": "payable",
      "type": "function"
    },
    {
      "constant": false,
      "inputs": [
        {
          "internalType": "int256",
          "name": "_question_id",
          "type": "int256"
        },
        {
          "internalType": "uint8",
          "name": "_whichAnswer",
          "type": "uint8"
        }
      ],
      "name": "setAnswer",
      "outputs": [],
      "payable": true,
      "stateMutability": "payable",
      "type": "function"
    },
    {
      "constant": true,
      "inputs": [],
      "name": "getFullAmount",
      "outputs": [
        {
          "internalType": "uint256",
          "name": "",
          "type": "uint256"
        }
      ],
      "payable": false,
      "stateMutability": "view",
      "type": "function"
    },
    {
      "constant": false,
      "inputs": [
        {
          "internalType": "int256",
          "name": "_question_id",
          "type": "int256"
        },
        {
          "internalType": "uint8",
          "name": "_whichAnswer",
          "type": "uint8"
        }
      ],
      "name": "setValidator",
      "outputs": [],
      "payable": true,
      "stateMutability": "payable",
      "type": "function"
    },
    {
      "constant": true,
      "inputs": [
        {
          "internalType": "int256",
          "name": "_question_id",
          "type": "int256"
        }
      ],
      "name": "getQuestion",
      "outputs": [
        {
          "internalType": "uint256",
          "name": "persentFeeCompany",
          "type": "uint256"
        },
        {
          "internalType": "uint256",
          "name": "persentForEachValidators",
          "type": "uint256"
        },
        {
          "internalType": "uint256",
          "name": "money",
          "type": "uint256"
        },
        {
          "internalType": "uint256",
          "name": "monayForParticipant",
          "type": "uint256"
        },
        {
          "internalType": "uint8",
          "name": "questionQuantity",
          "type": "uint8"
        },
        {
          "internalType": "uint256",
          "name": "correctAnswer",
          "type": "uint256"
        },
        {
          "internalType": "uint256",
          "name": "persentFeeHost",
          "type": "uint256"
        }
      ],
      "payable": false,
      "stateMutability": "view",
      "type": "function"
    },
    {
      "constant": true,
      "inputs": [
        {
          "internalType": "int256",
          "name": "_question_id",
          "type": "int256"
        }
      ],
      "name": "setTimeValidator",
      "outputs": [
        {
          "internalType": "int8",
          "name": "",
          "type": "int8"
        }
      ],
      "payable": false,
      "stateMutability": "view",
      "type": "function"
    },
    {
      "constant": true,
      "inputs": [
        {
          "internalType": "int256",
          "name": "_question_id",
          "type": "int256"
        }
      ],
      "name": "setTimeAnswer",
      "outputs": [
        {
          "internalType": "int8",
          "name": "",
          "type": "int8"
        }
      ],
      "payable": false,
      "stateMutability": "view",
      "type": "function"
    },
    {
      "constant": true,
      "inputs": [
        {
          "internalType": "int256",
          "name": "_question_id",
          "type": "int256"
        }
      ],
      "name": "deleteEventValidator",
      "outputs": [
        {
          "internalType": "int8",
          "name": "",
          "type": "int8"
        }
      ],
      "payable": false,
      "stateMutability": "view",
      "type": "function"
    },
    {
      "constant": false,
      "inputs": [
        {
          "internalType": "int256",
          "name": "_question_id",
          "type": "int256"
        }
      ],
      "name": "deleteEvent",
      "outputs": [],
      "payable": false,
      "stateMutability": "nonpayable",
      "type": "function"
    }
  ],
  "bytecode": "0x608060405260026000806101000a81548160ff021916908360ff16021790555062093a806002557302810c3bc07de2ddaef89827b0dd6b223c7759d5600360006101000a81548173ffffffffffffffffffffffffffffffffffffffff021916908373ffffffffffffffffffffffffffffffffffffffff16021790555034801561008757600080fd5b5061147e806100976000396000f3fe6080604052600436106100865760003560e01c8063659981861161005957806365998186146101d557806374e6f40e14610248578063834f80471461027357806387b6608d146102c8578063c9e53b4b1461031d57610086565b80632a7100cc1461008b5780633493c862146100c657806334be86c81461011b57806357146e0614610156575b600080fd5b6100c4600480360360408110156100a157600080fd5b8101908080359060200190929190803560ff169060200190929190505050610358565b005b3480156100d257600080fd5b506100ff600480360360208110156100e957600080fd5b8101908080359060200190929190505050610534565b604051808260000b60000b815260200191505060405180910390f35b6101546004803603604081101561013157600080fd5b8101908080359060200190929190803560ff169060200190929190505050610659565b005b34801561016257600080fd5b5061018f6004803603602081101561017957600080fd5b810190808035906020019092919050505061080d565b604051808881526020018781526020018681526020018581526020018460ff1660ff16815260200183815260200182815260200197505050505050505060405180910390f35b610246600480360360e08110156101eb57600080fd5b81019080803590602001909291908035906020019092919080359060200190929190803560ff169060200190929190803560ff169060200190929190803560ff169060200190929190803590602001909291905050506108df565b005b34801561025457600080fd5b5061025d610aba565b6040518082815260200191505060405180910390f35b34801561027f57600080fd5b506102ac6004803603602081101561029657600080fd5b8101908080359060200190929190505050610ac4565b604051808260000b60000b815260200191505060405180910390f35b3480156102d457600080fd5b50610301600480360360208110156102eb57600080fd5b8101908080359060200190929190505050610b21565b604051808260000b60000b815260200191505060405180910390f35b34801561032957600080fd5b506103566004803603602081101561034057600080fd5b8101908080359060200190929190505050610bc8565b005b60006004600084815260200190815260200160002060010154420312610530576000426004600085815260200190815260200160002060020154031261052f5734600460008481526020019081526020016000206004016000828254019250508190555060006004600084815260200190815260200160002060060160008360ff168152602001908152602001600020600101549050336004600085815260200190815260200160002060060160008460ff168152602001908152602001600020600001600083815260200190815260200160002060000160006101000a81548173ffffffffffffffffffffffffffffffffffffffff021916908373ffffffffffffffffffffffffffffffffffffffff160217905550600181016004600085815260200190815260200160002060060160008460ff16815260200190815260200160002060010181905550600460008481526020019081526020016000206010013390806001815401808255809150509060018203906000526020600020016000909192909190916101000a81548173ffffffffffffffffffffffffffffffffffffffff021916908373ffffffffffffffffffffffffffffffffffffffff1602179055505034600160008282540192505081905550505b5b5050565b600080600460008481526020019081526020016000206002015442031261064f5760004260025460046000868152602001908152602001600020600201540103126106465760008090505b60046000848152602001908152602001600020601001805490508160ff16101561063c573373ffffffffffffffffffffffffffffffffffffffff16600460008581526020019081526020016000206010018260ff16815481106105de57fe5b9060005260206000200160009054906101000a900473ffffffffffffffffffffffffffffffffffffffff1673ffffffffffffffffffffffffffffffffffffffff16141561062f576003915050610654565b808060010191505061057f565b5060009050610654565b60029050610654565b600190505b919050565b600060046000848152602001908152602001600020600201544203126108095760004260025460046000868152602001908152602001600020600201540103126108085760006004600084815260200190815260200160002060070160008360ff168152602001908152602001600020600101549050336004600085815260200190815260200160002060070160008460ff168152602001908152602001600020600001600083815260200190815260200160002060000160006101000a81548173ffffffffffffffffffffffffffffffffffffffff021916908373ffffffffffffffffffffffffffffffffffffffff160217905550600181016004600085815260200190815260200160002060070160008460ff1681526020019081526020016000206001018190555060006001600460008681526020019081526020016000206009015401905060046000858152602001908152602001600020600801548114156107e9578060046000868152602001908152602001600020600901819055506107e484610d37565b610805565b8060046000868152602001908152602001600020600901819055505b50505b5b5050565b600080600080600080600060046000898152602001908152602001600020600b0154600460008a8152602001908152602001600020600d0154600460008b815260200190815260200160002060040154600460008c8152602001908152602001600020600e0154600460008d815260200190815260200160002060030160009054906101000a900460ff16600460008e8152602001908152602001600020600f0154600460008f8152602001908152602001600020600c01549650965096509650965096509650919395979092949650565b866004600089815260200190815260200160002060000181905550846004600089815260200190815260200160002060020181905550816004600089815260200190815260200160002060030160006101000a81548160ff021916908360ff1602179055508560046000898152602001908152602001600020600101819055508060046000898152602001908152602001600020600801819055503360046000898152602001908152602001600020600a0160006101000a81548173ffffffffffffffffffffffffffffffffffffffff021916908373ffffffffffffffffffffffffffffffffffffffff16021790555060008460ff161415610a105760036004600089815260200190815260200160002060050160006101000a81548160ff021916908360ff160217905550610a40565b836004600089815260200190815260200160002060050160006101000a81548160ff021916908360ff1602179055505b60008360ff161415610a815760056004600089815260200190815260200160002060050160016101000a81548160ff021916908360ff160217905550610ab1565b826004600089815260200190815260200160002060050160016101000a81548160ff021916908360ff1602179055505b50505050505050565b6000600154905090565b6000806004600084815260200190815260200160002060010154420312610b175760004260046000858152602001908152602001600020600201540312610b0e5760009050610b1c565b60029050610b1c565b600190505b919050565b60003373ffffffffffffffffffffffffffffffffffffffff1660046000848152602001908152602001600020600a0160009054906101000a900473ffffffffffffffffffffffffffffffffffffffff1673ffffffffffffffffffffffffffffffffffffffff161415610bbe57600060046000848152602001908152602001600020600401541415610bb55760009050610bc3565b60019050610bc3565b600290505b919050565b3373ffffffffffffffffffffffffffffffffffffffff1660046000838152602001908152602001600020600a0160009054906101000a900473ffffffffffffffffffffffffffffffffffffffff1673ffffffffffffffffffffffffffffffffffffffff161415610d3457600060046000838152602001908152602001600020600401541415610d335760046000828152602001908152602001600020600080820160009055600182016000905560028201600090556003820160006101000a81549060ff021916905560048201600090556005820160006101000a81549060ff02191690556005820160016101000a81549060ff021916905560088201600090556009820160009055600a820160006101000a81549073ffffffffffffffffffffffffffffffffffffffff0219169055600b820160009055600c820160009055600d820160009055600e820160009055600f820160009055601082016000610d309190611403565b50505b5b50565b60008090506000806004600085815260200190815260200160002060030160009054906101000a900460ff1660ff16905060008090505b818160ff161215610df257836004600087815260200190815260200160002060070160008360ff168152602001908152602001600020600101541115610de5576004600086815260200190815260200160002060070160008260ff1681526020019081526020016000206001015493508060ff1692505b8080600101915050610d6e565b508160046000868152602001908152602001600020600f01819055506000600460008681526020019081526020016000206004015411156113af576000610e6060046000878152602001908152602001600020600401546000809054906101000a900460ff1660ff166113ec565b90508060046000878152602001908152602001600020600401540360046000878152602001908152602001600020600401819055508060015403600181905550600360009054906101000a900473ffffffffffffffffffffffffffffffffffffffff1673ffffffffffffffffffffffffffffffffffffffff166108fc829081150290604051600060405180830381858888f19350505050158015610f08573d6000803e3d6000fd5b508060046000878152602001908152602001600020600b01819055506000610f6c60046000888152602001908152602001600020600401546004600089815260200190815260200160002060050160009054906101000a900460ff1660ff166113ec565b9050806004600088815260200190815260200160002060040154036004600088815260200190815260200160002060040181905550806001540360018190555060046000878152602001908152602001600020600a0160009054906101000a900473ffffffffffffffffffffffffffffffffffffffff1673ffffffffffffffffffffffffffffffffffffffff166108fc829081150290604051600060405180830381858888f19350505050158015611028573d6000803e3d6000fd5b508060046000888152602001908152602001600020600c0181905550600061108c6004600089815260200190815260200160002060040154600460008a815260200190815260200160002060050160019054906101000a900460ff1660ff166113ec565b905060006004600089815260200190815260200160002060070160008781526020019081526020016000206001015482816110c357fe5b049050816001540360018190555080600460008a8152602001908152602001600020600d018190555060008090505b600460008a81526020019081526020016000206007016000888152602001908152602001600020600101548160ff161015611215576000600460008b8152602001908152602001600020600701600089815260200190815260200160002060000160008360ff16815260200190815260200160002060000160009054906101000a900473ffffffffffffffffffffffffffffffffffffffff16905082600460008c81526020019081526020016000206004015403600460008c8152602001908152602001600020600401819055508073ffffffffffffffffffffffffffffffffffffffff166108fc849081150290604051600060405180830381858888f19350505050158015611206573d6000803e3d6000fd5b505080806001019150506110f2565b506000600460008a8152602001908152602001600020600601600088815260200190815260200160002060010154600460008b8152602001908152602001600020600401548161126157fe5b04905060008090505b600460008b81526020019081526020016000206006016000898152602001908152602001600020600101548160ff16101561138d576000600460008c815260200190815260200160002060060160008a815260200190815260200160002060000160008360ff16815260200190815260200160002060000160009054906101000a900473ffffffffffffffffffffffffffffffffffffffff16905082600460008d81526020019081526020016000206004015403600460008d8152602001908152602001600020600401819055508073ffffffffffffffffffffffffffffffffffffffff166108fc849081150290604051600060405180830381858888f1935050505015801561137e573d6000803e3d6000fd5b5050808060010191505061126a565b5080600460008b8152602001908152602001600020600e018190555050505050505b7fb0b53c79f7cd0d8c624f48414bdb76a381085a786cc7a98931e2fc76933b644e846040518082815260200191505060405180910390a150505050565b60006064838302816113fa57fe5b04905092915050565b50805460008255906000526020600020908101906114219190611424565b50565b61144691905b8082111561144257600081600090555060010161142a565b5090565b9056fea265627a7a723158203acf9b294e2044e60362c917cf3d89354bacaa333ff0d4391f13994ef99099bd64736f6c634300050c0032",
  "source": "pragma solidity >=0.4.22 <0.6.0;\n\ncontract Quize {\n     uint8 private percentQuiz = 2;\n     uint256 private fullAmount;\n     uint256 private sevenDaysTimeStamp = 604800;\n     address payable companyAddress = 0x02810c3bc07De2ddAef89827b0dD6b223C7759d5;\n\n    event eventIsFinish(\n        int question_id\n        );\n\n    struct Participant{\n        mapping (uint256 => Part) participants;\n        uint256 index;\n    }\n\n    struct Part {\n        address payable parts;\n    }\n\n    struct Validator{\n        mapping (uint256 => Valid) validators;\n        uint256 index;\n    }\n\n    struct Valid {\n        address payable valid;\n    }\n\n     struct Question {\n         int question_id;\n         uint256 startTime;\n         uint256 endTime;\n         uint8 questionQuantity;\n         uint256 money;\n         uint8 percentHost;\n         uint8 percentValidator;\n         mapping (uint256 => Participant) participant;\n         mapping (uint256 => Validator) validator;\n         int validatorsAmount;\n         int activeValidators;\n         address payable hostWallet;\n         uint persentFeeCompany;\n         uint persentFeeHost;\n         uint persentForEachValidators;\n         uint monayForParticipant;\n         uint correctAnswer;\n         address[] allParticipant;\n     }\n\n        mapping (int => Question) questions;\n\n    function startQestion(\n           int _question_id,\n           uint256 _startTime,\n           uint256 _endTime,\n           uint8 _percentHost,\n           uint8 _percentValidator,\n           uint8 _questionQuantity,\n           int _validatorsAmount\n        ) public payable {\n           questions[_question_id].question_id = _question_id;\n           questions[_question_id].endTime = _endTime;\n           questions[_question_id].questionQuantity = _questionQuantity;\n           questions[_question_id].startTime = _startTime;\n           questions[_question_id].validatorsAmount = _validatorsAmount;\n           questions[_question_id].hostWallet = msg.sender;\n\n        if(_percentHost == 0){\n            questions[_question_id].percentHost = 3;\n        }else{\n           questions[_question_id].percentHost = _percentHost;\n        }\n\n        if(_percentValidator == 0){\n            questions[_question_id].percentValidator = 5;\n        }else{\n           questions[_question_id].percentValidator = _percentValidator;\n        }\n    }\n\n   function setAnswer(int256 _question_id, uint8 _whichAnswer) public payable{\n       if(int(now - questions[_question_id].startTime) >= 0){\n           if(int(questions[_question_id].endTime - now) >= 0){\n              questions[_question_id].money += msg.value;\n              uint256 i = questions[_question_id].participant[_whichAnswer].index;\n              questions[_question_id].participant[_whichAnswer].participants[i].parts = msg.sender;\n              questions[_question_id].participant[_whichAnswer].index = i + 1;\n              questions[_question_id].allParticipant.push(msg.sender);\n              fullAmount += msg.value;\n           }\n       }\n    }\n\n    function getFullAmount() public view returns(uint256){\n        return fullAmount;\n    }\n\n    function setValidator(int _question_id, uint8 _whichAnswer ) public payable{\n        if(int(now - questions[_question_id].endTime) >= 0){\n          if(int((questions[_question_id].endTime + sevenDaysTimeStamp) - now) >= 0){\n            uint256 i = questions[_question_id].validator[_whichAnswer].index;\n            questions[_question_id].validator[_whichAnswer].validators[i].valid = msg.sender;\n            questions[_question_id].validator[_whichAnswer].index = i + 1;\n            int active = questions[_question_id].activeValidators + 1;\n           if(active == questions[_question_id].validatorsAmount){\n             questions[_question_id].activeValidators = active;\n             letsPayMoney(_question_id);\n           }else{\n               questions[_question_id].activeValidators = active;\n           }\n          }\n        }\n    }\n\n    function letsPayMoney(int _question_id) private {\n       uint biggestValue = 0;\n       uint correctAnswer;\n       int256 questionQuantity = questions[_question_id].questionQuantity;\n\n        // find correct answer\n        for(uint8 i = 0; i < questionQuantity; i++){\n          if(questions[_question_id].validator[i].index > biggestValue){\n              biggestValue = questions[_question_id].validator[i].index;\n              correctAnswer = i;\n          }\n        }\n\n        questions[_question_id].correctAnswer = correctAnswer;\n\n\n        if(questions[_question_id].money > 0){\n           // pay fee for company\n           uint256 persentFee = getPersent(questions[_question_id].money, percentQuiz);\n           questions[_question_id].money = questions[_question_id].money - persentFee;\n           fullAmount = fullAmount - persentFee;\n           address(companyAddress).transfer(persentFee);\n\n           questions[_question_id].persentFeeCompany = persentFee;\n\n          // pay fee for host\n           uint256 persHostFee = getPersent(questions[_question_id].money, questions[_question_id].percentHost);\n           questions[_question_id].money = questions[_question_id].money - persHostFee;\n           fullAmount = fullAmount - persHostFee;\n           address(questions[_question_id].hostWallet).transfer(persHostFee);\n\n           questions[_question_id].persentFeeHost = persHostFee;\n\n           // calculate percent for validator\n           uint256 persentForValidators = getPersent(questions[_question_id].money, questions[_question_id].percentValidator);\n           uint256 persentForEachValidators = persentForValidators / questions[_question_id].validator[correctAnswer].index;\n           fullAmount = fullAmount - persentForValidators;\n\n           questions[_question_id].persentForEachValidators = persentForEachValidators;\n\n\n           // pay for validatos\n           for(uint8 i = 0; i < questions[_question_id].validator[correctAnswer].index; i++){\n             address payable _validator = questions[_question_id].validator[correctAnswer].validators[i].valid;\n             questions[_question_id].money = questions[_question_id].money - persentForEachValidators;\n             address(_validator).transfer(persentForEachValidators);\n          }\n\n             // Pay for participant\n            uint256 monayForParticipant = questions[_question_id].money / questions[_question_id].participant[correctAnswer].index;\n            for(uint8 i = 0; i < questions[_question_id].participant[correctAnswer].index; i++){\n                address payable _participant = questions[_question_id].participant[correctAnswer].participants[i].parts;\n                questions[_question_id].money = questions[_question_id].money - monayForParticipant;\n                address(_participant).transfer(monayForParticipant);\n            }\n\n            questions[_question_id].monayForParticipant = monayForParticipant;\n        }\n\n\n        emit eventIsFinish(\n            _question_id\n        );\n    }\n\n\n    function getPersent(uint _percent, uint _from) private pure returns(uint){\n       return _from * _percent / 100;\n    }\n\n    function getQuestion(int _question_id) public view returns(\n           uint persentFeeCompany,\n           uint persentForEachValidators,\n           uint256 money,\n           uint monayForParticipant,\n           uint8 questionQuantity,\n           uint correctAnswer,\n           uint persentFeeHost\n           ){\n       return(\n              questions[_question_id].persentFeeCompany,\n              questions[_question_id].persentForEachValidators,\n              questions[_question_id].money,\n              questions[_question_id].monayForParticipant,\n              questions[_question_id].questionQuantity,\n              questions[_question_id].correctAnswer,\n              questions[_question_id].persentFeeHost\n              );\n    }\n\n    function setTimeValidator(int _question_id) public view returns(int8){\n        if(int(now - questions[_question_id].endTime) >= 0){\n          if(int((questions[_question_id].endTime + sevenDaysTimeStamp) - now) >= 0){\n\n        // if validator made activities like participants.\n          for(uint8 i = 0; i < questions[_question_id].allParticipant.length; i++){\n           if(questions[_question_id].allParticipant[i] == msg.sender){\n               return 3;\n           }\n          }\n            // user can validate because time is valid.\n            return 0;\n          }else{\n            // user can't validate because time is finish.\n            return 2;\n          }\n        }else{\n            // user can't validate because event is not started yet.\n            return 1;\n        }\n    }\n\n    function setTimeAnswer(int256 _question_id) public view returns(int8){\n         if(int(now - questions[_question_id].startTime) >= 0){\n            if(int(questions[_question_id].endTime - now) >= 0){\n            // user can make answer because time is valid.\n              return 0;\n            }else{\n            // user can't make answer because event is finish.\n              return 2;\n            }\n         }else{\n             // user can't make answer because event is not started yet.\n             return 1;\n         }\n      }\n\n      function deleteEventValidator(int _question_id) public view returns(int8){\n          if(questions[_question_id].hostWallet == msg.sender){\n            if(questions[_question_id].money == 0){\n              // user can delete event\n              return 0;\n            }else{\n              // user can't delete event because event has money on balance\n              return 1;\n            }\n          }else{\n              // only owner can delete event.\n              return 2;\n          }\n      }\n\n      function deleteEvent(int _question_id) public {\n        if(questions[_question_id].hostWallet == msg.sender){\n          if(questions[_question_id].money == 0){\n            delete questions[_question_id];\n          }\n        }\n      }\n\n}",
  "sourcePath": "/Users/macbook/Documents/freelance/Angular/Quiz/contracts/Quize.sol",
  "compiler": {
    "name": "solc",
    "version": "0.5.12+commit.7709ece9.Emscripten.clang"
  },
  "schemaVersion": "3.0.19",
  "updatedAt": "2020-01-22T05:41:31.503Z",
  "networkType": "ethereum",
  "devdoc": {
    "methods": {}
  },
  "userdoc": {
    "methods": {}
  }
}