{
  "contractName": "Quize",
  "abi": [
    {
      "anonymous": false,
      "inputs": [
        {
          "indexed": false,
          "internalType": "uint256",
          "name": "endTime",
          "type": "uint256"
        },
        {
          "indexed": false,
          "internalType": "int8",
          "name": "questionQuantity",
          "type": "int8"
        },
        {
          "indexed": false,
          "internalType": "uint256",
          "name": "startTime",
          "type": "uint256"
        },
        {
          "indexed": false,
          "internalType": "int8",
          "name": "percentHost",
          "type": "int8"
        },
        {
          "indexed": false,
          "internalType": "int8",
          "name": "percentValidator",
          "type": "int8"
        }
      ],
      "name": "NewQuestionAdded",
      "type": "event"
    },
    {
      "constant": false,
      "inputs": [
        {
          "internalType": "int256",
          "name": "_question_id",
          "type": "int256"
        },
        {
          "internalType": "uint256",
          "name": "_startTime",
          "type": "uint256"
        },
        {
          "internalType": "uint256",
          "name": "_endTime",
          "type": "uint256"
        },
        {
          "internalType": "int8",
          "name": "_percentHost",
          "type": "int8"
        },
        {
          "internalType": "int8",
          "name": "_percentValidator",
          "type": "int8"
        },
        {
          "internalType": "int8",
          "name": "_questionQuantity",
          "type": "int8"
        },
        {
          "internalType": "int256",
          "name": "_validatorsAmount",
          "type": "int256"
        }
      ],
      "name": "startQestion",
      "outputs": [],
      "payable": true,
      "stateMutability": "payable",
      "type": "function"
    },
    {
      "constant": false,
      "inputs": [
        {
          "internalType": "int256",
          "name": "_question_id",
          "type": "int256"
        },
        {
          "internalType": "uint8",
          "name": "_whichAnswer",
          "type": "uint8"
        }
      ],
      "name": "setAnswer",
      "outputs": [],
      "payable": true,
      "stateMutability": "payable",
      "type": "function"
    },
    {
      "constant": true,
      "inputs": [
        {
          "internalType": "int256",
          "name": "_question_id",
          "type": "int256"
        },
        {
          "internalType": "uint256",
          "name": "index",
          "type": "uint256"
        },
        {
          "internalType": "uint8",
          "name": "_whichAnswer",
          "type": "uint8"
        }
      ],
      "name": "getIndex",
      "outputs": [
        {
          "internalType": "address",
          "name": "",
          "type": "address"
        }
      ],
      "payable": false,
      "stateMutability": "view",
      "type": "function"
    },
    {
      "constant": true,
      "inputs": [],
      "name": "getFullAmount",
      "outputs": [
        {
          "internalType": "uint256",
          "name": "",
          "type": "uint256"
        }
      ],
      "payable": false,
      "stateMutability": "view",
      "type": "function"
    },
    {
      "constant": false,
      "inputs": [
        {
          "internalType": "int256",
          "name": "_question_id",
          "type": "int256"
        },
        {
          "internalType": "uint8",
          "name": "_whichAnswer",
          "type": "uint8"
        }
      ],
      "name": "setValidator",
      "outputs": [],
      "payable": true,
      "stateMutability": "payable",
      "type": "function"
    },
    {
      "constant": true,
      "inputs": [
        {
          "internalType": "int256",
          "name": "_question_id",
          "type": "int256"
        }
      ],
      "name": "getQuestion",
      "outputs": [
        {
          "internalType": "uint256",
          "name": "endTime",
          "type": "uint256"
        },
        {
          "internalType": "int8",
          "name": "questionQuantity",
          "type": "int8"
        },
        {
          "internalType": "uint256",
          "name": "startTime",
          "type": "uint256"
        },
        {
          "internalType": "int8",
          "name": "percentHost",
          "type": "int8"
        },
        {
          "internalType": "int8",
          "name": "percentValidator",
          "type": "int8"
        }
      ],
      "payable": false,
      "stateMutability": "view",
      "type": "function"
    },
    {
      "constant": true,
      "inputs": [
        {
          "internalType": "int256",
          "name": "_question_id",
          "type": "int256"
        }
      ],
      "name": "setTimeValidator",
      "outputs": [
        {
          "internalType": "int8",
          "name": "",
          "type": "int8"
        }
      ],
      "payable": false,
      "stateMutability": "view",
      "type": "function"
    },
    {
      "constant": true,
      "inputs": [
        {
          "internalType": "int256",
          "name": "_question_id",
          "type": "int256"
        }
      ],
      "name": "setTimeAnswer",
      "outputs": [
        {
          "internalType": "int8",
          "name": "",
          "type": "int8"
        }
      ],
      "payable": false,
      "stateMutability": "view",
      "type": "function"
    }
  ],
  "bytecode": "0x608060405260036000806101000a81548160ff021916908360000b60ff16021790555062093a806002557302810c3bc07de2ddaef89827b0dd6b223c7759d5600360006101000a81548173ffffffffffffffffffffffffffffffffffffffff021916908373ffffffffffffffffffffffffffffffffffffffff16021790555034801561008a57600080fd5b5061102c8061009a6000396000f3fe60806040526004361061007b5760003560e01c806374e6f40e1161004e57806374e6f40e146101c8578063834f8047146101f35780639015a29914610248578063a545adef146102da5761007b565b80632a7100cc146100805780633493c862146100bb57806334be86c81461011057806357146e061461014b575b600080fd5b6100b96004803603604081101561009657600080fd5b8101908080359060200190929190803560ff16906020019092919050505061034d565b005b3480156100c757600080fd5b506100f4600480360360208110156100de57600080fd5b81019080803590602001909291905050506104af565b604051808260000b60000b815260200191505060405180910390f35b6101496004803603604081101561012657600080fd5b8101908080359060200190929190803560ff169060200190929190505050610510565b005b34801561015757600080fd5b506101846004803603602081101561016e57600080fd5b81019080803590602001909291905050506106a5565b604051808681526020018560000b60000b81526020018481526020018360000b60000b81526020018260000b60000b81526020019550505050505060405180910390f35b3480156101d457600080fd5b506101dd61075a565b6040518082815260200191505060405180910390f35b3480156101ff57600080fd5b5061022c6004803603602081101561021657600080fd5b8101908080359060200190929190505050610764565b604051808260000b60000b815260200191505060405180910390f35b34801561025457600080fd5b506102986004803603606081101561026b57600080fd5b810190808035906020019092919080359060200190929190803560ff1690602001909291905050506107c1565b604051808273ffffffffffffffffffffffffffffffffffffffff1673ffffffffffffffffffffffffffffffffffffffff16815260200191505060405180910390f35b61034b600480360360e08110156102f057600080fd5b81019080803590602001909291908035906020019092919080359060200190929190803560000b9060200190929190803560000b9060200190929190803560000b90602001909291908035906020019092919050505061082e565b005b600060046000848152602001908152602001600020600101544203126104ab57600042600460008581526020019081526020016000206002015403126104aa5734600460008481526020019081526020016000206004016000828254019250508190555060006004600084815260200190815260200160002060060160008360ff168152602001908152602001600020600101549050336004600085815260200190815260200160002060060160008460ff168152602001908152602001600020600001600083815260200190815260200160002060000160006101000a81548173ffffffffffffffffffffffffffffffffffffffff021916908373ffffffffffffffffffffffffffffffffffffffff160217905550600181016004600085815260200190815260200160002060060160008460ff1681526020019081526020016000206001018190555034600160008282540192505081905550505b5b5050565b60008060046000848152602001908152602001600020600201544203126105065760004260025460046000868152602001908152602001600020600201540103126104fd576000905061050b565b6002905061050b565b600190505b919050565b600060046000848152602001908152602001600020600201544203126106a15760004260025460046000868152602001908152602001600020600201540103126106a05760006004600084815260200190815260200160002060070160008360ff168152602001908152602001600020600101549050336004600085815260200190815260200160002060070160008460ff168152602001908152602001600020600001600083815260200190815260200160002060000160006101000a81548173ffffffffffffffffffffffffffffffffffffffff021916908373ffffffffffffffffffffffffffffffffffffffff160217905550600181016004600085815260200190815260200160002060070160008460ff168152602001908152602001600020600101819055506001600460008581526020019081526020016000206009016000828254019250508190555060046000848152602001908152602001600020600801546004600085815260200190815260200160002060090154141561069e5761069d83610ad6565b5b505b5b5050565b600080600080600060046000878152602001908152602001600020600201546004600088815260200190815260200160002060030160009054906101000a900460000b6004600089815260200190815260200160002060010154600460008a815260200190815260200160002060050160009054906101000a900460000b600460008b815260200190815260200160002060050160019054906101000a900460000b9450945094509450945091939590929450565b6000600154905090565b60008060046000848152602001908152602001600020600101544203126107b757600042600460008581526020019081526020016000206002015403126107ae57600090506107bc565b600290506107bc565b600190505b919050565b60006004600085815260200190815260200160002060060160008360ff168152602001908152602001600020600001600084815260200190815260200160002060000160009054906101000a900473ffffffffffffffffffffffffffffffffffffffff1690509392505050565b600560003373ffffffffffffffffffffffffffffffffffffffff1673ffffffffffffffffffffffffffffffffffffffff168152602001908152602001600020600001879080600181540180825580915050906001820390600052602060002001600090919290919091505550866004600089815260200190815260200160002060000181905550846004600089815260200190815260200160002060020181905550816004600089815260200190815260200160002060030160006101000a81548160ff021916908360000b60ff1602179055508560046000898152602001908152602001600020600101819055508060046000898152602001908152602001600020600801819055507fffffffffffffffffffffffffffffffffffffffffffffffffffffffffffffffff8460000b141561099b5760036004600089815260200190815260200160002060050160006101000a81548160ff021916908360000b60ff1602179055506109ce565b836004600089815260200190815260200160002060050160006101000a81548160ff021916908360000b60ff1602179055505b7fffffffffffffffffffffffffffffffffffffffffffffffffffffffffffffffff8360000b1415610a315760056004600089815260200190815260200160002060050160016101000a81548160ff021916908360000b60ff160217905550610a64565b826004600089815260200190815260200160002060050160016101000a81548160ff021916908360000b60ff1602179055505b7f7fcd55246a448e787d9539568b0d70d407c8f746d6c2d1444ad2ec3d4850e8e58583888787604051808681526020018560000b60000b81526020018481526020018360000b60000b81526020018260000b60000b81526020019550505050505060405180910390a150505050505050565b60008090506000806004600085815260200190815260200160002060030160009054906101000a900460000b60000b90506000610b3a6000809054906101000a900460000b60000b6004600088815260200190815260200160002060040154610fe0565b9050806004600087815260200190815260200160002060040154036004600087815260200190815260200160002060040181905550600360009054906101000a900473ffffffffffffffffffffffffffffffffffffffff1673ffffffffffffffffffffffffffffffffffffffff166108fc829081150290604051600060405180830381858888f19350505050158015610bd7573d6000803e3d6000fd5b5060008090505b828160ff161315610c6257846004600088815260200190815260200160002060070160008360ff168152602001908152602001600020600101541115610c55576004600087815260200190815260200160002060070160008260ff1681526020019081526020016000206001015494508060ff1693505b8080600101915050610bde565b506000610cab6004600088815260200190815260200160002060050160019054906101000a900460000b60000b6004600089815260200190815260200160002060040154610fe0565b90506000600460008881526020019081526020016000206007016000868152602001908152602001600020600101548281610ce257fe5b05905060008090505b600460008981526020019081526020016000206007016000878152602001908152602001600020600101548160ff161115610e0e576000600460008a8152602001908152602001600020600701600088815260200190815260200160002060000160008360ff16815260200190815260200160002060000160009054906101000a900473ffffffffffffffffffffffffffffffffffffffff16905082600460008b81526020019081526020016000206004015403600460008b8152602001908152602001600020600401819055508073ffffffffffffffffffffffffffffffffffffffff166108fc849081150290604051600060405180830381858888f19350505050158015610dff573d6000803e3d6000fd5b50508080600101915050610ceb565b50600060046000898152602001908152602001600020600601600087815260200190815260200160002060010154600460008a81526020019081526020016000206004015481610e5a57fe5b04905060008090505b600460008a81526020019081526020016000206006016000888152602001908152602001600020600101548160ff161115610f53576000600460008b8152602001908152602001600020600601600089815260200190815260200160002060000160008360ff16815260200190815260200160002060000160009054906101000a900473ffffffffffffffffffffffffffffffffffffffff1690508073ffffffffffffffffffffffffffffffffffffffff166108fc849081150290604051600060405180830381858888f19350505050158015610f44573d6000803e3d6000fd5b50508080600101915050610e63565b5060046000898152602001908152602001600020600080820160009055600182016000905560028201600090556003820160006101000a81549060ff021916905560048201600090556005820160006101000a81549060ff02191690556005820160016101000a81549060ff02191690556008820160009055600982016000905550505050505050505050565b60008160648481610fed57fe5b050290509291505056fea265627a7a723158209780fcf34c18c21e1d9ee1ec7f6015b4c7733957b3cadd6bcf2a054202a8a42464736f6c634300050c0032",
  "source": "pragma solidity >=0.4.22 <0.6.0;\n\ncontract Quize {\n     int8 private percentQuiz = 3;\n     uint256 private fullAmount;\n     uint256 private sevenDaysTimeStamp = 604800;\n     address payable companyAddress = 0x02810c3bc07De2ddAef89827b0dD6b223C7759d5;\n\n     event NewQuestionAdded(\n        uint256 endTime,\n        int8 questionQuantity,\n        uint256 startTime,\n        int8 percentHost,\n        int8 percentValidator);\n\n    struct Participant{\n        mapping (uint256 => Part) participants;\n        uint256 index;\n    }\n\n    struct Part {\n        address payable parts;\n    }\n\n    struct Validator{\n        mapping (uint256 => Valid) validators;\n        uint256 index;\n    }\n\n    struct Valid {\n        address payable valid;\n    }\n\n     struct Question {\n         int question_id;\n         uint256 startTime;\n         uint256 endTime;\n         int8 questionQuantity;\n         uint256 money;\n         int8 percentHost;\n         int8 percentValidator;\n         mapping (uint256 => Participant) participant;\n         mapping (uint256 => Validator) validator;\n         int validatorsAmount;\n         int activeValidators;\n     }\n\n     struct Host {\n         int[] questions_id;\n     }\n\n        mapping (int => Question) questions;\n        mapping (address => Host) host_id_wallet;\n\n    function startQestion(\n           int _question_id,\n           uint256 _startTime,\n           uint256 _endTime,\n           int8 _percentHost,\n           int8 _percentValidator,\n           int8 _questionQuantity,\n           int _validatorsAmount\n        ) public payable {\n           host_id_wallet[msg.sender].questions_id.push(_question_id);\n\n           questions[_question_id].question_id = _question_id;\n           questions[_question_id].endTime = _endTime;\n           questions[_question_id].questionQuantity = _questionQuantity;\n           questions[_question_id].startTime = _startTime;\n           questions[_question_id].validatorsAmount = _validatorsAmount;\n\n        if(_percentHost == -1){\n            questions[_question_id].percentHost = 3;\n        }else{\n           questions[_question_id].percentHost = _percentHost;\n        }\n\n        if(_percentValidator == -1){\n            questions[_question_id].percentValidator = 5;\n        }else{\n           questions[_question_id].percentValidator = _percentValidator;\n        }\n\n        emit NewQuestionAdded(\n            _endTime,\n            _questionQuantity,\n           _startTime,\n           _percentHost,\n           _percentValidator\n        );\n    }\n\n   function setAnswer(int256 _question_id, uint8 _whichAnswer) public payable{\n       if(int(now - questions[_question_id].startTime) >= 0){\n           if(int(questions[_question_id].endTime - now) >= 0){\n              questions[_question_id].money += msg.value;\n              uint256 i = questions[_question_id].participant[_whichAnswer].index;\n              questions[_question_id].participant[_whichAnswer].participants[i].parts = msg.sender;\n              questions[_question_id].participant[_whichAnswer].index = i + 1;\n              fullAmount += msg.value;\n           }\n       }\n    }\n\n    function getIndex(int256 _question_id, uint256 index, uint8 _whichAnswer) public view returns(address){\n       return questions[_question_id].participant[_whichAnswer].participants[index].parts;\n    }\n\n    function getFullAmount() public view returns(uint256){\n        return fullAmount;\n    }\n\n    function setValidator(int _question_id, uint8 _whichAnswer ) public payable{\n        if(int(now - questions[_question_id].endTime) >= 0){\n          if(int((questions[_question_id].endTime + sevenDaysTimeStamp) - now) >= 0){\n            uint256 i = questions[_question_id].validator[_whichAnswer].index;\n            questions[_question_id].validator[_whichAnswer].validators[i].valid = msg.sender;\n            questions[_question_id].validator[_whichAnswer].index = i + 1;\n            questions[_question_id].activeValidators += 1;\n           if(questions[_question_id].activeValidators == questions[_question_id].validatorsAmount){\n             letsPayMoney(_question_id);\n           }\n          }\n        }\n    }\n\n    function letsPayMoney(int _question_id) private {\n        uint biggestValue = 0;\n        uint correctAnswer;\n        int256 questionQuantity = questions[_question_id].questionQuantity;\n\n        // pay fee for company\n        int256 persentFee = getPersent(percentQuiz, int(questions[_question_id].money));\n        questions[_question_id].money = questions[_question_id].money - uint(persentFee);\n        address(companyAddress).transfer(uint(persentFee));\n\n        // find correct answer\n        for(uint8 i = 0; i > questionQuantity; i++){\n          if(questions[_question_id].validator[i].index > biggestValue){\n              biggestValue = questions[_question_id].validator[i].index;\n              correctAnswer = i;\n          }\n        }\n\n        // calculate percent for validator\n        int256 persentForValidators = getPersent(questions[_question_id].percentValidator, int(questions[_question_id].money));\n        int256 persentForEachValidators = persentForValidators / int(questions[_question_id].validator[correctAnswer].index);\n\n\n        // pay for validatos\n        for(uint8 i = 0; i > questions[_question_id].validator[correctAnswer].index; i++){\n          address payable _validator = questions[_question_id].validator[correctAnswer].validators[i].valid;\n          questions[_question_id].money = questions[_question_id].money - uint(persentForEachValidators);\n          address(_validator).transfer(uint(persentForEachValidators));\n        }\n\n        // Pay for participant\n        uint256 monayForParticipant = questions[_question_id].money / questions[_question_id].participant[correctAnswer].index;\n            for(uint8 i = 0; i > questions[_question_id].participant[correctAnswer].index; i++){\n                address payable _participant = questions[_question_id].participant[correctAnswer].participants[i].parts;\n                address(_participant).transfer(monayForParticipant);\n            }\n\n        // Delete question from storage\n        delete questions[_question_id];\n    }\n\n\n    function getPersent(int _percent, int _from) private pure returns(int256){\n       return (_percent / 100) * _from;\n    }\n\n    function getQuestion(int _question_id) public view returns(\n           uint256 endTime,\n           int8 questionQuantity,\n           uint256 startTime,\n           int8 percentHost,\n           int8 percentValidator\n           ){\n       return(questions[_question_id].endTime,\n              questions[_question_id].questionQuantity,\n              questions[_question_id].startTime,\n              questions[_question_id].percentHost,\n              questions[_question_id].percentValidator);\n    }\n\n    function setTimeValidator(int _question_id) public view returns(int8){\n        if(int(now - questions[_question_id].endTime) >= 0){\n          if(int((questions[_question_id].endTime + sevenDaysTimeStamp) - now) >= 0){\n            return 0;\n          }else{\n            return 2;\n          }\n        }else{\n            return 1;\n        }\n    }\n\n    function setTimeAnswer(int256 _question_id) public view returns(int8){\n         if(int(now - questions[_question_id].startTime) >= 0){\n            if(int(questions[_question_id].endTime - now) >= 0){\n              return 0;\n            }else{\n              return 2;\n            }\n         }else{\n             return 1;\n         }\n      }\n\n}",
  "sourcePath": "/Users/macbook/Documents/freelance/Angular/Quiz/contracts/Quize.sol",
  "compiler": {
    "name": "solc",
    "version": "0.5.12+commit.7709ece9.Emscripten.clang"
  },
  "schemaVersion": "3.0.19",
  "updatedAt": "2019-12-12T06:05:24.001Z",
  "networkType": "ethereum",
  "devdoc": {
    "methods": {}
  },
  "userdoc": {
    "methods": {}
  }
}