{
  "contractName": "Quize",
  "abi": [
    {
      "constant": true,
      "inputs": [],
      "name": "amountGuard",
      "outputs": [
        {
          "name": "",
          "type": "int8"
        }
      ],
      "payable": false,
      "stateMutability": "view",
      "type": "function"
    },
    {
      "constant": true,
      "inputs": [],
      "name": "holdBalance",
      "outputs": [
        {
          "name": "",
          "type": "uint256"
        }
      ],
      "payable": false,
      "stateMutability": "view",
      "type": "function"
    },
    {
      "constant": true,
      "inputs": [],
      "name": "tokenContract",
      "outputs": [
        {
          "name": "",
          "type": "address"
        }
      ],
      "payable": false,
      "stateMutability": "view",
      "type": "function"
    },
    {
      "constant": true,
      "inputs": [],
      "name": "onHold",
      "outputs": [
        {
          "name": "",
          "type": "uint256"
        }
      ],
      "payable": false,
      "stateMutability": "view",
      "type": "function"
    },
    {
      "constant": true,
      "inputs": [
        {
          "name": "_question_id",
          "type": "int256"
        }
      ],
      "name": "getHoldMoneyById",
      "outputs": [
        {
          "name": "",
          "type": "uint256"
        }
      ],
      "payable": false,
      "stateMutability": "view",
      "type": "function"
    },
    {
      "constant": true,
      "inputs": [],
      "name": "moneyRetentionCalculate",
      "outputs": [
        {
          "name": "",
          "type": "uint256"
        }
      ],
      "payable": false,
      "stateMutability": "view",
      "type": "function"
    },
    {
      "constant": false,
      "inputs": [
        {
          "name": "_question_id",
          "type": "int256"
        }
      ],
      "name": "getMoneyRetention",
      "outputs": [],
      "payable": true,
      "stateMutability": "payable",
      "type": "function"
    },
    {
      "constant": false,
      "inputs": [
        {
          "name": "_question_id",
          "type": "int256"
        },
        {
          "name": "_endTime",
          "type": "uint256"
        },
        {
          "name": "_pathHoldMoney",
          "type": "bool"
        }
      ],
      "name": "_setMoneyRetention",
      "outputs": [],
      "payable": true,
      "stateMutability": "payable",
      "type": "function"
    },
    {
      "constant": true,
      "inputs": [],
      "name": "fullAmount",
      "outputs": [
        {
          "name": "",
          "type": "uint256"
        }
      ],
      "payable": false,
      "stateMutability": "view",
      "type": "function"
    },
    {
      "inputs": [
        {
          "name": "_tokenContract",
          "type": "address"
        }
      ],
      "payable": false,
      "stateMutability": "nonpayable",
      "type": "constructor"
    },
    {
      "anonymous": false,
      "inputs": [
        {
          "indexed": false,
          "name": "question_id",
          "type": "int256"
        }
      ],
      "name": "eventIsFinish",
      "type": "event"
    },
    {
      "constant": false,
      "inputs": [
        {
          "name": "_question_id",
          "type": "int256"
        },
        {
          "name": "_startTime",
          "type": "uint256"
        },
        {
          "name": "_endTime",
          "type": "uint256"
        },
        {
          "name": "_percentHost",
          "type": "uint8"
        },
        {
          "name": "_percentValidator",
          "type": "uint8"
        },
        {
          "name": "_questionQuantity",
          "type": "uint8"
        },
        {
          "name": "_validatorsAmount",
          "type": "int256"
        },
        {
          "name": "_quizePrice",
          "type": "uint256"
        },
        {
          "name": "_pathHoldMoney",
          "type": "bool"
        }
      ],
      "name": "startQestion",
      "outputs": [],
      "payable": true,
      "stateMutability": "payable",
      "type": "function"
    },
    {
      "constant": false,
      "inputs": [
        {
          "name": "_question_id",
          "type": "int256"
        },
        {
          "name": "_whichAnswer",
          "type": "uint8"
        }
      ],
      "name": "setAnswer",
      "outputs": [],
      "payable": true,
      "stateMutability": "payable",
      "type": "function"
    },
    {
      "constant": false,
      "inputs": [
        {
          "name": "_question_id",
          "type": "int256"
        },
        {
          "name": "_whichAnswer",
          "type": "uint8"
        }
      ],
      "name": "setValidator",
      "outputs": [],
      "payable": true,
      "stateMutability": "payable",
      "type": "function"
    },
    {
      "constant": true,
      "inputs": [
        {
          "name": "_question_id",
          "type": "int256"
        }
      ],
      "name": "getQuestion",
      "outputs": [
        {
          "name": "persentFeeCompany",
          "type": "uint256"
        },
        {
          "name": "persentForEachValidators",
          "type": "uint256"
        },
        {
          "name": "money",
          "type": "uint256"
        },
        {
          "name": "monayForParticipant",
          "type": "uint256"
        },
        {
          "name": "questionQuantity",
          "type": "uint8"
        },
        {
          "name": "correctAnswer",
          "type": "uint256"
        },
        {
          "name": "persentFeeHost",
          "type": "uint256"
        }
      ],
      "payable": false,
      "stateMutability": "view",
      "type": "function"
    },
    {
      "constant": true,
      "inputs": [
        {
          "name": "_question_id",
          "type": "int256"
        }
      ],
      "name": "setTimeValidator",
      "outputs": [
        {
          "name": "",
          "type": "int8"
        }
      ],
      "payable": false,
      "stateMutability": "view",
      "type": "function"
    },
    {
      "constant": true,
      "inputs": [
        {
          "name": "_question_id",
          "type": "int256"
        }
      ],
      "name": "setTimeAnswer",
      "outputs": [
        {
          "name": "",
          "type": "int8"
        }
      ],
      "payable": false,
      "stateMutability": "view",
      "type": "function"
    },
    {
      "constant": true,
      "inputs": [
        {
          "name": "_question_id",
          "type": "int256"
        }
      ],
      "name": "deleteEventValidator",
      "outputs": [
        {
          "name": "",
          "type": "int8"
        }
      ],
      "payable": false,
      "stateMutability": "view",
      "type": "function"
    },
    {
      "constant": false,
      "inputs": [
        {
          "name": "_question_id",
          "type": "int256"
        }
      ],
      "name": "deleteEvent",
      "outputs": [],
      "payable": false,
      "stateMutability": "nonpayable",
      "type": "function"
    },
    {
      "constant": true,
      "inputs": [],
      "name": "quizeBalance",
      "outputs": [
        {
          "name": "",
          "type": "uint256"
        }
      ],
      "payable": false,
      "stateMutability": "view",
      "type": "function"
    }
  ],
  "bytecode": "0x6080604052670de0b6b3a76400006000556002600360006101000a81548160ff021916908360ff16021790555062093a806005557302810c3bc07de2ddaef89827b0dd6b223c7759d5600660006101000a81548173ffffffffffffffffffffffffffffffffffffffff021916908373ffffffffffffffffffffffffffffffffffffffff16021790555034801561009457600080fd5b50604051602080611ef3833981018060405260208110156100b457600080fd5b810190808051906020019092919050505080600760006101000a81548173ffffffffffffffffffffffffffffffffffffffff021916908373ffffffffffffffffffffffffffffffffffffffff16021790555050611ddd806101166000396000f3fe608060405260043610610126576000357c01000000000000000000000000000000000000000000000000000000009004806387b6608d116100b2578063c9e53b4b11610081578063c9e53b4b146104a5578063d685015f146104e0578063e4f8749614610524578063ed7439c11461054f578063f5c1ec81146105d957610126565b806387b6608d146103a85780638a1e576f146103fd5780639eaecdb71461044c578063bf792a901461047757610126565b806334be86c8116100f957806334be86c81461021757806355a373d61461025257806357146e06146102a95780637fc5054514610328578063834f80471461035357610126565b80631441dc561461012b57806326c989df1461015c5780632a7100cc146101875780633493c862146101c2575b600080fd5b34801561013757600080fd5b50610140610604565b604051808260000b60000b815260200191505060405180910390f35b34801561016857600080fd5b5061017161063e565b6040518082815260200191505060405180910390f35b6101c06004803603604081101561019d57600080fd5b8101908080359060200190929190803560ff16906020019092919050505061065d565b005b3480156101ce57600080fd5b506101fb600480360360208110156101e557600080fd5b8101908080359060200190929190505050610907565b604051808260000b60000b815260200191505060405180910390f35b6102506004803603604081101561022d57600080fd5b8101908080359060200190929190803560ff169060200190929190505050610a32565b005b34801561025e57600080fd5b50610267610c23565b604051808273ffffffffffffffffffffffffffffffffffffffff1673ffffffffffffffffffffffffffffffffffffffff16815260200191505060405180910390f35b3480156102b557600080fd5b506102e2600480360360208110156102cc57600080fd5b8101908080359060200190929190505050610c49565b604051808881526020018781526020018681526020018581526020018460ff1660ff16815260200183815260200182815260200197505050505050505060405180910390f35b34801561033457600080fd5b5061033d610d1b565b6040518082815260200191505060405180910390f35b34801561035f57600080fd5b5061038c6004803603602081101561037657600080fd5b8101908080359060200190929190505050610df1565b604051808260000b60000b815260200191505060405180910390f35b3480156103b457600080fd5b506103e1600480360360208110156103cb57600080fd5b8101908080359060200190929190505050610e52565b604051808260000b60000b815260200191505060405180910390f35b34801561040957600080fd5b506104366004803603602081101561042057600080fd5b8101908080359060200190929190505050610ef9565b6040518082815260200191505060405180910390f35b34801561045857600080fd5b50610461610f19565b6040518082815260200191505060405180910390f35b6104a36004803603602081101561048d57600080fd5b8101908080359060200190929190505050610f6e565b005b3480156104b157600080fd5b506104de600480360360208110156104c857600080fd5b81019080803590602001909291905050506110b0565b005b610522600480360360608110156104f657600080fd5b81019080803590602001909291908035906020019092919080351515906020019092919050505061121f565b005b34801561053057600080fd5b50610539611244565b6040518082815260200191505060405180910390f35b6105d7600480360361012081101561056657600080fd5b81019080803590602001909291908035906020019092919080359060200190929190803560ff169060200190929190803560ff169060200190929190803560ff1690602001909291908035906020019092919080359060200190929190803515159060200190929190505050611263565b005b3480156105e557600080fd5b506105ee611466565b6040518082815260200191505060405180910390f35b600061060e610f19565b3373ffffffffffffffffffffffffffffffffffffffff1631101515610636576000905061063b565b600190505b90565b60003073ffffffffffffffffffffffffffffffffffffffff1631905090565b600061066883610df1565b60000b1415156106e0576040517f08c379a00000000000000000000000000000000000000000000000000000000081526004018080602001828103825260118152602001807f54696d65206973206e6f742076616c696400000000000000000000000000000081525060200191505060405180910390fd5b60086000838152602001908152602001600020601101543414151561076d576040517f08c379a00000000000000000000000000000000000000000000000000000000081526004018080602001828103825260138152602001807f4d6f6e657920646f206e6f7420656e6f7567680000000000000000000000000081525060200191505060405180910390fd5b34600860008481526020019081526020016000206004016000828254019250508190555060006008600084815260200190815260200160002060060160008360ff168152602001908152602001600020600101549050336008600085815260200190815260200160002060060160008460ff168152602001908152602001600020600001600083815260200190815260200160002060000160006101000a81548173ffffffffffffffffffffffffffffffffffffffff021916908373ffffffffffffffffffffffffffffffffffffffff160217905550600181016008600085815260200190815260200160002060060160008460ff16815260200190815260200160002060010181905550600860008481526020019081526020016000206010013390806001815401808255809150509060018203906000526020600020016000909192909190916101000a81548173ffffffffffffffffffffffffffffffffffffffff021916908373ffffffffffffffffffffffffffffffffffffffff1602179055505034600460008282540192505081905550505050565b60008060086000848152602001908152602001600020600201544203121515610a285760004260055460086000868152602001908152602001600020600201540103121515610a1f5760008090505b60086000848152602001908152602001600020601001805490508160ff161015610a15573373ffffffffffffffffffffffffffffffffffffffff16600860008581526020019081526020016000206010018260ff168154811015156109b757fe5b9060005260206000200160009054906101000a900473ffffffffffffffffffffffffffffffffffffffff1673ffffffffffffffffffffffffffffffffffffffff161415610a08576003915050610a2d565b8080600101915050610956565b5060009050610a2d565b60029050610a2d565b600190505b919050565b6000610a3d83610907565b60000b141515610ab5576040517f08c379a00000000000000000000000000000000000000000000000000000000081526004018080602001828103825260118152602001807f54696d65206973206e6f742076616c696400000000000000000000000000000081525060200191505060405180910390fd5b60006008600084815260200190815260200160002060070160008360ff168152602001908152602001600020600101549050336008600085815260200190815260200160002060070160008460ff168152602001908152602001600020600001600083815260200190815260200160002060000160006101000a81548173ffffffffffffffffffffffffffffffffffffffff021916908373ffffffffffffffffffffffffffffffffffffffff160217905550600181016008600085815260200190815260200160002060070160008460ff168152602001908152602001600020600101819055506000600160086000868152602001908152602001600020600901540190506008600085815260200190815260200160002060080154811415610c0157806008600086815260200190815260200160002060090181905550610bfc8461146c565b610c1d565b8060086000868152602001908152602001600020600901819055505b50505050565b600760009054906101000a900473ffffffffffffffffffffffffffffffffffffffff1681565b600080600080600080600060086000898152602001908152602001600020600b0154600860008a8152602001908152602001600020600d0154600860008b815260200190815260200160002060040154600860008c8152602001908152602001600020600e0154600860008d815260200190815260200160002060030160009054906101000a900460ff16600860008e8152602001908152602001600020600f0154600860008f8152602001908152602001600020600c01549650965096509650965096509650919395979092949650565b60006001600260003373ffffffffffffffffffffffffffffffffffffffff1673ffffffffffffffffffffffffffffffffffffffff16815260200190815260200160002060000154101515610de957600080905060008090505b600260003373ffffffffffffffffffffffffffffffffffffffff1673ffffffffffffffffffffffffffffffffffffffff168152602001908152602001600020600001548160ff16111515610ddf57610dce8160ff16611b26565b820191508080600101915050610d74565b5080915050610dee565b600090505b90565b60008060086000848152602001908152602001600020600101544203121515610e4857600042600860008581526020019081526020016000206002015403121515610e3f5760009050610e4d565b60029050610e4d565b600190505b919050565b60003373ffffffffffffffffffffffffffffffffffffffff1660086000848152602001908152602001600020600a0160009054906101000a900473ffffffffffffffffffffffffffffffffffffffff1673ffffffffffffffffffffffffffffffffffffffff161415610eef57600060086000848152602001908152602001600020600401541415610ee65760009050610ef4565b60019050610ef4565b600290505b919050565b600060016000838152602001908152602001600020600101549050919050565b6000610f696001600260003373ffffffffffffffffffffffffffffffffffffffff1673ffffffffffffffffffffffffffffffffffffffff1681526020019081526020016000206000015401611b26565b905090565b60006001600083815260200190815260200160002060000160009054906101000a900473ffffffffffffffffffffffffffffffffffffffff169050600060016000848152602001908152602001600020600101549050600260008373ffffffffffffffffffffffffffffffffffffffff1673ffffffffffffffffffffffffffffffffffffffff16815260200190815260200160002060000160008154809291906001900391905055508173ffffffffffffffffffffffffffffffffffffffff166108fc829081150290604051600060405180830381858888f1935050505015801561105d573d6000803e3d6000fd5b5060016000848152602001908152602001600020600080820160006101000a81549073ffffffffffffffffffffffffffffffffffffffff0219169055600182016000905560028201600090555050505050565b60006110bb82610e52565b60000b141515611133576040517f08c379a00000000000000000000000000000000000000000000000000000000081526004018080602001828103825260158152602001807f44656c657465206576656e742069732066616c7365000000000000000000000081525060200191505060405180910390fd5b60086000828152602001908152602001600020600080820160009055600182016000905560028201600090556003820160006101000a81549060ff021916905560048201600090556005820160006101000a81549060ff02191690556005820160016101000a81549060ff021916905560088201600090556009820160009055600a820160006101000a81549073ffffffffffffffffffffffffffffffffffffffff0219169055600b820160009055600c820160009055600d820160009055600e820160009055600f8201600090556010820160006112129190611d6b565b6011820160009055505050565b80156112345761122f8383611b7f565b61123f565b61123e8383611cde565b5b505050565b60003073ffffffffffffffffffffffffffffffffffffffff1631905090565b88600860008b81526020019081526020016000206000018190555086600860008b81526020019081526020016000206002018190555083600860008b815260200190815260200160002060030160006101000a81548160ff021916908360ff16021790555087600860008b81526020019081526020016000206001018190555082600860008b81526020019081526020016000206008018190555033600860008b8152602001908152602001600020600a0160006101000a81548173ffffffffffffffffffffffffffffffffffffffff021916908373ffffffffffffffffffffffffffffffffffffffff16021790555081600860008b81526020019081526020016000206011018190555060008660ff1614156113af576003600860008b815260200190815260200160002060050160006101000a81548160ff021916908360ff1602179055506113df565b85600860008b815260200190815260200160002060050160006101000a81548160ff021916908360ff1602179055505b60008560ff161415611420576005600860008b815260200190815260200160002060050160016101000a81548160ff021916908360ff160217905550611450565b84600860008b815260200190815260200160002060050160016101000a81548160ff021916908360ff1602179055505b61145b89888361121f565b505050505050505050565b60045481565b60008090506000806008600085815260200190815260200160002060030160009054906101000a900460ff1660ff16905060008090505b818160ff16121561152757836008600087815260200190815260200160002060070160008360ff16815260200190815260200160002060010154111561151a576008600086815260200190815260200160002060070160008260ff1681526020019081526020016000206001015493508060ff1692505b80806001019150506114a3565b508160086000868152602001908152602001600020600f0181905550600060086000868152602001908152602001600020600401541115611ae95760006115966008600087815260200190815260200160002060040154600360009054906101000a900460ff1660ff16611d52565b90508060086000878152602001908152602001600020600401540360086000878152602001908152602001600020600401819055508060045403600481905550600660009054906101000a900473ffffffffffffffffffffffffffffffffffffffff1673ffffffffffffffffffffffffffffffffffffffff166108fc829081150290604051600060405180830381858888f1935050505015801561163e573d6000803e3d6000fd5b508060086000878152602001908152602001600020600b018190555060006116a260086000888152602001908152602001600020600401546008600089815260200190815260200160002060050160009054906101000a900460ff1660ff16611d52565b9050806008600088815260200190815260200160002060040154036008600088815260200190815260200160002060040181905550806004540360048190555060086000878152602001908152602001600020600a0160009054906101000a900473ffffffffffffffffffffffffffffffffffffffff1673ffffffffffffffffffffffffffffffffffffffff166108fc829081150290604051600060405180830381858888f1935050505015801561175e573d6000803e3d6000fd5b508060086000888152602001908152602001600020600c018190555060006117c26008600089815260200190815260200160002060040154600860008a815260200190815260200160002060050160019054906101000a900460ff1660ff16611d52565b9050600060086000898152602001908152602001600020600701600087815260200190815260200160002060010154828115156117fb57fe5b049050816004540360048190555080600860008a8152602001908152602001600020600d018190555060008090505b600860008a81526020019081526020016000206007016000888152602001908152602001600020600101548160ff16101561194d576000600860008b8152602001908152602001600020600701600089815260200190815260200160002060000160008360ff16815260200190815260200160002060000160009054906101000a900473ffffffffffffffffffffffffffffffffffffffff16905082600860008c81526020019081526020016000206004015403600860008c8152602001908152602001600020600401819055508073ffffffffffffffffffffffffffffffffffffffff166108fc849081150290604051600060405180830381858888f1935050505015801561193e573d6000803e3d6000fd5b5050808060010191505061182a565b506000600860008a8152602001908152602001600020600601600088815260200190815260200160002060010154600860008b81526020019081526020016000206004015481151561199b57fe5b04905060008090505b600860008b81526020019081526020016000206006016000898152602001908152602001600020600101548160ff161015611ac7576000600860008c815260200190815260200160002060060160008a815260200190815260200160002060000160008360ff16815260200190815260200160002060000160009054906101000a900473ffffffffffffffffffffffffffffffffffffffff16905082600860008d81526020019081526020016000206004015403600860008d8152602001908152602001600020600401819055508073ffffffffffffffffffffffffffffffffffffffff166108fc849081150290604051600060405180830381858888f19350505050158015611ab8573d6000803e3d6000fd5b505080806001019150506119a4565b5080600860008b8152602001908152602001600020600e018190555050505050505b7fb0b53c79f7cd0d8c624f48414bdb76a381085a786cc7a98931e2fc76933b644e846040518082815260200191505060405180910390a150505050565b60008060005490506001831415611b405780915050611b7a565b600283101515611b78576000600190505b838160ff161015611b6e5781820191508080600101915050611b51565b5080915050611b7a565b505b919050565b611b87610f19565b34141515611bfd576040517f08c379a00000000000000000000000000000000000000000000000000000000081526004018080602001828103825260148152602001807f446f206e6f7420656e6f75676874206d6f6e657900000000000000000000000081525060200191505060405180910390fd5b336001600084815260200190815260200160002060000160006101000a81548173ffffffffffffffffffffffffffffffffffffffff021916908373ffffffffffffffffffffffffffffffffffffffff160217905550346001600084815260200190815260200160002060010181905550806001600084815260200190815260200160002060020181905550600260003373ffffffffffffffffffffffffffffffffffffffff1673ffffffffffffffffffffffffffffffffffffffff168152602001908152602001600020600001600081548092919060010191905055505050565b336001600084815260200190815260200160002060000160006101000a81548173ffffffffffffffffffffffffffffffffffffffff021916908373ffffffffffffffffffffffffffffffffffffffff1602179055508060016000848152602001908152602001600020600201819055505050565b60006064838302811515611d6257fe5b04905092915050565b5080546000825590600052602060002090810190611d899190611d8c565b50565b611dae91905b80821115611daa576000816000905550600101611d92565b5090565b9056fea165627a7a72305820478efd638b7d9675f7f15ab968cb25a15f7d9964ef4b83f7411fb46c11c641340029",
  "source": "pragma solidity ^0.5.2;\n\nimport \"./HoldMoney.sol\";\nimport \"./LoomERC20Coin.sol\";\n\ncontract Quize is HoldMoney {\n    uint8 private percentQuiz = 2;\n    uint256 public fullAmount;\n    uint256 private sevenDaysTimeStamp = 604800;\n    address payable companyAddress = 0x02810c3bc07De2ddAef89827b0dD6b223C7759d5;\n    LoomERC20Coin public tokenContract;\n\n    event eventIsFinish(int256 question_id);\n\n    struct Participant {\n        mapping(uint256 => Part) participants;\n        uint256 index;\n    }\n\n    struct Part {\n        address payable parts;\n    }\n\n    struct Validator {\n        mapping(uint256 => Valid) validators;\n        uint256 index;\n    }\n\n    struct Valid {\n        address payable valid;\n    }\n\n    struct Question {\n        int256 question_id;\n        uint256 startTime;\n        uint256 endTime;\n        uint8 questionQuantity;\n        uint256 money;\n        uint8 percentHost;\n        uint8 percentValidator;\n        mapping(uint256 => Participant) participant;\n        mapping(uint256 => Validator) validator;\n        int256 validatorsAmount;\n        int256 activeValidators;\n        address payable hostWallet;\n        uint256 persentFeeCompany;\n        uint256 persentFeeHost;\n        uint256 persentForEachValidators;\n        uint256 monayForParticipant;\n        uint256 correctAnswer;\n        address[] allParticipant;\n        uint256 quizePrice;\n    }\n\n    mapping(int256 => Question) questions;\n\n    constructor(LoomERC20Coin _tokenContract) public {\n        tokenContract = _tokenContract;\n    }\n\n    function startQestion(\n        int256 _question_id,\n        uint256 _startTime,\n        uint256 _endTime,\n        uint8 _percentHost,\n        uint8 _percentValidator,\n        uint8 _questionQuantity,\n        int256 _validatorsAmount,\n        uint256 _quizePrice,\n        bool _pathHoldMoney\n    ) public payable {\n        questions[_question_id].question_id = _question_id;\n        questions[_question_id].endTime = _endTime;\n        questions[_question_id].questionQuantity = _questionQuantity;\n        questions[_question_id].startTime = _startTime;\n        questions[_question_id].validatorsAmount = _validatorsAmount;\n        questions[_question_id].hostWallet = msg.sender;\n        questions[_question_id].quizePrice = _quizePrice;\n\n        if (_percentHost == 0) {\n            questions[_question_id].percentHost = 3;\n        } else {\n            questions[_question_id].percentHost = _percentHost;\n        }\n\n        if (_percentValidator == 0) {\n            questions[_question_id].percentValidator = 5;\n        } else {\n            questions[_question_id].percentValidator = _percentValidator;\n        }\n\n      _setMoneyRetention(_question_id, _endTime, _pathHoldMoney);\n    }\n\n    function setAnswer(int256 _question_id, uint8 _whichAnswer)\n      public\n      payable\n    {\n      require(setTimeAnswer(_question_id) == 0, \"Time is not valid\");\n      require(msg.value == questions[_question_id].quizePrice, \"Money do not enough\");\n\n      questions[_question_id].money += msg.value;\n      uint256 i = questions[_question_id].participant[_whichAnswer].index;\n      questions[_question_id].participant[_whichAnswer].participants[i].parts = msg.sender;\n      questions[_question_id].participant[_whichAnswer].index = i + 1;\n      questions[_question_id].allParticipant.push(msg.sender);\n      fullAmount += msg.value;\n\n    }\n\n    function setValidator(int256 _question_id, uint8 _whichAnswer)\n        public\n        payable\n    {\n      require(setTimeValidator(_question_id) == 0, \"Time is not valid\");\n      uint256 i = questions[_question_id].validator[_whichAnswer].index;\n      questions[_question_id].validator[_whichAnswer].validators[i].valid = msg.sender;\n      questions[_question_id].validator[_whichAnswer].index = i + 1;\n      int256 active = questions[_question_id].activeValidators + 1;\n      if (active == questions[_question_id].validatorsAmount) {\n        questions[_question_id].activeValidators = active;\n        letsPayMoney(_question_id);\n      } else {\n        questions[_question_id].activeValidators = active;\n      }\n    }\n\n    function letsPayMoney(int256 _question_id) private {\n        uint256 biggestValue = 0;\n        uint256 correctAnswer;\n        int256 questionQuantity = questions[_question_id].questionQuantity;\n\n        // find correct answer\n        for (uint8 i = 0; i < questionQuantity; i++) {\n            if (questions[_question_id].validator[i].index > biggestValue) {\n                biggestValue = questions[_question_id].validator[i].index;\n                correctAnswer = i;\n            }\n        }\n\n        questions[_question_id].correctAnswer = correctAnswer;\n\n        if (questions[_question_id].money > 0) {\n            // pay fee for company\n            uint256 persentFee = getPersent(\n                questions[_question_id].money,\n                percentQuiz\n            );\n            questions[_question_id].money =\n                questions[_question_id].money -\n                persentFee;\n            fullAmount = fullAmount - persentFee;\n            companyAddress.transfer(persentFee);\n\n            questions[_question_id].persentFeeCompany = persentFee;\n\n            // pay fee for host\n            uint256 persHostFee = getPersent(\n                questions[_question_id].money,\n                questions[_question_id].percentHost\n            );\n            questions[_question_id].money =\n                questions[_question_id].money -\n                persHostFee;\n            fullAmount = fullAmount - persHostFee;\n            questions[_question_id].hostWallet.transfer(persHostFee);\n\n            questions[_question_id].persentFeeHost = persHostFee;\n\n            // calculate percent for validator\n            uint256 persentForValidators = getPersent(\n                questions[_question_id].money,\n                questions[_question_id].percentValidator\n            );\n            uint256 persentForEachValidators = persentForValidators /\n                questions[_question_id].validator[correctAnswer].index;\n            fullAmount = fullAmount - persentForValidators;\n\n            questions[_question_id]\n                .persentForEachValidators = persentForEachValidators;\n\n            // pay for validatos\n            for (\n                uint8 i = 0;\n                i < questions[_question_id].validator[correctAnswer].index;\n                i++\n            ) {\n                address payable _validator = questions[_question_id]\n                    .validator[correctAnswer]\n                    .validators[i]\n                    .valid;\n                questions[_question_id].money =\n                    questions[_question_id].money -\n                    persentForEachValidators;\n                _validator.transfer(persentForEachValidators);\n            }\n\n            // Pay for participant\n            uint256 monayForParticipant = questions[_question_id].money /\n                questions[_question_id].participant[correctAnswer].index;\n            for (\n                uint8 i = 0;\n                i < questions[_question_id].participant[correctAnswer].index;\n                i++\n            ) {\n                address payable _participant = questions[_question_id]\n                    .participant[correctAnswer]\n                    .participants[i]\n                    .parts;\n                questions[_question_id].money =\n                    questions[_question_id].money -\n                    monayForParticipant;\n                _participant.transfer(monayForParticipant);\n            }\n\n            questions[_question_id].monayForParticipant = monayForParticipant;\n        }\n\n        emit eventIsFinish(_question_id);\n    }\n\n    function getPersent(uint256 _percent, uint256 _from)\n        private\n        pure\n        returns (uint256)\n    {\n        return (_from * _percent) / 100;\n    }\n\n    function getQuestion(int256 _question_id)\n        public\n        view\n        returns (\n            uint256 persentFeeCompany,\n            uint256 persentForEachValidators,\n            uint256 money,\n            uint256 monayForParticipant,\n            uint8 questionQuantity,\n            uint256 correctAnswer,\n            uint256 persentFeeHost\n        )\n    {\n        return (\n            questions[_question_id].persentFeeCompany,\n            questions[_question_id].persentForEachValidators,\n            questions[_question_id].money,\n            questions[_question_id].monayForParticipant,\n            questions[_question_id].questionQuantity,\n            questions[_question_id].correctAnswer,\n            questions[_question_id].persentFeeHost\n        );\n    }\n\n    function setTimeValidator(int256 _question_id) public view returns (int8) {\n        if (int256(now - questions[_question_id].endTime) >= 0) {\n            if (int256((questions[_question_id].endTime + sevenDaysTimeStamp) - now) >= 0) {\n                // if validator made activities like participants.\n                for (uint8 i = 0; i < questions[_question_id].allParticipant.length; i++) {\n                    if (questions[_question_id].allParticipant[i] == msg.sender) {\n                        return 3;\n                    }\n                }\n                // user can validate because time is valid.\n                return 0;\n            } else {\n                // user can't validate because time is finish.\n                return 2;\n            }\n        } else {\n            // user can't validate because event is not started yet.\n            return 1;\n        }\n    }\n\n    function setTimeAnswer(int256 _question_id) public view returns (int8) {\n        if (int256(now - questions[_question_id].startTime) >= 0) {\n            if (int256(questions[_question_id].endTime - now) >= 0) {\n                // user can make answer because time is valid.\n                return 0;\n            } else {\n                // user can't make answer because event is finish.\n                return 2;\n            }\n        } else {\n            // user can't make answer because event is not started yet.\n            return 1;\n        }\n    }\n\n    function deleteEventValidator(int256 _question_id)\n        public\n        view\n        returns (int8)\n    {\n        if (questions[_question_id].hostWallet == msg.sender) {\n            if (questions[_question_id].money == 0) {\n                // user can delete event\n                return 0;\n            } else {\n                // user can't delete event because event has money on balance\n                return 1;\n            }\n        } else {\n            // only owner can delete event.\n            return 2;\n        }\n    }\n\n    function deleteEvent(int256 _question_id) public {\n      require(deleteEventValidator(_question_id) == 0, \"Delete event is false\");\n        delete questions[_question_id];\n    }\n\n    function quizeBalance() public view returns (uint256){\n        return address(this).balance;\n    }\n}\n",
  "sourcePath": "/Users/macbook/Documents/freelance/node/QUIZE/frontend/contracts/Quize.sol",
  "compiler": {
    "name": "solc",
    "version": "0.5.2+commit.1df8f40c.Emscripten.clang"
  },
  "schemaVersion": "3.0.19",
  "updatedAt": "2020-03-30T09:50:09.958Z",
  "networkType": "ethereum",
  "devdoc": {
    "methods": {}
  },
  "userdoc": {
    "methods": {}
  }
}