{
  "contractName": "Quize",
  "abi": [
    {
      "anonymous": false,
      "inputs": [
        {
          "indexed": false,
          "internalType": "int256",
          "name": "question_id",
          "type": "int256"
        }
      ],
      "name": "eventIsFinish",
      "type": "event"
    },
    {
      "constant": false,
      "inputs": [
        {
          "internalType": "int256",
          "name": "_question_id",
          "type": "int256"
        },
        {
          "internalType": "uint256",
          "name": "_startTime",
          "type": "uint256"
        },
        {
          "internalType": "uint256",
          "name": "_endTime",
          "type": "uint256"
        },
        {
          "internalType": "uint8",
          "name": "_percentHost",
          "type": "uint8"
        },
        {
          "internalType": "uint8",
          "name": "_percentValidator",
          "type": "uint8"
        },
        {
          "internalType": "uint8",
          "name": "_questionQuantity",
          "type": "uint8"
        },
        {
          "internalType": "int256",
          "name": "_validatorsAmount",
          "type": "int256"
        }
      ],
      "name": "startQestion",
      "outputs": [],
      "payable": true,
      "stateMutability": "payable",
      "type": "function"
    },
    {
      "constant": false,
      "inputs": [
        {
          "internalType": "int256",
          "name": "_question_id",
          "type": "int256"
        },
        {
          "internalType": "uint8",
          "name": "_whichAnswer",
          "type": "uint8"
        }
      ],
      "name": "setAnswer",
      "outputs": [],
      "payable": true,
      "stateMutability": "payable",
      "type": "function"
    },
    {
      "constant": true,
      "inputs": [
        {
          "internalType": "int256",
          "name": "_question_id",
          "type": "int256"
        },
        {
          "internalType": "uint256",
          "name": "index",
          "type": "uint256"
        },
        {
          "internalType": "uint8",
          "name": "_whichAnswer",
          "type": "uint8"
        }
      ],
      "name": "getIndex",
      "outputs": [
        {
          "internalType": "address",
          "name": "",
          "type": "address"
        }
      ],
      "payable": false,
      "stateMutability": "view",
      "type": "function"
    },
    {
      "constant": true,
      "inputs": [],
      "name": "getFullAmount",
      "outputs": [
        {
          "internalType": "uint256",
          "name": "",
          "type": "uint256"
        }
      ],
      "payable": false,
      "stateMutability": "view",
      "type": "function"
    },
    {
      "constant": false,
      "inputs": [
        {
          "internalType": "int256",
          "name": "_question_id",
          "type": "int256"
        },
        {
          "internalType": "uint8",
          "name": "_whichAnswer",
          "type": "uint8"
        }
      ],
      "name": "setValidator",
      "outputs": [],
      "payable": true,
      "stateMutability": "payable",
      "type": "function"
    },
    {
      "constant": true,
      "inputs": [
        {
          "internalType": "int256",
          "name": "_question_id",
          "type": "int256"
        }
      ],
      "name": "getQuestion",
      "outputs": [
        {
          "internalType": "uint256",
          "name": "persentFee",
          "type": "uint256"
        },
        {
          "internalType": "uint256",
          "name": "persentForEachValidators",
          "type": "uint256"
        },
        {
          "internalType": "uint256",
          "name": "money",
          "type": "uint256"
        },
        {
          "internalType": "uint256",
          "name": "monayForParticipant",
          "type": "uint256"
        },
        {
          "internalType": "uint8",
          "name": "questionQuantity",
          "type": "uint8"
        },
        {
          "internalType": "uint256",
          "name": "correctAnswer",
          "type": "uint256"
        }
      ],
      "payable": false,
      "stateMutability": "view",
      "type": "function"
    },
    {
      "constant": true,
      "inputs": [
        {
          "internalType": "int256",
          "name": "_question_id",
          "type": "int256"
        }
      ],
      "name": "setTimeValidator",
      "outputs": [
        {
          "internalType": "int8",
          "name": "",
          "type": "int8"
        }
      ],
      "payable": false,
      "stateMutability": "view",
      "type": "function"
    },
    {
      "constant": true,
      "inputs": [
        {
          "internalType": "int256",
          "name": "_question_id",
          "type": "int256"
        }
      ],
      "name": "setTimeAnswer",
      "outputs": [
        {
          "internalType": "int8",
          "name": "",
          "type": "int8"
        }
      ],
      "payable": false,
      "stateMutability": "view",
      "type": "function"
    }
  ],
  "bytecode": "0x608060405260036000806101000a81548160ff021916908360ff16021790555062093a806002557302810c3bc07de2ddaef89827b0dd6b223c7759d5600360006101000a81548173ffffffffffffffffffffffffffffffffffffffff021916908373ffffffffffffffffffffffffffffffffffffffff16021790555034801561008757600080fd5b50611059806100976000396000f3fe60806040526004361061007b5760003560e01c8063659981861161004e57806365998186146101c357806374e6f40e14610236578063834f8047146102615780639015a299146102b65761007b565b80632a7100cc146100805780633493c862146100bb57806334be86c81461011057806357146e061461014b575b600080fd5b6100b96004803603604081101561009657600080fd5b8101908080359060200190929190803560ff169060200190929190505050610348565b005b3480156100c757600080fd5b506100f4600480360360208110156100de57600080fd5b81019080803590602001909291905050506104aa565b604051808260000b60000b815260200191505060405180910390f35b6101496004803603604081101561012657600080fd5b8101908080359060200190929190803560ff16906020019092919050505061050b565b005b34801561015757600080fd5b506101846004803603602081101561016e57600080fd5b81019080803590602001909291905050506106bf565b604051808781526020018681526020018581526020018481526020018360ff1660ff168152602001828152602001965050505050505060405180910390f35b610234600480360360e08110156101d957600080fd5b81019080803590602001909291908035906020019092919080359060200190929190803560ff169060200190929190803560ff169060200190929190803560ff16906020019092919080359060200190929190505050610774565b005b34801561024257600080fd5b5061024b610995565b6040518082815260200191505060405180910390f35b34801561026d57600080fd5b5061029a6004803603602081101561028457600080fd5b810190808035906020019092919050505061099f565b604051808260000b60000b815260200191505060405180910390f35b3480156102c257600080fd5b50610306600480360360608110156102d957600080fd5b810190808035906020019092919080359060200190929190803560ff1690602001909291905050506109fc565b604051808273ffffffffffffffffffffffffffffffffffffffff1673ffffffffffffffffffffffffffffffffffffffff16815260200191505060405180910390f35b600060046000848152602001908152602001600020600101544203126104a657600042600460008581526020019081526020016000206002015403126104a55734600460008481526020019081526020016000206004016000828254019250508190555060006004600084815260200190815260200160002060060160008360ff168152602001908152602001600020600101549050336004600085815260200190815260200160002060060160008460ff168152602001908152602001600020600001600083815260200190815260200160002060000160006101000a81548173ffffffffffffffffffffffffffffffffffffffff021916908373ffffffffffffffffffffffffffffffffffffffff160217905550600181016004600085815260200190815260200160002060060160008460ff1681526020019081526020016000206001018190555034600160008282540192505081905550505b5b5050565b60008060046000848152602001908152602001600020600201544203126105015760004260025460046000868152602001908152602001600020600201540103126104f85760009050610506565b60029050610506565b600190505b919050565b600060046000848152602001908152602001600020600201544203126106bb5760004260025460046000868152602001908152602001600020600201540103126106ba5760006004600084815260200190815260200160002060070160008360ff168152602001908152602001600020600101549050336004600085815260200190815260200160002060070160008460ff168152602001908152602001600020600001600083815260200190815260200160002060000160006101000a81548173ffffffffffffffffffffffffffffffffffffffff021916908373ffffffffffffffffffffffffffffffffffffffff160217905550600181016004600085815260200190815260200160002060070160008460ff16815260200190815260200160002060010181905550600060016004600086815260200190815260200160002060090154019050600460008581526020019081526020016000206008015481141561069b5780600460008681526020019081526020016000206009018190555061069684610a69565b6106b7565b8060046000868152602001908152602001600020600901819055505b50505b5b5050565b60008060008060008060046000888152602001908152602001600020600b015460046000898152602001908152602001600020600c0154600460008a815260200190815260200160002060040154600460008b8152602001908152602001600020600d0154600460008c815260200190815260200160002060030160009054906101000a900460ff16600460008d8152602001908152602001600020600e015495509550955095509550955091939550919395565b600560003373ffffffffffffffffffffffffffffffffffffffff1673ffffffffffffffffffffffffffffffffffffffff168152602001908152602001600020600001879080600181540180825580915050906001820390600052602060002001600090919290919091505550866004600089815260200190815260200160002060000181905550846004600089815260200190815260200160002060020181905550816004600089815260200190815260200160002060030160006101000a81548160ff021916908360ff160217905550856004600089815260200190815260200160002060010181905550806004600089815260200190815260200160002060080181905550600060046000898152602001908152602001600020600a0160006101000a81548160ff02191690831515021790555060008460ff1614156108eb5760036004600089815260200190815260200160002060050160006101000a81548160ff021916908360ff16021790555061091b565b836004600089815260200190815260200160002060050160006101000a81548160ff021916908360ff1602179055505b60008360ff16141561095c5760056004600089815260200190815260200160002060050160016101000a81548160ff021916908360ff16021790555061098c565b826004600089815260200190815260200160002060050160016101000a81548160ff021916908360ff1602179055505b50505050505050565b6000600154905090565b60008060046000848152602001908152602001600020600101544203126109f257600042600460008581526020019081526020016000206002015403126109e957600090506109f7565b600290506109f7565b600190505b919050565b60006004600085815260200190815260200160002060060160008360ff168152602001908152602001600020600001600084815260200190815260200160002060000160009054906101000a900473ffffffffffffffffffffffffffffffffffffffff1690509392505050565b60008090506000600160046000858152602001908152602001600020600a0160006101000a81548160ff02191690831515021790555060006004600085815260200190815260200160002060030160009054906101000a900460ff1660ff1690506000610afd60046000878152602001908152602001600020600401546000809054906101000a900460ff1660ff1661100d565b90508060046000878152602001908152602001600020600401540360046000878152602001908152602001600020600401819055508060015403600181905550600360009054906101000a900473ffffffffffffffffffffffffffffffffffffffff1673ffffffffffffffffffffffffffffffffffffffff166108fc829081150290604051600060405180830381858888f19350505050158015610ba5573d6000803e3d6000fd5b508060046000878152602001908152602001600020600b018190555060008090505b828160ff161215610c4b57846004600088815260200190815260200160002060070160008360ff168152602001908152602001600020600101541115610c3e576004600087815260200190815260200160002060070160008260ff1681526020019081526020016000206001015494508060ff1693505b8080600101915050610bc7565b508260046000878152602001908152602001600020600e01819055506000610caf60046000888152602001908152602001600020600401546004600089815260200190815260200160002060050160019054906101000a900460ff1660ff1661100d565b90506000600460008881526020019081526020016000206007016000868152602001908152602001600020600101548281610ce657fe5b04905081600154036001819055508060046000898152602001908152602001600020600c018190555060008090505b600460008981526020019081526020016000206007016000878152602001908152602001600020600101548160ff161015610e38576000600460008a8152602001908152602001600020600701600088815260200190815260200160002060000160008360ff16815260200190815260200160002060000160009054906101000a900473ffffffffffffffffffffffffffffffffffffffff16905082600460008b81526020019081526020016000206004015403600460008b8152602001908152602001600020600401819055508073ffffffffffffffffffffffffffffffffffffffff166108fc849081150290604051600060405180830381858888f19350505050158015610e29573d6000803e3d6000fd5b50508080600101915050610d15565b50600060046000898152602001908152602001600020600601600087815260200190815260200160002060010154600460008a81526020019081526020016000206004015481610e8457fe5b04905060008090505b600460008a81526020019081526020016000206006016000888152602001908152602001600020600101548160ff161015610fb0576000600460008b8152602001908152602001600020600601600089815260200190815260200160002060000160008360ff16815260200190815260200160002060000160009054906101000a900473ffffffffffffffffffffffffffffffffffffffff16905082600460008c81526020019081526020016000206004015403600460008c8152602001908152602001600020600401819055508073ffffffffffffffffffffffffffffffffffffffff166108fc849081150290604051600060405180830381858888f19350505050158015610fa1573d6000803e3d6000fd5b50508080600101915050610e8d565b5080600460008a8152602001908152602001600020600d01819055507fb0b53c79f7cd0d8c624f48414bdb76a381085a786cc7a98931e2fc76933b644e886040518082815260200191505060405180910390a15050505050505050565b600060648383028161101b57fe5b0490509291505056fea265627a7a72315820eef44fb462e17d333dac3e88570c11f7c0aa037b8f5cb241d7785dc62913035b64736f6c634300050c0032",
  "source": "pragma solidity >=0.4.22 <0.6.0;\n\ncontract Quize {\n     uint8 private percentQuiz = 3;\n     uint256 private fullAmount;\n     uint256 private sevenDaysTimeStamp = 604800;\n     address payable companyAddress = 0x02810c3bc07De2ddAef89827b0dD6b223C7759d5;\n\n    event eventIsFinish(\n        int question_id\n        );\n\n    struct Participant{\n        mapping (uint256 => Part) participants;\n        uint256 index;\n    }\n\n    struct Part {\n        address payable parts;\n    }\n\n    struct Validator{\n        mapping (uint256 => Valid) validators;\n        uint256 index;\n    }\n\n    struct Valid {\n        address payable valid;\n    }\n\n     struct Question {\n         int question_id;\n         uint256 startTime;\n         uint256 endTime;\n         uint8 questionQuantity;\n         uint256 money;\n         uint8 percentHost;\n         uint8 percentValidator;\n         mapping (uint256 => Participant) participant;\n         mapping (uint256 => Validator) validator;\n         int validatorsAmount;\n         int activeValidators;\n         bool pay;\n         uint persentFee;\n         uint persentForEachValidators;\n         uint monayForParticipant;\n         uint correctAnswer;\n     }\n\n     struct Host {\n         int[] questions_id;\n     }\n\n        mapping (int => Question) questions;\n        mapping (address => Host) host_id_wallet;\n\n    function startQestion(\n           int _question_id,\n           uint256 _startTime,\n           uint256 _endTime,\n           uint8 _percentHost,\n           uint8 _percentValidator,\n           uint8 _questionQuantity,\n           int _validatorsAmount\n        ) public payable {\n           host_id_wallet[msg.sender].questions_id.push(_question_id);\n\n           questions[_question_id].question_id = _question_id;\n           questions[_question_id].endTime = _endTime;\n           questions[_question_id].questionQuantity = _questionQuantity;\n           questions[_question_id].startTime = _startTime;\n           questions[_question_id].validatorsAmount = _validatorsAmount;\n           questions[_question_id].pay = false;\n\n        if(_percentHost == 0){\n            questions[_question_id].percentHost = 3;\n        }else{\n           questions[_question_id].percentHost = _percentHost;\n        }\n\n        if(_percentValidator == 0){\n            questions[_question_id].percentValidator = 5;\n        }else{\n           questions[_question_id].percentValidator = _percentValidator;\n        }\n    }\n\n   function setAnswer(int256 _question_id, uint8 _whichAnswer) public payable{\n       if(int(now - questions[_question_id].startTime) >= 0){\n           if(int(questions[_question_id].endTime - now) >= 0){\n              questions[_question_id].money += msg.value;\n              uint256 i = questions[_question_id].participant[_whichAnswer].index;\n              questions[_question_id].participant[_whichAnswer].participants[i].parts = msg.sender;\n              questions[_question_id].participant[_whichAnswer].index = i + 1;\n              fullAmount += msg.value;\n           }\n       }\n    }\n\n    function getIndex(int256 _question_id, uint256 index, uint8 _whichAnswer) public view returns(address){\n       return questions[_question_id].participant[_whichAnswer].participants[index].parts;\n    }\n\n    function getFullAmount() public view returns(uint256){\n        return fullAmount;\n    }\n\n    function setValidator(int _question_id, uint8 _whichAnswer ) public payable{\n        if(int(now - questions[_question_id].endTime) >= 0){\n          if(int((questions[_question_id].endTime + sevenDaysTimeStamp) - now) >= 0){\n            uint256 i = questions[_question_id].validator[_whichAnswer].index;\n            questions[_question_id].validator[_whichAnswer].validators[i].valid = msg.sender;\n            questions[_question_id].validator[_whichAnswer].index = i + 1;\n            int active = questions[_question_id].activeValidators + 1;\n           if(active == questions[_question_id].validatorsAmount){\n             questions[_question_id].activeValidators = active;\n             letsPayMoney(_question_id);\n           }else{\n               questions[_question_id].activeValidators = active;\n           }\n          }\n        }\n    }\n\n    function letsPayMoney(int _question_id) private {\n       uint biggestValue = 0;\n       uint correctAnswer;\n        questions[_question_id].pay = true;\n        int256 questionQuantity = questions[_question_id].questionQuantity;\n\n        // pay fee for company\n        uint256 persentFee = getPersent(questions[_question_id].money, percentQuiz);\n        questions[_question_id].money = questions[_question_id].money - persentFee;\n        fullAmount = fullAmount - persentFee;\n        address(companyAddress).transfer(persentFee);\n\n        questions[_question_id].persentFee = persentFee;\n\n        // find correct answer\n        for(uint8 i = 0; i < questionQuantity; i++){\n          if(questions[_question_id].validator[i].index > biggestValue){\n              biggestValue = questions[_question_id].validator[i].index;\n              correctAnswer = i;\n          }\n        }\n\n        questions[_question_id].correctAnswer = correctAnswer;\n\n\n         // calculate percent for validator\n        uint256 persentForValidators = getPersent(questions[_question_id].money, questions[_question_id].percentValidator);\n        uint256 persentForEachValidators = persentForValidators / questions[_question_id].validator[correctAnswer].index;\n        fullAmount = fullAmount - persentForValidators;\n\n        questions[_question_id].persentForEachValidators = persentForEachValidators;\n\n\n        // pay for validatos\n        for(uint8 i = 0; i < questions[_question_id].validator[correctAnswer].index; i++){\n          address payable _validator = questions[_question_id].validator[correctAnswer].validators[i].valid;\n          questions[_question_id].money = questions[_question_id].money - persentForEachValidators;\n          address(_validator).transfer(persentForEachValidators);\n        }\n\n        // Pay for participant\n        uint256 monayForParticipant = questions[_question_id].money / questions[_question_id].participant[correctAnswer].index;\n            for(uint8 i = 0; i < questions[_question_id].participant[correctAnswer].index; i++){\n                address payable _participant = questions[_question_id].participant[correctAnswer].participants[i].parts;\n                questions[_question_id].money = questions[_question_id].money - monayForParticipant;\n                address(_participant).transfer(monayForParticipant);\n            }\n\n        questions[_question_id].monayForParticipant = monayForParticipant;\n\n        emit eventIsFinish(\n            _question_id\n        );\n\n        // // Delete question from storage\n        // delete questions[_question_id];\n    }\n\n\n    function getPersent(uint _percent, uint _from) private pure returns(uint){\n       return _from * _percent / 100;\n    }\n\n    function getQuestion(int _question_id) public view returns(\n           uint persentFee,\n           uint persentForEachValidators,\n           uint256 money,\n           uint monayForParticipant,\n           uint8 questionQuantity,\n           uint correctAnswer\n           ){\n       return(\n              questions[_question_id].persentFee,\n              questions[_question_id].persentForEachValidators,\n              questions[_question_id].money,\n              questions[_question_id].monayForParticipant,\n              questions[_question_id].questionQuantity,\n              questions[_question_id].correctAnswer\n              );\n    }\n\n    function setTimeValidator(int _question_id) public view returns(int8){\n        if(int(now - questions[_question_id].endTime) >= 0){\n          if(int((questions[_question_id].endTime + sevenDaysTimeStamp) - now) >= 0){\n            return 0;\n          }else{\n            return 2;\n          }\n        }else{\n            return 1;\n        }\n    }\n\n    function setTimeAnswer(int256 _question_id) public view returns(int8){\n         if(int(now - questions[_question_id].startTime) >= 0){\n            if(int(questions[_question_id].endTime - now) >= 0){\n              return 0;\n            }else{\n              return 2;\n            }\n         }else{\n             return 1;\n         }\n      }\n\n}",
  "sourcePath": "/Users/macbook/Documents/freelance/Angular/Quiz/contracts/Quize.sol",
  "compiler": {
    "name": "solc",
    "version": "0.5.12+commit.7709ece9.Emscripten.clang"
  },
  "schemaVersion": "3.0.19",
  "updatedAt": "2019-12-17T10:32:45.776Z",
  "networkType": "ethereum",
  "devdoc": {
    "methods": {}
  },
  "userdoc": {
    "methods": {}
  }
}