{
  "contractName": "Quize",
  "abi": [
    {
      "anonymous": false,
      "inputs": [
        {
          "indexed": false,
          "internalType": "uint256",
          "name": "endTime",
          "type": "uint256"
        },
        {
          "indexed": false,
          "internalType": "int8",
          "name": "questionQuantity",
          "type": "int8"
        },
        {
          "indexed": false,
          "internalType": "uint256",
          "name": "startTime",
          "type": "uint256"
        },
        {
          "indexed": false,
          "internalType": "int8",
          "name": "percentHost",
          "type": "int8"
        },
        {
          "indexed": false,
          "internalType": "int8",
          "name": "percentValidator",
          "type": "int8"
        }
      ],
      "name": "NewQuestionAdded",
      "type": "event"
    },
    {
      "constant": false,
      "inputs": [
        {
          "internalType": "address",
          "name": "host_wallet",
          "type": "address"
        },
        {
          "internalType": "int256",
          "name": "_question_id",
          "type": "int256"
        },
        {
          "internalType": "uint256",
          "name": "_startTime",
          "type": "uint256"
        },
        {
          "internalType": "uint256",
          "name": "_endTime",
          "type": "uint256"
        },
        {
          "internalType": "int8",
          "name": "_percentHost",
          "type": "int8"
        },
        {
          "internalType": "int8",
          "name": "_percentValidator",
          "type": "int8"
        },
        {
          "internalType": "int8",
          "name": "_questionQuantity",
          "type": "int8"
        }
      ],
      "name": "startQestion",
      "outputs": [],
      "payable": true,
      "stateMutability": "payable",
      "type": "function"
    },
    {
      "constant": true,
      "inputs": [
        {
          "internalType": "int256",
          "name": "_question_id",
          "type": "int256"
        }
      ],
      "name": "setAnswerValidator",
      "outputs": [
        {
          "internalType": "int8",
          "name": "",
          "type": "int8"
        }
      ],
      "payable": false,
      "stateMutability": "view",
      "type": "function"
    },
    {
      "constant": false,
      "inputs": [
        {
          "internalType": "int256",
          "name": "_question_id",
          "type": "int256"
        },
        {
          "internalType": "uint8",
          "name": "_whichAnswer",
          "type": "uint8"
        }
      ],
      "name": "setAnswer",
      "outputs": [],
      "payable": true,
      "stateMutability": "payable",
      "type": "function"
    },
    {
      "constant": true,
      "inputs": [
        {
          "internalType": "int256",
          "name": "_question_id",
          "type": "int256"
        },
        {
          "internalType": "uint256",
          "name": "index",
          "type": "uint256"
        },
        {
          "internalType": "uint8",
          "name": "_whichAnswer",
          "type": "uint8"
        }
      ],
      "name": "getIndex",
      "outputs": [
        {
          "internalType": "address",
          "name": "",
          "type": "address"
        }
      ],
      "payable": false,
      "stateMutability": "view",
      "type": "function"
    },
    {
      "constant": true,
      "inputs": [],
      "name": "getFullAmount",
      "outputs": [
        {
          "internalType": "uint256",
          "name": "",
          "type": "uint256"
        }
      ],
      "payable": false,
      "stateMutability": "view",
      "type": "function"
    },
    {
      "constant": true,
      "inputs": [
        {
          "internalType": "address",
          "name": "host_wallet",
          "type": "address"
        }
      ],
      "name": "getHostQestionsIndex",
      "outputs": [
        {
          "internalType": "uint256",
          "name": "",
          "type": "uint256"
        }
      ],
      "payable": false,
      "stateMutability": "view",
      "type": "function"
    },
    {
      "constant": true,
      "inputs": [
        {
          "internalType": "address",
          "name": "host_wallet",
          "type": "address"
        },
        {
          "internalType": "uint256",
          "name": "index",
          "type": "uint256"
        }
      ],
      "name": "getHostQestionsId",
      "outputs": [
        {
          "internalType": "int256",
          "name": "",
          "type": "int256"
        }
      ],
      "payable": false,
      "stateMutability": "view",
      "type": "function"
    },
    {
      "constant": true,
      "inputs": [
        {
          "internalType": "int256",
          "name": "_question_id",
          "type": "int256"
        }
      ],
      "name": "getQuestion",
      "outputs": [
        {
          "internalType": "uint256",
          "name": "endTime",
          "type": "uint256"
        },
        {
          "internalType": "int8",
          "name": "questionQuantity",
          "type": "int8"
        },
        {
          "internalType": "uint256",
          "name": "startTime",
          "type": "uint256"
        },
        {
          "internalType": "int8",
          "name": "percentHost",
          "type": "int8"
        },
        {
          "internalType": "int8",
          "name": "percentValidator",
          "type": "int8"
        }
      ],
      "payable": false,
      "stateMutability": "view",
      "type": "function"
    }
  ],
  "bytecode": "0x608060405260036000806101000a81548160ff021916908360000b60ff16021790555034801561002e57600080fd5b50610a058061003e6000396000f3fe60806040526004361061007b5760003560e01c80639015a2991161004e5780639015a299146101d2578063b1fdb35a14610264578063e086461b146102c9578063e60b69af146103525761007b565b80632a7100cc1461008057806357146e06146100bb5780635c60dead1461013857806374e6f40e146101a7575b600080fd5b6100b96004803603604081101561009657600080fd5b8101908080359060200190929190803560ff1690602001909291905050506103a7565b005b3480156100c757600080fd5b506100f4600480360360208110156100de57600080fd5b8101908080359060200190929190505050610509565b604051808681526020018560000b60000b81526020018481526020018360000b60000b81526020018260000b60000b81526020019550505050505060405180910390f35b34801561014457600080fd5b506101916004803603604081101561015b57600080fd5b81019080803573ffffffffffffffffffffffffffffffffffffffff169060200190929190803590602001909291905050506105be565b6040518082815260200191505060405180910390f35b3480156101b357600080fd5b506101bc610620565b6040518082815260200191505060405180910390f35b3480156101de57600080fd5b50610222600480360360608110156101f557600080fd5b810190808035906020019092919080359060200190929190803560ff16906020019092919050505061062a565b604051808273ffffffffffffffffffffffffffffffffffffffff1673ffffffffffffffffffffffffffffffffffffffff16815260200191505060405180910390f35b34801561027057600080fd5b506102b36004803603602081101561028757600080fd5b81019080803573ffffffffffffffffffffffffffffffffffffffff169060200190929190505050610697565b6040518082815260200191505060405180910390f35b610350600480360360e08110156102df57600080fd5b81019080803573ffffffffffffffffffffffffffffffffffffffff169060200190929190803590602001909291908035906020019092919080359060200190929190803560000b9060200190929190803560000b9060200190929190803560000b90602001909291905050506106e6565b005b34801561035e57600080fd5b5061038b6004803603602081101561037557600080fd5b8101908080359060200190929190505050610973565b604051808260000b60000b815260200191505060405180910390f35b6000600260008481526020019081526020016000206001015442031261050557600042600260008581526020019081526020016000206002015403126105045734600260008481526020019081526020016000206004016000828254019250508190555060006002600084815260200190815260200160002060060160008360ff168152602001908152602001600020600101549050336002600085815260200190815260200160002060060160008460ff168152602001908152602001600020600001600083815260200190815260200160002060000160006101000a81548173ffffffffffffffffffffffffffffffffffffffff021916908373ffffffffffffffffffffffffffffffffffffffff160217905550600181016002600085815260200190815260200160002060060160008460ff1681526020019081526020016000206001018190555034600160008282540192505081905550505b5b5050565b600080600080600060026000878152602001908152602001600020600201546002600088815260200190815260200160002060030160009054906101000a900460000b6002600089815260200190815260200160002060010154600260008a815260200190815260200160002060050160009054906101000a900460000b600260008b815260200190815260200160002060050160019054906101000a900460000b9450945094509450945091939590929450565b6000600360008473ffffffffffffffffffffffffffffffffffffffff1673ffffffffffffffffffffffffffffffffffffffff168152602001908152602001600020600001828154811061060d57fe5b9060005260206000200154905092915050565b6000600154905090565b60006002600085815260200190815260200160002060060160008360ff168152602001908152602001600020600001600084815260200190815260200160002060000160009054906101000a900473ffffffffffffffffffffffffffffffffffffffff1690509392505050565b6000600360008373ffffffffffffffffffffffffffffffffffffffff1673ffffffffffffffffffffffffffffffffffffffff168152602001908152602001600020600001805490509050919050565b600360008873ffffffffffffffffffffffffffffffffffffffff1673ffffffffffffffffffffffffffffffffffffffff168152602001908152602001600020600001869080600181540180825580915050906001820390600052602060002001600090919290919091505550856002600088815260200190815260200160002060000181905550836002600088815260200190815260200160002060020181905550806002600088815260200190815260200160002060030160006101000a81548160ff021916908360000b60ff1602179055508460026000888152602001908152602001600020600101819055507fffffffffffffffffffffffffffffffffffffffffffffffffffffffffffffffff8360000b14156108385760036002600088815260200190815260200160002060050160006101000a81548160ff021916908360000b60ff16021790555061086b565b826002600088815260200190815260200160002060050160006101000a81548160ff021916908360000b60ff1602179055505b7fffffffffffffffffffffffffffffffffffffffffffffffffffffffffffffffff8260000b14156108ce5760056002600088815260200190815260200160002060050160016101000a81548160ff021916908360000b60ff160217905550610901565b816002600088815260200190815260200160002060050160016101000a81548160ff021916908360000b60ff1602179055505b7f7fcd55246a448e787d9539568b0d70d407c8f746d6c2d1444ad2ec3d4850e8e58482878686604051808681526020018560000b60000b81526020018481526020018360000b60000b81526020018260000b60000b81526020019550505050505060405180910390a150505050505050565b60008060026000848152602001908152602001600020600101544203126109c657600042600260008581526020019081526020016000206002015403126109bd57600090506109cb565b600290506109cb565b600190505b91905056fea265627a7a72315820aa42358c356002e64decd18e1da4059e77de732c547546af5932185f6198b15264736f6c634300050c0032",
  "source": "pragma solidity >=0.4.22 <0.6.0;\n\ncontract Quize {\n     int8 private percentQuiz = 3;\n     uint256 private fullAmount;\n\n     event NewQuestionAdded(\n        uint256 endTime,\n        int8 questionQuantity,\n        uint256 startTime,\n        int8 percentHost,\n        int8 percentValidator);\n\n    struct Participant{\n        mapping (uint256 => Part) participants;\n        uint256 index;\n    }\n\n    struct Part {\n        address payable parts;\n    }\n\n    struct Validator{\n        mapping (uint256 => Valid) validators;\n        uint256 index;\n    }\n\n    struct Valid {\n        address payable valid;\n    }\n\n     struct Qestion {\n         int question_id;\n         uint256 startTime;\n         uint256 endTime;\n         int8 questionQuantity;\n         uint256 money;\n         int8 percentHost;\n         int8 percentValidator;\n         mapping (uint256 => Participant) participant;\n         mapping (uint256 => Validator) validator;\n         address[] allParticipants;\n         address[] allValidator;\n     }\n\n     struct Host {\n         int[] qestions_id;\n     }\n\n        mapping (int => Qestion) qestions;\n        mapping (address => Host) host_id_wallet;\n\n    function startQestion(\n           address host_wallet,\n           int _question_id,\n           uint256 _startTime,\n           uint256 _endTime,\n           int8 _percentHost,\n           int8 _percentValidator,\n           int8 _questionQuantity\n        ) public payable {\n           host_id_wallet[host_wallet].qestions_id.push(_question_id);\n\n           qestions[_question_id].question_id = _question_id;\n           qestions[_question_id].endTime = _endTime;\n           qestions[_question_id].questionQuantity = _questionQuantity;\n           qestions[_question_id].startTime = _startTime;\n\n        if(_percentHost == -1){\n            qestions[_question_id].percentHost = 3;\n        }else{\n           qestions[_question_id].percentHost = _percentHost;\n        }\n\n        if(_percentValidator == -1){\n            qestions[_question_id].percentValidator = 5;\n        }else{\n           qestions[_question_id].percentValidator = _percentValidator;\n        }\n\n        emit NewQuestionAdded(\n            _endTime,\n            _questionQuantity,\n           _startTime,\n           _percentHost,\n           _percentValidator\n        );\n    }\n\n    function setAnswerValidator(int256 _question_id) public view returns(int8){\n         if(int(now - qestions[_question_id].startTime) >= 0){\n            if(int(qestions[_question_id].endTime - now) >= 0){\n              return 0;\n            }else{\n              return 2;\n            }\n         }else{\n             return 1;\n         }\n      }\n\n   function setAnswer(int256 _question_id, uint8 _whichAnswer) public payable{\n       if(int(now - qestions[_question_id].startTime) >= 0){\n           if(int(qestions[_question_id].endTime - now) >= 0){\n              qestions[_question_id].money += msg.value;\n              uint256 i = qestions[_question_id].participant[_whichAnswer].index;\n              qestions[_question_id].participant[_whichAnswer].participants[i].parts = msg.sender;\n              qestions[_question_id].participant[_whichAnswer].index = i + 1;\n              fullAmount += msg.value;\n           }\n       }\n    }\n\n    function getIndex(int256 _question_id, uint256 index, uint8 _whichAnswer) public view returns(address){\n       return qestions[_question_id].participant[_whichAnswer].participants[index].parts;\n    }\n\n    function getFullAmount() public view returns(uint256){\n        return fullAmount;\n    }\n\n    // function setValidator(int _question_id, address payable _answer, uint8 _whichAnswer, int256 _timeNow) public payable{\n    //    if((qestions[_question_id].endTime - _timeNow) > 0){\n    //        qestions[_question_id].validator[_whichAnswer].validators.push(_answer);\n    //    }\n    // }\n\n\n    function getHostQestionsIndex(address host_wallet) public view returns(uint256){\n        return host_id_wallet[host_wallet].qestions_id.length;\n    }\n\n     function getHostQestionsId(address host_wallet, uint256 index) public view returns(int256){\n        return host_id_wallet[host_wallet].qestions_id[index];\n    }\n\n    // function payQestion(int _question_id) public payable {\n    //     if((qestions[_question_id].endTime - qestions[_question_id].startTime) > 0){\n    //         // pay fee for company\n    //         int256 persentFee = getPersent(percentQuiz, int(qestions[_question_id].money));\n    //         qestions[_question_id].money = qestions[_question_id].money - uint(persentFee);\n    //         address(msg.sender).transfer(uint(persentFee));\n\n    //         int256 questionQuantity = qestions[_question_id].questionQuantity;\n    //         uint[] memory validator;\n\n    //         //Get length of validators\n    //         for(uint8 i = 0; i > questionQuantity; i++){\n    //            validator[i] = qestions[_question_id].validator[i].validators.length;\n    //         }\n    //         // Find corect answer\n    //         uint8 correctValidator = getIndexOfLargest(validator);\n\n    //         if(qestions[_question_id].percentValidator != 0){\n    //             int256 persentForValidators = getPersent(qestions[_question_id].percentValidator, int(qestions[_question_id].money));\n    //             int256 persentForEachValidators = persentForValidators / int(qestions[_question_id].validator[correctValidator].validators.length);\n\n    //             // Pay for validators\n    //             for(uint8 i = 0; i > qestions[_question_id].validator[correctValidator].validators.length; i++){\n    //               address payable _validator = qestions[_question_id].validator[correctValidator].validators[i];\n    //               qestions[_question_id].money = qestions[_question_id].money - uint(persentForValidators);\n    //               address(_validator).transfer(uint(persentForEachValidators));\n    //             }\n    //         }\n\n\n    //         // Pay for participant\n    //         uint256 monayForParticipant = qestions[_question_id].money / qestions[_question_id].participant[correctValidator].participants.length;\n    //         for(uint8 i = 0; i > qestions[_question_id].participant[correctValidator].participants.length; i++){\n    //             address payable _participant = qestions[_question_id].participant[correctValidator].participants[i];\n    //             address(_participant).transfer(monayForParticipant);\n    //         }\n    //         delete qestions[_question_id];\n\n    //     }\n    // }\n\n    function getPersent(int _percent, int _from) private pure returns(int256){\n       return (_percent / 100) * _from;\n    }\n\n    function getIndexOfLargest( uint[] memory array ) private pure returns(uint8){\n        uint8 largest = 0;\n        for ( uint8 i = 1; i < array.length; i++ ){\n           if ( array[i] > array[largest] ) largest = i;\n        }\n        return largest;\n    }\n\n    function getQuestion(int _question_id) public view returns(\n           uint256 endTime,\n           int8 questionQuantity,\n           uint256 startTime,\n           int8 percentHost,\n           int8 percentValidator\n           ){\n       return(qestions[_question_id].endTime,\n              qestions[_question_id].questionQuantity,\n              qestions[_question_id].startTime,\n              qestions[_question_id].percentHost,\n              qestions[_question_id].percentValidator);\n    }\n\n}",
  "sourcePath": "/Users/macbook/Documents/freelance/Angular/Quiz/contracts/Quize.sol",
  "compiler": {
    "name": "solc",
    "version": "0.5.12+commit.7709ece9.Emscripten.clang"
  },
  "schemaVersion": "3.0.19",
  "updatedAt": "2019-12-10T15:43:24.103Z",
  "networkType": "ethereum",
  "devdoc": {
    "methods": {}
  },
  "userdoc": {
    "methods": {}
  }
}