{
  "contractName": "Quize",
  "abi": [
    {
      "constant": false,
      "inputs": [
        {
          "name": "_priceEth",
          "type": "uint256"
        }
      ],
      "name": "setEthPrice",
      "outputs": [],
      "payable": false,
      "stateMutability": "nonpayable",
      "type": "function"
    },
    {
      "constant": true,
      "inputs": [],
      "name": "amountGuard",
      "outputs": [
        {
          "name": "",
          "type": "int8"
        }
      ],
      "payable": false,
      "stateMutability": "view",
      "type": "function"
    },
    {
      "constant": true,
      "inputs": [],
      "name": "holdBalance",
      "outputs": [
        {
          "name": "",
          "type": "uint256"
        }
      ],
      "payable": false,
      "stateMutability": "view",
      "type": "function"
    },
    {
      "constant": true,
      "inputs": [],
      "name": "tokenContract",
      "outputs": [
        {
          "name": "",
          "type": "address"
        }
      ],
      "payable": false,
      "stateMutability": "view",
      "type": "function"
    },
    {
      "constant": true,
      "inputs": [],
      "name": "onHold",
      "outputs": [
        {
          "name": "",
          "type": "uint256"
        }
      ],
      "payable": false,
      "stateMutability": "view",
      "type": "function"
    },
    {
      "constant": true,
      "inputs": [
        {
          "name": "_question_id",
          "type": "int256"
        }
      ],
      "name": "getHoldMoneyById",
      "outputs": [
        {
          "name": "",
          "type": "uint256"
        }
      ],
      "payable": false,
      "stateMutability": "view",
      "type": "function"
    },
    {
      "constant": true,
      "inputs": [],
      "name": "owner",
      "outputs": [
        {
          "name": "",
          "type": "address"
        }
      ],
      "payable": false,
      "stateMutability": "view",
      "type": "function"
    },
    {
      "constant": true,
      "inputs": [],
      "name": "moneyRetentionCalculate",
      "outputs": [
        {
          "name": "",
          "type": "uint256"
        }
      ],
      "payable": false,
      "stateMutability": "view",
      "type": "function"
    },
    {
      "constant": false,
      "inputs": [
        {
          "name": "_question_id",
          "type": "int256"
        }
      ],
      "name": "getMoneyRetention",
      "outputs": [],
      "payable": true,
      "stateMutability": "payable",
      "type": "function"
    },
    {
      "constant": false,
      "inputs": [
        {
          "name": "_question_id",
          "type": "int256"
        },
        {
          "name": "_endTime",
          "type": "uint256"
        },
        {
          "name": "_pathHoldMoney",
          "type": "bool"
        }
      ],
      "name": "_setMoneyRetention",
      "outputs": [],
      "payable": true,
      "stateMutability": "payable",
      "type": "function"
    },
    {
      "constant": true,
      "inputs": [],
      "name": "fullAmount",
      "outputs": [
        {
          "name": "",
          "type": "uint256"
        }
      ],
      "payable": false,
      "stateMutability": "view",
      "type": "function"
    },
    {
      "inputs": [
        {
          "name": "_tokenContract",
          "type": "address"
        }
      ],
      "payable": false,
      "stateMutability": "nonpayable",
      "type": "constructor"
    },
    {
      "anonymous": false,
      "inputs": [
        {
          "indexed": false,
          "name": "question_id",
          "type": "int256"
        }
      ],
      "name": "eventIsFinish",
      "type": "event"
    },
    {
      "constant": false,
      "inputs": [
        {
          "name": "_question_id",
          "type": "int256"
        },
        {
          "name": "_startTime",
          "type": "uint256"
        },
        {
          "name": "_endTime",
          "type": "uint256"
        },
        {
          "name": "_percentHost",
          "type": "uint8"
        },
        {
          "name": "_percentValidator",
          "type": "uint8"
        },
        {
          "name": "_questionQuantity",
          "type": "uint8"
        },
        {
          "name": "_validatorsAmount",
          "type": "int256"
        },
        {
          "name": "_quizePrice",
          "type": "uint256"
        },
        {
          "name": "_pathHoldMoney",
          "type": "bool"
        }
      ],
      "name": "startQestion",
      "outputs": [],
      "payable": true,
      "stateMutability": "payable",
      "type": "function"
    },
    {
      "constant": false,
      "inputs": [
        {
          "name": "_question_id",
          "type": "int256"
        },
        {
          "name": "_whichAnswer",
          "type": "uint8"
        }
      ],
      "name": "setAnswer",
      "outputs": [],
      "payable": true,
      "stateMutability": "payable",
      "type": "function"
    },
    {
      "constant": false,
      "inputs": [
        {
          "name": "_question_id",
          "type": "int256"
        },
        {
          "name": "_whichAnswer",
          "type": "uint8"
        }
      ],
      "name": "setValidator",
      "outputs": [],
      "payable": true,
      "stateMutability": "payable",
      "type": "function"
    },
    {
      "constant": true,
      "inputs": [
        {
          "name": "_question_id",
          "type": "int256"
        }
      ],
      "name": "getQuestion",
      "outputs": [
        {
          "name": "persentFeeCompany",
          "type": "uint256"
        },
        {
          "name": "persentForEachValidators",
          "type": "uint256"
        },
        {
          "name": "money",
          "type": "uint256"
        },
        {
          "name": "monayForParticipant",
          "type": "uint256"
        },
        {
          "name": "questionQuantity",
          "type": "uint8"
        },
        {
          "name": "correctAnswer",
          "type": "uint256"
        },
        {
          "name": "persentFeeHost",
          "type": "uint256"
        }
      ],
      "payable": false,
      "stateMutability": "view",
      "type": "function"
    },
    {
      "constant": true,
      "inputs": [
        {
          "name": "_question_id",
          "type": "int256"
        }
      ],
      "name": "setTimeValidator",
      "outputs": [
        {
          "name": "",
          "type": "int8"
        }
      ],
      "payable": false,
      "stateMutability": "view",
      "type": "function"
    },
    {
      "constant": true,
      "inputs": [
        {
          "name": "_question_id",
          "type": "int256"
        }
      ],
      "name": "setTimeAnswer",
      "outputs": [
        {
          "name": "",
          "type": "int8"
        }
      ],
      "payable": false,
      "stateMutability": "view",
      "type": "function"
    },
    {
      "constant": true,
      "inputs": [
        {
          "name": "_question_id",
          "type": "int256"
        }
      ],
      "name": "deleteEventValidator",
      "outputs": [
        {
          "name": "",
          "type": "int8"
        }
      ],
      "payable": false,
      "stateMutability": "view",
      "type": "function"
    },
    {
      "constant": false,
      "inputs": [
        {
          "name": "_question_id",
          "type": "int256"
        }
      ],
      "name": "deleteEvent",
      "outputs": [],
      "payable": false,
      "stateMutability": "nonpayable",
      "type": "function"
    },
    {
      "constant": true,
      "inputs": [],
      "name": "quizeBalance",
      "outputs": [
        {
          "name": "",
          "type": "uint256"
        }
      ],
      "payable": false,
      "stateMutability": "view",
      "type": "function"
    }
  ],
  "bytecode": "0x6080604052670de0b6b3a76400006000556002600560006101000a81548160ff021916908360ff16021790555062093a806007557302810c3bc07de2ddaef89827b0dd6b223c7759d5600860006101000a81548173ffffffffffffffffffffffffffffffffffffffff021916908373ffffffffffffffffffffffffffffffffffffffff16021790555034801561009457600080fd5b50604051602080612154833981018060405260208110156100b457600080fd5b810190808051906020019092919050505033600160006101000a81548173ffffffffffffffffffffffffffffffffffffffff021916908373ffffffffffffffffffffffffffffffffffffffff16021790555080600960006101000a81548173ffffffffffffffffffffffffffffffffffffffff021916908373ffffffffffffffffffffffffffffffffffffffff16021790555050611ffd806101576000396000f3fe60806040526004361061013b576000357c01000000000000000000000000000000000000000000000000000000009004806387b6608d116100bd578063c9e53b4b11610081578063c9e53b4b1461054c578063d685015f14610587578063e4f87496146105cb578063ed7439c1146105f6578063f5c1ec81146106805761013b565b806387b6608d146103f85780638a1e576f1461044d5780638da5cb5b1461049c5780639eaecdb7146104f3578063bf792a901461051e5761013b565b806334be86c81161010457806334be86c81461026757806355a373d6146102a257806357146e06146102f95780637fc5054514610378578063834f8047146103a35761013b565b80629f9262146101405780631441dc561461017b57806326c989df146101ac5780632a7100cc146101d75780633493c86214610212575b600080fd5b34801561014c57600080fd5b506101796004803603602081101561016357600080fd5b81019080803590602001909291905050506106ab565b005b34801561018757600080fd5b5061019061077a565b604051808260000b60000b815260200191505060405180910390f35b3480156101b857600080fd5b506101c16107b4565b6040518082815260200191505060405180910390f35b610210600480360360408110156101ed57600080fd5b8101908080359060200190929190803560ff1690602001909291905050506107d3565b005b34801561021e57600080fd5b5061024b6004803603602081101561023557600080fd5b8101908080359060200190929190505050610a7d565b604051808260000b60000b815260200191505060405180910390f35b6102a06004803603604081101561027d57600080fd5b8101908080359060200190929190803560ff169060200190929190505050610ba8565b005b3480156102ae57600080fd5b506102b7610dac565b604051808273ffffffffffffffffffffffffffffffffffffffff1673ffffffffffffffffffffffffffffffffffffffff16815260200191505060405180910390f35b34801561030557600080fd5b506103326004803603602081101561031c57600080fd5b8101908080359060200190929190505050610dd2565b604051808881526020018781526020018681526020018581526020018460ff1660ff16815260200183815260200182815260200197505050505050505060405180910390f35b34801561038457600080fd5b5061038d610ea4565b6040518082815260200191505060405180910390f35b3480156103af57600080fd5b506103dc600480360360208110156103c657600080fd5b8101908080359060200190929190505050610f7a565b604051808260000b60000b815260200191505060405180910390f35b34801561040457600080fd5b506104316004803603602081101561041b57600080fd5b8101908080359060200190929190505050610fdb565b604051808260000b60000b815260200191505060405180910390f35b34801561045957600080fd5b506104866004803603602081101561047057600080fd5b8101908080359060200190929190505050611082565b6040518082815260200191505060405180910390f35b3480156104a857600080fd5b506104b16110a2565b604051808273ffffffffffffffffffffffffffffffffffffffff1673ffffffffffffffffffffffffffffffffffffffff16815260200191505060405180910390f35b3480156104ff57600080fd5b506105086110c8565b6040518082815260200191505060405180910390f35b61054a6004803603602081101561053457600080fd5b810190808035906020019092919050505061111d565b005b34801561055857600080fd5b506105856004803603602081101561056f57600080fd5b8101908080359060200190929190505050611298565b005b6105c96004803603606081101561059d57600080fd5b810190808035906020019092919080359060200190929190803515159060200190929190505050611407565b005b3480156105d757600080fd5b506105e061142c565b6040518082815260200191505060405180910390f35b61067e600480360361012081101561060d57600080fd5b81019080803590602001909291908035906020019092919080359060200190929190803560ff169060200190929190803560ff169060200190929190803560ff169060200190929190803590602001909291908035906020019092919080351515906020019092919050505061144b565b005b34801561068c57600080fd5b5061069561164e565b6040518082815260200191505060405180910390f35b600160009054906101000a900473ffffffffffffffffffffffffffffffffffffffff1673ffffffffffffffffffffffffffffffffffffffff163373ffffffffffffffffffffffffffffffffffffffff16141515610770576040517f08c379a000000000000000000000000000000000000000000000000000000000815260040180806020018281038252601b8152602001807f6f6e6c79206f776e65722063616e206368616e6765207072696365000000000081525060200191505060405180910390fd5b8060028190555050565b60006107846110c8565b3373ffffffffffffffffffffffffffffffffffffffff16311015156107ac57600090506107b1565b600190505b90565b60003073ffffffffffffffffffffffffffffffffffffffff1631905090565b60006107de83610f7a565b60000b141515610856576040517f08c379a00000000000000000000000000000000000000000000000000000000081526004018080602001828103825260118152602001807f54696d65206973206e6f742076616c696400000000000000000000000000000081525060200191505060405180910390fd5b600a600083815260200190815260200160002060110154341415156108e3576040517f08c379a00000000000000000000000000000000000000000000000000000000081526004018080602001828103825260138152602001807f4d6f6e657920646f206e6f7420656e6f7567680000000000000000000000000081525060200191505060405180910390fd5b34600a6000848152602001908152602001600020600401600082825401925050819055506000600a600084815260200190815260200160002060060160008360ff16815260200190815260200160002060010154905033600a600085815260200190815260200160002060060160008460ff168152602001908152602001600020600001600083815260200190815260200160002060000160006101000a81548173ffffffffffffffffffffffffffffffffffffffff021916908373ffffffffffffffffffffffffffffffffffffffff16021790555060018101600a600085815260200190815260200160002060060160008460ff16815260200190815260200160002060010181905550600a60008481526020019081526020016000206010013390806001815401808255809150509060018203906000526020600020016000909192909190916101000a81548173ffffffffffffffffffffffffffffffffffffffff021916908373ffffffffffffffffffffffffffffffffffffffff1602179055505034600660008282540192505081905550505050565b600080600a6000848152602001908152602001600020600201544203121515610b9e57600042600754600a6000868152602001908152602001600020600201540103121515610b955760008090505b600a6000848152602001908152602001600020601001805490508160ff161015610b8b573373ffffffffffffffffffffffffffffffffffffffff16600a60008581526020019081526020016000206010018260ff16815481101515610b2d57fe5b9060005260206000200160009054906101000a900473ffffffffffffffffffffffffffffffffffffffff1673ffffffffffffffffffffffffffffffffffffffff161415610b7e576003915050610ba3565b8080600101915050610acc565b5060009050610ba3565b60029050610ba3565b600190505b919050565b6000610bb383610a7d565b60000b141515610c2b576040517f08c379a00000000000000000000000000000000000000000000000000000000081526004018080602001828103825260118152602001807f54696d65206973206e6f742076616c696400000000000000000000000000000081525060200191505060405180910390fd5b6000600a600084815260200190815260200160002060070160008360ff16815260200190815260200160002060010154905033600a600085815260200190815260200160002060070160008460ff168152602001908152602001600020600001600083815260200190815260200160002060000160006101000a81548173ffffffffffffffffffffffffffffffffffffffff021916908373ffffffffffffffffffffffffffffffffffffffff16021790555060018101600a600085815260200190815260200160002060070160008460ff1681526020019081526020016000206001018190555060006001600a600086815260200190815260200160002060090154019050600a600085815260200190815260200160002060080154811415610d775780600a600086815260200190815260200160002060090181905550610d7284611654565b610da6565b80600a6000868152602001908152602001600020600901819055506001811415610da557610da48461111d565b5b5b50505050565b600960009054906101000a900473ffffffffffffffffffffffffffffffffffffffff1681565b6000806000806000806000600a6000898152602001908152602001600020600b0154600a60008a8152602001908152602001600020600d0154600a60008b815260200190815260200160002060040154600a60008c8152602001908152602001600020600e0154600a60008d815260200190815260200160002060030160009054906101000a900460ff16600a60008e8152602001908152602001600020600f0154600a60008f8152602001908152602001600020600c01549650965096509650965096509650919395979092949650565b60006001600460003373ffffffffffffffffffffffffffffffffffffffff1673ffffffffffffffffffffffffffffffffffffffff16815260200190815260200160002060000154101515610f7257600080905060008090505b600460003373ffffffffffffffffffffffffffffffffffffffff1673ffffffffffffffffffffffffffffffffffffffff168152602001908152602001600020600001548160ff16111515610f6857610f578160ff1661173b565b820191508080600101915050610efd565b5080915050610f77565b600090505b90565b600080600a6000848152602001908152602001600020600101544203121515610fd157600042600a60008581526020019081526020016000206002015403121515610fc85760009050610fd6565b60029050610fd6565b600190505b919050565b60003373ffffffffffffffffffffffffffffffffffffffff16600a6000848152602001908152602001600020600a0160009054906101000a900473ffffffffffffffffffffffffffffffffffffffff1673ffffffffffffffffffffffffffffffffffffffff161415611078576000600a600084815260200190815260200160002060040154141561106f576000905061107d565b6001905061107d565b600290505b919050565b600060036000838152602001908152602001600020600101549050919050565b600160009054906101000a900473ffffffffffffffffffffffffffffffffffffffff1681565b60006111186001600460003373ffffffffffffffffffffffffffffffffffffffff1673ffffffffffffffffffffffffffffffffffffffff168152602001908152602001600020600001540161173b565b905090565b60006003600083815260200190815260200160002060000160009054906101000a900473ffffffffffffffffffffffffffffffffffffffff1690506000600360008481526020019081526020016000206001015490506001600460008473ffffffffffffffffffffffffffffffffffffffff1673ffffffffffffffffffffffffffffffffffffffff1681526020019081526020016000206000015403600460008473ffffffffffffffffffffffffffffffffffffffff1673ffffffffffffffffffffffffffffffffffffffff168152602001908152602001600020600001819055508173ffffffffffffffffffffffffffffffffffffffff166108fc829081150290604051600060405180830381858888f19350505050158015611245573d6000803e3d6000fd5b5060036000848152602001908152602001600020600080820160006101000a81549073ffffffffffffffffffffffffffffffffffffffff0219169055600182016000905560028201600090555050505050565b60006112a382610fdb565b60000b14151561131b576040517f08c379a00000000000000000000000000000000000000000000000000000000081526004018080602001828103825260158152602001807f44656c657465206576656e742069732066616c7365000000000000000000000081525060200191505060405180910390fd5b600a6000828152602001908152602001600020600080820160009055600182016000905560028201600090556003820160006101000a81549060ff021916905560048201600090556005820160006101000a81549060ff02191690556005820160016101000a81549060ff021916905560088201600090556009820160009055600a820160006101000a81549073ffffffffffffffffffffffffffffffffffffffff0219169055600b820160009055600c820160009055600d820160009055600e820160009055600f8201600090556010820160006113fa9190611f8b565b6011820160009055505050565b801561141c576114178383611794565b611427565b61142683836118f3565b5b505050565b60003073ffffffffffffffffffffffffffffffffffffffff1631905090565b88600a60008b81526020019081526020016000206000018190555086600a60008b81526020019081526020016000206002018190555083600a60008b815260200190815260200160002060030160006101000a81548160ff021916908360ff16021790555087600a60008b81526020019081526020016000206001018190555082600a60008b81526020019081526020016000206008018190555033600a60008b8152602001908152602001600020600a0160006101000a81548173ffffffffffffffffffffffffffffffffffffffff021916908373ffffffffffffffffffffffffffffffffffffffff16021790555081600a60008b81526020019081526020016000206011018190555060008660ff161415611597576003600a60008b815260200190815260200160002060050160006101000a81548160ff021916908360ff1602179055506115c7565b85600a60008b815260200190815260200160002060050160006101000a81548160ff021916908360ff1602179055505b60008560ff161415611608576005600a60008b815260200190815260200160002060050160016101000a81548160ff021916908360ff160217905550611638565b84600a60008b815260200190815260200160002060050160016101000a81548160ff021916908360ff1602179055505b611643898883611407565b505050505050505050565b60065481565b6000809050600080600a600085815260200190815260200160002060030160009054906101000a900460ff1660ff16905060008090505b818160ff16121561170f5783600a600087815260200190815260200160002060070160008360ff16815260200190815260200160002060010154111561170257600a600086815260200190815260200160002060070160008260ff1681526020019081526020016000206001015493508060ff1692505b808060010191505061168b565b5081600a6000868152602001908152602001600020600f01819055506117358285611967565b50505050565b60008060005490506001831415611755578091505061178f565b60028310151561178d576000600190505b838160ff1610156117835781820191508080600101915050611766565b508091505061178f565b505b919050565b61179c6110c8565b34141515611812576040517f08c379a00000000000000000000000000000000000000000000000000000000081526004018080602001828103825260148152602001807f446f206e6f7420656e6f75676874206d6f6e657900000000000000000000000081525060200191505060405180910390fd5b336003600084815260200190815260200160002060000160006101000a81548173ffffffffffffffffffffffffffffffffffffffff021916908373ffffffffffffffffffffffffffffffffffffffff160217905550346003600084815260200190815260200160002060010181905550806003600084815260200190815260200160002060020181905550600460003373ffffffffffffffffffffffffffffffffffffffff1673ffffffffffffffffffffffffffffffffffffffff168152602001908152602001600020600001600081548092919060010191905055505050565b336003600084815260200190815260200160002060000160006101000a81548173ffffffffffffffffffffffffffffffffffffffff021916908373ffffffffffffffffffffffffffffffffffffffff1602179055508060036000848152602001908152602001600020600201819055505050565b6000600a6000838152602001908152602001600020600401541115611a8a5760006119ba600a600084815260200190815260200160002060040154600560009054906101000a900460ff1660ff16611a8e565b905080600a60008481526020019081526020016000206004015403600a6000848152602001908152602001600020600401819055508060065403600681905550600860009054906101000a900473ffffffffffffffffffffffffffffffffffffffff1673ffffffffffffffffffffffffffffffffffffffff166108fc829081150290604051600060405180830381858888f19350505050158015611a62573d6000803e3d6000fd5b5080600a6000848152602001908152602001600020600b0181905550611a888383611aa7565b505b5050565b60006064838302811515611a9e57fe5b04905092915050565b6000611aef600a600084815260200190815260200160002060040154600a600085815260200190815260200160002060050160009054906101000a900460ff1660ff16611a8e565b905080600a60008481526020019081526020016000206004015403600a6000848152602001908152602001600020600401819055508060065403600681905550600a6000838152602001908152602001600020600a0160009054906101000a900473ffffffffffffffffffffffffffffffffffffffff1673ffffffffffffffffffffffffffffffffffffffff166108fc829081150290604051600060405180830381858888f19350505050158015611bab573d6000803e3d6000fd5b5080600a6000848152602001908152602001600020600c0181905550611bd18383611bd6565b505050565b6000611c1e600a600084815260200190815260200160002060040154600a600085815260200190815260200160002060050160019054906101000a900460ff1660ff16611a8e565b90506000600a600084815260200190815260200160002060070160008581526020019081526020016000206001015482811515611c5757fe5b049050816006540360068190555080600a6000858152602001908152602001600020600d018190555060008090505b600a60008581526020019081526020016000206007016000868152602001908152602001600020600101548160ff161015611da9576000600a6000868152602001908152602001600020600701600087815260200190815260200160002060000160008360ff16815260200190815260200160002060000160009054906101000a900473ffffffffffffffffffffffffffffffffffffffff16905082600a60008781526020019081526020016000206004015403600a6000878152602001908152602001600020600401819055508073ffffffffffffffffffffffffffffffffffffffff166108fc849081150290604051600060405180830381858888f19350505050158015611d9a573d6000803e3d6000fd5b50508080600101915050611c86565b50611db48484611dba565b50505050565b6000600a6000838152602001908152602001600020600601600084815260200190815260200160002060010154600a600084815260200190815260200160002060040154811515611e0757fe5b04905060008090505b600a60008481526020019081526020016000206006016000858152602001908152602001600020600101548160ff161015611f33576000600a6000858152602001908152602001600020600601600086815260200190815260200160002060000160008360ff16815260200190815260200160002060000160009054906101000a900473ffffffffffffffffffffffffffffffffffffffff16905082600a60008681526020019081526020016000206004015403600a6000868152602001908152602001600020600401819055508073ffffffffffffffffffffffffffffffffffffffff166108fc849081150290604051600060405180830381858888f19350505050158015611f24573d6000803e3d6000fd5b50508080600101915050611e10565b5080600a6000848152602001908152602001600020600e01819055507fb0b53c79f7cd0d8c624f48414bdb76a381085a786cc7a98931e2fc76933b644e826040518082815260200191505060405180910390a1505050565b5080546000825590600052602060002090810190611fa99190611fac565b50565b611fce91905b80821115611fca576000816000905550600101611fb2565b5090565b9056fea165627a7a723058208a8cd22b84e3308d9135858dc0126c0fab41140c59c405aa68acd61ff9a50aa10029",
  "source": "pragma solidity ^0.5.2;\n\nimport \"./HoldMoney.sol\";\nimport \"./LoomERC20Coin.sol\";\n\n\ncontract Quize is HoldMoney {\n    uint8 private percentQuiz = 2;\n    uint256 public fullAmount;\n    uint256 private sevenDaysTimeStamp = 604800;\n    address payable companyAddress = 0x02810c3bc07De2ddAef89827b0dD6b223C7759d5;\n    LoomERC20Coin public tokenContract;\n\n    event eventIsFinish(int256 question_id);\n\n    struct Participant {\n        mapping(uint256 => Part) participants;\n        uint256 index;\n    }\n\n    struct Part {\n        address payable parts;\n    }\n\n    struct Validator {\n        mapping(uint256 => Valid) validators;\n        uint256 index;\n    }\n\n    struct Valid {\n        address payable valid;\n    }\n\n    struct Question {\n        int256 question_id;\n        uint256 startTime;\n        uint256 endTime;\n        uint8 questionQuantity;\n        uint256 money;\n        uint8 percentHost;\n        uint8 percentValidator;\n        mapping(uint256 => Participant) participant;\n        mapping(uint256 => Validator) validator;\n        int256 validatorsAmount;\n        int256 activeValidators;\n        address payable hostWallet;\n        uint256 persentFeeCompany;\n        uint256 persentFeeHost;\n        uint256 persentForEachValidators;\n        uint256 monayForParticipant;\n        uint256 correctAnswer;\n        address[] allParticipant;\n        uint256 quizePrice;\n    }\n\n    mapping(int256 => Question) questions;\n\n    constructor(LoomERC20Coin _tokenContract) public {\n        tokenContract = _tokenContract;\n    }\n\n    function startQestion(\n        int256 _question_id,\n        uint256 _startTime,\n        uint256 _endTime,\n        uint8 _percentHost,\n        uint8 _percentValidator,\n        uint8 _questionQuantity,\n        int256 _validatorsAmount,\n        uint256 _quizePrice,\n        bool _pathHoldMoney\n    ) public payable {\n        questions[_question_id].question_id = _question_id;\n        questions[_question_id].endTime = _endTime;\n        questions[_question_id].questionQuantity = _questionQuantity;\n        questions[_question_id].startTime = _startTime;\n        questions[_question_id].validatorsAmount = _validatorsAmount;\n        questions[_question_id].hostWallet = msg.sender;\n        questions[_question_id].quizePrice = _quizePrice;\n\n        if (_percentHost == 0) {\n            questions[_question_id].percentHost = 3;\n        } else {\n            questions[_question_id].percentHost = _percentHost;\n        }\n\n        if (_percentValidator == 0) {\n            questions[_question_id].percentValidator = 5;\n        } else {\n            questions[_question_id].percentValidator = _percentValidator;\n        }\n\n        _setMoneyRetention(_question_id, _endTime, _pathHoldMoney);\n    }\n\n    function setAnswer(int256 _question_id, uint8 _whichAnswer) public payable {\n        require(setTimeAnswer(_question_id) == 0, \"Time is not valid\");\n        require(msg.value == questions[_question_id].quizePrice, \"Money do not enough\");\n\n        questions[_question_id].money += msg.value;\n        uint256 i = questions[_question_id].participant[_whichAnswer].index;\n        questions[_question_id].participant[_whichAnswer].participants[i].parts = msg.sender;\n        questions[_question_id].participant[_whichAnswer].index = i + 1;\n        questions[_question_id].allParticipant.push(msg.sender);\n        fullAmount += msg.value;\n    }\n\n    function setValidator(int256 _question_id, uint8 _whichAnswer) public payable {\n        require(setTimeValidator(_question_id) == 0, \"Time is not valid\");\n        uint256 i = questions[_question_id].validator[_whichAnswer].index;\n        questions[_question_id].validator[_whichAnswer].validators[i].valid = msg.sender;\n        questions[_question_id].validator[_whichAnswer].index = i + 1;\n        int256 active = questions[_question_id].activeValidators + 1;\n        if (active == questions[_question_id].validatorsAmount) {\n            questions[_question_id].activeValidators = active;\n            letsFindCorrectAnswer(_question_id);\n        } else {\n            questions[_question_id].activeValidators = active;\n            if(active == 1){\n                getMoneyRetention(_question_id);\n            }\n        }\n    }\n\n    function letsFindCorrectAnswer(int256 _question_id) private {\n        uint256 biggestValue = 0;\n        uint256 correctAnswer;\n        int256 questionQuantity = questions[_question_id].questionQuantity;\n\n        // find correct answer\n        for (uint8 i = 0; i < questionQuantity; i++) {\n            if (questions[_question_id].validator[i].index > biggestValue) {\n                biggestValue = questions[_question_id].validator[i].index;\n                correctAnswer = i;\n            }\n        }\n\n        questions[_question_id].correctAnswer = correctAnswer;\n        letsPayCompanyFee(correctAnswer, _question_id);\n    }\n\n    function letsPayCompanyFee(uint256 correctAnswer, int256 _question_id) private {\n        if (questions[_question_id].money > 0) {\n            // pay fee for company\n            uint256 persentFee = getPersent(\n                questions[_question_id].money,\n                percentQuiz\n            );\n            questions[_question_id].money = questions[_question_id].money - persentFee;\n            fullAmount = fullAmount - persentFee;\n            companyAddress.transfer(persentFee);\n            questions[_question_id].persentFeeCompany = persentFee;\n\n            letsPayHostFee(correctAnswer, _question_id);\n        }\n    }\n\n    function letsPayHostFee(uint256 correctAnswer, int256 _question_id) private {\n        // pay fee for host\n        uint256 persHostFee = getPersent(\n            questions[_question_id].money,\n            questions[_question_id].percentHost\n        );\n        questions[_question_id].money = questions[_question_id].money - persHostFee;\n        fullAmount = fullAmount - persHostFee;\n        questions[_question_id].hostWallet.transfer(persHostFee);\n        questions[_question_id].persentFeeHost = persHostFee;\n\n        letsPayValidatorFee(correctAnswer, _question_id);\n    }\n\n    function letsPayValidatorFee(uint256 correctAnswer, int256 _question_id) private {\n        // calculate percent for validator\n        uint256 persentForValidators = getPersent(\n            questions[_question_id].money,\n            questions[_question_id].percentValidator\n        );\n        uint256 persentForEachValidators = persentForValidators / questions[_question_id].validator[correctAnswer].index;\n        fullAmount = fullAmount - persentForValidators;\n\n        questions[_question_id].persentForEachValidators = persentForEachValidators;\n\n        // pay for validatos\n        for (uint8 i = 0; i < questions[_question_id].validator[correctAnswer].index; i++ ) {\n            address payable _validator = questions[_question_id].validator[correctAnswer].validators[i].valid;\n            questions[_question_id].money = questions[_question_id].money - persentForEachValidators;\n            _validator.transfer(persentForEachValidators);\n        }\n        letsPayParticipantFee(correctAnswer, _question_id);\n    }\n\n    function letsPayParticipantFee(uint256 correctAnswer, int256 _question_id) private{\n         // Pay for participant\n        uint256 monayForParticipant = questions[_question_id].money / questions[_question_id].participant[correctAnswer].index;\n        for ( uint8 i = 0; i < questions[_question_id].participant[correctAnswer].index; i++) {\n            address payable _participant = questions[_question_id].participant[correctAnswer].participants[i].parts;\n            questions[_question_id].money = questions[_question_id].money - monayForParticipant;\n            _participant.transfer(monayForParticipant);\n        }\n\n        questions[_question_id].monayForParticipant = monayForParticipant;\n\n        emit eventIsFinish(_question_id);\n    }\n\n    function getPersent(uint256 _percent, uint256 _from)\n        private\n        pure\n        returns (uint256)\n    {\n        return (_from * _percent) / 100;\n    }\n\n    function getQuestion(int256 _question_id)\n        public\n        view\n        returns (\n            uint256 persentFeeCompany,\n            uint256 persentForEachValidators,\n            uint256 money,\n            uint256 monayForParticipant,\n            uint8 questionQuantity,\n            uint256 correctAnswer,\n            uint256 persentFeeHost\n        )\n    {\n        return (\n            questions[_question_id].persentFeeCompany,\n            questions[_question_id].persentForEachValidators,\n            questions[_question_id].money,\n            questions[_question_id].monayForParticipant,\n            questions[_question_id].questionQuantity,\n            questions[_question_id].correctAnswer,\n            questions[_question_id].persentFeeHost\n        );\n    }\n\n    function setTimeValidator(int256 _question_id) public view returns (int8) {\n        if (int256(now - questions[_question_id].endTime) >= 0){\n            if (int256((questions[_question_id].endTime + sevenDaysTimeStamp) - now) >= 0){\n                // if validator made activities like participants.\n                for (uint8 i = 0; i < questions[_question_id].allParticipant.length; i++) {\n                    if (questions[_question_id].allParticipant[i] == msg.sender) {\n                        return 3;\n                    }\n                }\n                // user can validate because time is valid.\n                return 0;\n            } else {\n                // user can't validate because time is finish.\n                return 2;\n            }\n        } else {\n            // user can't validate because event is not started yet.\n            return 1;\n        }\n    }\n\n    function setTimeAnswer(int256 _question_id) public view returns (int8) {\n        if (int256(now - questions[_question_id].startTime) >= 0) {\n            if (int256(questions[_question_id].endTime - now) >= 0) {\n                // user can make answer because time is valid.\n                return 0;\n            } else {\n                // user can't make answer because event is finish.\n                return 2;\n            }\n        } else {\n            // user can't make answer because event is not started yet.\n            return 1;\n        }\n    }\n\n    function deleteEventValidator(int256 _question_id)\n        public\n        view\n        returns (int8)\n    {\n        if (questions[_question_id].hostWallet == msg.sender) {\n            if (questions[_question_id].money == 0) {\n                // user can delete event\n                return 0;\n            } else {\n                // user can't delete event because event has money on balance\n                return 1;\n            }\n        } else {\n            // only owner can delete event.\n            return 2;\n        }\n    }\n\n    function deleteEvent(int256 _question_id) public {\n        require(\n            deleteEventValidator(_question_id) == 0,\n            \"Delete event is false\"\n        );\n        delete questions[_question_id];\n    }\n\n    function quizeBalance() public view returns (uint256) {\n        return address(this).balance;\n    }\n}\n",
  "sourcePath": "/Users/macbook/Documents/freelance/node/QUIZE/frontend/contracts/Quize.sol",
  "compiler": {
    "name": "solc",
    "version": "0.5.2+commit.1df8f40c.Emscripten.clang"
  },
  "schemaVersion": "3.0.19",
  "updatedAt": "2020-03-31T08:55:50.045Z",
  "networkType": "ethereum",
  "devdoc": {
    "methods": {}
  },
  "userdoc": {
    "methods": {}
  }
}