{
  "contractName": "Quize",
  "abi": [
    {
      "constant": true,
      "inputs": [
        {
          "name": "_path",
          "type": "bool"
        }
      ],
      "name": "moneyRetentionCalculate",
      "outputs": [
        {
          "name": "",
          "type": "uint256"
        }
      ],
      "payable": false,
      "stateMutability": "view",
      "type": "function"
    },
    {
      "constant": true,
      "inputs": [],
      "name": "holdBalance",
      "outputs": [
        {
          "name": "",
          "type": "uint256"
        }
      ],
      "payable": false,
      "stateMutability": "view",
      "type": "function"
    },
    {
      "constant": true,
      "inputs": [],
      "name": "priceEth",
      "outputs": [
        {
          "name": "",
          "type": "uint256"
        }
      ],
      "payable": false,
      "stateMutability": "view",
      "type": "function"
    },
    {
      "constant": true,
      "inputs": [],
      "name": "priceToken",
      "outputs": [
        {
          "name": "",
          "type": "uint256"
        }
      ],
      "payable": false,
      "stateMutability": "view",
      "type": "function"
    },
    {
      "constant": false,
      "inputs": [
        {
          "name": "_endTime",
          "type": "uint256"
        },
        {
          "name": "_pathHoldMoney",
          "type": "bool"
        }
      ],
      "name": "_setMoneyRetention",
      "outputs": [
        {
          "name": "",
          "type": "uint256"
        }
      ],
      "payable": true,
      "stateMutability": "payable",
      "type": "function"
    },
    {
      "constant": true,
      "inputs": [],
      "name": "tokenContract",
      "outputs": [
        {
          "name": "",
          "type": "address"
        }
      ],
      "payable": false,
      "stateMutability": "view",
      "type": "function"
    },
    {
      "constant": true,
      "inputs": [],
      "name": "onHold",
      "outputs": [
        {
          "name": "",
          "type": "uint256"
        }
      ],
      "payable": false,
      "stateMutability": "view",
      "type": "function"
    },
    {
      "constant": false,
      "inputs": [
        {
          "name": "_host",
          "type": "address"
        }
      ],
      "name": "_getMoneyRetention",
      "outputs": [
        {
          "name": "",
          "type": "uint256"
        },
        {
          "name": "",
          "type": "address"
        },
        {
          "name": "",
          "type": "bool"
        }
      ],
      "payable": true,
      "stateMutability": "payable",
      "type": "function"
    },
    {
      "constant": false,
      "inputs": [
        {
          "name": "_priceEth",
          "type": "uint256"
        },
        {
          "name": "_priceToken",
          "type": "uint256"
        }
      ],
      "name": "setEthPrice",
      "outputs": [],
      "payable": false,
      "stateMutability": "nonpayable",
      "type": "function"
    },
    {
      "constant": true,
      "inputs": [],
      "name": "owner",
      "outputs": [
        {
          "name": "",
          "type": "address"
        }
      ],
      "payable": false,
      "stateMutability": "view",
      "type": "function"
    },
    {
      "constant": true,
      "inputs": [
        {
          "name": "_host",
          "type": "address"
        }
      ],
      "name": "_getMoneyRetentionTest",
      "outputs": [
        {
          "name": "",
          "type": "uint256"
        },
        {
          "name": "",
          "type": "address"
        },
        {
          "name": "",
          "type": "bool"
        }
      ],
      "payable": false,
      "stateMutability": "view",
      "type": "function"
    },
    {
      "constant": true,
      "inputs": [],
      "name": "getHoldMoneyById",
      "outputs": [
        {
          "name": "",
          "type": "uint256"
        }
      ],
      "payable": false,
      "stateMutability": "view",
      "type": "function"
    },
    {
      "constant": true,
      "inputs": [
        {
          "name": "_path",
          "type": "bool"
        },
        {
          "name": "balanceToken",
          "type": "uint256"
        }
      ],
      "name": "_amountGuard",
      "outputs": [
        {
          "name": "",
          "type": "int8"
        }
      ],
      "payable": false,
      "stateMutability": "view",
      "type": "function"
    },
    {
      "constant": true,
      "inputs": [],
      "name": "fullAmount",
      "outputs": [
        {
          "name": "",
          "type": "uint256"
        }
      ],
      "payable": false,
      "stateMutability": "view",
      "type": "function"
    },
    {
      "inputs": [
        {
          "name": "_tokenContract",
          "type": "address"
        }
      ],
      "payable": false,
      "stateMutability": "nonpayable",
      "type": "constructor"
    },
    {
      "anonymous": false,
      "inputs": [
        {
          "indexed": false,
          "name": "question_id",
          "type": "int256"
        }
      ],
      "name": "eventIsFinish",
      "type": "event"
    },
    {
      "constant": false,
      "inputs": [
        {
          "name": "_question_id",
          "type": "int256"
        },
        {
          "name": "_startTime",
          "type": "uint256"
        },
        {
          "name": "_endTime",
          "type": "uint256"
        },
        {
          "name": "_percentHost",
          "type": "uint8"
        },
        {
          "name": "_percentValidator",
          "type": "uint8"
        },
        {
          "name": "_questionQuantity",
          "type": "uint8"
        },
        {
          "name": "_validatorsAmount",
          "type": "int256"
        },
        {
          "name": "_quizePrice",
          "type": "uint256"
        },
        {
          "name": "_pathHoldMoney",
          "type": "bool"
        }
      ],
      "name": "startQestion",
      "outputs": [],
      "payable": true,
      "stateMutability": "payable",
      "type": "function"
    },
    {
      "constant": false,
      "inputs": [
        {
          "name": "_question_id",
          "type": "int256"
        },
        {
          "name": "_whichAnswer",
          "type": "uint8"
        }
      ],
      "name": "setAnswer",
      "outputs": [],
      "payable": true,
      "stateMutability": "payable",
      "type": "function"
    },
    {
      "constant": false,
      "inputs": [
        {
          "name": "_question_id",
          "type": "int256"
        },
        {
          "name": "_whichAnswer",
          "type": "uint8"
        }
      ],
      "name": "setValidator",
      "outputs": [],
      "payable": true,
      "stateMutability": "payable",
      "type": "function"
    },
    {
      "constant": true,
      "inputs": [
        {
          "name": "_question_id",
          "type": "int256"
        }
      ],
      "name": "getQuestion",
      "outputs": [
        {
          "name": "persentFeeCompany",
          "type": "uint256"
        },
        {
          "name": "persentForEachValidators",
          "type": "uint256"
        },
        {
          "name": "money",
          "type": "uint256"
        },
        {
          "name": "monayForParticipant",
          "type": "uint256"
        },
        {
          "name": "questionQuantity",
          "type": "uint8"
        },
        {
          "name": "correctAnswer",
          "type": "uint256"
        },
        {
          "name": "persentFeeHost",
          "type": "uint256"
        }
      ],
      "payable": false,
      "stateMutability": "view",
      "type": "function"
    },
    {
      "constant": true,
      "inputs": [
        {
          "name": "_question_id",
          "type": "int256"
        }
      ],
      "name": "setTimeValidator",
      "outputs": [
        {
          "name": "",
          "type": "int8"
        }
      ],
      "payable": false,
      "stateMutability": "view",
      "type": "function"
    },
    {
      "constant": true,
      "inputs": [
        {
          "name": "_question_id",
          "type": "int256"
        }
      ],
      "name": "setTimeAnswer",
      "outputs": [
        {
          "name": "",
          "type": "int8"
        }
      ],
      "payable": false,
      "stateMutability": "view",
      "type": "function"
    },
    {
      "constant": true,
      "inputs": [
        {
          "name": "_question_id",
          "type": "int256"
        }
      ],
      "name": "deleteEventValidator",
      "outputs": [
        {
          "name": "",
          "type": "int8"
        }
      ],
      "payable": false,
      "stateMutability": "view",
      "type": "function"
    },
    {
      "constant": false,
      "inputs": [
        {
          "name": "_question_id",
          "type": "int256"
        }
      ],
      "name": "deleteEvent",
      "outputs": [],
      "payable": false,
      "stateMutability": "nonpayable",
      "type": "function"
    },
    {
      "constant": true,
      "inputs": [],
      "name": "quizeBalance",
      "outputs": [
        {
          "name": "",
          "type": "uint256"
        }
      ],
      "payable": false,
      "stateMutability": "view",
      "type": "function"
    },
    {
      "constant": true,
      "inputs": [],
      "name": "getContractTokenBalance",
      "outputs": [
        {
          "name": "",
          "type": "uint256"
        }
      ],
      "payable": false,
      "stateMutability": "view",
      "type": "function"
    },
    {
      "constant": false,
      "inputs": [
        {
          "name": "_host",
          "type": "address"
        }
      ],
      "name": "getMoneyRetention",
      "outputs": [],
      "payable": true,
      "stateMutability": "payable",
      "type": "function"
    },
    {
      "constant": true,
      "inputs": [
        {
          "name": "_host",
          "type": "address"
        }
      ],
      "name": "getMoneyRetentionTest",
      "outputs": [
        {
          "name": "money",
          "type": "uint256"
        },
        {
          "name": "host",
          "type": "address"
        },
        {
          "name": "path",
          "type": "bool"
        }
      ],
      "payable": false,
      "stateMutability": "view",
      "type": "function"
    },
    {
      "constant": true,
      "inputs": [
        {
          "name": "_path",
          "type": "bool"
        }
      ],
      "name": "amountGuard",
      "outputs": [
        {
          "name": "",
          "type": "int8"
        }
      ],
      "payable": false,
      "stateMutability": "view",
      "type": "function"
    }
  ],
  "bytecode": "0x6080604052678ac7230489e800006000556002600560006101000a81548160ff021916908360ff16021790555062093a806007557311e37caa6100cbdab76e84bc584ca4df77337e06600860006101000a81548173ffffffffffffffffffffffffffffffffffffffff021916908373ffffffffffffffffffffffffffffffffffffffff16021790555034801561009457600080fd5b50604051602080613673833981018060405260208110156100b457600080fd5b810190808051906020019092919050505033600160006101000a81548173ffffffffffffffffffffffffffffffffffffffff021916908373ffffffffffffffffffffffffffffffffffffffff16021790555080600960006101000a81548173ffffffffffffffffffffffffffffffffffffffff021916908373ffffffffffffffffffffffffffffffffffffffff1602179055505061351c806101576000396000f3fe6080604052600436106101b9576000357c0100000000000000000000000000000000000000000000000000000000900480638229f5e911610109578063c9e53b4b116100a7578063e6ffed5d11610081578063e6ffed5d146108df578063ed7439c114610940578063f5c1ec81146109ca578063f8482171146109f5576101b9565b8063c9e53b4b146107d6578063d3d55c9214610811578063e4f87496146108b4576101b9565b806387b6608d116100e357806387b6608d1461065c5780638da5cb5b146106b1578063a5548a1614610708578063acbee282146107ab576101b9565b80638229f5e91461052c578063834f8047146105c257806383855f1f14610617576101b9565b8063317d9453116101765780634224765f116101505780634224765f146103dd57806355a373d61461042b57806357146e06146104825780637fc5054514610501576101b9565b8063317d9453146103225780633493c8621461034d57806334be86c8146103a2576101b9565b80631c5430ba146101be57806325f0f5ab1461021557806326c989df146102665780632a7100cc146102915780632ca38363146102cc5780632ff6fe76146102f7575b600080fd5b3480156101ca57600080fd5b506101f9600480360360208110156101e157600080fd5b81019080803515159060200190929190505050610a39565b604051808260000b60000b815260200191505060405180910390f35b34801561022157600080fd5b506102506004803603602081101561023857600080fd5b81019080803515159060200190929190505050610b4e565b6040518082815260200191505060405180910390f35b34801561027257600080fd5b5061027b610ba6565b6040518082815260200191505060405180910390f35b6102ca600480360360408110156102a757600080fd5b8101908080359060200190929190803560ff169060200190929190505050610bc5565b005b3480156102d857600080fd5b506102e1610e6f565b6040518082815260200191505060405180910390f35b34801561030357600080fd5b5061030c610e75565b6040518082815260200191505060405180910390f35b34801561032e57600080fd5b50610337610e7b565b6040518082815260200191505060405180910390f35b34801561035957600080fd5b506103866004803603602081101561037057600080fd5b8101908080359060200190929190505050610f78565b604051808260000b60000b815260200191505060405180910390f35b6103db600480360360408110156103b857600080fd5b8101908080359060200190929190803560ff1690602001909291905050506110a3565b005b610415600480360360408110156103f357600080fd5b8101908080359060200190929190803515159060200190929190505050611294565b6040518082815260200191505060405180910390f35b34801561043757600080fd5b506104406112c0565b604051808273ffffffffffffffffffffffffffffffffffffffff1673ffffffffffffffffffffffffffffffffffffffff16815260200191505060405180910390f35b34801561048e57600080fd5b506104bb600480360360208110156104a557600080fd5b81019080803590602001909291905050506112e6565b604051808881526020018781526020018681526020018581526020018460ff1660ff16815260200183815260200182815260200197505050505050505060405180910390f35b34801561050d57600080fd5b506105166113b8565b6040518082815260200191505060405180910390f35b61056e6004803603602081101561054257600080fd5b81019080803573ffffffffffffffffffffffffffffffffffffffff1690602001909291905050506114fc565b604051808481526020018373ffffffffffffffffffffffffffffffffffffffff1673ffffffffffffffffffffffffffffffffffffffff16815260200182151515158152602001935050505060405180910390f35b3480156105ce57600080fd5b506105fb600480360360208110156105e557600080fd5b81019080803590602001909291905050506119f9565b604051808260000b60000b815260200191505060405180910390f35b34801561062357600080fd5b5061065a6004803603604081101561063a57600080fd5b810190808035906020019092919080359060200190929190505050611a5a565b005b34801561066857600080fd5b506106956004803603602081101561067f57600080fd5b8101908080359060200190929190505050611b57565b604051808260000b60000b815260200191505060405180910390f35b3480156106bd57600080fd5b506106c6611bfe565b604051808273ffffffffffffffffffffffffffffffffffffffff1673ffffffffffffffffffffffffffffffffffffffff16815260200191505060405180910390f35b34801561071457600080fd5b506107576004803603602081101561072b57600080fd5b81019080803573ffffffffffffffffffffffffffffffffffffffff169060200190929190505050611c24565b604051808481526020018373ffffffffffffffffffffffffffffffffffffffff1673ffffffffffffffffffffffffffffffffffffffff16815260200182151515158152602001935050505060405180910390f35b3480156107b757600080fd5b506107c0611dc4565b6040518082815260200191505060405180910390f35b3480156107e257600080fd5b5061080f600480360360208110156107f957600080fd5b8101908080359060200190929190505050611e6c565b005b34801561081d57600080fd5b506108606004803603602081101561083457600080fd5b81019080803573ffffffffffffffffffffffffffffffffffffffff169060200190929190505050611fdb565b604051808481526020018373ffffffffffffffffffffffffffffffffffffffff1673ffffffffffffffffffffffffffffffffffffffff16815260200182151515158152602001935050505060405180910390f35b3480156108c057600080fd5b506108c9611ff6565b6040518082815260200191505060405180910390f35b3480156108eb57600080fd5b506109246004803603604081101561090257600080fd5b8101908080351515906020019092919080359060200190929190505050612015565b604051808260000b60000b815260200191505060405180910390f35b6109c8600480360361012081101561095757600080fd5b81019080803590602001909291908035906020019092919080359060200190929190803560ff169060200190929190803560ff169060200190929190803560ff1690602001909291908035906020019092919080359060200190929190803515159060200190929190505050612068565b005b3480156109d657600080fd5b506109df6125c0565b6040518082815260200191505060405180910390f35b610a3760048036036020811015610a0b57600080fd5b81019080803573ffffffffffffffffffffffffffffffffffffffff1690602001909291905050506125c6565b005b600080821515610b3c57600960009054906101000a900473ffffffffffffffffffffffffffffffffffffffff1673ffffffffffffffffffffffffffffffffffffffff166370a08231336040518263ffffffff167c0100000000000000000000000000000000000000000000000000000000028152600401808273ffffffffffffffffffffffffffffffffffffffff1673ffffffffffffffffffffffffffffffffffffffff16815260200191505060206040518083038186803b158015610afe57600080fd5b505afa158015610b12573d6000803e3d6000fd5b505050506040513d6020811015610b2857600080fd5b810190808051906020019092919050505090505b610b468382612015565b915050919050565b6000610b9f6001600460003373ffffffffffffffffffffffffffffffffffffffff1673ffffffffffffffffffffffffffffffffffffffff16815260200190815260200160002060000154018361275c565b9050919050565b60003073ffffffffffffffffffffffffffffffffffffffff1631905090565b6000610bd0836119f9565b60000b141515610c48576040517f08c379a00000000000000000000000000000000000000000000000000000000081526004018080602001828103825260118152602001807f54696d65206973206e6f742076616c696400000000000000000000000000000081525060200191505060405180910390fd5b600a60008381526020019081526020016000206011015434141515610cd5576040517f08c379a00000000000000000000000000000000000000000000000000000000081526004018080602001828103825260138152602001807f4d6f6e657920646f206e6f7420656e6f7567680000000000000000000000000081525060200191505060405180910390fd5b34600a6000848152602001908152602001600020600401600082825401925050819055506000600a600084815260200190815260200160002060060160008360ff16815260200190815260200160002060010154905033600a600085815260200190815260200160002060060160008460ff168152602001908152602001600020600001600083815260200190815260200160002060000160006101000a81548173ffffffffffffffffffffffffffffffffffffffff021916908373ffffffffffffffffffffffffffffffffffffffff16021790555060018101600a600085815260200190815260200160002060060160008460ff16815260200190815260200160002060010181905550600a60008481526020019081526020016000206010013390806001815401808255809150509060018203906000526020600020016000909192909190916101000a81548173ffffffffffffffffffffffffffffffffffffffff021916908373ffffffffffffffffffffffffffffffffffffffff1602179055505034600660008282540192505081905550505050565b60025481565b60035481565b6000600960009054906101000a900473ffffffffffffffffffffffffffffffffffffffff1673ffffffffffffffffffffffffffffffffffffffff166370a08231306040518263ffffffff167c0100000000000000000000000000000000000000000000000000000000028152600401808273ffffffffffffffffffffffffffffffffffffffff1673ffffffffffffffffffffffffffffffffffffffff16815260200191505060206040518083038186803b158015610f3857600080fd5b505afa158015610f4c573d6000803e3d6000fd5b505050506040513d6020811015610f6257600080fd5b8101908080519060200190929190505050905090565b600080600a600084815260200190815260200160002060020154420312151561109957600042600754600a60008681526020019081526020016000206002015401031215156110905760008090505b600a6000848152602001908152602001600020601001805490508160ff161015611086573373ffffffffffffffffffffffffffffffffffffffff16600a60008581526020019081526020016000206010018260ff1681548110151561102857fe5b9060005260206000200160009054906101000a900473ffffffffffffffffffffffffffffffffffffffff1673ffffffffffffffffffffffffffffffffffffffff16141561107957600391505061109e565b8080600101915050610fc7565b506000905061109e565b6002905061109e565b600190505b919050565b60006110ae83610f78565b60000b141515611126576040517f08c379a00000000000000000000000000000000000000000000000000000000081526004018080602001828103825260118152602001807f54696d65206973206e6f742076616c696400000000000000000000000000000081525060200191505060405180910390fd5b6000600a600084815260200190815260200160002060070160008360ff16815260200190815260200160002060010154905033600a600085815260200190815260200160002060070160008460ff168152602001908152602001600020600001600083815260200190815260200160002060000160006101000a81548173ffffffffffffffffffffffffffffffffffffffff021916908373ffffffffffffffffffffffffffffffffffffffff16021790555060018101600a600085815260200190815260200160002060070160008460ff1681526020019081526020016000206001018190555060006001600a600086815260200190815260200160002060090154019050600a6000858152602001908152602001600020600801548114156112725780600a60008681526020019081526020016000206009018190555061126d8461282c565b61128e565b80600a6000868152602001908152602001600020600901819055505b50505050565b600081156112ad576112a68383612913565b90506112ba565b6112b78383612bf4565b90505b92915050565b600960009054906101000a900473ffffffffffffffffffffffffffffffffffffffff1681565b6000806000806000806000600a6000898152602001908152602001600020600b0154600a60008a8152602001908152602001600020600d0154600a60008b815260200190815260200160002060040154600a60008c8152602001908152602001600020600e0154600a60008d815260200190815260200160002060030160009054906101000a900460ff16600a60008e8152602001908152602001600020600f0154600a60008f8152602001908152602001600020600c01549650965096509650965096509650919395979092949650565b60006001600460003373ffffffffffffffffffffffffffffffffffffffff1673ffffffffffffffffffffffffffffffffffffffff168152602001908152602001600020600001541015156114f45760008090506000600190505b600460003373ffffffffffffffffffffffffffffffffffffffff1673ffffffffffffffffffffffffffffffffffffffff168152602001908152602001600020600001548160ff161115156114ea576000600460003373ffffffffffffffffffffffffffffffffffffffff1673ffffffffffffffffffffffffffffffffffffffff16815260200190815260200160002060010160008360ff16815260200190815260200160002060030160009054906101000a900460ff1690506114d88260ff168261275c565b83019250508080600101915050611412565b50809150506114f9565b600090505b90565b6000806000600160009054906101000a900473ffffffffffffffffffffffffffffffffffffffff1673ffffffffffffffffffffffffffffffffffffffff163373ffffffffffffffffffffffffffffffffffffffff161415156115a9576040517f08c379a00000000000000000000000000000000000000000000000000000000081526004018080602001828103825260248152602001806134cd6024913960400191505060405180910390fd5b6000600460008673ffffffffffffffffffffffffffffffffffffffff1673ffffffffffffffffffffffffffffffffffffffff16815260200190815260200160002060000154111515611663576040517f08c379a000000000000000000000000000000000000000000000000000000000815260040180806020018281038252601c8152602001807f446f206e6f74206861766520636f696e73206f6e206163636f756e740000000081525060200191505060405180910390fd5b6000600460008673ffffffffffffffffffffffffffffffffffffffff1673ffffffffffffffffffffffffffffffffffffffff1681526020019081526020016000206000015490506000600460008773ffffffffffffffffffffffffffffffffffffffff1673ffffffffffffffffffffffffffffffffffffffff168152602001908152602001600020600101600083815260200190815260200160002060000160009054906101000a900473ffffffffffffffffffffffffffffffffffffffff1690508573ffffffffffffffffffffffffffffffffffffffff168173ffffffffffffffffffffffffffffffffffffffff161415156117c8576040517f08c379a00000000000000000000000000000000000000000000000000000000081526004018080602001828103825260138152602001807f416464726573736573206e6f7420657175616c0000000000000000000000000081525060200191505060405180910390fd5b6000600460008873ffffffffffffffffffffffffffffffffffffffff1673ffffffffffffffffffffffffffffffffffffffff1681526020019081526020016000206001016000848152602001908152602001600020600101549050600460008373ffffffffffffffffffffffffffffffffffffffff1673ffffffffffffffffffffffffffffffffffffffff16815260200190815260200160002060000160008154809291906001900391905055506000600460008973ffffffffffffffffffffffffffffffffffffffff1673ffffffffffffffffffffffffffffffffffffffff168152602001908152602001600020600101600085815260200190815260200160002060030160009054906101000a900460ff169050600460008973ffffffffffffffffffffffffffffffffffffffff1673ffffffffffffffffffffffffffffffffffffffff1681526020019081526020016000206001016000858152602001908152602001600020600080820160006101000a81549073ffffffffffffffffffffffffffffffffffffffff0219169055600182016000905560028201600090556003820160006101000a81549060ff0219169055505080156119e1578273ffffffffffffffffffffffffffffffffffffffff166108fc839081150290604051600060405180830381858888f193505050501580156119cb573d6000803e3d6000fd5b50818382819150965096509650505050506119f2565b818382819150965096509650505050505b9193909250565b600080600a6000848152602001908152602001600020600101544203121515611a5057600042600a60008581526020019081526020016000206002015403121515611a475760009050611a55565b60029050611a55565b600190505b919050565b600160009054906101000a900473ffffffffffffffffffffffffffffffffffffffff1673ffffffffffffffffffffffffffffffffffffffff163373ffffffffffffffffffffffffffffffffffffffff16141515611b1f576040517f08c379a000000000000000000000000000000000000000000000000000000000815260040180806020018281038252601b8152602001807f6f6e6c79206f776e65722063616e206368616e6765207072696365000000000081525060200191505060405180910390fd5b670de0b6b3a764000082811515611b3257fe5b04600281905550670de0b6b3a764000081811515611b4c57fe5b046003819055505050565b60003373ffffffffffffffffffffffffffffffffffffffff16600a6000848152602001908152602001600020600a0160009054906101000a900473ffffffffffffffffffffffffffffffffffffffff1673ffffffffffffffffffffffffffffffffffffffff161415611bf4576000600a6000848152602001908152602001600020600401541415611beb5760009050611bf9565b60019050611bf9565b600290505b919050565b600160009054906101000a900473ffffffffffffffffffffffffffffffffffffffff1681565b600080600080600460008673ffffffffffffffffffffffffffffffffffffffff1673ffffffffffffffffffffffffffffffffffffffff1681526020019081526020016000206000015490506000600460008773ffffffffffffffffffffffffffffffffffffffff1673ffffffffffffffffffffffffffffffffffffffff168152602001908152602001600020600101600083815260200190815260200160002060000160009054906101000a900473ffffffffffffffffffffffffffffffffffffffff1690506000600460008873ffffffffffffffffffffffffffffffffffffffff1673ffffffffffffffffffffffffffffffffffffffff16815260200190815260200160002060010160008481526020019081526020016000206001015490506000600460008973ffffffffffffffffffffffffffffffffffffffff1673ffffffffffffffffffffffffffffffffffffffff168152602001908152602001600020600101600085815260200190815260200160002060030160009054906101000a900460ff169050818382819150965096509650505050509193909250565b6000806001600460003373ffffffffffffffffffffffffffffffffffffffff1673ffffffffffffffffffffffffffffffffffffffff16815260200190815260200160002060000154039050600460003373ffffffffffffffffffffffffffffffffffffffff1673ffffffffffffffffffffffffffffffffffffffff16815260200190815260200160002060010160008281526020019081526020016000206001015491505090565b6000611e7782611b57565b60000b141515611eef576040517f08c379a00000000000000000000000000000000000000000000000000000000081526004018080602001828103825260158152602001807f44656c657465206576656e742069732066616c7365000000000000000000000081525060200191505060405180910390fd5b600a6000828152602001908152602001600020600080820160009055600182016000905560028201600090556003820160006101000a81549060ff021916905560048201600090556005820160006101000a81549060ff02191690556005820160016101000a81549060ff021916905560088201600090556009820160009055600a820160006101000a81549073ffffffffffffffffffffffffffffffffffffffff0219169055600b820160009055600c820160009055600d820160009055600e820160009055600f820160009055601082016000611fce9190613486565b6011820160009055505050565b6000806000611fe984611c24565b9250925092509193909250565b60003073ffffffffffffffffffffffffffffffffffffffff1631905090565b600080831561203d573373ffffffffffffffffffffffffffffffffffffffff16319050612041565b8290505b61204a84610b4e565b8110151561205c576000915050612062565b60019150505b92915050565b88600a60008b81526020019081526020016000206000018190555086600a60008b81526020019081526020016000206002018190555083600a60008b815260200190815260200160002060030160006101000a81548160ff021916908360ff16021790555087600a60008b81526020019081526020016000206001018190555082600a60008b81526020019081526020016000206008018190555033600a60008b8152602001908152602001600020600a0160006101000a81548173ffffffffffffffffffffffffffffffffffffffff021916908373ffffffffffffffffffffffffffffffffffffffff16021790555081600a60008b81526020019081526020016000206011018190555060008660ff1614156121b4576003600a60008b815260200190815260200160002060050160006101000a81548160ff021916908360ff1602179055506121e4565b85600a60008b815260200190815260200160002060050160006101000a81548160ff021916908360ff1602179055505b60008560ff161415612225576005600a60008b815260200190815260200160002060050160016101000a81548160ff021916908360ff160217905550612255565b84600a60008b815260200190815260200160002060050160016101000a81548160ff021916908360ff1602179055505b60006122618883611294565b90508115156125b45780600960009054906101000a900473ffffffffffffffffffffffffffffffffffffffff1673ffffffffffffffffffffffffffffffffffffffff1663dd62ed3e33306040518363ffffffff167c0100000000000000000000000000000000000000000000000000000000028152600401808373ffffffffffffffffffffffffffffffffffffffff1673ffffffffffffffffffffffffffffffffffffffff1681526020018273ffffffffffffffffffffffffffffffffffffffff1673ffffffffffffffffffffffffffffffffffffffff1681526020019250505060206040518083038186803b15801561235a57600080fd5b505afa15801561236e573d6000803e3d6000fd5b505050506040513d602081101561238457600080fd5b81019080805190602001909291905050501015151561240b576040517f08c379a00000000000000000000000000000000000000000000000000000000081526004018080602001828103825260148152602001807f446f206e6f7420656e6f75676874206d6f6e657900000000000000000000000081525060200191505060405180910390fd5b600960009054906101000a900473ffffffffffffffffffffffffffffffffffffffff1673ffffffffffffffffffffffffffffffffffffffff166323b872dd3330846040518463ffffffff167c0100000000000000000000000000000000000000000000000000000000028152600401808473ffffffffffffffffffffffffffffffffffffffff1673ffffffffffffffffffffffffffffffffffffffff1681526020018373ffffffffffffffffffffffffffffffffffffffff1673ffffffffffffffffffffffffffffffffffffffff1681526020018281526020019350505050602060405180830381600087803b15801561250457600080fd5b505af1158015612518573d6000803e3d6000fd5b505050506040513d602081101561252e57600080fd5b810190808051906020019092919050505015156125b3576040517f08c379a000000000000000000000000000000000000000000000000000000000815260040180806020018281038252600e8152602001807f5472616e73666572206572726f7200000000000000000000000000000000000081525060200191505060405180910390fd5b5b50505050505050505050565b60065481565b60008060006125d4846114fc565b92509250925080151561275657600960009054906101000a900473ffffffffffffffffffffffffffffffffffffffff1673ffffffffffffffffffffffffffffffffffffffff1663a9059cbb83856040518363ffffffff167c0100000000000000000000000000000000000000000000000000000000028152600401808373ffffffffffffffffffffffffffffffffffffffff1673ffffffffffffffffffffffffffffffffffffffff16815260200182815260200192505050602060405180830381600087803b1580156126a657600080fd5b505af11580156126ba573d6000803e3d6000fd5b505050506040513d60208110156126d057600080fd5b81019080805190602001909291905050501515612755576040517f08c379a000000000000000000000000000000000000000000000000000000000815260040180806020018281038252601f8152602001807f5472616e7366657220455243323020746f20686f7374206973206572726f720081525060200191505060405180910390fd5b5b50505050565b600080600054905060018414156127b157821561278c5760646002548281151561278257fe5b0402915050612826565b600260646003548381151561279d57fe5b04028115156127a857fe5b04915050612826565b600284101515612824576000600190505b848160ff1610156127df57818201915080806001019150506127c2565b5082156127ff576064600254828115156127f557fe5b0402915050612826565b600260646003548381151561281057fe5b040281151561281b57fe5b04915050612826565b505b92915050565b6000809050600080600a600085815260200190815260200160002060030160009054906101000a900460ff1660ff16905060008090505b818160ff1612156128e75783600a600087815260200190815260200160002060070160008360ff1681526020019081526020016000206001015411156128da57600a600086815260200190815260200160002060070160008260ff1681526020019081526020016000206001015493508060ff1692505b8080600101915050612863565b5081600a6000868152602001908152602001600020600f018190555061290d8285612e62565b50505050565b600061291e82610b4e565b34141515612994576040517f08c379a00000000000000000000000000000000000000000000000000000000081526004018080602001828103825260148152602001807f446f206e6f7420656e6f75676874206d6f6e657900000000000000000000000081525060200191505060405180910390fd5b60006001600460003373ffffffffffffffffffffffffffffffffffffffff1673ffffffffffffffffffffffffffffffffffffffff1681526020019081526020016000206000015401905033600460003373ffffffffffffffffffffffffffffffffffffffff1673ffffffffffffffffffffffffffffffffffffffff168152602001908152602001600020600101600083815260200190815260200160002060000160006101000a81548173ffffffffffffffffffffffffffffffffffffffff021916908373ffffffffffffffffffffffffffffffffffffffff16021790555034600460003373ffffffffffffffffffffffffffffffffffffffff1673ffffffffffffffffffffffffffffffffffffffff16815260200190815260200160002060010160008381526020019081526020016000206001018190555083600460003373ffffffffffffffffffffffffffffffffffffffff1673ffffffffffffffffffffffffffffffffffffffff16815260200190815260200160002060010160008381526020019081526020016000206002018190555082600460003373ffffffffffffffffffffffffffffffffffffffff1673ffffffffffffffffffffffffffffffffffffffff168152602001908152602001600020600101600083815260200190815260200160002060030160006101000a81548160ff021916908315150217905550600460003373ffffffffffffffffffffffffffffffffffffffff1673ffffffffffffffffffffffffffffffffffffffff16815260200190815260200160002060000160008154809291906001019190505550600091505092915050565b600080612c0083610b4e565b905060006001600460003373ffffffffffffffffffffffffffffffffffffffff1673ffffffffffffffffffffffffffffffffffffffff1681526020019081526020016000206000015401905033600460003373ffffffffffffffffffffffffffffffffffffffff1673ffffffffffffffffffffffffffffffffffffffff168152602001908152602001600020600101600083815260200190815260200160002060000160006101000a81548173ffffffffffffffffffffffffffffffffffffffff021916908373ffffffffffffffffffffffffffffffffffffffff16021790555081600460003373ffffffffffffffffffffffffffffffffffffffff1673ffffffffffffffffffffffffffffffffffffffff16815260200190815260200160002060010160008381526020019081526020016000206001018190555084600460003373ffffffffffffffffffffffffffffffffffffffff1673ffffffffffffffffffffffffffffffffffffffff16815260200190815260200160002060010160008381526020019081526020016000206002018190555083600460003373ffffffffffffffffffffffffffffffffffffffff1673ffffffffffffffffffffffffffffffffffffffff168152602001908152602001600020600101600083815260200190815260200160002060030160006101000a81548160ff021916908315150217905550600460003373ffffffffffffffffffffffffffffffffffffffff1673ffffffffffffffffffffffffffffffffffffffff16815260200190815260200160002060000160008154809291906001019190505550819250505092915050565b6000600a6000838152602001908152602001600020600401541115612f85576000612eb5600a600084815260200190815260200160002060040154600560009054906101000a900460ff1660ff16612f89565b905080600a60008481526020019081526020016000206004015403600a6000848152602001908152602001600020600401819055508060065403600681905550600860009054906101000a900473ffffffffffffffffffffffffffffffffffffffff1673ffffffffffffffffffffffffffffffffffffffff166108fc829081150290604051600060405180830381858888f19350505050158015612f5d573d6000803e3d6000fd5b5080600a6000848152602001908152602001600020600b0181905550612f838383612fa2565b505b5050565b60006064838302811515612f9957fe5b04905092915050565b6000612fea600a600084815260200190815260200160002060040154600a600085815260200190815260200160002060050160009054906101000a900460ff1660ff16612f89565b905080600a60008481526020019081526020016000206004015403600a6000848152602001908152602001600020600401819055508060065403600681905550600a6000838152602001908152602001600020600a0160009054906101000a900473ffffffffffffffffffffffffffffffffffffffff1673ffffffffffffffffffffffffffffffffffffffff166108fc829081150290604051600060405180830381858888f193505050501580156130a6573d6000803e3d6000fd5b5080600a6000848152602001908152602001600020600c01819055506130cc83836130d1565b505050565b6000613119600a600084815260200190815260200160002060040154600a600085815260200190815260200160002060050160019054906101000a900460ff1660ff16612f89565b90506000600a60008481526020019081526020016000206007016000858152602001908152602001600020600101548281151561315257fe5b049050816006540360068190555080600a6000858152602001908152602001600020600d018190555060008090505b600a60008581526020019081526020016000206007016000868152602001908152602001600020600101548160ff1610156132a4576000600a6000868152602001908152602001600020600701600087815260200190815260200160002060000160008360ff16815260200190815260200160002060000160009054906101000a900473ffffffffffffffffffffffffffffffffffffffff16905082600a60008781526020019081526020016000206004015403600a6000878152602001908152602001600020600401819055508073ffffffffffffffffffffffffffffffffffffffff166108fc849081150290604051600060405180830381858888f19350505050158015613295573d6000803e3d6000fd5b50508080600101915050613181565b506132af84846132b5565b50505050565b6000600a6000838152602001908152602001600020600601600084815260200190815260200160002060010154600a60008481526020019081526020016000206004015481151561330257fe5b04905060008090505b600a60008481526020019081526020016000206006016000858152602001908152602001600020600101548160ff16101561342e576000600a6000858152602001908152602001600020600601600086815260200190815260200160002060000160008360ff16815260200190815260200160002060000160009054906101000a900473ffffffffffffffffffffffffffffffffffffffff16905082600a60008681526020019081526020016000206004015403600a6000868152602001908152602001600020600401819055508073ffffffffffffffffffffffffffffffffffffffff166108fc849081150290604051600060405180830381858888f1935050505015801561341f573d6000803e3d6000fd5b5050808060010191505061330b565b5080600a6000848152602001908152602001600020600e01819055507fb0b53c79f7cd0d8c624f48414bdb76a381085a786cc7a98931e2fc76933b644e826040518082815260200191505060405180910390a1505050565b50805460008255906000526020600020908101906134a491906134a7565b50565b6134c991905b808211156134c55760008160009055506001016134ad565b5090565b9056fe4f6e6c79206f776e65722063616e206578656375746520746869732066756e6374696f6ea165627a7a72305820fa47251eb79fdb842621880cda4fc378f0e3de035f212e88b1be1cf68b12ccce0029",
  "source": "pragma solidity ^0.5.2;\n\nimport \"./HoldMoney.sol\";\nimport \"./LoomERC20Coin.sol\";\n\n\ncontract Quize is HoldMoney {\n    uint8 private percentQuiz = 2;\n    uint256 public fullAmount;\n    uint256 private sevenDaysTimeStamp = 604800;\n    address payable companyAddress = 0x11e37CaA6100cbDaB76E84BC584Ca4DF77337e06; // 0x02810c3bc07De2ddAef89827b0dD6b223C7759d5;\n    LoomERC20Coin public tokenContract;\n\n    event eventIsFinish(int256 question_id);\n\n    struct Participant {\n        mapping(uint256 => Part) participants;\n        uint256 index;\n    }\n\n    struct Part {\n        address payable parts;\n    }\n\n    struct Validator {\n        mapping(uint256 => Valid) validators;\n        uint256 index;\n    }\n\n    struct Valid {\n        address payable valid;\n    }\n\n    struct Question {\n        int256 question_id;\n        uint256 startTime;\n        uint256 endTime;\n        uint8 questionQuantity;\n        uint256 money;\n        uint8 percentHost;\n        uint8 percentValidator;\n        mapping(uint256 => Participant) participant;\n        mapping(uint256 => Validator) validator;\n        int256 validatorsAmount;\n        int256 activeValidators;\n        address payable hostWallet;\n        uint256 persentFeeCompany;\n        uint256 persentFeeHost;\n        uint256 persentForEachValidators;\n        uint256 monayForParticipant;\n        uint256 correctAnswer;\n        address[] allParticipant;\n        uint256 quizePrice;\n    }\n\n    mapping(int256 => Question) questions;\n\n    constructor(LoomERC20Coin _tokenContract) public {\n        tokenContract = _tokenContract;\n    }\n\n    function startQestion(\n        int256 _question_id,\n        uint256 _startTime,\n        uint256 _endTime,\n        uint8 _percentHost,\n        uint8 _percentValidator,\n        uint8 _questionQuantity,\n        int256 _validatorsAmount,\n        uint256 _quizePrice,\n        bool  _pathHoldMoney\n    ) public payable {\n        questions[_question_id].question_id = _question_id;\n        questions[_question_id].endTime = _endTime;\n        questions[_question_id].questionQuantity = _questionQuantity;\n        questions[_question_id].startTime = _startTime;\n        questions[_question_id].validatorsAmount = _validatorsAmount;\n        questions[_question_id].hostWallet = msg.sender;\n        questions[_question_id].quizePrice = _quizePrice;\n\n        if (_percentHost == 0) {\n            questions[_question_id].percentHost = 3;\n        } else {\n            questions[_question_id].percentHost = _percentHost;\n        }\n\n        if (_percentValidator == 0) {\n            questions[_question_id].percentValidator = 5;\n        } else {\n            questions[_question_id].percentValidator = _percentValidator;\n        }\n\n         uint256 amount = _setMoneyRetention(_endTime, _pathHoldMoney);\n       if(!_pathHoldMoney){\n         require(tokenContract.allowance(msg.sender, address(this)) >= amount, \"Do not enought money\");\n         require(tokenContract.transferFrom(msg.sender, address(this), amount), \"Transfer error\");\n       }\n    }\n\n    function setAnswer(int256 _question_id, uint8 _whichAnswer) public payable {\n        require(setTimeAnswer(_question_id) == 0, \"Time is not valid\");\n        require(msg.value == questions[_question_id].quizePrice, \"Money do not enough\");\n\n        questions[_question_id].money += msg.value;\n        uint256 i = questions[_question_id].participant[_whichAnswer].index;\n        questions[_question_id].participant[_whichAnswer].participants[i].parts = msg.sender;\n        questions[_question_id].participant[_whichAnswer].index = i + 1;\n        questions[_question_id].allParticipant.push(msg.sender);\n        fullAmount += msg.value;\n    }\n\n    function setValidator(int256 _question_id, uint8 _whichAnswer) public payable {\n        require(setTimeValidator(_question_id) == 0, \"Time is not valid\");\n        uint256 i = questions[_question_id].validator[_whichAnswer].index;\n        questions[_question_id].validator[_whichAnswer].validators[i].valid = msg.sender;\n        questions[_question_id].validator[_whichAnswer].index = i + 1;\n        int256 active = questions[_question_id].activeValidators + 1;\n        if (active == questions[_question_id].validatorsAmount) {\n            questions[_question_id].activeValidators = active;\n            letsFindCorrectAnswer(_question_id);\n        } else {\n            questions[_question_id].activeValidators = active;\n        }\n    }\n\n    function letsFindCorrectAnswer(int256 _question_id) private {\n        uint256 biggestValue = 0;\n        uint256 correctAnswer;\n        int256 questionQuantity = questions[_question_id].questionQuantity;\n\n        // find correct answer\n        for (uint8 i = 0; i < questionQuantity; i++) {\n            if (questions[_question_id].validator[i].index > biggestValue) {\n                biggestValue = questions[_question_id].validator[i].index;\n                correctAnswer = i;\n            }\n        }\n\n        questions[_question_id].correctAnswer = correctAnswer;\n        letsPayCompanyFee(correctAnswer, _question_id);\n    }\n\n    function letsPayCompanyFee(uint256 correctAnswer, int256 _question_id) private {\n        if (questions[_question_id].money > 0) {\n            // pay fee for company\n            uint256 persentFee = getPersent(\n                questions[_question_id].money,\n                percentQuiz\n            );\n            questions[_question_id].money = questions[_question_id].money - persentFee;\n            fullAmount = fullAmount - persentFee;\n            companyAddress.transfer(persentFee);\n            questions[_question_id].persentFeeCompany = persentFee;\n\n            letsPayHostFee(correctAnswer, _question_id);\n        }\n    }\n\n    function letsPayHostFee(uint256 correctAnswer, int256 _question_id) private {\n        // pay fee for host\n        uint256 persHostFee = getPersent(\n            questions[_question_id].money,\n            questions[_question_id].percentHost\n        );\n        questions[_question_id].money = questions[_question_id].money - persHostFee;\n        fullAmount = fullAmount - persHostFee;\n        questions[_question_id].hostWallet.transfer(persHostFee);\n        questions[_question_id].persentFeeHost = persHostFee;\n\n        letsPayValidatorFee(correctAnswer, _question_id);\n    }\n\n    function letsPayValidatorFee(uint256 correctAnswer, int256 _question_id) private {\n        // calculate percent for validator\n        uint256 persentForValidators = getPersent(\n            questions[_question_id].money,\n            questions[_question_id].percentValidator\n        );\n        uint256 persentForEachValidators = persentForValidators / questions[_question_id].validator[correctAnswer].index;\n        fullAmount = fullAmount - persentForValidators;\n\n        questions[_question_id].persentForEachValidators = persentForEachValidators;\n\n        // pay for validatos\n        for (uint8 i = 0; i < questions[_question_id].validator[correctAnswer].index; i++ ) {\n            address payable _validator = questions[_question_id].validator[correctAnswer].validators[i].valid;\n            questions[_question_id].money = questions[_question_id].money - persentForEachValidators;\n            _validator.transfer(persentForEachValidators);\n        }\n        letsPayParticipantFee(correctAnswer, _question_id);\n    }\n\n    function letsPayParticipantFee(uint256 correctAnswer, int256 _question_id) private{\n         // Pay for participant\n        uint256 monayForParticipant = questions[_question_id].money / questions[_question_id].participant[correctAnswer].index;\n        for ( uint8 i = 0; i < questions[_question_id].participant[correctAnswer].index; i++) {\n            address payable _participant = questions[_question_id].participant[correctAnswer].participants[i].parts;\n            questions[_question_id].money = questions[_question_id].money - monayForParticipant;\n            _participant.transfer(monayForParticipant);\n        }\n\n        questions[_question_id].monayForParticipant = monayForParticipant;\n\n        emit eventIsFinish(_question_id);\n    }\n\n    function getPersent(uint256 _percent, uint256 _from)\n        private\n        pure\n        returns (uint256)\n    {\n        return (_from * _percent) / 100;\n    }\n\n    function getQuestion(int256 _question_id)\n        public\n        view\n        returns (\n            uint256 persentFeeCompany,\n            uint256 persentForEachValidators,\n            uint256 money,\n            uint256 monayForParticipant,\n            uint8 questionQuantity,\n            uint256 correctAnswer,\n            uint256 persentFeeHost\n        )\n    {\n        return (\n            questions[_question_id].persentFeeCompany,\n            questions[_question_id].persentForEachValidators,\n            questions[_question_id].money,\n            questions[_question_id].monayForParticipant,\n            questions[_question_id].questionQuantity,\n            questions[_question_id].correctAnswer,\n            questions[_question_id].persentFeeHost\n        );\n    }\n\n    function setTimeValidator(int256 _question_id) public view returns (int8) {\n        if (int256(now - questions[_question_id].endTime) >= 0){\n            if (int256((questions[_question_id].endTime + sevenDaysTimeStamp) - now) >= 0){\n                // if validator made activities like participants.\n                for (uint8 i = 0; i < questions[_question_id].allParticipant.length; i++) {\n                    if (questions[_question_id].allParticipant[i] == msg.sender) {\n                        return 3;\n                    }\n                }\n                // user can validate because time is valid.\n                return 0;\n            } else {\n                // user can't validate because time is finish.\n                return 2;\n            }\n        } else {\n            // user can't validate because event is not started yet.\n            return 1;\n        }\n    }\n\n    function setTimeAnswer(int256 _question_id) public view returns (int8) {\n        if (int256(now - questions[_question_id].startTime) >= 0) {\n            if (int256(questions[_question_id].endTime - now) >= 0) {\n                // user can make answer because time is valid.\n                return 0;\n            } else {\n                // user can't make answer because event is finish.\n                return 2;\n            }\n        } else {\n            // user can't make answer because event is not started yet.\n            return 1;\n        }\n    }\n\n    function deleteEventValidator(int256 _question_id)\n        public\n        view\n        returns (int8)\n    {\n        if (questions[_question_id].hostWallet == msg.sender) {\n            if (questions[_question_id].money == 0) {\n                // user can delete event\n                return 0;\n            } else {\n                // user can't delete event because event has money on balance\n                return 1;\n            }\n        } else {\n            // only owner can delete event.\n            return 2;\n        }\n    }\n\n    function deleteEvent(int256 _question_id) public {\n        require(\n            deleteEventValidator(_question_id) == 0,\n            \"Delete event is false\"\n        );\n        delete questions[_question_id];\n    }\n\n    function quizeBalance() public view returns (uint256) {\n        return address(this).balance;\n    }\n\n    function getContractTokenBalance() public view returns (uint256) {\n        return tokenContract.balanceOf(address(this));\n    }\n\n    function getMoneyRetention(address payable _host) public payable {\n        (uint256 amount, address host, bool path) = _getMoneyRetention(_host);\n        if(!path){\n           require(tokenContract.transfer(host, amount), \"Transfer ERC20 to host is error\");\n        }\n    }\n\n    function getMoneyRetentionTest(address _host) public view returns(uint256 money, address host, bool path) {\n        return _getMoneyRetentionTest(_host);\n    }\n\n function amountGuard(bool _path) public view returns (int8) {\n     uint256 balanceToken;\n     if(!_path){\n         balanceToken = tokenContract.balanceOf(address(msg.sender));\n     }\n\n     return _amountGuard(_path, balanceToken);\n }\n\n\n}\n",
  "sourcePath": "/Users/macbook/Documents/freelance/node/QUIZE/frontend/contracts/Quize.sol",
  "compiler": {
    "name": "solc",
    "version": "0.5.2+commit.1df8f40c.Emscripten.clang"
  },
  "schemaVersion": "3.0.19",
  "updatedAt": "2020-04-06T08:00:18.859Z",
  "networkType": "ethereum",
  "devdoc": {
    "methods": {}
  },
  "userdoc": {
    "methods": {}
  }
}