{
  "contractName": "Quize",
  "abi": [
    {
      "inputs": [
        {
          "internalType": "contract MaticWETH",
          "name": "_maticToken",
          "type": "address"
        },
        {
          "internalType": "contract BetteryToken",
          "name": "_betteryToken",
          "type": "address"
        }
      ],
      "stateMutability": "nonpayable",
      "type": "constructor"
    },
    {
      "anonymous": false,
      "inputs": [
        {
          "indexed": false,
          "internalType": "address",
          "name": "userAddress",
          "type": "address"
        },
        {
          "indexed": false,
          "internalType": "address payable",
          "name": "relayerAddress",
          "type": "address"
        },
        {
          "indexed": false,
          "internalType": "bytes",
          "name": "functionSignature",
          "type": "bytes"
        }
      ],
      "name": "MetaTransactionExecuted",
      "type": "event"
    },
    {
      "anonymous": false,
      "inputs": [
        {
          "indexed": false,
          "internalType": "int256",
          "name": "question_id",
          "type": "int256"
        },
        {
          "indexed": false,
          "internalType": "bool",
          "name": "payEther",
          "type": "bool"
        }
      ],
      "name": "eventIsFinish",
      "type": "event"
    },
    {
      "anonymous": false,
      "inputs": [
        {
          "indexed": false,
          "internalType": "string",
          "name": "path",
          "type": "string"
        },
        {
          "indexed": false,
          "internalType": "uint256",
          "name": "money",
          "type": "uint256"
        },
        {
          "indexed": false,
          "internalType": "bool",
          "name": "payEther",
          "type": "bool"
        },
        {
          "indexed": false,
          "internalType": "address",
          "name": "wallet",
          "type": "address"
        },
        {
          "indexed": false,
          "internalType": "string",
          "name": "from",
          "type": "string"
        },
        {
          "indexed": false,
          "internalType": "int256",
          "name": "question_id",
          "type": "int256"
        }
      ],
      "name": "payEvent",
      "type": "event"
    },
    {
      "anonymous": false,
      "inputs": [
        {
          "indexed": false,
          "internalType": "int256",
          "name": "question_id",
          "type": "int256"
        }
      ],
      "name": "revertedEvent",
      "type": "event"
    },
    {
      "inputs": [
        {
          "internalType": "bool",
          "name": "_path",
          "type": "bool"
        },
        {
          "internalType": "uint256",
          "name": "balanceToken",
          "type": "uint256"
        },
        {
          "internalType": "address payable",
          "name": "wallet",
          "type": "address"
        }
      ],
      "name": "_amountGuard",
      "outputs": [
        {
          "internalType": "int8",
          "name": "",
          "type": "int8"
        }
      ],
      "stateMutability": "view",
      "type": "function",
      "constant": true
    },
    {
      "inputs": [
        {
          "internalType": "address payable",
          "name": "_host",
          "type": "address"
        }
      ],
      "name": "_getMoneyRetention",
      "outputs": [
        {
          "internalType": "uint256",
          "name": "",
          "type": "uint256"
        },
        {
          "internalType": "address",
          "name": "",
          "type": "address"
        },
        {
          "internalType": "bool",
          "name": "",
          "type": "bool"
        },
        {
          "internalType": "int256",
          "name": "",
          "type": "int256"
        }
      ],
      "stateMutability": "payable",
      "type": "function",
      "payable": true
    },
    {
      "inputs": [
        {
          "internalType": "bool",
          "name": "_pathHoldMoney",
          "type": "bool"
        },
        {
          "internalType": "int256",
          "name": "question_id",
          "type": "int256"
        },
        {
          "internalType": "address payable",
          "name": "wallet",
          "type": "address"
        }
      ],
      "name": "_setMoneyRetention",
      "outputs": [
        {
          "internalType": "uint256",
          "name": "",
          "type": "uint256"
        }
      ],
      "stateMutability": "payable",
      "type": "function",
      "payable": true
    },
    {
      "inputs": [],
      "name": "betteryToken",
      "outputs": [
        {
          "internalType": "contract BetteryToken",
          "name": "",
          "type": "address"
        }
      ],
      "stateMutability": "view",
      "type": "function",
      "constant": true
    },
    {
      "inputs": [],
      "name": "companyAddress",
      "outputs": [
        {
          "internalType": "address payable",
          "name": "",
          "type": "address"
        }
      ],
      "stateMutability": "view",
      "type": "function",
      "constant": true
    },
    {
      "inputs": [
        {
          "internalType": "address",
          "name": "userAddress",
          "type": "address"
        },
        {
          "internalType": "bytes",
          "name": "functionSignature",
          "type": "bytes"
        },
        {
          "internalType": "bytes32",
          "name": "sigR",
          "type": "bytes32"
        },
        {
          "internalType": "bytes32",
          "name": "sigS",
          "type": "bytes32"
        },
        {
          "internalType": "uint8",
          "name": "sigV",
          "type": "uint8"
        }
      ],
      "name": "executeMetaTransaction",
      "outputs": [
        {
          "internalType": "bytes",
          "name": "",
          "type": "bytes"
        }
      ],
      "stateMutability": "payable",
      "type": "function",
      "payable": true
    },
    {
      "inputs": [],
      "name": "fullAmount",
      "outputs": [
        {
          "internalType": "uint256",
          "name": "",
          "type": "uint256"
        }
      ],
      "stateMutability": "view",
      "type": "function",
      "constant": true
    },
    {
      "inputs": [
        {
          "internalType": "address",
          "name": "user",
          "type": "address"
        }
      ],
      "name": "getNonce",
      "outputs": [
        {
          "internalType": "uint256",
          "name": "nonce",
          "type": "uint256"
        }
      ],
      "stateMutability": "view",
      "type": "function",
      "constant": true
    },
    {
      "inputs": [],
      "name": "maticToken",
      "outputs": [
        {
          "internalType": "contract MaticWETH",
          "name": "",
          "type": "address"
        }
      ],
      "stateMutability": "view",
      "type": "function",
      "constant": true
    },
    {
      "inputs": [
        {
          "internalType": "bool",
          "name": "_path",
          "type": "bool"
        },
        {
          "internalType": "address payable",
          "name": "wallet",
          "type": "address"
        }
      ],
      "name": "moneyRetentionCalculate",
      "outputs": [
        {
          "internalType": "uint256",
          "name": "",
          "type": "uint256"
        }
      ],
      "stateMutability": "view",
      "type": "function",
      "constant": true
    },
    {
      "inputs": [
        {
          "internalType": "address",
          "name": "wallet",
          "type": "address"
        }
      ],
      "name": "onHold",
      "outputs": [
        {
          "internalType": "uint256",
          "name": "",
          "type": "uint256"
        }
      ],
      "stateMutability": "view",
      "type": "function",
      "constant": true
    },
    {
      "inputs": [],
      "name": "owner",
      "outputs": [
        {
          "internalType": "address",
          "name": "",
          "type": "address"
        }
      ],
      "stateMutability": "view",
      "type": "function",
      "constant": true
    },
    {
      "inputs": [],
      "name": "priceEth",
      "outputs": [
        {
          "internalType": "uint256",
          "name": "",
          "type": "uint256"
        }
      ],
      "stateMutability": "view",
      "type": "function",
      "constant": true
    },
    {
      "inputs": [],
      "name": "priceToken",
      "outputs": [
        {
          "internalType": "uint256",
          "name": "",
          "type": "uint256"
        }
      ],
      "stateMutability": "view",
      "type": "function",
      "constant": true
    },
    {
      "inputs": [
        {
          "internalType": "uint256",
          "name": "_priceEth",
          "type": "uint256"
        },
        {
          "internalType": "uint256",
          "name": "_priceToken",
          "type": "uint256"
        }
      ],
      "name": "setEthPrice",
      "outputs": [],
      "stateMutability": "nonpayable",
      "type": "function"
    },
    {
      "inputs": [
        {
          "internalType": "uint256[]",
          "name": "_data",
          "type": "uint256[]"
        }
      ],
      "name": "setSort",
      "outputs": [],
      "stateMutability": "nonpayable",
      "type": "function"
    },
    {
      "inputs": [],
      "name": "sort",
      "outputs": [],
      "stateMutability": "nonpayable",
      "type": "function"
    },
    {
      "inputs": [
        {
          "internalType": "uint256",
          "name": "",
          "type": "uint256"
        }
      ],
      "name": "sortedArray",
      "outputs": [
        {
          "internalType": "uint256",
          "name": "",
          "type": "uint256"
        }
      ],
      "stateMutability": "view",
      "type": "function",
      "constant": true
    },
    {
      "stateMutability": "payable",
      "type": "receive",
      "payable": true
    },
    {
      "inputs": [
        {
          "internalType": "int256",
          "name": "_question_id",
          "type": "int256"
        },
        {
          "internalType": "uint256",
          "name": "_startTime",
          "type": "uint256"
        },
        {
          "internalType": "uint256",
          "name": "_endTime",
          "type": "uint256"
        },
        {
          "internalType": "uint8",
          "name": "_percentHost",
          "type": "uint8"
        },
        {
          "internalType": "uint8",
          "name": "_percentValidator",
          "type": "uint8"
        },
        {
          "internalType": "uint8",
          "name": "_questionQuantity",
          "type": "uint8"
        },
        {
          "internalType": "int256",
          "name": "_validatorsAmount",
          "type": "int256"
        },
        {
          "internalType": "uint256",
          "name": "_quizePrice",
          "type": "uint256"
        },
        {
          "internalType": "bool",
          "name": "_pathHoldMoney",
          "type": "bool"
        },
        {
          "internalType": "bool",
          "name": "_payEther",
          "type": "bool"
        }
      ],
      "name": "startQestion",
      "outputs": [],
      "stateMutability": "payable",
      "type": "function",
      "payable": true
    },
    {
      "inputs": [
        {
          "internalType": "int256",
          "name": "_question_id",
          "type": "int256"
        },
        {
          "internalType": "uint8",
          "name": "_whichAnswer",
          "type": "uint8"
        }
      ],
      "name": "setAnswer",
      "outputs": [],
      "stateMutability": "payable",
      "type": "function",
      "payable": true
    },
    {
      "inputs": [
        {
          "internalType": "int256",
          "name": "_question_id",
          "type": "int256"
        },
        {
          "internalType": "uint8",
          "name": "_whichAnswer",
          "type": "uint8"
        }
      ],
      "name": "setValidator",
      "outputs": [],
      "stateMutability": "payable",
      "type": "function",
      "payable": true
    },
    {
      "inputs": [
        {
          "internalType": "int256",
          "name": "_question_id",
          "type": "int256"
        }
      ],
      "name": "getQuestion",
      "outputs": [
        {
          "internalType": "uint256",
          "name": "persentFeeCompany",
          "type": "uint256"
        },
        {
          "internalType": "uint256",
          "name": "persentForEachValidators",
          "type": "uint256"
        },
        {
          "internalType": "uint256",
          "name": "money",
          "type": "uint256"
        },
        {
          "internalType": "uint256",
          "name": "moneyForParticipant",
          "type": "uint256"
        },
        {
          "internalType": "bool",
          "name": "reverted",
          "type": "bool"
        },
        {
          "internalType": "uint256",
          "name": "correctAnswer",
          "type": "uint256"
        },
        {
          "internalType": "uint256",
          "name": "persentFeeHost",
          "type": "uint256"
        }
      ],
      "stateMutability": "view",
      "type": "function",
      "constant": true
    },
    {
      "inputs": [
        {
          "internalType": "int256",
          "name": "_question_id",
          "type": "int256"
        }
      ],
      "name": "deleteEvent",
      "outputs": [],
      "stateMutability": "nonpayable",
      "type": "function"
    },
    {
      "inputs": [],
      "name": "quizeBalance",
      "outputs": [
        {
          "internalType": "uint256",
          "name": "",
          "type": "uint256"
        }
      ],
      "stateMutability": "view",
      "type": "function",
      "constant": true
    },
    {
      "inputs": [],
      "name": "getContractTokenBalance",
      "outputs": [
        {
          "internalType": "uint256",
          "name": "",
          "type": "uint256"
        }
      ],
      "stateMutability": "view",
      "type": "function",
      "constant": true
    },
    {
      "inputs": [
        {
          "internalType": "address payable",
          "name": "_host",
          "type": "address"
        }
      ],
      "name": "getMoneyRetention",
      "outputs": [],
      "stateMutability": "payable",
      "type": "function",
      "payable": true
    },
    {
      "inputs": [
        {
          "internalType": "bool",
          "name": "_path",
          "type": "bool"
        },
        {
          "internalType": "address payable",
          "name": "wallet",
          "type": "address"
        }
      ],
      "name": "amountGuard",
      "outputs": [
        {
          "internalType": "int8",
          "name": "",
          "type": "int8"
        }
      ],
      "stateMutability": "view",
      "type": "function",
      "constant": true
    },
    {
      "inputs": [
        {
          "internalType": "int256",
          "name": "_question_id",
          "type": "int256"
        }
      ],
      "name": "setTimeValidator",
      "outputs": [
        {
          "internalType": "int8",
          "name": "",
          "type": "int8"
        }
      ],
      "stateMutability": "view",
      "type": "function",
      "constant": true
    },
    {
      "inputs": [
        {
          "internalType": "int256",
          "name": "_question_id",
          "type": "int256"
        }
      ],
      "name": "setTimeAnswer",
      "outputs": [
        {
          "internalType": "int8",
          "name": "",
          "type": "int8"
        }
      ],
      "stateMutability": "view",
      "type": "function",
      "constant": true
    },
    {
      "inputs": [
        {
          "internalType": "int256",
          "name": "_question_id",
          "type": "int256"
        }
      ],
      "name": "deleteEventValidator",
      "outputs": [
        {
          "internalType": "int8",
          "name": "",
          "type": "int8"
        }
      ],
      "stateMutability": "view",
      "type": "function",
      "constant": true
    }
  ],
  "bytecode": "0x6080604052678ac7230489e800006002556002600960146101000a81548160ff021916908360ff16021790555062093a80600b553480156200004057600080fd5b5060405162005fc738038062005fc7833981810160405260408110156200006657600080fd5b8101908080519060200190929190805190602001909291905050506040518060400160405280600781526020017f42657474657279000000000000000000000000000000000000000000000000008152506040518060400160405280600181526020017f3100000000000000000000000000000000000000000000000000000000000000815250600582828260405180608001604052806052815260200162005f756052913980519060200120838051906020012083805190602001208330604051602001808681526020018581526020018481526020018381526020018273ffffffffffffffffffffffffffffffffffffffff1673ffffffffffffffffffffffffffffffffffffffff168152602001955050505050506040516020818303038152906040528051906020012060008190555050505050505033600360006101000a81548173ffffffffffffffffffffffffffffffffffffffff021916908373ffffffffffffffffffffffffffffffffffffffff16021790555081600860006101000a81548173ffffffffffffffffffffffffffffffffffffffff021916908373ffffffffffffffffffffffffffffffffffffffff16021790555080600960006101000a81548173ffffffffffffffffffffffffffffffffffffffff021916908373ffffffffffffffffffffffffffffffffffffffff16021790555033600c60006101000a81548173ffffffffffffffffffffffffffffffffffffffff021916908373ffffffffffffffffffffffffffffffffffffffff1602179055505050615cc080620002b56000396000f3fe6080604052600436106101d15760003560e01c806375977235116100f757806398e964b211610095578063e4f8749611610064578063e4f8749614610c32578063f4cd570214610c5d578063f5c1ec8114610ccb578063f848217114610cf6576101d8565b806398e964b214610abb578063c9e53b4b14610b51578063dc35429614610b8c578063e2d914f214610be3576101d8565b806383855f1f116100d157806383855f1f146109b357806387b6608d146109f85780638cdc86a614610a4d5780638da5cb5b14610a64576101d8565b806375977235146108505780638229f5e9146108c1578063834f80471461095e576101d8565b8063317d94531161016f5780633b97b5d61161013e5780633b97b5d61461066057806353e1ead91461072557806357146e061461077c5780636738a967146107f9576101d8565b8063317d94531461054057806333ec47811461056b5780633493c862146105d057806334be86c814610625576101d8565b80632a7100cc116101ab5780632a7100cc1461044a5780632ca38363146104855780632d0335ab146104b05780632ff6fe7614610515576101d8565b80630c53c51c146101dd5780632335e52914610352578063234e19fd146103d3576101d8565b366101d857005b600080fd5b6102d7600480360360a08110156101f357600080fd5b81019080803573ffffffffffffffffffffffffffffffffffffffff1690602001909291908035906020019064010000000081111561023057600080fd5b82018360208201111561024257600080fd5b8035906020019184600183028401116401000000008311171561026457600080fd5b91908080601f016020809104026020016040519081016040528093929190818152602001838380828437600081840152601f19601f8201169050808301925050505050505091929192908035906020019092919080359060200190929190803560ff169060200190929190505050610d3a565b6040518080602001828103825283818151815260200191508051906020019080838360005b838110156103175780820151818401526020810190506102fc565b50505050905090810190601f1680156103445780820380516001836020036101000a031916815260200191505b509250505060405180910390f35b34801561035e57600080fd5b506103b76004803603606081101561037557600080fd5b8101908080351515906020019092919080359060200190929190803573ffffffffffffffffffffffffffffffffffffffff16906020019092919050505061118f565b604051808260000b60000b815260200191505060405180910390f35b3480156103df57600080fd5b5061042e600480360360408110156103f657600080fd5b81019080803515159060200190929190803573ffffffffffffffffffffffffffffffffffffffff1690602001909291905050506111b6565b604051808260000b60000b815260200191505060405180910390f35b6104836004803603604081101561046057600080fd5b8101908080359060200190929190803560ff169060200190929190505050611391565b005b34801561049157600080fd5b5061049a611d59565b6040518082815260200191505060405180910390f35b3480156104bc57600080fd5b506104ff600480360360208110156104d357600080fd5b81019080803573ffffffffffffffffffffffffffffffffffffffff169060200190929190505050611d5f565b6040518082815260200191505060405180910390f35b34801561052157600080fd5b5061052a611da8565b6040518082815260200191505060405180910390f35b34801561054c57600080fd5b50610555611dae565b6040518082815260200191505060405180910390f35b34801561057757600080fd5b506105ba6004803603602081101561058e57600080fd5b81019080803573ffffffffffffffffffffffffffffffffffffffff169060200190929190505050611e8f565b6040518082815260200191505060405180910390f35b3480156105dc57600080fd5b50610609600480360360208110156105f357600080fd5b8101908080359060200190929190505050611fd1565b604051808260000b60000b815260200191505060405180910390f35b61065e6004803603604081101561063b57600080fd5b8101908080359060200190929190803560ff1690602001909291905050506120fd565b005b34801561066c57600080fd5b506107236004803603602081101561068357600080fd5b81019080803590602001906401000000008111156106a057600080fd5b8201836020820111156106b257600080fd5b803590602001918460208302840111640100000000831117156106d457600080fd5b919080806020026020016040519081016040528093929190818152602001838360200280828437600081840152601f19601f8201169050808301925050505050505091929192905050506122d4565b005b34801561073157600080fd5b5061073a6122ee565b604051808273ffffffffffffffffffffffffffffffffffffffff1673ffffffffffffffffffffffffffffffffffffffff16815260200191505060405180910390f35b34801561078857600080fd5b506107b56004803603602081101561079f57600080fd5b8101908080359060200190929190505050612314565b604051808881526020018781526020018681526020018581526020018415151515815260200183815260200182815260200197505050505050505060405180910390f35b34801561080557600080fd5b5061080e6123e6565b604051808273ffffffffffffffffffffffffffffffffffffffff1673ffffffffffffffffffffffffffffffffffffffff16815260200191505060405180910390f35b34801561085c57600080fd5b506108ab6004803603604081101561087357600080fd5b81019080803515159060200190929190803573ffffffffffffffffffffffffffffffffffffffff16906020019092919050505061240c565b6040518082815260200191505060405180910390f35b610903600480360360208110156108d757600080fd5b81019080803573ffffffffffffffffffffffffffffffffffffffff169060200190929190505050612465565b604051808581526020018473ffffffffffffffffffffffffffffffffffffffff1673ffffffffffffffffffffffffffffffffffffffff1681526020018315151515815260200182815260200194505050505060405180910390f35b34801561096a57600080fd5b506109976004803603602081101561098157600080fd5b81019080803590602001909291905050506129c0565b604051808260000b60000b815260200191505060405180910390f35b3480156109bf57600080fd5b506109f6600480360360408110156109d657600080fd5b810190808035906020019092919080359060200190929190505050612a1d565b005b348015610a0457600080fd5b50610a3160048036036020811015610a1b57600080fd5b8101908080359060200190929190505050612b14565b604051808260000b60000b815260200191505060405180910390f35b348015610a5957600080fd5b50610a62612bc2565b005b348015610a7057600080fd5b50610a79612bed565b604051808273ffffffffffffffffffffffffffffffffffffffff1673ffffffffffffffffffffffffffffffffffffffff16815260200191505060405180910390f35b610b4f6004803603610140811015610ad257600080fd5b81019080803590602001909291908035906020019092919080359060200190929190803560ff169060200190929190803560ff169060200190929190803560ff1690602001909291908035906020019092919080359060200190929190803515159060200190929190803515159060200190929190505050612c13565b005b348015610b5d57600080fd5b50610b8a60048036036020811015610b7457600080fd5b8101908080359060200190929190505050613592565b005b348015610b9857600080fd5b50610ba1613727565b604051808273ffffffffffffffffffffffffffffffffffffffff1673ffffffffffffffffffffffffffffffffffffffff16815260200191505060405180910390f35b348015610bef57600080fd5b50610c1c60048036036020811015610c0657600080fd5b810190808035906020019092919050505061374d565b6040518082815260200191505060405180910390f35b348015610c3e57600080fd5b50610c4761376e565b6040518082815260200191505060405180910390f35b610cb560048036036060811015610c7357600080fd5b8101908080351515906020019092919080359060200190929190803573ffffffffffffffffffffffffffffffffffffffff16906020019092919050505061378d565b6040518082815260200191505060405180910390f35b348015610cd757600080fd5b50610ce06139fd565b6040518082815260200191505060405180910390f35b610d3860048036036020811015610d0c57600080fd5b81019080803573ffffffffffffffffffffffffffffffffffffffff169060200190929190505050613a03565b005b6060610d446158ea565b6040518060600160405280600160008a73ffffffffffffffffffffffffffffffffffffffff1673ffffffffffffffffffffffffffffffffffffffff1681526020019081526020016000205481526020018873ffffffffffffffffffffffffffffffffffffffff168152602001878152509050610dc38782878787613d90565b610e18576040517f08c379a0000000000000000000000000000000000000000000000000000000008152600401808060200182810382526021815260200180615bb26021913960400191505060405180910390fd5b610e6a60018060008a73ffffffffffffffffffffffffffffffffffffffff1673ffffffffffffffffffffffffffffffffffffffff16815260200190815260200160002054613e4290919063ffffffff16565b600160008973ffffffffffffffffffffffffffffffffffffffff1673ffffffffffffffffffffffffffffffffffffffff168152602001908152602001600020819055507f5845892132946850460bff5a0083f71031bc5bf9aadcd40f1de79423eac9b10b873388604051808473ffffffffffffffffffffffffffffffffffffffff1673ffffffffffffffffffffffffffffffffffffffff1681526020018373ffffffffffffffffffffffffffffffffffffffff1673ffffffffffffffffffffffffffffffffffffffff16815260200180602001828103825283818151815260200191508051906020019080838360005b83811015610f75578082015181840152602081019050610f5a565b50505050905090810190601f168015610fa25780820380516001836020036101000a031916815260200191505b5094505050505060405180910390a1600060603073ffffffffffffffffffffffffffffffffffffffff16888a6040516020018083805190602001908083835b602083106110045780518252602082019150602081019050602083039250610fe1565b6001836020036101000a0380198251168184511680821785525050505050509050018273ffffffffffffffffffffffffffffffffffffffff1673ffffffffffffffffffffffffffffffffffffffff1660601b8152601401925050506040516020818303038152906040526040518082805190602001908083835b602083106110a1578051825260208201915060208101905060208303925061107e565b6001836020036101000a0380198251168184511680821785525050505050509050019150506000604051808303816000865af19150503d8060008114611103576040519150601f19603f3d011682016040523d82523d6000602084013e611108565b606091505b509150915081611180576040517f08c379a000000000000000000000000000000000000000000000000000000000815260040180806020018281038252601c8152602001807f46756e6374696f6e2063616c6c206e6f74207375636365737366756c0000000081525060200191505060405180910390fd5b80935050505095945050505050565b600061119b848361240c565b83106111aa57600090506111af565b600190505b9392505050565b60008083156112a057600860009054906101000a900473ffffffffffffffffffffffffffffffffffffffff1673ffffffffffffffffffffffffffffffffffffffff166370a08231846040518263ffffffff1660e01b8152600401808273ffffffffffffffffffffffffffffffffffffffff1673ffffffffffffffffffffffffffffffffffffffff16815260200191505060206040518083038186803b15801561125e57600080fd5b505afa158015611272573d6000803e3d6000fd5b505050506040513d602081101561128857600080fd5b8101908080519060200190929190505050905061137d565b600960009054906101000a900473ffffffffffffffffffffffffffffffffffffffff1673ffffffffffffffffffffffffffffffffffffffff166370a08231846040518263ffffffff1660e01b8152600401808273ffffffffffffffffffffffffffffffffffffffff1673ffffffffffffffffffffffffffffffffffffffff16815260200191505060206040518083038186803b15801561133f57600080fd5b505afa158015611353573d6000803e3d6000fd5b505050506040513d602081101561136957600080fd5b810190808051906020019092919050505090505b61138884828561118f565b91505092915050565b6000600d600084815260200190815260200160002060120160009054906101000a900460ff16905060006113c4846129c0565b60000b1461143a576040517f08c379a00000000000000000000000000000000000000000000000000000000081526004018080602001828103825260118152602001807f54696d65206973206e6f742076616c696400000000000000000000000000000081525060200191505060405180910390fd5b611442615921565b6040518060200160405280611455613eca565b73ffffffffffffffffffffffffffffffffffffffff168152509050600d600085815260200190815260200160002060060160008460ff168152602001908152602001600020819080600181540180825580915050600190039060005260206000200160009091909190915060008201518160000160006101000a81548173ffffffffffffffffffffffffffffffffffffffff021916908373ffffffffffffffffffffffffffffffffffffffff1602179055505050600d6000858152602001908152602001600020601001611527613eca565b9080600181540180825580915050600190039060005260206000200160009091909190916101000a81548173ffffffffffffffffffffffffffffffffffffffff021916908373ffffffffffffffffffffffffffffffffffffffff1602179055506000600d600086815260200190815260200160002060110154905080600d60008781526020019081526020016000206004016000828254019250508190555080600a60008282540192505081905550821561191257600d600086815260200190815260200160002060110154600860009054906101000a900473ffffffffffffffffffffffffffffffffffffffff1673ffffffffffffffffffffffffffffffffffffffff1663dd62ed3e611639613eca565b306040518363ffffffff1660e01b8152600401808373ffffffffffffffffffffffffffffffffffffffff1673ffffffffffffffffffffffffffffffffffffffff1681526020018273ffffffffffffffffffffffffffffffffffffffff1673ffffffffffffffffffffffffffffffffffffffff1681526020019250505060206040518083038186803b1580156116cd57600080fd5b505afa1580156116e1573d6000803e3d6000fd5b505050506040513d60208110156116f757600080fd5b8101908080519060200190929190505050101561177c576040517f08c379a000000000000000000000000000000000000000000000000000000000815260040180806020018281038252601b8152602001807f446f206e6f7420656e6f75676874204d6174696320657468657273000000000081525060200191505060405180910390fd5b600860009054906101000a900473ffffffffffffffffffffffffffffffffffffffff1673ffffffffffffffffffffffffffffffffffffffff166323b872dd6117c2613eca565b30846040518463ffffffff1660e01b8152600401808473ffffffffffffffffffffffffffffffffffffffff1673ffffffffffffffffffffffffffffffffffffffff1681526020018373ffffffffffffffffffffffffffffffffffffffff1673ffffffffffffffffffffffffffffffffffffffff1681526020018281526020019350505050602060405180830381600087803b15801561186057600080fd5b505af1158015611874573d6000803e3d6000fd5b505050506040513d602081101561188a57600080fd5b810190808051906020019092919050505061190d576040517f08c379a000000000000000000000000000000000000000000000000000000000815260040180806020018281038252601b8152602001807f5472616e73666572204d6174696320657468657273206572726f72000000000081525060200191505060405180910390fd5b611c44565b600d600086815260200190815260200160002060110154600960009054906101000a900473ffffffffffffffffffffffffffffffffffffffff1673ffffffffffffffffffffffffffffffffffffffff1663dd62ed3e61196f613eca565b306040518363ffffffff1660e01b8152600401808373ffffffffffffffffffffffffffffffffffffffff1673ffffffffffffffffffffffffffffffffffffffff1681526020018273ffffffffffffffffffffffffffffffffffffffff1673ffffffffffffffffffffffffffffffffffffffff1681526020019250505060206040518083038186803b158015611a0357600080fd5b505afa158015611a17573d6000803e3d6000fd5b505050506040513d6020811015611a2d57600080fd5b81019080805190602001909291905050501015611ab2576040517f08c379a000000000000000000000000000000000000000000000000000000000815260040180806020018281038252601d8152602001807f446f206e6f7420656e6f75676874204265747465727920746f6b656e7300000081525060200191505060405180910390fd5b600960009054906101000a900473ffffffffffffffffffffffffffffffffffffffff1673ffffffffffffffffffffffffffffffffffffffff166323b872dd611af8613eca565b30846040518463ffffffff1660e01b8152600401808473ffffffffffffffffffffffffffffffffffffffff1673ffffffffffffffffffffffffffffffffffffffff1681526020018373ffffffffffffffffffffffffffffffffffffffff1673ffffffffffffffffffffffffffffffffffffffff1681526020018281526020019350505050602060405180830381600087803b158015611b9657600080fd5b505af1158015611baa573d6000803e3d6000fd5b505050506040513d6020811015611bc057600080fd5b8101908080519060200190929190505050611c43576040517f08c379a000000000000000000000000000000000000000000000000000000000815260040180806020018281038252601d8152602001807f5472616e73666572204265747465727920746f6b656e73206572726f7200000081525060200191505060405180910390fd5b5b7fbd233f7452553afaed4cd245a2d8d64cf39150c8cd35dcc8da09884d5bd45f9a600d60008781526020019081526020016000206011015484611c85613eca565b886040518080602001868152602001851515151581526020018473ffffffffffffffffffffffffffffffffffffffff1673ffffffffffffffffffffffffffffffffffffffff16815260200180602001848152602001838103835260048152602001807f73656e64000000000000000000000000000000000000000000000000000000008152506020018381038252600b8152602001807f7061727469636970616e74000000000000000000000000000000000000000000815250602001965050505050505060405180910390a15050505050565b60045481565b6000600160008373ffffffffffffffffffffffffffffffffffffffff1673ffffffffffffffffffffffffffffffffffffffff168152602001908152602001600020549050919050565b60055481565b6000600860009054906101000a900473ffffffffffffffffffffffffffffffffffffffff1673ffffffffffffffffffffffffffffffffffffffff166370a08231306040518263ffffffff1660e01b8152600401808273ffffffffffffffffffffffffffffffffffffffff1673ffffffffffffffffffffffffffffffffffffffff16815260200191505060206040518083038186803b158015611e4f57600080fd5b505afa158015611e63573d6000803e3d6000fd5b505050506040513d6020811015611e7957600080fd5b8101908080519060200190929190505050905090565b60006001600660008473ffffffffffffffffffffffffffffffffffffffff1673ffffffffffffffffffffffffffffffffffffffff1681526020019081526020016000206000015410611fc75760008090506000600190505b600660008573ffffffffffffffffffffffffffffffffffffffff1673ffffffffffffffffffffffffffffffffffffffff168152602001908152602001600020600001548160ff1611611fbd576000600660008673ffffffffffffffffffffffffffffffffffffffff1673ffffffffffffffffffffffffffffffffffffffff16815260200190815260200160002060010160008360ff16815260200190815260200160002060020160009054906101000a900460ff169050611fab8260ff1682613f7f565b83019250508080600101915050611ee7565b5080915050611fcc565b600090505b919050565b600080600d6000848152602001908152602001600020600201544203126120f357600042600b54600d6000868152602001908152602001600020600201540103126120ea5760008090505b600d6000848152602001908152602001600020601001805490508160ff1610156120e057612048613eca565b73ffffffffffffffffffffffffffffffffffffffff16600d60008581526020019081526020016000206010018260ff168154811061208257fe5b9060005260206000200160009054906101000a900473ffffffffffffffffffffffffffffffffffffffff1673ffffffffffffffffffffffffffffffffffffffff1614156120d35760039150506120f8565b808060010191505061201c565b50600090506120f8565b600290506120f8565b600190505b919050565b600061210883611fd1565b60000b1461217e576040517f08c379a00000000000000000000000000000000000000000000000000000000081526004018080602001828103825260118152602001807f54696d65206973206e6f742076616c696400000000000000000000000000000081525060200191505060405180910390fd5b61218661594a565b6040518060200160405280612199613eca565b73ffffffffffffffffffffffffffffffffffffffff168152509050600d600084815260200190815260200160002060070160008360ff168152602001908152602001600020819080600181540180825580915050600190039060005260206000200160009091909190915060008201518160000160006101000a81548173ffffffffffffffffffffffffffffffffffffffff021916908373ffffffffffffffffffffffffffffffffffffffff160217905550505060006001600d600086815260200190815260200160002060090154019050600d6000858152602001908152602001600020600801548114156122b25780600d6000868152602001908152602001600020600901819055506122ad84614041565b6122ce565b80600d6000868152602001908152602001600020600901819055505b50505050565b80600790805190602001906122ea929190615973565b5050565b600c60009054906101000a900473ffffffffffffffffffffffffffffffffffffffff1681565b6000806000806000806000600d6000898152602001908152602001600020600b0154600d60008a8152602001908152602001600020600d0154600d60008b815260200190815260200160002060040154600d60008c8152602001908152602001600020600e0154600d60008d815260200190815260200160002060120160019054906101000a900460ff16600d60008e8152602001908152602001600020600f0154600d60008f8152602001908152602001600020600c01549650965096509650965096509650919395979092949650565b600960009054906101000a900473ffffffffffffffffffffffffffffffffffffffff1681565b600061245d6001600660008573ffffffffffffffffffffffffffffffffffffffff1673ffffffffffffffffffffffffffffffffffffffff168152602001908152602001600020600001540184613f7f565b905092915050565b600080600080600360009054906101000a900473ffffffffffffffffffffffffffffffffffffffff1673ffffffffffffffffffffffffffffffffffffffff163373ffffffffffffffffffffffffffffffffffffffff1614612511576040517f08c379a0000000000000000000000000000000000000000000000000000000008152600401808060200182810382526024815260200180615bf86024913960400191505060405180910390fd5b6000600660008773ffffffffffffffffffffffffffffffffffffffff1673ffffffffffffffffffffffffffffffffffffffff16815260200190815260200160002060000154116125c9576040517f08c379a000000000000000000000000000000000000000000000000000000000815260040180806020018281038252601c8152602001807f446f206e6f74206861766520636f696e73206f6e206163636f756e740000000081525060200191505060405180910390fd5b6000600660008773ffffffffffffffffffffffffffffffffffffffff1673ffffffffffffffffffffffffffffffffffffffff1681526020019081526020016000206000015490506000600660008873ffffffffffffffffffffffffffffffffffffffff1673ffffffffffffffffffffffffffffffffffffffff168152602001908152602001600020600101600083815260200190815260200160002060000160009054906101000a900473ffffffffffffffffffffffffffffffffffffffff1690508673ffffffffffffffffffffffffffffffffffffffff168173ffffffffffffffffffffffffffffffffffffffff161461272c576040517f08c379a00000000000000000000000000000000000000000000000000000000081526004018080602001828103825260138152602001807f416464726573736573206e6f7420657175616c0000000000000000000000000081525060200191505060405180910390fd5b6000600660008973ffffffffffffffffffffffffffffffffffffffff1673ffffffffffffffffffffffffffffffffffffffff1681526020019081526020016000206001016000848152602001908152602001600020600101549050600660008373ffffffffffffffffffffffffffffffffffffffff1673ffffffffffffffffffffffffffffffffffffffff16815260200190815260200160002060000160008154809291906001900391905055506000600660008a73ffffffffffffffffffffffffffffffffffffffff1673ffffffffffffffffffffffffffffffffffffffff168152602001908152602001600020600101600085815260200190815260200160002060020160009054906101000a900460ff1690506000600660008b73ffffffffffffffffffffffffffffffffffffffff1673ffffffffffffffffffffffffffffffffffffffff1681526020019081526020016000206001016000868152602001908152602001600020600301549050600660008b73ffffffffffffffffffffffffffffffffffffffff1673ffffffffffffffffffffffffffffffffffffffff1681526020019081526020016000206001016000868152602001908152602001600020600080820160006101000a81549073ffffffffffffffffffffffffffffffffffffffff021916905560018201600090556002820160006101000a81549060ff02191690556003820160009055505081156129a4578373ffffffffffffffffffffffffffffffffffffffff166108fc849081150290604051600060405180830381858888f1935050505015801561298a573d6000803e3d6000fd5b5082848383829250985098509850985050505050506129b9565b82848383829250985098509850985050505050505b9193509193565b600080600d600084815260200190815260200160002060010154420312612a1357600042600d6000858152602001908152602001600020600201540312612a0a5760009050612a18565b60029050612a18565b600190505b919050565b600360009054906101000a900473ffffffffffffffffffffffffffffffffffffffff1673ffffffffffffffffffffffffffffffffffffffff163373ffffffffffffffffffffffffffffffffffffffff1614612ae0576040517f08c379a000000000000000000000000000000000000000000000000000000000815260040180806020018281038252601b8152602001807f6f6e6c79206f776e65722063616e206368616e6765207072696365000000000081525060200191505060405180910390fd5b670de0b6b3a76400008281612af157fe5b04600481905550670de0b6b3a76400008181612b0957fe5b046005819055505050565b6000612b1e613eca565b73ffffffffffffffffffffffffffffffffffffffff16600d6000848152602001908152602001600020600a0160009054906101000a900473ffffffffffffffffffffffffffffffffffffffff1673ffffffffffffffffffffffffffffffffffffffff161415612bb8576000600d6000848152602001908152602001600020600401541415612baf5760009050612bbd565b60019050612bbd565b600290505b919050565b60006007805490501415612bd557612beb565b612bea6007600060016007805490500361410f565b5b565b600360009054906101000a900473ffffffffffffffffffffffffffffffffffffffff1681565b89600d60008c81526020019081526020016000206000018190555087600d60008c81526020019081526020016000206002018190555084600d60008c815260200190815260200160002060030160006101000a81548160ff021916908360ff16021790555088600d60008c81526020019081526020016000206001018190555083600d60008c815260200190815260200160002060080181905550612cb6613eca565b600d60008c8152602001908152602001600020600a0160006101000a81548173ffffffffffffffffffffffffffffffffffffffff021916908373ffffffffffffffffffffffffffffffffffffffff16021790555082600d60008c81526020019081526020016000206011018190555080600d60008c815260200190815260200160002060120160006101000a81548160ff02191690831515021790555060008760ff161415612d94576003600d60008c815260200190815260200160002060050160006101000a81548160ff021916908360ff160217905550612dc4565b86600d60008c815260200190815260200160002060050160006101000a81548160ff021916908360ff1602179055505b60008660ff161415612e05576005600d60008c815260200190815260200160002060050160016101000a81548160ff021916908360ff160217905550612e35565b85600d60008c815260200190815260200160002060050160016101000a81548160ff021916908360ff1602179055505b6000612e49838c612e44613eca565b61378d565b905082156131715780600860009054906101000a900473ffffffffffffffffffffffffffffffffffffffff1673ffffffffffffffffffffffffffffffffffffffff1663dd62ed3e612e98613eca565b306040518363ffffffff1660e01b8152600401808373ffffffffffffffffffffffffffffffffffffffff1673ffffffffffffffffffffffffffffffffffffffff1681526020018273ffffffffffffffffffffffffffffffffffffffff1673ffffffffffffffffffffffffffffffffffffffff1681526020019250505060206040518083038186803b158015612f2c57600080fd5b505afa158015612f40573d6000803e3d6000fd5b505050506040513d6020811015612f5657600080fd5b81019080805190602001909291905050501015612fdb576040517f08c379a000000000000000000000000000000000000000000000000000000000815260040180806020018281038252601b8152602001807f446f206e6f7420656e6f75676874204d6174696320657468657273000000000081525060200191505060405180910390fd5b600860009054906101000a900473ffffffffffffffffffffffffffffffffffffffff1673ffffffffffffffffffffffffffffffffffffffff166323b872dd613021613eca565b30846040518463ffffffff1660e01b8152600401808473ffffffffffffffffffffffffffffffffffffffff1673ffffffffffffffffffffffffffffffffffffffff1681526020018373ffffffffffffffffffffffffffffffffffffffff1673ffffffffffffffffffffffffffffffffffffffff1681526020018281526020019350505050602060405180830381600087803b1580156130bf57600080fd5b505af11580156130d3573d6000803e3d6000fd5b505050506040513d60208110156130e957600080fd5b810190808051906020019092919050505061316c576040517f08c379a000000000000000000000000000000000000000000000000000000000815260040180806020018281038252601b8152602001807f5472616e73666572204d6174696320657468657273206572726f72000000000081525060200191505060405180910390fd5b61348d565b80600960009054906101000a900473ffffffffffffffffffffffffffffffffffffffff1673ffffffffffffffffffffffffffffffffffffffff1663dd62ed3e6131b8613eca565b306040518363ffffffff1660e01b8152600401808373ffffffffffffffffffffffffffffffffffffffff1673ffffffffffffffffffffffffffffffffffffffff1681526020018273ffffffffffffffffffffffffffffffffffffffff1673ffffffffffffffffffffffffffffffffffffffff1681526020019250505060206040518083038186803b15801561324c57600080fd5b505afa158015613260573d6000803e3d6000fd5b505050506040513d602081101561327657600080fd5b810190808051906020019092919050505010156132fb576040517f08c379a000000000000000000000000000000000000000000000000000000000815260040180806020018281038252601d8152602001807f446f206e6f7420656e6f75676874204265747465727920746f6b656e7300000081525060200191505060405180910390fd5b600960009054906101000a900473ffffffffffffffffffffffffffffffffffffffff1673ffffffffffffffffffffffffffffffffffffffff166323b872dd613341613eca565b30846040518463ffffffff1660e01b8152600401808473ffffffffffffffffffffffffffffffffffffffff1673ffffffffffffffffffffffffffffffffffffffff1681526020018373ffffffffffffffffffffffffffffffffffffffff1673ffffffffffffffffffffffffffffffffffffffff1681526020018281526020019350505050602060405180830381600087803b1580156133df57600080fd5b505af11580156133f3573d6000803e3d6000fd5b505050506040513d602081101561340957600080fd5b810190808051906020019092919050505061348c576040517f08c379a000000000000000000000000000000000000000000000000000000000815260040180806020018281038252601d8152602001807f5472616e73666572204265747465727920746f6b656e73206572726f7200000081525060200191505060405180910390fd5b5b7fbd233f7452553afaed4cd245a2d8d64cf39150c8cd35dcc8da09884d5bd45f9a81846134b8613eca565b8e6040518080602001868152602001851515151581526020018473ffffffffffffffffffffffffffffffffffffffff1673ffffffffffffffffffffffffffffffffffffffff16815260200180602001848152602001838103835260048152602001807f73656e64000000000000000000000000000000000000000000000000000000008152506020018381038252600a8152602001807f686f6c64206d6f6e657900000000000000000000000000000000000000000000815250602001965050505050505060405180910390a15050505050505050505050565b600061359d82612b14565b60000b14613613576040517f08c379a00000000000000000000000000000000000000000000000000000000081526004018080602001828103825260158152602001807f44656c657465206576656e742069732066616c7365000000000000000000000081525060200191505060405180910390fd5b600d6000828152602001908152602001600020600080820160009055600182016000905560028201600090556003820160006101000a81549060ff021916905560048201600090556005820160006101000a81549060ff02191690556005820160016101000a81549060ff021916905560088201600090556009820160009055600a820160006101000a81549073ffffffffffffffffffffffffffffffffffffffff0219169055600b820160009055600c820160009055600d820160009055600e820160009055600f8201600090556010820160006136f291906159c0565b60118201600090556012820160006101000a81549060ff02191690556012820160016101000a81549060ff0219169055505050565b600860009054906101000a900473ffffffffffffffffffffffffffffffffffffffff1681565b6007818154811061375a57fe5b906000526020600020016000915090505481565b60003073ffffffffffffffffffffffffffffffffffffffff1631905090565b60008061379a858461240c565b905060006001600660008673ffffffffffffffffffffffffffffffffffffffff1673ffffffffffffffffffffffffffffffffffffffff1681526020019081526020016000206000015401905083600660008673ffffffffffffffffffffffffffffffffffffffff1673ffffffffffffffffffffffffffffffffffffffff168152602001908152602001600020600101600083815260200190815260200160002060000160006101000a81548173ffffffffffffffffffffffffffffffffffffffff021916908373ffffffffffffffffffffffffffffffffffffffff16021790555081600660008673ffffffffffffffffffffffffffffffffffffffff1673ffffffffffffffffffffffffffffffffffffffff16815260200190815260200160002060010160008381526020019081526020016000206001018190555085600660008673ffffffffffffffffffffffffffffffffffffffff1673ffffffffffffffffffffffffffffffffffffffff168152602001908152602001600020600101600083815260200190815260200160002060020160006101000a81548160ff02191690831515021790555084600660008673ffffffffffffffffffffffffffffffffffffffff1673ffffffffffffffffffffffffffffffffffffffff168152602001908152602001600020600101600083815260200190815260200160002060030181905550600660008573ffffffffffffffffffffffffffffffffffffffff1673ffffffffffffffffffffffffffffffffffffffff1681526020019081526020016000206000016000815480929190600101919050555081925050509392505050565b600a5481565b600080600080613a1285612465565b93509350935093508115613b5e57600860009054906101000a900473ffffffffffffffffffffffffffffffffffffffff1673ffffffffffffffffffffffffffffffffffffffff1663a9059cbb84866040518363ffffffff1660e01b8152600401808373ffffffffffffffffffffffffffffffffffffffff1673ffffffffffffffffffffffffffffffffffffffff16815260200182815260200192505050602060405180830381600087803b158015613ac957600080fd5b505af1158015613add573d6000803e3d6000fd5b505050506040513d6020811015613af357600080fd5b8101908080519060200190929190505050613b59576040517f08c379a0000000000000000000000000000000000000000000000000000000008152600401808060200182810382526031815260200180615af46031913960400191505060405180910390fd5b613c98565b600960009054906101000a900473ffffffffffffffffffffffffffffffffffffffff1673ffffffffffffffffffffffffffffffffffffffff1663a9059cbb84866040518363ffffffff1660e01b8152600401808373ffffffffffffffffffffffffffffffffffffffff1673ffffffffffffffffffffffffffffffffffffffff16815260200182815260200192505050602060405180830381600087803b158015613c0757600080fd5b505af1158015613c1b573d6000803e3d6000fd5b505050506040513d6020811015613c3157600080fd5b8101908080519060200190929190505050613c97576040517f08c379a0000000000000000000000000000000000000000000000000000000008152600401808060200182810382526033815260200180615b516033913960400191505060405180910390fd5b5b7fbd233f7452553afaed4cd245a2d8d64cf39150c8cd35dcc8da09884d5bd45f9a848385846040518080602001868152602001851515151581526020018473ffffffffffffffffffffffffffffffffffffffff1673ffffffffffffffffffffffffffffffffffffffff16815260200180602001848152602001838103835260078152602001807f72656365697665000000000000000000000000000000000000000000000000008152506020018381038252600a8152602001807f686f6c64206d6f6e657900000000000000000000000000000000000000000000815250602001965050505050505060405180910390a15050505050565b60006001613da5613da08761425b565b614301565b83868660405160008152602001604052604051808581526020018460ff1660ff1681526020018381526020018281526020019450505050506020604051602081039080840390855afa158015613dff573d6000803e3d6000fd5b5050506020604051035173ffffffffffffffffffffffffffffffffffffffff168673ffffffffffffffffffffffffffffffffffffffff1614905095945050505050565b600080828401905083811015613ec0576040517f08c379a000000000000000000000000000000000000000000000000000000000815260040180806020018281038252601b8152602001807f536166654d6174683a206164646974696f6e206f766572666c6f77000000000081525060200191505060405180910390fd5b8091505092915050565b60003073ffffffffffffffffffffffffffffffffffffffff163373ffffffffffffffffffffffffffffffffffffffff161415613f755760606000368080601f016020809104026020016040519081016040528093929190818152602001838380828437600081840152601f19601f820116905080830192505050505050509050600080369050905073ffffffffffffffffffffffffffffffffffffffff818301511692505050613f79565b3390505b80905090565b60008060025490506001841415613fce578215613fad5760646004548281613fa357fe5b040291505061403b565b600260646005548381613fbc57fe5b040281613fc557fe5b0491505061403b565b60028410614039576000600190505b848160ff161015613ffa5781820191508080600101915050613fdd565b508215614018576064600454828161400e57fe5b040291505061403b565b60026064600554838161402757fe5b04028161403057fe5b0491505061403b565b505b92915050565b6000809050600080600d600085815260200190815260200160002060030160009054906101000a900460ff16905060008090505b8160ff168160ff1610156140fc5783600d600087815260200190815260200160002060070160008360ff1681526020019081526020016000208054905011156140ef57600d600086815260200190815260200160002060070160008260ff1681526020019081526020016000208054905093508060ff1692505b8080600101915050614075565b5061410982848684614368565b50505050565b6000829050600082905060008560028686038161412857fe5b0486018154811061413557fe5b906000526020600020015490505b81831161422b575b8086848154811061415857fe5b9060005260206000200154101561417657828060010193505061414b565b5b85828154811061418357fe5b90600052602060002001548110156141a357818060019003925050614177565b818311614226578582815481106141b657fe5b90600052602060002001548684815481106141cd57fe5b90600052602060002001548785815481106141e457fe5b9060005260206000200160008986815481106141fc57fe5b90600052602060002001600084919050558391905055505082806001019350508180600190039250505b614143565b8185101561423f5761423e86868461410f565b5b838310156142535761425286848661410f565b5b505050505050565b6000604051806080016040528060438152602001615a34604391398051906020012082600001518360200151846040015180519060200120604051602001808581526020018481526020018373ffffffffffffffffffffffffffffffffffffffff1673ffffffffffffffffffffffffffffffffffffffff168152602001828152602001945050505050604051602081830303815290604052805190602001209050919050565b600061430b614525565b8260405160200180807f190100000000000000000000000000000000000000000000000000000000000081525060020183815260200182815260200192505050604051602081830303815290604052805190602001209050919050565b600080905060608260ff1667ffffffffffffffff8111801561438957600080fd5b506040519080825280602002602001820160405280156143b85781602001602082028036833780820191505090505b50905060008090505b8360ff168160ff16101561442557600d600086815260200190815260200160002060070160008260ff16815260200190815260200160002080549050828260ff168151811061440c57fe5b60200260200101818152505080806001019150506143c1565b5061442f816122d4565b614437612bc2565b60008090505b6001600780549050038160ff1610156144dc576007805490506001820160ff1610156144cf5760078160ff168154811061447357fe5b906000526020600020015460076001830160ff168154811061449157fe5b906000526020600020015414156144ce5760078160ff16815481106144b257fe5b90600052602060002001548614156144cd5782806001019350505b5b5b808060010191505061443d565b5060008260ff1611156144f7576144f28461452e565b61451d565b85600d6000868152602001908152602001600020600f018190555061451c868561495c565b5b505050505050565b60008054905090565b6000600d600083815260200190815260200160002060120160009054906101000a900460ff1690506000600d60008481526020019081526020016000206011015490506000600d600085815260200190815260200160002060030160009054906101000a900460ff1660ff16905060008090505b818160ff1612156148ef5760008090505b600d600087815260200190815260200160002060060160008360ff168152602001908152602001600020805490508160ff1610156148e1576000600d600088815260200190815260200160002060060160008460ff1681526020019081526020016000208260ff168154811061462557fe5b9060005260206000200160000160009054906101000a900473ffffffffffffffffffffffffffffffffffffffff169050851561479957600860009054906101000a900473ffffffffffffffffffffffffffffffffffffffff1673ffffffffffffffffffffffffffffffffffffffff1663a9059cbb82876040518363ffffffff1660e01b8152600401808373ffffffffffffffffffffffffffffffffffffffff1673ffffffffffffffffffffffffffffffffffffffff16815260200182815260200192505050602060405180830381600087803b15801561470457600080fd5b505af1158015614718573d6000803e3d6000fd5b505050506040513d602081101561472e57600080fd5b8101908080519060200190929190505050614794576040517f08c379a0000000000000000000000000000000000000000000000000000000008152600401808060200182810382526023815260200180615c436023913960400191505060405180910390fd5b6148d3565b600960009054906101000a900473ffffffffffffffffffffffffffffffffffffffff1673ffffffffffffffffffffffffffffffffffffffff1663a9059cbb82876040518363ffffffff1660e01b8152600401808373ffffffffffffffffffffffffffffffffffffffff1673ffffffffffffffffffffffffffffffffffffffff16815260200182815260200192505050602060405180830381600087803b15801561484257600080fd5b505af1158015614856573d6000803e3d6000fd5b505050506040513d602081101561486c57600080fd5b81019080805190602001909291905050506148d2576040517f08c379a0000000000000000000000000000000000000000000000000000000008152600401808060200182810382526025815260200180615c666025913960400191505060405180910390fd5b5b5080806001019150506145b3565b5080806001019150506145a2565b506001600d600086815260200190815260200160002060120160016101000a81548160ff0219169083151502179055507fd1e2a93de73d2833bf993f270a45e97a74d8b22dfd59e37f57093127b96008c0846040518082815260200191505060405180910390a150505050565b6000600d600083815260200190815260200160002060120160009054906101000a900460ff1690506000600d6000848152602001908152602001600020600401541115614d015760006149d7600d600085815260200190815260200160002060040154600960149054906101000a900460ff1660ff16614d06565b905080600d60008581526020019081526020016000206004015403600d60008581526020019081526020016000206004018190555080600a5403600a819055508115614b7d57600860009054906101000a900473ffffffffffffffffffffffffffffffffffffffff1673ffffffffffffffffffffffffffffffffffffffff1663a9059cbb600c60009054906101000a900473ffffffffffffffffffffffffffffffffffffffff16836040518363ffffffff1660e01b8152600401808373ffffffffffffffffffffffffffffffffffffffff1673ffffffffffffffffffffffffffffffffffffffff16815260200182815260200192505050602060405180830381600087803b158015614ae857600080fd5b505af1158015614afc573d6000803e3d6000fd5b505050506040513d6020811015614b1257600080fd5b8101908080519060200190929190505050614b78576040517f08c379a0000000000000000000000000000000000000000000000000000000008152600401808060200182810382526028815260200180615a776028913960400191505060405180910390fd5b614cd9565b600960009054906101000a900473ffffffffffffffffffffffffffffffffffffffff1673ffffffffffffffffffffffffffffffffffffffff1663a9059cbb600c60009054906101000a900473ffffffffffffffffffffffffffffffffffffffff16836040518363ffffffff1660e01b8152600401808373ffffffffffffffffffffffffffffffffffffffff1673ffffffffffffffffffffffffffffffffffffffff16815260200182815260200192505050602060405180830381600087803b158015614c4857600080fd5b505af1158015614c5c573d6000803e3d6000fd5b505050506040513d6020811015614c7257600080fd5b8101908080519060200190929190505050614cd8576040517f08c379a000000000000000000000000000000000000000000000000000000000815260040180806020018281038252602a815260200180615aca602a913960400191505060405180910390fd5b5b80600d6000858152602001908152602001600020600b0181905550614cff848484614d1d565b505b505050565b6000606483830281614d1457fe5b04905092915050565b6000614d65600d600085815260200190815260200160002060040154600d600086815260200190815260200160002060050160009054906101000a900460ff1660ff16614d06565b905080600d60008581526020019081526020016000206004015403600d60008581526020019081526020016000206004018190555080600a5403600a819055506000600d6000858152602001908152602001600020600a0160009054906101000a900473ffffffffffffffffffffffffffffffffffffffff1690508215614f2457600860009054906101000a900473ffffffffffffffffffffffffffffffffffffffff1673ffffffffffffffffffffffffffffffffffffffff1663a9059cbb82846040518363ffffffff1660e01b8152600401808373ffffffffffffffffffffffffffffffffffffffff1673ffffffffffffffffffffffffffffffffffffffff16815260200182815260200192505050602060405180830381600087803b158015614e8f57600080fd5b505af1158015614ea3573d6000803e3d6000fd5b505050506040513d6020811015614eb957600080fd5b8101908080519060200190929190505050614f1f576040517f08c379a0000000000000000000000000000000000000000000000000000000008152600401808060200182810382526025815260200180615bd36025913960400191505060405180910390fd5b61505e565b600960009054906101000a900473ffffffffffffffffffffffffffffffffffffffff1673ffffffffffffffffffffffffffffffffffffffff1663a9059cbb82846040518363ffffffff1660e01b8152600401808373ffffffffffffffffffffffffffffffffffffffff1673ffffffffffffffffffffffffffffffffffffffff16815260200182815260200192505050602060405180830381600087803b158015614fcd57600080fd5b505af1158015614fe1573d6000803e3d6000fd5b505050506040513d6020811015614ff757600080fd5b810190808051906020019092919050505061505d576040517f08c379a0000000000000000000000000000000000000000000000000000000008152600401808060200182810382526027815260200180615c1c6027913960400191505060405180910390fd5b5b81600d6000868152602001908152602001600020600c018190555061508485858561508b565b5050505050565b60006150d3600d600085815260200190815260200160002060040154600d600086815260200190815260200160002060050160019054906101000a900460ff1660ff16614d06565b90506000600d6000858152602001908152602001600020600701600086815260200190815260200160002080549050828161510a57fe5b04905081600a5403600a8190555080600d6000868152602001908152602001600020600d018190555060008090505b600d60008681526020019081526020016000206007016000878152602001908152602001600020805490508160ff161015615494576000600d600087815260200190815260200160002060070160008881526020019081526020016000208260ff16815481106151a557fe5b9060005260206000200160000160009054906101000a900473ffffffffffffffffffffffffffffffffffffffff16905082600d60008881526020019081526020016000206004015403600d600088815260200190815260200160002060040181905550841561534c57600860009054906101000a900473ffffffffffffffffffffffffffffffffffffffff1673ffffffffffffffffffffffffffffffffffffffff1663a9059cbb82856040518363ffffffff1660e01b8152600401808373ffffffffffffffffffffffffffffffffffffffff1673ffffffffffffffffffffffffffffffffffffffff16815260200182815260200192505050602060405180830381600087803b1580156152b757600080fd5b505af11580156152cb573d6000803e3d6000fd5b505050506040513d60208110156152e157600080fd5b8101908080519060200190929190505050615347576040517f08c379a000000000000000000000000000000000000000000000000000000000815260040180806020018281038252602b815260200180615a9f602b913960400191505060405180910390fd5b615486565b600960009054906101000a900473ffffffffffffffffffffffffffffffffffffffff1673ffffffffffffffffffffffffffffffffffffffff1663a9059cbb82856040518363ffffffff1660e01b8152600401808373ffffffffffffffffffffffffffffffffffffffff1673ffffffffffffffffffffffffffffffffffffffff16815260200182815260200192505050602060405180830381600087803b1580156153f557600080fd5b505af1158015615409573d6000803e3d6000fd5b505050506040513d602081101561541f57600080fd5b8101908080519060200190929190505050615485576040517f08c379a000000000000000000000000000000000000000000000000000000000815260040180806020018281038252602d815260200180615a07602d913960400191505060405180910390fd5b5b508080600101915050615139565b506154a08585856154a7565b5050505050565b6000600d6000848152602001908152602001600020600601600085815260200190815260200160002080549050600d600085815260200190815260200160002060040154816154f257fe5b04905060008090505b600d60008581526020019081526020016000206006016000868152602001908152602001600020805490508160ff161015615856576000600d600086815260200190815260200160002060060160008781526020019081526020016000208260ff168154811061556757fe5b9060005260206000200160000160009054906101000a900473ffffffffffffffffffffffffffffffffffffffff16905082600d60008781526020019081526020016000206004015403600d600087815260200190815260200160002060040181905550831561570e57600860009054906101000a900473ffffffffffffffffffffffffffffffffffffffff1673ffffffffffffffffffffffffffffffffffffffff1663a9059cbb82856040518363ffffffff1660e01b8152600401808373ffffffffffffffffffffffffffffffffffffffff1673ffffffffffffffffffffffffffffffffffffffff16815260200182815260200192505050602060405180830381600087803b15801561567957600080fd5b505af115801561568d573d6000803e3d6000fd5b505050506040513d60208110156156a357600080fd5b8101908080519060200190929190505050615709576040517f08c379a000000000000000000000000000000000000000000000000000000000815260040180806020018281038252602c815260200180615b25602c913960400191505060405180910390fd5b615848565b600960009054906101000a900473ffffffffffffffffffffffffffffffffffffffff1673ffffffffffffffffffffffffffffffffffffffff1663a9059cbb82856040518363ffffffff1660e01b8152600401808373ffffffffffffffffffffffffffffffffffffffff1673ffffffffffffffffffffffffffffffffffffffff16815260200182815260200192505050602060405180830381600087803b1580156157b757600080fd5b505af11580156157cb573d6000803e3d6000fd5b505050506040513d60208110156157e157600080fd5b8101908080519060200190929190505050615847576040517f08c379a000000000000000000000000000000000000000000000000000000000815260040180806020018281038252602e815260200180615b84602e913960400191505060405180910390fd5b5b5080806001019150506154fb565b5080600d6000858152602001908152602001600020600e01819055506000600d600085815260200190815260200160002060120160016101000a81548160ff0219169083151502179055507fd320079e0e35887df7aac9ad79d3da039625f35f0771dc81bb90e367302328ac838360405180838152602001821515151581526020019250505060405180910390a150505050565b604051806060016040528060008152602001600073ffffffffffffffffffffffffffffffffffffffff168152602001606081525090565b6040518060200160405280600073ffffffffffffffffffffffffffffffffffffffff1681525090565b6040518060200160405280600073ffffffffffffffffffffffffffffffffffffffff1681525090565b8280548282559060005260206000209081019282156159af579160200282015b828111156159ae578251825591602001919060010190615993565b5b5090506159bc91906159e1565b5090565b50805460008255906000526020600020908101906159de91906159e1565b50565b615a0391905b808211156159ff5760008160009055506001016159e7565b5090565b9056fe5472616e73666572204265747465727920746f6b656e20746f2076616c696461746f7273206973206572726f724d6574615472616e73616374696f6e2875696e74323536206e6f6e63652c616464726573732066726f6d2c62797465732066756e6374696f6e5369676e6174757265295472616e73666572204d6174696320457468657220746f20636f6d70616e79206973206572726f725472616e73666572204d6174696320457468657220746f2076616c696461746f7273206973206572726f725472616e73666572204265747465727920746f6b656e20746f20636f6d70616e79206973206572726f725472616e73666572204d6174696320657468657220666f72206d6f6e657920726574656e74696f6e206973206572726f725472616e73666572204d6174696320457468657220746f207061727469636970616e74206973206572726f725472616e73666572204265747465727920746f6b656e20666f72206d6f6e657920726574656e74696f6e206973206572726f725472616e73666572204265747465727920746f6b656e20746f207061727469636970616e74206973206572726f725369676e657220616e64207369676e617475726520646f206e6f74206d617463685472616e73666572204d6174696320457468657220746f20686f7374206973206572726f724f6e6c79206f776e65722063616e206578656375746520746869732066756e6374696f6e5472616e73666572204265747465727920746f6b656e20746f20686f7374206973206572726f72526576657274204d6174696320657468657220746f20686f7374206973206572726f72526576657274204265747465727920746f6b656e20746f20686f7374206973206572726f72a2646970667358221220296fd58dde150d7d2a05a4c1f2e2cd160006a29aeb3ac81e2084730dcae0052564736f6c63430006060033454950373132446f6d61696e28737472696e67206e616d652c737472696e672076657273696f6e2c75696e7432353620636861696e49642c6164647265737320766572696679696e67436f6e747261637429",
  "immutableReferences": {},
  "source": "pragma solidity ^0.6.6;\n\nimport \"./HoldMoney.sol\";\nimport \"./Sorter.sol\";\nimport { MaticWETH } from \"./child/MaticWETH.sol\";\nimport { BetteryToken } from \"./BetteryToken.sol\";\n\ncontract Quize is HoldMoney, Sorter {\n    MaticWETH public maticToken;\n    BetteryToken public betteryToken;\n\n    uint8 private percentQuiz = 2;\n    uint256 public fullAmount;\n    uint256 private sevenDaysTimeStamp = 604800;\n    address payable public companyAddress;\n\n    event eventIsFinish(int256 question_id, bool payEther);\n    event payEvent(string path, uint256 money, bool payEther, address wallet, string from, int256 question_id);\n    event revertedEvent(int256 question_id);\n\n    struct Participant {\n        address payable participants;\n    }\n\n    struct Validator {\n        address payable validators;\n    }\n\n    struct Question {\n        int256 question_id;\n        uint256 startTime;\n        uint256 endTime;\n        uint8 questionQuantity;\n        uint256 money;\n        uint8 percentHost;\n        uint8 percentValidator;\n        mapping(uint256 => Participant[]) participant;\n        mapping(uint256 => Validator[]) validator;\n        int256 validatorsAmount;\n        int256 activeValidators;\n        address payable hostWallet;\n        uint256 persentFeeCompany;\n        uint256 persentFeeHost;\n        uint256 persentForEachValidators;\n        uint256 moneyForParticipant;\n        uint256 correctAnswer;\n        address[] allParticipant;\n        uint256 quizePrice;\n        bool payEther;\n        bool reverted;\n    }\n\n    mapping(int256 => Question) questions;\n\n    constructor(MaticWETH _maticToken, BetteryToken _betteryToken) public {\n        maticToken = _maticToken;\n        betteryToken = _betteryToken;\n        companyAddress = msg.sender;\n    }\n\n    function startQestion(\n        int256 _question_id,\n        uint256 _startTime,\n        uint256 _endTime,\n        uint8 _percentHost,\n        uint8 _percentValidator,\n        uint8 _questionQuantity,\n        int256 _validatorsAmount,\n        uint256 _quizePrice,\n        bool _pathHoldMoney,\n        bool _payEther\n    ) public payable {\n        questions[_question_id].question_id = _question_id;\n        questions[_question_id].endTime = _endTime;\n        questions[_question_id].questionQuantity = _questionQuantity;\n        questions[_question_id].startTime = _startTime;\n        questions[_question_id].validatorsAmount = _validatorsAmount;\n        questions[_question_id].hostWallet = _msgSender();\n        questions[_question_id].quizePrice = _quizePrice;\n        questions[_question_id].payEther = _payEther;\n\n        if (_percentHost == 0) {\n            questions[_question_id].percentHost = 3;\n        } else {\n            questions[_question_id].percentHost = _percentHost;\n        }\n\n        if (_percentValidator == 0) {\n            questions[_question_id].percentValidator = 5;\n        } else {\n            questions[_question_id].percentValidator = _percentValidator;\n        }\n\n        uint256 amount = _setMoneyRetention(_pathHoldMoney, _question_id, _msgSender());\n        if(_pathHoldMoney){\n            require(maticToken.allowance(_msgSender(), address(this)) >= amount, \"Do not enought Matic ethers\");\n            require(maticToken.transferFrom(_msgSender(), address(this), amount), \"Transfer Matic ethers error\");\n        }else{\n            require(betteryToken.allowance(_msgSender(), address(this)) >= amount, \"Do not enought Bettery tokens\");\n            require(betteryToken.transferFrom(_msgSender(), address(this), amount), \"Transfer Bettery tokens error\");\n        }\n        emit payEvent(\"send\", amount, _pathHoldMoney, _msgSender(), \"hold money\", _question_id);\n    }\n\n    function setAnswer(int256 _question_id, uint8 _whichAnswer) public payable {\n        bool payEther = questions[_question_id].payEther;\n        require(setTimeAnswer(_question_id) == 0, \"Time is not valid\");\n\n        Participant memory parts;\n        parts = Participant(_msgSender());\n        questions[_question_id].participant[_whichAnswer].push(parts);\n        questions[_question_id].allParticipant.push(_msgSender());\n\n        uint256 price = questions[_question_id].quizePrice;\n        questions[_question_id].money += price;\n        fullAmount += price;\n\n        if(payEther){\n            require(maticToken.allowance(_msgSender(), address(this)) >= questions[_question_id].quizePrice, \"Do not enought Matic ethers\");\n            require(maticToken.transferFrom(_msgSender(), address(this), price), \"Transfer Matic ethers error\");\n        }else{\n            require(betteryToken.allowance(_msgSender(), address(this)) >= questions[_question_id].quizePrice, \"Do not enought Bettery tokens\");\n            require(betteryToken.transferFrom(_msgSender(), address(this), price), \"Transfer Bettery tokens error\");\n        }\n\n        emit payEvent(\"send\", questions[_question_id].quizePrice, payEther, _msgSender(), \"participant\", _question_id);\n\n    }\n\n    function setValidator(int256 _question_id, uint8 _whichAnswer) public payable {\n        require(setTimeValidator(_question_id) == 0, \"Time is not valid\");\n        Validator memory valid;\n        valid = Validator(_msgSender());\n        questions[_question_id].validator[_whichAnswer].push(valid);\n        int256 active = questions[_question_id].activeValidators + 1;\n        if (active == questions[_question_id].validatorsAmount) {\n            questions[_question_id].activeValidators = active;\n            letsFindCorrectAnswer(_question_id);\n        } else {\n            questions[_question_id].activeValidators = active;\n        }\n    }\n\n    function letsFindCorrectAnswer(int256 _question_id) private {\n        uint256 biggestValue = 0;\n        uint256 correctAnswer;\n        uint8 questionQuantity = questions[_question_id].questionQuantity;\n\n        // find correct answer\n        for (uint8 i = 0; i < questionQuantity; i++) {\n            if (questions[_question_id].validator[i].length > biggestValue) {\n                biggestValue = questions[_question_id].validator[i].length;\n                correctAnswer = i;\n            }\n        }\n\n        findDuplicates(correctAnswer, biggestValue, _question_id, questionQuantity);\n    }\n\n    function findDuplicates(uint256 correctAnswer, uint256 biggestValue, int256 _question_id, uint8 questionQuantity) private {\n        uint8 duplicatesAnswers = 0;\n        uint256[] memory allValidatorsAnswers = new uint[](questionQuantity);\n        for (uint8 i = 0; i < questionQuantity; i++) {\n            allValidatorsAnswers[i] = questions[_question_id].validator[i].length;\n        }\n\n        setSort(allValidatorsAnswers);\n        sort();\n\n        for (uint8 i = 0; i < sortedArray.length - 1; i++) {\n            if((i+1) < sortedArray.length){\n              if (sortedArray[i + 1] == sortedArray[i]) {\n                  if(biggestValue == sortedArray[i]){\n                    duplicatesAnswers ++;\n                  }\n              }\n            }\n        }\n\n        if(duplicatesAnswers > 0){\n            revertedPayment(_question_id);\n        }else{\n            questions[_question_id].correctAnswer = correctAnswer;\n            letsPayCompanyFee(correctAnswer, _question_id);\n        }\n    }\n\n    function letsPayCompanyFee(uint256 correctAnswer, int256 _question_id) private {\n        bool payEther = questions[_question_id].payEther;\n        if (questions[_question_id].money > 0) {\n            // pay fee for company\n            uint256 persentFee = getPersent(\n                questions[_question_id].money,\n                percentQuiz\n            );\n            questions[_question_id].money = questions[_question_id].money - persentFee;\n            fullAmount = fullAmount - persentFee;\n            if(payEther){\n                require(maticToken.transfer(companyAddress, persentFee), \"Transfer Matic Ether to company is error\");\n            }else{\n                require(betteryToken.transfer(companyAddress, persentFee), \"Transfer Bettery token to company is error\");\n            }\n            questions[_question_id].persentFeeCompany = persentFee;\n\n            letsPayHostFee(correctAnswer, _question_id, payEther);\n        }\n    }\n\n    function letsPayHostFee(uint256 correctAnswer, int256 _question_id, bool payEther) private {\n        // pay fee for host\n        uint256 persHostFee = getPersent(\n            questions[_question_id].money,\n            questions[_question_id].percentHost\n        );\n        questions[_question_id].money = questions[_question_id].money - persHostFee;\n        fullAmount = fullAmount - persHostFee;\n        address payable hostWallet = questions[_question_id].hostWallet;\n        if(payEther){require(maticToken.transfer(hostWallet, persHostFee), \"Transfer Matic Ether to host is error\");}\n        else {require(betteryToken.transfer(hostWallet, persHostFee), \"Transfer Bettery token to host is error\");}\n        questions[_question_id].persentFeeHost = persHostFee;\n\n        letsPayValidatorFee(correctAnswer, _question_id, payEther);\n    }\n\n    function letsPayValidatorFee(uint256 correctAnswer, int256 _question_id, bool payEther) private {\n        // calculate percent for validator\n        uint256 persentForValidators = getPersent(\n            questions[_question_id].money,\n            questions[_question_id].percentValidator\n        );\n        uint256 persentForEachValidators = persentForValidators / questions[_question_id].validator[correctAnswer].length;\n        fullAmount = fullAmount - persentForValidators;\n\n        questions[_question_id].persentForEachValidators = persentForEachValidators;\n\n        // pay for validatos\n        for (uint8 i = 0; i < questions[_question_id].validator[correctAnswer].length; i++ ) {\n            address payable _validator = questions[_question_id].validator[correctAnswer][i].validators;\n            questions[_question_id].money = questions[_question_id].money - persentForEachValidators;\n\n            if(payEther){require(maticToken.transfer(_validator, persentForEachValidators), \"Transfer Matic Ether to validators is error\");}\n            else {require(betteryToken.transfer(_validator, persentForEachValidators), \"Transfer Bettery token to validators is error\");}\n\n        }\n\n        letsPayParticipantFee(correctAnswer, _question_id, payEther);\n    }\n\n    function letsPayParticipantFee(uint256 correctAnswer, int256 _question_id, bool payEther) private{\n         // Pay for participant\n        uint256 moneyForParticipant = questions[_question_id].money / questions[_question_id].participant[correctAnswer].length;\n        for ( uint8 i = 0; i < questions[_question_id].participant[correctAnswer].length; i++) {\n            address payable _participant = questions[_question_id].participant[correctAnswer][i].participants;\n            questions[_question_id].money = questions[_question_id].money - moneyForParticipant;\n\n            if(payEther){require(maticToken.transfer(_participant, moneyForParticipant), \"Transfer Matic Ether to participant is error\");}\n            else {require(betteryToken.transfer(_participant, moneyForParticipant), \"Transfer Bettery token to participant is error\");}\n\n        }\n\n        questions[_question_id].moneyForParticipant = moneyForParticipant;\n        questions[_question_id].reverted = false;\n\n        emit eventIsFinish(_question_id, payEther);\n    }\n\n    function revertedPayment(int256 _question_id) private{\n        bool payEther = questions[_question_id].payEther;\n        uint256 price = questions[_question_id].quizePrice;\n        int256 questionQuantity = questions[_question_id].questionQuantity;\n\n        for (uint8 i = 0; i < questionQuantity; i++) {\n          for(uint8 index = 0; index < questions[_question_id].participant[i].length; index++){\n                address payable _participant = questions[_question_id].participant[i][index].participants;\n                if(payEther){require(maticToken.transfer(_participant, price), \"Revert Matic ether to host is error\");}\n                else {require(betteryToken.transfer(_participant, price), \"Revert Bettery token to host is error\");}\n            }\n        }\n        questions[_question_id].reverted = true;\n        emit revertedEvent(_question_id);\n    }\n\n    function getPersent(uint256 _percent, uint256 _from)\n        private\n        pure\n        returns (uint256)\n    {\n        return (_from * _percent) / 100;\n    }\n\n    function getQuestion(int256 _question_id)\n        public\n        view\n        returns (\n            uint256 persentFeeCompany,\n            uint256 persentForEachValidators,\n            uint256 money,\n            uint256 moneyForParticipant,\n            bool reverted,\n            uint256 correctAnswer,\n            uint256 persentFeeHost\n        )\n    {\n        return (\n            questions[_question_id].persentFeeCompany,\n            questions[_question_id].persentForEachValidators,\n            questions[_question_id].money,\n            questions[_question_id].moneyForParticipant,\n            questions[_question_id].reverted,\n            questions[_question_id].correctAnswer,\n            questions[_question_id].persentFeeHost\n        );\n    }\n\n    function deleteEvent(int256 _question_id) public {\n        require(\n            deleteEventValidator(_question_id) == 0,\n            \"Delete event is false\"\n        );\n        delete questions[_question_id];\n    }\n\n    function quizeBalance() public view returns (uint256) {\n        return address(this).balance;\n    }\n\n    function getContractTokenBalance() public view returns (uint256) {\n        return maticToken.balanceOf(address(this));\n    }\n\n    function getMoneyRetention(address payable _host) public payable {\n        (uint256 amount, address host, bool path, int256 _question_id) = _getMoneyRetention(_host);\n        if(path){require(maticToken.transfer(host, amount), \"Transfer Matic ether for money retention is error\");}\n        else {require(betteryToken.transfer(host, amount), \"Transfer Bettery token for money retention is error\");}\n\n\n        emit payEvent(\"receive\", amount, path, host, \"hold money\", _question_id);\n    }\n\n function amountGuard(bool _path, address payable wallet) public view returns (int8) {\n     uint256 balanceToken;\n     if(_path){balanceToken = maticToken.balanceOf(wallet);}\n     else {balanceToken = betteryToken.balanceOf(wallet);}\n\n     return _amountGuard(_path, balanceToken, wallet);\n }\n\n // VALIDATION\n\n     function setTimeValidator(int256 _question_id) public view returns (int8) {\n        if (int256(now - questions[_question_id].endTime) >= 0){\n            if (int256((questions[_question_id].endTime + sevenDaysTimeStamp) - now) >= 0){\n                // if validator made activities like participants.\n                for (uint8 i = 0; i < questions[_question_id].allParticipant.length; i++) {\n                    if (questions[_question_id].allParticipant[i] == _msgSender()) {\n                        return 3;\n                    }\n                }\n                // user can validate because time is valid.\n                return 0;\n            } else {\n                // user can't validate because time is finish.\n                return 2;\n            }\n        } else {\n            // user can't validate because event is not started yet.\n            return 1;\n        }\n    }\n\n    function setTimeAnswer(int256 _question_id) public view returns (int8) {\n        if (int256(now - questions[_question_id].startTime) >= 0) {\n            if (int256(questions[_question_id].endTime - now) >= 0) {\n                // user can make answer because time is valid.\n                return 0;\n            } else {\n                // user can't make answer because event is finish.\n                return 2;\n            }\n        } else {\n            // user can't make answer because event is not started yet.\n            return 1;\n        }\n    }\n\n    function deleteEventValidator(int256 _question_id)\n        public\n        view\n        returns (int8)\n    {\n        if (questions[_question_id].hostWallet == _msgSender()) {\n            if (questions[_question_id].money == 0) {\n                // user can delete event\n                return 0;\n            } else {\n                // user can't delete event because event has money on balance\n                return 1;\n            }\n        } else {\n            // only owner can delete event.\n            return 2;\n        }\n    }\n}\n",
  "sourcePath": "/Users/macbook/Documents/freelance/node/QUIZE/contracts/contracts/Quize.sol",
  "compiler": {
    "name": "solc",
    "version": "0.6.6+commit.6c089d02.Linux.g++"
  },
  "schemaVersion": "3.2.2",
  "updatedAt": "2020-07-22T13:19:13.669Z",
  "networkType": "ethereum",
  "devdoc": {
    "methods": {}
  },
  "userdoc": {
    "methods": {}
  }
}