{
  "contractName": "Quize",
  "abi": [
    {
      "anonymous": false,
      "inputs": [
        {
          "indexed": false,
          "internalType": "int256",
          "name": "endTime",
          "type": "int256"
        },
        {
          "indexed": false,
          "internalType": "int8",
          "name": "questionQuantity",
          "type": "int8"
        },
        {
          "indexed": false,
          "internalType": "int256",
          "name": "startTime",
          "type": "int256"
        },
        {
          "indexed": false,
          "internalType": "int8",
          "name": "percentHost",
          "type": "int8"
        },
        {
          "indexed": false,
          "internalType": "int8",
          "name": "percentValidator",
          "type": "int8"
        }
      ],
      "name": "NewQuestionAdded",
      "type": "event"
    },
    {
      "constant": false,
      "inputs": [
        {
          "internalType": "address",
          "name": "host_wallet",
          "type": "address"
        },
        {
          "internalType": "int256",
          "name": "_question_id",
          "type": "int256"
        },
        {
          "internalType": "int256",
          "name": "_startTime",
          "type": "int256"
        },
        {
          "internalType": "int256",
          "name": "_endTime",
          "type": "int256"
        },
        {
          "internalType": "int8",
          "name": "_percentHost",
          "type": "int8"
        },
        {
          "internalType": "int8",
          "name": "_percentValidator",
          "type": "int8"
        },
        {
          "internalType": "int8",
          "name": "_questionQuantity",
          "type": "int8"
        }
      ],
      "name": "startQestion",
      "outputs": [],
      "payable": true,
      "stateMutability": "payable",
      "type": "function"
    },
    {
      "constant": false,
      "inputs": [
        {
          "internalType": "int256",
          "name": "_question_id",
          "type": "int256"
        },
        {
          "internalType": "uint8",
          "name": "_whichAnswer",
          "type": "uint8"
        }
      ],
      "name": "setAnswer",
      "outputs": [],
      "payable": true,
      "stateMutability": "payable",
      "type": "function"
    },
    {
      "constant": true,
      "inputs": [
        {
          "internalType": "int256",
          "name": "_question_id",
          "type": "int256"
        },
        {
          "internalType": "uint256",
          "name": "index",
          "type": "uint256"
        },
        {
          "internalType": "uint8",
          "name": "_whichAnswer",
          "type": "uint8"
        }
      ],
      "name": "getIndex",
      "outputs": [
        {
          "internalType": "address",
          "name": "",
          "type": "address"
        }
      ],
      "payable": false,
      "stateMutability": "view",
      "type": "function"
    },
    {
      "constant": true,
      "inputs": [],
      "name": "getFullAmount",
      "outputs": [
        {
          "internalType": "uint256",
          "name": "",
          "type": "uint256"
        }
      ],
      "payable": false,
      "stateMutability": "view",
      "type": "function"
    },
    {
      "constant": true,
      "inputs": [
        {
          "internalType": "address",
          "name": "host_wallet",
          "type": "address"
        }
      ],
      "name": "getHostQestionsIndex",
      "outputs": [
        {
          "internalType": "uint256",
          "name": "",
          "type": "uint256"
        }
      ],
      "payable": false,
      "stateMutability": "view",
      "type": "function"
    },
    {
      "constant": true,
      "inputs": [
        {
          "internalType": "address",
          "name": "host_wallet",
          "type": "address"
        },
        {
          "internalType": "uint256",
          "name": "index",
          "type": "uint256"
        }
      ],
      "name": "getHostQestionsId",
      "outputs": [
        {
          "internalType": "int256",
          "name": "",
          "type": "int256"
        }
      ],
      "payable": false,
      "stateMutability": "view",
      "type": "function"
    },
    {
      "constant": true,
      "inputs": [
        {
          "internalType": "int256",
          "name": "_question_id",
          "type": "int256"
        }
      ],
      "name": "getQuestion",
      "outputs": [
        {
          "internalType": "int256",
          "name": "endTime",
          "type": "int256"
        },
        {
          "internalType": "int8",
          "name": "questionQuantity",
          "type": "int8"
        },
        {
          "internalType": "int256",
          "name": "startTime",
          "type": "int256"
        },
        {
          "internalType": "int8",
          "name": "percentHost",
          "type": "int8"
        },
        {
          "internalType": "int8",
          "name": "percentValidator",
          "type": "int8"
        }
      ],
      "payable": false,
      "stateMutability": "view",
      "type": "function"
    }
  ],
  "bytecode": "0x608060405260036000806101000a81548160ff021916908360000b60ff16021790555034801561002e57600080fd5b506109068061003e6000396000f3fe6080604052600436106100705760003560e01c806374e6f40e1161004e57806374e6f40e1461019c578063783e0240146101c75780639015a29914610250578063b1fdb35a146102e257610070565b80632a7100cc1461007557806357146e06146100b05780635c60dead1461012d575b600080fd5b6100ae6004803603604081101561008b57600080fd5b8101908080359060200190929190803560ff169060200190929190505050610347565b005b3480156100bc57600080fd5b506100e9600480360360208110156100d357600080fd5b8101908080359060200190929190505050610467565b604051808681526020018560000b60000b81526020018481526020018360000b60000b81526020018260000b60000b81526020019550505050505060405180910390f35b34801561013957600080fd5b506101866004803603604081101561015057600080fd5b81019080803573ffffffffffffffffffffffffffffffffffffffff1690602001909291908035906020019092919050505061051c565b6040518082815260200191505060405180910390f35b3480156101a857600080fd5b506101b161057e565b6040518082815260200191505060405180910390f35b61024e600480360360e08110156101dd57600080fd5b81019080803573ffffffffffffffffffffffffffffffffffffffff169060200190929190803590602001909291908035906020019092919080359060200190929190803560000b9060200190929190803560000b9060200190929190803560000b9060200190929190505050610588565b005b34801561025c57600080fd5b506102a06004803603606081101561027357600080fd5b810190808035906020019092919080359060200190929190803560ff169060200190929190505050610815565b604051808273ffffffffffffffffffffffffffffffffffffffff1673ffffffffffffffffffffffffffffffffffffffff16815260200191505060405180910390f35b3480156102ee57600080fd5b506103316004803603602081101561030557600080fd5b81019080803573ffffffffffffffffffffffffffffffffffffffff169060200190929190505050610882565b6040518082815260200191505060405180910390f35b34600260008481526020019081526020016000206004016000828254019250508190555060006002600084815260200190815260200160002060060160008360ff168152602001908152602001600020600101549050336002600085815260200190815260200160002060060160008460ff168152602001908152602001600020600001600083815260200190815260200160002060000160006101000a81548173ffffffffffffffffffffffffffffffffffffffff021916908373ffffffffffffffffffffffffffffffffffffffff160217905550600181016002600085815260200190815260200160002060060160008460ff1681526020019081526020016000206001018190555034600160008282540192505081905550505050565b600080600080600060026000878152602001908152602001600020600201546002600088815260200190815260200160002060030160009054906101000a900460000b6002600089815260200190815260200160002060010154600260008a815260200190815260200160002060050160009054906101000a900460000b600260008b815260200190815260200160002060050160019054906101000a900460000b9450945094509450945091939590929450565b6000600360008473ffffffffffffffffffffffffffffffffffffffff1673ffffffffffffffffffffffffffffffffffffffff168152602001908152602001600020600001828154811061056b57fe5b9060005260206000200154905092915050565b6000600154905090565b600360008873ffffffffffffffffffffffffffffffffffffffff1673ffffffffffffffffffffffffffffffffffffffff168152602001908152602001600020600001869080600181540180825580915050906001820390600052602060002001600090919290919091505550856002600088815260200190815260200160002060000181905550836002600088815260200190815260200160002060020181905550806002600088815260200190815260200160002060030160006101000a81548160ff021916908360000b60ff1602179055508460026000888152602001908152602001600020600101819055507fffffffffffffffffffffffffffffffffffffffffffffffffffffffffffffffff8360000b14156106da5760036002600088815260200190815260200160002060050160006101000a81548160ff021916908360000b60ff16021790555061070d565b826002600088815260200190815260200160002060050160006101000a81548160ff021916908360000b60ff1602179055505b7fffffffffffffffffffffffffffffffffffffffffffffffffffffffffffffffff8260000b14156107705760056002600088815260200190815260200160002060050160016101000a81548160ff021916908360000b60ff1602179055506107a3565b816002600088815260200190815260200160002060050160016101000a81548160ff021916908360000b60ff1602179055505b7feffecb84940c82e81eefc2662e9896256cbaf3ae6dbdc05cb987673f210ae7048482878686604051808681526020018560000b60000b81526020018481526020018360000b60000b81526020018260000b60000b81526020019550505050505060405180910390a150505050505050565b60006002600085815260200190815260200160002060060160008360ff168152602001908152602001600020600001600084815260200190815260200160002060000160009054906101000a900473ffffffffffffffffffffffffffffffffffffffff1690509392505050565b6000600360008373ffffffffffffffffffffffffffffffffffffffff1673ffffffffffffffffffffffffffffffffffffffff16815260200190815260200160002060000180549050905091905056fea265627a7a7231582066493e5fe83b40891d90402aa062ec1f981e4502ba2dc3c204ba19f416b9f80164736f6c634300050c0032",
  "source": "pragma solidity >=0.4.22 <0.6.0;\n\ncontract Quize {\n     int8 private percentQuiz = 3;\n     uint256 private fullAmount;\n\n     event NewQuestionAdded(\n        int256 endTime,\n        int8 questionQuantity,\n        int256 startTime,\n        int8 percentHost,\n        int8 percentValidator);\n\n    struct Participant{\n        mapping (uint256 => Part) participants;\n        uint256 index;\n    }\n\n    struct Part {\n        address payable parts;\n    }\n\n    struct Validator{\n        mapping (uint256 => Valid) validators;\n        uint256 index;\n    }\n\n    struct Valid {\n        address payable valid;\n    }\n\n     struct Qestion {\n         int question_id;\n         int256 startTime;\n         int256 endTime;\n         int8 questionQuantity;\n         uint256 money;\n         int8 percentHost;\n         int8 percentValidator;\n         mapping (uint256 => Participant) participant;\n         mapping (uint256 => Validator) validator;\n         address[] allParticipants;\n         address[] allValidator;\n     }\n\n     struct Host {\n         int[] qestions_id;\n     }\n\n        mapping (int => Qestion) qestions;\n        mapping (address => Host) host_id_wallet;\n\n    function startQestion(\n           address host_wallet,\n           int _question_id,\n           int256 _startTime,\n           int256 _endTime,\n           int8 _percentHost,\n           int8 _percentValidator,\n           int8 _questionQuantity\n        ) public payable {\n           host_id_wallet[host_wallet].qestions_id.push(_question_id);\n\n           qestions[_question_id].question_id = _question_id;\n           qestions[_question_id].endTime = _endTime;\n           qestions[_question_id].questionQuantity = _questionQuantity;\n           qestions[_question_id].startTime = _startTime;\n\n        if(_percentHost == -1){\n            qestions[_question_id].percentHost = 3;\n        }else{\n           qestions[_question_id].percentHost = _percentHost;\n        }\n\n        if(_percentValidator == -1){\n            qestions[_question_id].percentValidator = 5;\n        }else{\n           qestions[_question_id].percentValidator = _percentValidator;\n        }\n\n        emit NewQuestionAdded(\n            _endTime,\n            _questionQuantity,\n           _startTime,\n           _percentHost,\n           _percentValidator\n        );\n    }\n\n   function setAnswer(int256 _question_id, uint8 _whichAnswer) public payable{\n        qestions[_question_id].money += msg.value;\n        uint256 i = qestions[_question_id].participant[_whichAnswer].index;\n        qestions[_question_id].participant[_whichAnswer].participants[i].parts = msg.sender;\n        qestions[_question_id].participant[_whichAnswer].index = i + 1;\n        fullAmount += msg.value;\n    }\n\n    function getIndex(int256 _question_id, uint256 index, uint8 _whichAnswer) public view returns(address){\n       return qestions[_question_id].participant[_whichAnswer].participants[index].parts;\n    }\n\n    function getFullAmount() public view returns(uint256){\n        return fullAmount;\n    }\n\n    // function setValidator(int _question_id, address payable _answer, uint8 _whichAnswer, int256 _timeNow) public payable{\n    //    if((qestions[_question_id].endTime - _timeNow) > 0){\n    //        qestions[_question_id].validator[_whichAnswer].validators.push(_answer);\n    //    }\n    // }\n\n\n    function getHostQestionsIndex(address host_wallet) public view returns(uint256){\n        return host_id_wallet[host_wallet].qestions_id.length;\n    }\n\n     function getHostQestionsId(address host_wallet, uint256 index) public view returns(int256){\n        return host_id_wallet[host_wallet].qestions_id[index];\n    }\n\n    // function payQestion(int _question_id) public payable {\n    //     if((qestions[_question_id].endTime - qestions[_question_id].startTime) > 0){\n    //         // pay fee for company\n    //         int256 persentFee = getPersent(percentQuiz, int(qestions[_question_id].money));\n    //         qestions[_question_id].money = qestions[_question_id].money - uint(persentFee);\n    //         address(msg.sender).transfer(uint(persentFee));\n\n    //         int256 questionQuantity = qestions[_question_id].questionQuantity;\n    //         uint[] memory validator;\n\n    //         //Get length of validators\n    //         for(uint8 i = 0; i > questionQuantity; i++){\n    //            validator[i] = qestions[_question_id].validator[i].validators.length;\n    //         }\n    //         // Find corect answer\n    //         uint8 correctValidator = getIndexOfLargest(validator);\n\n    //         if(qestions[_question_id].percentValidator != 0){\n    //             int256 persentForValidators = getPersent(qestions[_question_id].percentValidator, int(qestions[_question_id].money));\n    //             int256 persentForEachValidators = persentForValidators / int(qestions[_question_id].validator[correctValidator].validators.length);\n\n    //             // Pay for validators\n    //             for(uint8 i = 0; i > qestions[_question_id].validator[correctValidator].validators.length; i++){\n    //               address payable _validator = qestions[_question_id].validator[correctValidator].validators[i];\n    //               qestions[_question_id].money = qestions[_question_id].money - uint(persentForValidators);\n    //               address(_validator).transfer(uint(persentForEachValidators));\n    //             }\n    //         }\n\n\n    //         // Pay for participant\n    //         uint256 monayForParticipant = qestions[_question_id].money / qestions[_question_id].participant[correctValidator].participants.length;\n    //         for(uint8 i = 0; i > qestions[_question_id].participant[correctValidator].participants.length; i++){\n    //             address payable _participant = qestions[_question_id].participant[correctValidator].participants[i];\n    //             address(_participant).transfer(monayForParticipant);\n    //         }\n    //         delete qestions[_question_id];\n\n    //     }\n    // }\n\n    function getPersent(int _percent, int _from) private pure returns(int256){\n       return (_percent / 100) * _from;\n    }\n\n    function getIndexOfLargest( uint[] memory array ) private pure returns(uint8){\n        uint8 largest = 0;\n        for ( uint8 i = 1; i < array.length; i++ ){\n           if ( array[i] > array[largest] ) largest = i;\n        }\n        return largest;\n    }\n\n    function getQuestion(int _question_id) public view returns(\n           int256 endTime,\n           int8 questionQuantity,\n           int256 startTime,\n           int8 percentHost,\n           int8 percentValidator\n           ){\n       return(qestions[_question_id].endTime,\n              qestions[_question_id].questionQuantity,\n              qestions[_question_id].startTime,\n              qestions[_question_id].percentHost,\n              qestions[_question_id].percentValidator);\n    }\n\n}",
  "sourcePath": "/Users/macbook/Documents/freelance/Angular/Quiz/contracts/Quize.sol",
  "compiler": {
    "name": "solc",
    "version": "0.5.12+commit.7709ece9.Emscripten.clang"
  },
  "schemaVersion": "3.0.19",
  "updatedAt": "2019-12-10T08:26:54.653Z",
  "devdoc": {
    "methods": {}
  },
  "userdoc": {
    "methods": {}
  }
}