{
  "contractName": "Quize",
  "abi": [
    {
      "constant": true,
      "inputs": [
        {
          "name": "_path",
          "type": "bool"
        }
      ],
      "name": "moneyRetentionCalculate",
      "outputs": [
        {
          "name": "",
          "type": "uint256"
        }
      ],
      "payable": false,
      "stateMutability": "view",
      "type": "function",
      "signature": "0x25f0f5ab"
    },
    {
      "constant": true,
      "inputs": [],
      "name": "holdBalance",
      "outputs": [
        {
          "name": "",
          "type": "uint256"
        }
      ],
      "payable": false,
      "stateMutability": "view",
      "type": "function",
      "signature": "0x26c989df"
    },
    {
      "constant": true,
      "inputs": [],
      "name": "priceEth",
      "outputs": [
        {
          "name": "",
          "type": "uint256"
        }
      ],
      "payable": false,
      "stateMutability": "view",
      "type": "function",
      "signature": "0x2ca38363"
    },
    {
      "constant": true,
      "inputs": [],
      "name": "priceToken",
      "outputs": [
        {
          "name": "",
          "type": "uint256"
        }
      ],
      "payable": false,
      "stateMutability": "view",
      "type": "function",
      "signature": "0x2ff6fe76"
    },
    {
      "constant": false,
      "inputs": [
        {
          "name": "_data",
          "type": "uint256[]"
        }
      ],
      "name": "setSort",
      "outputs": [],
      "payable": false,
      "stateMutability": "nonpayable",
      "type": "function",
      "signature": "0x3b97b5d6"
    },
    {
      "constant": true,
      "inputs": [],
      "name": "companyAddress",
      "outputs": [
        {
          "name": "",
          "type": "address"
        }
      ],
      "payable": false,
      "stateMutability": "view",
      "type": "function",
      "signature": "0x53e1ead9"
    },
    {
      "constant": true,
      "inputs": [],
      "name": "tokenContract",
      "outputs": [
        {
          "name": "",
          "type": "address"
        }
      ],
      "payable": false,
      "stateMutability": "view",
      "type": "function",
      "signature": "0x55a373d6"
    },
    {
      "constant": true,
      "inputs": [],
      "name": "onHold",
      "outputs": [
        {
          "name": "",
          "type": "uint256"
        }
      ],
      "payable": false,
      "stateMutability": "view",
      "type": "function",
      "signature": "0x7fc50545"
    },
    {
      "constant": false,
      "inputs": [
        {
          "name": "_host",
          "type": "address"
        }
      ],
      "name": "_getMoneyRetention",
      "outputs": [
        {
          "name": "",
          "type": "uint256"
        },
        {
          "name": "",
          "type": "address"
        },
        {
          "name": "",
          "type": "bool"
        },
        {
          "name": "",
          "type": "int256"
        }
      ],
      "payable": true,
      "stateMutability": "payable",
      "type": "function",
      "signature": "0x8229f5e9"
    },
    {
      "constant": false,
      "inputs": [
        {
          "name": "_priceEth",
          "type": "uint256"
        },
        {
          "name": "_priceToken",
          "type": "uint256"
        }
      ],
      "name": "setEthPrice",
      "outputs": [],
      "payable": false,
      "stateMutability": "nonpayable",
      "type": "function",
      "signature": "0x83855f1f"
    },
    {
      "constant": false,
      "inputs": [],
      "name": "sort",
      "outputs": [],
      "payable": false,
      "stateMutability": "nonpayable",
      "type": "function",
      "signature": "0x8cdc86a6"
    },
    {
      "constant": true,
      "inputs": [],
      "name": "owner",
      "outputs": [
        {
          "name": "",
          "type": "address"
        }
      ],
      "payable": false,
      "stateMutability": "view",
      "type": "function",
      "signature": "0x8da5cb5b"
    },
    {
      "constant": true,
      "inputs": [],
      "name": "getHoldMoneyById",
      "outputs": [
        {
          "name": "",
          "type": "uint256"
        }
      ],
      "payable": false,
      "stateMutability": "view",
      "type": "function",
      "signature": "0xacbee282"
    },
    {
      "constant": true,
      "inputs": [
        {
          "name": "",
          "type": "uint256"
        }
      ],
      "name": "sortedArray",
      "outputs": [
        {
          "name": "",
          "type": "uint256"
        }
      ],
      "payable": false,
      "stateMutability": "view",
      "type": "function",
      "signature": "0xe2d914f2"
    },
    {
      "constant": true,
      "inputs": [
        {
          "name": "_path",
          "type": "bool"
        },
        {
          "name": "balanceToken",
          "type": "uint256"
        }
      ],
      "name": "_amountGuard",
      "outputs": [
        {
          "name": "",
          "type": "int8"
        }
      ],
      "payable": false,
      "stateMutability": "view",
      "type": "function",
      "signature": "0xe6ffed5d"
    },
    {
      "constant": true,
      "inputs": [],
      "name": "fullAmount",
      "outputs": [
        {
          "name": "",
          "type": "uint256"
        }
      ],
      "payable": false,
      "stateMutability": "view",
      "type": "function",
      "signature": "0xf5c1ec81"
    },
    {
      "constant": false,
      "inputs": [
        {
          "name": "_pathHoldMoney",
          "type": "bool"
        },
        {
          "name": "question_id",
          "type": "int256"
        }
      ],
      "name": "_setMoneyRetention",
      "outputs": [
        {
          "name": "",
          "type": "uint256"
        }
      ],
      "payable": true,
      "stateMutability": "payable",
      "type": "function",
      "signature": "0xf733c287"
    },
    {
      "inputs": [
        {
          "name": "_tokenContract",
          "type": "address"
        }
      ],
      "payable": false,
      "stateMutability": "nonpayable",
      "type": "constructor",
      "signature": "constructor"
    },
    {
      "anonymous": false,
      "inputs": [
        {
          "indexed": false,
          "name": "question_id",
          "type": "int256"
        },
        {
          "indexed": false,
          "name": "payEther",
          "type": "bool"
        }
      ],
      "name": "eventIsFinish",
      "type": "event",
      "signature": "0xd320079e0e35887df7aac9ad79d3da039625f35f0771dc81bb90e367302328ac"
    },
    {
      "anonymous": false,
      "inputs": [
        {
          "indexed": false,
          "name": "path",
          "type": "string"
        },
        {
          "indexed": false,
          "name": "money",
          "type": "uint256"
        },
        {
          "indexed": false,
          "name": "payEther",
          "type": "bool"
        },
        {
          "indexed": false,
          "name": "wallet",
          "type": "address"
        },
        {
          "indexed": false,
          "name": "from",
          "type": "string"
        },
        {
          "indexed": false,
          "name": "question_id",
          "type": "int256"
        }
      ],
      "name": "payEvent",
      "type": "event",
      "signature": "0xbd233f7452553afaed4cd245a2d8d64cf39150c8cd35dcc8da09884d5bd45f9a"
    },
    {
      "anonymous": false,
      "inputs": [
        {
          "indexed": false,
          "name": "question_id",
          "type": "int256"
        }
      ],
      "name": "revertedEvent",
      "type": "event",
      "signature": "0xd1e2a93de73d2833bf993f270a45e97a74d8b22dfd59e37f57093127b96008c0"
    },
    {
      "constant": false,
      "inputs": [
        {
          "name": "_question_id",
          "type": "int256"
        },
        {
          "name": "_startTime",
          "type": "uint256"
        },
        {
          "name": "_endTime",
          "type": "uint256"
        },
        {
          "name": "_percentHost",
          "type": "uint8"
        },
        {
          "name": "_percentValidator",
          "type": "uint8"
        },
        {
          "name": "_questionQuantity",
          "type": "uint8"
        },
        {
          "name": "_validatorsAmount",
          "type": "int256"
        },
        {
          "name": "_quizePrice",
          "type": "uint256"
        },
        {
          "name": "_pathHoldMoney",
          "type": "bool"
        },
        {
          "name": "_payEther",
          "type": "bool"
        }
      ],
      "name": "startQestion",
      "outputs": [],
      "payable": true,
      "stateMutability": "payable",
      "type": "function",
      "signature": "0x98e964b2"
    },
    {
      "constant": false,
      "inputs": [
        {
          "name": "_question_id",
          "type": "int256"
        },
        {
          "name": "_whichAnswer",
          "type": "uint8"
        }
      ],
      "name": "setAnswer",
      "outputs": [],
      "payable": true,
      "stateMutability": "payable",
      "type": "function",
      "signature": "0x2a7100cc"
    },
    {
      "constant": false,
      "inputs": [
        {
          "name": "_question_id",
          "type": "int256"
        },
        {
          "name": "_whichAnswer",
          "type": "uint8"
        }
      ],
      "name": "setValidator",
      "outputs": [],
      "payable": true,
      "stateMutability": "payable",
      "type": "function",
      "signature": "0x34be86c8"
    },
    {
      "constant": true,
      "inputs": [
        {
          "name": "_question_id",
          "type": "int256"
        }
      ],
      "name": "getQuestion",
      "outputs": [
        {
          "name": "persentFeeCompany",
          "type": "uint256"
        },
        {
          "name": "persentForEachValidators",
          "type": "uint256"
        },
        {
          "name": "money",
          "type": "uint256"
        },
        {
          "name": "moneyForParticipant",
          "type": "uint256"
        },
        {
          "name": "reverted",
          "type": "bool"
        },
        {
          "name": "correctAnswer",
          "type": "uint256"
        },
        {
          "name": "persentFeeHost",
          "type": "uint256"
        }
      ],
      "payable": false,
      "stateMutability": "view",
      "type": "function",
      "signature": "0x57146e06"
    },
    {
      "constant": false,
      "inputs": [
        {
          "name": "_question_id",
          "type": "int256"
        }
      ],
      "name": "deleteEvent",
      "outputs": [],
      "payable": false,
      "stateMutability": "nonpayable",
      "type": "function",
      "signature": "0xc9e53b4b"
    },
    {
      "constant": true,
      "inputs": [],
      "name": "quizeBalance",
      "outputs": [
        {
          "name": "",
          "type": "uint256"
        }
      ],
      "payable": false,
      "stateMutability": "view",
      "type": "function",
      "signature": "0xe4f87496"
    },
    {
      "constant": true,
      "inputs": [],
      "name": "getContractTokenBalance",
      "outputs": [
        {
          "name": "",
          "type": "uint256"
        }
      ],
      "payable": false,
      "stateMutability": "view",
      "type": "function",
      "signature": "0x317d9453"
    },
    {
      "constant": false,
      "inputs": [
        {
          "name": "_host",
          "type": "address"
        }
      ],
      "name": "getMoneyRetention",
      "outputs": [],
      "payable": true,
      "stateMutability": "payable",
      "type": "function",
      "signature": "0xf8482171"
    },
    {
      "constant": true,
      "inputs": [
        {
          "name": "_path",
          "type": "bool"
        }
      ],
      "name": "amountGuard",
      "outputs": [
        {
          "name": "",
          "type": "int8"
        }
      ],
      "payable": false,
      "stateMutability": "view",
      "type": "function",
      "signature": "0x1c5430ba"
    },
    {
      "constant": true,
      "inputs": [
        {
          "name": "_question_id",
          "type": "int256"
        }
      ],
      "name": "setTimeValidator",
      "outputs": [
        {
          "name": "",
          "type": "int8"
        }
      ],
      "payable": false,
      "stateMutability": "view",
      "type": "function",
      "signature": "0x3493c862"
    },
    {
      "constant": true,
      "inputs": [
        {
          "name": "_question_id",
          "type": "int256"
        }
      ],
      "name": "setTimeAnswer",
      "outputs": [
        {
          "name": "",
          "type": "int8"
        }
      ],
      "payable": false,
      "stateMutability": "view",
      "type": "function",
      "signature": "0x834f8047"
    },
    {
      "constant": true,
      "inputs": [
        {
          "name": "_question_id",
          "type": "int256"
        }
      ],
      "name": "deleteEventValidator",
      "outputs": [
        {
          "name": "",
          "type": "int8"
        }
      ],
      "payable": false,
      "stateMutability": "view",
      "type": "function",
      "signature": "0x87b6608d"
    }
  ],
  "bytecode": "0x6080604052678ac7230489e800006000556002600660146101000a81548160ff021916908360ff16021790555062093a8060085534801561003f57600080fd5b5060405160208062004ab18339810180604052602081101561006057600080fd5b810190808051906020019092919050505033600160006101000a81548173ffffffffffffffffffffffffffffffffffffffff021916908373ffffffffffffffffffffffffffffffffffffffff16021790555080600660006101000a81548173ffffffffffffffffffffffffffffffffffffffff021916908373ffffffffffffffffffffffffffffffffffffffff16021790555033600960006101000a81548173ffffffffffffffffffffffffffffffffffffffff021916908373ffffffffffffffffffffffffffffffffffffffff1602179055505061496c80620001456000396000f3fe6080604052600436106101df576000357c0100000000000000000000000000000000000000000000000000000000900480638229f5e911610114578063acbee282116100b2578063e6ffed5d11610081578063e6ffed5d1461098e578063f5c1ec81146109ef578063f733c28714610a1a578063f848217114610a68576101df565b8063acbee282146108ae578063c9e53b4b146108d9578063e2d914f214610914578063e4f8749614610963576101df565b806387b6608d116100ee57806387b6608d146107555780638cdc86a6146107aa5780638da5cb5b146107c157806398e964b214610818576101df565b80638229f5e91461061e578063834f8047146106bb57806383855f1f14610710576101df565b80633493c8621161018157806353e1ead91161015b57806353e1ead9146104c857806355a373d61461051f57806357146e06146105765780637fc50545146105f3576101df565b80633493c8621461037357806334be86c8146103c85780633b97b5d614610403576101df565b80632a7100cc116101bd5780632a7100cc146102b75780632ca38363146102f25780632ff6fe761461031d578063317d945314610348576101df565b80631c5430ba146101e457806325f0f5ab1461023b57806326c989df1461028c575b600080fd5b3480156101f057600080fd5b5061021f6004803603602081101561020757600080fd5b81019080803515159060200190929190505050610aac565b604051808260000b60000b815260200191505060405180910390f35b34801561024757600080fd5b506102766004803603602081101561025e57600080fd5b81019080803515159060200190929190505050610bc1565b6040518082815260200191505060405180910390f35b34801561029857600080fd5b506102a1610c19565b6040518082815260200191505060405180910390f35b6102f0600480360360408110156102cd57600080fd5b8101908080359060200190929190803560ff169060200190929190505050610c38565b005b3480156102fe57600080fd5b506103076113be565b6040518082815260200191505060405180910390f35b34801561032957600080fd5b506103326113c4565b6040518082815260200191505060405180910390f35b34801561035457600080fd5b5061035d6113ca565b6040518082815260200191505060405180910390f35b34801561037f57600080fd5b506103ac6004803603602081101561039657600080fd5b81019080803590602001909291905050506114c7565b604051808260000b60000b815260200191505060405180910390f35b610401600480360360408110156103de57600080fd5b8101908080359060200190929190803560ff1690602001909291905050506115f2565b005b34801561040f57600080fd5b506104c66004803603602081101561042657600080fd5b810190808035906020019064010000000081111561044357600080fd5b82018360208201111561045557600080fd5b8035906020019184602083028401116401000000008311171561047757600080fd5b919080806020026020016040519081016040528093929190818152602001838360200280828437600081840152601f19601f8201169050808301925050505050505091929192905050506117c8565b005b3480156104d457600080fd5b506104dd6117e2565b604051808273ffffffffffffffffffffffffffffffffffffffff1673ffffffffffffffffffffffffffffffffffffffff16815260200191505060405180910390f35b34801561052b57600080fd5b50610534611808565b604051808273ffffffffffffffffffffffffffffffffffffffff1673ffffffffffffffffffffffffffffffffffffffff16815260200191505060405180910390f35b34801561058257600080fd5b506105af6004803603602081101561059957600080fd5b810190808035906020019092919050505061182e565b604051808881526020018781526020018681526020018581526020018415151515815260200183815260200182815260200197505050505050505060405180910390f35b3480156105ff57600080fd5b50610608611900565b6040518082815260200191505060405180910390f35b6106606004803603602081101561063457600080fd5b81019080803573ffffffffffffffffffffffffffffffffffffffff169060200190929190505050611a44565b604051808581526020018473ffffffffffffffffffffffffffffffffffffffff1673ffffffffffffffffffffffffffffffffffffffff1681526020018315151515815260200182815260200194505050505060405180910390f35b3480156106c757600080fd5b506106f4600480360360208110156106de57600080fd5b8101908080359060200190929190505050611fa5565b604051808260000b60000b815260200191505060405180910390f35b34801561071c57600080fd5b506107536004803603604081101561073357600080fd5b810190808035906020019092919080359060200190929190505050612006565b005b34801561076157600080fd5b5061078e6004803603602081101561077857600080fd5b8101908080359060200190929190505050612103565b604051808260000b60000b815260200191505060405180910390f35b3480156107b657600080fd5b506107bf6121aa565b005b3480156107cd57600080fd5b506107d66121d5565b604051808273ffffffffffffffffffffffffffffffffffffffff1673ffffffffffffffffffffffffffffffffffffffff16815260200191505060405180910390f35b6108ac600480360361014081101561082f57600080fd5b81019080803590602001909291908035906020019092919080359060200190929190803560ff169060200190929190803560ff169060200190929190803560ff16906020019092919080359060200190929190803590602001909291908035151590602001909291908035151590602001909291905050506121fb565b005b3480156108ba57600080fd5b506108c3612873565b6040518082815260200191505060405180910390f35b3480156108e557600080fd5b50610912600480360360208110156108fc57600080fd5b810190808035906020019092919050505061291b565b005b34801561092057600080fd5b5061094d6004803603602081101561093757600080fd5b8101908080359060200190929190505050612ab2565b6040518082815260200191505060405180910390f35b34801561096f57600080fd5b50610978612ad5565b6040518082815260200191505060405180910390f35b34801561099a57600080fd5b506109d3600480360360408110156109b157600080fd5b8101908080351515906020019092919080359060200190929190505050612af4565b604051808260000b60000b815260200191505060405180910390f35b3480156109fb57600080fd5b50610a04612b47565b6040518082815260200191505060405180910390f35b610a5260048036036040811015610a3057600080fd5b8101908080351515906020019092919080359060200190929190505050612b4d565b6040518082815260200191505060405180910390f35b610aaa60048036036020811015610a7e57600080fd5b81019080803573ffffffffffffffffffffffffffffffffffffffff169060200190929190505050612b79565b005b600080821515610baf57600660009054906101000a900473ffffffffffffffffffffffffffffffffffffffff1673ffffffffffffffffffffffffffffffffffffffff166370a08231336040518263ffffffff167c0100000000000000000000000000000000000000000000000000000000028152600401808273ffffffffffffffffffffffffffffffffffffffff1673ffffffffffffffffffffffffffffffffffffffff16815260200191505060206040518083038186803b158015610b7157600080fd5b505afa158015610b85573d6000803e3d6000fd5b505050506040513d6020811015610b9b57600080fd5b810190808051906020019092919050505090505b610bb98382612af4565b915050919050565b6000610c126001600460003373ffffffffffffffffffffffffffffffffffffffff1673ffffffffffffffffffffffffffffffffffffffff168152602001908152602001600020600001540183612e04565b9050919050565b60003073ffffffffffffffffffffffffffffffffffffffff1631905090565b6000600a600084815260200190815260200160002060120160009054906101000a900460ff1690506000610c6b84611fa5565b60000b141515610ce3576040517f08c379a00000000000000000000000000000000000000000000000000000000081526004018080602001828103825260118152602001807f54696d65206973206e6f742076616c696400000000000000000000000000000081525060200191505060405180910390fd5b8015610d7b57600a60008481526020019081526020016000206011015434141515610d76576040517f08c379a00000000000000000000000000000000000000000000000000000000081526004018080602001828103825260158152602001807f446f206e6f7420656e6f7567687420657468657273000000000000000000000081525060200191505060405180910390fd5b610f33565b600a600084815260200190815260200160002060110154600660009054906101000a900473ffffffffffffffffffffffffffffffffffffffff1673ffffffffffffffffffffffffffffffffffffffff1663dd62ed3e33306040518363ffffffff167c0100000000000000000000000000000000000000000000000000000000028152600401808373ffffffffffffffffffffffffffffffffffffffff1673ffffffffffffffffffffffffffffffffffffffff1681526020018273ffffffffffffffffffffffffffffffffffffffff1673ffffffffffffffffffffffffffffffffffffffff1681526020019250505060206040518083038186803b158015610e8157600080fd5b505afa158015610e95573d6000803e3d6000fd5b505050506040513d6020811015610eab57600080fd5b810190808051906020019092919050505010151515610f32576040517f08c379a00000000000000000000000000000000000000000000000000000000081526004018080602001828103825260158152602001807f446f206e6f7420656e6f7567687420746f6b656e73000000000000000000000081525060200191505060405180910390fd5b5b610f3b614835565b6020604051908101604052803373ffffffffffffffffffffffffffffffffffffffff168152509050600a600085815260200190815260200160002060060160008460ff1681526020019081526020016000208190806001815401808255809150509060018203906000526020600020016000909192909190915060008201518160000160006101000a81548173ffffffffffffffffffffffffffffffffffffffff021916908373ffffffffffffffffffffffffffffffffffffffff160217905550505050600a60008581526020019081526020016000206010013390806001815401808255809150509060018203906000526020600020016000909192909190916101000a81548173ffffffffffffffffffffffffffffffffffffffff021916908373ffffffffffffffffffffffffffffffffffffffff1602179055505081156110b85734600a600086815260200190815260200160002060040160008282540192505081905550346007600082825401925050819055506112b1565b6000600a600086815260200190815260200160002060110154905080600a60008781526020019081526020016000206004016000828254019250508190555080600760008282540192505081905550600660009054906101000a900473ffffffffffffffffffffffffffffffffffffffff1673ffffffffffffffffffffffffffffffffffffffff166323b872dd3330846040518463ffffffff167c0100000000000000000000000000000000000000000000000000000000028152600401808473ffffffffffffffffffffffffffffffffffffffff1673ffffffffffffffffffffffffffffffffffffffff1681526020018373ffffffffffffffffffffffffffffffffffffffff1673ffffffffffffffffffffffffffffffffffffffff1681526020018281526020019350505050602060405180830381600087803b15801561120057600080fd5b505af1158015611214573d6000803e3d6000fd5b505050506040513d602081101561122a57600080fd5b810190808051906020019092919050505015156112af576040517f08c379a000000000000000000000000000000000000000000000000000000000815260040180806020018281038252600e8152602001807f5472616e73666572206572726f7200000000000000000000000000000000000081525060200191505060405180910390fd5b505b7fbd233f7452553afaed4cd245a2d8d64cf39150c8cd35dcc8da09884d5bd45f9a600a6000868152602001908152602001600020601101548333876040518080602001868152602001851515151581526020018473ffffffffffffffffffffffffffffffffffffffff1673ffffffffffffffffffffffffffffffffffffffff16815260200180602001848152602001838103835260048152602001807f73656e64000000000000000000000000000000000000000000000000000000008152506020018381038252600b8152602001807f7061727469636970616e74000000000000000000000000000000000000000000815250602001965050505050505060405180910390a150505050565b60025481565b60035481565b6000600660009054906101000a900473ffffffffffffffffffffffffffffffffffffffff1673ffffffffffffffffffffffffffffffffffffffff166370a08231306040518263ffffffff167c0100000000000000000000000000000000000000000000000000000000028152600401808273ffffffffffffffffffffffffffffffffffffffff1673ffffffffffffffffffffffffffffffffffffffff16815260200191505060206040518083038186803b15801561148757600080fd5b505afa15801561149b573d6000803e3d6000fd5b505050506040513d60208110156114b157600080fd5b8101908080519060200190929190505050905090565b600080600a60008481526020019081526020016000206002015442031215156115e857600042600854600a60008681526020019081526020016000206002015401031215156115df5760008090505b600a6000848152602001908152602001600020601001805490508160ff1610156115d5573373ffffffffffffffffffffffffffffffffffffffff16600a60008581526020019081526020016000206010018260ff1681548110151561157757fe5b9060005260206000200160009054906101000a900473ffffffffffffffffffffffffffffffffffffffff1673ffffffffffffffffffffffffffffffffffffffff1614156115c85760039150506115ed565b8080600101915050611516565b50600090506115ed565b600290506115ed565b600190505b919050565b60006115fd836114c7565b60000b141515611675576040517f08c379a00000000000000000000000000000000000000000000000000000000081526004018080602001828103825260118152602001807f54696d65206973206e6f742076616c696400000000000000000000000000000081525060200191505060405180910390fd5b61167d61485f565b6020604051908101604052803373ffffffffffffffffffffffffffffffffffffffff168152509050600a600084815260200190815260200160002060070160008360ff1681526020019081526020016000208190806001815401808255809150509060018203906000526020600020016000909192909190915060008201518160000160006101000a81548173ffffffffffffffffffffffffffffffffffffffff021916908373ffffffffffffffffffffffffffffffffffffffff16021790555050505060006001600a600086815260200190815260200160002060090154019050600a6000858152602001908152602001600020600801548114156117a65780600a6000868152602001908152602001600020600901819055506117a184612ed4565b6117c2565b80600a6000868152602001908152602001600020600901819055505b50505050565b80600590805190602001906117de929190614889565b5050565b600960009054906101000a900473ffffffffffffffffffffffffffffffffffffffff1681565b600660009054906101000a900473ffffffffffffffffffffffffffffffffffffffff1681565b6000806000806000806000600a6000898152602001908152602001600020600b0154600a60008a8152602001908152602001600020600d0154600a60008b815260200190815260200160002060040154600a60008c8152602001908152602001600020600e0154600a60008d815260200190815260200160002060120160019054906101000a900460ff16600a60008e8152602001908152602001600020600f0154600a60008f8152602001908152602001600020600c01549650965096509650965096509650919395979092949650565b60006001600460003373ffffffffffffffffffffffffffffffffffffffff1673ffffffffffffffffffffffffffffffffffffffff16815260200190815260200160002060000154101515611a3c5760008090506000600190505b600460003373ffffffffffffffffffffffffffffffffffffffff1673ffffffffffffffffffffffffffffffffffffffff168152602001908152602001600020600001548160ff16111515611a32576000600460003373ffffffffffffffffffffffffffffffffffffffff1673ffffffffffffffffffffffffffffffffffffffff16815260200190815260200160002060010160008360ff16815260200190815260200160002060020160009054906101000a900460ff169050611a208260ff1682612e04565b8301925050808060010191505061195a565b5080915050611a41565b600090505b90565b600080600080600160009054906101000a900473ffffffffffffffffffffffffffffffffffffffff1673ffffffffffffffffffffffffffffffffffffffff163373ffffffffffffffffffffffffffffffffffffffff16141515611af2576040517f08c379a000000000000000000000000000000000000000000000000000000000815260040180806020018281038252602481526020018061491d6024913960400191505060405180910390fd5b6000600460008773ffffffffffffffffffffffffffffffffffffffff1673ffffffffffffffffffffffffffffffffffffffff16815260200190815260200160002060000154111515611bac576040517f08c379a000000000000000000000000000000000000000000000000000000000815260040180806020018281038252601c8152602001807f446f206e6f74206861766520636f696e73206f6e206163636f756e740000000081525060200191505060405180910390fd5b6000600460008773ffffffffffffffffffffffffffffffffffffffff1673ffffffffffffffffffffffffffffffffffffffff1681526020019081526020016000206000015490506000600460008873ffffffffffffffffffffffffffffffffffffffff1673ffffffffffffffffffffffffffffffffffffffff168152602001908152602001600020600101600083815260200190815260200160002060000160009054906101000a900473ffffffffffffffffffffffffffffffffffffffff1690508673ffffffffffffffffffffffffffffffffffffffff168173ffffffffffffffffffffffffffffffffffffffff16141515611d11576040517f08c379a00000000000000000000000000000000000000000000000000000000081526004018080602001828103825260138152602001807f416464726573736573206e6f7420657175616c0000000000000000000000000081525060200191505060405180910390fd5b6000600460008973ffffffffffffffffffffffffffffffffffffffff1673ffffffffffffffffffffffffffffffffffffffff1681526020019081526020016000206001016000848152602001908152602001600020600101549050600460008373ffffffffffffffffffffffffffffffffffffffff1673ffffffffffffffffffffffffffffffffffffffff16815260200190815260200160002060000160008154809291906001900391905055506000600460008a73ffffffffffffffffffffffffffffffffffffffff1673ffffffffffffffffffffffffffffffffffffffff168152602001908152602001600020600101600085815260200190815260200160002060020160009054906101000a900460ff1690506000600460008b73ffffffffffffffffffffffffffffffffffffffff1673ffffffffffffffffffffffffffffffffffffffff1681526020019081526020016000206001016000868152602001908152602001600020600301549050600460008b73ffffffffffffffffffffffffffffffffffffffff1673ffffffffffffffffffffffffffffffffffffffff1681526020019081526020016000206001016000868152602001908152602001600020600080820160006101000a81549073ffffffffffffffffffffffffffffffffffffffff021916905560018201600090556002820160006101000a81549060ff0219169055600382016000905550508115611f89578373ffffffffffffffffffffffffffffffffffffffff166108fc849081150290604051600060405180830381858888f19350505050158015611f6f573d6000803e3d6000fd5b508284838382925098509850985098505050505050611f9e565b82848383829250985098509850985050505050505b9193509193565b600080600a6000848152602001908152602001600020600101544203121515611ffc57600042600a60008581526020019081526020016000206002015403121515611ff35760009050612001565b60029050612001565b600190505b919050565b600160009054906101000a900473ffffffffffffffffffffffffffffffffffffffff1673ffffffffffffffffffffffffffffffffffffffff163373ffffffffffffffffffffffffffffffffffffffff161415156120cb576040517f08c379a000000000000000000000000000000000000000000000000000000000815260040180806020018281038252601b8152602001807f6f6e6c79206f776e65722063616e206368616e6765207072696365000000000081525060200191505060405180910390fd5b670de0b6b3a7640000828115156120de57fe5b04600281905550670de0b6b3a7640000818115156120f857fe5b046003819055505050565b60003373ffffffffffffffffffffffffffffffffffffffff16600a6000848152602001908152602001600020600a0160009054906101000a900473ffffffffffffffffffffffffffffffffffffffff1673ffffffffffffffffffffffffffffffffffffffff1614156121a0576000600a600084815260200190815260200160002060040154141561219757600090506121a5565b600190506121a5565b600290505b919050565b600060058054905014156121bd576121d3565b6121d260056000600160058054905003612fa2565b5b565b600160009054906101000a900473ffffffffffffffffffffffffffffffffffffffff1681565b89600a60008c81526020019081526020016000206000018190555087600a60008c81526020019081526020016000206002018190555084600a60008c815260200190815260200160002060030160006101000a81548160ff021916908360ff16021790555088600a60008c81526020019081526020016000206001018190555083600a60008c81526020019081526020016000206008018190555033600a60008c8152602001908152602001600020600a0160006101000a81548173ffffffffffffffffffffffffffffffffffffffff021916908373ffffffffffffffffffffffffffffffffffffffff16021790555082600a60008c81526020019081526020016000206011018190555080600a60008c815260200190815260200160002060120160006101000a81548160ff02191690831515021790555060008760ff161415612375576003600a60008c815260200190815260200160002060050160006101000a81548160ff021916908360ff1602179055506123a5565b86600a60008c815260200190815260200160002060050160006101000a81548160ff021916908360ff1602179055505b60008660ff1614156123e6576005600a60008c815260200190815260200160002060050160016101000a81548160ff021916908360ff160217905550612416565b85600a60008c815260200190815260200160002060050160016101000a81548160ff021916908360ff1602179055505b6000612422838c612b4d565b90508215156127755780600660009054906101000a900473ffffffffffffffffffffffffffffffffffffffff1673ffffffffffffffffffffffffffffffffffffffff1663dd62ed3e33306040518363ffffffff167c0100000000000000000000000000000000000000000000000000000000028152600401808373ffffffffffffffffffffffffffffffffffffffff1673ffffffffffffffffffffffffffffffffffffffff1681526020018273ffffffffffffffffffffffffffffffffffffffff1673ffffffffffffffffffffffffffffffffffffffff1681526020019250505060206040518083038186803b15801561251b57600080fd5b505afa15801561252f573d6000803e3d6000fd5b505050506040513d602081101561254557600080fd5b8101908080519060200190929190505050101515156125cc576040517f08c379a00000000000000000000000000000000000000000000000000000000081526004018080602001828103825260158152602001807f446f206e6f7420656e6f7567687420657468657273000000000000000000000081525060200191505060405180910390fd5b600660009054906101000a900473ffffffffffffffffffffffffffffffffffffffff1673ffffffffffffffffffffffffffffffffffffffff166323b872dd3330846040518463ffffffff167c0100000000000000000000000000000000000000000000000000000000028152600401808473ffffffffffffffffffffffffffffffffffffffff1673ffffffffffffffffffffffffffffffffffffffff1681526020018373ffffffffffffffffffffffffffffffffffffffff1673ffffffffffffffffffffffffffffffffffffffff1681526020018281526020019350505050602060405180830381600087803b1580156126c557600080fd5b505af11580156126d9573d6000803e3d6000fd5b505050506040513d60208110156126ef57600080fd5b81019080805190602001909291905050501515612774576040517f08c379a000000000000000000000000000000000000000000000000000000000815260040180806020018281038252600e8152602001807f5472616e73666572206572726f7200000000000000000000000000000000000081525060200191505060405180910390fd5b5b7fbd233f7452553afaed4cd245a2d8d64cf39150c8cd35dcc8da09884d5bd45f9a8184338e6040518080602001868152602001851515151581526020018473ffffffffffffffffffffffffffffffffffffffff1673ffffffffffffffffffffffffffffffffffffffff16815260200180602001848152602001838103835260048152602001807f73656e64000000000000000000000000000000000000000000000000000000008152506020018381038252600a8152602001807f686f6c64206d6f6e657900000000000000000000000000000000000000000000815250602001965050505050505060405180910390a15050505050505050505050565b6000806001600460003373ffffffffffffffffffffffffffffffffffffffff1673ffffffffffffffffffffffffffffffffffffffff16815260200190815260200160002060000154039050600460003373ffffffffffffffffffffffffffffffffffffffff1673ffffffffffffffffffffffffffffffffffffffff16815260200190815260200160002060010160008281526020019081526020016000206001015491505090565b600061292682612103565b60000b14151561299e576040517f08c379a00000000000000000000000000000000000000000000000000000000081526004018080602001828103825260158152602001807f44656c657465206576656e742069732066616c7365000000000000000000000081525060200191505060405180910390fd5b600a6000828152602001908152602001600020600080820160009055600182016000905560028201600090556003820160006101000a81549060ff021916905560048201600090556005820160006101000a81549060ff02191690556005820160016101000a81549060ff021916905560088201600090556009820160009055600a820160006101000a81549073ffffffffffffffffffffffffffffffffffffffff0219169055600b820160009055600c820160009055600d820160009055600e820160009055600f820160009055601082016000612a7d91906148d6565b60118201600090556012820160006101000a81549060ff02191690556012820160016101000a81549060ff0219169055505050565b600581815481101515612ac157fe5b906000526020600020016000915090505481565b60003073ffffffffffffffffffffffffffffffffffffffff1631905090565b6000808315612b1c573373ffffffffffffffffffffffffffffffffffffffff16319050612b20565b8290505b612b2984610bc1565b81101515612b3b576000915050612b41565b60019150505b92915050565b60075481565b60008215612b6657612b5f8383613102565b9050612b73565b612b7083836133e2565b90505b92915050565b600080600080612b8885611a44565b9350935093509350811515612d0c57600660009054906101000a900473ffffffffffffffffffffffffffffffffffffffff1673ffffffffffffffffffffffffffffffffffffffff1663a9059cbb84866040518363ffffffff167c0100000000000000000000000000000000000000000000000000000000028152600401808373ffffffffffffffffffffffffffffffffffffffff1673ffffffffffffffffffffffffffffffffffffffff16815260200182815260200192505050602060405180830381600087803b158015612c5c57600080fd5b505af1158015612c70573d6000803e3d6000fd5b505050506040513d6020811015612c8657600080fd5b81019080805190602001909291905050501515612d0b576040517f08c379a000000000000000000000000000000000000000000000000000000000815260040180806020018281038252601f8152602001807f5472616e7366657220455243323020746f20686f7374206973206572726f720081525060200191505060405180910390fd5b5b7fbd233f7452553afaed4cd245a2d8d64cf39150c8cd35dcc8da09884d5bd45f9a848385846040518080602001868152602001851515151581526020018473ffffffffffffffffffffffffffffffffffffffff1673ffffffffffffffffffffffffffffffffffffffff16815260200180602001848152602001838103835260078152602001807f72656365697665000000000000000000000000000000000000000000000000008152506020018381038252600a8152602001807f686f6c64206d6f6e657900000000000000000000000000000000000000000000815250602001965050505050505060405180910390a15050505050565b60008060005490506001841415612e59578215612e3457606460025482811515612e2a57fe5b0402915050612ece565b6002606460035483811515612e4557fe5b0402811515612e5057fe5b04915050612ece565b600284101515612ecc576000600190505b848160ff161015612e875781820191508080600101915050612e6a565b508215612ea757606460025482811515612e9d57fe5b0402915050612ece565b6002606460035483811515612eb857fe5b0402811515612ec357fe5b04915050612ece565b505b92915050565b6000809050600080600a600085815260200190815260200160002060030160009054906101000a900460ff16905060008090505b8160ff168160ff161015612f8f5783600a600087815260200190815260200160002060070160008360ff168152602001908152602001600020805490501115612f8257600a600086815260200190815260200160002060070160008260ff1681526020019081526020016000208054905093508060ff1692505b8080600101915050612f08565b50612f9c82848684613650565b50505050565b600082905060008290506000856002868603811515612fbd57fe5b048601815481101515612fcc57fe5b906000526020600020015490505b81831115156130d2575b808684815481101515612ff357fe5b90600052602060002001541015613011578280600101935050612fe4565b5b858281548110151561302057fe5b906000526020600020015481101561304057818060019003925050613012565b81831115156130cd57858281548110151561305757fe5b9060005260206000200154868481548110151561307057fe5b9060005260206000200154878581548110151561308957fe5b90600052602060002001600089868154811015156130a357fe5b90600052602060002001600084919050558391905055505082806001019350508180600190039250505b612fda565b818510156130e6576130e5868684612fa2565b5b838310156130fa576130f9868486612fa2565b5b505050505050565b600061310d83610bc1565b34141515613183576040517f08c379a00000000000000000000000000000000000000000000000000000000081526004018080602001828103825260148152602001807f446f206e6f7420656e6f75676874206d6f6e657900000000000000000000000081525060200191505060405180910390fd5b60006001600460003373ffffffffffffffffffffffffffffffffffffffff1673ffffffffffffffffffffffffffffffffffffffff1681526020019081526020016000206000015401905033600460003373ffffffffffffffffffffffffffffffffffffffff1673ffffffffffffffffffffffffffffffffffffffff168152602001908152602001600020600101600083815260200190815260200160002060000160006101000a81548173ffffffffffffffffffffffffffffffffffffffff021916908373ffffffffffffffffffffffffffffffffffffffff16021790555034600460003373ffffffffffffffffffffffffffffffffffffffff1673ffffffffffffffffffffffffffffffffffffffff16815260200190815260200160002060010160008381526020019081526020016000206001018190555083600460003373ffffffffffffffffffffffffffffffffffffffff1673ffffffffffffffffffffffffffffffffffffffff168152602001908152602001600020600101600083815260200190815260200160002060020160006101000a81548160ff02191690831515021790555082600460003373ffffffffffffffffffffffffffffffffffffffff1673ffffffffffffffffffffffffffffffffffffffff168152602001908152602001600020600101600083815260200190815260200160002060030181905550600460003373ffffffffffffffffffffffffffffffffffffffff1673ffffffffffffffffffffffffffffffffffffffff168152602001908152602001600020600001600081548092919060010191905055503491505092915050565b6000806133ee84610bc1565b905060006001600460003373ffffffffffffffffffffffffffffffffffffffff1673ffffffffffffffffffffffffffffffffffffffff1681526020019081526020016000206000015401905033600460003373ffffffffffffffffffffffffffffffffffffffff1673ffffffffffffffffffffffffffffffffffffffff168152602001908152602001600020600101600083815260200190815260200160002060000160006101000a81548173ffffffffffffffffffffffffffffffffffffffff021916908373ffffffffffffffffffffffffffffffffffffffff16021790555081600460003373ffffffffffffffffffffffffffffffffffffffff1673ffffffffffffffffffffffffffffffffffffffff16815260200190815260200160002060010160008381526020019081526020016000206001018190555084600460003373ffffffffffffffffffffffffffffffffffffffff1673ffffffffffffffffffffffffffffffffffffffff168152602001908152602001600020600101600083815260200190815260200160002060020160006101000a81548160ff02191690831515021790555083600460003373ffffffffffffffffffffffffffffffffffffffff1673ffffffffffffffffffffffffffffffffffffffff168152602001908152602001600020600101600083815260200190815260200160002060030181905550600460003373ffffffffffffffffffffffffffffffffffffffff1673ffffffffffffffffffffffffffffffffffffffff16815260200190815260200160002060000160008154809291906001019190505550819250505092915050565b600080905060608260ff166040519080825280602002602001820160405280156136895781602001602082028038833980820191505090505b50905060008090505b8360ff168160ff1610156136fa57600a600086815260200190815260200160002060070160008260ff16815260200190815260200160002080549050828260ff168151811015156136df57fe5b90602001906020020181815250508080600101915050613692565b50613704816117c8565b61370c6121aa565b60008090505b6001600580549050038160ff1610156137b7576005805490506001820160ff1610156137aa5760058160ff1681548110151561374a57fe5b906000526020600020015460056001830160ff1681548110151561376a57fe5b906000526020600020015414156137a95760058160ff1681548110151561378d57fe5b90600052602060002001548614156137a85782806001019350505b5b5b8080600101915050613712565b5060008260ff1611156137d2576137cd84613800565b6137f8565b85600a6000868152602001908152602001600020600f01819055506137f78685613b79565b5b505050505050565b6000600a600083815260200190815260200160002060120160009054906101000a900460ff1690506000600a60008481526020019081526020016000206011015490506000600a600085815260200190815260200160002060030160009054906101000a900460ff1660ff16905060008090505b818160ff161215613b0c5760008090505b600a600087815260200190815260200160002060060160008360ff168152602001908152602001600020805490508160ff161015613afe576000600a600088815260200190815260200160002060060160008460ff1681526020019081526020016000208260ff168154811015156138f957fe5b9060005260206000200160000160009054906101000a900473ffffffffffffffffffffffffffffffffffffffff169050851561397b578073ffffffffffffffffffffffffffffffffffffffff166108fc869081150290604051600060405180830381858888f19350505050158015613975573d6000803e3d6000fd5b50613af0565b600660009054906101000a900473ffffffffffffffffffffffffffffffffffffffff1673ffffffffffffffffffffffffffffffffffffffff1663a9059cbb82876040518363ffffffff167c0100000000000000000000000000000000000000000000000000000000028152600401808373ffffffffffffffffffffffffffffffffffffffff1673ffffffffffffffffffffffffffffffffffffffff16815260200182815260200192505050602060405180830381600087803b158015613a4057600080fd5b505af1158015613a54573d6000803e3d6000fd5b505050506040513d6020811015613a6a57600080fd5b81019080805190602001909291905050501515613aef576040517f08c379a000000000000000000000000000000000000000000000000000000000815260040180806020018281038252601f8152602001807f5472616e7366657220455243323020746f20686f7374206973206572726f720081525060200191505060405180910390fd5b5b508080600101915050613885565b508080600101915050613874565b506001600a600086815260200190815260200160002060120160016101000a81548160ff0219169083151502179055507fd1e2a93de73d2833bf993f270a45e97a74d8b22dfd59e37f57093127b96008c0846040518082815260200191505060405180910390a150505050565b6000600a600083815260200190815260200160002060120160009054906101000a900460ff1690506000600a6000848152602001908152602001600020600401541115613e67576000613bf4600a600085815260200190815260200160002060040154600660149054906101000a900460ff1660ff16613e6c565b905080600a60008581526020019081526020016000206004015403600a60008581526020019081526020016000206004018190555080600754036007819055508115613ca857600960009054906101000a900473ffffffffffffffffffffffffffffffffffffffff1673ffffffffffffffffffffffffffffffffffffffff166108fc829081150290604051600060405180830381858888f19350505050158015613ca2573d6000803e3d6000fd5b50613e3f565b600660009054906101000a900473ffffffffffffffffffffffffffffffffffffffff1673ffffffffffffffffffffffffffffffffffffffff1663a9059cbb600960009054906101000a900473ffffffffffffffffffffffffffffffffffffffff16836040518363ffffffff167c0100000000000000000000000000000000000000000000000000000000028152600401808373ffffffffffffffffffffffffffffffffffffffff1673ffffffffffffffffffffffffffffffffffffffff16815260200182815260200192505050602060405180830381600087803b158015613d8f57600080fd5b505af1158015613da3573d6000803e3d6000fd5b505050506040513d6020811015613db957600080fd5b81019080805190602001909291905050501515613e3e576040517f08c379a000000000000000000000000000000000000000000000000000000000815260040180806020018281038252601f8152602001807f5472616e7366657220455243323020746f20686f7374206973206572726f720081525060200191505060405180910390fd5b5b80600a6000858152602001908152602001600020600b0181905550613e65848484613e85565b505b505050565b60006064838302811515613e7c57fe5b04905092915050565b6000613ecd600a600085815260200190815260200160002060040154600a600086815260200190815260200160002060050160009054906101000a900460ff1660ff16613e6c565b905080600a60008581526020019081526020016000206004015403600a60008581526020019081526020016000206004018190555080600754036007819055506000600a6000858152602001908152602001600020600a0160009054906101000a900473ffffffffffffffffffffffffffffffffffffffff1690508215613f9a578073ffffffffffffffffffffffffffffffffffffffff166108fc839081150290604051600060405180830381858888f19350505050158015613f94573d6000803e3d6000fd5b5061410f565b600660009054906101000a900473ffffffffffffffffffffffffffffffffffffffff1673ffffffffffffffffffffffffffffffffffffffff1663a9059cbb82846040518363ffffffff167c0100000000000000000000000000000000000000000000000000000000028152600401808373ffffffffffffffffffffffffffffffffffffffff1673ffffffffffffffffffffffffffffffffffffffff16815260200182815260200192505050602060405180830381600087803b15801561405f57600080fd5b505af1158015614073573d6000803e3d6000fd5b505050506040513d602081101561408957600080fd5b8101908080519060200190929190505050151561410e576040517f08c379a000000000000000000000000000000000000000000000000000000000815260040180806020018281038252601f8152602001807f5472616e7366657220455243323020746f20686f7374206973206572726f720081525060200191505060405180910390fd5b5b81600a6000868152602001908152602001600020600c018190555061413585858561413c565b5050505050565b6000614184600a600085815260200190815260200160002060040154600a600086815260200190815260200160002060050160019054906101000a900460ff1660ff16613e6c565b90506000600a6000858152602001908152602001600020600701600086815260200190815260200160002080549050828115156141bd57fe5b049050816007540360078190555080600a6000868152602001908152602001600020600d018190555060008090505b600a60008681526020019081526020016000206007016000878152602001908152602001600020805490508160ff161015614492576000600a600087815260200190815260200160002060070160008881526020019081526020016000208260ff1681548110151561425a57fe5b9060005260206000200160000160009054906101000a900473ffffffffffffffffffffffffffffffffffffffff16905082600a60008881526020019081526020016000206004015403600a600088815260200190815260200160002060040181905550841561430f578073ffffffffffffffffffffffffffffffffffffffff166108fc849081150290604051600060405180830381858888f19350505050158015614309573d6000803e3d6000fd5b50614484565b600660009054906101000a900473ffffffffffffffffffffffffffffffffffffffff1673ffffffffffffffffffffffffffffffffffffffff1663a9059cbb82856040518363ffffffff167c0100000000000000000000000000000000000000000000000000000000028152600401808373ffffffffffffffffffffffffffffffffffffffff1673ffffffffffffffffffffffffffffffffffffffff16815260200182815260200192505050602060405180830381600087803b1580156143d457600080fd5b505af11580156143e8573d6000803e3d6000fd5b505050506040513d60208110156143fe57600080fd5b81019080805190602001909291905050501515614483576040517f08c379a000000000000000000000000000000000000000000000000000000000815260040180806020018281038252601f8152602001807f5472616e7366657220455243323020746f20686f7374206973206572726f720081525060200191505060405180910390fd5b5b5080806001019150506141ec565b5061449e8585856144a5565b5050505050565b6000600a6000848152602001908152602001600020600601600085815260200190815260200160002080549050600a6000858152602001908152602001600020600401548115156144f257fe5b04905060008090505b600a60008581526020019081526020016000206006016000868152602001908152602001600020805490508160ff1610156147a1576000600a600086815260200190815260200160002060060160008781526020019081526020016000208260ff1681548110151561456957fe5b9060005260206000200160000160009054906101000a900473ffffffffffffffffffffffffffffffffffffffff16905082600a60008781526020019081526020016000206004015403600a600087815260200190815260200160002060040181905550831561461e578073ffffffffffffffffffffffffffffffffffffffff166108fc849081150290604051600060405180830381858888f19350505050158015614618573d6000803e3d6000fd5b50614793565b600660009054906101000a900473ffffffffffffffffffffffffffffffffffffffff1673ffffffffffffffffffffffffffffffffffffffff1663a9059cbb82856040518363ffffffff167c0100000000000000000000000000000000000000000000000000000000028152600401808373ffffffffffffffffffffffffffffffffffffffff1673ffffffffffffffffffffffffffffffffffffffff16815260200182815260200192505050602060405180830381600087803b1580156146e357600080fd5b505af11580156146f7573d6000803e3d6000fd5b505050506040513d602081101561470d57600080fd5b81019080805190602001909291905050501515614792576040517f08c379a000000000000000000000000000000000000000000000000000000000815260040180806020018281038252601f8152602001807f5472616e7366657220455243323020746f20686f7374206973206572726f720081525060200191505060405180910390fd5b5b5080806001019150506144fb565b5080600a6000858152602001908152602001600020600e01819055506000600a600085815260200190815260200160002060120160016101000a81548160ff0219169083151502179055507fd320079e0e35887df7aac9ad79d3da039625f35f0771dc81bb90e367302328ac838360405180838152602001821515151581526020019250505060405180910390a150505050565b602060405190810160405280600073ffffffffffffffffffffffffffffffffffffffff1681525090565b602060405190810160405280600073ffffffffffffffffffffffffffffffffffffffff1681525090565b8280548282559060005260206000209081019282156148c5579160200282015b828111156148c45782518255916020019190600101906148a9565b5b5090506148d291906148f7565b5090565b50805460008255906000526020600020908101906148f491906148f7565b50565b61491991905b808211156149155760008160009055506001016148fd565b5090565b9056fe4f6e6c79206f776e65722063616e206578656375746520746869732066756e6374696f6ea165627a7a723058205eb1c35c3961cbaa29ca2160e3f896940ec92bf3988aa4a4c2597501e0693d9d0029",
  "source": "pragma solidity >=0.5.2 < 0.6.6;\n\nimport \"./HoldMoney.sol\";\nimport \"./LoomERC20Coin.sol\";\nimport \"./Sorter.sol\";\n\n\ncontract Quize is HoldMoney, Sorter {\n    LoomERC20Coin public tokenContract;\n\n    uint8 private percentQuiz = 2;\n    uint256 public fullAmount;\n    uint256 private sevenDaysTimeStamp = 604800;\n    address payable public companyAddress;\n\n    event eventIsFinish(int256 question_id, bool payEther);\n    event payEvent(string path, uint256 money, bool payEther, address wallet, string from, int256 question_id);\n    event revertedEvent(int256 question_id);\n\n    struct Participant {\n        address payable participants;\n    }\n\n    struct Validator {\n        address payable validators;\n    }\n\n    struct Question {\n        int256 question_id;\n        uint256 startTime;\n        uint256 endTime;\n        uint8 questionQuantity;\n        uint256 money;\n        uint8 percentHost;\n        uint8 percentValidator;\n        mapping(uint256 => Participant[]) participant;\n        mapping(uint256 => Validator[]) validator;\n        int256 validatorsAmount;\n        int256 activeValidators;\n        address payable hostWallet;\n        uint256 persentFeeCompany;\n        uint256 persentFeeHost;\n        uint256 persentForEachValidators;\n        uint256 moneyForParticipant;\n        uint256 correctAnswer;\n        address[] allParticipant;\n        uint256 quizePrice;\n        bool payEther;\n        bool reverted;\n    }\n\n    mapping(int256 => Question) questions;\n\n    constructor(LoomERC20Coin _tokenContract) public {\n        tokenContract = _tokenContract;\n        companyAddress = msg.sender;\n    }\n\n    function startQestion(\n        int256 _question_id,\n        uint256 _startTime,\n        uint256 _endTime,\n        uint8 _percentHost,\n        uint8 _percentValidator,\n        uint8 _questionQuantity,\n        int256 _validatorsAmount,\n        uint256 _quizePrice,\n        bool _pathHoldMoney,\n        bool _payEther\n    ) public payable {\n        questions[_question_id].question_id = _question_id;\n        questions[_question_id].endTime = _endTime;\n        questions[_question_id].questionQuantity = _questionQuantity;\n        questions[_question_id].startTime = _startTime;\n        questions[_question_id].validatorsAmount = _validatorsAmount;\n        questions[_question_id].hostWallet = msg.sender;\n        questions[_question_id].quizePrice = _quizePrice;\n        questions[_question_id].payEther = _payEther;\n\n        if (_percentHost == 0) {\n            questions[_question_id].percentHost = 3;\n        } else {\n            questions[_question_id].percentHost = _percentHost;\n        }\n\n        if (_percentValidator == 0) {\n            questions[_question_id].percentValidator = 5;\n        } else {\n            questions[_question_id].percentValidator = _percentValidator;\n        }\n\n        uint256 amount = _setMoneyRetention(_pathHoldMoney, _question_id);\n        if(!_pathHoldMoney){\n           require(tokenContract.allowance(msg.sender, address(this)) >= amount, \"Do not enought ethers\");\n           require(tokenContract.transferFrom(msg.sender, address(this), amount), \"Transfer error\");\n        }\n        emit payEvent(\"send\", amount, _pathHoldMoney, msg.sender, \"hold money\", _question_id);\n    }\n\n    function setAnswer(int256 _question_id, uint8 _whichAnswer) public payable {\n        bool payEther = questions[_question_id].payEther;\n        require(setTimeAnswer(_question_id) == 0, \"Time is not valid\");\n\n        if(payEther){require(msg.value == questions[_question_id].quizePrice, \"Do not enought ethers\");}\n        else{require(tokenContract.allowance(msg.sender, address(this)) >= questions[_question_id].quizePrice, \"Do not enought tokens\");}\n\n        Participant memory parts;\n        parts = Participant(msg.sender);\n        questions[_question_id].participant[_whichAnswer].push(parts);\n        questions[_question_id].allParticipant.push(msg.sender);\n\n        if(payEther){\n            questions[_question_id].money += msg.value;\n            fullAmount += msg.value;\n        }else{\n            uint256 price = questions[_question_id].quizePrice;\n            questions[_question_id].money += price;\n            fullAmount += price;\n            require(tokenContract.transferFrom(msg.sender, address(this), price), \"Transfer error\");\n        }\n\n        emit payEvent(\"send\", questions[_question_id].quizePrice, payEther, msg.sender, \"participant\", _question_id);\n\n    }\n\n    function setValidator(int256 _question_id, uint8 _whichAnswer) public payable {\n        require(setTimeValidator(_question_id) == 0, \"Time is not valid\");\n        Validator memory valid;\n        valid = Validator(msg.sender);\n        questions[_question_id].validator[_whichAnswer].push(valid);\n        int256 active = questions[_question_id].activeValidators + 1;\n        if (active == questions[_question_id].validatorsAmount) {\n            questions[_question_id].activeValidators = active;\n            letsFindCorrectAnswer(_question_id);\n        } else {\n            questions[_question_id].activeValidators = active;\n        }\n    }\n\n    function letsFindCorrectAnswer(int256 _question_id) private {\n        uint256 biggestValue = 0;\n        uint256 correctAnswer;\n        uint8 questionQuantity = questions[_question_id].questionQuantity;\n\n        // find correct answer\n        for (uint8 i = 0; i < questionQuantity; i++) {\n            if (questions[_question_id].validator[i].length > biggestValue) {\n                biggestValue = questions[_question_id].validator[i].length;\n                correctAnswer = i;\n            }\n        }\n\n        findDuplicates(correctAnswer, biggestValue, _question_id, questionQuantity);\n    }\n\n    function findDuplicates(uint256 correctAnswer, uint256 biggestValue, int256 _question_id, uint8 questionQuantity) private {\n        uint8 duplicatesAnswers = 0;\n        uint256[] memory allValidatorsAnswers = new uint[](questionQuantity);\n        for (uint8 i = 0; i < questionQuantity; i++) {\n            allValidatorsAnswers[i] = questions[_question_id].validator[i].length;\n        }\n\n        setSort(allValidatorsAnswers);\n        sort();\n\n        for (uint8 i = 0; i < sortedArray.length - 1; i++) {\n            if((i+1) < sortedArray.length){\n              if (sortedArray[i + 1] == sortedArray[i]) {\n                  if(biggestValue == sortedArray[i]){\n                    duplicatesAnswers ++;\n                  }\n              }\n            }\n        }\n\n        if(duplicatesAnswers > 0){\n            revertedPayment(_question_id);\n        }else{\n            questions[_question_id].correctAnswer = correctAnswer;\n            letsPayCompanyFee(correctAnswer, _question_id);\n        }\n    }\n\n    function letsPayCompanyFee(uint256 correctAnswer, int256 _question_id) private {\n        bool payEther = questions[_question_id].payEther;\n        if (questions[_question_id].money > 0) {\n            // pay fee for company\n            uint256 persentFee = getPersent(\n                questions[_question_id].money,\n                percentQuiz\n            );\n            questions[_question_id].money = questions[_question_id].money - persentFee;\n            fullAmount = fullAmount - persentFee;\n            if(payEther){companyAddress.transfer(persentFee);}\n            else{require(tokenContract.transfer(companyAddress, persentFee), \"Transfer ERC20 to host is error\");}\n            questions[_question_id].persentFeeCompany = persentFee;\n\n            letsPayHostFee(correctAnswer, _question_id, payEther);\n        }\n    }\n\n    function letsPayHostFee(uint256 correctAnswer, int256 _question_id, bool payEther) private {\n        // pay fee for host\n        uint256 persHostFee = getPersent(\n            questions[_question_id].money,\n            questions[_question_id].percentHost\n        );\n        questions[_question_id].money = questions[_question_id].money - persHostFee;\n        fullAmount = fullAmount - persHostFee;\n        address payable hostWallet = questions[_question_id].hostWallet;\n        if(payEther){hostWallet.transfer(persHostFee);}\n        else{require(tokenContract.transfer(hostWallet, persHostFee), \"Transfer ERC20 to host is error\");}\n        questions[_question_id].persentFeeHost = persHostFee;\n\n        letsPayValidatorFee(correctAnswer, _question_id, payEther);\n    }\n\n    function letsPayValidatorFee(uint256 correctAnswer, int256 _question_id, bool payEther) private {\n        // calculate percent for validator\n        uint256 persentForValidators = getPersent(\n            questions[_question_id].money,\n            questions[_question_id].percentValidator\n        );\n        uint256 persentForEachValidators = persentForValidators / questions[_question_id].validator[correctAnswer].length;\n        fullAmount = fullAmount - persentForValidators;\n\n        questions[_question_id].persentForEachValidators = persentForEachValidators;\n\n        // pay for validatos\n        for (uint8 i = 0; i < questions[_question_id].validator[correctAnswer].length; i++ ) {\n            address payable _validator = questions[_question_id].validator[correctAnswer][i].validators;\n            questions[_question_id].money = questions[_question_id].money - persentForEachValidators;\n\n            if(payEther){_validator.transfer(persentForEachValidators);}\n            else{require(tokenContract.transfer(_validator, persentForEachValidators), \"Transfer ERC20 to host is error\");}\n\n        }\n\n        letsPayParticipantFee(correctAnswer, _question_id, payEther);\n    }\n\n    function letsPayParticipantFee(uint256 correctAnswer, int256 _question_id, bool payEther) private{\n         // Pay for participant\n        uint256 moneyForParticipant = questions[_question_id].money / questions[_question_id].participant[correctAnswer].length;\n        for ( uint8 i = 0; i < questions[_question_id].participant[correctAnswer].length; i++) {\n            address payable _participant = questions[_question_id].participant[correctAnswer][i].participants;\n            questions[_question_id].money = questions[_question_id].money - moneyForParticipant;\n\n            if(payEther){_participant.transfer(moneyForParticipant);}\n            else{require(tokenContract.transfer(_participant, moneyForParticipant), \"Transfer ERC20 to host is error\");}\n\n        }\n\n        questions[_question_id].moneyForParticipant = moneyForParticipant;\n        questions[_question_id].reverted = false;\n\n        emit eventIsFinish(_question_id, payEther);\n    }\n\n    function revertedPayment(int256 _question_id) private{\n        bool payEther = questions[_question_id].payEther;\n        uint256 price = questions[_question_id].quizePrice;\n        int256 questionQuantity = questions[_question_id].questionQuantity;\n\n        for (uint8 i = 0; i < questionQuantity; i++) {\n          for(uint8 index = 0; index < questions[_question_id].participant[i].length; index++){\n                address payable _participant = questions[_question_id].participant[i][index].participants;\n                if(payEther){\n                    _participant.transfer(price);\n                }else{\n                    require(tokenContract.transfer(_participant, price), \"Transfer ERC20 to host is error\");\n                }\n            }\n        }\n        questions[_question_id].reverted = true;\n        emit revertedEvent(_question_id);\n    }\n\n    function getPersent(uint256 _percent, uint256 _from)\n        private\n        pure\n        returns (uint256)\n    {\n        return (_from * _percent) / 100;\n    }\n\n    function getQuestion(int256 _question_id)\n        public\n        view\n        returns (\n            uint256 persentFeeCompany,\n            uint256 persentForEachValidators,\n            uint256 money,\n            uint256 moneyForParticipant,\n            bool reverted,\n            uint256 correctAnswer,\n            uint256 persentFeeHost\n        )\n    {\n        return (\n            questions[_question_id].persentFeeCompany,\n            questions[_question_id].persentForEachValidators,\n            questions[_question_id].money,\n            questions[_question_id].moneyForParticipant,\n            questions[_question_id].reverted,\n            questions[_question_id].correctAnswer,\n            questions[_question_id].persentFeeHost\n        );\n    }\n\n    function deleteEvent(int256 _question_id) public {\n        require(\n            deleteEventValidator(_question_id) == 0,\n            \"Delete event is false\"\n        );\n        delete questions[_question_id];\n    }\n\n    function quizeBalance() public view returns (uint256) {\n        return address(this).balance;\n    }\n\n    function getContractTokenBalance() public view returns (uint256) {\n        return tokenContract.balanceOf(address(this));\n    }\n\n    function getMoneyRetention(address payable _host) public payable {\n        (uint256 amount, address host, bool path, int256 _question_id) = _getMoneyRetention(_host);\n        if(!path){\n           require(tokenContract.transfer(host, amount), \"Transfer ERC20 to host is error\");\n        }\n\n        emit payEvent(\"receive\", amount, path, host, \"hold money\", _question_id);\n    }\n\n function amountGuard(bool _path) public view returns (int8) {\n     uint256 balanceToken;\n     if(!_path){\n         balanceToken = tokenContract.balanceOf(address(msg.sender));\n     }\n\n     return _amountGuard(_path, balanceToken);\n }\n\n // VALIDATION\n\n     function setTimeValidator(int256 _question_id) public view returns (int8) {\n        if (int256(now - questions[_question_id].endTime) >= 0){\n            if (int256((questions[_question_id].endTime + sevenDaysTimeStamp) - now) >= 0){\n                // if validator made activities like participants.\n                for (uint8 i = 0; i < questions[_question_id].allParticipant.length; i++) {\n                    if (questions[_question_id].allParticipant[i] == msg.sender) {\n                        return 3;\n                    }\n                }\n                // user can validate because time is valid.\n                return 0;\n            } else {\n                // user can't validate because time is finish.\n                return 2;\n            }\n        } else {\n            // user can't validate because event is not started yet.\n            return 1;\n        }\n    }\n\n    function setTimeAnswer(int256 _question_id) public view returns (int8) {\n        if (int256(now - questions[_question_id].startTime) >= 0) {\n            if (int256(questions[_question_id].endTime - now) >= 0) {\n                // user can make answer because time is valid.\n                return 0;\n            } else {\n                // user can't make answer because event is finish.\n                return 2;\n            }\n        } else {\n            // user can't make answer because event is not started yet.\n            return 1;\n        }\n    }\n\n    function deleteEventValidator(int256 _question_id)\n        public\n        view\n        returns (int8)\n    {\n        if (questions[_question_id].hostWallet == msg.sender) {\n            if (questions[_question_id].money == 0) {\n                // user can delete event\n                return 0;\n            } else {\n                // user can't delete event because event has money on balance\n                return 1;\n            }\n        } else {\n            // only owner can delete event.\n            return 2;\n        }\n    }\n}\n",
  "sourcePath": "/Users/macbook/Documents/freelance/node/QUIZE/contracts/contracts/Quize.sol",
  "compiler": {
    "name": "solc",
    "version": "0.5.2+commit.1df8f40c.Emscripten.clang"
  },
  "schemaVersion": "3.0.2",
  "updatedAt": "2020-05-25T12:38:37.597Z",
  "devdoc": {
    "methods": {}
  },
  "userdoc": {
    "methods": {}
  }
}