{
  "contractName": "Quize",
  "abi": [
    {
      "constant": true,
      "inputs": [
        {
          "name": "_path",
          "type": "bool"
        }
      ],
      "name": "moneyRetentionCalculate",
      "outputs": [
        {
          "name": "",
          "type": "uint256"
        }
      ],
      "payable": false,
      "stateMutability": "view",
      "type": "function"
    },
    {
      "constant": true,
      "inputs": [],
      "name": "holdBalance",
      "outputs": [
        {
          "name": "",
          "type": "uint256"
        }
      ],
      "payable": false,
      "stateMutability": "view",
      "type": "function"
    },
    {
      "constant": true,
      "inputs": [],
      "name": "priceEth",
      "outputs": [
        {
          "name": "",
          "type": "uint256"
        }
      ],
      "payable": false,
      "stateMutability": "view",
      "type": "function"
    },
    {
      "constant": true,
      "inputs": [],
      "name": "priceToken",
      "outputs": [
        {
          "name": "",
          "type": "uint256"
        }
      ],
      "payable": false,
      "stateMutability": "view",
      "type": "function"
    },
    {
      "constant": true,
      "inputs": [],
      "name": "tokenContract",
      "outputs": [
        {
          "name": "",
          "type": "address"
        }
      ],
      "payable": false,
      "stateMutability": "view",
      "type": "function"
    },
    {
      "constant": true,
      "inputs": [],
      "name": "onHold",
      "outputs": [
        {
          "name": "",
          "type": "uint256"
        }
      ],
      "payable": false,
      "stateMutability": "view",
      "type": "function"
    },
    {
      "constant": false,
      "inputs": [
        {
          "name": "_host",
          "type": "address"
        }
      ],
      "name": "_getMoneyRetention",
      "outputs": [
        {
          "name": "",
          "type": "uint256"
        },
        {
          "name": "",
          "type": "address"
        },
        {
          "name": "",
          "type": "bool"
        },
        {
          "name": "",
          "type": "int256"
        }
      ],
      "payable": true,
      "stateMutability": "payable",
      "type": "function"
    },
    {
      "constant": false,
      "inputs": [
        {
          "name": "_priceEth",
          "type": "uint256"
        },
        {
          "name": "_priceToken",
          "type": "uint256"
        }
      ],
      "name": "setEthPrice",
      "outputs": [],
      "payable": false,
      "stateMutability": "nonpayable",
      "type": "function"
    },
    {
      "constant": true,
      "inputs": [],
      "name": "owner",
      "outputs": [
        {
          "name": "",
          "type": "address"
        }
      ],
      "payable": false,
      "stateMutability": "view",
      "type": "function"
    },
    {
      "constant": true,
      "inputs": [],
      "name": "getHoldMoneyById",
      "outputs": [
        {
          "name": "",
          "type": "uint256"
        }
      ],
      "payable": false,
      "stateMutability": "view",
      "type": "function"
    },
    {
      "constant": true,
      "inputs": [
        {
          "name": "_path",
          "type": "bool"
        },
        {
          "name": "balanceToken",
          "type": "uint256"
        }
      ],
      "name": "_amountGuard",
      "outputs": [
        {
          "name": "",
          "type": "int8"
        }
      ],
      "payable": false,
      "stateMutability": "view",
      "type": "function"
    },
    {
      "constant": true,
      "inputs": [],
      "name": "fullAmount",
      "outputs": [
        {
          "name": "",
          "type": "uint256"
        }
      ],
      "payable": false,
      "stateMutability": "view",
      "type": "function"
    },
    {
      "constant": false,
      "inputs": [
        {
          "name": "_pathHoldMoney",
          "type": "bool"
        },
        {
          "name": "question_id",
          "type": "int256"
        }
      ],
      "name": "_setMoneyRetention",
      "outputs": [
        {
          "name": "",
          "type": "uint256"
        }
      ],
      "payable": true,
      "stateMutability": "payable",
      "type": "function"
    },
    {
      "inputs": [
        {
          "name": "_tokenContract",
          "type": "address"
        }
      ],
      "payable": false,
      "stateMutability": "nonpayable",
      "type": "constructor"
    },
    {
      "anonymous": false,
      "inputs": [
        {
          "indexed": false,
          "name": "question_id",
          "type": "int256"
        },
        {
          "indexed": false,
          "name": "payEther",
          "type": "bool"
        }
      ],
      "name": "eventIsFinish",
      "type": "event"
    },
    {
      "anonymous": false,
      "inputs": [
        {
          "indexed": false,
          "name": "path",
          "type": "string"
        },
        {
          "indexed": false,
          "name": "money",
          "type": "uint256"
        },
        {
          "indexed": false,
          "name": "payEther",
          "type": "bool"
        },
        {
          "indexed": false,
          "name": "wallet",
          "type": "address"
        },
        {
          "indexed": false,
          "name": "from",
          "type": "string"
        },
        {
          "indexed": false,
          "name": "question_id",
          "type": "int256"
        }
      ],
      "name": "payEvent",
      "type": "event"
    },
    {
      "constant": false,
      "inputs": [
        {
          "name": "_question_id",
          "type": "int256"
        },
        {
          "name": "_startTime",
          "type": "uint256"
        },
        {
          "name": "_endTime",
          "type": "uint256"
        },
        {
          "name": "_percentHost",
          "type": "uint8"
        },
        {
          "name": "_percentValidator",
          "type": "uint8"
        },
        {
          "name": "_questionQuantity",
          "type": "uint8"
        },
        {
          "name": "_validatorsAmount",
          "type": "int256"
        },
        {
          "name": "_quizePrice",
          "type": "uint256"
        },
        {
          "name": "_pathHoldMoney",
          "type": "bool"
        },
        {
          "name": "_payEther",
          "type": "bool"
        }
      ],
      "name": "startQestion",
      "outputs": [],
      "payable": true,
      "stateMutability": "payable",
      "type": "function"
    },
    {
      "constant": false,
      "inputs": [
        {
          "name": "_question_id",
          "type": "int256"
        },
        {
          "name": "_whichAnswer",
          "type": "uint8"
        }
      ],
      "name": "setAnswer",
      "outputs": [],
      "payable": true,
      "stateMutability": "payable",
      "type": "function"
    },
    {
      "constant": false,
      "inputs": [
        {
          "name": "_question_id",
          "type": "int256"
        },
        {
          "name": "_whichAnswer",
          "type": "uint8"
        }
      ],
      "name": "setValidator",
      "outputs": [],
      "payable": true,
      "stateMutability": "payable",
      "type": "function"
    },
    {
      "constant": true,
      "inputs": [
        {
          "name": "_question_id",
          "type": "int256"
        }
      ],
      "name": "getQuestion",
      "outputs": [
        {
          "name": "persentFeeCompany",
          "type": "uint256"
        },
        {
          "name": "persentForEachValidators",
          "type": "uint256"
        },
        {
          "name": "money",
          "type": "uint256"
        },
        {
          "name": "moneyForParticipant",
          "type": "uint256"
        },
        {
          "name": "questionQuantity",
          "type": "uint8"
        },
        {
          "name": "correctAnswer",
          "type": "uint256"
        },
        {
          "name": "persentFeeHost",
          "type": "uint256"
        }
      ],
      "payable": false,
      "stateMutability": "view",
      "type": "function"
    },
    {
      "constant": true,
      "inputs": [
        {
          "name": "_question_id",
          "type": "int256"
        }
      ],
      "name": "setTimeValidator",
      "outputs": [
        {
          "name": "",
          "type": "int8"
        }
      ],
      "payable": false,
      "stateMutability": "view",
      "type": "function"
    },
    {
      "constant": true,
      "inputs": [
        {
          "name": "_question_id",
          "type": "int256"
        }
      ],
      "name": "setTimeAnswer",
      "outputs": [
        {
          "name": "",
          "type": "int8"
        }
      ],
      "payable": false,
      "stateMutability": "view",
      "type": "function"
    },
    {
      "constant": true,
      "inputs": [
        {
          "name": "_question_id",
          "type": "int256"
        }
      ],
      "name": "deleteEventValidator",
      "outputs": [
        {
          "name": "",
          "type": "int8"
        }
      ],
      "payable": false,
      "stateMutability": "view",
      "type": "function"
    },
    {
      "constant": false,
      "inputs": [
        {
          "name": "_question_id",
          "type": "int256"
        }
      ],
      "name": "deleteEvent",
      "outputs": [],
      "payable": false,
      "stateMutability": "nonpayable",
      "type": "function"
    },
    {
      "constant": true,
      "inputs": [],
      "name": "quizeBalance",
      "outputs": [
        {
          "name": "",
          "type": "uint256"
        }
      ],
      "payable": false,
      "stateMutability": "view",
      "type": "function"
    },
    {
      "constant": true,
      "inputs": [],
      "name": "getContractTokenBalance",
      "outputs": [
        {
          "name": "",
          "type": "uint256"
        }
      ],
      "payable": false,
      "stateMutability": "view",
      "type": "function"
    },
    {
      "constant": false,
      "inputs": [
        {
          "name": "_host",
          "type": "address"
        }
      ],
      "name": "getMoneyRetention",
      "outputs": [],
      "payable": true,
      "stateMutability": "payable",
      "type": "function"
    },
    {
      "constant": true,
      "inputs": [
        {
          "name": "_path",
          "type": "bool"
        }
      ],
      "name": "amountGuard",
      "outputs": [
        {
          "name": "",
          "type": "int8"
        }
      ],
      "payable": false,
      "stateMutability": "view",
      "type": "function"
    }
  ],
  "bytecode": "0x6080604052678ac7230489e800006000556002600560006101000a81548160ff021916908360ff16021790555062093a806007557302810c3bc07de2ddaef89827b0dd6b223c7759d5600860006101000a81548173ffffffffffffffffffffffffffffffffffffffff021916908373ffffffffffffffffffffffffffffffffffffffff16021790555034801561009457600080fd5b50604051602080614135833981018060405260208110156100b457600080fd5b810190808051906020019092919050505033600160006101000a81548173ffffffffffffffffffffffffffffffffffffffff021916908373ffffffffffffffffffffffffffffffffffffffff16021790555080600960006101000a81548173ffffffffffffffffffffffffffffffffffffffff021916908373ffffffffffffffffffffffffffffffffffffffff16021790555050613fde806101576000396000f3fe608060405260043610610183576000357c0100000000000000000000000000000000000000000000000000000000900480638229f5e9116100ee578063acbee282116100a7578063e6ffed5d11610081578063e6ffed5d146107b2578063f5c1ec8114610813578063f733c2871461083e578063f84821711461088c57610183565b8063acbee28214610721578063c9e53b4b1461074c578063e4f874961461078757610183565b80638229f5e9146104a8578063834f80471461054557806383855f1f1461059a57806387b6608d146105df5780638da5cb5b1461063457806398e964b21461068b57610183565b8063317d945311610140578063317d9453146102ec5780633493c8621461031757806334be86c81461036c57806355a373d6146103a757806357146e06146103fe5780637fc505451461047d57610183565b80631c5430ba1461018857806325f0f5ab146101df57806326c989df146102305780632a7100cc1461025b5780632ca38363146102965780632ff6fe76146102c1575b600080fd5b34801561019457600080fd5b506101c3600480360360208110156101ab57600080fd5b810190808035151590602001909291905050506108d0565b604051808260000b60000b815260200191505060405180910390f35b3480156101eb57600080fd5b5061021a6004803603602081101561020257600080fd5b810190808035151590602001909291905050506109e5565b6040518082815260200191505060405180910390f35b34801561023c57600080fd5b50610245610a3d565b6040518082815260200191505060405180910390f35b6102946004803603604081101561027157600080fd5b8101908080359060200190929190803560ff169060200190929190505050610a5c565b005b3480156102a257600080fd5b506102ab6111fd565b6040518082815260200191505060405180910390f35b3480156102cd57600080fd5b506102d6611203565b6040518082815260200191505060405180910390f35b3480156102f857600080fd5b50610301611209565b6040518082815260200191505060405180910390f35b34801561032357600080fd5b506103506004803603602081101561033a57600080fd5b8101908080359060200190929190505050611306565b604051808260000b60000b815260200191505060405180910390f35b6103a56004803603604081101561038257600080fd5b8101908080359060200190929190803560ff169060200190929190505050611431565b005b3480156103b357600080fd5b506103bc611622565b604051808273ffffffffffffffffffffffffffffffffffffffff1673ffffffffffffffffffffffffffffffffffffffff16815260200191505060405180910390f35b34801561040a57600080fd5b506104376004803603602081101561042157600080fd5b8101908080359060200190929190505050611648565b604051808881526020018781526020018681526020018581526020018460ff1660ff16815260200183815260200182815260200197505050505050505060405180910390f35b34801561048957600080fd5b5061049261171a565b6040518082815260200191505060405180910390f35b6104ea600480360360208110156104be57600080fd5b81019080803573ffffffffffffffffffffffffffffffffffffffff16906020019092919050505061185e565b604051808581526020018473ffffffffffffffffffffffffffffffffffffffff1673ffffffffffffffffffffffffffffffffffffffff1681526020018315151515815260200182815260200194505050505060405180910390f35b34801561055157600080fd5b5061057e6004803603602081101561056857600080fd5b8101908080359060200190929190505050611dbf565b604051808260000b60000b815260200191505060405180910390f35b3480156105a657600080fd5b506105dd600480360360408110156105bd57600080fd5b810190808035906020019092919080359060200190929190505050611e20565b005b3480156105eb57600080fd5b506106186004803603602081101561060257600080fd5b8101908080359060200190929190505050611f1d565b604051808260000b60000b815260200191505060405180910390f35b34801561064057600080fd5b50610649611fc4565b604051808273ffffffffffffffffffffffffffffffffffffffff1673ffffffffffffffffffffffffffffffffffffffff16815260200191505060405180910390f35b61071f60048036036101408110156106a257600080fd5b81019080803590602001909291908035906020019092919080359060200190929190803560ff169060200190929190803560ff169060200190929190803560ff1690602001909291908035906020019092919080359060200190929190803515159060200190929190803515159060200190929190505050611fea565b005b34801561072d57600080fd5b50610736612662565b6040518082815260200191505060405180910390f35b34801561075857600080fd5b506107856004803603602081101561076f57600080fd5b810190808035906020019092919050505061270a565b005b34801561079357600080fd5b5061079c61288d565b6040518082815260200191505060405180910390f35b3480156107be57600080fd5b506107f7600480360360408110156107d557600080fd5b81019080803515159060200190929190803590602001909291905050506128ac565b604051808260000b60000b815260200191505060405180910390f35b34801561081f57600080fd5b506108286128ff565b6040518082815260200191505060405180910390f35b6108766004803603604081101561085457600080fd5b8101908080351515906020019092919080359060200190929190505050612905565b6040518082815260200191505060405180910390f35b6108ce600480360360208110156108a257600080fd5b81019080803573ffffffffffffffffffffffffffffffffffffffff169060200190929190505050612931565b005b6000808215156109d357600960009054906101000a900473ffffffffffffffffffffffffffffffffffffffff1673ffffffffffffffffffffffffffffffffffffffff166370a08231336040518263ffffffff167c0100000000000000000000000000000000000000000000000000000000028152600401808273ffffffffffffffffffffffffffffffffffffffff1673ffffffffffffffffffffffffffffffffffffffff16815260200191505060206040518083038186803b15801561099557600080fd5b505afa1580156109a9573d6000803e3d6000fd5b505050506040513d60208110156109bf57600080fd5b810190808051906020019092919050505090505b6109dd83826128ac565b915050919050565b6000610a366001600460003373ffffffffffffffffffffffffffffffffffffffff1673ffffffffffffffffffffffffffffffffffffffff168152602001908152602001600020600001540183612bbc565b9050919050565b60003073ffffffffffffffffffffffffffffffffffffffff1631905090565b6000600a600084815260200190815260200160002060120160009054906101000a900460ff1690506000610a8f84611dbf565b60000b141515610b07576040517f08c379a00000000000000000000000000000000000000000000000000000000081526004018080602001828103825260118152602001807f54696d65206973206e6f742076616c696400000000000000000000000000000081525060200191505060405180910390fd5b8015610b9f57600a60008481526020019081526020016000206011015434141515610b9a576040517f08c379a00000000000000000000000000000000000000000000000000000000081526004018080602001828103825260158152602001807f446f206e6f7420656e6f7567687420657468657273000000000000000000000081525060200191505060405180910390fd5b610d57565b600a600084815260200190815260200160002060110154600960009054906101000a900473ffffffffffffffffffffffffffffffffffffffff1673ffffffffffffffffffffffffffffffffffffffff1663dd62ed3e33306040518363ffffffff167c0100000000000000000000000000000000000000000000000000000000028152600401808373ffffffffffffffffffffffffffffffffffffffff1673ffffffffffffffffffffffffffffffffffffffff1681526020018273ffffffffffffffffffffffffffffffffffffffff1673ffffffffffffffffffffffffffffffffffffffff1681526020019250505060206040518083038186803b158015610ca557600080fd5b505afa158015610cb9573d6000803e3d6000fd5b505050506040513d6020811015610ccf57600080fd5b810190808051906020019092919050505010151515610d56576040517f08c379a00000000000000000000000000000000000000000000000000000000081526004018080602001828103825260158152602001807f446f206e6f7420656e6f7567687420746f6b656e73000000000000000000000081525060200191505060405180910390fd5b5b6000600a600085815260200190815260200160002060060160008460ff16815260200190815260200160002060010154905033600a600086815260200190815260200160002060060160008560ff168152602001908152602001600020600001600083815260200190815260200160002060000160006101000a81548173ffffffffffffffffffffffffffffffffffffffff021916908373ffffffffffffffffffffffffffffffffffffffff16021790555060018101600a600086815260200190815260200160002060060160008560ff16815260200190815260200160002060010181905550600a60008581526020019081526020016000206010013390806001815401808255809150509060018203906000526020600020016000909192909190916101000a81548173ffffffffffffffffffffffffffffffffffffffff021916908373ffffffffffffffffffffffffffffffffffffffff160217905550508115610ef75734600a600086815260200190815260200160002060040160008282540192505081905550346006600082825401925050819055506110f0565b6000600a600086815260200190815260200160002060110154905080600a60008781526020019081526020016000206004016000828254019250508190555080600660008282540192505081905550600960009054906101000a900473ffffffffffffffffffffffffffffffffffffffff1673ffffffffffffffffffffffffffffffffffffffff166323b872dd3330846040518463ffffffff167c0100000000000000000000000000000000000000000000000000000000028152600401808473ffffffffffffffffffffffffffffffffffffffff1673ffffffffffffffffffffffffffffffffffffffff1681526020018373ffffffffffffffffffffffffffffffffffffffff1673ffffffffffffffffffffffffffffffffffffffff1681526020018281526020019350505050602060405180830381600087803b15801561103f57600080fd5b505af1158015611053573d6000803e3d6000fd5b505050506040513d602081101561106957600080fd5b810190808051906020019092919050505015156110ee576040517f08c379a000000000000000000000000000000000000000000000000000000000815260040180806020018281038252600e8152602001807f5472616e73666572206572726f7200000000000000000000000000000000000081525060200191505060405180910390fd5b505b7fbd233f7452553afaed4cd245a2d8d64cf39150c8cd35dcc8da09884d5bd45f9a600a6000868152602001908152602001600020601101548333876040518080602001868152602001851515151581526020018473ffffffffffffffffffffffffffffffffffffffff1673ffffffffffffffffffffffffffffffffffffffff16815260200180602001848152602001838103835260048152602001807f73656e64000000000000000000000000000000000000000000000000000000008152506020018381038252600b8152602001807f7061727469636970616e74000000000000000000000000000000000000000000815250602001965050505050505060405180910390a150505050565b60025481565b60035481565b6000600960009054906101000a900473ffffffffffffffffffffffffffffffffffffffff1673ffffffffffffffffffffffffffffffffffffffff166370a08231306040518263ffffffff167c0100000000000000000000000000000000000000000000000000000000028152600401808273ffffffffffffffffffffffffffffffffffffffff1673ffffffffffffffffffffffffffffffffffffffff16815260200191505060206040518083038186803b1580156112c657600080fd5b505afa1580156112da573d6000803e3d6000fd5b505050506040513d60208110156112f057600080fd5b8101908080519060200190929190505050905090565b600080600a600084815260200190815260200160002060020154420312151561142757600042600754600a600086815260200190815260200160002060020154010312151561141e5760008090505b600a6000848152602001908152602001600020601001805490508160ff161015611414573373ffffffffffffffffffffffffffffffffffffffff16600a60008581526020019081526020016000206010018260ff168154811015156113b657fe5b9060005260206000200160009054906101000a900473ffffffffffffffffffffffffffffffffffffffff1673ffffffffffffffffffffffffffffffffffffffff16141561140757600391505061142c565b8080600101915050611355565b506000905061142c565b6002905061142c565b600190505b919050565b600061143c83611306565b60000b1415156114b4576040517f08c379a00000000000000000000000000000000000000000000000000000000081526004018080602001828103825260118152602001807f54696d65206973206e6f742076616c696400000000000000000000000000000081525060200191505060405180910390fd5b6000600a600084815260200190815260200160002060070160008360ff16815260200190815260200160002060010154905033600a600085815260200190815260200160002060070160008460ff168152602001908152602001600020600001600083815260200190815260200160002060000160006101000a81548173ffffffffffffffffffffffffffffffffffffffff021916908373ffffffffffffffffffffffffffffffffffffffff16021790555060018101600a600085815260200190815260200160002060070160008460ff1681526020019081526020016000206001018190555060006001600a600086815260200190815260200160002060090154019050600a6000858152602001908152602001600020600801548114156116005780600a6000868152602001908152602001600020600901819055506115fb84612c8c565b61161c565b80600a6000868152602001908152602001600020600901819055505b50505050565b600960009054906101000a900473ffffffffffffffffffffffffffffffffffffffff1681565b6000806000806000806000600a6000898152602001908152602001600020600b0154600a60008a8152602001908152602001600020600d0154600a60008b815260200190815260200160002060040154600a60008c8152602001908152602001600020600e0154600a60008d815260200190815260200160002060030160009054906101000a900460ff16600a60008e8152602001908152602001600020600f0154600a60008f8152602001908152602001600020600c01549650965096509650965096509650919395979092949650565b60006001600460003373ffffffffffffffffffffffffffffffffffffffff1673ffffffffffffffffffffffffffffffffffffffff168152602001908152602001600020600001541015156118565760008090506000600190505b600460003373ffffffffffffffffffffffffffffffffffffffff1673ffffffffffffffffffffffffffffffffffffffff168152602001908152602001600020600001548160ff1611151561184c576000600460003373ffffffffffffffffffffffffffffffffffffffff1673ffffffffffffffffffffffffffffffffffffffff16815260200190815260200160002060010160008360ff16815260200190815260200160002060020160009054906101000a900460ff16905061183a8260ff1682612bbc565b83019250508080600101915050611774565b508091505061185b565b600090505b90565b600080600080600160009054906101000a900473ffffffffffffffffffffffffffffffffffffffff1673ffffffffffffffffffffffffffffffffffffffff163373ffffffffffffffffffffffffffffffffffffffff1614151561190c576040517f08c379a0000000000000000000000000000000000000000000000000000000008152600401808060200182810382526024815260200180613f8f6024913960400191505060405180910390fd5b6000600460008773ffffffffffffffffffffffffffffffffffffffff1673ffffffffffffffffffffffffffffffffffffffff168152602001908152602001600020600001541115156119c6576040517f08c379a000000000000000000000000000000000000000000000000000000000815260040180806020018281038252601c8152602001807f446f206e6f74206861766520636f696e73206f6e206163636f756e740000000081525060200191505060405180910390fd5b6000600460008773ffffffffffffffffffffffffffffffffffffffff1673ffffffffffffffffffffffffffffffffffffffff1681526020019081526020016000206000015490506000600460008873ffffffffffffffffffffffffffffffffffffffff1673ffffffffffffffffffffffffffffffffffffffff168152602001908152602001600020600101600083815260200190815260200160002060000160009054906101000a900473ffffffffffffffffffffffffffffffffffffffff1690508673ffffffffffffffffffffffffffffffffffffffff168173ffffffffffffffffffffffffffffffffffffffff16141515611b2b576040517f08c379a00000000000000000000000000000000000000000000000000000000081526004018080602001828103825260138152602001807f416464726573736573206e6f7420657175616c0000000000000000000000000081525060200191505060405180910390fd5b6000600460008973ffffffffffffffffffffffffffffffffffffffff1673ffffffffffffffffffffffffffffffffffffffff1681526020019081526020016000206001016000848152602001908152602001600020600101549050600460008373ffffffffffffffffffffffffffffffffffffffff1673ffffffffffffffffffffffffffffffffffffffff16815260200190815260200160002060000160008154809291906001900391905055506000600460008a73ffffffffffffffffffffffffffffffffffffffff1673ffffffffffffffffffffffffffffffffffffffff168152602001908152602001600020600101600085815260200190815260200160002060020160009054906101000a900460ff1690506000600460008b73ffffffffffffffffffffffffffffffffffffffff1673ffffffffffffffffffffffffffffffffffffffff1681526020019081526020016000206001016000868152602001908152602001600020600301549050600460008b73ffffffffffffffffffffffffffffffffffffffff1673ffffffffffffffffffffffffffffffffffffffff1681526020019081526020016000206001016000868152602001908152602001600020600080820160006101000a81549073ffffffffffffffffffffffffffffffffffffffff021916905560018201600090556002820160006101000a81549060ff0219169055600382016000905550508115611da3578373ffffffffffffffffffffffffffffffffffffffff166108fc849081150290604051600060405180830381858888f19350505050158015611d89573d6000803e3d6000fd5b508284838382925098509850985098505050505050611db8565b82848383829250985098509850985050505050505b9193509193565b600080600a6000848152602001908152602001600020600101544203121515611e1657600042600a60008581526020019081526020016000206002015403121515611e0d5760009050611e1b565b60029050611e1b565b600190505b919050565b600160009054906101000a900473ffffffffffffffffffffffffffffffffffffffff1673ffffffffffffffffffffffffffffffffffffffff163373ffffffffffffffffffffffffffffffffffffffff16141515611ee5576040517f08c379a000000000000000000000000000000000000000000000000000000000815260040180806020018281038252601b8152602001807f6f6e6c79206f776e65722063616e206368616e6765207072696365000000000081525060200191505060405180910390fd5b670de0b6b3a764000082811515611ef857fe5b04600281905550670de0b6b3a764000081811515611f1257fe5b046003819055505050565b60003373ffffffffffffffffffffffffffffffffffffffff16600a6000848152602001908152602001600020600a0160009054906101000a900473ffffffffffffffffffffffffffffffffffffffff1673ffffffffffffffffffffffffffffffffffffffff161415611fba576000600a6000848152602001908152602001600020600401541415611fb15760009050611fbf565b60019050611fbf565b600290505b919050565b600160009054906101000a900473ffffffffffffffffffffffffffffffffffffffff1681565b89600a60008c81526020019081526020016000206000018190555087600a60008c81526020019081526020016000206002018190555084600a60008c815260200190815260200160002060030160006101000a81548160ff021916908360ff16021790555088600a60008c81526020019081526020016000206001018190555083600a60008c81526020019081526020016000206008018190555033600a60008c8152602001908152602001600020600a0160006101000a81548173ffffffffffffffffffffffffffffffffffffffff021916908373ffffffffffffffffffffffffffffffffffffffff16021790555082600a60008c81526020019081526020016000206011018190555080600a60008c815260200190815260200160002060120160006101000a81548160ff02191690831515021790555060008760ff161415612164576003600a60008c815260200190815260200160002060050160006101000a81548160ff021916908360ff160217905550612194565b86600a60008c815260200190815260200160002060050160006101000a81548160ff021916908360ff1602179055505b60008660ff1614156121d5576005600a60008c815260200190815260200160002060050160016101000a81548160ff021916908360ff160217905550612205565b85600a60008c815260200190815260200160002060050160016101000a81548160ff021916908360ff1602179055505b6000612211838c612905565b90508215156125645780600960009054906101000a900473ffffffffffffffffffffffffffffffffffffffff1673ffffffffffffffffffffffffffffffffffffffff1663dd62ed3e33306040518363ffffffff167c0100000000000000000000000000000000000000000000000000000000028152600401808373ffffffffffffffffffffffffffffffffffffffff1673ffffffffffffffffffffffffffffffffffffffff1681526020018273ffffffffffffffffffffffffffffffffffffffff1673ffffffffffffffffffffffffffffffffffffffff1681526020019250505060206040518083038186803b15801561230a57600080fd5b505afa15801561231e573d6000803e3d6000fd5b505050506040513d602081101561233457600080fd5b8101908080519060200190929190505050101515156123bb576040517f08c379a00000000000000000000000000000000000000000000000000000000081526004018080602001828103825260158152602001807f446f206e6f7420656e6f7567687420657468657273000000000000000000000081525060200191505060405180910390fd5b600960009054906101000a900473ffffffffffffffffffffffffffffffffffffffff1673ffffffffffffffffffffffffffffffffffffffff166323b872dd3330846040518463ffffffff167c0100000000000000000000000000000000000000000000000000000000028152600401808473ffffffffffffffffffffffffffffffffffffffff1673ffffffffffffffffffffffffffffffffffffffff1681526020018373ffffffffffffffffffffffffffffffffffffffff1673ffffffffffffffffffffffffffffffffffffffff1681526020018281526020019350505050602060405180830381600087803b1580156124b457600080fd5b505af11580156124c8573d6000803e3d6000fd5b505050506040513d60208110156124de57600080fd5b81019080805190602001909291905050501515612563576040517f08c379a000000000000000000000000000000000000000000000000000000000815260040180806020018281038252600e8152602001807f5472616e73666572206572726f7200000000000000000000000000000000000081525060200191505060405180910390fd5b5b7fbd233f7452553afaed4cd245a2d8d64cf39150c8cd35dcc8da09884d5bd45f9a8184338e6040518080602001868152602001851515151581526020018473ffffffffffffffffffffffffffffffffffffffff1673ffffffffffffffffffffffffffffffffffffffff16815260200180602001848152602001838103835260048152602001807f73656e64000000000000000000000000000000000000000000000000000000008152506020018381038252600a8152602001807f686f6c64206d6f6e657900000000000000000000000000000000000000000000815250602001965050505050505060405180910390a15050505050505050505050565b6000806001600460003373ffffffffffffffffffffffffffffffffffffffff1673ffffffffffffffffffffffffffffffffffffffff16815260200190815260200160002060000154039050600460003373ffffffffffffffffffffffffffffffffffffffff1673ffffffffffffffffffffffffffffffffffffffff16815260200190815260200160002060010160008281526020019081526020016000206001015491505090565b600061271582611f1d565b60000b14151561278d576040517f08c379a00000000000000000000000000000000000000000000000000000000081526004018080602001828103825260158152602001807f44656c657465206576656e742069732066616c7365000000000000000000000081525060200191505060405180910390fd5b600a6000828152602001908152602001600020600080820160009055600182016000905560028201600090556003820160006101000a81549060ff021916905560048201600090556005820160006101000a81549060ff02191690556005820160016101000a81549060ff021916905560088201600090556009820160009055600a820160006101000a81549073ffffffffffffffffffffffffffffffffffffffff0219169055600b820160009055600c820160009055600d820160009055600e820160009055600f82016000905560108201600061286c9190613f48565b60118201600090556012820160006101000a81549060ff0219169055505050565b60003073ffffffffffffffffffffffffffffffffffffffff1631905090565b60008083156128d4573373ffffffffffffffffffffffffffffffffffffffff163190506128d8565b8290505b6128e1846109e5565b811015156128f35760009150506128f9565b60019150505b92915050565b60065481565b6000821561291e576129178383612d73565b905061292b565b6129288383613053565b90505b92915050565b6000806000806129408561185e565b9350935093509350811515612ac457600960009054906101000a900473ffffffffffffffffffffffffffffffffffffffff1673ffffffffffffffffffffffffffffffffffffffff1663a9059cbb84866040518363ffffffff167c0100000000000000000000000000000000000000000000000000000000028152600401808373ffffffffffffffffffffffffffffffffffffffff1673ffffffffffffffffffffffffffffffffffffffff16815260200182815260200192505050602060405180830381600087803b158015612a1457600080fd5b505af1158015612a28573d6000803e3d6000fd5b505050506040513d6020811015612a3e57600080fd5b81019080805190602001909291905050501515612ac3576040517f08c379a000000000000000000000000000000000000000000000000000000000815260040180806020018281038252601f8152602001807f5472616e7366657220455243323020746f20686f7374206973206572726f720081525060200191505060405180910390fd5b5b7fbd233f7452553afaed4cd245a2d8d64cf39150c8cd35dcc8da09884d5bd45f9a848385846040518080602001868152602001851515151581526020018473ffffffffffffffffffffffffffffffffffffffff1673ffffffffffffffffffffffffffffffffffffffff16815260200180602001848152602001838103835260078152602001807f72656365697665000000000000000000000000000000000000000000000000008152506020018381038252600a8152602001807f686f6c64206d6f6e657900000000000000000000000000000000000000000000815250602001965050505050505060405180910390a15050505050565b60008060005490506001841415612c11578215612bec57606460025482811515612be257fe5b0402915050612c86565b6002606460035483811515612bfd57fe5b0402811515612c0857fe5b04915050612c86565b600284101515612c84576000600190505b848160ff161015612c3f5781820191508080600101915050612c22565b508215612c5f57606460025482811515612c5557fe5b0402915050612c86565b6002606460035483811515612c7057fe5b0402811515612c7b57fe5b04915050612c86565b505b92915050565b6000809050600080600a600085815260200190815260200160002060030160009054906101000a900460ff1660ff16905060008090505b818160ff161215612d475783600a600087815260200190815260200160002060070160008360ff168152602001908152602001600020600101541115612d3a57600a600086815260200190815260200160002060070160008260ff1681526020019081526020016000206001015493508060ff1692505b8080600101915050612cc3565b5081600a6000868152602001908152602001600020600f0181905550612d6d82856132c1565b50505050565b6000612d7e836109e5565b34141515612df4576040517f08c379a00000000000000000000000000000000000000000000000000000000081526004018080602001828103825260148152602001807f446f206e6f7420656e6f75676874206d6f6e657900000000000000000000000081525060200191505060405180910390fd5b60006001600460003373ffffffffffffffffffffffffffffffffffffffff1673ffffffffffffffffffffffffffffffffffffffff1681526020019081526020016000206000015401905033600460003373ffffffffffffffffffffffffffffffffffffffff1673ffffffffffffffffffffffffffffffffffffffff168152602001908152602001600020600101600083815260200190815260200160002060000160006101000a81548173ffffffffffffffffffffffffffffffffffffffff021916908373ffffffffffffffffffffffffffffffffffffffff16021790555034600460003373ffffffffffffffffffffffffffffffffffffffff1673ffffffffffffffffffffffffffffffffffffffff16815260200190815260200160002060010160008381526020019081526020016000206001018190555083600460003373ffffffffffffffffffffffffffffffffffffffff1673ffffffffffffffffffffffffffffffffffffffff168152602001908152602001600020600101600083815260200190815260200160002060020160006101000a81548160ff02191690831515021790555082600460003373ffffffffffffffffffffffffffffffffffffffff1673ffffffffffffffffffffffffffffffffffffffff168152602001908152602001600020600101600083815260200190815260200160002060030181905550600460003373ffffffffffffffffffffffffffffffffffffffff1673ffffffffffffffffffffffffffffffffffffffff168152602001908152602001600020600001600081548092919060010191905055503491505092915050565b60008061305f846109e5565b905060006001600460003373ffffffffffffffffffffffffffffffffffffffff1673ffffffffffffffffffffffffffffffffffffffff1681526020019081526020016000206000015401905033600460003373ffffffffffffffffffffffffffffffffffffffff1673ffffffffffffffffffffffffffffffffffffffff168152602001908152602001600020600101600083815260200190815260200160002060000160006101000a81548173ffffffffffffffffffffffffffffffffffffffff021916908373ffffffffffffffffffffffffffffffffffffffff16021790555081600460003373ffffffffffffffffffffffffffffffffffffffff1673ffffffffffffffffffffffffffffffffffffffff16815260200190815260200160002060010160008381526020019081526020016000206001018190555084600460003373ffffffffffffffffffffffffffffffffffffffff1673ffffffffffffffffffffffffffffffffffffffff168152602001908152602001600020600101600083815260200190815260200160002060020160006101000a81548160ff02191690831515021790555083600460003373ffffffffffffffffffffffffffffffffffffffff1673ffffffffffffffffffffffffffffffffffffffff168152602001908152602001600020600101600083815260200190815260200160002060030181905550600460003373ffffffffffffffffffffffffffffffffffffffff1673ffffffffffffffffffffffffffffffffffffffff16815260200190815260200160002060000160008154809291906001019190505550819250505092915050565b6000600a600083815260200190815260200160002060120160009054906101000a900460ff1690506000600a60008481526020019081526020016000206004015411156135af57600061333c600a600085815260200190815260200160002060040154600560009054906101000a900460ff1660ff166135b4565b905080600a60008581526020019081526020016000206004015403600a600085815260200190815260200160002060040181905550806006540360068190555081156133f057600860009054906101000a900473ffffffffffffffffffffffffffffffffffffffff1673ffffffffffffffffffffffffffffffffffffffff166108fc829081150290604051600060405180830381858888f193505050501580156133ea573d6000803e3d6000fd5b50613587565b600960009054906101000a900473ffffffffffffffffffffffffffffffffffffffff1673ffffffffffffffffffffffffffffffffffffffff1663a9059cbb600860009054906101000a900473ffffffffffffffffffffffffffffffffffffffff16836040518363ffffffff167c0100000000000000000000000000000000000000000000000000000000028152600401808373ffffffffffffffffffffffffffffffffffffffff1673ffffffffffffffffffffffffffffffffffffffff16815260200182815260200192505050602060405180830381600087803b1580156134d757600080fd5b505af11580156134eb573d6000803e3d6000fd5b505050506040513d602081101561350157600080fd5b81019080805190602001909291905050501515613586576040517f08c379a000000000000000000000000000000000000000000000000000000000815260040180806020018281038252601f8152602001807f5472616e7366657220455243323020746f20686f7374206973206572726f720081525060200191505060405180910390fd5b5b80600a6000858152602001908152602001600020600b01819055506135ad8484846135cd565b505b505050565b600060648383028115156135c457fe5b04905092915050565b6000613615600a600085815260200190815260200160002060040154600a600086815260200190815260200160002060050160009054906101000a900460ff1660ff166135b4565b905080600a60008581526020019081526020016000206004015403600a60008581526020019081526020016000206004018190555080600654036006819055506000600a6000858152602001908152602001600020600a0160009054906101000a900473ffffffffffffffffffffffffffffffffffffffff16905082156136e2578073ffffffffffffffffffffffffffffffffffffffff166108fc839081150290604051600060405180830381858888f193505050501580156136dc573d6000803e3d6000fd5b50613857565b600960009054906101000a900473ffffffffffffffffffffffffffffffffffffffff1673ffffffffffffffffffffffffffffffffffffffff1663a9059cbb82846040518363ffffffff167c0100000000000000000000000000000000000000000000000000000000028152600401808373ffffffffffffffffffffffffffffffffffffffff1673ffffffffffffffffffffffffffffffffffffffff16815260200182815260200192505050602060405180830381600087803b1580156137a757600080fd5b505af11580156137bb573d6000803e3d6000fd5b505050506040513d60208110156137d157600080fd5b81019080805190602001909291905050501515613856576040517f08c379a000000000000000000000000000000000000000000000000000000000815260040180806020018281038252601f8152602001807f5472616e7366657220455243323020746f20686f7374206973206572726f720081525060200191505060405180910390fd5b5b81600a6000868152602001908152602001600020600c018190555061387d858585613884565b5050505050565b60006138cc600a600085815260200190815260200160002060040154600a600086815260200190815260200160002060050160019054906101000a900460ff1660ff166135b4565b90506000600a60008581526020019081526020016000206007016000868152602001908152602001600020600101548281151561390557fe5b049050816006540360068190555080600a6000868152602001908152602001600020600d018190555060008090505b600a60008681526020019081526020016000206007016000878152602001908152602001600020600101548160ff161015613bd7576000600a6000878152602001908152602001600020600701600088815260200190815260200160002060000160008360ff16815260200190815260200160002060000160009054906101000a900473ffffffffffffffffffffffffffffffffffffffff16905082600a60008881526020019081526020016000206004015403600a6000888152602001908152602001600020600401819055508415613a54578073ffffffffffffffffffffffffffffffffffffffff166108fc849081150290604051600060405180830381858888f19350505050158015613a4e573d6000803e3d6000fd5b50613bc9565b600960009054906101000a900473ffffffffffffffffffffffffffffffffffffffff1673ffffffffffffffffffffffffffffffffffffffff1663a9059cbb82856040518363ffffffff167c0100000000000000000000000000000000000000000000000000000000028152600401808373ffffffffffffffffffffffffffffffffffffffff1673ffffffffffffffffffffffffffffffffffffffff16815260200182815260200192505050602060405180830381600087803b158015613b1957600080fd5b505af1158015613b2d573d6000803e3d6000fd5b505050506040513d6020811015613b4357600080fd5b81019080805190602001909291905050501515613bc8576040517f08c379a000000000000000000000000000000000000000000000000000000000815260040180806020018281038252601f8152602001807f5472616e7366657220455243323020746f20686f7374206973206572726f720081525060200191505060405180910390fd5b5b508080600101915050613934565b50613be3858585613bea565b5050505050565b6000600a6000848152602001908152602001600020600601600085815260200190815260200160002060010154600a600085815260200190815260200160002060040154811515613c3757fe5b04905060008090505b600a60008581526020019081526020016000206006016000868152602001908152602001600020600101548160ff161015613ee3576000600a6000868152602001908152602001600020600601600087815260200190815260200160002060000160008360ff16815260200190815260200160002060000160009054906101000a900473ffffffffffffffffffffffffffffffffffffffff16905082600a60008781526020019081526020016000206004015403600a6000878152602001908152602001600020600401819055508315613d60578073ffffffffffffffffffffffffffffffffffffffff166108fc849081150290604051600060405180830381858888f19350505050158015613d5a573d6000803e3d6000fd5b50613ed5565b600960009054906101000a900473ffffffffffffffffffffffffffffffffffffffff1673ffffffffffffffffffffffffffffffffffffffff1663a9059cbb82856040518363ffffffff167c0100000000000000000000000000000000000000000000000000000000028152600401808373ffffffffffffffffffffffffffffffffffffffff1673ffffffffffffffffffffffffffffffffffffffff16815260200182815260200192505050602060405180830381600087803b158015613e2557600080fd5b505af1158015613e39573d6000803e3d6000fd5b505050506040513d6020811015613e4f57600080fd5b81019080805190602001909291905050501515613ed4576040517f08c379a000000000000000000000000000000000000000000000000000000000815260040180806020018281038252601f8152602001807f5472616e7366657220455243323020746f20686f7374206973206572726f720081525060200191505060405180910390fd5b5b508080600101915050613c40565b5080600a6000858152602001908152602001600020600e01819055507fd320079e0e35887df7aac9ad79d3da039625f35f0771dc81bb90e367302328ac838360405180838152602001821515151581526020019250505060405180910390a150505050565b5080546000825590600052602060002090810190613f669190613f69565b50565b613f8b91905b80821115613f87576000816000905550600101613f6f565b5090565b9056fe4f6e6c79206f776e65722063616e206578656375746520746869732066756e6374696f6ea165627a7a72305820b0917e3d4d97a7b45406b5bb4a3bbc69f3dde0f5f9129175e1c29e0f0abbb2c50029",
  "source": "pragma solidity ^0.5.2;\n\nimport \"./HoldMoney.sol\";\nimport \"./LoomERC20Coin.sol\";\n\n\ncontract Quize is HoldMoney {\n    uint8 private percentQuiz = 2;\n    uint256 public fullAmount;\n    uint256 private sevenDaysTimeStamp = 604800;\n    address payable companyAddress = 0x02810c3bc07De2ddAef89827b0dD6b223C7759d5;\n    LoomERC20Coin public tokenContract;\n\n    event eventIsFinish(int256 question_id, bool payEther);\n    event payEvent(string path, uint256 money, bool payEther, address wallet, string from, int256 question_id);\n\n    struct Participant {\n        mapping(uint256 => Part) participants;\n        uint256 index;\n    }\n\n    struct Part {\n        address payable parts;\n    }\n\n    struct Validator {\n        mapping(uint256 => Valid) validators;\n        uint256 index;\n    }\n\n    struct Valid {\n        address payable valid;\n    }\n\n    struct Question {\n        int256 question_id;\n        uint256 startTime;\n        uint256 endTime;\n        uint8 questionQuantity;\n        uint256 money;\n        uint8 percentHost;\n        uint8 percentValidator;\n        mapping(uint256 => Participant) participant;\n        mapping(uint256 => Validator) validator;\n        int256 validatorsAmount;\n        int256 activeValidators;\n        address payable hostWallet;\n        uint256 persentFeeCompany;\n        uint256 persentFeeHost;\n        uint256 persentForEachValidators;\n        uint256 moneyForParticipant;\n        uint256 correctAnswer;\n        address[] allParticipant;\n        uint256 quizePrice;\n        bool payEther;\n    }\n\n    mapping(int256 => Question) questions;\n\n    constructor(LoomERC20Coin _tokenContract) public {\n        tokenContract = _tokenContract;\n    }\n\n    function startQestion(\n        int256 _question_id,\n        uint256 _startTime,\n        uint256 _endTime,\n        uint8 _percentHost,\n        uint8 _percentValidator,\n        uint8 _questionQuantity,\n        int256 _validatorsAmount,\n        uint256 _quizePrice,\n        bool _pathHoldMoney,\n        bool _payEther\n    ) public payable {\n        questions[_question_id].question_id = _question_id;\n        questions[_question_id].endTime = _endTime;\n        questions[_question_id].questionQuantity = _questionQuantity;\n        questions[_question_id].startTime = _startTime;\n        questions[_question_id].validatorsAmount = _validatorsAmount;\n        questions[_question_id].hostWallet = msg.sender;\n        questions[_question_id].quizePrice = _quizePrice;\n        questions[_question_id].payEther = _payEther;\n\n        if (_percentHost == 0) {\n            questions[_question_id].percentHost = 3;\n        } else {\n            questions[_question_id].percentHost = _percentHost;\n        }\n\n        if (_percentValidator == 0) {\n            questions[_question_id].percentValidator = 5;\n        } else {\n            questions[_question_id].percentValidator = _percentValidator;\n        }\n\n        uint256 amount = _setMoneyRetention(_pathHoldMoney, _question_id);\n        if(!_pathHoldMoney){\n           require(tokenContract.allowance(msg.sender, address(this)) >= amount, \"Do not enought ethers\");\n           require(tokenContract.transferFrom(msg.sender, address(this), amount), \"Transfer error\");\n        }\n        emit payEvent(\"send\", amount, _pathHoldMoney, msg.sender, \"hold money\", _question_id);\n    }\n\n    function setAnswer(int256 _question_id, uint8 _whichAnswer) public payable {\n        bool payEther = questions[_question_id].payEther;\n        require(setTimeAnswer(_question_id) == 0, \"Time is not valid\");\n\n        if(payEther){require(msg.value == questions[_question_id].quizePrice, \"Do not enought ethers\");}\n        else{require(tokenContract.allowance(msg.sender, address(this)) >= questions[_question_id].quizePrice, \"Do not enought tokens\");}\n\n        uint256 i = questions[_question_id].participant[_whichAnswer].index;\n        questions[_question_id].participant[_whichAnswer].participants[i].parts = msg.sender;\n        questions[_question_id].participant[_whichAnswer].index = i + 1;\n        questions[_question_id].allParticipant.push(msg.sender);\n\n        if(payEther){\n            questions[_question_id].money += msg.value;\n            fullAmount += msg.value;\n        }else{\n            uint256 price = questions[_question_id].quizePrice;\n            questions[_question_id].money += price;\n            fullAmount += price;\n            require(tokenContract.transferFrom(msg.sender, address(this), price), \"Transfer error\");\n        }\n\n        emit payEvent(\"send\", questions[_question_id].quizePrice, payEther, msg.sender, \"participant\", _question_id);\n\n    }\n\n    function setValidator(int256 _question_id, uint8 _whichAnswer) public payable {\n        require(setTimeValidator(_question_id) == 0, \"Time is not valid\");\n        uint256 i = questions[_question_id].validator[_whichAnswer].index;\n        questions[_question_id].validator[_whichAnswer].validators[i].valid = msg.sender;\n        questions[_question_id].validator[_whichAnswer].index = i + 1;\n        int256 active = questions[_question_id].activeValidators + 1;\n        if (active == questions[_question_id].validatorsAmount) {\n            questions[_question_id].activeValidators = active;\n            letsFindCorrectAnswer(_question_id);\n        } else {\n            questions[_question_id].activeValidators = active;\n        }\n    }\n\n    function letsFindCorrectAnswer(int256 _question_id) private {\n        uint256 biggestValue = 0;\n        uint256 correctAnswer;\n        int256 questionQuantity = questions[_question_id].questionQuantity;\n\n        // find correct answer\n        for (uint8 i = 0; i < questionQuantity; i++) {\n            if (questions[_question_id].validator[i].index > biggestValue) {\n                biggestValue = questions[_question_id].validator[i].index;\n                correctAnswer = i;\n            }\n        }\n\n        questions[_question_id].correctAnswer = correctAnswer;\n        letsPayCompanyFee(correctAnswer, _question_id);\n    }\n\n    function letsPayCompanyFee(uint256 correctAnswer, int256 _question_id) private {\n        bool payEther = questions[_question_id].payEther;\n        if (questions[_question_id].money > 0) {\n            // pay fee for company\n            uint256 persentFee = getPersent(\n                questions[_question_id].money,\n                percentQuiz\n            );\n            questions[_question_id].money = questions[_question_id].money - persentFee;\n            fullAmount = fullAmount - persentFee;\n            if(payEther){companyAddress.transfer(persentFee);}\n            else{require(tokenContract.transfer(companyAddress, persentFee), \"Transfer ERC20 to host is error\");}\n            questions[_question_id].persentFeeCompany = persentFee;\n\n            letsPayHostFee(correctAnswer, _question_id, payEther);\n        }\n    }\n\n    function letsPayHostFee(uint256 correctAnswer, int256 _question_id, bool payEther) private {\n        // pay fee for host\n        uint256 persHostFee = getPersent(\n            questions[_question_id].money,\n            questions[_question_id].percentHost\n        );\n        questions[_question_id].money = questions[_question_id].money - persHostFee;\n        fullAmount = fullAmount - persHostFee;\n        address payable hostWallet = questions[_question_id].hostWallet;\n        if(payEther){hostWallet.transfer(persHostFee);}\n        else{require(tokenContract.transfer(hostWallet, persHostFee), \"Transfer ERC20 to host is error\");}\n        questions[_question_id].persentFeeHost = persHostFee;\n\n        letsPayValidatorFee(correctAnswer, _question_id, payEther);\n    }\n\n    function letsPayValidatorFee(uint256 correctAnswer, int256 _question_id, bool payEther) private {\n        // calculate percent for validator\n        uint256 persentForValidators = getPersent(\n            questions[_question_id].money,\n            questions[_question_id].percentValidator\n        );\n        uint256 persentForEachValidators = persentForValidators / questions[_question_id].validator[correctAnswer].index;\n        fullAmount = fullAmount - persentForValidators;\n\n        questions[_question_id].persentForEachValidators = persentForEachValidators;\n\n        // pay for validatos\n        for (uint8 i = 0; i < questions[_question_id].validator[correctAnswer].index; i++ ) {\n            address payable _validator = questions[_question_id].validator[correctAnswer].validators[i].valid;\n            questions[_question_id].money = questions[_question_id].money - persentForEachValidators;\n\n            if(payEther){_validator.transfer(persentForEachValidators);}\n            else{require(tokenContract.transfer(_validator, persentForEachValidators), \"Transfer ERC20 to host is error\");}\n\n        }\n\n        letsPayParticipantFee(correctAnswer, _question_id, payEther);\n    }\n\n    function letsPayParticipantFee(uint256 correctAnswer, int256 _question_id, bool payEther) private{\n         // Pay for participant\n        uint256 moneyForParticipant = questions[_question_id].money / questions[_question_id].participant[correctAnswer].index;\n        for ( uint8 i = 0; i < questions[_question_id].participant[correctAnswer].index; i++) {\n            address payable _participant = questions[_question_id].participant[correctAnswer].participants[i].parts;\n            questions[_question_id].money = questions[_question_id].money - moneyForParticipant;\n\n            if(payEther){_participant.transfer(moneyForParticipant);}\n            else{require(tokenContract.transfer(_participant, moneyForParticipant), \"Transfer ERC20 to host is error\");}\n\n        }\n\n        questions[_question_id].moneyForParticipant = moneyForParticipant;\n\n        emit eventIsFinish(_question_id, payEther);\n    }\n\n    function getPersent(uint256 _percent, uint256 _from)\n        private\n        pure\n        returns (uint256)\n    {\n        return (_from * _percent) / 100;\n    }\n\n    function getQuestion(int256 _question_id)\n        public\n        view\n        returns (\n            uint256 persentFeeCompany,\n            uint256 persentForEachValidators,\n            uint256 money,\n            uint256 moneyForParticipant,\n            uint8 questionQuantity,\n            uint256 correctAnswer,\n            uint256 persentFeeHost\n        )\n    {\n        return (\n            questions[_question_id].persentFeeCompany,\n            questions[_question_id].persentForEachValidators,\n            questions[_question_id].money,\n            questions[_question_id].moneyForParticipant,\n            questions[_question_id].questionQuantity,\n            questions[_question_id].correctAnswer,\n            questions[_question_id].persentFeeHost\n        );\n    }\n\n    function setTimeValidator(int256 _question_id) public view returns (int8) {\n        if (int256(now - questions[_question_id].endTime) >= 0){\n            if (int256((questions[_question_id].endTime + sevenDaysTimeStamp) - now) >= 0){\n                // if validator made activities like participants.\n                for (uint8 i = 0; i < questions[_question_id].allParticipant.length; i++) {\n                    if (questions[_question_id].allParticipant[i] == msg.sender) {\n                        return 3;\n                    }\n                }\n                // user can validate because time is valid.\n                return 0;\n            } else {\n                // user can't validate because time is finish.\n                return 2;\n            }\n        } else {\n            // user can't validate because event is not started yet.\n            return 1;\n        }\n    }\n\n    function setTimeAnswer(int256 _question_id) public view returns (int8) {\n        if (int256(now - questions[_question_id].startTime) >= 0) {\n            if (int256(questions[_question_id].endTime - now) >= 0) {\n                // user can make answer because time is valid.\n                return 0;\n            } else {\n                // user can't make answer because event is finish.\n                return 2;\n            }\n        } else {\n            // user can't make answer because event is not started yet.\n            return 1;\n        }\n    }\n\n    function deleteEventValidator(int256 _question_id)\n        public\n        view\n        returns (int8)\n    {\n        if (questions[_question_id].hostWallet == msg.sender) {\n            if (questions[_question_id].money == 0) {\n                // user can delete event\n                return 0;\n            } else {\n                // user can't delete event because event has money on balance\n                return 1;\n            }\n        } else {\n            // only owner can delete event.\n            return 2;\n        }\n    }\n\n    function deleteEvent(int256 _question_id) public {\n        require(\n            deleteEventValidator(_question_id) == 0,\n            \"Delete event is false\"\n        );\n        delete questions[_question_id];\n    }\n\n    function quizeBalance() public view returns (uint256) {\n        return address(this).balance;\n    }\n\n    function getContractTokenBalance() public view returns (uint256) {\n        return tokenContract.balanceOf(address(this));\n    }\n\n    function getMoneyRetention(address payable _host) public payable {\n        (uint256 amount, address host, bool path, int256 _question_id) = _getMoneyRetention(_host);\n        if(!path){\n           require(tokenContract.transfer(host, amount), \"Transfer ERC20 to host is error\");\n        }\n\n        emit payEvent(\"receive\", amount, path, host, \"hold money\", _question_id);\n    }\n\n function amountGuard(bool _path) public view returns (int8) {\n     uint256 balanceToken;\n     if(!_path){\n         balanceToken = tokenContract.balanceOf(address(msg.sender));\n     }\n\n     return _amountGuard(_path, balanceToken);\n }\n\n\n}\n",
  "sourcePath": "/Users/macbook/Documents/freelance/node/QUIZE/frontend/contracts/Quize.sol",
  "compiler": {
    "name": "solc",
    "version": "0.5.2+commit.1df8f40c.Emscripten.clang"
  },
  "schemaVersion": "3.0.19",
  "updatedAt": "2020-04-08T14:42:00.857Z",
  "networkType": "ethereum",
  "devdoc": {
    "methods": {}
  },
  "userdoc": {
    "methods": {}
  }
}