{
  "contractName": "Quize",
  "abi": [
    {
      "constant": true,
      "inputs": [
        {
          "name": "_path",
          "type": "bool"
        }
      ],
      "name": "amountGuard",
      "outputs": [
        {
          "name": "",
          "type": "int8"
        }
      ],
      "payable": false,
      "stateMutability": "view",
      "type": "function"
    },
    {
      "constant": false,
      "inputs": [
        {
          "name": "_priceEth",
          "type": "uint256"
        },
        {
          "name": "_priceToken",
          "type": "uint256"
        },
        {
          "name": "_tokenAddress",
          "type": "address"
        }
      ],
      "name": "setEthPrice",
      "outputs": [],
      "payable": false,
      "stateMutability": "nonpayable",
      "type": "function"
    },
    {
      "constant": true,
      "inputs": [
        {
          "name": "_path",
          "type": "bool"
        }
      ],
      "name": "moneyRetentionCalculate",
      "outputs": [
        {
          "name": "",
          "type": "uint256"
        }
      ],
      "payable": false,
      "stateMutability": "view",
      "type": "function"
    },
    {
      "constant": true,
      "inputs": [],
      "name": "holdBalance",
      "outputs": [
        {
          "name": "",
          "type": "uint256"
        }
      ],
      "payable": false,
      "stateMutability": "view",
      "type": "function"
    },
    {
      "constant": true,
      "inputs": [],
      "name": "priceEth",
      "outputs": [
        {
          "name": "",
          "type": "uint256"
        }
      ],
      "payable": false,
      "stateMutability": "view",
      "type": "function"
    },
    {
      "constant": true,
      "inputs": [],
      "name": "priceToken",
      "outputs": [
        {
          "name": "",
          "type": "uint256"
        }
      ],
      "payable": false,
      "stateMutability": "view",
      "type": "function"
    },
    {
      "constant": false,
      "inputs": [
        {
          "name": "_endTime",
          "type": "uint256"
        },
        {
          "name": "_pathHoldMoney",
          "type": "bool"
        }
      ],
      "name": "_setMoneyRetention",
      "outputs": [],
      "payable": true,
      "stateMutability": "payable",
      "type": "function"
    },
    {
      "constant": true,
      "inputs": [],
      "name": "tokenContract",
      "outputs": [
        {
          "name": "",
          "type": "address"
        }
      ],
      "payable": false,
      "stateMutability": "view",
      "type": "function"
    },
    {
      "constant": false,
      "inputs": [
        {
          "name": "_tokenContract",
          "type": "address"
        }
      ],
      "name": "setLoomERC20Coin",
      "outputs": [],
      "payable": false,
      "stateMutability": "nonpayable",
      "type": "function"
    },
    {
      "constant": true,
      "inputs": [],
      "name": "onHold",
      "outputs": [
        {
          "name": "",
          "type": "uint256"
        }
      ],
      "payable": false,
      "stateMutability": "view",
      "type": "function"
    },
    {
      "constant": true,
      "inputs": [],
      "name": "owner",
      "outputs": [
        {
          "name": "",
          "type": "address"
        }
      ],
      "payable": false,
      "stateMutability": "view",
      "type": "function"
    },
    {
      "constant": true,
      "inputs": [],
      "name": "fullAmount",
      "outputs": [
        {
          "name": "",
          "type": "uint256"
        }
      ],
      "payable": false,
      "stateMutability": "view",
      "type": "function"
    },
    {
      "constant": false,
      "inputs": [
        {
          "name": "_host",
          "type": "address"
        }
      ],
      "name": "getMoneyRetention",
      "outputs": [],
      "payable": true,
      "stateMutability": "payable",
      "type": "function"
    },
    {
      "inputs": [
        {
          "name": "_tokenContract",
          "type": "address"
        }
      ],
      "payable": false,
      "stateMutability": "nonpayable",
      "type": "constructor"
    },
    {
      "anonymous": false,
      "inputs": [
        {
          "indexed": false,
          "name": "question_id",
          "type": "int256"
        }
      ],
      "name": "eventIsFinish",
      "type": "event"
    },
    {
      "constant": false,
      "inputs": [
        {
          "name": "_question_id",
          "type": "int256"
        },
        {
          "name": "_startTime",
          "type": "uint256"
        },
        {
          "name": "_endTime",
          "type": "uint256"
        },
        {
          "name": "_percentHost",
          "type": "uint8"
        },
        {
          "name": "_percentValidator",
          "type": "uint8"
        },
        {
          "name": "_questionQuantity",
          "type": "uint8"
        },
        {
          "name": "_validatorsAmount",
          "type": "int256"
        },
        {
          "name": "_quizePrice",
          "type": "uint256"
        },
        {
          "name": "_pathHoldMoney",
          "type": "bool"
        }
      ],
      "name": "startQestion",
      "outputs": [],
      "payable": true,
      "stateMutability": "payable",
      "type": "function"
    },
    {
      "constant": false,
      "inputs": [
        {
          "name": "_question_id",
          "type": "int256"
        },
        {
          "name": "_whichAnswer",
          "type": "uint8"
        }
      ],
      "name": "setAnswer",
      "outputs": [],
      "payable": true,
      "stateMutability": "payable",
      "type": "function"
    },
    {
      "constant": false,
      "inputs": [
        {
          "name": "_question_id",
          "type": "int256"
        },
        {
          "name": "_whichAnswer",
          "type": "uint8"
        }
      ],
      "name": "setValidator",
      "outputs": [],
      "payable": true,
      "stateMutability": "payable",
      "type": "function"
    },
    {
      "constant": true,
      "inputs": [
        {
          "name": "_question_id",
          "type": "int256"
        }
      ],
      "name": "getQuestion",
      "outputs": [
        {
          "name": "persentFeeCompany",
          "type": "uint256"
        },
        {
          "name": "persentForEachValidators",
          "type": "uint256"
        },
        {
          "name": "money",
          "type": "uint256"
        },
        {
          "name": "monayForParticipant",
          "type": "uint256"
        },
        {
          "name": "questionQuantity",
          "type": "uint8"
        },
        {
          "name": "correctAnswer",
          "type": "uint256"
        },
        {
          "name": "persentFeeHost",
          "type": "uint256"
        }
      ],
      "payable": false,
      "stateMutability": "view",
      "type": "function"
    },
    {
      "constant": true,
      "inputs": [
        {
          "name": "_question_id",
          "type": "int256"
        }
      ],
      "name": "setTimeValidator",
      "outputs": [
        {
          "name": "",
          "type": "int8"
        }
      ],
      "payable": false,
      "stateMutability": "view",
      "type": "function"
    },
    {
      "constant": true,
      "inputs": [
        {
          "name": "_question_id",
          "type": "int256"
        }
      ],
      "name": "setTimeAnswer",
      "outputs": [
        {
          "name": "",
          "type": "int8"
        }
      ],
      "payable": false,
      "stateMutability": "view",
      "type": "function"
    },
    {
      "constant": true,
      "inputs": [
        {
          "name": "_question_id",
          "type": "int256"
        }
      ],
      "name": "deleteEventValidator",
      "outputs": [
        {
          "name": "",
          "type": "int8"
        }
      ],
      "payable": false,
      "stateMutability": "view",
      "type": "function"
    },
    {
      "constant": false,
      "inputs": [
        {
          "name": "_question_id",
          "type": "int256"
        }
      ],
      "name": "deleteEvent",
      "outputs": [],
      "payable": false,
      "stateMutability": "nonpayable",
      "type": "function"
    },
    {
      "constant": true,
      "inputs": [],
      "name": "quizeBalance",
      "outputs": [
        {
          "name": "",
          "type": "uint256"
        }
      ],
      "payable": false,
      "stateMutability": "view",
      "type": "function"
    }
  ],
  "bytecode": "0x6080604052678ac7230489e800006000556002600760006101000a81548160ff021916908360ff16021790555062093a806009557302810c3bc07de2ddaef89827b0dd6b223c7759d5600a60006101000a81548173ffffffffffffffffffffffffffffffffffffffff021916908373ffffffffffffffffffffffffffffffffffffffff1602179055503480156200009557600080fd5b506040516020806200315383398101806040526020811015620000b757600080fd5b810190808051906020019092919050505033600160006101000a81548173ffffffffffffffffffffffffffffffffffffffff021916908373ffffffffffffffffffffffffffffffffffffffff16021790555062000123816200012a640100000000026401000000009004565b5062000218565b600160009054906101000a900473ffffffffffffffffffffffffffffffffffffffff1673ffffffffffffffffffffffffffffffffffffffff163373ffffffffffffffffffffffffffffffffffffffff16141515620001d4576040517f08c379a00000000000000000000000000000000000000000000000000000000081526004018080602001828103825260248152602001806200312f6024913960400191505060405180910390fd5b80600460006101000a81548173ffffffffffffffffffffffffffffffffffffffff021916908373ffffffffffffffffffffffffffffffffffffffff16021790555050565b612f0780620002286000396000f3fe608060405260043610610152576000357c01000000000000000000000000000000000000000000000000000000009004806357146e06116100c85780638da5cb5b1161008c5780638da5cb5b146105e6578063c9e53b4b1461063d578063e4f8749614610678578063ed7439c1146106a3578063f5c1ec811461072d578063f84821711461075857610152565b806357146e0614610441578063675c0671146104c05780637fc5054514610511578063834f80471461053c57806387b6608d1461059157610152565b80632ca383631161011a5780632ca38363146102ca5780632ff6fe76146102f55780633493c8621461032057806334be86c8146103755780634224765f146103b057806355a373d6146103ea57610152565b80631c5430ba1461015757806325b133ec146101ae57806325f0f5ab1461021357806326c989df146102645780632a7100cc1461028f575b600080fd5b34801561016357600080fd5b506101926004803603602081101561017a57600080fd5b8101908080351515906020019092919050505061079c565b604051808260000b60000b815260200191505060405180910390f35b3480156101ba57600080fd5b50610211600480360360608110156101d157600080fd5b810190808035906020019092919080359060200190929190803573ffffffffffffffffffffffffffffffffffffffff1690602001909291905050506108e3565b005b34801561021f57600080fd5b5061024e6004803603602081101561023657600080fd5b81019080803515159060200190929190505050610a22565b6040518082815260200191505060405180910390f35b34801561027057600080fd5b50610279610a7a565b6040518082815260200191505060405180910390f35b6102c8600480360360408110156102a557600080fd5b8101908080359060200190929190803560ff169060200190929190505050610a99565b005b3480156102d657600080fd5b506102df610d43565b6040518082815260200191505060405180910390f35b34801561030157600080fd5b5061030a610d49565b6040518082815260200191505060405180910390f35b34801561032c57600080fd5b506103596004803603602081101561034357600080fd5b8101908080359060200190929190505050610d4f565b604051808260000b60000b815260200191505060405180910390f35b6103ae6004803603604081101561038b57600080fd5b8101908080359060200190929190803560ff169060200190929190505050610e7a565b005b6103e8600480360360408110156103c657600080fd5b810190808035906020019092919080351515906020019092919050505061106b565b005b3480156103f657600080fd5b506103ff61108f565b604051808273ffffffffffffffffffffffffffffffffffffffff1673ffffffffffffffffffffffffffffffffffffffff16815260200191505060405180910390f35b34801561044d57600080fd5b5061047a6004803603602081101561046457600080fd5b81019080803590602001909291905050506110b5565b604051808881526020018781526020018681526020018581526020018460ff1660ff16815260200183815260200182815260200197505050505050505060405180910390f35b3480156104cc57600080fd5b5061050f600480360360208110156104e357600080fd5b81019080803573ffffffffffffffffffffffffffffffffffffffff169060200190929190505050611187565b005b34801561051d57600080fd5b50610526611273565b6040518082815260200191505060405180910390f35b34801561054857600080fd5b506105756004803603602081101561055f57600080fd5b81019080803590602001909291905050506113b6565b604051808260000b60000b815260200191505060405180910390f35b34801561059d57600080fd5b506105ca600480360360208110156105b457600080fd5b8101908080359060200190929190505050611417565b604051808260000b60000b815260200191505060405180910390f35b3480156105f257600080fd5b506105fb6114be565b604051808273ffffffffffffffffffffffffffffffffffffffff1673ffffffffffffffffffffffffffffffffffffffff16815260200191505060405180910390f35b34801561064957600080fd5b506106766004803603602081101561066057600080fd5b81019080803590602001909291905050506114e4565b005b34801561068457600080fd5b5061068d611653565b6040518082815260200191505060405180910390f35b61072b60048036036101208110156106ba57600080fd5b81019080803590602001909291908035906020019092919080359060200190929190803560ff169060200190929190803560ff169060200190929190803560ff1690602001909291908035906020019092919080359060200190929190803515159060200190929190505050611672565b005b34801561073957600080fd5b50610742611874565b6040518082815260200191505060405180910390f35b61079a6004803603602081101561076e57600080fd5b81019080803573ffffffffffffffffffffffffffffffffffffffff16906020019092919050505061187a565b005b60008082156107c4573373ffffffffffffffffffffffffffffffffffffffff163190506108bd565b600460009054906101000a900473ffffffffffffffffffffffffffffffffffffffff1673ffffffffffffffffffffffffffffffffffffffff166370a08231336040518263ffffffff167c0100000000000000000000000000000000000000000000000000000000028152600401808273ffffffffffffffffffffffffffffffffffffffff1673ffffffffffffffffffffffffffffffffffffffff16815260200191505060206040518083038186803b15801561087f57600080fd5b505afa158015610893573d6000803e3d6000fd5b505050506040513d60208110156108a957600080fd5b810190808051906020019092919050505090505b6108c683610a22565b811015156108d85760009150506108de565b60019150505b919050565b600160009054906101000a900473ffffffffffffffffffffffffffffffffffffffff1673ffffffffffffffffffffffffffffffffffffffff163373ffffffffffffffffffffffffffffffffffffffff161415156109a8576040517f08c379a000000000000000000000000000000000000000000000000000000000815260040180806020018281038252601b8152602001807f6f6e6c79206f776e65722063616e206368616e6765207072696365000000000081525060200191505060405180910390fd5b670de0b6b3a7640000838115156109bb57fe5b04600281905550670de0b6b3a7640000828115156109d557fe5b0460038190555080600560006101000a81548173ffffffffffffffffffffffffffffffffffffffff021916908373ffffffffffffffffffffffffffffffffffffffff160217905550505050565b6000610a736001600660003373ffffffffffffffffffffffffffffffffffffffff1673ffffffffffffffffffffffffffffffffffffffff168152602001908152602001600020600001540183611eac565b9050919050565b60003073ffffffffffffffffffffffffffffffffffffffff1631905090565b6000610aa4836113b6565b60000b141515610b1c576040517f08c379a00000000000000000000000000000000000000000000000000000000081526004018080602001828103825260118152602001807f54696d65206973206e6f742076616c696400000000000000000000000000000081525060200191505060405180910390fd5b600b60008381526020019081526020016000206011015434141515610ba9576040517f08c379a00000000000000000000000000000000000000000000000000000000081526004018080602001828103825260138152602001807f4d6f6e657920646f206e6f7420656e6f7567680000000000000000000000000081525060200191505060405180910390fd5b34600b6000848152602001908152602001600020600401600082825401925050819055506000600b600084815260200190815260200160002060060160008360ff16815260200190815260200160002060010154905033600b600085815260200190815260200160002060060160008460ff168152602001908152602001600020600001600083815260200190815260200160002060000160006101000a81548173ffffffffffffffffffffffffffffffffffffffff021916908373ffffffffffffffffffffffffffffffffffffffff16021790555060018101600b600085815260200190815260200160002060060160008460ff16815260200190815260200160002060010181905550600b60008481526020019081526020016000206010013390806001815401808255809150509060018203906000526020600020016000909192909190916101000a81548173ffffffffffffffffffffffffffffffffffffffff021916908373ffffffffffffffffffffffffffffffffffffffff1602179055505034600860008282540192505081905550505050565b60025481565b60035481565b600080600b6000848152602001908152602001600020600201544203121515610e7057600042600954600b6000868152602001908152602001600020600201540103121515610e675760008090505b600b6000848152602001908152602001600020601001805490508160ff161015610e5d573373ffffffffffffffffffffffffffffffffffffffff16600b60008581526020019081526020016000206010018260ff16815481101515610dff57fe5b9060005260206000200160009054906101000a900473ffffffffffffffffffffffffffffffffffffffff1673ffffffffffffffffffffffffffffffffffffffff161415610e50576003915050610e75565b8080600101915050610d9e565b5060009050610e75565b60029050610e75565b600190505b919050565b6000610e8583610d4f565b60000b141515610efd576040517f08c379a00000000000000000000000000000000000000000000000000000000081526004018080602001828103825260118152602001807f54696d65206973206e6f742076616c696400000000000000000000000000000081525060200191505060405180910390fd5b6000600b600084815260200190815260200160002060070160008360ff16815260200190815260200160002060010154905033600b600085815260200190815260200160002060070160008460ff168152602001908152602001600020600001600083815260200190815260200160002060000160006101000a81548173ffffffffffffffffffffffffffffffffffffffff021916908373ffffffffffffffffffffffffffffffffffffffff16021790555060018101600b600085815260200190815260200160002060070160008460ff1681526020019081526020016000206001018190555060006001600b600086815260200190815260200160002060090154019050600b6000858152602001908152602001600020600801548114156110495780600b60008681526020019081526020016000206009018190555061104484611f7c565b611065565b80600b6000868152602001908152602001600020600901819055505b50505050565b80156110805761107b8282612063565b61108b565b61108a82826122f5565b5b5050565b600460009054906101000a900473ffffffffffffffffffffffffffffffffffffffff1681565b6000806000806000806000600b6000898152602001908152602001600020600b0154600b60008a8152602001908152602001600020600d0154600b60008b815260200190815260200160002060040154600b60008c8152602001908152602001600020600e0154600b60008d815260200190815260200160002060030160009054906101000a900460ff16600b60008e8152602001908152602001600020600f0154600b60008f8152602001908152602001600020600c01549650965096509650965096509650919395979092949650565b600160009054906101000a900473ffffffffffffffffffffffffffffffffffffffff1673ffffffffffffffffffffffffffffffffffffffff163373ffffffffffffffffffffffffffffffffffffffff1614151561122f576040517f08c379a0000000000000000000000000000000000000000000000000000000008152600401808060200182810382526024815260200180612eb86024913960400191505060405180910390fd5b80600460006101000a81548173ffffffffffffffffffffffffffffffffffffffff021916908373ffffffffffffffffffffffffffffffffffffffff16021790555050565b60006001600660003373ffffffffffffffffffffffffffffffffffffffff1673ffffffffffffffffffffffffffffffffffffffff168152602001908152602001600020600001541015156113ae57600080905060008090505b600660003373ffffffffffffffffffffffffffffffffffffffff1673ffffffffffffffffffffffffffffffffffffffff168152602001908152602001600020600001548160ff161115156113a4576000600660003373ffffffffffffffffffffffffffffffffffffffff1673ffffffffffffffffffffffffffffffffffffffff16815260200190815260200160002060010160008360ff16815260200190815260200160002060030160009054906101000a900460ff1690506113928260ff1682611eac565b830192505080806001019150506112cc565b50809150506113b3565b600090505b90565b600080600b600084815260200190815260200160002060010154420312151561140d57600042600b600085815260200190815260200160002060020154031215156114045760009050611412565b60029050611412565b600190505b919050565b60003373ffffffffffffffffffffffffffffffffffffffff16600b6000848152602001908152602001600020600a0160009054906101000a900473ffffffffffffffffffffffffffffffffffffffff1673ffffffffffffffffffffffffffffffffffffffff1614156114b4576000600b60008481526020019081526020016000206004015414156114ab57600090506114b9565b600190506114b9565b600290505b919050565b600160009054906101000a900473ffffffffffffffffffffffffffffffffffffffff1681565b60006114ef82611417565b60000b141515611567576040517f08c379a00000000000000000000000000000000000000000000000000000000081526004018080602001828103825260158152602001807f44656c657465206576656e742069732066616c7365000000000000000000000081525060200191505060405180910390fd5b600b6000828152602001908152602001600020600080820160009055600182016000905560028201600090556003820160006101000a81549060ff021916905560048201600090556005820160006101000a81549060ff02191690556005820160016101000a81549060ff021916905560088201600090556009820160009055600a820160006101000a81549073ffffffffffffffffffffffffffffffffffffffff0219169055600b820160009055600c820160009055600d820160009055600e820160009055600f8201600090556010820160006116469190612e71565b6011820160009055505050565b60003073ffffffffffffffffffffffffffffffffffffffff1631905090565b88600b60008b81526020019081526020016000206000018190555086600b60008b81526020019081526020016000206002018190555083600b60008b815260200190815260200160002060030160006101000a81548160ff021916908360ff16021790555087600b60008b81526020019081526020016000206001018190555082600b60008b81526020019081526020016000206008018190555033600b60008b8152602001908152602001600020600a0160006101000a81548173ffffffffffffffffffffffffffffffffffffffff021916908373ffffffffffffffffffffffffffffffffffffffff16021790555081600b60008b81526020019081526020016000206011018190555060008660ff1614156117be576003600b60008b815260200190815260200160002060050160006101000a81548160ff021916908360ff1602179055506117ee565b85600b60008b815260200190815260200160002060050160006101000a81548160ff021916908360ff1602179055505b60008560ff16141561182f576005600b60008b815260200190815260200160002060050160016101000a81548160ff021916908360ff16021790555061185f565b84600b60008b815260200190815260200160002060050160016101000a81548160ff021916908360ff1602179055505b611869878261106b565b505050505050505050565b60085481565b600160009054906101000a900473ffffffffffffffffffffffffffffffffffffffff1673ffffffffffffffffffffffffffffffffffffffff163373ffffffffffffffffffffffffffffffffffffffff16141515611922576040517f08c379a0000000000000000000000000000000000000000000000000000000008152600401808060200182810382526024815260200180612eb86024913960400191505060405180910390fd5b6000600660008373ffffffffffffffffffffffffffffffffffffffff1673ffffffffffffffffffffffffffffffffffffffff168152602001908152602001600020600001541115156119dc576040517f08c379a000000000000000000000000000000000000000000000000000000000815260040180806020018281038252601c8152602001807f446f206e6f74206861766520636f696e73206f6e206163636f756e740000000081525060200191505060405180910390fd5b60006001600660008473ffffffffffffffffffffffffffffffffffffffff1673ffffffffffffffffffffffffffffffffffffffff168152602001908152602001600020600001540390506000600660008473ffffffffffffffffffffffffffffffffffffffff1673ffffffffffffffffffffffffffffffffffffffff168152602001908152602001600020600101600083815260200190815260200160002060000160009054906101000a900473ffffffffffffffffffffffffffffffffffffffff1690508273ffffffffffffffffffffffffffffffffffffffff168173ffffffffffffffffffffffffffffffffffffffff16141515611b44576040517f08c379a00000000000000000000000000000000000000000000000000000000081526004018080602001828103825260138152602001807f416464726573736573206e6f7420657175616c0000000000000000000000000081525060200191505060405180910390fd5b6000600660003373ffffffffffffffffffffffffffffffffffffffff1673ffffffffffffffffffffffffffffffffffffffff1681526020019081526020016000206001016000848152602001908152602001600020600101549050600660008373ffffffffffffffffffffffffffffffffffffffff1673ffffffffffffffffffffffffffffffffffffffff16815260200190815260200160002060000160008154809291906001900391905055506000600660003373ffffffffffffffffffffffffffffffffffffffff1673ffffffffffffffffffffffffffffffffffffffff168152602001908152602001600020600101600085815260200190815260200160002060030160009054906101000a900460ff1690508015611cac578273ffffffffffffffffffffffffffffffffffffffff166108fc839081150290604051600060405180830381858888f19350505050158015611ca6573d6000803e3d6000fd5b50611e04565b600460009054906101000a900473ffffffffffffffffffffffffffffffffffffffff1673ffffffffffffffffffffffffffffffffffffffff166323b872dd600560009054906101000a900473ffffffffffffffffffffffffffffffffffffffff1685856040518463ffffffff167c0100000000000000000000000000000000000000000000000000000000028152600401808473ffffffffffffffffffffffffffffffffffffffff1673ffffffffffffffffffffffffffffffffffffffff1681526020018373ffffffffffffffffffffffffffffffffffffffff1673ffffffffffffffffffffffffffffffffffffffff1681526020018281526020019350505050602060405180830381600087803b158015611dc757600080fd5b505af1158015611ddb573d6000803e3d6000fd5b505050506040513d6020811015611df157600080fd5b8101908080519060200190929190505050505b600660003373ffffffffffffffffffffffffffffffffffffffff1673ffffffffffffffffffffffffffffffffffffffff1681526020019081526020016000206001016000858152602001908152602001600020600080820160006101000a81549073ffffffffffffffffffffffffffffffffffffffff0219169055600182016000905560028201600090556003820160006101000a81549060ff021916905550505050505050565b60008060005490506001841415611f01578215611edc57606460025482811515611ed257fe5b0402915050611f76565b6002606460035483811515611eed57fe5b0402811515611ef857fe5b04915050611f76565b600284101515611f74576000600190505b848160ff161015611f2f5781820191508080600101915050611f12565b508215611f4f57606460025482811515611f4557fe5b0402915050611f76565b6002606460035483811515611f6057fe5b0402811515611f6b57fe5b04915050611f76565b505b92915050565b6000809050600080600b600085815260200190815260200160002060030160009054906101000a900460ff1660ff16905060008090505b818160ff1612156120375783600b600087815260200190815260200160002060070160008360ff16815260200190815260200160002060010154111561202a57600b600086815260200190815260200160002060070160008260ff1681526020019081526020016000206001015493508060ff1692505b8080600101915050611fb3565b5081600b6000868152602001908152602001600020600f018190555061205d828561284d565b50505050565b61206c81610a22565b341415156120e2576040517f08c379a00000000000000000000000000000000000000000000000000000000081526004018080602001828103825260148152602001807f446f206e6f7420656e6f75676874206d6f6e657900000000000000000000000081525060200191505060405180910390fd5b6000600660003373ffffffffffffffffffffffffffffffffffffffff1673ffffffffffffffffffffffffffffffffffffffff168152602001908152602001600020600001600081548092919060010191905055905033600660003373ffffffffffffffffffffffffffffffffffffffff1673ffffffffffffffffffffffffffffffffffffffff168152602001908152602001600020600101600083815260200190815260200160002060000160006101000a81548173ffffffffffffffffffffffffffffffffffffffff021916908373ffffffffffffffffffffffffffffffffffffffff16021790555034600660003373ffffffffffffffffffffffffffffffffffffffff1673ffffffffffffffffffffffffffffffffffffffff16815260200190815260200160002060010160008381526020019081526020016000206001018190555082600660003373ffffffffffffffffffffffffffffffffffffffff1673ffffffffffffffffffffffffffffffffffffffff16815260200190815260200160002060010160008381526020019081526020016000206002018190555081600660003373ffffffffffffffffffffffffffffffffffffffff1673ffffffffffffffffffffffffffffffffffffffff168152602001908152602001600020600101600083815260200190815260200160002060030160006101000a81548160ff021916908315150217905550505050565b600061230082610a22565b905080600460009054906101000a900473ffffffffffffffffffffffffffffffffffffffff1673ffffffffffffffffffffffffffffffffffffffff166370a08231336040518263ffffffff167c0100000000000000000000000000000000000000000000000000000000028152600401808273ffffffffffffffffffffffffffffffffffffffff1673ffffffffffffffffffffffffffffffffffffffff16815260200191505060206040518083038186803b1580156123be57600080fd5b505afa1580156123d2573d6000803e3d6000fd5b505050506040513d60208110156123e857600080fd5b81019080805190602001909291905050501015151561246f576040517f08c379a00000000000000000000000000000000000000000000000000000000081526004018080602001828103825260148152602001807f446f206e6f7420656e6f75676874206d6f6e657900000000000000000000000081525060200191505060405180910390fd5b600460009054906101000a900473ffffffffffffffffffffffffffffffffffffffff1673ffffffffffffffffffffffffffffffffffffffff166323b872dd33600560009054906101000a900473ffffffffffffffffffffffffffffffffffffffff16846040518463ffffffff167c0100000000000000000000000000000000000000000000000000000000028152600401808473ffffffffffffffffffffffffffffffffffffffff1673ffffffffffffffffffffffffffffffffffffffff1681526020018373ffffffffffffffffffffffffffffffffffffffff1673ffffffffffffffffffffffffffffffffffffffff1681526020018281526020019350505050602060405180830381600087803b15801561258a57600080fd5b505af115801561259e573d6000803e3d6000fd5b505050506040513d60208110156125b457600080fd5b81019080805190602001909291905050501515612639576040517f08c379a000000000000000000000000000000000000000000000000000000000815260040180806020018281038252600e8152602001807f5472616e73666572206572726f7200000000000000000000000000000000000081525060200191505060405180910390fd5b6000600660003373ffffffffffffffffffffffffffffffffffffffff1673ffffffffffffffffffffffffffffffffffffffff168152602001908152602001600020600001600081548092919060010191905055905033600660003373ffffffffffffffffffffffffffffffffffffffff1673ffffffffffffffffffffffffffffffffffffffff168152602001908152602001600020600101600083815260200190815260200160002060000160006101000a81548173ffffffffffffffffffffffffffffffffffffffff021916908373ffffffffffffffffffffffffffffffffffffffff16021790555081600660003373ffffffffffffffffffffffffffffffffffffffff1673ffffffffffffffffffffffffffffffffffffffff16815260200190815260200160002060010160008381526020019081526020016000206001018190555083600660003373ffffffffffffffffffffffffffffffffffffffff1673ffffffffffffffffffffffffffffffffffffffff16815260200190815260200160002060010160008381526020019081526020016000206002018190555082600660003373ffffffffffffffffffffffffffffffffffffffff1673ffffffffffffffffffffffffffffffffffffffff168152602001908152602001600020600101600083815260200190815260200160002060030160006101000a81548160ff02191690831515021790555050505050565b6000600b60008381526020019081526020016000206004015411156129705760006128a0600b600084815260200190815260200160002060040154600760009054906101000a900460ff1660ff16612974565b905080600b60008481526020019081526020016000206004015403600b6000848152602001908152602001600020600401819055508060085403600881905550600a60009054906101000a900473ffffffffffffffffffffffffffffffffffffffff1673ffffffffffffffffffffffffffffffffffffffff166108fc829081150290604051600060405180830381858888f19350505050158015612948573d6000803e3d6000fd5b5080600b6000848152602001908152602001600020600b018190555061296e838361298d565b505b5050565b6000606483830281151561298457fe5b04905092915050565b60006129d5600b600084815260200190815260200160002060040154600b600085815260200190815260200160002060050160009054906101000a900460ff1660ff16612974565b905080600b60008481526020019081526020016000206004015403600b6000848152602001908152602001600020600401819055508060085403600881905550600b6000838152602001908152602001600020600a0160009054906101000a900473ffffffffffffffffffffffffffffffffffffffff1673ffffffffffffffffffffffffffffffffffffffff166108fc829081150290604051600060405180830381858888f19350505050158015612a91573d6000803e3d6000fd5b5080600b6000848152602001908152602001600020600c0181905550612ab78383612abc565b505050565b6000612b04600b600084815260200190815260200160002060040154600b600085815260200190815260200160002060050160019054906101000a900460ff1660ff16612974565b90506000600b600084815260200190815260200160002060070160008581526020019081526020016000206001015482811515612b3d57fe5b049050816008540360088190555080600b6000858152602001908152602001600020600d018190555060008090505b600b60008581526020019081526020016000206007016000868152602001908152602001600020600101548160ff161015612c8f576000600b6000868152602001908152602001600020600701600087815260200190815260200160002060000160008360ff16815260200190815260200160002060000160009054906101000a900473ffffffffffffffffffffffffffffffffffffffff16905082600b60008781526020019081526020016000206004015403600b6000878152602001908152602001600020600401819055508073ffffffffffffffffffffffffffffffffffffffff166108fc849081150290604051600060405180830381858888f19350505050158015612c80573d6000803e3d6000fd5b50508080600101915050612b6c565b50612c9a8484612ca0565b50505050565b6000600b6000838152602001908152602001600020600601600084815260200190815260200160002060010154600b600084815260200190815260200160002060040154811515612ced57fe5b04905060008090505b600b60008481526020019081526020016000206006016000858152602001908152602001600020600101548160ff161015612e19576000600b6000858152602001908152602001600020600601600086815260200190815260200160002060000160008360ff16815260200190815260200160002060000160009054906101000a900473ffffffffffffffffffffffffffffffffffffffff16905082600b60008681526020019081526020016000206004015403600b6000868152602001908152602001600020600401819055508073ffffffffffffffffffffffffffffffffffffffff166108fc849081150290604051600060405180830381858888f19350505050158015612e0a573d6000803e3d6000fd5b50508080600101915050612cf6565b5080600b6000848152602001908152602001600020600e01819055507fb0b53c79f7cd0d8c624f48414bdb76a381085a786cc7a98931e2fc76933b644e826040518082815260200191505060405180910390a1505050565b5080546000825590600052602060002090810190612e8f9190612e92565b50565b612eb491905b80821115612eb0576000816000905550600101612e98565b5090565b9056fe4f6e6c79206f776e65722063616e206578656375746520746869732066756e6374696f6ea165627a7a7230582010f876766c0d2e52add62a5f8fad848e775e9509e6c06923ba2ac5310f1cb6f200294f6e6c79206f776e65722063616e206578656375746520746869732066756e6374696f6e",
  "source": "pragma solidity ^0.5.2;\n\nimport \"./HoldMoney.sol\";\nimport \"./LoomERC20Coin.sol\";\n\n\ncontract Quize is HoldMoney {\n    uint8 private percentQuiz = 2;\n    uint256 public fullAmount;\n    uint256 private sevenDaysTimeStamp = 604800;\n    address payable companyAddress = 0x02810c3bc07De2ddAef89827b0dD6b223C7759d5;\n\n    event eventIsFinish(int256 question_id);\n\n    struct Participant {\n        mapping(uint256 => Part) participants;\n        uint256 index;\n    }\n\n    struct Part {\n        address payable parts;\n    }\n\n    struct Validator {\n        mapping(uint256 => Valid) validators;\n        uint256 index;\n    }\n\n    struct Valid {\n        address payable valid;\n    }\n\n    struct Question {\n        int256 question_id;\n        uint256 startTime;\n        uint256 endTime;\n        uint8 questionQuantity;\n        uint256 money;\n        uint8 percentHost;\n        uint8 percentValidator;\n        mapping(uint256 => Participant) participant;\n        mapping(uint256 => Validator) validator;\n        int256 validatorsAmount;\n        int256 activeValidators;\n        address payable hostWallet;\n        uint256 persentFeeCompany;\n        uint256 persentFeeHost;\n        uint256 persentForEachValidators;\n        uint256 monayForParticipant;\n        uint256 correctAnswer;\n        address[] allParticipant;\n        uint256 quizePrice;\n    }\n\n    mapping(int256 => Question) questions;\n\n    constructor(LoomERC20Coin _tokenContract) public {\n        setLoomERC20Coin(_tokenContract);\n    }\n\n    function startQestion(\n        int256 _question_id,\n        uint256 _startTime,\n        uint256 _endTime,\n        uint8 _percentHost,\n        uint8 _percentValidator,\n        uint8 _questionQuantity,\n        int256 _validatorsAmount,\n        uint256 _quizePrice,\n        bool _pathHoldMoney\n    ) public payable {\n        questions[_question_id].question_id = _question_id;\n        questions[_question_id].endTime = _endTime;\n        questions[_question_id].questionQuantity = _questionQuantity;\n        questions[_question_id].startTime = _startTime;\n        questions[_question_id].validatorsAmount = _validatorsAmount;\n        questions[_question_id].hostWallet = msg.sender;\n        questions[_question_id].quizePrice = _quizePrice;\n\n        if (_percentHost == 0) {\n            questions[_question_id].percentHost = 3;\n        } else {\n            questions[_question_id].percentHost = _percentHost;\n        }\n\n        if (_percentValidator == 0) {\n            questions[_question_id].percentValidator = 5;\n        } else {\n            questions[_question_id].percentValidator = _percentValidator;\n        }\n\n        _setMoneyRetention(_endTime, _pathHoldMoney);\n    }\n\n    function setAnswer(int256 _question_id, uint8 _whichAnswer) public payable {\n        require(setTimeAnswer(_question_id) == 0, \"Time is not valid\");\n        require(msg.value == questions[_question_id].quizePrice, \"Money do not enough\");\n\n        questions[_question_id].money += msg.value;\n        uint256 i = questions[_question_id].participant[_whichAnswer].index;\n        questions[_question_id].participant[_whichAnswer].participants[i].parts = msg.sender;\n        questions[_question_id].participant[_whichAnswer].index = i + 1;\n        questions[_question_id].allParticipant.push(msg.sender);\n        fullAmount += msg.value;\n    }\n\n    function setValidator(int256 _question_id, uint8 _whichAnswer) public payable {\n        require(setTimeValidator(_question_id) == 0, \"Time is not valid\");\n        uint256 i = questions[_question_id].validator[_whichAnswer].index;\n        questions[_question_id].validator[_whichAnswer].validators[i].valid = msg.sender;\n        questions[_question_id].validator[_whichAnswer].index = i + 1;\n        int256 active = questions[_question_id].activeValidators + 1;\n        if (active == questions[_question_id].validatorsAmount) {\n            questions[_question_id].activeValidators = active;\n            letsFindCorrectAnswer(_question_id);\n        } else {\n            questions[_question_id].activeValidators = active;\n        }\n    }\n\n    function letsFindCorrectAnswer(int256 _question_id) private {\n        uint256 biggestValue = 0;\n        uint256 correctAnswer;\n        int256 questionQuantity = questions[_question_id].questionQuantity;\n\n        // find correct answer\n        for (uint8 i = 0; i < questionQuantity; i++) {\n            if (questions[_question_id].validator[i].index > biggestValue) {\n                biggestValue = questions[_question_id].validator[i].index;\n                correctAnswer = i;\n            }\n        }\n\n        questions[_question_id].correctAnswer = correctAnswer;\n        letsPayCompanyFee(correctAnswer, _question_id);\n    }\n\n    function letsPayCompanyFee(uint256 correctAnswer, int256 _question_id) private {\n        if (questions[_question_id].money > 0) {\n            // pay fee for company\n            uint256 persentFee = getPersent(\n                questions[_question_id].money,\n                percentQuiz\n            );\n            questions[_question_id].money = questions[_question_id].money - persentFee;\n            fullAmount = fullAmount - persentFee;\n            companyAddress.transfer(persentFee);\n            questions[_question_id].persentFeeCompany = persentFee;\n\n            letsPayHostFee(correctAnswer, _question_id);\n        }\n    }\n\n    function letsPayHostFee(uint256 correctAnswer, int256 _question_id) private {\n        // pay fee for host\n        uint256 persHostFee = getPersent(\n            questions[_question_id].money,\n            questions[_question_id].percentHost\n        );\n        questions[_question_id].money = questions[_question_id].money - persHostFee;\n        fullAmount = fullAmount - persHostFee;\n        questions[_question_id].hostWallet.transfer(persHostFee);\n        questions[_question_id].persentFeeHost = persHostFee;\n\n        letsPayValidatorFee(correctAnswer, _question_id);\n    }\n\n    function letsPayValidatorFee(uint256 correctAnswer, int256 _question_id) private {\n        // calculate percent for validator\n        uint256 persentForValidators = getPersent(\n            questions[_question_id].money,\n            questions[_question_id].percentValidator\n        );\n        uint256 persentForEachValidators = persentForValidators / questions[_question_id].validator[correctAnswer].index;\n        fullAmount = fullAmount - persentForValidators;\n\n        questions[_question_id].persentForEachValidators = persentForEachValidators;\n\n        // pay for validatos\n        for (uint8 i = 0; i < questions[_question_id].validator[correctAnswer].index; i++ ) {\n            address payable _validator = questions[_question_id].validator[correctAnswer].validators[i].valid;\n            questions[_question_id].money = questions[_question_id].money - persentForEachValidators;\n            _validator.transfer(persentForEachValidators);\n        }\n        letsPayParticipantFee(correctAnswer, _question_id);\n    }\n\n    function letsPayParticipantFee(uint256 correctAnswer, int256 _question_id) private{\n         // Pay for participant\n        uint256 monayForParticipant = questions[_question_id].money / questions[_question_id].participant[correctAnswer].index;\n        for ( uint8 i = 0; i < questions[_question_id].participant[correctAnswer].index; i++) {\n            address payable _participant = questions[_question_id].participant[correctAnswer].participants[i].parts;\n            questions[_question_id].money = questions[_question_id].money - monayForParticipant;\n            _participant.transfer(monayForParticipant);\n        }\n\n        questions[_question_id].monayForParticipant = monayForParticipant;\n\n        emit eventIsFinish(_question_id);\n    }\n\n    function getPersent(uint256 _percent, uint256 _from)\n        private\n        pure\n        returns (uint256)\n    {\n        return (_from * _percent) / 100;\n    }\n\n    function getQuestion(int256 _question_id)\n        public\n        view\n        returns (\n            uint256 persentFeeCompany,\n            uint256 persentForEachValidators,\n            uint256 money,\n            uint256 monayForParticipant,\n            uint8 questionQuantity,\n            uint256 correctAnswer,\n            uint256 persentFeeHost\n        )\n    {\n        return (\n            questions[_question_id].persentFeeCompany,\n            questions[_question_id].persentForEachValidators,\n            questions[_question_id].money,\n            questions[_question_id].monayForParticipant,\n            questions[_question_id].questionQuantity,\n            questions[_question_id].correctAnswer,\n            questions[_question_id].persentFeeHost\n        );\n    }\n\n    function setTimeValidator(int256 _question_id) public view returns (int8) {\n        if (int256(now - questions[_question_id].endTime) >= 0){\n            if (int256((questions[_question_id].endTime + sevenDaysTimeStamp) - now) >= 0){\n                // if validator made activities like participants.\n                for (uint8 i = 0; i < questions[_question_id].allParticipant.length; i++) {\n                    if (questions[_question_id].allParticipant[i] == msg.sender) {\n                        return 3;\n                    }\n                }\n                // user can validate because time is valid.\n                return 0;\n            } else {\n                // user can't validate because time is finish.\n                return 2;\n            }\n        } else {\n            // user can't validate because event is not started yet.\n            return 1;\n        }\n    }\n\n    function setTimeAnswer(int256 _question_id) public view returns (int8) {\n        if (int256(now - questions[_question_id].startTime) >= 0) {\n            if (int256(questions[_question_id].endTime - now) >= 0) {\n                // user can make answer because time is valid.\n                return 0;\n            } else {\n                // user can't make answer because event is finish.\n                return 2;\n            }\n        } else {\n            // user can't make answer because event is not started yet.\n            return 1;\n        }\n    }\n\n    function deleteEventValidator(int256 _question_id)\n        public\n        view\n        returns (int8)\n    {\n        if (questions[_question_id].hostWallet == msg.sender) {\n            if (questions[_question_id].money == 0) {\n                // user can delete event\n                return 0;\n            } else {\n                // user can't delete event because event has money on balance\n                return 1;\n            }\n        } else {\n            // only owner can delete event.\n            return 2;\n        }\n    }\n\n    function deleteEvent(int256 _question_id) public {\n        require(\n            deleteEventValidator(_question_id) == 0,\n            \"Delete event is false\"\n        );\n        delete questions[_question_id];\n    }\n\n    function quizeBalance() public view returns (uint256) {\n        return address(this).balance;\n    }\n}\n",
  "sourcePath": "/Users/macbook/Documents/freelance/node/QUIZE/frontend/contracts/Quize.sol",
  "compiler": {
    "name": "solc",
    "version": "0.5.2+commit.1df8f40c.Emscripten.clang"
  },
  "schemaVersion": "3.0.19",
  "updatedAt": "2020-04-01T19:54:16.537Z",
  "networkType": "ethereum",
  "devdoc": {
    "methods": {}
  },
  "userdoc": {
    "methods": {}
  }
}