{
  "contractName": "Quize",
  "abi": [
    {
      "anonymous": false,
      "inputs": [
        {
          "indexed": false,
          "internalType": "int256",
          "name": "question_id",
          "type": "int256"
        }
      ],
      "name": "eventIsFinish",
      "type": "event"
    },
    {
      "constant": true,
      "inputs": [
        {
          "internalType": "uint256",
          "name": "_amountHost",
          "type": "uint256"
        }
      ],
      "name": "_amountGuard",
      "outputs": [
        {
          "internalType": "int8",
          "name": "",
          "type": "int8"
        }
      ],
      "payable": false,
      "stateMutability": "view",
      "type": "function"
    },
    {
      "constant": true,
      "inputs": [
        {
          "internalType": "int256",
          "name": "_question_id",
          "type": "int256"
        }
      ],
      "name": "_getHoldMoneyById",
      "outputs": [
        {
          "internalType": "uint256",
          "name": "",
          "type": "uint256"
        }
      ],
      "payable": false,
      "stateMutability": "view",
      "type": "function"
    },
    {
      "constant": false,
      "inputs": [
        {
          "internalType": "int256",
          "name": "_question_id",
          "type": "int256"
        }
      ],
      "name": "_getMoneyRetention",
      "outputs": [],
      "payable": true,
      "stateMutability": "payable",
      "type": "function"
    },
    {
      "constant": true,
      "inputs": [],
      "name": "_moneyRetentionCalculate",
      "outputs": [
        {
          "internalType": "uint256",
          "name": "",
          "type": "uint256"
        }
      ],
      "payable": false,
      "stateMutability": "view",
      "type": "function"
    },
    {
      "constant": true,
      "inputs": [],
      "name": "_onHold",
      "outputs": [
        {
          "internalType": "uint256",
          "name": "",
          "type": "uint256"
        }
      ],
      "payable": false,
      "stateMutability": "view",
      "type": "function"
    },
    {
      "constant": false,
      "inputs": [
        {
          "internalType": "uint256",
          "name": "_amountHost",
          "type": "uint256"
        },
        {
          "internalType": "int256",
          "name": "_question_id",
          "type": "int256"
        },
        {
          "internalType": "uint256",
          "name": "_money",
          "type": "uint256"
        },
        {
          "internalType": "uint256",
          "name": "_endTime",
          "type": "uint256"
        }
      ],
      "name": "_setMoneyRetention",
      "outputs": [],
      "payable": false,
      "stateMutability": "nonpayable",
      "type": "function"
    },
    {
      "constant": false,
      "inputs": [
        {
          "internalType": "int256",
          "name": "_question_id",
          "type": "int256"
        },
        {
          "internalType": "uint256",
          "name": "_startTime",
          "type": "uint256"
        },
        {
          "internalType": "uint256",
          "name": "_endTime",
          "type": "uint256"
        },
        {
          "internalType": "uint8",
          "name": "_percentHost",
          "type": "uint8"
        },
        {
          "internalType": "uint8",
          "name": "_percentValidator",
          "type": "uint8"
        },
        {
          "internalType": "uint8",
          "name": "_questionQuantity",
          "type": "uint8"
        },
        {
          "internalType": "int256",
          "name": "_validatorsAmount",
          "type": "int256"
        },
        {
          "internalType": "uint256",
          "name": "_amountHost",
          "type": "uint256"
        },
        {
          "internalType": "uint256",
          "name": "_money",
          "type": "uint256"
        }
      ],
      "name": "startQestion",
      "outputs": [],
      "payable": true,
      "stateMutability": "payable",
      "type": "function"
    },
    {
      "constant": false,
      "inputs": [
        {
          "internalType": "int256",
          "name": "_question_id",
          "type": "int256"
        },
        {
          "internalType": "uint8",
          "name": "_whichAnswer",
          "type": "uint8"
        }
      ],
      "name": "setAnswer",
      "outputs": [],
      "payable": true,
      "stateMutability": "payable",
      "type": "function"
    },
    {
      "constant": false,
      "inputs": [
        {
          "internalType": "int256",
          "name": "_question_id",
          "type": "int256"
        },
        {
          "internalType": "uint8",
          "name": "_whichAnswer",
          "type": "uint8"
        }
      ],
      "name": "setValidator",
      "outputs": [],
      "payable": true,
      "stateMutability": "payable",
      "type": "function"
    },
    {
      "constant": true,
      "inputs": [],
      "name": "getFullAmount",
      "outputs": [
        {
          "internalType": "uint256",
          "name": "",
          "type": "uint256"
        }
      ],
      "payable": false,
      "stateMutability": "view",
      "type": "function"
    },
    {
      "constant": true,
      "inputs": [
        {
          "internalType": "int256",
          "name": "_question_id",
          "type": "int256"
        }
      ],
      "name": "getQuestion",
      "outputs": [
        {
          "internalType": "uint256",
          "name": "persentFeeCompany",
          "type": "uint256"
        },
        {
          "internalType": "uint256",
          "name": "persentForEachValidators",
          "type": "uint256"
        },
        {
          "internalType": "uint256",
          "name": "money",
          "type": "uint256"
        },
        {
          "internalType": "uint256",
          "name": "monayForParticipant",
          "type": "uint256"
        },
        {
          "internalType": "uint8",
          "name": "questionQuantity",
          "type": "uint8"
        },
        {
          "internalType": "uint256",
          "name": "correctAnswer",
          "type": "uint256"
        },
        {
          "internalType": "uint256",
          "name": "persentFeeHost",
          "type": "uint256"
        }
      ],
      "payable": false,
      "stateMutability": "view",
      "type": "function"
    },
    {
      "constant": true,
      "inputs": [
        {
          "internalType": "int256",
          "name": "_question_id",
          "type": "int256"
        }
      ],
      "name": "setTimeValidator",
      "outputs": [
        {
          "internalType": "int8",
          "name": "",
          "type": "int8"
        }
      ],
      "payable": false,
      "stateMutability": "view",
      "type": "function"
    },
    {
      "constant": true,
      "inputs": [
        {
          "internalType": "int256",
          "name": "_question_id",
          "type": "int256"
        }
      ],
      "name": "setTimeAnswer",
      "outputs": [
        {
          "internalType": "int8",
          "name": "",
          "type": "int8"
        }
      ],
      "payable": false,
      "stateMutability": "view",
      "type": "function"
    },
    {
      "constant": true,
      "inputs": [
        {
          "internalType": "int256",
          "name": "_question_id",
          "type": "int256"
        }
      ],
      "name": "deleteEventValidator",
      "outputs": [
        {
          "internalType": "int8",
          "name": "",
          "type": "int8"
        }
      ],
      "payable": false,
      "stateMutability": "view",
      "type": "function"
    },
    {
      "constant": false,
      "inputs": [
        {
          "internalType": "int256",
          "name": "_question_id",
          "type": "int256"
        }
      ],
      "name": "deleteEvent",
      "outputs": [],
      "payable": false,
      "stateMutability": "nonpayable",
      "type": "function"
    },
    {
      "constant": true,
      "inputs": [
        {
          "internalType": "uint256",
          "name": "_amountHost",
          "type": "uint256"
        }
      ],
      "name": "amountGuard",
      "outputs": [
        {
          "internalType": "int8",
          "name": "",
          "type": "int8"
        }
      ],
      "payable": false,
      "stateMutability": "view",
      "type": "function"
    },
    {
      "constant": true,
      "inputs": [],
      "name": "onHold",
      "outputs": [
        {
          "internalType": "uint256",
          "name": "",
          "type": "uint256"
        }
      ],
      "payable": false,
      "stateMutability": "view",
      "type": "function"
    },
    {
      "constant": true,
      "inputs": [],
      "name": "moneyRetentionCalculate",
      "outputs": [
        {
          "internalType": "uint256",
          "name": "",
          "type": "uint256"
        }
      ],
      "payable": false,
      "stateMutability": "view",
      "type": "function"
    },
    {
      "constant": false,
      "inputs": [
        {
          "internalType": "int256",
          "name": "_question_id",
          "type": "int256"
        }
      ],
      "name": "getMoneyRetention",
      "outputs": [],
      "payable": true,
      "stateMutability": "payable",
      "type": "function"
    },
    {
      "constant": true,
      "inputs": [
        {
          "internalType": "int256",
          "name": "_question_id",
          "type": "int256"
        }
      ],
      "name": "getHoldMoneyById",
      "outputs": [
        {
          "internalType": "uint256",
          "name": "",
          "type": "uint256"
        }
      ],
      "payable": false,
      "stateMutability": "view",
      "type": "function"
    }
  ],
  "bytecode": "0x608060405267016345785d8a00006000556002600360006101000a81548160ff021916908360ff16021790555062093a806005557302810c3bc07de2ddaef89827b0dd6b223c7759d5600660006101000a81548173ffffffffffffffffffffffffffffffffffffffff021916908373ffffffffffffffffffffffffffffffffffffffff16021790555034801561009457600080fd5b50611bc6806100a46000396000f3fe60806040526004361061011f5760003560e01c80638a1e576f116100a0578063bf792a9011610064578063bf792a9014610570578063c1b3a33e1461059e578063c9e53b4b146105ed578063cc544e4f14610628578063f5bfe690146106815761011f565b80638a1e576f146103c45780638b861b19146104135780639eaecdb714610468578063a7ac89a714610493578063b649d6da146104e85761011f565b80635ff799c0116100e75780635ff799c01461029957806374e6f40e146102c45780637fc50545146102ef578063834f80471461031a57806387b6608d1461036f5761011f565b80632a7100cc146101245780633493c8621461015f57806334be86c8146101b4578063560b251d146101ef57806357146e061461021a575b600080fd5b61015d6004803603604081101561013a57600080fd5b8101908080359060200190929190803560ff1690602001909291905050506106af565b005b34801561016b57600080fd5b506101986004803603602081101561018257600080fd5b810190808035906020019092919050505061085e565b604051808260000b60000b815260200191505060405180910390f35b6101ed600480360360408110156101ca57600080fd5b8101908080359060200190929190803560ff169060200190929190505050610983565b005b3480156101fb57600080fd5b50610204610b06565b6040518082815260200191505060405180910390f35b34801561022657600080fd5b506102536004803603602081101561023d57600080fd5b8101908080359060200190929190505050610b5b565b604051808881526020018781526020018681526020018581526020018460ff1660ff16815260200183815260200182815260200197505050505050505060405180910390f35b3480156102a557600080fd5b506102ae610c2d565b6040518082815260200191505060405180910390f35b3480156102d057600080fd5b506102d9610cff565b6040518082815260200191505060405180910390f35b3480156102fb57600080fd5b50610304610d09565b6040518082815260200191505060405180910390f35b34801561032657600080fd5b506103536004803603602081101561033d57600080fd5b8101908080359060200190929190505050610d18565b604051808260000b60000b815260200191505060405180910390f35b34801561037b57600080fd5b506103a86004803603602081101561039257600080fd5b8101908080359060200190929190505050610d75565b604051808260000b60000b815260200191505060405180910390f35b3480156103d057600080fd5b506103fd600480360360208110156103e757600080fd5b8101908080359060200190929190505050610e1c565b6040518082815260200191505060405180910390f35b34801561041f57600080fd5b5061044c6004803603602081101561043657600080fd5b8101908080359060200190929190505050610e2e565b604051808260000b60000b815260200191505060405180910390f35b34801561047457600080fd5b5061047d610e51565b6040518082815260200191505060405180910390f35b34801561049f57600080fd5b506104cc600480360360208110156104b657600080fd5b8101908080359060200190929190505050610e60565b604051808260000b60000b815260200191505060405180910390f35b61056e60048036036101208110156104ff57600080fd5b81019080803590602001909291908035906020019092919080359060200190929190803560ff169060200190929190803560ff169060200190929190803560ff169060200190929190803590602001909291908035906020019092919080359060200190929190505050610e72565b005b61059c6004803603602081101561058657600080fd5b810190808035906020019092919050505061105b565b005b3480156105aa57600080fd5b506105d7600480360360208110156105c157600080fd5b8101908080359060200190929190505050611067565b6040518082815260200191505060405180910390f35b3480156105f957600080fd5b506106266004803603602081101561061057600080fd5b8101908080359060200190929190505050611087565b005b34801561063457600080fd5b5061067f6004803603608081101561064b57600080fd5b8101908080359060200190929190803590602001909291908035906020019092919080359060200190929190505050611180565b005b6106ad6004803603602081101561069757600080fd5b81019080803590602001909291905050506112ac565b005b60006106ba83610d18565b60000b141561085a5734600760008481526020019081526020016000206004016000828254019250508190555060006007600084815260200190815260200160002060060160008360ff168152602001908152602001600020600101549050336007600085815260200190815260200160002060060160008460ff168152602001908152602001600020600001600083815260200190815260200160002060000160006101000a81548173ffffffffffffffffffffffffffffffffffffffff021916908373ffffffffffffffffffffffffffffffffffffffff160217905550600181016007600085815260200190815260200160002060060160008460ff16815260200190815260200160002060010181905550600760008481526020019081526020016000206010013390806001815401808255809150509060018203906000526020600020016000909192909190916101000a81548173ffffffffffffffffffffffffffffffffffffffff021916908373ffffffffffffffffffffffffffffffffffffffff1602179055505034600460008282540192505081905550505b5050565b60008060076000848152602001908152602001600020600201544203126109795760004260055460076000868152602001908152602001600020600201540103126109705760008090505b60076000848152602001908152602001600020601001805490508160ff161015610966573373ffffffffffffffffffffffffffffffffffffffff16600760008581526020019081526020016000206010018260ff168154811061090857fe5b9060005260206000200160009054906101000a900473ffffffffffffffffffffffffffffffffffffffff1673ffffffffffffffffffffffffffffffffffffffff16141561095957600391505061097e565b80806001019150506108a9565b506000905061097e565b6002905061097e565b600190505b919050565b600061098e8361085e565b60000b1415610b025760006007600084815260200190815260200160002060070160008360ff168152602001908152602001600020600101549050336007600085815260200190815260200160002060070160008460ff168152602001908152602001600020600001600083815260200190815260200160002060000160006101000a81548173ffffffffffffffffffffffffffffffffffffffff021916908373ffffffffffffffffffffffffffffffffffffffff160217905550600181016007600085815260200190815260200160002060070160008460ff168152602001908152602001600020600101819055506000600160076000868152602001908152602001600020600901540190506007600085815260200190815260200160002060080154811415610ae357806007600086815260200190815260200160002060090181905550610ade84611427565b610aff565b8060076000868152602001908152602001600020600901819055505b50505b5050565b6000610b566001600260003373ffffffffffffffffffffffffffffffffffffffff1673ffffffffffffffffffffffffffffffffffffffff1681526020019081526020016000206000015401611add565b905090565b600080600080600080600060076000898152602001908152602001600020600b0154600760008a8152602001908152602001600020600d0154600760008b815260200190815260200160002060040154600760008c8152602001908152602001600020600e0154600760008d815260200190815260200160002060030160009054906101000a900460ff16600760008e8152602001908152602001600020600f0154600760008f8152602001908152602001600020600c01549650965096509650965096509650919395979092949650565b60006001600260003373ffffffffffffffffffffffffffffffffffffffff1673ffffffffffffffffffffffffffffffffffffffff1681526020019081526020016000206000015410610cf757600080905060008090505b600260003373ffffffffffffffffffffffffffffffffffffffff1673ffffffffffffffffffffffffffffffffffffffff168152602001908152602001600020600001548160ff1611610ced57610cdc8160ff16611add565b820191508080600101915050610c84565b5080915050610cfc565b600090505b90565b6000600454905090565b6000610d13610c2d565b905090565b6000806007600084815260200190815260200160002060010154420312610d6b5760004260076000858152602001908152602001600020600201540312610d625760009050610d70565b60029050610d70565b600190505b919050565b60003373ffffffffffffffffffffffffffffffffffffffff1660076000848152602001908152602001600020600a0160009054906101000a900473ffffffffffffffffffffffffffffffffffffffff1673ffffffffffffffffffffffffffffffffffffffff161415610e1257600060076000848152602001908152602001600020600401541415610e095760009050610e17565b60019050610e17565b600290505b919050565b6000610e2782611067565b9050919050565b6000610e38610b06565b8210610e475760009050610e4c565b600190505b919050565b6000610e5b610b06565b905090565b6000610e6b82610e2e565b9050919050565b88600760008b81526020019081526020016000206000018190555086600760008b81526020019081526020016000206002018190555083600760008b815260200190815260200160002060030160006101000a81548160ff021916908360ff16021790555087600760008b81526020019081526020016000206001018190555082600760008b81526020019081526020016000206008018190555033600760008b8152602001908152602001600020600a0160006101000a81548173ffffffffffffffffffffffffffffffffffffffff021916908373ffffffffffffffffffffffffffffffffffffffff16021790555060008660ff161415610fa3576003600760008b815260200190815260200160002060050160006101000a81548160ff021916908360ff160217905550610fd3565b85600760008b815260200190815260200160002060050160006101000a81548160ff021916908360ff1602179055505b60008560ff161415611014576005600760008b815260200190815260200160002060050160016101000a81548160ff021916908360ff160217905550611044565b84600760008b815260200190815260200160002060050160016101000a81548160ff021916908360ff1602179055505b611050828a838a611180565b505050505050505050565b611064816112ac565b50565b600060016000838152602001908152602001600020600101549050919050565b600061109282610d75565b60000b141561117d5760076000828152602001908152602001600020600080820160009055600182016000905560028201600090556003820160006101000a81549060ff021916905560048201600090556005820160006101000a81549060ff02191690556005820160016101000a81549060ff021916905560088201600090556009820160009055600a820160006101000a81549073ffffffffffffffffffffffffffffffffffffffff0219169055600b820160009055600c820160009055600d820160009055600e820160009055600f82016000905560108201600061117a9190611b4b565b50505b50565b611188610b06565b84106112a657336001600085815260200190815260200160002060000160006101000a81548173ffffffffffffffffffffffffffffffffffffffff021916908373ffffffffffffffffffffffffffffffffffffffff1602179055508160016000858152602001908152602001600020600101819055508060016000858152602001908152602001600020600201819055506001600260003373ffffffffffffffffffffffffffffffffffffffff1673ffffffffffffffffffffffffffffffffffffffff1681526020019081526020016000206000015401600260003373ffffffffffffffffffffffffffffffffffffffff1673ffffffffffffffffffffffffffffffffffffffff168152602001908152602001600020600001819055505b50505050565b60006001600083815260200190815260200160002060000160009054906101000a900473ffffffffffffffffffffffffffffffffffffffff1690506000600160008481526020019081526020016000206001015490506001600260008473ffffffffffffffffffffffffffffffffffffffff1673ffffffffffffffffffffffffffffffffffffffff1681526020019081526020016000206000015403600260008473ffffffffffffffffffffffffffffffffffffffff1673ffffffffffffffffffffffffffffffffffffffff168152602001908152602001600020600001819055508173ffffffffffffffffffffffffffffffffffffffff166108fc829081150290604051600060405180830381858888f193505050501580156113d4573d6000803e3d6000fd5b5060016000848152602001908152602001600020600080820160006101000a81549073ffffffffffffffffffffffffffffffffffffffff0219169055600182016000905560028201600090555050505050565b60008090506000806007600085815260200190815260200160002060030160009054906101000a900460ff1660ff16905060008090505b818160ff1612156114e257836007600087815260200190815260200160002060070160008360ff1681526020019081526020016000206001015411156114d5576007600086815260200190815260200160002060070160008260ff1681526020019081526020016000206001015493508060ff1692505b808060010191505061145e565b508160076000868152602001908152602001600020600f0181905550600060076000868152602001908152602001600020600401541115611aa05760006115516007600087815260200190815260200160002060040154600360009054906101000a900460ff1660ff16611b34565b90508060076000878152602001908152602001600020600401540360076000878152602001908152602001600020600401819055508060045403600481905550600660009054906101000a900473ffffffffffffffffffffffffffffffffffffffff1673ffffffffffffffffffffffffffffffffffffffff166108fc829081150290604051600060405180830381858888f193505050501580156115f9573d6000803e3d6000fd5b508060076000878152602001908152602001600020600b0181905550600061165d60076000888152602001908152602001600020600401546007600089815260200190815260200160002060050160009054906101000a900460ff1660ff16611b34565b9050806007600088815260200190815260200160002060040154036007600088815260200190815260200160002060040181905550806004540360048190555060076000878152602001908152602001600020600a0160009054906101000a900473ffffffffffffffffffffffffffffffffffffffff1673ffffffffffffffffffffffffffffffffffffffff166108fc829081150290604051600060405180830381858888f19350505050158015611719573d6000803e3d6000fd5b508060076000888152602001908152602001600020600c0181905550600061177d6007600089815260200190815260200160002060040154600760008a815260200190815260200160002060050160019054906101000a900460ff1660ff16611b34565b905060006007600089815260200190815260200160002060070160008781526020019081526020016000206001015482816117b457fe5b049050816004540360048190555080600760008a8152602001908152602001600020600d018190555060008090505b600760008a81526020019081526020016000206007016000888152602001908152602001600020600101548160ff161015611906576000600760008b8152602001908152602001600020600701600089815260200190815260200160002060000160008360ff16815260200190815260200160002060000160009054906101000a900473ffffffffffffffffffffffffffffffffffffffff16905082600760008c81526020019081526020016000206004015403600760008c8152602001908152602001600020600401819055508073ffffffffffffffffffffffffffffffffffffffff166108fc849081150290604051600060405180830381858888f193505050501580156118f7573d6000803e3d6000fd5b505080806001019150506117e3565b506000600760008a8152602001908152602001600020600601600088815260200190815260200160002060010154600760008b8152602001908152602001600020600401548161195257fe5b04905060008090505b600760008b81526020019081526020016000206006016000898152602001908152602001600020600101548160ff161015611a7e576000600760008c815260200190815260200160002060060160008a815260200190815260200160002060000160008360ff16815260200190815260200160002060000160009054906101000a900473ffffffffffffffffffffffffffffffffffffffff16905082600760008d81526020019081526020016000206004015403600760008d8152602001908152602001600020600401819055508073ffffffffffffffffffffffffffffffffffffffff166108fc849081150290604051600060405180830381858888f19350505050158015611a6f573d6000803e3d6000fd5b5050808060010191505061195b565b5080600760008b8152602001908152602001600020600e018190555050505050505b7fb0b53c79f7cd0d8c624f48414bdb76a381085a786cc7a98931e2fc76933b644e846040518082815260200191505060405180910390a150505050565b60008060005490506001831415611af75780915050611b2f565b60028310611b2d576000600190505b838160ff161015611b235781820191508080600101915050611b06565b5080915050611b2f565b505b919050565b6000606483830281611b4257fe5b04905092915050565b5080546000825590600052602060002090810190611b699190611b6c565b50565b611b8e91905b80821115611b8a576000816000905550600101611b72565b5090565b9056fea265627a7a7231582089e0f3caf1464be482b3ca3e42abab0ab270de8eafa64a934526289bb83b0b9264736f6c634300050c0032",
  "source": "pragma solidity >=0.4.22 <0.6.0;\n\nimport \"./HoldMoney.sol\";\n\ncontract Quize is HoldMoney {\n     uint8 private percentQuiz = 2;\n     uint256 private fullAmount;\n     uint256 private sevenDaysTimeStamp = 604800;\n     address payable companyAddress = 0x02810c3bc07De2ddAef89827b0dD6b223C7759d5;\n\n    event eventIsFinish(\n        int question_id\n        );\n\n    struct Participant{\n        mapping (uint256 => Part) participants;\n        uint256 index;\n    }\n\n    struct Part {\n        address payable parts;\n    }\n\n    struct Validator{\n        mapping (uint256 => Valid) validators;\n        uint256 index;\n    }\n\n    struct Valid {\n        address payable valid;\n    }\n\n     struct Question {\n         int question_id;\n         uint256 startTime;\n         uint256 endTime;\n         uint8 questionQuantity;\n         uint256 money;\n         uint8 percentHost;\n         uint8 percentValidator;\n         mapping (uint256 => Participant) participant;\n         mapping (uint256 => Validator) validator;\n         int validatorsAmount;\n         int activeValidators;\n         address payable hostWallet;\n         uint persentFeeCompany;\n         uint persentFeeHost;\n         uint persentForEachValidators;\n         uint monayForParticipant;\n         uint correctAnswer;\n         address[] allParticipant;\n     }\n\n        mapping (int => Question) questions;\n\n    function startQestion(\n           int _question_id,\n           uint256 _startTime,\n           uint256 _endTime,\n           uint8 _percentHost,\n           uint8 _percentValidator,\n           uint8 _questionQuantity,\n           int _validatorsAmount,\n           uint256 _amountHost,\n           uint256 _money\n        ) public payable {\n           questions[_question_id].question_id = _question_id;\n           questions[_question_id].endTime = _endTime;\n           questions[_question_id].questionQuantity = _questionQuantity;\n           questions[_question_id].startTime = _startTime;\n           questions[_question_id].validatorsAmount = _validatorsAmount;\n           questions[_question_id].hostWallet = msg.sender;\n\n        if(_percentHost == 0){\n            questions[_question_id].percentHost = 3;\n        }else{\n           questions[_question_id].percentHost = _percentHost;\n        }\n\n        if(_percentValidator == 0){\n            questions[_question_id].percentValidator = 5;\n        }else{\n           questions[_question_id].percentValidator = _percentValidator;\n        }\n\n        _setMoneyRetention(_amountHost, _question_id, _money, _endTime);\n    }\n\n   function setAnswer(int256 _question_id, uint8 _whichAnswer) public payable{\n      if(setTimeAnswer(_question_id) == 0){\n        questions[_question_id].money += msg.value;\n        uint256 i = questions[_question_id].participant[_whichAnswer].index;\n        questions[_question_id].participant[_whichAnswer].participants[i].parts = msg.sender;\n        questions[_question_id].participant[_whichAnswer].index = i + 1;\n        questions[_question_id].allParticipant.push(msg.sender);\n        fullAmount += msg.value;\n      }\n    }\n\n    function setValidator(int _question_id, uint8 _whichAnswer ) public payable{\n      if(setTimeValidator(_question_id) == 0){\n        uint256 i = questions[_question_id].validator[_whichAnswer].index;\n        questions[_question_id].validator[_whichAnswer].validators[i].valid = msg.sender;\n        questions[_question_id].validator[_whichAnswer].index = i + 1;\n        int active = questions[_question_id].activeValidators + 1;\n        if(active == questions[_question_id].validatorsAmount){\n          questions[_question_id].activeValidators = active;\n          letsPayMoney(_question_id);\n        }else{\n          questions[_question_id].activeValidators = active;\n          }\n      }\n    }\n\n    function getFullAmount() public view returns(uint256){\n      return fullAmount;\n    }\n\n    function letsPayMoney(int _question_id) private {\n       uint biggestValue = 0;\n       uint correctAnswer;\n       int256 questionQuantity = questions[_question_id].questionQuantity;\n\n        // find correct answer\n        for(uint8 i = 0; i < questionQuantity; i++){\n          if(questions[_question_id].validator[i].index > biggestValue){\n              biggestValue = questions[_question_id].validator[i].index;\n              correctAnswer = i;\n          }\n        }\n\n        questions[_question_id].correctAnswer = correctAnswer;\n\n\n        if(questions[_question_id].money > 0){\n           // pay fee for company\n           uint256 persentFee = getPersent(questions[_question_id].money, percentQuiz);\n           questions[_question_id].money = questions[_question_id].money - persentFee;\n           fullAmount = fullAmount - persentFee;\n           address(companyAddress).transfer(persentFee);\n\n           questions[_question_id].persentFeeCompany = persentFee;\n\n          // pay fee for host\n           uint256 persHostFee = getPersent(questions[_question_id].money, questions[_question_id].percentHost);\n           questions[_question_id].money = questions[_question_id].money - persHostFee;\n           fullAmount = fullAmount - persHostFee;\n           address(questions[_question_id].hostWallet).transfer(persHostFee);\n\n           questions[_question_id].persentFeeHost = persHostFee;\n\n           // calculate percent for validator\n           uint256 persentForValidators = getPersent(questions[_question_id].money, questions[_question_id].percentValidator);\n           uint256 persentForEachValidators = persentForValidators / questions[_question_id].validator[correctAnswer].index;\n           fullAmount = fullAmount - persentForValidators;\n\n           questions[_question_id].persentForEachValidators = persentForEachValidators;\n\n\n           // pay for validatos\n           for(uint8 i = 0; i < questions[_question_id].validator[correctAnswer].index; i++){\n             address payable _validator = questions[_question_id].validator[correctAnswer].validators[i].valid;\n             questions[_question_id].money = questions[_question_id].money - persentForEachValidators;\n             address(_validator).transfer(persentForEachValidators);\n          }\n\n             // Pay for participant\n            uint256 monayForParticipant = questions[_question_id].money / questions[_question_id].participant[correctAnswer].index;\n            for(uint8 i = 0; i < questions[_question_id].participant[correctAnswer].index; i++){\n                address payable _participant = questions[_question_id].participant[correctAnswer].participants[i].parts;\n                questions[_question_id].money = questions[_question_id].money - monayForParticipant;\n                address(_participant).transfer(monayForParticipant);\n            }\n\n            questions[_question_id].monayForParticipant = monayForParticipant;\n        }\n\n\n        emit eventIsFinish(\n            _question_id\n        );\n    }\n\n\n    function getPersent(uint _percent, uint _from) private pure returns(uint){\n       return _from * _percent / 100;\n    }\n\n    function getQuestion(int _question_id) public view returns(\n           uint persentFeeCompany,\n           uint persentForEachValidators,\n           uint256 money,\n           uint monayForParticipant,\n           uint8 questionQuantity,\n           uint correctAnswer,\n           uint persentFeeHost\n           ){\n       return(\n              questions[_question_id].persentFeeCompany,\n              questions[_question_id].persentForEachValidators,\n              questions[_question_id].money,\n              questions[_question_id].monayForParticipant,\n              questions[_question_id].questionQuantity,\n              questions[_question_id].correctAnswer,\n              questions[_question_id].persentFeeHost\n              );\n    }\n\n    function setTimeValidator(int _question_id) public view returns(int8){\n        if(int(now - questions[_question_id].endTime) >= 0){\n          if(int((questions[_question_id].endTime + sevenDaysTimeStamp) - now) >= 0){\n\n        // if validator made activities like participants.\n          for(uint8 i = 0; i < questions[_question_id].allParticipant.length; i++){\n           if(questions[_question_id].allParticipant[i] == msg.sender){\n               return 3;\n           }\n          }\n            // user can validate because time is valid.\n            return 0;\n          }else{\n            // user can't validate because time is finish.\n            return 2;\n          }\n        }else{\n            // user can't validate because event is not started yet.\n            return 1;\n        }\n    }\n\n    function setTimeAnswer(int256 _question_id) public view returns(int8){\n         if(int(now - questions[_question_id].startTime) >= 0){\n            if(int(questions[_question_id].endTime - now) >= 0){\n            // user can make answer because time is valid.\n              return 0;\n            }else{\n            // user can't make answer because event is finish.\n              return 2;\n            }\n         }else{\n             // user can't make answer because event is not started yet.\n             return 1;\n         }\n      }\n\n      function deleteEventValidator(int _question_id) public view returns(int8){\n          if(questions[_question_id].hostWallet == msg.sender){\n            if(questions[_question_id].money == 0){\n              // user can delete event\n              return 0;\n            }else{\n              // user can't delete event because event has money on balance\n              return 1;\n            }\n          }else{\n              // only owner can delete event.\n              return 2;\n          }\n      }\n\n      function deleteEvent(int _question_id) public {\n          if(deleteEventValidator(_question_id) == 0){\n            delete questions[_question_id];\n          }\n      }\n\n      function amountGuard(uint256 _amountHost) public view returns(int8){\n        return _amountGuard(_amountHost);\n      }\n\n      function onHold() public view returns(uint){\n        return _onHold();\n      }\n\n      function moneyRetentionCalculate() public view returns(uint){\n        return _moneyRetentionCalculate();\n      }\n\n      function getMoneyRetention(int256 _question_id) public payable{\n        _getMoneyRetention(_question_id);\n      }\n\n      function getHoldMoneyById(int256 _question_id) public view returns(uint256){\n        return _getHoldMoneyById(_question_id);\n      }\n}",
  "sourcePath": "/Users/macbook/Documents/freelance/node/QUIZE/frontend/contracts/Quize.sol",
  "compiler": {
    "name": "solc",
    "version": "0.5.12+commit.7709ece9.Emscripten.clang"
  },
  "schemaVersion": "3.0.19",
  "updatedAt": "2020-03-04T09:59:22.153Z",
  "networkType": "ethereum",
  "devdoc": {
    "methods": {}
  },
  "userdoc": {
    "methods": {}
  }
}