{
  "contractName": "Quize",
  "abi": [
    {
      "inputs": [
        {
          "internalType": "contract MaticWETH",
          "name": "_maticToken",
          "type": "address"
        }
      ],
      "stateMutability": "nonpayable",
      "type": "constructor"
    },
    {
      "anonymous": false,
      "inputs": [
        {
          "indexed": false,
          "internalType": "int256",
          "name": "question_id",
          "type": "int256"
        },
        {
          "indexed": false,
          "internalType": "bool",
          "name": "payEther",
          "type": "bool"
        }
      ],
      "name": "eventIsFinish",
      "type": "event"
    },
    {
      "anonymous": false,
      "inputs": [
        {
          "indexed": false,
          "internalType": "string",
          "name": "path",
          "type": "string"
        },
        {
          "indexed": false,
          "internalType": "uint256",
          "name": "money",
          "type": "uint256"
        },
        {
          "indexed": false,
          "internalType": "bool",
          "name": "payEther",
          "type": "bool"
        },
        {
          "indexed": false,
          "internalType": "address",
          "name": "wallet",
          "type": "address"
        },
        {
          "indexed": false,
          "internalType": "string",
          "name": "from",
          "type": "string"
        },
        {
          "indexed": false,
          "internalType": "int256",
          "name": "question_id",
          "type": "int256"
        }
      ],
      "name": "payEvent",
      "type": "event"
    },
    {
      "anonymous": false,
      "inputs": [
        {
          "indexed": false,
          "internalType": "int256",
          "name": "question_id",
          "type": "int256"
        }
      ],
      "name": "revertedEvent",
      "type": "event"
    },
    {
      "inputs": [
        {
          "internalType": "bool",
          "name": "_path",
          "type": "bool"
        },
        {
          "internalType": "uint256",
          "name": "balanceToken",
          "type": "uint256"
        }
      ],
      "name": "_amountGuard",
      "outputs": [
        {
          "internalType": "int8",
          "name": "",
          "type": "int8"
        }
      ],
      "stateMutability": "view",
      "type": "function",
      "constant": true
    },
    {
      "inputs": [
        {
          "internalType": "address payable",
          "name": "_host",
          "type": "address"
        }
      ],
      "name": "_getMoneyRetention",
      "outputs": [
        {
          "internalType": "uint256",
          "name": "",
          "type": "uint256"
        },
        {
          "internalType": "address",
          "name": "",
          "type": "address"
        },
        {
          "internalType": "bool",
          "name": "",
          "type": "bool"
        },
        {
          "internalType": "int256",
          "name": "",
          "type": "int256"
        }
      ],
      "stateMutability": "payable",
      "type": "function",
      "payable": true
    },
    {
      "inputs": [
        {
          "internalType": "bool",
          "name": "_pathHoldMoney",
          "type": "bool"
        },
        {
          "internalType": "int256",
          "name": "question_id",
          "type": "int256"
        }
      ],
      "name": "_setMoneyRetention",
      "outputs": [
        {
          "internalType": "uint256",
          "name": "",
          "type": "uint256"
        }
      ],
      "stateMutability": "payable",
      "type": "function",
      "payable": true
    },
    {
      "inputs": [],
      "name": "companyAddress",
      "outputs": [
        {
          "internalType": "address payable",
          "name": "",
          "type": "address"
        }
      ],
      "stateMutability": "view",
      "type": "function",
      "constant": true
    },
    {
      "inputs": [],
      "name": "fullAmount",
      "outputs": [
        {
          "internalType": "uint256",
          "name": "",
          "type": "uint256"
        }
      ],
      "stateMutability": "view",
      "type": "function",
      "constant": true
    },
    {
      "inputs": [],
      "name": "getHoldMoneyById",
      "outputs": [
        {
          "internalType": "uint256",
          "name": "",
          "type": "uint256"
        }
      ],
      "stateMutability": "view",
      "type": "function",
      "constant": true
    },
    {
      "inputs": [],
      "name": "holdBalance",
      "outputs": [
        {
          "internalType": "uint256",
          "name": "",
          "type": "uint256"
        }
      ],
      "stateMutability": "view",
      "type": "function",
      "constant": true
    },
    {
      "inputs": [],
      "name": "maticToken",
      "outputs": [
        {
          "internalType": "contract MaticWETH",
          "name": "",
          "type": "address"
        }
      ],
      "stateMutability": "view",
      "type": "function",
      "constant": true
    },
    {
      "inputs": [
        {
          "internalType": "bool",
          "name": "_path",
          "type": "bool"
        }
      ],
      "name": "moneyRetentionCalculate",
      "outputs": [
        {
          "internalType": "uint256",
          "name": "",
          "type": "uint256"
        }
      ],
      "stateMutability": "view",
      "type": "function",
      "constant": true
    },
    {
      "inputs": [],
      "name": "onHold",
      "outputs": [
        {
          "internalType": "uint256",
          "name": "",
          "type": "uint256"
        }
      ],
      "stateMutability": "view",
      "type": "function",
      "constant": true
    },
    {
      "inputs": [],
      "name": "owner",
      "outputs": [
        {
          "internalType": "address",
          "name": "",
          "type": "address"
        }
      ],
      "stateMutability": "view",
      "type": "function",
      "constant": true
    },
    {
      "inputs": [],
      "name": "priceEth",
      "outputs": [
        {
          "internalType": "uint256",
          "name": "",
          "type": "uint256"
        }
      ],
      "stateMutability": "view",
      "type": "function",
      "constant": true
    },
    {
      "inputs": [],
      "name": "priceToken",
      "outputs": [
        {
          "internalType": "uint256",
          "name": "",
          "type": "uint256"
        }
      ],
      "stateMutability": "view",
      "type": "function",
      "constant": true
    },
    {
      "inputs": [
        {
          "internalType": "uint256",
          "name": "_priceEth",
          "type": "uint256"
        },
        {
          "internalType": "uint256",
          "name": "_priceToken",
          "type": "uint256"
        }
      ],
      "name": "setEthPrice",
      "outputs": [],
      "stateMutability": "nonpayable",
      "type": "function"
    },
    {
      "inputs": [
        {
          "internalType": "uint256[]",
          "name": "_data",
          "type": "uint256[]"
        }
      ],
      "name": "setSort",
      "outputs": [],
      "stateMutability": "nonpayable",
      "type": "function"
    },
    {
      "inputs": [],
      "name": "sort",
      "outputs": [],
      "stateMutability": "nonpayable",
      "type": "function"
    },
    {
      "inputs": [
        {
          "internalType": "uint256",
          "name": "",
          "type": "uint256"
        }
      ],
      "name": "sortedArray",
      "outputs": [
        {
          "internalType": "uint256",
          "name": "",
          "type": "uint256"
        }
      ],
      "stateMutability": "view",
      "type": "function",
      "constant": true
    },
    {
      "inputs": [
        {
          "internalType": "int256",
          "name": "_question_id",
          "type": "int256"
        },
        {
          "internalType": "uint256",
          "name": "_startTime",
          "type": "uint256"
        },
        {
          "internalType": "uint256",
          "name": "_endTime",
          "type": "uint256"
        },
        {
          "internalType": "uint8",
          "name": "_percentHost",
          "type": "uint8"
        },
        {
          "internalType": "uint8",
          "name": "_percentValidator",
          "type": "uint8"
        },
        {
          "internalType": "uint8",
          "name": "_questionQuantity",
          "type": "uint8"
        },
        {
          "internalType": "int256",
          "name": "_validatorsAmount",
          "type": "int256"
        },
        {
          "internalType": "uint256",
          "name": "_quizePrice",
          "type": "uint256"
        },
        {
          "internalType": "bool",
          "name": "_pathHoldMoney",
          "type": "bool"
        },
        {
          "internalType": "bool",
          "name": "_payEther",
          "type": "bool"
        }
      ],
      "name": "startQestion",
      "outputs": [],
      "stateMutability": "payable",
      "type": "function",
      "payable": true
    },
    {
      "inputs": [
        {
          "internalType": "int256",
          "name": "_question_id",
          "type": "int256"
        },
        {
          "internalType": "uint8",
          "name": "_whichAnswer",
          "type": "uint8"
        }
      ],
      "name": "setAnswer",
      "outputs": [],
      "stateMutability": "payable",
      "type": "function",
      "payable": true
    },
    {
      "inputs": [
        {
          "internalType": "int256",
          "name": "_question_id",
          "type": "int256"
        },
        {
          "internalType": "uint8",
          "name": "_whichAnswer",
          "type": "uint8"
        }
      ],
      "name": "setValidator",
      "outputs": [],
      "stateMutability": "payable",
      "type": "function",
      "payable": true
    },
    {
      "inputs": [
        {
          "internalType": "int256",
          "name": "_question_id",
          "type": "int256"
        }
      ],
      "name": "getQuestion",
      "outputs": [
        {
          "internalType": "uint256",
          "name": "persentFeeCompany",
          "type": "uint256"
        },
        {
          "internalType": "uint256",
          "name": "persentForEachValidators",
          "type": "uint256"
        },
        {
          "internalType": "uint256",
          "name": "money",
          "type": "uint256"
        },
        {
          "internalType": "uint256",
          "name": "moneyForParticipant",
          "type": "uint256"
        },
        {
          "internalType": "bool",
          "name": "reverted",
          "type": "bool"
        },
        {
          "internalType": "uint256",
          "name": "correctAnswer",
          "type": "uint256"
        },
        {
          "internalType": "uint256",
          "name": "persentFeeHost",
          "type": "uint256"
        }
      ],
      "stateMutability": "view",
      "type": "function",
      "constant": true
    },
    {
      "inputs": [
        {
          "internalType": "int256",
          "name": "_question_id",
          "type": "int256"
        }
      ],
      "name": "deleteEvent",
      "outputs": [],
      "stateMutability": "nonpayable",
      "type": "function"
    },
    {
      "inputs": [],
      "name": "quizeBalance",
      "outputs": [
        {
          "internalType": "uint256",
          "name": "",
          "type": "uint256"
        }
      ],
      "stateMutability": "view",
      "type": "function",
      "constant": true
    },
    {
      "inputs": [],
      "name": "getContractTokenBalance",
      "outputs": [
        {
          "internalType": "uint256",
          "name": "",
          "type": "uint256"
        }
      ],
      "stateMutability": "view",
      "type": "function",
      "constant": true
    },
    {
      "inputs": [
        {
          "internalType": "address payable",
          "name": "_host",
          "type": "address"
        }
      ],
      "name": "getMoneyRetention",
      "outputs": [],
      "stateMutability": "payable",
      "type": "function",
      "payable": true
    },
    {
      "inputs": [
        {
          "internalType": "bool",
          "name": "_path",
          "type": "bool"
        }
      ],
      "name": "amountGuard",
      "outputs": [
        {
          "internalType": "int8",
          "name": "",
          "type": "int8"
        }
      ],
      "stateMutability": "view",
      "type": "function",
      "constant": true
    },
    {
      "inputs": [
        {
          "internalType": "int256",
          "name": "_question_id",
          "type": "int256"
        }
      ],
      "name": "setTimeValidator",
      "outputs": [
        {
          "internalType": "int8",
          "name": "",
          "type": "int8"
        }
      ],
      "stateMutability": "view",
      "type": "function",
      "constant": true
    },
    {
      "inputs": [
        {
          "internalType": "int256",
          "name": "_question_id",
          "type": "int256"
        }
      ],
      "name": "setTimeAnswer",
      "outputs": [
        {
          "internalType": "int8",
          "name": "",
          "type": "int8"
        }
      ],
      "stateMutability": "view",
      "type": "function",
      "constant": true
    },
    {
      "inputs": [
        {
          "internalType": "int256",
          "name": "_question_id",
          "type": "int256"
        }
      ],
      "name": "deleteEventValidator",
      "outputs": [
        {
          "internalType": "int8",
          "name": "",
          "type": "int8"
        }
      ],
      "stateMutability": "view",
      "type": "function",
      "constant": true
    }
  ],
  "bytecode": "0x6080604052678ac7230489e800006000556002600660146101000a81548160ff021916908360ff16021790555062093a8060085534801561003f57600080fd5b50604051620045e1380380620045e18339818101604052602081101561006457600080fd5b810190808051906020019092919050505033600160006101000a81548173ffffffffffffffffffffffffffffffffffffffff021916908373ffffffffffffffffffffffffffffffffffffffff16021790555080600660006101000a81548173ffffffffffffffffffffffffffffffffffffffff021916908373ffffffffffffffffffffffffffffffffffffffff16021790555033600960006101000a81548173ffffffffffffffffffffffffffffffffffffffff021916908373ffffffffffffffffffffffffffffffffffffffff1602179055505061449880620001496000396000f3fe6080604052600436106101c25760003560e01c8063834f8047116100f7578063c9e53b4b11610095578063e6ffed5d11610064578063e6ffed5d14610971578063f5c1ec81146109d2578063f733c287146109fd578063f848217114610a4b576101c2565b8063c9e53b4b14610865578063dc354296146108a0578063e2d914f2146108f7578063e4f8749614610946576101c2565b80638cdc86a6116100d15780638cdc86a6146107365780638da5cb5b1461074d57806398e964b2146107a4578063acbee2821461083a576101c2565b8063834f80471461064757806383855f1f1461069c57806387b6608d146106e1576101c2565b80633493c8621161016457806353e1ead91161013e57806353e1ead9146104ab57806357146e06146105025780637fc505451461057f5780638229f5e9146105aa576101c2565b80633493c8621461035657806334be86c8146103ab5780633b97b5d6146103e6576101c2565b80632a7100cc116101a05780632a7100cc1461029a5780632ca38363146102d55780632ff6fe7614610300578063317d94531461032b576101c2565b80631c5430ba146101c757806325f0f5ab1461021e57806326c989df1461026f575b600080fd5b3480156101d357600080fd5b50610202600480360360208110156101ea57600080fd5b81019080803515159060200190929190505050610a8f565b604051808260000b60000b815260200191505060405180910390f35b34801561022a57600080fd5b506102596004803603602081101561024157600080fd5b81019080803515159060200190929190505050610b87565b6040518082815260200191505060405180910390f35b34801561027b57600080fd5b50610284610bdf565b6040518082815260200191505060405180910390f35b6102d3600480360360408110156102b057600080fd5b8101908080359060200190929190803560ff169060200190929190505050610bfe565b005b3480156102e157600080fd5b506102ea611274565b6040518082815260200191505060405180910390f35b34801561030c57600080fd5b5061031561127a565b6040518082815260200191505060405180910390f35b34801561033757600080fd5b50610340611280565b6040518082815260200191505060405180910390f35b34801561036257600080fd5b5061038f6004803603602081101561037957600080fd5b8101908080359060200190929190505050611361565b604051808260000b60000b815260200191505060405180910390f35b6103e4600480360360408110156103c157600080fd5b8101908080359060200190929190803560ff169060200190929190505050611486565b005b3480156103f257600080fd5b506104a96004803603602081101561040957600080fd5b810190808035906020019064010000000081111561042657600080fd5b82018360208201111561043857600080fd5b8035906020019184602083028401116401000000008311171561045a57600080fd5b919080806020026020016040519081016040528093929190818152602001838360200280828437600081840152601f19601f820116905080830192505050505050509192919290505050611656565b005b3480156104b757600080fd5b506104c0611670565b604051808273ffffffffffffffffffffffffffffffffffffffff1673ffffffffffffffffffffffffffffffffffffffff16815260200191505060405180910390f35b34801561050e57600080fd5b5061053b6004803603602081101561052557600080fd5b8101908080359060200190929190505050611696565b604051808881526020018781526020018681526020018581526020018415151515815260200183815260200182815260200197505050505050505060405180910390f35b34801561058b57600080fd5b50610594611768565b6040518082815260200191505060405180910390f35b6105ec600480360360208110156105c057600080fd5b81019080803573ffffffffffffffffffffffffffffffffffffffff1690602001909291905050506118a8565b604051808581526020018473ffffffffffffffffffffffffffffffffffffffff1673ffffffffffffffffffffffffffffffffffffffff1681526020018315151515815260200182815260200194505050505060405180910390f35b34801561065357600080fd5b506106806004803603602081101561066a57600080fd5b8101908080359060200190929190505050611e03565b604051808260000b60000b815260200191505060405180910390f35b3480156106a857600080fd5b506106df600480360360408110156106bf57600080fd5b810190808035906020019092919080359060200190929190505050611e60565b005b3480156106ed57600080fd5b5061071a6004803603602081101561070457600080fd5b8101908080359060200190929190505050611f57565b604051808260000b60000b815260200191505060405180910390f35b34801561074257600080fd5b5061074b611ffe565b005b34801561075957600080fd5b50610762612029565b604051808273ffffffffffffffffffffffffffffffffffffffff1673ffffffffffffffffffffffffffffffffffffffff16815260200191505060405180910390f35b61083860048036036101408110156107bb57600080fd5b81019080803590602001909291908035906020019092919080359060200190929190803560ff169060200190929190803560ff169060200190929190803560ff169060200190929190803590602001909291908035906020019092919080351515906020019092919080351515906020019092919050505061204f565b005b34801561084657600080fd5b5061084f6125e5565b6040518082815260200191505060405180910390f35b34801561087157600080fd5b5061089e6004803603602081101561088857600080fd5b810190808035906020019092919050505061268d565b005b3480156108ac57600080fd5b506108b5612822565b604051808273ffffffffffffffffffffffffffffffffffffffff1673ffffffffffffffffffffffffffffffffffffffff16815260200191505060405180910390f35b34801561090357600080fd5b506109306004803603602081101561091a57600080fd5b8101908080359060200190929190505050612848565b6040518082815260200191505060405180910390f35b34801561095257600080fd5b5061095b612869565b6040518082815260200191505060405180910390f35b34801561097d57600080fd5b506109b66004803603604081101561099457600080fd5b8101908080351515906020019092919080359060200190929190505050612888565b604051808260000b60000b815260200191505060405180910390f35b3480156109de57600080fd5b506109e76128d9565b6040518082815260200191505060405180910390f35b610a3560048036036040811015610a1357600080fd5b81019080803515159060200190929190803590602001909291905050506128df565b6040518082815260200191505060405180910390f35b610a8d60048036036020811015610a6157600080fd5b81019080803573ffffffffffffffffffffffffffffffffffffffff16906020019092919050505061290b565b005b6000808215610b7557600660009054906101000a900473ffffffffffffffffffffffffffffffffffffffff1673ffffffffffffffffffffffffffffffffffffffff166370a08231336040518263ffffffff1660e01b8152600401808273ffffffffffffffffffffffffffffffffffffffff1673ffffffffffffffffffffffffffffffffffffffff16815260200191505060206040518083038186803b158015610b3757600080fd5b505afa158015610b4b573d6000803e3d6000fd5b505050506040513d6020811015610b6157600080fd5b810190808051906020019092919050505090505b610b7f8382612888565b915050919050565b6000610bd86001600460003373ffffffffffffffffffffffffffffffffffffffff1673ffffffffffffffffffffffffffffffffffffffff168152602001908152602001600020600001540183612b5a565b9050919050565b60003073ffffffffffffffffffffffffffffffffffffffff1631905090565b6000600a600084815260200190815260200160002060120160009054906101000a900460ff1690506000610c3184611e03565b60000b14610ca7576040517f08c379a00000000000000000000000000000000000000000000000000000000081526004018080602001828103825260118152602001807f54696d65206973206e6f742076616c696400000000000000000000000000000081525060200191505060405180910390fd5b8015610e4757600a600084815260200190815260200160002060110154600660009054906101000a900473ffffffffffffffffffffffffffffffffffffffff1673ffffffffffffffffffffffffffffffffffffffff1663dd62ed3e33306040518363ffffffff1660e01b8152600401808373ffffffffffffffffffffffffffffffffffffffff1673ffffffffffffffffffffffffffffffffffffffff1681526020018273ffffffffffffffffffffffffffffffffffffffff1673ffffffffffffffffffffffffffffffffffffffff1681526020019250505060206040518083038186803b158015610d9757600080fd5b505afa158015610dab573d6000803e3d6000fd5b505050506040513d6020811015610dc157600080fd5b81019080805190602001909291905050501015610e46576040517f08c379a00000000000000000000000000000000000000000000000000000000081526004018080602001828103825260158152602001807f446f206e6f7420656e6f7567687420746f6b656e73000000000000000000000081525060200191505060405180910390fd5b5b610e4f614334565b60405180602001604052803373ffffffffffffffffffffffffffffffffffffffff168152509050600a600085815260200190815260200160002060060160008460ff168152602001908152602001600020819080600181540180825580915050600190039060005260206000200160009091909190915060008201518160000160006101000a81548173ffffffffffffffffffffffffffffffffffffffff021916908373ffffffffffffffffffffffffffffffffffffffff1602179055505050600a6000858152602001908152602001600020601001339080600181540180825580915050600190039060005260206000200160009091909190916101000a81548173ffffffffffffffffffffffffffffffffffffffff021916908373ffffffffffffffffffffffffffffffffffffffff1602179055506000600a600086815260200190815260200160002060110154905080600a60008781526020019081526020016000206004016000828254019250508190555080600760008282540192505081905550821561116657600660009054906101000a900473ffffffffffffffffffffffffffffffffffffffff1673ffffffffffffffffffffffffffffffffffffffff166323b872dd3330846040518463ffffffff1660e01b8152600401808473ffffffffffffffffffffffffffffffffffffffff1673ffffffffffffffffffffffffffffffffffffffff1681526020018373ffffffffffffffffffffffffffffffffffffffff1673ffffffffffffffffffffffffffffffffffffffff1681526020018281526020019350505050602060405180830381600087803b1580156110b857600080fd5b505af11580156110cc573d6000803e3d6000fd5b505050506040513d60208110156110e257600080fd5b8101908080519060200190929190505050611165576040517f08c379a000000000000000000000000000000000000000000000000000000000815260040180806020018281038252600e8152602001807f5472616e73666572206572726f7200000000000000000000000000000000000081525060200191505060405180910390fd5b5b7fbd233f7452553afaed4cd245a2d8d64cf39150c8cd35dcc8da09884d5bd45f9a600a6000878152602001908152602001600020601101548433886040518080602001868152602001851515151581526020018473ffffffffffffffffffffffffffffffffffffffff1673ffffffffffffffffffffffffffffffffffffffff16815260200180602001848152602001838103835260048152602001807f73656e64000000000000000000000000000000000000000000000000000000008152506020018381038252600b8152602001807f7061727469636970616e74000000000000000000000000000000000000000000815250602001965050505050505060405180910390a15050505050565b60025481565b60035481565b6000600660009054906101000a900473ffffffffffffffffffffffffffffffffffffffff1673ffffffffffffffffffffffffffffffffffffffff166370a08231306040518263ffffffff1660e01b8152600401808273ffffffffffffffffffffffffffffffffffffffff1673ffffffffffffffffffffffffffffffffffffffff16815260200191505060206040518083038186803b15801561132157600080fd5b505afa158015611335573d6000803e3d6000fd5b505050506040513d602081101561134b57600080fd5b8101908080519060200190929190505050905090565b600080600a60008481526020019081526020016000206002015442031261147c57600042600854600a6000868152602001908152602001600020600201540103126114735760008090505b600a6000848152602001908152602001600020601001805490508160ff161015611469573373ffffffffffffffffffffffffffffffffffffffff16600a60008581526020019081526020016000206010018260ff168154811061140b57fe5b9060005260206000200160009054906101000a900473ffffffffffffffffffffffffffffffffffffffff1673ffffffffffffffffffffffffffffffffffffffff16141561145c576003915050611481565b80806001019150506113ac565b5060009050611481565b60029050611481565b600190505b919050565b600061149183611361565b60000b14611507576040517f08c379a00000000000000000000000000000000000000000000000000000000081526004018080602001828103825260118152602001807f54696d65206973206e6f742076616c696400000000000000000000000000000081525060200191505060405180910390fd5b61150f61435d565b60405180602001604052803373ffffffffffffffffffffffffffffffffffffffff168152509050600a600084815260200190815260200160002060070160008360ff168152602001908152602001600020819080600181540180825580915050600190039060005260206000200160009091909190915060008201518160000160006101000a81548173ffffffffffffffffffffffffffffffffffffffff021916908373ffffffffffffffffffffffffffffffffffffffff160217905550505060006001600a600086815260200190815260200160002060090154019050600a6000858152602001908152602001600020600801548114156116345780600a60008681526020019081526020016000206009018190555061162f84612c1c565b611650565b80600a6000868152602001908152602001600020600901819055505b50505050565b806005908051906020019061166c929190614386565b5050565b600960009054906101000a900473ffffffffffffffffffffffffffffffffffffffff1681565b6000806000806000806000600a6000898152602001908152602001600020600b0154600a60008a8152602001908152602001600020600d0154600a60008b815260200190815260200160002060040154600a60008c8152602001908152602001600020600e0154600a60008d815260200190815260200160002060120160019054906101000a900460ff16600a60008e8152602001908152602001600020600f0154600a60008f8152602001908152602001600020600c01549650965096509650965096509650919395979092949650565b60006001600460003373ffffffffffffffffffffffffffffffffffffffff1673ffffffffffffffffffffffffffffffffffffffff16815260200190815260200160002060000154106118a05760008090506000600190505b600460003373ffffffffffffffffffffffffffffffffffffffff1673ffffffffffffffffffffffffffffffffffffffff168152602001908152602001600020600001548160ff1611611896576000600460003373ffffffffffffffffffffffffffffffffffffffff1673ffffffffffffffffffffffffffffffffffffffff16815260200190815260200160002060010160008360ff16815260200190815260200160002060020160009054906101000a900460ff1690506118848260ff1682612b5a565b830192505080806001019150506117c0565b50809150506118a5565b600090505b90565b600080600080600160009054906101000a900473ffffffffffffffffffffffffffffffffffffffff1673ffffffffffffffffffffffffffffffffffffffff163373ffffffffffffffffffffffffffffffffffffffff1614611954576040517f08c379a000000000000000000000000000000000000000000000000000000000815260040180806020018281038252602481526020018061441a6024913960400191505060405180910390fd5b6000600460008773ffffffffffffffffffffffffffffffffffffffff1673ffffffffffffffffffffffffffffffffffffffff1681526020019081526020016000206000015411611a0c576040517f08c379a000000000000000000000000000000000000000000000000000000000815260040180806020018281038252601c8152602001807f446f206e6f74206861766520636f696e73206f6e206163636f756e740000000081525060200191505060405180910390fd5b6000600460008773ffffffffffffffffffffffffffffffffffffffff1673ffffffffffffffffffffffffffffffffffffffff1681526020019081526020016000206000015490506000600460008873ffffffffffffffffffffffffffffffffffffffff1673ffffffffffffffffffffffffffffffffffffffff168152602001908152602001600020600101600083815260200190815260200160002060000160009054906101000a900473ffffffffffffffffffffffffffffffffffffffff1690508673ffffffffffffffffffffffffffffffffffffffff168173ffffffffffffffffffffffffffffffffffffffff1614611b6f576040517f08c379a00000000000000000000000000000000000000000000000000000000081526004018080602001828103825260138152602001807f416464726573736573206e6f7420657175616c0000000000000000000000000081525060200191505060405180910390fd5b6000600460008973ffffffffffffffffffffffffffffffffffffffff1673ffffffffffffffffffffffffffffffffffffffff1681526020019081526020016000206001016000848152602001908152602001600020600101549050600460008373ffffffffffffffffffffffffffffffffffffffff1673ffffffffffffffffffffffffffffffffffffffff16815260200190815260200160002060000160008154809291906001900391905055506000600460008a73ffffffffffffffffffffffffffffffffffffffff1673ffffffffffffffffffffffffffffffffffffffff168152602001908152602001600020600101600085815260200190815260200160002060020160009054906101000a900460ff1690506000600460008b73ffffffffffffffffffffffffffffffffffffffff1673ffffffffffffffffffffffffffffffffffffffff1681526020019081526020016000206001016000868152602001908152602001600020600301549050600460008b73ffffffffffffffffffffffffffffffffffffffff1673ffffffffffffffffffffffffffffffffffffffff1681526020019081526020016000206001016000868152602001908152602001600020600080820160006101000a81549073ffffffffffffffffffffffffffffffffffffffff021916905560018201600090556002820160006101000a81549060ff0219169055600382016000905550508115611de7578373ffffffffffffffffffffffffffffffffffffffff166108fc849081150290604051600060405180830381858888f19350505050158015611dcd573d6000803e3d6000fd5b508284838382925098509850985098505050505050611dfc565b82848383829250985098509850985050505050505b9193509193565b600080600a600084815260200190815260200160002060010154420312611e5657600042600a6000858152602001908152602001600020600201540312611e4d5760009050611e5b565b60029050611e5b565b600190505b919050565b600160009054906101000a900473ffffffffffffffffffffffffffffffffffffffff1673ffffffffffffffffffffffffffffffffffffffff163373ffffffffffffffffffffffffffffffffffffffff1614611f23576040517f08c379a000000000000000000000000000000000000000000000000000000000815260040180806020018281038252601b8152602001807f6f6e6c79206f776e65722063616e206368616e6765207072696365000000000081525060200191505060405180910390fd5b670de0b6b3a76400008281611f3457fe5b04600281905550670de0b6b3a76400008181611f4c57fe5b046003819055505050565b60003373ffffffffffffffffffffffffffffffffffffffff16600a6000848152602001908152602001600020600a0160009054906101000a900473ffffffffffffffffffffffffffffffffffffffff1673ffffffffffffffffffffffffffffffffffffffff161415611ff4576000600a6000848152602001908152602001600020600401541415611feb5760009050611ff9565b60019050611ff9565b600290505b919050565b6000600580549050141561201157612027565b61202660056000600160058054905003612cea565b5b565b600160009054906101000a900473ffffffffffffffffffffffffffffffffffffffff1681565b89600a60008c81526020019081526020016000206000018190555087600a60008c81526020019081526020016000206002018190555084600a60008c815260200190815260200160002060030160006101000a81548160ff021916908360ff16021790555088600a60008c81526020019081526020016000206001018190555083600a60008c81526020019081526020016000206008018190555033600a60008c8152602001908152602001600020600a0160006101000a81548173ffffffffffffffffffffffffffffffffffffffff021916908373ffffffffffffffffffffffffffffffffffffffff16021790555082600a60008c81526020019081526020016000206011018190555080600a60008c815260200190815260200160002060120160006101000a81548160ff02191690831515021790555060008760ff1614156121c9576003600a60008c815260200190815260200160002060050160006101000a81548160ff021916908360ff1602179055506121f9565b86600a60008c815260200190815260200160002060050160006101000a81548160ff021916908360ff1602179055505b60008660ff16141561223a576005600a60008c815260200190815260200160002060050160016101000a81548160ff021916908360ff16021790555061226a565b85600a60008c815260200190815260200160002060050160016101000a81548160ff021916908360ff1602179055505b6000612276838c6128df565b905082156124e75780600660009054906101000a900473ffffffffffffffffffffffffffffffffffffffff1673ffffffffffffffffffffffffffffffffffffffff1663dd62ed3e33306040518363ffffffff1660e01b8152600401808373ffffffffffffffffffffffffffffffffffffffff1673ffffffffffffffffffffffffffffffffffffffff1681526020018273ffffffffffffffffffffffffffffffffffffffff1673ffffffffffffffffffffffffffffffffffffffff1681526020019250505060206040518083038186803b15801561235257600080fd5b505afa158015612366573d6000803e3d6000fd5b505050506040513d602081101561237c57600080fd5b81019080805190602001909291905050501015612401576040517f08c379a00000000000000000000000000000000000000000000000000000000081526004018080602001828103825260158152602001807f446f206e6f7420656e6f7567687420657468657273000000000000000000000081525060200191505060405180910390fd5b600660009054906101000a900473ffffffffffffffffffffffffffffffffffffffff1673ffffffffffffffffffffffffffffffffffffffff1663a9059cbb30836040518363ffffffff1660e01b8152600401808373ffffffffffffffffffffffffffffffffffffffff1673ffffffffffffffffffffffffffffffffffffffff16815260200182815260200192505050602060405180830381600087803b1580156124aa57600080fd5b505af11580156124be573d6000803e3d6000fd5b505050506040513d60208110156124d457600080fd5b8101908080519060200190929190505050505b7fbd233f7452553afaed4cd245a2d8d64cf39150c8cd35dcc8da09884d5bd45f9a8184338e6040518080602001868152602001851515151581526020018473ffffffffffffffffffffffffffffffffffffffff1673ffffffffffffffffffffffffffffffffffffffff16815260200180602001848152602001838103835260048152602001807f73656e64000000000000000000000000000000000000000000000000000000008152506020018381038252600a8152602001807f686f6c64206d6f6e657900000000000000000000000000000000000000000000815250602001965050505050505060405180910390a15050505050505050505050565b6000806001600460003373ffffffffffffffffffffffffffffffffffffffff1673ffffffffffffffffffffffffffffffffffffffff16815260200190815260200160002060000154039050600460003373ffffffffffffffffffffffffffffffffffffffff1673ffffffffffffffffffffffffffffffffffffffff16815260200190815260200160002060010160008281526020019081526020016000206001015491505090565b600061269882611f57565b60000b1461270e576040517f08c379a00000000000000000000000000000000000000000000000000000000081526004018080602001828103825260158152602001807f44656c657465206576656e742069732066616c7365000000000000000000000081525060200191505060405180910390fd5b600a6000828152602001908152602001600020600080820160009055600182016000905560028201600090556003820160006101000a81549060ff021916905560048201600090556005820160006101000a81549060ff02191690556005820160016101000a81549060ff021916905560088201600090556009820160009055600a820160006101000a81549073ffffffffffffffffffffffffffffffffffffffff0219169055600b820160009055600c820160009055600d820160009055600e820160009055600f8201600090556010820160006127ed91906143d3565b60118201600090556012820160006101000a81549060ff02191690556012820160016101000a81549060ff0219169055505050565b600660009054906101000a900473ffffffffffffffffffffffffffffffffffffffff1681565b6005818154811061285557fe5b906000526020600020016000915090505481565b60003073ffffffffffffffffffffffffffffffffffffffff1631905090565b60008083156128b0573373ffffffffffffffffffffffffffffffffffffffff163190506128b4565b8290505b6128bd84610b87565b81106128cd5760009150506128d3565b60019150505b92915050565b60075481565b600082156128f8576128f18383612e36565b9050612905565b6129028383613114565b90505b92915050565b60008060008061291a856118a8565b93509350935093508115612a6257600660009054906101000a900473ffffffffffffffffffffffffffffffffffffffff1673ffffffffffffffffffffffffffffffffffffffff1663a9059cbb84866040518363ffffffff1660e01b8152600401808373ffffffffffffffffffffffffffffffffffffffff1673ffffffffffffffffffffffffffffffffffffffff16815260200182815260200192505050602060405180830381600087803b1580156129d157600080fd5b505af11580156129e5573d6000803e3d6000fd5b505050506040513d60208110156129fb57600080fd5b8101908080519060200190929190505050612a61576040517f08c379a000000000000000000000000000000000000000000000000000000000815260040180806020018281038252602581526020018061443e6025913960400191505060405180910390fd5b5b7fbd233f7452553afaed4cd245a2d8d64cf39150c8cd35dcc8da09884d5bd45f9a848385846040518080602001868152602001851515151581526020018473ffffffffffffffffffffffffffffffffffffffff1673ffffffffffffffffffffffffffffffffffffffff16815260200180602001848152602001838103835260078152602001807f72656365697665000000000000000000000000000000000000000000000000008152506020018381038252600a8152602001807f686f6c64206d6f6e657900000000000000000000000000000000000000000000815250602001965050505050505060405180910390a15050505050565b60008060005490506001841415612ba9578215612b885760646002548281612b7e57fe5b0402915050612c16565b600260646003548381612b9757fe5b040281612ba057fe5b04915050612c16565b60028410612c14576000600190505b848160ff161015612bd55781820191508080600101915050612bb8565b508215612bf35760646002548281612be957fe5b0402915050612c16565b600260646003548381612c0257fe5b040281612c0b57fe5b04915050612c16565b505b92915050565b6000809050600080600a600085815260200190815260200160002060030160009054906101000a900460ff16905060008090505b8160ff168160ff161015612cd75783600a600087815260200190815260200160002060070160008360ff168152602001908152602001600020805490501115612cca57600a600086815260200190815260200160002060070160008260ff1681526020019081526020016000208054905093508060ff1692505b8080600101915050612c50565b50612ce482848684613382565b50505050565b60008290506000829050600085600286860381612d0357fe5b04860181548110612d1057fe5b906000526020600020015490505b818311612e06575b80868481548110612d3357fe5b90600052602060002001541015612d51578280600101935050612d26565b5b858281548110612d5e57fe5b9060005260206000200154811015612d7e57818060019003925050612d52565b818311612e0157858281548110612d9157fe5b9060005260206000200154868481548110612da857fe5b9060005260206000200154878581548110612dbf57fe5b906000526020600020016000898681548110612dd757fe5b90600052602060002001600084919050558391905055505082806001019350508180600190039250505b612d1e565b81851015612e1a57612e19868684612cea565b5b83831015612e2e57612e2d868486612cea565b5b505050505050565b6000612e4183610b87565b3414612eb5576040517f08c379a00000000000000000000000000000000000000000000000000000000081526004018080602001828103825260148152602001807f446f206e6f7420656e6f75676874206d6f6e657900000000000000000000000081525060200191505060405180910390fd5b60006001600460003373ffffffffffffffffffffffffffffffffffffffff1673ffffffffffffffffffffffffffffffffffffffff1681526020019081526020016000206000015401905033600460003373ffffffffffffffffffffffffffffffffffffffff1673ffffffffffffffffffffffffffffffffffffffff168152602001908152602001600020600101600083815260200190815260200160002060000160006101000a81548173ffffffffffffffffffffffffffffffffffffffff021916908373ffffffffffffffffffffffffffffffffffffffff16021790555034600460003373ffffffffffffffffffffffffffffffffffffffff1673ffffffffffffffffffffffffffffffffffffffff16815260200190815260200160002060010160008381526020019081526020016000206001018190555083600460003373ffffffffffffffffffffffffffffffffffffffff1673ffffffffffffffffffffffffffffffffffffffff168152602001908152602001600020600101600083815260200190815260200160002060020160006101000a81548160ff02191690831515021790555082600460003373ffffffffffffffffffffffffffffffffffffffff1673ffffffffffffffffffffffffffffffffffffffff168152602001908152602001600020600101600083815260200190815260200160002060030181905550600460003373ffffffffffffffffffffffffffffffffffffffff1673ffffffffffffffffffffffffffffffffffffffff168152602001908152602001600020600001600081548092919060010191905055503491505092915050565b60008061312084610b87565b905060006001600460003373ffffffffffffffffffffffffffffffffffffffff1673ffffffffffffffffffffffffffffffffffffffff1681526020019081526020016000206000015401905033600460003373ffffffffffffffffffffffffffffffffffffffff1673ffffffffffffffffffffffffffffffffffffffff168152602001908152602001600020600101600083815260200190815260200160002060000160006101000a81548173ffffffffffffffffffffffffffffffffffffffff021916908373ffffffffffffffffffffffffffffffffffffffff16021790555081600460003373ffffffffffffffffffffffffffffffffffffffff1673ffffffffffffffffffffffffffffffffffffffff16815260200190815260200160002060010160008381526020019081526020016000206001018190555084600460003373ffffffffffffffffffffffffffffffffffffffff1673ffffffffffffffffffffffffffffffffffffffff168152602001908152602001600020600101600083815260200190815260200160002060020160006101000a81548160ff02191690831515021790555083600460003373ffffffffffffffffffffffffffffffffffffffff1673ffffffffffffffffffffffffffffffffffffffff168152602001908152602001600020600101600083815260200190815260200160002060030181905550600460003373ffffffffffffffffffffffffffffffffffffffff1673ffffffffffffffffffffffffffffffffffffffff16815260200190815260200160002060000160008154809291906001019190505550819250505092915050565b600080905060608260ff1667ffffffffffffffff811180156133a357600080fd5b506040519080825280602002602001820160405280156133d25781602001602082028036833780820191505090505b50905060008090505b8360ff168160ff16101561343f57600a600086815260200190815260200160002060070160008260ff16815260200190815260200160002080549050828260ff168151811061342657fe5b60200260200101818152505080806001019150506133db565b5061344981611656565b613451611ffe565b60008090505b6001600580549050038160ff1610156134f6576005805490506001820160ff1610156134e95760058160ff168154811061348d57fe5b906000526020600020015460056001830160ff16815481106134ab57fe5b906000526020600020015414156134e85760058160ff16815481106134cc57fe5b90600052602060002001548614156134e75782806001019350505b5b5b8080600101915050613457565b5060008260ff1611156135115761350c8461353f565b613537565b85600a6000868152602001908152602001600020600f0181905550613536868561384c565b5b505050505050565b6000600a600083815260200190815260200160002060120160009054906101000a900460ff1690506000600a60008481526020019081526020016000206011015490506000600a600085815260200190815260200160002060030160009054906101000a900460ff1660ff16905060008090505b818160ff1612156137df5760008090505b600a600087815260200190815260200160002060060160008360ff168152602001908152602001600020805490508160ff1610156137d1576000600a600088815260200190815260200160002060060160008460ff1681526020019081526020016000208260ff168154811061363657fe5b9060005260206000200160000160009054906101000a900473ffffffffffffffffffffffffffffffffffffffff16905085156137c357600660009054906101000a900473ffffffffffffffffffffffffffffffffffffffff1673ffffffffffffffffffffffffffffffffffffffff1663a9059cbb82876040518363ffffffff1660e01b8152600401808373ffffffffffffffffffffffffffffffffffffffff1673ffffffffffffffffffffffffffffffffffffffff16815260200182815260200192505050602060405180830381600087803b15801561371557600080fd5b505af1158015613729573d6000803e3d6000fd5b505050506040513d602081101561373f57600080fd5b81019080805190602001909291905050506137c2576040517f08c379a000000000000000000000000000000000000000000000000000000000815260040180806020018281038252601f8152602001807f5472616e7366657220455243323020746f20686f7374206973206572726f720081525060200191505060405180910390fd5b5b5080806001019150506135c4565b5080806001019150506135b3565b506001600a600086815260200190815260200160002060120160016101000a81548160ff0219169083151502179055507fd1e2a93de73d2833bf993f270a45e97a74d8b22dfd59e37f57093127b96008c0846040518082815260200191505060405180910390a150505050565b6000600a600083815260200190815260200160002060120160009054906101000a900460ff1690506000600a6000848152602001908152602001600020600401541115613aae5760006138c7600a600085815260200190815260200160002060040154600660149054906101000a900460ff1660ff16613ab3565b905080600a60008581526020019081526020016000206004015403600a60008581526020019081526020016000206004018190555080600754036007819055508115613a8657600660009054906101000a900473ffffffffffffffffffffffffffffffffffffffff1673ffffffffffffffffffffffffffffffffffffffff1663a9059cbb600960009054906101000a900473ffffffffffffffffffffffffffffffffffffffff16836040518363ffffffff1660e01b8152600401808373ffffffffffffffffffffffffffffffffffffffff1673ffffffffffffffffffffffffffffffffffffffff16815260200182815260200192505050602060405180830381600087803b1580156139d857600080fd5b505af11580156139ec573d6000803e3d6000fd5b505050506040513d6020811015613a0257600080fd5b8101908080519060200190929190505050613a85576040517f08c379a000000000000000000000000000000000000000000000000000000000815260040180806020018281038252601f8152602001807f5472616e7366657220455243323020746f20686f7374206973206572726f720081525060200191505060405180910390fd5b5b80600a6000858152602001908152602001600020600b0181905550613aac848484613aca565b505b505050565b6000606483830281613ac157fe5b04905092915050565b6000613b12600a600085815260200190815260200160002060040154600a600086815260200190815260200160002060050160009054906101000a900460ff1660ff16613ab3565b905080600a60008581526020019081526020016000206004015403600a60008581526020019081526020016000206004018190555080600754036007819055506000600a6000858152602001908152602001600020600a0160009054906101000a900473ffffffffffffffffffffffffffffffffffffffff1690508215613cea57600660009054906101000a900473ffffffffffffffffffffffffffffffffffffffff1673ffffffffffffffffffffffffffffffffffffffff1663a9059cbb82846040518363ffffffff1660e01b8152600401808373ffffffffffffffffffffffffffffffffffffffff1673ffffffffffffffffffffffffffffffffffffffff16815260200182815260200192505050602060405180830381600087803b158015613c3c57600080fd5b505af1158015613c50573d6000803e3d6000fd5b505050506040513d6020811015613c6657600080fd5b8101908080519060200190929190505050613ce9576040517f08c379a000000000000000000000000000000000000000000000000000000000815260040180806020018281038252601f8152602001807f5472616e7366657220455243323020746f20686f7374206973206572726f720081525060200191505060405180910390fd5b5b81600a6000868152602001908152602001600020600c0181905550613d10858585613d17565b5050505050565b6000613d5f600a600085815260200190815260200160002060040154600a600086815260200190815260200160002060050160019054906101000a900460ff1660ff16613ab3565b90506000600a60008581526020019081526020016000206007016000868152602001908152602001600020805490508281613d9657fe5b049050816007540360078190555080600a6000868152602001908152602001600020600d018190555060008090505b600a60008681526020019081526020016000206007016000878152602001908152602001600020805490508160ff161015613fff576000600a600087815260200190815260200160002060070160008881526020019081526020016000208260ff1681548110613e3157fe5b9060005260206000200160000160009054906101000a900473ffffffffffffffffffffffffffffffffffffffff16905082600a60008881526020019081526020016000206004015403600a6000888152602001908152602001600020600401819055508415613ff157600660009054906101000a900473ffffffffffffffffffffffffffffffffffffffff1673ffffffffffffffffffffffffffffffffffffffff1663a9059cbb82856040518363ffffffff1660e01b8152600401808373ffffffffffffffffffffffffffffffffffffffff1673ffffffffffffffffffffffffffffffffffffffff16815260200182815260200192505050602060405180830381600087803b158015613f4357600080fd5b505af1158015613f57573d6000803e3d6000fd5b505050506040513d6020811015613f6d57600080fd5b8101908080519060200190929190505050613ff0576040517f08c379a000000000000000000000000000000000000000000000000000000000815260040180806020018281038252601f8152602001807f5472616e7366657220455243323020746f20686f7374206973206572726f720081525060200191505060405180910390fd5b5b508080600101915050613dc5565b5061400b858585614012565b5050505050565b6000600a6000848152602001908152602001600020600601600085815260200190815260200160002080549050600a6000858152602001908152602001600020600401548161405d57fe5b04905060008090505b600a60008581526020019081526020016000206006016000868152602001908152602001600020805490508160ff1610156142a0576000600a600086815260200190815260200160002060060160008781526020019081526020016000208260ff16815481106140d257fe5b9060005260206000200160000160009054906101000a900473ffffffffffffffffffffffffffffffffffffffff16905082600a60008781526020019081526020016000206004015403600a600087815260200190815260200160002060040181905550831561429257600660009054906101000a900473ffffffffffffffffffffffffffffffffffffffff1673ffffffffffffffffffffffffffffffffffffffff1663a9059cbb82856040518363ffffffff1660e01b8152600401808373ffffffffffffffffffffffffffffffffffffffff1673ffffffffffffffffffffffffffffffffffffffff16815260200182815260200192505050602060405180830381600087803b1580156141e457600080fd5b505af11580156141f8573d6000803e3d6000fd5b505050506040513d602081101561420e57600080fd5b8101908080519060200190929190505050614291576040517f08c379a000000000000000000000000000000000000000000000000000000000815260040180806020018281038252601f8152602001807f5472616e7366657220455243323020746f20686f7374206973206572726f720081525060200191505060405180910390fd5b5b508080600101915050614066565b5080600a6000858152602001908152602001600020600e01819055506000600a600085815260200190815260200160002060120160016101000a81548160ff0219169083151502179055507fd320079e0e35887df7aac9ad79d3da039625f35f0771dc81bb90e367302328ac838360405180838152602001821515151581526020019250505060405180910390a150505050565b6040518060200160405280600073ffffffffffffffffffffffffffffffffffffffff1681525090565b6040518060200160405280600073ffffffffffffffffffffffffffffffffffffffff1681525090565b8280548282559060005260206000209081019282156143c2579160200282015b828111156143c15782518255916020019190600101906143a6565b5b5090506143cf91906143f4565b5090565b50805460008255906000526020600020908101906143f191906143f4565b50565b61441691905b808211156144125760008160009055506001016143fa565b5090565b9056fe4f6e6c79206f776e65722063616e206578656375746520746869732066756e6374696f6e5472616e73666572204d6174696320746f6b656e20746f20686f7374206973206572726f72a26469706673582212200cf7c330513d46d8422a703cd7c28d23dde754a85efe5064275a773895132aa264736f6c63430006060033",
  "immutableReferences": {},
  "source": "pragma solidity ^0.6.6;\n\nimport \"./HoldMoney.sol\";\nimport { MaticWETH } from \"./child/MaticWETH.sol\";\nimport \"./Sorter.sol\";\n\n\ncontract Quize is HoldMoney, Sorter {\n    MaticWETH public maticToken;\n\n    uint8 private percentQuiz = 2;\n    uint256 public fullAmount;\n    uint256 private sevenDaysTimeStamp = 604800;\n    address payable public companyAddress;\n\n    event eventIsFinish(int256 question_id, bool payEther);\n    event payEvent(string path, uint256 money, bool payEther, address wallet, string from, int256 question_id);\n    event revertedEvent(int256 question_id);\n\n    struct Participant {\n        address payable participants;\n    }\n\n    struct Validator {\n        address payable validators;\n    }\n\n    struct Question {\n        int256 question_id;\n        uint256 startTime;\n        uint256 endTime;\n        uint8 questionQuantity;\n        uint256 money;\n        uint8 percentHost;\n        uint8 percentValidator;\n        mapping(uint256 => Participant[]) participant;\n        mapping(uint256 => Validator[]) validator;\n        int256 validatorsAmount;\n        int256 activeValidators;\n        address payable hostWallet;\n        uint256 persentFeeCompany;\n        uint256 persentFeeHost;\n        uint256 persentForEachValidators;\n        uint256 moneyForParticipant;\n        uint256 correctAnswer;\n        address[] allParticipant;\n        uint256 quizePrice;\n        bool payEther;\n        bool reverted;\n    }\n\n    mapping(int256 => Question) questions;\n\n    constructor(MaticWETH _maticToken) public {\n        maticToken = _maticToken;\n        companyAddress = msg.sender;\n    }\n\n    function startQestion(\n        int256 _question_id,\n        uint256 _startTime,\n        uint256 _endTime,\n        uint8 _percentHost,\n        uint8 _percentValidator,\n        uint8 _questionQuantity,\n        int256 _validatorsAmount,\n        uint256 _quizePrice,\n        bool _pathHoldMoney,\n        bool _payEther\n    ) public payable {\n        questions[_question_id].question_id = _question_id;\n        questions[_question_id].endTime = _endTime;\n        questions[_question_id].questionQuantity = _questionQuantity;\n        questions[_question_id].startTime = _startTime;\n        questions[_question_id].validatorsAmount = _validatorsAmount;\n        questions[_question_id].hostWallet = msg.sender;\n        questions[_question_id].quizePrice = _quizePrice;\n        questions[_question_id].payEther = _payEther;\n\n        if (_percentHost == 0) {\n            questions[_question_id].percentHost = 3;\n        } else {\n            questions[_question_id].percentHost = _percentHost;\n        }\n\n        if (_percentValidator == 0) {\n            questions[_question_id].percentValidator = 5;\n        } else {\n            questions[_question_id].percentValidator = _percentValidator;\n        }\n\n        uint256 amount = _setMoneyRetention(_pathHoldMoney, _question_id);\n        if(_pathHoldMoney){\n           require(maticToken.allowance(msg.sender, address(this)) >= amount, \"Do not enought ethers\");\n           maticToken.transfer(address(this), amount);\n        }\n        // else {} TO DO else bettery token\n        emit payEvent(\"send\", amount, _pathHoldMoney, msg.sender, \"hold money\", _question_id);\n    }\n\n    function setAnswer(int256 _question_id, uint8 _whichAnswer) public payable {\n        bool payEther = questions[_question_id].payEther;\n        require(setTimeAnswer(_question_id) == 0, \"Time is not valid\");\n\n        if(payEther){\n            require(maticToken.allowance(msg.sender, address(this)) >= questions[_question_id].quizePrice, \"Do not enought tokens\");\n        }\n       // else {} TO DO else bettery token\n\n        Participant memory parts;\n        parts = Participant(msg.sender);\n        questions[_question_id].participant[_whichAnswer].push(parts);\n        questions[_question_id].allParticipant.push(msg.sender);\n\n        uint256 price = questions[_question_id].quizePrice;\n        questions[_question_id].money += price;\n        fullAmount += price;\n\n        if(payEther){\n            require(maticToken.transferFrom(msg.sender, address(this), price), \"Transfer error\");\n        }\n       // else {} TO DO else bettery token\n\n        emit payEvent(\"send\", questions[_question_id].quizePrice, payEther, msg.sender, \"participant\", _question_id);\n\n    }\n\n    function setValidator(int256 _question_id, uint8 _whichAnswer) public payable {\n        require(setTimeValidator(_question_id) == 0, \"Time is not valid\");\n        Validator memory valid;\n        valid = Validator(msg.sender);\n        questions[_question_id].validator[_whichAnswer].push(valid);\n        int256 active = questions[_question_id].activeValidators + 1;\n        if (active == questions[_question_id].validatorsAmount) {\n            questions[_question_id].activeValidators = active;\n            letsFindCorrectAnswer(_question_id);\n        } else {\n            questions[_question_id].activeValidators = active;\n        }\n    }\n\n    function letsFindCorrectAnswer(int256 _question_id) private {\n        uint256 biggestValue = 0;\n        uint256 correctAnswer;\n        uint8 questionQuantity = questions[_question_id].questionQuantity;\n\n        // find correct answer\n        for (uint8 i = 0; i < questionQuantity; i++) {\n            if (questions[_question_id].validator[i].length > biggestValue) {\n                biggestValue = questions[_question_id].validator[i].length;\n                correctAnswer = i;\n            }\n        }\n\n        findDuplicates(correctAnswer, biggestValue, _question_id, questionQuantity);\n    }\n\n    function findDuplicates(uint256 correctAnswer, uint256 biggestValue, int256 _question_id, uint8 questionQuantity) private {\n        uint8 duplicatesAnswers = 0;\n        uint256[] memory allValidatorsAnswers = new uint[](questionQuantity);\n        for (uint8 i = 0; i < questionQuantity; i++) {\n            allValidatorsAnswers[i] = questions[_question_id].validator[i].length;\n        }\n\n        setSort(allValidatorsAnswers);\n        sort();\n\n        for (uint8 i = 0; i < sortedArray.length - 1; i++) {\n            if((i+1) < sortedArray.length){\n              if (sortedArray[i + 1] == sortedArray[i]) {\n                  if(biggestValue == sortedArray[i]){\n                    duplicatesAnswers ++;\n                  }\n              }\n            }\n        }\n\n        if(duplicatesAnswers > 0){\n            revertedPayment(_question_id);\n        }else{\n            questions[_question_id].correctAnswer = correctAnswer;\n            letsPayCompanyFee(correctAnswer, _question_id);\n        }\n    }\n\n    function letsPayCompanyFee(uint256 correctAnswer, int256 _question_id) private {\n        bool payEther = questions[_question_id].payEther;\n        if (questions[_question_id].money > 0) {\n            // pay fee for company\n            uint256 persentFee = getPersent(\n                questions[_question_id].money,\n                percentQuiz\n            );\n            questions[_question_id].money = questions[_question_id].money - persentFee;\n            fullAmount = fullAmount - persentFee;\n            if(payEther){\n                require(maticToken.transfer(companyAddress, persentFee), \"Transfer ERC20 to host is error\");\n                }\n            // else {} TO DO else bettery token\n            questions[_question_id].persentFeeCompany = persentFee;\n\n            letsPayHostFee(correctAnswer, _question_id, payEther);\n        }\n    }\n\n    function letsPayHostFee(uint256 correctAnswer, int256 _question_id, bool payEther) private {\n        // pay fee for host\n        uint256 persHostFee = getPersent(\n            questions[_question_id].money,\n            questions[_question_id].percentHost\n        );\n        questions[_question_id].money = questions[_question_id].money - persHostFee;\n        fullAmount = fullAmount - persHostFee;\n        address payable hostWallet = questions[_question_id].hostWallet;\n        if(payEther){require(maticToken.transfer(hostWallet, persHostFee), \"Transfer ERC20 to host is error\");}\n        // else {} TO DO else bettery token\n        questions[_question_id].persentFeeHost = persHostFee;\n\n        letsPayValidatorFee(correctAnswer, _question_id, payEther);\n    }\n\n    function letsPayValidatorFee(uint256 correctAnswer, int256 _question_id, bool payEther) private {\n        // calculate percent for validator\n        uint256 persentForValidators = getPersent(\n            questions[_question_id].money,\n            questions[_question_id].percentValidator\n        );\n        uint256 persentForEachValidators = persentForValidators / questions[_question_id].validator[correctAnswer].length;\n        fullAmount = fullAmount - persentForValidators;\n\n        questions[_question_id].persentForEachValidators = persentForEachValidators;\n\n        // pay for validatos\n        for (uint8 i = 0; i < questions[_question_id].validator[correctAnswer].length; i++ ) {\n            address payable _validator = questions[_question_id].validator[correctAnswer][i].validators;\n            questions[_question_id].money = questions[_question_id].money - persentForEachValidators;\n\n            if(payEther){require(maticToken.transfer(_validator, persentForEachValidators), \"Transfer ERC20 to host is error\");}\n            // else {} TO DO else bettery token\n        }\n\n        letsPayParticipantFee(correctAnswer, _question_id, payEther);\n    }\n\n    function letsPayParticipantFee(uint256 correctAnswer, int256 _question_id, bool payEther) private{\n         // Pay for participant\n        uint256 moneyForParticipant = questions[_question_id].money / questions[_question_id].participant[correctAnswer].length;\n        for ( uint8 i = 0; i < questions[_question_id].participant[correctAnswer].length; i++) {\n            address payable _participant = questions[_question_id].participant[correctAnswer][i].participants;\n            questions[_question_id].money = questions[_question_id].money - moneyForParticipant;\n\n            if(payEther){require(maticToken.transfer(_participant, moneyForParticipant), \"Transfer ERC20 to host is error\");}\n            // else {} TO DO else bettery token\n        }\n\n        questions[_question_id].moneyForParticipant = moneyForParticipant;\n        questions[_question_id].reverted = false;\n\n        emit eventIsFinish(_question_id, payEther);\n    }\n\n    function revertedPayment(int256 _question_id) private{\n        bool payEther = questions[_question_id].payEther;\n        uint256 price = questions[_question_id].quizePrice;\n        int256 questionQuantity = questions[_question_id].questionQuantity;\n\n        for (uint8 i = 0; i < questionQuantity; i++) {\n          for(uint8 index = 0; index < questions[_question_id].participant[i].length; index++){\n                address payable _participant = questions[_question_id].participant[i][index].participants;\n                if(payEther){\n                    require(maticToken.transfer(_participant, price), \"Transfer ERC20 to host is error\");\n                }\n                //else{} TO DO\n            }\n        }\n        questions[_question_id].reverted = true;\n        emit revertedEvent(_question_id);\n    }\n\n    function getPersent(uint256 _percent, uint256 _from)\n        private\n        pure\n        returns (uint256)\n    {\n        return (_from * _percent) / 100;\n    }\n\n    function getQuestion(int256 _question_id)\n        public\n        view\n        returns (\n            uint256 persentFeeCompany,\n            uint256 persentForEachValidators,\n            uint256 money,\n            uint256 moneyForParticipant,\n            bool reverted,\n            uint256 correctAnswer,\n            uint256 persentFeeHost\n        )\n    {\n        return (\n            questions[_question_id].persentFeeCompany,\n            questions[_question_id].persentForEachValidators,\n            questions[_question_id].money,\n            questions[_question_id].moneyForParticipant,\n            questions[_question_id].reverted,\n            questions[_question_id].correctAnswer,\n            questions[_question_id].persentFeeHost\n        );\n    }\n\n    function deleteEvent(int256 _question_id) public {\n        require(\n            deleteEventValidator(_question_id) == 0,\n            \"Delete event is false\"\n        );\n        delete questions[_question_id];\n    }\n\n    function quizeBalance() public view returns (uint256) {\n        return address(this).balance;\n    }\n\n    function getContractTokenBalance() public view returns (uint256) {\n        return maticToken.balanceOf(address(this));\n    }\n\n    function getMoneyRetention(address payable _host) public payable {\n        (uint256 amount, address host, bool path, int256 _question_id) = _getMoneyRetention(_host);\n        if(path){\n           require(maticToken.transfer(host, amount), \"Transfer Matic token to host is error\");\n        }\n        //else{} TO DO\n\n        emit payEvent(\"receive\", amount, path, host, \"hold money\", _question_id);\n    }\n\n function amountGuard(bool _path) public view returns (int8) {\n     uint256 balanceToken;\n     if(_path){\n         balanceToken = maticToken.balanceOf(address(msg.sender));\n     }\n     //else{} TO DO\n\n     return _amountGuard(_path, balanceToken);\n }\n\n // VALIDATION\n\n     function setTimeValidator(int256 _question_id) public view returns (int8) {\n        if (int256(now - questions[_question_id].endTime) >= 0){\n            if (int256((questions[_question_id].endTime + sevenDaysTimeStamp) - now) >= 0){\n                // if validator made activities like participants.\n                for (uint8 i = 0; i < questions[_question_id].allParticipant.length; i++) {\n                    if (questions[_question_id].allParticipant[i] == msg.sender) {\n                        return 3;\n                    }\n                }\n                // user can validate because time is valid.\n                return 0;\n            } else {\n                // user can't validate because time is finish.\n                return 2;\n            }\n        } else {\n            // user can't validate because event is not started yet.\n            return 1;\n        }\n    }\n\n    function setTimeAnswer(int256 _question_id) public view returns (int8) {\n        if (int256(now - questions[_question_id].startTime) >= 0) {\n            if (int256(questions[_question_id].endTime - now) >= 0) {\n                // user can make answer because time is valid.\n                return 0;\n            } else {\n                // user can't make answer because event is finish.\n                return 2;\n            }\n        } else {\n            // user can't make answer because event is not started yet.\n            return 1;\n        }\n    }\n\n    function deleteEventValidator(int256 _question_id)\n        public\n        view\n        returns (int8)\n    {\n        if (questions[_question_id].hostWallet == msg.sender) {\n            if (questions[_question_id].money == 0) {\n                // user can delete event\n                return 0;\n            } else {\n                // user can't delete event because event has money on balance\n                return 1;\n            }\n        } else {\n            // only owner can delete event.\n            return 2;\n        }\n    }\n}\n",
  "sourcePath": "/Users/macbook/Documents/freelance/node/QUIZE/contracts/contracts/Quize.sol",
  "compiler": {
    "name": "solc",
    "version": "0.6.6+commit.6c089d02.Linux.g++"
  },
  "schemaVersion": "3.2.2",
  "updatedAt": "2020-07-15T14:20:00.664Z",
  "networkType": "ethereum",
  "devdoc": {
    "methods": {}
  },
  "userdoc": {
    "methods": {}
  }
}