{
  "contractName": "Sorter",
  "abi": [
    {
      "inputs": [
        {
          "internalType": "uint256",
          "name": "",
          "type": "uint256"
        }
      ],
      "name": "sortedArray",
      "outputs": [
        {
          "internalType": "uint256",
          "name": "",
          "type": "uint256"
        }
      ],
      "stateMutability": "view",
      "type": "function"
    },
    {
      "inputs": [
        {
          "internalType": "uint256[]",
          "name": "_data",
          "type": "uint256[]"
        }
      ],
      "name": "setSort",
      "outputs": [],
      "stateMutability": "nonpayable",
      "type": "function"
    },
    {
      "inputs": [],
      "name": "sort",
      "outputs": [],
      "stateMutability": "nonpayable",
      "type": "function"
    }
  ],
  "bytecode": "0x608060405234801561001057600080fd5b506103a2806100206000396000f3fe608060405234801561001057600080fd5b50600436106100415760003560e01c80633b97b5d6146100465780638cdc86a6146100fe578063e2d914f214610108575b600080fd5b6100fc6004803603602081101561005c57600080fd5b810190808035906020019064010000000081111561007957600080fd5b82018360208201111561008b57600080fd5b803590602001918460208302840111640100000000831117156100ad57600080fd5b919080806020026020016040519081016040528093929190818152602001838360200280828437600081840152601f19601f82011690508083019250505050505050919291929050505061014a565b005b610106610164565b005b6101346004803603602081101561011e57600080fd5b810190808035906020019092919050505061018d565b6040518082815260200191505060405180910390f35b80600090805190602001906101609291906102fa565b5050565b6000808054905014156101765761018b565b61018a6000806001600080549050036101ae565b5b565b6000818154811061019a57fe5b906000526020600020016000915090505481565b600082905060008290506000856002868603816101c757fe5b048601815481106101d457fe5b906000526020600020015490505b8183116102ca575b808684815481106101f757fe5b906000526020600020015410156102155782806001019350506101ea565b5b85828154811061022257fe5b906000526020600020015481101561024257818060019003925050610216565b8183116102c55785828154811061025557fe5b906000526020600020015486848154811061026c57fe5b906000526020600020015487858154811061028357fe5b90600052602060002001600089868154811061029b57fe5b90600052602060002001600084919050558391905055505082806001019350508180600190039250505b6101e2565b818510156102de576102dd8686846101ae565b5b838310156102f2576102f18684866101ae565b5b505050505050565b828054828255906000526020600020908101928215610336579160200282015b8281111561033557825182559160200191906001019061031a565b5b5090506103439190610347565b5090565b61036991905b8082111561036557600081600090555060010161034d565b5090565b9056fea2646970667358221220f272b816b91f997620b7d34bcef96bf123dc614f264f8478bed1c88f705384de64736f6c63430006060033",
  "immutableReferences": {},
  "source": "pragma solidity ^0.6.6;\n\ncontract Sorter {\n\n    uint256[] public sortedArray;\n    function setSort(uint256[] memory _data) public { sortedArray = _data; }\n    function sort() public {\n        if (sortedArray.length == 0)\n            return;\n        quickSort(sortedArray, 0, sortedArray.length - 1);\n    }\n\n    function quickSort(uint256[] storage arr, uint left, uint right) internal {\n        uint i = left;\n        uint j = right;\n        uint pivot = arr[left + (right - left) / 2];\n        while (i <= j) {\n            while (arr[i] < pivot) i++;\n            while (pivot < arr[j]) j--;\n            if (i <= j) {\n                (arr[i], arr[j]) = (arr[j], arr[i]);\n                i++;\n                j--;\n            }\n        }\n        if (left < j)\n            quickSort(arr, left, j);\n\n        if (i < right)\n            quickSort(arr, i, right);\n    }\n}\n",
  "sourcePath": "/Users/macbook/Documents/freelance/node/QUIZE/contracts/contracts/matic_network/Sorter.sol",
  "compiler": {
    "name": "solc",
    "version": "0.6.6+commit.6c089d02.Linux.g++"
  },
  "schemaVersion": "3.2.2",
  "updatedAt": "2020-11-30T13:32:48.289Z",
  "devdoc": {
    "methods": {}
  },
  "userdoc": {
    "methods": {}
  }
}