{
  "contractName": "Sorter",
  "abi": [
    {
      "constant": true,
      "inputs": [
        {
          "name": "",
          "type": "uint256"
        }
      ],
      "name": "sortedArray",
      "outputs": [
        {
          "name": "",
          "type": "uint256"
        }
      ],
      "payable": false,
      "stateMutability": "view",
      "type": "function"
    },
    {
      "constant": false,
      "inputs": [
        {
          "name": "_data",
          "type": "uint256[]"
        }
      ],
      "name": "setSort",
      "outputs": [],
      "payable": false,
      "stateMutability": "nonpayable",
      "type": "function"
    },
    {
      "constant": false,
      "inputs": [],
      "name": "sort",
      "outputs": [],
      "payable": false,
      "stateMutability": "nonpayable",
      "type": "function"
    }
  ],
  "bytecode": "0x608060405234801561001057600080fd5b506103cb806100206000396000f3fe608060405234801561001057600080fd5b506004361061005e576000357c0100000000000000000000000000000000000000000000000000000000900480633b97b5d6146100635780638cdc86a61461011b578063e2d914f214610125575b600080fd5b6101196004803603602081101561007957600080fd5b810190808035906020019064010000000081111561009657600080fd5b8201836020820111156100a857600080fd5b803590602001918460208302840111640100000000831117156100ca57600080fd5b919080806020026020016040519081016040528093929190818152602001838360200280828437600081840152601f19601f820116905080830192505050505050509192919290505050610167565b005b610123610181565b005b6101516004803603602081101561013b57600080fd5b81019080803590602001909291905050506101aa565b6040518082815260200191505060405180910390f35b806000908051906020019061017d92919061032d565b5050565b600080805490501415610193576101a8565b6101a76000806001600080549050036101cd565b5b565b6000818154811015156101b957fe5b906000526020600020016000915090505481565b6000829050600082905060008560028686038115156101e857fe5b0486018154811015156101f757fe5b906000526020600020015490505b81831115156102fd575b80868481548110151561021e57fe5b9060005260206000200154101561023c57828060010193505061020f565b5b858281548110151561024b57fe5b906000526020600020015481101561026b5781806001900392505061023d565b81831115156102f857858281548110151561028257fe5b9060005260206000200154868481548110151561029b57fe5b906000526020600020015487858154811015156102b457fe5b90600052602060002001600089868154811015156102ce57fe5b90600052602060002001600084919050558391905055505082806001019350508180600190039250505b610205565b81851015610311576103108686846101cd565b5b83831015610325576103248684866101cd565b5b505050505050565b828054828255906000526020600020908101928215610369579160200282015b8281111561036857825182559160200191906001019061034d565b5b509050610376919061037a565b5090565b61039c91905b80821115610398576000816000905550600101610380565b5090565b9056fea165627a7a723058205f00e132bc97164d76a4e6a3b03d25dbdb4352dcbe88a03b5a923e15d4bca4aa0029",
  "source": "pragma solidity >=0.5.2 < 0.6.6;\n\ncontract Sorter {\n\n    uint256[] public sortedArray;\n    function setSort(uint256[] memory _data) public { sortedArray = _data; }\n    function sort() public {\n        if (sortedArray.length == 0)\n            return;\n        quickSort(sortedArray, 0, sortedArray.length - 1);\n    }\n\n    function quickSort(uint256[] storage arr, uint left, uint right) internal {\n        uint i = left;\n        uint j = right;\n        uint pivot = arr[left + (right - left) / 2];\n        while (i <= j) {\n            while (arr[i] < pivot) i++;\n            while (pivot < arr[j]) j--;\n            if (i <= j) {\n                (arr[i], arr[j]) = (arr[j], arr[i]);\n                i++;\n                j--;\n            }\n        }\n        if (left < j)\n            quickSort(arr, left, j);\n\n        if (i < right)\n            quickSort(arr, i, right);\n    }\n}\n",
  "sourcePath": "/Users/macbook/Documents/freelance/node/QUIZE/contracts/contracts/Sorter.sol",
  "compiler": {
    "name": "solc",
    "version": "0.5.2+commit.1df8f40c.Emscripten.clang"
  },
  "schemaVersion": "3.0.2",
  "updatedAt": "2020-05-25T12:37:19.635Z",
  "devdoc": {
    "methods": {}
  },
  "userdoc": {
    "methods": {}
  }
}